:020000040800F2
:1000000000000120C1C2000831B300082DB3000870
:1000100029B3000825B3000821B300080000000040
:1000200000000000000000000000000019B30008FC
:100030001DB300080000000015B3000805B3000858
:1000400011C3000811C3000811C30008C1B20008A1
:1000500011C3000811C3000811C3000811C3000830
:1000600011C30008ADB2000811C3000811C3000895
:10007000A1B2000895B2000811C3000811C300081E
:1000800089B200087DB2000811C3000811C300083E
:1000900011C3000811C3000811C3000811C30008F0
:1000A00011C3000811C3000811C3000811C30008E0
:1000B00011C30008000000000000000011C3000888
:1000C00011C3000859B2000811C3000811C3000889
:1000D00011C3000811C3000879AF000811C300085C
:1000E00065AF0008D5B30008000000000000000064
:1000F0000000000000000000000000000000000000
:100100000000000011C300080000000011C3000837
:10011000000000000000000011C3000811C3000827
:1001200011C3000811C3000811C3000811C300085F
:1001300011C30008000000000000000000000000E3
:1001400011C3000811C3000811C30008000000001B
:1001500011C3000811C3000811C3000811C300082F
:1001600011C3000811C3000811C3000800000000FB
:1001700011C3000811C300080000000000000000C7
:1001800011C3000811C3000811C3000800000000DB
:1001900010B5054C237833B9044B13B10448AFF3C1
:1001A00000800123237010BD980300200000000090
:1001B000082C010808B5034B1BB103490348AFF3F2
:1001C000008008BD000000009C030020082C0108EE
:1001D000F0B40568294F064601E0581C06D1EC69C9
:1001E00031EA0400F9D10020F0BC70473868801A69
:1001F000834227D333B328684407F0D5E869000564
:10020000EDD54FF400632B6255E8003F23F4D07323
:1002100045E80032002AF7D1326802F1080353E8BA
:10022000003F23F0010302F1080040E800310029FB
:10023000F3D12023B36786F87410F3670320C6F860
:100240008030D1E755E8003F23F4D07345E8003211
:10025000002AF7D1326802F1080353E8003F23F087
:10026000010302F1080040E800310029F3D1202306
:10027000B36786F874100320F367B5E7B403002072
:1002800009494A68D36823F0A003D360086804E0F2
:100290000B681B1AB3F57A7F04D8D3689B06F7D591
:1002A0000020704703207047B40300200B4A30B48D
:1002B000411E00F187054FF0FF3011F8014F082370
:1002C0006040C4074CBF82EA50004008013BF8D1AF
:1002D0008D42F2D1C04330BC704700BF2083B8EDDF
:1002E0000288438843EA02430B607047DFF880C00E
:1002F0002DE9F04F023802390CF1E2090CF1E40B60
:100300004FF0000A40F6DE1830F8025F31F8024F75
:10031000A54220D09CF800400BEBC404658825B3AF
:100320006768002607EB850E47F6FF7557F8044B04
:10033000A4B2A54228BF2546A64238BF2646BE45E0
:10034000F4D17600B6B26D00B24538BFB246ADB258
:10035000A84528BFA8460CF1010CCC45D4D1A2F881
:100360000080A3F800A0BDE8F08F4FF6FE75EFE720
:10037000202C01082DE9F04F054687B0002405EB3D
:10038000410E02900592104604910393AEF1120EB5
:10039000AA1E27460194A146A2464FF0010C40F246
:1003A000EE2B14E0BAF1000F30D14B4535DD994604
:1003B0000124019E7642B342BCBFA8EB0503019322
:1003C0008F4238BF0F46964500F102002BD0558A68
:1003D00032F8021F6B1A03F50046B6F5803F38BFAE
:1003E000038088462CBF4FF0000C11885B45D9DC98
:1003F000594E9945B8BF9946B342DADA002C0ABF84
:100400004FF0000CA2464FF0010AD2E74B4506DD43
:10041000994654464FF0000CCBE70124C9E75446F7
:100420004FF0000CC5E7BCF1000F05D14FF0000AFA
:10043000504607B0BDE8F08F002CF7D0BAF1000F9E
:10044000F4D0049A059E04970023CDF81490A2F1ED
:100450001C0E123698469C461D461F46994636F994
:10046000023F03EB830203EB4203304631460A228C
:1004700031F902BD30F9024F02FB0B33A2F1020B3E
:10048000013A0BFB0433F3D1634561DC434501DAE8
:100490009846A94601357545E1D14CF250339C454B
:1004A00038464C46049FDDF81490BFDD2B4B984531
:1004B000BCDAB9F1000FB9D0019B002BB6D0029B7A
:1004C00011991B88FF00DB0041B1BB4204D2DA4323
:1004D0004A443A44B2FBF9F211990A60109A002A90
:1004E000A6D0039A002AA3D0024602990E3231F810
:1004F0001210B3EBC10F4FEAC10005D2DB434B44EE
:100500000344B3FBF9F3D21A029B04F10E0933F84A
:100510001930B7EBC30F4FEAC30107D90198431E47
:100520003B445B1AB3FBF0F3A9EB0309002AFFF687
:100530007DAFB9F1000FFFF679AF4A453FF776AFCF
:10054000109BA9EB0209C3F80090039B1A606FE7A8
:100550009C462F469EE700BF12FDFFFFB03CFFFF09
:10056000034B9B6A13B1DB6802491847704700BF11
:10057000B40300204089010870B4124E124D00F1FE
:10058000BC04002143680B44024640F8043F126853
:100590009A1AB24209DD50F8042CA3F5C9237E3B18
:1005A000A1F5C92103607E399A1AAA4206DA03F539
:1005B000C9237E3301F5C92103607E318442E1D134
:1005C00070BC70473F240300C1DBFCFF2DE9F04FF6
:1005D000DFF8C09000234FF0010A4FF00F0E4FF0EC
:1005E00090475D00032101FA05F503F0070189003A
:1005F000DA0803F003040AFA03FC0EFA01F623F00A
:100600000301920001F18041A4001CEA000802F1FC
:10061000904201F5803103F101030EFA04F434D065
:10062000D1F808B01BEA040F1CD1D9F800B02BEAAE
:10063000080BC9F800B0D9F804B02BEA080BC9F8C8
:1006400004B0D9F80CB02BEA080BC9F80CB0D9F8F3
:1006500008B02BEA0808C9F80880D1F8088028EA11
:1006600004048C60396829433960116A21EA060163
:100670001162BA6822EA0502BA607A6822EA0C02BC
:100680007A60FA6822EA0505FD6030FA03F2A8D123
:10069000BDE8F08F00040140F0B4314B314E1B68CF
:1006A000056882B000248DF803403468376803EB96
:1006B0008303C4F16404C3EBC30322441B0D02FB98
:1006C00003F30193AB6819420AD12CE0019C019B12
:1006D000013B0193AB68002C08BF0022194222D0D5
:1006E000B1F5C06F05D12B7BDBB28DF803309DF8DF
:1006F00003303368DB1B9A42E8D86B68426823F00A
:10070000E003B2F5827F6B601AD0836AB3F5005FB5
:100710000DD00122002380F85D2080F85C3003209A
:1007200002B0F0BC7047002002B0F0BC70472B68EC
:1007300023F400532B602B6843F400532B60E8E74D
:100740008368B3F5004F02D0B3F5806FDDD12B681D
:1007500023F040032B60836AB3F5005FD9D1E6E74D
:1007600000000020B403002070B4294D294B2A68F2
:100770001B6804682E68C2F16402114483B0C3F39D
:10078000CB3301FB03F30193A3681A060DD52B6845
:100790009B1B8B420DD2019A019B013B0193A368E5
:1007A000002A08BF00211B06F1D4002003B070BC52
:1007B00070476368426823F0E003B2F5827F6360AC
:1007C00016D0836AB3F5005F09D00122002380F8B8
:1007D0005D2080F85C30032003B070BC7047236854
:1007E00023F400532360236843F400532360ECE7B1
:1007F0008368B3F5004F02D0B3F5806FE1D1236871
:1008000023F040032360836AB3F5005FDDD1E6E7A0
:10081000B403002000000020836910B50446BBB17A
:100820000D4B93F82C204AB963697BB10A4B0B4AF4
:100830001B6C0B4900209847002010BD1B6C094A17
:100840000749012098476369002BEFD1012010BDB3
:10085000C369002BE4D1E7E7B4030020C86F0108A7
:10086000AC6F0108906F0108704700BFD0E90F23FB
:10087000816B0069184700BF00688368184700BF94
:10088000FAE700BF70B40169B0F8422090F8383040
:1008900031F81220032B08BF82F4004240F2E51326
:1008A00003FB02F31B0C826CA3F589739BB21380CC
:1008B000828F31F812204AB1B0F8402031F812206E
:1008C000012A03D9C26C0124147002E0C26C002416
:1008D0001470C48F428F31F8145031F81240B0F9BF
:1008E000441040F2E51202FB05F2120CC2F58972C7
:1008F00013441BB2002BB8BF5B42D0E914651BB296
:10090000A4F1010200689942B2FA82F24FEA52124F
:10091000ACBF00230123327042682B7070BC1047BB
:1009200070B50446806978B1E36943B10F4B93F821
:100930002C2022B11B6C0E4A0E49012098472068DA
:10094000BDE8704083681847084D0B4A2B6C094975
:100950009847E3693BB195F82C3023B12B6C044ADE
:10096000044901209847002070BD00BFB403002057
:100970001C7001080C700108F06F01080068C36862
:10098000184700BFFAE700BFF8E700BF2DE9F047BE
:10099000C26DD0F8188006690023A8F8023004461A
:1009A0001D46137000F14C07994657F8043B03B3FA
:1009B000B3F838C0B3F89000B3F89210B3F8D82069
:1009C00006EB400006EB410106EB420206EB4C0C45
:1009D000C3E91301C3F8A420C3F814C088F8005079
:1009E0001868D3F8DC20416883F8E490C3F8E0206D
:1009F00088470135EDB2042DD7D12068BDE8F04716
:100A000043681847054B064A064910B41C6C9B6C9A
:100A1000A44602205DF8044B604700BFB4030020E9
:100A2000C48601082C700108024B9B6A0BB15B6AFB
:100A300018477047B4030020024B9B6A0BB11B6A36
:100A400018477047B4030020024B9B6A0BB15B69E7
:100A500018477047B4030020024B9B6A0BB11B6818
:100A600018477047B4030020184BDFF864C02DE925
:100A7000F0419E6C73185C1EA6460022ACFB00750C
:100A8000ED0805EB8507A0EB470780463037B8F146
:100A9000090F28460EF8017F154602F10102EDD834
:100AA000002098541046184403EB550314F8015FD6
:100AB00010F8017D27709C420570F7D11144481C45
:100AC0002C22002372543354BDE8F081B40300207B
:100AD000CDCCCCCC10B5074A92F82C40012C82B07A
:100AE00006D90091146C0449044A03460220A04729
:100AF00002B010BDB40300202C7001083070010852
:100B000030B5084C94F82C50012D83B007D9CDE9AD
:100B100000120346246C044A04490220A04703B093
:100B200030BD00BFB4030020447001082C700108E0
:100B300010B5074A92F82C40012C82B006D90091DA
:100B4000146C0449044A03460220A04702B010BDB9
:100B5000B40300202C7001085C70010810B5074A2E
:100B600092F82C40012C82B006D90091146C0449F3
:100B7000044A03460220A04702B010BDB40300207F
:100B80002C7001087070010830B5084C94F82C5096
:100B9000012D83B007D9CDE900120346246C044A25
:100BA00004490220A04703B030BD00BFB4030020B9
:100BB000807001082C700108074A92F82C10012956
:100BC00009D910B4146C0549054A0346A44602200D
:100BD0005DF8044B60477047B40300202C70010897
:100BE0009870010852B101EB8202043850F8043FBA
:100BF0004B801B0C0B8004319142F7D1704700BF32
:100C000030B583B000EB42000D4601A91C46FFF74A
:100C100067FB019A22F00F0204B12A4300920146B9
:100C200001226846FFF7DEFF03B030BD2DE9F04F2B
:100C300087B0BDF84070DDF844A003EBC7077B88A0
:100C400083B381460E4601EB020800254FF0010BED
:100C50007A6852F82540620092B2B242C4F3017041
:100C60001DD342451BDA01280CD0022836D0E8B14A
:100C7000324B334A1B6C334900209847002007B0A1
:100C8000BDE8F08FBAF10003A2EB060218BF012302
:100C900092B2C4F303414846FFF7B2FF7B880135A7
:100CA000AB42D5D8012007B0BDE8F08FC4F3445360
:100CB0000BFA03FC921BE24591B21ED30CF1FF33F9
:100CC0001E4A0193CDF800A0146C1F4A03900B46F6
:100CD0001C49A047039807B0BDE8F08F921BBAFAF1
:100CE0008AF35B0992B2C4F303414846FFF788FFD9
:100CF0007B880135AB42ABD8D4E709EB410004A9AE
:100D00000393FFF7EDFA039B4FF0FF32C3F120038B
:100D1000C4F3044422FA03F3049AA34022EA030230
:100D20000AFA04F40146144305A801220594FFF7CA
:100D300059FF7B880135AB428AD8B3E7B403002062
:100D4000EC700108E0700108A87001082DE9F04F6F
:100D5000C2F51D669A461B68164C0E36B34298BF04
:100D60009EB2154B054688BFB6B2500803EB800013
:100D700083B0174672088846023DFFF733FF04F13F
:100D8000E10904F1E40B7D2301E014F8013F35F89B
:100D9000022F3946CDE9003240465B463246FFF726
:100DA00045FF4C4501D00028EFD1CAF8006003B0E0
:100DB000BDE8F08F202C0108AC5B0108002301384E
:100DC000C1E90133CB6004282ED8DFE800F00C160F
:100DD00025290300174B184A00200870C1E9053384
:100DE000CA6101207047154B00220A704FF480221F
:100DF000C1E90533CA610120704730B4104B114C72
:100E0000CC6101209625FA22CD60C1E9012230BCD7
:100E1000C1E90533087070470B4B0C4A0020DCE732
:100E20000B4B0C4A0020D8E70020C1E905000870F0
:100E3000C8617047080005000B00020002000100B5
:100E40000800010002000300080002000400020084
:100E500008000300060002002DE9F04F1E4EDFF8E7
:100E60008480814615460FCE91B002AC0FC40FCEE0
:100E70000FC40FCE0FC496E8030098F82C30012B56
:100E800084E8030007D9D8F84040144A1449009573
:100E90004B460220A047DFF850B0DFF844A002AC78
:100EA00010AE02E00834B44213D0A3881D42F9D03A
:100EB00098F82C30012B5A464B4651464FF0020011
:100EC000F0D9276800970834D8F84070B847B44282
:100ED000EBD111B0BDE8F08F943401087C710108AA
:100EE00098710108B4030020AC71010830B50A4CB8
:100EF00094F82C50012D85B00BD9CDE90112034691
:100F0000A1F58C7080B20090246C044A0449022040
:100F1000A04705B030BD00BFB4030020C071010878
:100F20009871010830B50346A1F16204104814F02D
:100F3000010FA5B285B090F82C400CD1012C08D936
:100F4000CDE901126D080095046C0A4A0A49022095
:100F5000A04705B030BD012CFBD9CDE901126D08C9
:100F60000095046C054A04490220A04705B030BD35
:100F7000B4030020E871010898710108207201088B
:100F800030B5094C94F82C50012D83B009D97D3926
:100F900089B2CDE900120346246C044A04490220B8
:100FA000A04703B030BD00BFB40300205872010851
:100FB0009871010810B5084991F82C40012C82B0B5
:100FC00008D902F00F0200920C6C044A044903464F
:100FD0000220A04702B010BDB403002088720108AF
:100FE0009871010830B5094C94F82C50012D83B04C
:100FF00009D92C3989B2CDE900120346246C044A80
:1010000004490220A04703B030BD00BFB403002054
:10101000A87201089871010830B50C4C94F82C5056
:10102000012D83B010D91146094D246C094A11F4E1
:10103000006F03460848C1F30A0118BF2846CDE9EE
:10104000000106490220A04703B030BDB4030020D0
:10105000D8720108E0720108D07201089871010885
:1010600010B4084C248E490864088C4228BF0C46F2
:10107000023C24F00104043010601C605DF8044B55
:10108000704700BFB4030020F8B50688002A14BFDB
:101090004FF480524FF40052B6F59C6F38BF4FF4B6
:1010A0009C66B24205460F461C4623D2134B144A97
:1010B0001B6C1449002098474FF0000E1249134A48
:1010C000134BE360C4E901120FCD203676004FF0D8
:1010D000000CA4F802C004F1300C24F8106B0FC40B
:1010E00095E80F0007C497E8030023808CE803000D
:1010F0007046F8BD4FF0010EE0E700BFB4030020DA
:10110000F4720108147301080100020003001B00BF
:101110001C0020000368D0F8E820C0F8F0205A68CE
:101120001846104710B1024B9B6B1847704700BF21
:10113000B40300202DE9F04107680446C7B1D7F891
:10114000980080B100F14C0500F15C064FF00008FA
:1011500055F8040B18B1FFF7E5FF45F8048CB542CC
:10116000F6D1D7F89800FFF7DDFF3846FFF7DAFF32
:101170002046BDE8F041D5E7DFF864C02DE9F0472F
:10118000DCF844501DB12B46BDE8F047184712B3B8
:101190005200A1F10208A2F102090E469A46074642
:1011A0004944444634F8025F6DBA8C422580F9D137
:1011B000DCF83C4038463146A047BAF1000F01D177
:1011C000BDE8F0874E4438F8023F5BBAB045A8F856
:1011D0000030F8D1F4E7BDE8F047DCF83C301847C0
:1011E000B403002070B5012584B041F4A043044647
:1011F000164603A92A4601A8ADF808300196ADF8B5
:101200000A50FFF7EFFC204602A900230422FFF753
:10121000B3FF04B070BD00BF2DE9F04782B01D469A
:1012200043F44053BDF82840ADF8003000278A460B
:1012300091466946012303228046ADF80270ADF85D
:101240000470FFF799FFBDF9046004FA0AF17140D8
:1012500001EA090445F4805540463B46694674401E
:101260000222ADF80050ADF80240FFF785FF02B052
:10127000BDE8F08730B583B00025294600957B2373
:10128000FF220446FFF7C8FF0121204600918B236F
:101290000222FFF7C1FF009520468B238022072101
:1012A000FFF7BAFF03B030BD30B583B041F48054CE
:1012B00015460023022201A9ADF80440ADF80650FE
:1012C000FFF75AFF03B030BD30B583B041F4405151
:1012D00014460025ADF80010012303226946ADF83D
:1012E0000250ADF80450FFF747FFBDF804302380EB
:1012F00003B030BD2DE9F04F324F2DED028B97F842
:101300002C30012BA3B0064604D93B6C2E4A2F4942
:10131000022098472E49DFF8C0B0DFF8B0A078224D
:1013200004A80EF0FFFA0122D5213046FFF7BCFFDA
:1013300004AC0DF18808A588B4F80690A9444D4581
:101340002EDA08EE106A06E0BDF80E209847013547
:10135000ADB2A94522DD18EE100A29460DF10E02A4
:10136000FFF7B2FFA36818EE100A2946002BEBD155
:1013700097F82C30012B5A4618EE103A51464FF090
:101380000200E4D9BDF80EC0CDF804C0266800966E
:1013900001353E6CADB2B047A945DCDC18EE106AF1
:1013A0000C34A045C7D197F82C30012B04D93B6CE5
:1013B000084A06490220984723B0BDEC028BBDE8DD
:1013C000F08F00BFB4030020287301089871010852
:1013D000CC340108C0730108AC730108F0B585B0C6
:1013E0000024012907461646ADF80E4038D00229E0
:1013F00033D0224B22491D6C224A03462046A8477F
:1014000021460DF10E023846FFF75EFFBDF80E30A3
:10141000738003F00705012D358024D013F0060FEB
:101420000BD16DB9154A0097146C1549164A284618
:10143000A0472C46204605B0F0BD023D012DF9D94C
:101440000E4A0097146C0E49104A0020A047002154
:101450000C462046318005B0F0BD32210124D0E792
:101460000C463321CDE7054A0097146C0449084A1D
:101470000020A0470024204605B0F0BDB4030020A2
:1014800018740108FC730108307401089474010891
:1014900060740108F0B583B00024012907461646A0
:1014A000ADF8064019D0022909D01A4B1A4A1D6C12
:1014B0001A4903462046A847204603B0F0BD4621FE
:1014C0000DF106023846FFF7FFFEBDF806508424F2
:1014D00075B1BEB9012003B0F0BD45210DF1060282
:1014E0003846FFF7F1FEBDF806508324002DF0D1F9
:1014F000084B0B4A1C6C094928463B46A047284626
:1015000003B0F0BD384621460022FFF7CDFE30463D
:10151000D3E700BFB4030020FC730108187401086E
:10152000C874010870B582B00DF106020E460024A1
:101530001C210546ADF80640FFF7C6FEBDF80620A3
:1015400012F400620CD128461B21FFF7ADFE28469D
:1015500046F400621B21FFF7A7FE012002B070BD18
:10156000044B054A1E6C054920462B46B0472046D1
:1015700002B070BDB4030020FC74010818740108A7
:1015800070B582B00DF10602002437210546ADF892
:101590000640FFF799FEBDF8063003F0C003B3B96B
:1015A0000DF1060200241C212846ADF80640FFF785
:1015B0008BFEBDF806301B0515D50E4B0E4A1E6C72
:1015C0000E4920462B46B047204602B070BD094B5D
:1015D00093F82C20002AE3D01C6C094A07492B46BB
:1015E0000120A047DCE72846FFF744FE012002B0B7
:1015F00070BD00BFB40300205875010818740108BD
:101600002C750108F0B40C4D2F8E9E1CB7EB460FC5
:1016100005D22B6C094A0A49F0BC00201847144631
:1016200041F4A041013B11805380214626F0004245
:101630000023F0BCA0E500BFB403002088750108BA
:10164000A875010810B582B0044601AA0121FFF770
:10165000C5FE204600220121FFF71CFFBDF8043023
:10166000022B08D00549064A0C6C06490020A04709
:10167000002002B010BD012002B010BDB403002054
:10168000BC750108047601082DE9F04F02EB420C0D
:1016900000EB8C0C8DB00026834682468046674660
:1016A000B14603A84FEA890586469FED577A43461F
:1016B0006AB19C192C44D4ED007A1C46D4ED006A22
:1016C0000C3367EEA67ABB4237EE277AF1D10435A8
:1016D0000C2DAEEC017AE8D109F10109B9F1030F43
:1016E00000F1100008F10408A6F1040607F1040750
:1016F000D8D19DED046ADDED055ADDED086A684636
:101700000BF10C04DFED407A53463AB11D4695EDDE
:10171000007A0C33634577EE877AF7D10AF1040A31
:10172000A245E0EC017A0CF1040CEBD1DDED037A7B
:10173000F5EE407AF1EE10FA10D0B7EE007A87EEAF
:10174000274ADDED077A66EE044A26EE245A77EE44
:10175000C57AF5EE407AF1EE10FA06D100200023AA
:10176000CBF800300DB0BDE8F08FC7EE272A65EE4C
:10177000843A25EEA47A66EE237A9DED0B5A76EE36
:10178000E77A36EEC77A67EEA27A65EEA36A75EE5F
:10179000666A27EE275A76EEC56AF5EE406AF1EEE4
:1017A00010FADBD09DED005A9DED013A9DED022A25
:1017B00064EE854A63EE853A73EE644A012067EE73
:1017C000A47A002372EE677A77EEE33AC3EEA67A44
:1017D00027EE277AC1ED027A34EEC77A65EEA75A72
:1017E00067EE227A26EE276AC1ED017A35EE466A67
:1017F00076EE655A25EE844A81ED004ACBF800303A
:101800000DB0BDE8F08F00BF000000000028B8BF99
:10181000404270B4BABF00B20124002400293FDB6B
:10182000884238DB0022034668B30846002643F6A8
:1018300028450004B0FBF3F1A9424AD946F2D63359
:10184000994236D948F67203994244D94AF6494337
:10185000994242D94DF2A303994240D94FF24B73BA
:10186000994298BF052025D94FF24C7548F2332391
:101870004CF2A340491B03FB01F100EB114016B1F0
:10188000C0F5C9301F3014B1C0F549303F3002B146
:10189000404270BC70470B46C1B912480A46F2E795
:1018A000494209B288424FF00102BCDA0B461646A3
:1018B000BDE701200C4B03EBC00503EB8003D5F81B
:1018C0002809D3F85C39D5F82459D3E7002201263A
:1018D000ADE70020EEE70220ECE70320EAE7042072
:1018E000E8E700BF1F920100202C010870B50446F4
:1018F0000D46FEF7DBFCD4F8883098420CBF012679
:10190000002607D0094B0A4A1B6C0A490020984759
:10191000304670BD228840F2E51303FB02F31B0C36
:10192000A3F589732B80304670BD00BFB40300203F
:10193000247601084076010810B520B10B4B0268EF
:101940009A42044607D00A4B0A4A1B6C0A49BDE872
:1019500010400020184700690023236008B1FFF7FA
:10196000E1FB2046BDE81040FFF7DCBB0EB03713AB
:10197000B4030020487601084076010810B520B174
:101980000C4B02689A42044607D00B4B0B4A1B6C67
:101990000B49BDE8104000201847406818B1C368E3
:1019A000984700236360002323602046BDE8104071
:1019B000FFF7B8BB0DB03713B40300206076010801
:1019C0007C76010870B48C8893680E898D79CA7909
:1019D0009A70003C18BF01249E801C705D70986056
:1019E00070BC704708B5044B044A1B6C04490020C6
:1019F0009847002008BD00BFB40300208876010886
:101A0000DC85010870B520B10B4B04460068984294
:101A100007D00A4B0A4A1B6C0A49BDE870400020F7
:101A20001847042A0D46164602D1FFF7DBFF10B116
:101A300004EB0614A57470BD0FB03713B403002077
:101A4000A0760108DC85010808B518B1064B0268CC
:101A50009A4207D0054B064A1B6C0649002098475E
:101A6000002008BD043008BD0FB03713B4030020B8
:101A7000A0760108DC85010818B1064B02689A427D
:101A800005D0054B054A1B6C05490020184780F816
:101A9000541070470FB03713B4030020A07601082C
:101AA000DC85010818B1064B02689A4205D0054B47
:101AB000054A1B6C05490020184780F853107047F1
:101AC0000FB03713B4030020A0760108DC850108AD
:101AD00018B1074A0168914205D0064B064A1B6CB3
:101AE00006490020184700220260FFF71BBB00BF19
:101AF0000FB03713B4030020A0760108DC8501087D
:101B000069B158B188420AD0836853B15A6822B18A
:101B1000116001204A605960704701207047002021
:101B200070478160C1E9003101207047D8B1026877
:101B3000D2B110B4D0E90143A3420CD2591E0A44D9
:101B400003E001339C42836008D012F8011F202972
:101B5000F7D99C4202D05DF8044B7047013C846089
:101B60005DF8044B704770471046704770B4421ED2
:101B7000C11C002012F8013FA3F13004E5B2092D89
:101B8000A3F1410604D8204491420AD00001F1E7B4
:101B9000052EA3F16104A3F1370504D8914228442E
:101BA000F4D170BC7047052C02D8573B1844EBE7C2
:101BB0000020F6E72DE9F04F93681668F45C904634
:101BC000222C03F10102814683B006EB020506EBED
:101BD00003001AD1D8F80470BA4216D28A462C46AD
:101BE000002203E00134A31BBB420ED22378222B38
:101BF00015D05C2BF6D10134A31BBB4205D20134B6
:101C0000A31BBB4202F10102F0D325B1D8F80000BA
:101C1000281AC8F80800002003B0BDE8F08F231A86
:101C2000C2F101001844D8F8103098470746002840
:101C3000EBD0A54280F09980DFF890B13A4605E0FC
:101C400002F8013B0135A54280F090802B785C2B97
:101C5000F6D1611B00291ADD6E78752E17D85B2E20
:101C600038D9A6F15C03192B11D8DFE803F037103F
:101C7000101010102D101010271010101010101030
:101C8000211010101B10150D052901922BDCD8F81E
:101C9000143038469847B9E7092302F8013B02237C
:101CA0001D44D0E70D2302F8013B02231D44CAE77F
:101CB0000A2302F8013B02231D44C4E70C2302F867
:101CC000013B02231D44BEE7082302F8013B022327
:101CD0001D44B8E7222E01D02F2ED8D1022302F8BE
:101CE000016B1D44AFE7A81CFFF740FFA0F55C4364
:101CF000B3F5806F0646CAD3A0F55843B3F5806F9D
:101D0000019A42D2AB1DE31A052BC0DDAB795C2BE7
:101D1000BDD1EB79752BBAD105F10800FFF726FF8D
:101D2000A0F55C43B3F5806FB1D20BEA8626C0F311
:101D300009003043019A00F580360C234FF0040E61
:101D40004FF0F00C0320104406F03F0161F07F01DA
:101D500000F8011990424FEA9616F5D14CEA0606B2
:101D6000F6B216701D4472446DE73A461023002106
:101D70001170C9F80030CAF80070D8F80030E31AC2
:101D80000133C8F80830012046E77F2804D8C6B2DE
:101D900006234FF0010EE4E7B0F5006F06D20623EC
:101DA0004FF0020E4FF0C00C0120CCE7B0F5803FA1
:101DB00006D206234FF0030E4FF0E00C0220C2E7DC
:101DC000B0F5881FBFF463AF0623B7E700FC0F0030
:101DD00018B370B5114E044625462468EB68D80543
:101DE0001A460CD4A86828B1FFF7F2FFEB68D905B2
:101DF0001A4604D4286970B1B3689847EA68930515
:101E000003D4286A08B1B3689847B368284698474E
:101E1000002CE1D170BD1A46F1E7704700000020A8
:101E20000278142A01D001207047F8B51E461B68BD
:101E30005BB10F4635460024696855F8083F3846BF
:101E40009847336801349C42F6D30120F8BD00BFA7
:101E5000836A1B6E704700BF0368806A1A6812F0BD
:101E6000200227D10368A0F85A2053E8002F22F45B
:101E7000807243E800210029F7D103F1080252E8FB
:101E8000002F22F0010203F1080C4CE80021002988
:101E9000F3D103F1080252E8002F22F0400203F1CF
:101EA000080C4CE800210029F3D12022C267026E01
:101EB000012A01D0036E704753E8002F22F0100270
:101EC00043E800210029F5D053E8002F22F010024A
:101ED00043E800210029EFD1ECE700BF704700BFC5
:101EE0000368816A1B6813F0200317D10A68A1F800
:101EF000523002F1080353E8003F23F0800302F15F
:101F0000080040E800310029F3D152E8003F43F0D7
:101F1000400342E800310029F7D17047044B03F138
:101F20004C02914204BF002283F8D020704700BFCA
:101F3000B4030020836A19684A6822F0030210B4CF
:101F40004A601A6E012442F010021A6683F85D405E
:101F50005DF8044B704700BF704700BF704700BF7B
:101F600070B503681B4D2E681B689B062ED4846ACF
:101F70002268536823F020035360204632464FF412
:101F8000C051FEF789FB58B931462046FEF7ECFBFD
:101F900030B932464FF4C0612046FEF77DFB38B1C0
:101FA000236E43F020032366236E43F02003236651
:101FB00021684B68002223F0030301204B60E28775
:101FC000A4F8462084F85D00236E13B9012385F838
:101FD000D13070BDB403002038B52E4A03681568AF
:101FE0001B689B061FD4846A2368A268586820F087
:101FF00020005860C2B15968606821F00101B0F555
:10200000827F596035D029462046FEF7ADFBC8B91E
:102010006368B3F5827F1CD001230022A4F8462018
:1020200084F85D30236E38BD6268B2F5827F5A68ED
:1020300027D022F001025A6029462046FEF794FB81
:102040000028E5D0236E43F0200323662023236677
:10205000E2E7A368B3F5004F02D0B3F5806FDBD1A0
:102060002A464FF4C0612046FEF716FB0028D3D065
:10207000E8E7B2F5004F08D11A6822F040021A6072
:10208000C1E722F003025A60BDE7B2F5806FF3D0DA
:10209000B9E700BFB4030020444AD36830B49C07BA
:1020A00008D0D368046803F00303A34247D001209B
:1020B00030BC70470368022B52D0032B49D0012B50
:1020C000F5D112689207F2D5384D4468EA6822F0DB
:1020D00073021343013C43EA0413EB60334C344A6C
:1020E000236823F080632360156803E013685B1B9B
:1020F000022B39D823681B01F8D4002937D1D0E945
:1021000002532169DB0621F0784121F4FE4143EAC4
:1021100005230B43236125490B6843F080630B6063
:10212000146803E013681B1B022B1DD80B681B01EE
:10213000F8D582690B6913430B610020B8E7002BC7
:10214000B5D0D3684268C3F3021301339342AED1D2
:10215000C4E71468A403B7D412685203A7D5B3E741
:1021600012685505A3D5AFE7032030BC704701299D
:1021700023690DD04169856823F0C06323F4FE43D1
:10218000490843EA0523013943EA41632361C2E771
:102190000169856823F4C00323F4FE43490843EA38
:1021A0000523013943EA41532361B4E7001002409B
:1021B000B4030020064A074B92680749C2F3022283
:1021C0001344086893F8783903F01F03D840704728
:1021D00000100240202C01080000002000283ED002
:1021E0000268204913688A4223F00103F0B41360A7
:1021F00024D91D4B1D491E4E1E4C06641344A1FBE1
:1022000003131B099B0003F01C050121A9400027B3
:1022100043641760716023680F22AA4023EA020317
:1022200023600023C36380F8243080F82530C0E9A0
:102230000B33C0E90D33F0BC184670470E4B0B4909
:102240000E4E0F4C06641344A1FB03131B099B00A5
:1022500003F01C050121A94000274364D9E70120B0
:10226000704700BF07040240F8FBFDBFCDCCCCCCCB
:1022700000040240A8040240F8FFFDBF0000024035
:10228000A80002400DF02CBB0DF032BB50B138B5A8
:102290000446006828B1A568284409F0D3F828440A
:1022A000A06038BD704700BF30B5044683B080B130
:1022B00009F0C8F8084B421C5B6801921046984729
:1022C000054618B1019A21460DF02CFB284603B0B3
:1022D00030BD0546FAE700BF0000002040B3F8B566
:1022E0001446E2B19042054619D00846FFF7DCFFDC
:1022F0000646A0B1E36823F400779B0504D4206A66
:1023000010B10C4B9B689847AB682662E76053B1ED
:102310005A6832B11460012062605C60F8BD002030
:10232000F8BD0120F8BDAC600120C4E90034F8BD5F
:102330000020704700000020D0E700BF2DE9F84FD3
:10234000164C0A9E278E043A043F52087F08974293
:102350000D468146984628BF174601F1040A00241D
:10236000331BBB4228BF3B466FEA84415A1E6FEACB
:1023700091419B466A8029805A0008EB44015046EF
:102380001C440DF0CFFA0BF1020200232946484607
:10239000FEF7F2FEA642E3D8BDE8F88FB4030020B2
:1023A00038B138B5B0FBF1F301FB130119B1104698
:1023B00038BD104670470A4C94F82C30012B05D9D3
:1023C000256CA36C074A08490220A847074BA26C5A
:1023D00003CB1B781060137251600922104638BD80
:1023E000B4030020C48601082C700108B8760108E7
:1023F0001B4B2DE9F0411B4E05460C4603CBB26C3E
:102400001B78137210605160FCB12C1905F1FF3874
:10241000013CC5F1010509222D27122105EB080019
:10242000FFF7BEFF18F9013F002B014604DAB36C39
:102430001F5498F900300131002BD8BF5B4298B28D
:10244000FEF712FBA0450246E7D196F82C30012B8F
:1024500003D9BDE8F041FEF7D5BABDE8F08100BF71
:10246000B8760108B4030020F8B5134B134E0746A5
:102470000D4603CBB26C1B781372106051608DB1A6
:102480007D197C1E013DC7F101070922162138196B
:10249000FFF786FF014614F8010FFEF7E5FAAC429C
:1024A0000246F3D196F82C30012B03D9BDE8F84051
:1024B000FEF7A8BAF8BD00BFB8760108B403002043
:1024C0001A4B2DE9F0411A4E04460D4603CBB26C6F
:1024D0001B78137210605160EDB1023C4FF00008A0
:1024E00009222D270C214046FFF75AFF34F9023FFD
:1024F000002B014604DAB36C1F54B4F900300131EB
:10250000002BD8BF5B4298B2FEF7AEFA08F1010883
:1025100045450246E6D196F82C30012B03D9BDE89B
:10252000F041FEF76FBABDE8F08100BFB876010850
:10253000B4030020F8B5124B124E05460F4603CBEC
:10254000B26C1B781372106051607FB1023D0024A1
:1025500009220F212046FFF723FF014635F8020F1D
:10256000FEF782FA0134A7420246F2D196F82C30E7
:10257000012B03D9BDE8F840FEF744BAF8BD00BF0F
:10258000B8760108B4030020194B2DE9F041194E2B
:1025900004460D4603CBB26C1B7813721060516079
:1025A000E5B1043C4FF0000809222D2707214046E1
:1025B000FFF7F6FE54F8043F002B08F1010801462E
:1025C00003DAB36C1F542368013183EAE370A0EB94
:1025D000E370FEF749FA45450246E7D196F82C30FC
:1025E000012B03D9BDE8F041FEF70CBABDE8F0813C
:1025F000B8760108B4030020F8B5124B124E054618
:102600000F4603CBB26C1B781372106051607FB120
:10261000043D0024092208212046FFF7C1FE01469F
:1026200055F8040FFEF720FA0134A7420246F2D112
:1026300096F82C30012B03D9BDE8F840FEF7E2B93B
:10264000F8BD00BFB8760108B403002070B5044699
:1026500000B30668CEB14368CBB900291ADBA26883
:10266000013111448B4218D223699BB9B1F1804FDB
:1026700016D2236A4D00D3B1304629469847064604
:1026800018B3A368C4E900651E44304670BD826873
:102690009342E2D80026304670BD1644304670BDE5
:1026A0000029F7DB236A6FF00045002BE4D1A36912
:1026B00028469847064640B1A268216801320DF0CD
:1026C00031F9E36920689847DBE7E36920689847B8
:1026D000C4E90066D9E700BF2DE9F04F254C85B06D
:1026E0000026CDE90266B4F8308001928946002BBD
:1026F0003AD04FEA58088346A8F104089A460D4696
:102700001F4626E0019B48F200019A192980631EAA
:102710004FF00001E9806A80AB806200002105F182
:1027200008000AF049FC294601235846221DFEF7FD
:1027300023FD02AB03CB26446960286009EB460504
:1027400059F81600696802AB564503C3A7EB0407A6
:102750000AD2B845444628BF3C46B845D2D200E02C
:10276000013CE307FCD4CDE709F1080005B0BDE862
:10277000F08F00BFB403002070B5094E736B05469F
:102780009847044628B12A4600210AF015FC204645
:1027900070BD336C034A04499847204670BD00BFA2
:1027A000B4030020C4760108D47601082DE9F04F67
:1027B00002EBC30689B07388129F4BB380468946EB
:1027C00000254FF0010B736853F82540C4F30170E6
:1027D00001280CD0022833D0F0B1344B344A1B6CA2
:1027E000344900209847002009B0BDE8F08FA3B21B
:1027F000194659F8232022F00F0217B1C4F30344FD
:1028000022434046FEF7EEFC738801359D42DAD341
:10281000012009B0BDE8F08FC4F3445A0BFA0AF363
:102820009F4216D3214A0097013B0193214903900F
:10283000A3B2146C204AA047039809B0BDE8F08FFA
:10284000A3B2194659F8232022F00F02002FD8D145
:10285000D4E7A3B243F4204C03930522012305A936
:10286000ADF81800CDF81A004046ADF814C0ADF828
:1028700016B0FEF781FC04A90DF11A00FDF730FD3A
:10288000CAF1200A4FF0FF33C4F3044423FA0AFAD2
:10289000049B03990AFA04FA23EA0A0207FA04F4E9
:1028A00022434046FEF79EFCAEE700BFB403002083
:1028B0001C770108E0700108E476010810B50346B2
:1028C00028209847044618B1282200210AF074FBFA
:1028D000204610BD08B5044B5868FFF7EFFF08B15C
:1028E0004023C36008BD00BF0000002008B5044BB2
:1028F0005868FFF7E3FF08B12023C36008BD00BF9D
:102900000000002030B50E4B83B005465868019199
:10291000FFF7D4FF0199044608B12023C36028467D
:102920002246FFF7DBFC054610B1204603B030BD60
:102930002046FFF74DFA2C46204603B030BD00BFBD
:10294000000000202DE9F041234C804660681646C7
:102950001F460D46FFF7B2FF044670B10823C3605F
:10296000C0E906671AA3D3E900233046394609F0C7
:1029700013FA60B16FF00043636129464046224676
:10298000FFF7ACFC0546A0B12046BDE8F081134B33
:1029900000223046394609F0F5F988B14FF000437E
:1029A0002946636140462246FFF798FC0546002809
:1029B000EAD120462C46FFF70BFA2046BDE8F0810D
:1029C0003046394609F012FA6061D6E7AFF300806D
:1029D0000000C0FFFFFFDF41000000200000E0C159
:1029E00038B5044610460D4608F0E6FE02460B4692
:1029F00020462946FFF7A6FF003818BF012038BD42
:102A000038B5044610460D4608F0C6FE02460B4691
:102A100020462946FFF796FF003818BF012038BD31
:102A200070B50E4B82B00646586801911546FFF707
:102A300045FF0199044608B10135C560304622467C
:102A4000FFF74CFC054610B1204602B070BD204691
:102A5000FFF7BEF92C46204602B070BD00000020F2
:102A600070B5154B82B00546586801911646FFF7C0
:102A700025FF0199044640B110233046E360FFF77B
:102A800013FC01992061064680B128462246FFF7D3
:102A900025FC054620B1201E18BF012002B070BDE4
:102AA0002046FFF795F9284602B070BD2046FFF793
:102AB0008FF934460199E8E7000000202DE9F04F36
:102AC0002DED048B90F838308DB007900393002BD8
:102AD00000F0E7800798828F0469C38FB0F84C50EC
:102AE00034F91210099502465B00408F089001935B
:102AF000002D00F0D6801046526C836CB0F84E501A
:102B0000B0F840B0DFED708ADFF8C8810A95D318BD
:102B1000029300220901DB4305920B910493914635
:102B2000B6EE009A029A6949134681FB0331D31726
:102B3000C3EBA10101EB4101B2EBC101029A48BF15
:102B40001831002A09B2C0F2B580604880FB020249
:102B5000C3EBA20212B20B9B120482FB0356002DA0
:102B600076F1000304DA4FF6FF73ED1846F1000624
:102B7000089B19442A0C34F9111042EA0642A2EBD0
:102B8000011207EE902AF8EEE79A69EEA89AB0EEE5
:102B9000690A0FF077F9B0EE408AB0EE690A0FF0DB
:102BA000DFF9BBF1000F6BD0079A136DB2F842A0AA
:102BB00093F800E006930020054647F6FF7709E00A
:102BC000DDF80CE0E25201351FFA85FCE345504484
:102BD000718052D9019A09EB50039BB202EB830337
:102BE000E618E25E07EE902AB6F9022006EE902A79
:102BF000F8EEE77AF8EEE66A27EE887A26EE806A43
:102C000067EE807A66EE886A37EE467A77EEA67AC5
:102C1000B5EEC07AF1EE10FAF5EEC07A4CBF37EEA1
:102C2000497A37EE097AF1EE10FA4CBF77EEC97A9D
:102C300077EE897ABDEEC77AFDEEE77A17EE10CA15
:102C400017EE901A17EE102AC445B8BF4246414508
:102C5000B8BF4146BA42A8BF3A46B942A8BF3946B2
:102C6000BEF1000FAED19445AAD117EE90CABCEBCD
:102C7000010E18BF4FF0010EA4E7069B83F800E099
:102C8000059B029A01331FFA83F911460593049AB2
:102C90000A9B1944D31A0493099B02914B453FF6B2
:102CA00041AF079B186843680DB0BDEC048BBDE8CD
:102CB000F04F1847049B1A46054BA3FB02326FEAFC
:102CC000121212B247E700BF00008037ABAAAA2A4F
:102CD000ABAAAAAA0080FFFFF8B595692B78B5F8D2
:102CE00002E0144602EB43030F46B3F84460636905
:102CF0000146720003EB4E000EF04AF8E26D69885F
:102D000013780E446E8003B93B791370F8BD00BF91
:102D10002DE9F04F2DED0C8B8246A5B090F84E407A
:102D200090F84C000D90042CBAF848000A900891D5
:102D3000904699461AD8DAED107AF5EEC07AF1EE9F
:102D400010FA00F1EF819AF85630DFF8C0B0002B8E
:102D500000F0F1819AF84B30002B00F0EC81274A0B
:102D6000DBF8403026490020984707E0DFF89CB0A8
:102D7000244ADBF84030224900209847DAED117AE6
:102D80009BED357AF5EEC07AF1EE10FAB8EE478A8F
:102D900040DDC8EE278AF6EE007A78EEA78A0A9B15
:102DA000002B3CD107939AF84A300193002B3ED177
:102DB0009AF85030022B41F023819AF84E40012CB2
:102DC00000F0C78200243A9A019B1471A8F8AC4124
:102DD000002B32D09AF84F30012B00F04587022BA0
:102DE00000F03187002B00F04D87DBF84030064AB9
:102DF000034900209847002301931EE088770108CB
:102E0000607701084477010844780108B403002082
:102E1000000000000A9B5FED028A002BC2D09AF8E6
:102E20004E3007939AF84A300193002BC0D03A9A5B
:102E3000002313710193A8F8AC31089C002C4AD0F0
:102E40002389B4F88210B4F88020B4F87E00A8F882
:102E500004109B00B4F88410A8F802209BB203F180
:102E60003002A8F800006088A8F80610A188A8F829
:102E7000080092B2E088A8F80A106189A8F80C004E
:102E80005F2A208CA8F80E10618CA8F81210A8F800
:102E9000100040F22582C949A1FB0201890901EB1A
:102EA0004101A2EB411189B200201A4605460B46AA
:102EB00001210324A8F814300023A8F81620A8F84C
:102EC0001810A8F81C50A8F81E00A8F82010A8F8A0
:102ED0001A40A8F82230019900220123A9F8022003
:102EE000A9F80C20A9F80A30002901F050801546F5
:102EF0000692049209F10E0308F13E029FEDB0AA7A
:102F0000DFEDB0AADFEDB09A9FEDB09ACDF808A042
:102F1000564608F1460709929A46CDF81480CDF836
:102F20000CB0079AEBB29A4200F25C81099A002336
:102F3000AAF80030AAF8083022F815300135042D1F
:102F40000AF1020A06F1100607F15607E9D10A9ABA
:102F5000B9F80C10B9F80A30DDF81480DDF80CB0BF
:102F6000DDF808A011FB02F189B20B449BB2BDF859
:102F7000182002925F1CBFB2B8F8ACC1BCF1010FBF
:102F800004D1049A0A9800FB02F204929AF85220A3
:102F9000BAF854009AF853509AF85640A8F89E216F
:102FA000049A4FF6FF7E72454FEA500628BF7246DC
:102FB0000338A8F8A801033E0298A8F8AA6185F092
:102FC000010592B2A8F8A651A8F8A001A8F8A4217A
:102FD000A9F80C10A9F80430A9F80670002C00F02C
:102FE0005E8141334021A9F80030A9F8081001247E
:102FF000089BA8F8C04113B19B89A8F8C231019B76
:10300000002B40F057813A9ADAED105A00231360F2
:103010000D9BA8F8B2310A9B012B40F24581BAF80A
:1030200048300122023BA8F8AE31A8F8B0219FED4C
:10303000687A9FED686A28EE077AF1EE007A68EE0A
:10304000277AC7EE066A87EE867AC8EE067AB6EE6B
:10305000006A76EE866A37EE067AFCEEE66A77EE6E
:10306000867ABCEEC77A16EE903AF5EE405A17EE25
:10307000102AF1EE10FAFCEEE77AA8F8B83114BF86
:1030800001230023A8F8B621A8F8383017EE902ABB
:10309000019BA8F8B421002B00F0ED80F5EE405A1A
:1030A000F1EE10FA0CD0C8EE257A37EE866AFCEE07
:1030B000C67A17EE903A1A0CA8F83C30A8F83A20D5
:1030C000DAED117A9AF84A309AF84B20A8F83030A5
:1030D000F5EE407AF1EE10FA14BF01230023A8F8B0
:1030E0003220A8F82A3008D0FCEEE87A17EE903AA1
:1030F0001A0CA8F82E30A8F82C209AF85130019814
:10310000A8F8BE31012140F2FF7240F60103A8F891
:103110002410A8F8BA21A8F8BC3125B0BDEC0C8B5E
:10312000BDE8F08FDFF8B8B02B4ADBF840302B4910
:103130000020984722E69AED117ADBED356AB5EE6C
:10314000C07AF1EE10FAB8EE668A16DDC8EE078A8C
:10315000F6EE007A78EEA78A00F1F48018EE900A75
:1031600008F02AFF012908BF002880F0EB809AF8B8
:103170004A30002B40F0DD8008E000F1E1809AF851
:103180004A30002B40F0C880DFED0F8A9AF84F10CC
:103190009AF850200A98002814BF20460020914237
:1031A000079000F27D83002B40F03687022A00F062
:1031B0002F873A9A1371A8F8AC310BE6ABAAAAAAEA
:1031C0002549123ECDCC4C3E000000008FC2753D1B
:1031D0000000964300247449747701086077010861
:1031E000B4030020099A012322F81530029B32898A
:1031F00093F84C300B93184640F2FF1140F2FF3326
:10320000002818BF0B46C2B19A4216D8737B002B18
:103210006AD1F37BB07B002840F06982012B00F07B
:10322000AF80DDF80CB04E4ADBF840304D49DDF898
:1032300008A0DDF8148098470BE0DDF80CB04A4A8E
:10324000DBF840304749DDF808A0DDF814800020A5
:1032500098470A9AB9F80C10B9F80A3011FB02F134
:1032600089B20B44BDF8182002929BB25F1C002269
:10327000BFB2019280E6DAED117A9AF84A309AF8F4
:103280004B20A8F83030F5EE407AF1EE10FA14BF7A
:1032900001230023A8F83220A8F82A302DE7A9F846
:1032A0000840A9F80070A3E60023A8F8AE31A8F8FA
:1032B000B031BCE69AF84D10072925D82B4BDFED2D
:1032C0002C9A0B4493F8A439A8F8A2313A9BC3ED89
:1032D000009A079B002B40F0E283DAED105A97E644
:1032E000032001250021E4E5F37B022B92D1DDF8D8
:1032F0000CB0204ADBF840301A49DDF808A0DDF8B0
:10330000148000209847A4E73A9ADAED105A002377
:103310001360002301937BE6B5EE407AF1EE10FADC
:1033200005D1F5EE407AF1EE10FA40F01B85DFEDA5
:10333000108ADBF84030104A0A49002098472EE5F1
:10334000DFED0B8ADBF840300C4A06490020984735
:1033500025E59AF80F30013B012B3FF634AD31E5FE
:10336000C07801086077010884780108202C0108E2
:103370000000000094780108C8770108B4770108BC
:10338000BB4BB6F80680B6F804B003EB8000B8F18A
:10339000180FD0F880390E9340F2B28208EB880300
:1033A00003EB031303EB032308EB4303C3F3CC0248
:1033B00042EA43339BB240F6AA22934200F25E8275
:1033C000AC4BA3FB08231B090F93013B9BB2159346
:1033D0005C23119318230C93BBF1000F40F0AB82D8
:1033E000039BA54A1B6CA549584698470B9B002B8D
:1033F00000F0548200230B93022233680E99194483
:1034000001F5C3430C461BFB02F228334CF250314A
:103410000BF1FF3092B28B420E9208FB004807D9A5
:10342000039B974A1B6C95490020984700230B93F8
:1034300008F5C34328334CF25032934207D9039B1B
:10344000904A1B6C8D490020984700230B93002C59
:10345000C0F21A838C4BE11783FB043BC1EBAB0B2F
:103460000FFA8BFBB8F1000FC0F20383864B83FB8E
:1034700008304FEAE873C3EBA00000B2824A1FFA9B
:103480008BFB82FB042CA0EB0B00C1EBAC010F9A71
:103490001FFA80FC01EB4101BCFBF2F201321FFA82
:1034A00082FEB4EBC10102B216924FF018000C9AE2
:1034B000B0FBF2F000F1D6820FFA81FC89B2724AB9
:1034C00082FB08240C9AC3EBA40303EB4303B1FB78
:1034D000F2F402FB1414A2B2B8EBC3030F9200F192
:1034E000BB821AB219929BB2013882B20F9C0C981F
:1034F0001A9212FB0040BEF1010F80B200F0EC8185
:10350000C41A0F9B18BF01248B4214BF0123002350
:10351000AEEB0302A2EB0402A3B212941FFA82F8EC
:10352000179340F0E1810023189314931B930F9B92
:103530009B00FB870B9B8900B987002B00F0C5819E
:10354000B37B052B00F2BD83494A02EB4303B3F87A
:1035500094395A08A3F14A00D91E033A80B2143BA9
:1035600092B289B210901393109BB986CBF12904C3
:103570001C44169BFA860FFA84FBABEB0303292B42
:10358000A4B207DC039B414A1B6C3C4900209847CE
:1035900000230B93139B9B4507DB039B3C4A1B6C4F
:1035A00036490020984700230B93109B3B87119BC3
:1035B0007C872C2B40F2EB810023A7F85030A7F832
:1035C0005230A7F85430159BA7F84E30189BA7F837
:1035D0004830B8F1000F00F0BE810123A7F84A304F
:1035E000149B179AA7F84C20002B00F091831B9B8B
:1035F000A7F842301A9BA7F84430129B002B00F02A
:103600007C83199B0F9A9C1A0C9B94FBF3F4A7F8EC
:10361000464008F1FF321FFA82F80B9BA7F8408062
:10362000002B5DD0B37A172B00F24281092B00F2F8
:103630002F83C3F1090315227B803A80089A002A60
:1036400000F07E837B8802EB43039B89F07BBB8089
:103650001CA9FDF7B3FB60BBDDF80CB0DDF81480EE
:10366000DBF840300B4A0549DDF808A014E000BF44
:10367000202C0108ABAAAAAA0C79010860770108DE
:10368000587901086C790108ABAAAA2AA079010827
:10369000C0790108E87801089847562303FB0583A1
:1036A000BDF88C10BDF88E20A3F87010A3F86E2022
:1036B000CFE5BDF88440BDF88C307B85082CBDF883
:1036C0008E303B850CD8BDF88630072B08D8BDF866
:1036D00088C0BCF1080F03D8BDF88A20082A18D981
:1036E000DDF808A0DDF81480DDF80CB0B1E5581E57
:1036F000C0B204287FF644AEDDF80CB0AB4ADBF86C
:103700004030AB49DDF808A0DDF814800020984770
:103710009FE5012101FA03F3501E013B9BB201FA20
:1037200002F201FA00F03C81013A9C0101385B028F
:1037300040023B829201029B7882A7F80AC0BC81BA
:10374000FA819DF8700093F84D302093002800F026
:103750008280DDF874B0BBF1000F7CD0022B7CD8E6
:10376000944A134493F8A039BB82089B23B307F112
:1037700014031A460B9300233B8311822EE18D4ADA
:10378000134493F8A439BB82089BABB100233B835D
:1037900007F114031A460B93002840F017810B9B86
:1037A000B8847883F8821881D8810B9A00235381DA
:1037B00000233B840B9A53823089F27A3A8601289F
:1037C00058D00121831EF985BB85717BB9F80C3077
:1037D000F98081F0010179860E99AAF80030AAF8E3
:1037E00008100B44F17BA9F80C3001293B8D2FD038
:1037F00002290CBFB0EE496AB0EE696A01339BB290
:1038000007EE103AB388B8EE477A07EE903AF1EE39
:10381000006A27EE267AF8EE677A06EE900A67EEDF
:10382000277AF8EE666A069B67EEA67A194667EE77
:10383000867A002B08BF114667EE8A7A049B0691B0
:10384000FCEEE77A17EE902A13440493FFF776BB59
:10385000B0EE6A6AD2E7072B91D9DDF80CB0564A70
:10386000DBF840305249DDF808A0DDF81480002074
:103870009847EEE40023FB85BB85A6E7039B4F4AF0
:103880001B6C4B49002015900446984701230C936C
:103890000F930B9B1194002B7FF4ACAD0422ACE58D
:1038A000DBF84030464A424900209847FFF77BBA90
:1038B000DDF80CB0434ADBF840303D49DDF808A0A4
:1038C000DDF8148000209847C3E46C23139336235B
:1038D00010933D227D2147E68C4200F02183002297
:1038E0001792184690461292019B1493A0EB0C007D
:1038F0000C9B90FBF3F00123189383B21B9316E605
:10390000B8F1000FBAD01823B3FBF8F308FB03F3A8
:10391000C3F118039BB21593002BAFD108F1FF330D
:103920009B009BB211930123CDF830800F93BBF124
:10393000000F3FF455AD0B9B002B40F0FE81337B15
:10394000002B00F01A82039B1F4A1B6C18490B982E
:103950009847042251E5179BA7F84C30149BA7F811
:103960004A80002B00F0D1811B9BA7F84230002336
:10397000A7F84430129B002B00F0C381199B0F9ACB
:103980009C1A0C9B94FBF3F4A7F8464045E6119B68
:103990001E2B40F2A581A3F11E020F23A7F854208D
:1039A000A7F85030A7F852300DE600BFE8780108BC
:1039B00060770108202C0108F0790108F8780108E7
:1039C000F4770108D879010820790108DDF874B08E
:1039D00001231382BBF1000F00F0B182089BDDF8D8
:1039E0007CC0D3F860E00C90D3E9198400210B4629
:1039F000204608EB1142A2EB0E0262459CB2014444
:103A000003F1010380F28A820F2BF2D10C981C463D
:103A1000089BD3F878C0D3F874E00B9B0CEB8C01B7
:103A2000DC8005220EEB1143B3EB0B0302F1010422
:103A3000614440F1C581A2B2142AF3D1DDF80CB083
:103A4000CF4ADBF84030CF49DDF808A0DDF814801C
:103A500000209847FFF7FDBB03F1180422B2A3B280
:103A6000199241E501F1180C1FFA8CF10FFA8CFC48
:103A700025E5C54B6FEA0800A3FB00306FEA101084
:103A800000B24FEAE873F9E4BF4B6FEA040BA3FB03
:103A90000B3B6FEA1B1B0FFA8BFBE117E2E4BCF157
:103AA000010F00F04F8107EE902ADFEDB8AAF8EE83
:103AB00067CAF7EE089AB2EE02DADBED357A9FEDCF
:103AC000B40AB8EE67AA80EE0A0A0EF023FA9AF852
:103AD0005030022B2AEE00AA00F21E81AD4A9AF85D
:103AE0004E1002EB8300D0ED00DA90ED03CA0029FE
:103AF00000F07982DDF804909FEDB09AA64FDFEDDB
:103B0000A7BA9FEDA7BA002635463AE032F813303F
:103B100007EE903AF8EE677A8AEE277A5544A31CAE
:103B2000B5F808C0A8889AF84E105A0093B20CFB5A
:103B30000333023304EB44045B00A4009BB287EE22
:103B40000B6A1834A4B20136F5B2A94207EE903AD6
:103B500007EE104AF8EE677AB8EE477AC7EE866A43
:103B6000C7EE065A07EE900AF8EE677A66EEA77A75
:103B700077EEA57A77EEAA7A77EEA97A39EE279AC8
:103B800021D90AEB05131CA9D87BFDF717F92D01E4
:103B90007C493A46044618B9DBF840309847A146BC
:103BA0000AEB05037F4A9B7BBDF88E40052BADD900
:103BB000DBF840307C4A7349002098474FF00009F9
:103BC000F0EE6B7AA8E7B9F1000F36D0DFED777A27
:103BD000DFED736A9FED767ADAED105A3A9B8AEE42
:103BE000275AF1EE0C7A85EE266A6CEEA7CA3CEEF7
:103BF0002DCACCEE867AB0EE006A37EE8DDA3DEE55
:103C0000099A39EE0C9A69EE077A77EE867A37EEE2
:103C1000899AC6EE897AF4EEE75AF1EE10FAC3ED0E
:103C2000007A7FF7F5A9FDEEE77ADBF84040614ABC
:103C3000544917EE903A0020A0470023DAED105ABD
:103C40000193FFF7E5B90023A8F82630A8F828303B
:103C50009AF85030012B10D0022B2BD013B3DBF885
:103C60004030554AFFF7C4B80022A8F82630A8F81B
:103C700028209AF85030012BEED1C8F83430019347
:103C8000FFF7DBB80123A8F82630A8F82830DFE7D3
:103C9000102B94BFC3F11E03C3F1170300223B8016
:103CA0007A80CBE44FF00113C8F83430012301933C
:103CB000FFF7C3B80023C8F8343001230193FFF79E
:103CC000BCB8039B384A1B6C2E49002098476C23D4
:103CD00013933623109300233D227D210B9343E45D
:103CE000119B0F2B35D90F3B0F22A7F85230002321
:103CF000A7F85020A7F8543065E4129BA7F8463087
:103D000087E4129BA7F8463087E4A7F842802EE6A6
:103D1000149BA7F842306DE4DBF84030264A19497D
:103D2000002098479AF84E30002B86D09FED23CA8A
:103D30004FF00009F0EE4CDADEE60222FFF75DBB41
:103D4000089B83E4F0EE69AAB0EE69DAF0EE69CA86
:103D5000B3E60023119AA7F85020A7F85230A7F82D
:103D6000543030E49AF84F109AF85020DFED138A5F
:103D700091427FF4DEAAFFF70DBA019B0B938DE50C
:103D8000107A010860770108ABAAAAAA9A999D4106
:103D9000F902154FCC350108E8780108000000430E
:103DA00000247449B43501089479010800002043C7
:103DB0000AD7233C3C7A010864780108000000001F
:103DC000052A0AD0511E89B20CFB01FC0EEB1C4CDB
:103DD000ABEB0C04A342C8BF0A461E9B0B990C9385
:103DE000B3F5167F4A80C0F0D980089BD3F86C8069
:103DF0000C9BA3EB0801B1F5C87F40F3F7800023CB
:103E00004FF4C8741A46023204FB02F2914203F1E5
:103E10000103F7DC0B9CBBF1000F14BF0121002153
:103E20004FF0010C2181A4F80EC000F0A1800C9A83
:103E30004FF4C87000FB1320089A0024D2F870E0F9
:103E4000224602E0162A3FF4F9AD08EB1441091AA4
:103E50001FFA82FC744402F10102F3D4BCF1000F9A
:103E60000AD00CF1FF3294B20EFB04F208EB1242BE
:103E7000821A9142C8BFA4460B9AA2F80AC0002B2E
:103E800000F09880BBF1000F18D0089CB7F81AC05A
:103E9000A26E616E02FB0CFC226E01EB1C4CBCEBB3
:103EA000020C3FF5CBAD089AFC8A916F526F01FB73
:103EB00004F102EB114101EB0C021044089A0024BA
:103EC000D2F858E0D2F85C80224602E0162A3FF48D
:103ED000B5AD0EEB1441091A1FFA82FC444402F1FD
:103EE0000102F3D4BCF1000F0ED0BBF1000F0BD1D7
:103EF0000CF1FF3292B208FB02F80EEB1848A0EB6F
:103F000008084145C8BF9446A7F820C0002B3FF4DD
:103F100051ACDA1D012393409BB24BE40C9877E53A
:103F200098420CBF4FF001084FF0000856D1002313
:103F3000CDE91733129314931B93FFF7F8BA1E9A27
:103F40000B990C92B2F5167FA1F806B0A1F802B059
:103F500039D3089AD2F86C800C9AA2EB0801B1F51B
:103F6000C87F3FF74CAF0B9AD381A2F808B05B46ED
:103F70000B9A4FF0000BA2F80AB000283FF418ACDF
:103F800043B30C9A4FF4C87000FB132096E7019AD4
:103F90000292022711460492FEF7EEBF0B9A00230D
:103FA0001381D38100283FF400AC089A0C98D2F812
:103FB0006C8041E7BBF1000F0CD0FA8B0EFB02F2D4
:103FC00008EB124061E70B9BA3F808B0A3F80EB012
:103FD000A3F80AB000230C989B466FE700221792C3
:103FE0001846129280E41FED8B9AEFE5BBF10003B7
:103FF0000B9918BF012301220B81CA81002316E708
:104000003A9B1A46019B1371A8F8AC31FEF715BF15
:1040100001230193FEF7D3BE3A9A00231371A8F847
:10402000AC31FEF7D7BE00BF70B5FEB004464FF40A
:10403000E2720D460DA8002103AE08F0BDFF0DAAE7
:10404000204605AB00960021FEF762FE08B97EB05F
:1040500070BD94F84B202B46314605A8FDF714F8A7
:104060007EB070BD2DE9F04FADF5137D07469D9CE8
:104070000D46164600214FF4E27221A8994608F039
:104080009BFF13A83822002108F096FF94F8C5A1E1
:10409000BAF1000F0CD07E4B7E4A1B6C7E4900208B
:1040A00098474FF0000840460DF5137DBDE8F08FAE
:1040B0000DF118080BABCDF8008021AA3146284637
:1040C000FEF726FE0028ECD0414695F84B200BA8C1
:1040D00013ABFCF7D9FF80460028E2D09E98BDF8CC
:1040E00058106E4B01809F98BDF85C20D3F854B1F6
:1040F00002801421072209978DF820100A92BBF143
:10410000000F08D0D3F85C314FF4E27221A908A85F
:10411000D8470028C5D005AA08AB21A92046FCF73E
:10412000E5F8BDF81430BDF820209A4238D221A914
:104130004FF4E27220460BF0F5FBB5F848303BBB7C
:104140000122334695F84B1084F8C62133F8242B0E
:10415000A4F8C82184F8C51184F8C4A104F5E57257
:1041600006F1540C1D6858689968DF68D7601033F1
:10417000634515605060916002F11002F2D1B6F80B
:104180005430A4F8FA3140460DF5137DBDE8F08FA8
:1041900095F84EA0BAF1000A18BF4FF0010ACFE718
:1041A000002308AA37213846ADF82030FDF78CF8F7
:1041B000BDF8203013F0C00B12D008AB05AA21A91E
:1041C0002046FCF793F8BDF82030BDF814B00293F8
:1041D0009B4520D9384601228021FDF765F8A6E7E6
:1041E00008AA31213846ADF820B0FDF76DF8BDF8CA
:1041F00020204AF6C0439A42DFD0254B93F82C206A
:10420000002A3FF44EAF1C6C254A26493B4601204C
:10421000D846A04747E7029B9C980233494604AA28
:10422000A3EB0B0905ABFCF71BFF0598CDF80CA021
:104230001FFA89F9484528BF48460590DDF80890DF
:10424000A24605E0059883441FFA8BFBD94511D39C
:104250000890049908AB5A4621A8FCF777FD04465C
:104260000028EFD0089B9C9A4FEA5B013846FDF787
:10427000C9F9E7E7A1463846012280215446DDF816
:104280000CA0FDF711F8B9F1000F3FF40AAF4EE7AB
:10429000B40300205C7A01081473010800000020B8
:1042A0009C7A0108C07A01082DE9F04FADF5117D27
:1042B0000C46154600214FF4E27206461FA89A46A6
:1042C000DDF86C9204AF08F077FE3822002111A8C7
:1042D00008F072FE294620461FAA09AB0097FEF798
:1042E00017FD28B9002738460DF5117DBDE8F08F80
:1042F00094F84B20394609A811ABFCF7C5FE0028FD
:10430000F0D09C98BDF85010434B01809D98BDF8AB
:104310005420D3F8547102801421072207968DF897
:10432000181008923FB1D3F85C3104221FA906A8E7
:10433000B8470028D6D09A9802AA002703AB514666
:10434000CDE90277FCF78CFE3046FDF719F900281D
:104350005BD00398B84640F6DD1B01E0002F54D037
:1043600042460299069006AB1FA8FCF7EFFC4FEA05
:104370005801069B9A9A07463046FDF743F9039881
:1043800080441FFA88F8D845E8D9002F3DD0602333
:104390009A9900935246214B3046FDF7CFFF4FF4D8
:1043A000E2721FA948460BF0BDFAB4F8482022B1CA
:1043B00094F84E301A1E18BF012201212B4694F8A2
:1043C0004B0089F8C61133F8241BA9F8C81189F8E5
:1043D000C50189F8C42109F5E57105F1540C1C6883
:1043E00058689A68DE68CE60103363450C60486098
:1043F0008A6001F11001F2D1B5F85430A9F8FA3110
:1044000038460DF5117DBDE8F08F054B054A1B6C54
:1044100005490020984765E700000020E4350108C1
:10442000B4030020D87A0108147301082DE9F04F75
:104430002DED028BADF2147DCDE9031202931B78B2
:1044400004460A2B13D8DFE813F023000B009E006C
:10445000F500D301B302D903A305FA0582062300B0
:10446000FDF7F0F8002840F09487029B1B78CA4EB5
:10447000346CCA4ACA490020A04700231C46029A4D
:10448000204613700DF2147DBDEC028BBDE8F08F59
:10449000C14EDDF840078822002108F08DFDD6EDE1
:1044A000357ADFEDC05ADFEDC06AF8EE677AB6EE16
:1044B000006A85EEA77AF4EEE67A37EE067AF1EE38
:1044C00010FABCEEC77A17EE103A9FB200F3B68628
:1044D0009FEDB67AF4EEC77AF1EE10FA00F1AE86EF
:1044E000A7F110039BB2EF2B41F290809FEDB07AC1
:1044F000DFEDB06A77EE877A37EE877ABCEEE76A4F
:10450000BCEEC77A16EE109AB8EE477A77EEC77A05
:1045100067EEA67AFCEEE77A17EE908ACDE900986E
:10452000A54B356CA54AA6490020A8470025A548FB
:10453000FCF792FAA4482146FCF786FADDF84037EA
:10454000A248B3F87E10FCF77FFADDF84037A048A8
:10455000B3F88010FCF778FADDF840379D48B3F8DF
:104560008210FCF771FADDF840379B48B3F87C10F5
:10457000FCF76AFA9948FCF76FFA002D40F085873E
:10458000029B1B7874E7FDF75DF8824600283FF434
:104590006CAF0399002241232046FEF79DF80546A3
:1045A0008F482B8C0693FBF7DBFF28461021FCF786
:1045B0003BFA002105F1220307EE904A0793A5F18B
:1045C000020B084688464FF6FF7C41F270791BE0EB
:1045D00035F911703BF9114007EB09023F1B9F426F
:1045E000C0F22986774500F3268682EAE273A3EBC0
:1045F000E2739BB2634503D2B0009C4680B2D046C2
:104600000F2E01F02B8001314B1E03FB03F3C3EB94
:10461000C3035A0002F5167EC83B8EB20029D7D1DB
:10462000B5F900304B44002BB8BF5B429BB26345E9
:10463000E2D3E8E7FDF706F800283FF416AF0022C2
:10464000202303992046FEF747F8214605465E4899
:10465000FCF7FAF96348FBF783FF28462021FCF7B3
:10466000E3F9B5F900202846164601210027134634
:1046700030F9022FC3F5167313449BB2B3F5966F4E
:104680003FF6F3AEB242A8BF0F4601F10101A8BF49
:1046900016462029EBD1072F01F23981002307F1BB
:1046A0000802D21A002A01F04C8144A9D01805EB67
:1046B0004000059105EB430535F9026B07EE106AE2
:1046C00003FB03F606EE903A07EE906AB8EEC77A5F
:1046D000F8EE677AF8EE666AA84281ED007AC1EDDD
:1046E000017AC1ED026A03F1010301F10C01E3D18A
:1046F00005982CA9FCF7C8FF00283FF4B6AE9DED45
:104700002C6AB5EE406AF1EE10FA3FF4AEAEDDED84
:104710002D6AF5EE406AF1EE10FA3FF4A6AE9DED7B
:104720002E7AB1EE477AC7EE267AF5EEC07AF1EE30
:1047300010FAFFF69AAEF1EE666A86EE867AB5EE6C
:10474000C07AF1EE10FA7FF590AEB7EE007A77EE10
:10475000877AFCEEE77A17EE905AABB23F2BC5F39F
:104760004E053FF682AE85F0100529461E48FCF73F
:104770006BF9DDF840371D48DD80FCF76DF9204608
:104780004FF44571FCF7CEFE04460423002C7FF461
:1047900076AE00F050BD00BFB4030020A87E010833
:1047A000CC7E0108F902154F8096984C8096984B64
:1047B000BD3706350024744940890108E07E0108B0
:1047C0000C7F0108107F0108EC7A0108F87A0108D3
:1047D000087B0108147B0108207B0108307B01085D
:1047E000687B0108F07B0108147C0108207C01082B
:1047F000FCF728FF00283FF438AE5023002203992D
:104800002046FDF769FF214681466148FCF71CF907
:104810006048FBF7A5FE48465021FCF705F9DDF896
:10482000403708EE104A0A334FF030081F46DFF8D1
:104830007CA1B9F900204FF0000E47F6FF7CF3464B
:1048400066464D464FF6EC716FF01B03504615E07F
:104850006245BCBF9E469446242917D035F9022FE5
:1048600035F8023CD31A1BB29E42A8BF1E4601F186
:1048700008049842B8BF18460BB2A1B2002AE7DA82
:104880005245E9DD24299B469246E7D1A0F51C500C
:10489000103880B244F6206398423FF6E6AD002E11
:1048A0007FF4E3AD1AF5004F47F6FF7300F0588729
:1048B0009C4500F0AC87AEEB0B0EBEF1080F7FF409
:1048C000D4AD4FEACA0EACEB0A0C9EFBFCFCABEB82
:1048D0000C0E0FFA8EFEBEF1000FC0F24E85BEF137
:1048E0001F0F3FF7C2AD1FFA8EF52B4880F80D80E1
:1048F00008F1010829465FFA88F8FCF7A5F8B8F135
:104900003A0F27F8025F09F1100990D12348FCF70C
:10491000A3F86023DDE9031218EE100A0093204B80
:10492000FDF70CFDDDF840371E4A9B890093DDF84A
:1049300040371D49DD8818EE100A0723FDF736FFC2
:10494000184A19490095082318EE100AFDF72EFFA2
:104950000323144A1449009318EE100A0923FDF7A3
:1049600025FF06230F4A1049009318EE100A0A2368
:10497000FDF71CFF18EE100A40F2D531FCF7D2FD0E
:1049800004460523002C7FF47AAD00F054BC00BF30
:10499000EC7A0108347C0108900100204C7C01086D
:1049A000E4350108A4360108184501080080FFFF1E
:1049B000FCF748FE00283FF458AD4FF440730399CC
:1049C000DFF83092DFF8308200222046FDF784FEC7
:1049D00082468248FBF7C4FD4FF440715046FCF715
:1049E00023F80BAB0793049300230AF5C0610393EC
:1049F00007EE904A44AB06912CAD059343AF14AC3F
:104A00005646B6F9021036F9040BFCF7FFFE44F8DF
:104A1000040BA542F5D12BACA3465646B6F962105D
:104A2000B6F96000FCF7F2FE4BF8040F5F4506F1A3
:104A30000406F3D1059B039A13AE9818002154F88D
:104A4000043F56F8042F9B1A4B4540F32384A3F5EB
:104A5000C9237E3B4B45FADC002BB8BF5B42994231
:104A6000B8BF1946A74240F8043BE8D1049B49105F
:104A700043F8041F0493039B60330393069B0AF1DE
:104A8000C00A5345BBD1002017EE904A079E01464D
:104A9000034656F8042F8A42C8BF184603F10103A3
:104AA000C8BF1146082BF4D10CAB00EB400153F802
:104AB0002060059B0DF1AF0203EB41110DF1C70022
:104AC00051F8043BB342ACBF0023012302F8013F7D
:104AD00090421376F4D1002001460123002900F012
:104AE000E583EA5C002A00F0D98301300133302BE2
:104AF000F4D1A0F10C03082B3FF6B7AC01EB500545
:104B0000172D02D9183D172DFCD829463448FBF73C
:104B10009BFFDDF8403733481D81FBF79DFFDDF833
:104B200040371B899B009BB203F13005ADB25F2D6E
:104B300040F21B862C4AA2FB0512920902EB4202AC
:104B4000A5EB421292B200271D46B8461346012635
:104B5000264A2749009320462123FDF727FE234AB2
:104B60002349009522232046FDF720FE03251F4AF6
:104B70001F49009601232046FDF718FE1B4A1C49D9
:104B8000009502232046FDF711FE184A1849CDF87A
:104B900000802B462046FDF709FE144A1449009771
:104BA00004232046FDF702FE104A11490096052312
:104BB0002046FDF7FBFD00230C4A0D4900932046DB
:104BC0000623FDF7F3FD20464FF47B71FCF7AAFCAA
:104BD00004460623002C7FF452AC2CE3647C0108CD
:104BE000887C0108947C0108ABAAAAAAA436010813
:104BF000184501083F240300C1DBFCFFFCF722FD40
:104C0000049000283FF431ACD44EDDF84027D44D59
:104C1000D6F8D430B2F87C700399A5FB03239D0924
:104C200000224FF440732046FDF756FD07FB05F5C3
:104C30000690A9460546CB48FBF792FC28464FF460
:104C40004071FBF7F1FE44ABAF1C05930DF5867880
:104C50000DF20C75B7F9001037F9020CFCF7D6FD10
:104C600048F8040F454507F10407F3D1002309EB89
:104C700049029A46CDE92C33CDE92E33CDE93033C4
:104C8000CDE932330393D300059AB74F2CAD494693
:104C900002F15C0907EE904AAB464C4607954FF689
:104CA000FF78554689469A46A4F15C00FBF764FC00
:104CB000A4F1600C00205CF8043FDCF8602064453F
:104CC000A3EB02031844F6D10028C0F24883800900
:104CD00040F6945303FB00F0400D09FB00F00AEB93
:104CE0001020CBF8000025B15BF8043C834240F271
:104CF0001F86DBF80030A3F16673A3F54A33203B2F
:104D0000002BB8BF5B42BB4203D21F46049B0393F8
:104D1000A8466A1C95B2082D0BF1040B04F1C004DF
:104D2000C2D1039A079D4FF6FF7317EE904A002AEF
:104D300008BF98468D4F0DF1AC0A07F5D07B4FF0B8
:104D4000300987F8AC9109F101095AF8041F584657
:104D50005FFA89F9FBF778FEB9F1380FF1D1039BBF
:104D6000002B3FF40DAC41468148FBF76DFEDDF8AA
:104D700040378048A3F82280FBF76EFE7E497F4AC9
:104D8000CDF800800C232046FDF710FD204640F2B0
:104D90001641FCF7C7FB00283FF4F2AB069B9FEDE2
:104DA000786A2F461A4603F1C00403F5D86CF7EE73
:104DB000006AA4F1C0034FF0000EB3F90200B3F98A
:104DC000001000FB00F0043301FB01019C428E4403
:104DD000F3D107EE90EAB8EE677AC034C7EE067AF0
:104DE000A445B1EEE77AC6EE877AE7EC017AE0D126
:104DF000069B03F5C060059BB2F90010F5EC015A63
:104E000006EE101AB2F9021006EE901AB2F960100E
:104E100007EE101AB2F9621007EE901AB8EEC66AE1
:104E2000F8EEE66AB8EEC77AF8EEE77A26EE256A7B
:104E300066EEA56A67EEA57A27EE257A26EE065A73
:104E400067EE075A26EE266A27EE277A66EEA66AEE
:104E500067EEA77AC032904283ED005A83ED016A73
:104E6000C3ED026AC3ED185A83ED197AC3ED1A7ABD
:104E700003F10C03C0D1059814A91022FCF704FC1F
:104E8000044600283FF47CAB9DED146A9DED155A55
:104E9000DDED166ADFED3B4A9FED3B4AB1EEC67A87
:104EA000F1EE007A26EE276A65EE057A26EE266A8E
:104EB000F6EE005A36EE676AC5EE876AF1EEC67AFC
:104EC000B6EE086A37EE467A66EEA77A27EE247ABF
:104ED00066EE856AB7EE005A77EEC67A76EE856A98
:104EE00037EE257AB3EE0F6A66EE846A67EEA47A2F
:104EF000B4EEC67AF1EE10FA76EEA56A77EEA57AF0
:104F000000F31482B5EEC07AF1EE10FA48BF00212A
:104F100040F11B859FED1D7AF4EEC76AF1EE10FAA1
:104F200040F30E826FEA81516FEA9151B3EE0F7A2E
:104F3000F4EEC77AF1EE10FA00F3CA81F5EEC07A0A
:104F4000F1EE10FA48BF002340F10685DDF8402756
:104F50000B43A2F856300723FFF791BAB4030020A1
:104F6000D34D6210B07C010840420F0000000020C9
:104F7000D47C0108E47C010818450108A436010826
:104F800000004042000080420000004200007C42DD
:104F9000FCF758FB00283FF468AA1023039900226D
:104FA0002046FDF799FB8046CB48FBF7D9FA4046EF
:104FB0001021FBF739FDDDF84037B3F856600025C6
:104FC00006F01F0CC6F34410B60A08F102090CF1F2
:104FD000300C3030203E0395AB46AE462F4608E0FD
:104FE0005B45774600F20E839E460135082D00F0A2
:104FF000D88238F9252039F925300CFB02F203FB61
:1050000006FA002A03FB00F3B8BF3F32BAF1000FE3
:10501000B8BF0AF11F0A002BB8BF3F33921102EB51
:105020006A1243F38F1312B203FB03F302FB023342
:10503000BB42A9B2D9D97345D2D81F46D5E7FCF7F0
:1050400001FB00283FF411AA6023039900222046A7
:10505000FDF742FB0546A148FBF782FA284660218E
:10506000FBF7E2FC44AB0593AF1C99464FF00008F8
:1050700040F6B73637F9281035F9280001FB01F35F
:1050800000FB0033B34208F101087FF7EEA9FCF7FB
:10509000BDFBB8F1300F49F8040BEBD1059B43ADD4
:1050A0000DF1AE062946324603F15C0751F8043F84
:1050B000002BB8BF0F3302321B118F421380F5D182
:1050C0000598FBF759FA002155F8043F2A6EAF42C4
:1050D000A3EB02031944F7D1814BC81783FB0131BD
:1050E000C0EBA11000F5994330334CF662129342A5
:1050F0003FF6BBA9DDF840370DF1DE0103F12405D1
:10510000223336F8022F23F8022FB142F9D1DDF80D
:105110004037A3F854007348FBF722FA28461821B9
:10512000FBF782FCDDF840376F48B3F95410FBF70A
:105130008BFC6E48FBF790FC204640F27B41FCF76D
:10514000F1F904460923002C7FF499A973E0FCF7D8
:1051500079FA00283FF489A94FF49C63002203994F
:105160002046FDF7B9FA80466148FBF7F9F90BAE26
:1051700040464FF4C0712CAFFBF75EFC00240CAA34
:10518000009201944046334644AA902134603C602A
:105190000C941494FBF7EEF808F5407900283FF4DE
:1051A00064A9CDE9007414AB44AAF02108F590700D
:1051B000FBF7E0F800283FF458A90C9A39684D4DE8
:1051C0004D4B4E48891A03FB01F305FB02FC326884
:1051D0001B0CC3EB5C3C05FB02F2DDF84037520BC5
:1051E00005FB01F1C3E916C11A66FBF72DFCDDF8DA
:1051F00040374348996DFBF727FCDDF840374148BD
:10520000196EFBF721FC4048FBF726FC3F48FBF7F3
:10521000A7F948464FF45871FBF70EFCCDE900643E
:105220000AAB44AA40F21F1108F20230FBF7A2F8C1
:10523000002840F0EF82364EFFF7A2B99FED357A95
:10524000DFED356A354B364A364977EE877A0020EE
:1052500037EE877ABCEEE76ABCEEC77A8DED006A5E
:10526000B8EE477A103F77EEC77A16EE109A67EEDF
:10527000A67AFCEEE77ACDED017A356C17EE908ACE
:10528000A847EF2F3FF64AA90025FFF750B903F5CD
:10529000C9237E334345FADBFFF7DEBB0B283FF61D
:1052A00028AC0133302B3FF4E0A810465A1E2A44A4
:1052B000591C12F8016F4B1E2EB112F8016C16B971
:1052C0001946012012E4302900F02A830131F0E769
:1052D0004FF478733AE600BF007D0108247D010891
:1052E000ABAAAA2A507D01087C7D0108987D01089F
:1052F000B07D0108AA0A0100A82A0400C47D0108A3
:10530000D87D0108EC7D0108FC7D0108147E0108B0
:10531000B4030020BD3706350024744940890108D4
:10532000E07E01080C7F010800007C421FED027A3C
:10533000F4EEC76AF1EE10FA4FF01F013FF7F2AD3D
:10534000F5EEC06AF1EE10FA3FF5F0ADFCEEE66A5C
:1053500016EE903A9BB241EA832319B2E6E5404249
:10536000800940F6945303FB00F0400D09FB00F068
:10537000AAEB1020CBF80000B5E4CEF1000E1FFA26
:105380008EFEBEF11F0F3FF670A84EF02005FFF70E
:10539000ACBA44AB1A463221204698460593FBF737
:1053A00093FF1223002203992046FDF795F94788C1
:1053B00005462146C9482E88FBF746FB3946C848B2
:1053C000FBF742FB0435C748FBF7CAF82846102113
:1053D000FBF732FB0023B8F800004FF6FF7C98463D
:1053E00040FA03F2D20799B20AD535F81320D21B3E
:1053F000002AB8BF524292B262453CBF94468846EA
:105400000133102BECD108F1FF330D2B3FF62DA803
:1054100008F10043013B05EB430735F813307A8868
:1054200041F287319B1A8B427FF71FA8BB88D21AA3
:105430008A427FF71AA84FF6FF7398423FF415A8E7
:10544000A9483146FBF700FB059BA8481988FBF7E4
:10545000FBFAA7484146FBF7F7FADDF84037A54AC3
:105460001E80A3F80280A449CDF8008025232046A1
:10547000FDF79CF9204640F23221FCF753F8044630
:105480000223002C7EF4FBAFD5E644AB2CAD039891
:10549000049905934FF000082A46C5F80080C3F828
:1054A0000080FBF7DDFD2046FCF76AF800283FF49A
:1054B00067A8059BDFF83CB21B68DDF840A708EE43
:1054C000104AC8F534640A349C4228BF9CB22F6845
:1054D000894B38BFA4B24FEA580903EB8900620830
:1054E0003946FBF77FFBBAF87E301C22CDE900235A
:1054F00041465B4622463846FBF798FB00283FF4BE
:105500003FA8BAF880201A23CDE9003241465B4615
:1055100022463846FBF78AFB86464FF01B0C414675
:105520005B4622463846BEF1000F3FF429A8CDF86D
:1055300000C0BAF882C0CDF804C0FBF777FB8646FE
:105540004FF0190C41465B4622463846BEF1000F2B
:105550003FF416A8CDF800C0BAF884700197FBF7A5
:1055600065FB0746039A18EE100A23464946002FAA
:105570003FF406A8FCF746F8059B1B6898441FFA01
:1055800088F840F6493290459BD918EE100A40F24F
:105590005B11FBF7C7FF04460123002C7EF46FAFBD
:1055A00049E6B7EB9B0FBEF460AF039E534831460C
:1055B000FBF74AFADDF8403751481E84FBF74CFAF6
:1055C0004C4A4D4900960B232046FDF7EFF8002387
:1055D000484A4949009320460923FDF7E7F87E230E
:1055E000444A4549009320460A23FDF7DFF8204648
:1055F00040F25241FBF796FF04462B46002C7EF406
:105600003EAF18E6DE4603919B46EEE477EEC77A9E
:10561000DFED3C6A9FED3C7ADDF8402767EEA67A25
:105620003F2F77EE877AFCEEE77A17EE901AA2F812
:10563000841000F2D680DDF8401700222F2F88BF9B
:105640003B46A1F88030A1F87E20A1F88220DDF849
:1056500040370125A3F87C70FEF769BF17EE904A2A
:10566000B8F1000F3EF401AF80F03003194627482F
:1056700005931E46FBF7E8F9DDF84027244896809D
:10568000FBF7EAF921461548FBF7DEF92148FAF75E
:1056900067FF079E30213046FBF7CEF9DDF8189002
:1056A0001D484946FBF7D0F9698CB5F880305B1A84
:1056B000B3F5FA6FFEF6D9AE184A4FEA034AA2FBD9
:1056C0000A3A002007EE904A4FEA5A1A07468B46DC
:1056D00010224FF6FF7ECC462DE000BFEC7A010889
:1056E000407B01084C7B0108207F01082C7F0108CA
:1056F000347F0108A436010818450108407F0108DD
:10570000507F0108E8385BB500007C42887B0108C7
:10571000947B0108AC7B0108C07B0108ABAAAAAA54
:10572000A54288BF4FF00008013292B2402A50448F
:1057300021D036F8021FA1EB0C03002BB8BF5B424F
:105740009BB20BEB1045734505F548793CBF9E466F
:105750001746494501F54874E2D94FF00008E3E7E0
:105760009C457FF4B8A8FEF780BE03274FF00108E0
:105770000026FFF7EDB917EE904AB8F1000F3EF49E
:1057800074AE39467948FBF75FF9DDF84037784861
:105790005F81FBF761F90123DDE9031220460093E5
:1057A0004FF47E5544ABADF81051FCF7C7FD714A7C
:1057B0007149009726232046FCF7F8FF059B6D4AA8
:1057C0006D49009320462423FCF7F0FF204640F269
:1057D000C521FBF7A7FE04460323002C7EF44FAE41
:1057E00029E5DDF84027DDF84017BF2F4FF0010312
:1057F000A2F87E3096BFA7F14002FA08C2F3CF02AA
:1058000007F00703A1F88020A1F882301FE7DE46E9
:10581000FFF761B814AB01930CAB009344AA09AB3A
:105820004FF4907108F5A860FAF7A4FD00283FF442
:1058300002ADCDE90047234644AA08F5F0604FF4D5
:105840009071FAF797FD044600283FF4F4ACDDE9C7
:105850000980DDF850903F68D6F800E00C99474B7E
:10586000474E484AA7EB090C03FB0CF3A0EB0800DA
:10587000A1EB0E0105FB09F706FB00F602FB01F2A6
:105880001B0C05FB0EFEC3EB573305FB08F8DDF8D8
:105890004077360C120CC2EB5E3205FB01F105FBC2
:1058A00000F0C6EB583605FB0CF5FA66C7E919603F
:1058B000C7E91D3539673846FAF7F8FCDDF8403797
:1058C0003146C3F888003048FBF7BEF8DDF84037B2
:1058D0002E48996EFBF7B8F8DDF840372C48D96EA2
:1058E000FBF7B2F8DDF840372A48196FFBF7ACF840
:1058F000DDF840372848596FFBF7A6F8DDF8403748
:105900002648996FFBF7A0F80A23FEF7B8BDFB1FE6
:10591000172F88BFC3F120023EF6C4AEFEF7BFBE0C
:10592000A0F10C03082B3EF6A0AD4508FFF7EDB83B
:10593000002317EE904A079D03934FF6FF78FFF779
:10594000F9B944AB0593FEF7D3BEBCEEC77A17EEA8
:10595000103A19B2FFF7DEBAFCEEE77A17EE902A9A
:1059600042F30A025301FFF7F1BA00BFCC7B0108F2
:10597000D87B0108A4360108184501084E750B00B4
:1059800054150200A64A0700287E01083C7E010843
:10599000507E0108647E0108787E0108907E01082F
:1059A000002900F0BD802DE9F04706460846002E8C
:1059B00000F090803478002C00F098805B4D3246E7
:1059C0004FF0000901270FE0A4F10803DBB2072C18
:1059D00007FA03F301D92B420AD11F2C98BF09F112
:1059E000050912F8014F4CB1222CEDD95C2CF8D1ED
:1059F00012F8014F09F10109002CF5D1971B07EBB3
:105A00000905E91CFCF722FE804600285BD0B9F1AD
:105A1000000F00F087800446222304F8013B33780E
:105A2000A3B3DFF810A15C274FF0740909E0222B23
:105A300009D05C2B07D02370204616F8013F441C88
:105A400023B31F2BF3D8204600F8017B3278222A9B
:105A50003CD8072A32D9A2F108031A2B2ED8DFE846
:105A600003F02A27242D211E2D2D2D2D2D2D2D2DFA
:105A70002D2D2D2D2D2D2D2D2D2D2D2D0E002223B7
:105A8000637016F8013F441C002BDAD108EB0504C3
:105A9000222200236270A3700120BDE8F0877223E8
:105AA0006370CAE766236370C7E76E236370C4E759
:105AB00084F80190C1E762236370BEE751460BF0A2
:105AC000AFFA601DB9E70020BDE8F0875C2AF5D188
:105AD0006270B2E70321FCF7B9FD0028F3D0144B44
