:020000040800F2
:100000000000012089AF0008419200083D920008DD
:100010003992000835920008319200080000000073
:10002000000000000000000000000000299200080D
:100030002D9200080000000025920008159200088B
:10004000D9AF0008D9AF0008D9AF0008D191000896
:10005000D9AF0008D9AF0008D9AF0008D9AF000860
:10006000D9AF0008BD910008D9AF0008D9AF00088A
:10007000B1910008A5910008D9AF0008D9AF0008D8
:10008000999100088D910008D9AF0008D9AF0008F8
:10009000D9AF0008D9AF0008D9AF0008D9AF000820
:1000A000D9AF0008D9AF0008D9AF0008D9AF000810
:1000B000D9AF00080000000000000000D9AF000820
:1000C000D9AF00086D910008D9AF0008D9AF00087A
:1000D000D9AF0008D9AF0008918E0008D9AF000849
:1000E0007D8E000879A000080000000000000000DC
:1000F0000000000000000000000000000000000000
:1001000000000000D9AF000800000000D9AF0008CF
:100110000000000000000000D9AF0008D9AF0008BF
:10012000D9AF0008D9AF0008D9AF0008D9AF00088F
:10013000D9AF00080000000000000000000000002F
:10014000D9AF0008D9AF0008D9AF000800000000FF
:10015000D9AF0008D9AF0008D9AF0008D9AF00085F
:10016000D9AF0008D9AF0008D9AF000800000000DF
:10017000D9AF0008D9AF000800000000000000005F
:10018000D9AF0008D9AF0008D9AF000800000000BF
:1001900010B5054C237833B9044B13B10448AFF3C1
:1001A00000800123237010BD90000020000000009B
:1001B0004CD8000808B5034B1BB103490348AFF303
:1001C000008008BD00000000940000204CD800080A
:1001D0000F49104A086813691B0704D50D4B1869AD
:1001E000C0F3C00070470B681B1AB3F57A7FF5D2D5
:1001F00072B613691B0700D430BF62B6BFF36F8FAE
:1002000013691B07EFD5034B1869C0F3C000704793
:10021000AC0000200004004809494A68D36823F074
:10022000A003D360086804E00B681B1AB3F57A7F5B
:1002300004D8D3689B06F7D5002070470320704789
:10024000AC0000200288438843EA02430B607047F9
:10025000DFF884C02DE9F04F023802390CF1E20AD0
:100260000CF1E40B4FF0000840F6DE1930F8025FA5
:1002700031F8024FA54220D09CF800500BEBC50589
:100280006C8824B36F6847F6FF76002507EB840E71
:1002900057F8044BA4B2A64228BF2646A54238BF51
:1002A0002546BE45F4D17600B6B26D00ADB2B1457B
:1002B00028BFB146A84538BFA8460CF1010CD4456B
:1002C000D4D1A2F80090A3F80080BDE8F08F2546B5
:1002D00047F6FF76E7E700BF68D800080B4A30B45E
:1002E000411E00F187054FF0FF3011F8014F082340
:1002F0006040C4074CBF82EA50004008013BF8D17F
:100300008D42F2D1C04330BC704700BF2083B8EDAE
:100310002DE9F04F054687B0002405EB410E029011
:100320000592104604910393AEF1120EAA1E2746C1
:100330000194A146A2464FF0010C40F2EE2B14E0CE
:10034000BAF1000F30D14B4535DD99460124019EAD
:100350007642B342BCBFA8EB050301938F4238BF7E
:100360000F46964500F102002BD0558A32F8021F45
:100370006B1A03F50046B6F5803F38BF0380884608
:100380002CBF4FF0000C11885B45D9DC594E9945C4
:10039000B8BF9946B342DADA002C0ABF4FF0000C1E
:1003A000A2464FF0010AD2E74B4506DD9946544676
:1003B0004FF0000CCBE70124C9E754464FF0000C86
:1003C000C5E7BCF1000F05D14FF0000A504607B059
:1003D000BDE8F08F002CF7D0BAF1000FF4D0049AEA
:1003E000059E04970023CDF81490A2F11C0E12363E
:1003F00098469C461D461F46994636F9023F03EB38
:10040000830203EB4203304631460A2231F902BD32
:1004100030F9024F02FB0B33A2F1020B013A0BFB46
:100420000433F3D1634561DC434501DA9846A946BC
:1004300001357545E1D14CF250339C4538464C4668
:10044000049FDDF81490BFDD2B4B9845BCDAB9F161
:10045000000FB9D0019B002BB6D0029B11991B88CD
:10046000FF00DB0041B1BB4204D2DA434A443A44C4
:10047000B2FBF9F211990A60109A002AA6D0039AE9
:10048000002AA3D0024602990E3231F81210B3EBC3
:10049000C10F4FEAC10005D2DB434B440344B3FB19
:1004A000F9F3D21A029B04F10E0933F81930B7EBB5
:1004B000C30F4FEAC30107D90198431E3B445B1A9F
:1004C000B3FBF0F3A9EB0309002AFFF67DAFB9F106
:1004D000000FFFF679AF4A453FF776AF109BA9EBC7
:1004E0000209C3F80090039B1A606FE79C462F46F1
:1004F0009EE700BF12FDFFFFB03CFFFF704700BF4B
:1005000070B4124E124D00F1BC04002143680B443C
:10051000024640F8043F12689A1AB24209DD50F8C8
:10052000042CA3F5C9237E3BA1F5C92103607E39C4
:100530009A1AAA4206DA03F5C9237E3301F5C921C6
:1005400003607E318442E1D170BC70473F240300D8
:10055000C1DBFCFF18B1074B02689A4205D0064B7D
:10056000064A9B6B064900201847002380F8533049
:10057000704700BF0FB03713AC0000209817010878
:10058000B017010870B48C8893680E898D79CA7988
:100590009A70003C18BF01249E801C705D709860AA
:1005A00070BC70470368D0F8E820C0F8F0205A68A3
:1005B00018461047D0E90F23816B0069184700BF28
:1005C0000068C368184700BF704700BFF8E700BF66
:1005D00000688368184700BFFAE700BFF0E700BF74
:1005E000836910B50446BBB10D4B93F840204AB95E
:1005F00063697BB10A4B0B4A9B6B0B490020984700
:10060000002010BD9B6B094A074901209847636988
:10061000002BEFD1012010BDC369002BE4D1E7E727
:10062000AC000020F0170108D4170108B817010822
:100630002DE9F04FC5B00D46904681464FF48272C9
:1006400003A800210CF0CFF9002D43D04FEA580742
:100650007E1E04AA08F1FF34B6B2C7EB8773A4B2BA
:1006600002EB86069B0003AA09EB850B013401937C
:1006700048463D444FF0000C02EB870ADFED1B7A41
:100680006346B8F1000F18D0AB420CD2A3EB0C01BB
:10069000BB4289B207D38F4202EB830E1DD99EED78
:1006A000017A77EE877A0133A342EDD12FB103AB04
:1006B000596843F8041BB342FAD10368E0EC017AAD
:1006C00058450CF1010C04F10104A2F10402CAF82E
:1006D0000030D3D145B0BDE8F08F019901EB830123
:1006E000494491ED007A77EE877ADCE7000000005C
:1006F00070B40169B0F8422090F8383031F8122017
:10070000032B08BF82F4004240F2E51303FB02F31F
:100710001B0C826CA3F589739BB21380828F31F816
:1007200012204AB1B0F8402031F81220012A03D932
:10073000C26C0124147002E0C26C00241470C48FD7
:10074000428F31F8145031F81240B0F9441040F2A1
:10075000E51202FB05F2120CC2F5897213441BB2BA
:10076000002BB8BF5B42D0E914651BB2A4F10102B3
:1007700000689942B2FA82F24FEA5212ACBF0023EB
:100780000123327042682B7070BC104770B504466C
:10079000806978B1E36943B10F4B93F8402022B1EF
:1007A0009B6B0E4A0E49012098472068BDE87040B7
:1007B00083681847084D0B4AAB6B09499847E369B2
:1007C0003BB195F8403023B1AB6B044A044901209A
:1007D0009847002070BD00BFAC00002044180108FD
:1007E00034180108181801082DE9F047C26DD0F837
:1007F000188006690023A8F8023004461D461370CD
:1008000000F14C07994657F8043B03B3B3F838C0DE
:10081000B3F89000B3F89210B3F8D82006EB40007C
:1008200006EB410106EB420206EB4C0CC3E9130157
:10083000C3F8A420C3F814C088F800501868D3F88F
:10084000DC20416883F8E490C3F8E0208847013554
:10085000EDB2042DD7D12068BDE8F04743681847B2
:10086000704700BF704700BF704700BF704700BFB0
:1008700052B101EB8202043850F8043F4B801B0C4C
:100880000B8004319142F7D1704700BF30B583B07F
:1008900000EB42000D4601A91C46FFF7D3FC019A6C
:1008A00022F00F0204B12A43009201460122684659
:1008B000FFF7DEFF03B030BD2DE9F04F87B0BDF884
:1008C0004070DDF844A003EBC7077B8883B3814603
:1008D0000E4601EB020800254FF0010B7A6852F832
:1008E0002540620092B2B242C4F301701DD342456A
:1008F0001BDA01280CD0022836D0E8B1324B334A3B
:100900009B6B334900209847002007B0BDE8F08F6B
:10091000BAF10003A2EB060218BF012392B2C4F39E
:1009200003414846FFF7B2FF7B880135AB42D5D87B
:10093000012007B0BDE8F08FC4F344530BFA03FC69
:10094000921BE24591B21ED30CF1FF331E4A019374
:10095000CDF800A0946B1F4A03900B461C49A0479A
:10096000039807B0BDE8F08F921BBAFA8AF35B09CF
:1009700092B2C4F303414846FFF788FF7B880135F4
:10098000AB42ABD8D4E709EB410004A90393FFF7CE
:1009900059FC039B4FF0FF32C3F12003C4F304441E
:1009A00022FA03F3049AA34022EA03020AFA04F4A7
:1009B0000146144305A801220594FFF759FF7B88DF
:1009C0000135AB428AD8B3E7AC0000209818010883
:1009D0008C180108541801082DE9F04FC2F51D6666
:1009E0009A461B68164C0E36B34298BF9EB2154B02
:1009F000054688BFB6B2500803EB800083B01746A7
:100A000072088846023DFFF733FF04F1E10904F163
:100A1000E40B7D2301E014F8013F35F8022F39463D
:100A2000CDE9003240465B463246FFF745FF4C4574
:100A300001D00028EFD1CAF8006003B0BDE8F08F04
:100A400068D80008B402010800230138C1E9013365
:100A5000CB6004282ED8DFE800F00C16252903000F
:100A6000174B184A00200870C1E90533CA610120FC
:100A70007047154B00220A704FF48022C1E90533FC
:100A8000CA610120704730B4104B114CCC61012079
:100A90009625FA22CD60C1E9012230BCC1E90533B7
:100AA000087070470B4B0C4A0020DCE70B4B0C4ADC
:100AB0000020D8E70020C1E905000870C861704730
:100AC000080005000B000200020001000800010000
:100AD00002000300080002000400020008000300F6
:100AE000060002002DE9F04F1E4EDFF8848081469B
:100AF00015460FCE91B002AC0FC40FCE0FC40FCE6F
:100B00000FC496E8030098F84030012B84E80300F6
:100B100007D9D8F83840144A144900954B460220AA
:100B2000A047DFF850B0DFF844A002AC10AE02E0FE
:100B30000834B44213D0A3881D42F9D098F840304D
:100B4000012B5A464B4651464FF00200F0D9276818
:100B500000970834D8F83870B847B442EBD111B0D8
:100B6000BDE8F08FDCE000082819010844190108ED
:100B7000AC0000205819010830B50A4C94F84050D8
:100B8000012D85B00BD9CDE901120346A1F58C707A
:100B900080B20090A46B044A04490220A04705B02B
:100BA00030BD00BFAC0000206C19010844190108D9
:100BB00030B50346A1F16204104814F0010FA5B24C
:100BC00085B090F840400CD1012C08D9CDE9011234
:100BD0006D080095846B0A4A0A490220A04705B0B7
:100BE00030BD012CFBD9CDE901126D080095846B55
:100BF000054A04490220A04705B030BDAC000020E2
:100C00009419010844190108CC19010830B5094CA0
:100C100094F84050012D83B009D97D3989B2CDE9CE
:100C200000120346A46B044A04490220A04703B003
:100C300030BD00BFAC000020041A010844190108AF
:100C400010B5084991F84040012C82B008D902F053
:100C50000F0200928C6B044A044903460220A0470D
:100C600002B010BDAC000020341A0108441901087C
:100C700030B5094C94F84050012D83B009D92C3976
:100C800089B2CDE900120346A46B044A044902204C
:100C9000A04703B030BD00BFAC000020541A0108CB
:100CA0004419010830B50C4C94F84050012D83B024
:100CB00010D91146094DA46B094A11F4006F03467F
:100CC0000848C1F30A0118BF2846CDE900010649CA
:100CD0000220A04703B030BDAC000020841A0108F8
:100CE0008C1A01087C1A01084419010810B4084C38
:100CF000248D490864088C4228BF0C46023C24F02D
:100D00000104043010601C605DF8044B704700BFA4
:100D1000AC000020F8B50688002A14BF4FF48052BA
:100D20004FF40052B6F59C6F38BF4FF49C66B24248
:100D300005460F461C4623D2134B144A9B6B14499D
:100D4000002098474FF0000E1249134A134BE360FE
:100D5000C4E901120FCD203676004FF0000CA4F844
:100D600002C004F1300C24F8106B0FC495E80F009A
:100D700007C497E8030023808CE803007046F8BDA1
:100D80004FF0010EE0E700BFAC000020A01A010800
:100D9000C01A01080100020003001B001C00200013
:100DA000DFF864C02DE9F047DCF83C501DB12B465C
:100DB000BDE8F047184712B35200A1F10208A2F1B2
:100DC00002090E469A4607464944444634F8025FF3
:100DD0006DBA8C422580F9D1DCF834403846314672
:100DE000A047BAF1000F01D1BDE8F0874E4438F8B2
:100DF000023F5BBAB045A8F80030F8D1F4E7BDE88F
:100E0000F047DCF834301847AC00002070B50125FD
:100E100084B041F4A0430446164603A92A4601A81B
:100E2000ADF808300196ADF80A50FFF721FD2046D5
:100E300002A900230422FFF7B3FF04B070BD00BF76
:100E40002DE9F04782B01D4643F44053BDF82840D9
:100E5000ADF8003000278A469146694601230322F7
:100E60008046ADF80270ADF80470FFF799FFBDF948
:100E7000046004FA0AF1714001EA090445F480555E
:100E800040463B46694674400222ADF80050ADF83A
:100E90000240FFF785FF02B0BDE8F08730B583B0B0
:100EA0000025294600957B23FF220446FFF7C8FF53
:100EB0000121204600918B230222FFF7C1FF0095FC
:100EC00020468B2380220721FFF7BAFF03B030BDF5
:100ED00030B583B041F4805415460023022201A9A5
:100EE000ADF80440ADF80650FFF75AFF03B030BD2F
:100EF00070B582B003220E4600210D4604460092D2
:100F000040F24913FFF79CFF204640F249130422A8
:100F100002210095FFF794FF204640F2491310226A
:100F200004210095FFF78CFF204640F24913202250
:100F300005210095FFF784FF0095204640F24913F4
:100F40004FF47F520621FFF77BFF0EB902B070BD50
:100F500020464AF6C042312102B0BDE87040B7E7F2
:100F600030B583B041F4405114460025ADF800106F
:100F7000012303226946ADF80250ADF80450FFF793
:100F80000FFFBDF80430238003B030BDF0B585B04D
:100F90000024012907461646ADF80E4038D0022934
:100FA00033D0224B22499D6B224A03462046A84754
:100FB00021460DF10E023846FFF7D2FFBDF80E3084
:100FC000738003F00705012D358024D013F0060F40
:100FD0000BD16DB9154A0097946B1549164A2846EE
:100FE000A0472C46204605B0F0BD023D012DF9D9A1
:100FF0000E4A0097946B0E49104A0020A04700212A
:101000000C462046318005B0F0BD32210124D0E7E6
:101010000C463321CDE7054A0097946B0449084AF2
:101020000020A0470024204605B0F0BDAC00002001
:10103000F01A0108D41A0108081B01086C1B0108EA
:10104000381B0108F0B583B0002401290746164675
:10105000ADF8064019D0022909D01A4B1A4A9D6BE7
:101060001A4903462046A847204603B0F0BD462152
:101070000DF106023846FFF773FFBDF806508424D1
:1010800075B1BEB9012003B0F0BD45210DF10602D6
:101090003846FFF765FFBDF806508324002DF0D1D8
:1010A000084B0B4A9C6B094928463B46A0472846FB
:1010B00003B0F0BD384621460022FFF709FF304655
:1010C000D3E700BFAC000020D41A0108F01A0108D1
:1010D000A01B010870B582B00DF106020E46002477
:1010E0001C210546ADF80640FFF73AFFBDF8062083
:1010F00012F400620CD128461B21FFF7E9FE2846B6
:1011000046F400621B21FFF7E3FE012002B070BD30
:10111000044B054A9E6B054920462B46B0472046A6
:1011200002B070BDAC000020D41B0108F01A010809
:1011300070B582B00DF10602002437210546ADF8E6
:101140000640FFF70DFFBDF8063003F0C003B3B94A
:101150000DF1060200241C212846ADF80640FFF7D9
:10116000FFFEBDF806301B0515D50E4B0E4A9E6BD3
:101170000E4920462B46B047204602B070BD094BB1
:1011800093F84020002AE3D09C6B094A07492B467C
:101190000120A047DCE72846FFF780FE012002B0CF
:1011A00070BD00BFAC000020301C0108F01A01081F
:1011B000041C0108F0B40C4D2F8D9E1CB7EB460F9C
:1011C00005D2AB6B094A0A49F0BC00201847144607
:1011D00041F4A041013B11805380214626F000429A
:1011E0000023F0BCDCE500BFAC000020601C01085F
:1011F000801C010810B582B0044601AA0121FFF746
:10120000C5FE204600220121FFF71CFFBDF8043077
:10121000022B08D00549064A8C6B06490020A047DE
:10122000002002B010BD012002B010BDAC000020B3
:10123000941C0108DC1C01082DE9F04F02EB420C64
:1012400000EB8C0C8DB000268346824680466746B4
:10125000B14603A84FEA890586469FED577A434673
:101260006AB19C192C44D4ED007A1C46D4ED006A76
:101270000C3367EEA67ABB4237EE277AF1D10435FC
:101280000C2DAEEC017AE8D109F10109B9F1030F97
:1012900000F1100008F10408A6F1040607F10407A4
:1012A000D8D19DED046ADDED055ADDED086A68468A
:1012B0000BF10C04DFED407A53463AB11D4695ED33
:1012C000007A0C33634577EE877AF7D10AF1040A86
:1012D000A245E0EC017A0CF1040CEBD1DDED037AD0
:1012E000F5EE407AF1EE10FA10D0B7EE007A87EE04
:1012F000274ADDED077A66EE044A26EE245A77EE99
:10130000C57AF5EE407AF1EE10FA06D100200023FE
:10131000CBF800300DB0BDE8F08FC7EE272A65EEA0
:10132000843A25EEA47A66EE237A9DED0B5A76EE8A
:10133000E77A36EEC77A67EEA27A65EEA36A75EEB3
:10134000666A27EE275A76EEC56AF5EE406AF1EE38
:1013500010FADBD09DED005A9DED013A9DED022A79
:1013600064EE854A63EE853A73EE644A012067EEC7
:10137000A47A002372EE677A77EEE33AC3EEA67A98
:1013800027EE277AC1ED027A34EEC77A65EEA75AC6
:1013900067EE227A26EE276AC1ED017A35EE466ABB
:1013A00076EE655A25EE844A81ED004ACBF800308E
:1013B0000DB0BDE8F08F00BF000000000028B8BFEE
:1013C000404270B4BABF00B20124002400293FDBC0
:1013D000884238DB0022034668B30846002643F6FD
:1013E00028450004B0FBF3F1A9424AD946F2D633AE
:1013F000994236D948F67203994244D94AF649438C
:10140000994242D94DF2A303994240D94FF24B730E
:10141000994298BF052025D94FF24C7548F23323E5
:101420004CF2A340491B03FB01F100EB114016B144
:10143000C0F5C9301F3014B1C0F549303F3002B19A
:10144000404270BC70470B46C1B912480A46F2E7E9
:10145000494209B288424FF00102BCDA0B461646F7
:10146000BDE701200C4B03EBC00503EB8003D5F86F
:10147000B008D3F8E438D5F8AC58D3E700220126F9
:10148000ADE70020EEE70220ECE70320EAE70420C6
:10149000E8E700BF1F92010068D8000870B584B06B
:1014A00020B1234B02689A42044608D0214B224ABD
:1014B0009B6B224900209847002004B070BD032296
:1014C00000210E468068009240F2491301250390E6
:1014D000FFF7B6FC0398009640F24913042202215C
:1014E000FFF7AEFC0398009540F249131022042147
:1014F000FFF7A6FC0398009540F24913202205212E
:10150000FFF79EFCFF23039800934FF47F5240F2B5
:1015100049130621FFF794FC039800952A463146AB
:1015200040F24B13FFF78CFC2846267304B070BDC5
:101530000EB03713AC000020FC1C0108141D01087C
:101540002DE9F04F304ED0F8088096F840302DED60
:10155000028B012BA3B004D9B36B2C4A2C49022077
:1015600098472C49DFF8B4B0DFF8A4A0782204A88B
:101570000BF074FB0122D5214046FFF7A9FC22ABFA
:1015800008EE103A04ACA588B4F80690A944A94521
:1015900007DC26E0BDF80E2098470135ADB2A9451D
:1015A0001FDD294640460DF10E02FFF7D9FCA36866
:1015B00029464046002BEDD196F84030012B5A4683
:1015C000434651464FF00200E7D9BDF80EC0CDF8B2
:1015D00004C0276800970135B76BADB2B847A9457D
:1015E000DFDC18EE103A0C34A342CCD196F8403030
:1015F000012B04D9B36B084A05490220984723B050
:10160000BDEC028BBDE8F08FAC0000201C1D010872
:101610004419010868E10008B41D0108A01D010873
:1016200008B518B1064B02689A4207D0054B064A26
:101630009B6B064900209847002008BD043008BD78
:101640000FB03713AC00002098170108B01701083D
:1016500018B1064B02689A4205D0054B054A9B6BB0
:1016600005490020184780ED120A70470FB0371364
:10167000AC00002098170108B017010818B1064BFC
:1016800002689A4205D0054B054A9B6B054900202C
:101690001847A0F84C1070470FB03713AC0000206B
:1016A00098170108B0170108036853E8002F22F4C7
:1016B000907243E800210029F7D103F1080252E8B3
:1016C000002F22F0010203F1080C4CE80021002950
:1016D000F3D12022C267026E4166012A0DD1016654
:1016E00053E8002F22F0100243E800210029F7D12F
:1016F000DA69D20644BF10221A627047C26F222AEA
:1017000006D00268138B9BB243F008031383704723
:101710000268416D928C10B4B0F85C40224021F810
:10172000022BB0F85A204165013A92B2A0F85A2033
:10173000B0F85A309BB213B95DF8044BB4E75DF8CA
:10174000044B7047C26F222A06D00268138B9BB2EB
:1017500043F00803138370470268416D928C10B404
:1017600090F85C4022400A70B0F85A20416D013A6E
:1017700092B2A0F85A20B0F85A20013192B24165D5
:1017800012B95DF8044B8FE75DF8044B704700BF5A
:10179000836A0022A3F85A20A3F85220704700BFA2
:1017A000836A1B6E704700BF0368806A1A6812F074
:1017B000200227D10368A0F85A2053E8002F22F412
:1017C000807243E800210029F7D103F1080252E8B2
:1017D000002F22F0010203F1080C4CE8002100293F
:1017E000F3D103F1080252E8002F22F0400203F186
:1017F000080C4CE800210029F3D12022C267026EB8
:10180000012A01D0036E704753E8002F22F0100226
:1018100043E800210029F5D053E8002F22F0100200
:1018200043E800210029EFD1ECE700BF2DE9F84F94
:10183000164C0A9E278D043A043F52087F089742AF
:101840000D468146984628BF174601F1040A002438
:10185000331BBB4228BF3B466FEA84415A1E6FEAE6
:1018600091419B466A8029805A0008EB440150460A
:101870001C440BF0F3F90BF1020200232946484601
:10188000FFF78EFAA642E3D8BDE8F88FAC0000203F
:101890002DE9F04F254C85B00026CDE90266B4F85D
:1018A000288001928946002B3AD04FEA5808834697
:1018B000A8F104089A460D461F4626E0019B48F20F
:1018C00000019A192980631E4FF00001E9806A80A7
:1018D000AB806200002105F108000BF084F8294676
:1018E00001235846221DFFF75BFA02AB03CB2644C7
:1018F0006960286009EB460559F81600696802AB73
:10190000564503C3A7EB04070AD2B845444628BF8F
:101910003C46B845D2D200E0013CE307FCD4CDE719
:1019200009F1080005B0BDE8F08F00BFAC00002051
:101930002DE9F04F02EBC30689B07388129F4BB3B9
:101940008046894600254FF0010B736853F8254007
:10195000C4F3017001280CD0022833D0F0B1344B0D
:10196000344A9B6B344900209847002009B0BDE8F9
:10197000F08FA3B2194659F8232022F00F0217B1B5
:10198000C4F3034422434046FFF740FA738801350D
:101990009D42DAD3012009B0BDE8F08FC4F3445A68
:1019A0000BFA0AF39F4216D3214A0097013B019399
:1019B00021490390A3B2946B204AA047039809B031
:1019C000BDE8F08FA3B2194659F8232022F00F0288
:1019D000002FD8D1D4E7A3B243F4204C03930522BF
:1019E000012305A9ADF81800CDF81A004046ADF85E
:1019F00014C0ADF816B0FFF7D3F904A90DF11A0021
:101A0000FEF720FCCAF1200A4FF0FF33C4F3044470
:101A100023FA0AFA049B03990AFA04FA23EA0A024F
:101A200007FA04F422434046FFF7F0F9AEE700BF9F
:101A3000AC000020281E01088C180108F01D0108C8
:101A400070B5094EF36A05469847044628B12A4600
:101A500000210AF0C8FF204670BDB36B034A044959
:101A60009847204670BD00BFAC000020501E010802
:101A7000601E0108F8B595692B78B5F802E01446A8
:101A800002EB43030F46B3F84460636901467200FA
:101A900003EB4E000BF0F0F8E26D698813780E440A
:101AA0006E8003B93B791370F8BD00BF2DE9F04F8C
:101AB0002DED048B90F838308DB007900393002BF8
:101AC00000F0E7800798828F0469C38FB0F84C500C
:101AD00034F91210099502465B00408F089001937B
:101AE000002D00F0D6801046526C836CB0F84E503A
:101AF000B0F840B0DFED708ADFF8C8810A95D318DE
:101B0000029300220901DB4305920B910493914655
:101B1000B6EE009A029A6949134681FB0331D31746
:101B2000C3EBA10101EB4101B2EBC101029A48BF35
:101B30001831002A09B2C0F2B580604880FB020269
:101B4000C3EBA20212B20B9B120482FB0356002DC0
:101B500076F1000304DA4FF6FF73ED1846F1000644
:101B6000089B19442A0C34F9111042EA0642A2EBF0
:101B7000011207EE902AF8EEE79A69EEA89AB0EE05
:101B8000690A09F04DFAB0EE408AB0EE690A09F030
:101B900053FBBBF1000F6BD0079A136DB2F842A054
:101BA00093F800E006930020054647F6FF7709E02A
:101BB000DDF80CE0E25201351FFA85FCE3455044A4
:101BC000718052D9019A09EB50039BB202EB830357
:101BD000E618E25E07EE902AB6F9022006EE902A99
:101BE000F8EEE77AF8EEE66A27EE887A26EE806A63
:101BF00067EE807A66EE886A37EE467A77EEA67AE6
:101C0000B5EEC07AF1EE10FAF5EEC07A4CBF37EEC1
:101C1000497A37EE097AF1EE10FA4CBF77EEC97ABD
:101C200077EE897ABDEEC77AFDEEE77A17EE10CA35
:101C300017EE901A17EE102AC445B8BF4246414528
:101C4000B8BF4146BA42A8BF3A46B942A8BF3946D2
:101C5000BEF1000FAED19445AAD117EE90CABCEBED
:101C6000010E18BF4FF0010EA4E7069B83F800E0B9
:101C7000059B029A01331FFA83F911460593049AD2
:101C80000A9B1944D31A0493099B02914B453FF6D2
:101C900041AF079B186843680DB0BDEC048BBDE8ED
:101CA000F04F1847049B1A46054BA3FB02326FEA1C
:101CB000121212B247E700BF00008037ABAAAA2A6F
:101CC000ABAAAAAA0080FFFFC0EE207A9FED107A8F
:101CD000F4EEC77AF1EE10FA17D89FED0E0A08B5A8
:101CE00027EE800A09F0A8FAF7EE007AB0EE676AEC
:101CF00000EE006A70EE006AB1EEC67A37EE400A76
:101D000046EEC07AB0EE670A08BD9FED030A704741
:101D1000A800003FDB0F4940000000002DE9F04F14
:101D20002DED028BADF21C7DCDE9041203931B78DF
:101D300004460A2B13D8DFE813F023000B007400CD
:101D4000BF005D0133024703D2043605A40523001A
:101D5000FFF750FA002840F09486039B1B78B94E99
:101D6000B46BB94AB9490020A04700231C46039A26
:101D7000204613700DF21C7DBDEC028BBDE8F08F88
:101D8000B04EDDF84807882200210AF02CFED6ED7F
:101D9000117ADFEDAF5ADFEDAF6AF8EE677AB6EE93
:101DA000006A85EEA77AF4EEE67A37EE067AF1EE6F
:101DB00010FABCEEC77A17EE103A9FB200F3B58561
:101DC0009FEDA57AF4EEC77AF1EE10FA00F1AD8539
:101DD000A7F110039BB2EF2B40F2CC869FED9F7AC8
:101DE000DFED9F6A77EE877A37EE877ABCEEE76A97
:101DF000BCEEC77A16EE108AB8EE477A77EEC77A4D
:101E000067EEA67AFCEEE77A17EE905ACDE90085E8
:101E1000944BB46B944A95490020A047039B1B78D0
:101E20009EE7FFF7E7F98246002896D00499412300
:101E300000222046FFF72CFD0021038C079307EEBC
:101E4000904AA0F1020B0D468E464FF6FF7C41F200
:101E500070791BE030F911703BF9114007EB090272
:101E60003F1B9F42C0F25C85474500F3598582EADB
:101E7000E273A3EBE2739BB2634503D2B5009C46C9
:101E8000ADB2D6460F2E00F0268701314B1E03FB64
:101E900003F3C3EBC3035A0002F51678C83B8EB2B6
:101EA0000029D7D1B0F900304B44002BB8BF5B42BA
:101EB0009BB26345E2D3E8E7FFF79CF900283FF4C3
:101EC0004CAF0499002220232046FFF7E1FCB0F933
:101ED00000200546012116460027134635F9022F3A
:101EE000C3F5167313449BB2B3F5966F3FF635AF47
:101EF000B242A8BF0F4601F10101A8BF1646202932
:101F0000EBD1072F00F2DD87002307F10802D21A78
:101F1000002A00F0E78746A9D51800EB4505069191
:101F200000EB430030F9026B07EE106A03FB03F687
:101F300006EE903A07EE906AB8EEC77AF8EE677A46
:101F4000F8EE666A854281ED007AC1ED017AC1ED55
:101F5000026A03F1010301F10C01E3D106982EA9F5
:101F6000FFF76AF900283FF4F8AE9DED2E6AB5EE52
:101F7000406AF1EE10FA3FF4F0AEDDED2F6AF5EEB7
:101F8000406AF1EE10FA3FF4E8AE9DED307AB1EE22
:101F9000477AC7EE267AF5EEC07AF1EE10FAFFF630
:101FA000DCAEF1EE666A86EE867AB5EEC07AF1EEC8
:101FB00010FA7FF5D2AEB7EE007A77EE877AFCEEB4
:101FC000E77A17EE903A9AB23F2AC3F34E033FF6F0
:101FD000C4AEDDF8482783F01003D38020464FF4C9
:101FE0004571FFF777F804460423002C7FF4BFAE59
:101FF00000F096BCFFF7FEF800283FF4AEAE502389
:10200000204604990022FFF743FC00F1A003069349
:10201000DDF848370A3307EE904A4FF0300B1C4684
:10202000DFF84C90B0F900204FF0000847F6FF7E33
:10203000C246774606464FF6EC716FF01B034D46DD
:102040002FE000BFAC000020701E0108941E0108A4
:10205000F902154F8096984C8096984BBD370635FF
:1020600000247449041B0108A81E0108D41E01089D
:102070000080FFFF7245BCBF98469646242918D0C1
:1020800036F9022F36F8023CD31A1BB29F42A8BF82
:102090001F4601F1080C9D42B8BF1D460BB21FFA46
:1020A0008CF1002AE6DA4A45E8DD24299A46914671
:1020B000E6D1A5F51C55103DADB244F620639D4216
:1020C0003FF64BAE002F7FF448AE19F5004F47F6B0
:1020D000FF7300F043869E4500F09586A8EB0A0842
:1020E000B8F1080F7FF439AE4FEAC908AEEB090E1C
:1020F00098FBFEFEAAEB0E080FFA88F8B8F1000F65
:10210000C0F28484B8F11F0F3FF727AE1FFA88F89A
:10211000A64A0BF1010382F80DB05FFA83FB069B20
:1021200024F8028F103083427FF47AAF602317EED9
:10213000900ADDE9041200939D4B17EE904AFFF7D9
:1021400075FBDDF848379B4A9B890093DDF84837DB
:102150009949DD8820460723FFF7EAFB954A96490F
:10216000009508232046FFF7E3FB0323914A924999
:10217000009320460923FFF7DBFB06238D4A8E4997
:10218000009320460A23FFF7D3FB204640F2D531C7
:10219000FEF7A0FF04460523002C7FF4E8ADBFE363
:1021A000FFF728F800283FF4D8AD0499DFF8109223
:1021B000DFF810824FF4407300222046FFF768FBDF
:1021C0000DAB08930593002300F5C061049307EE5F
:1021D000904A46AB07912EAD069345AF824616ACAA
:1021E0005646B6F9021036F9040BFFF7E7F844F843
:1021F000040BA542F5D12DACA3465646B6F96210A4
:10220000B6F96000FFF7DAF84BF8040F5F4506F106
:102210000406F3D1069B049A15AE9818002154F8D1
:10222000043F56F8042F9B1A4B4540F3A883A3F5AF
:10223000C9237E3B4B45FADC002BB8BF5B42994279
:10224000B8BF1946A74240F8043BE8D1059B4910A6
:1022500043F8041F0593049B60330493079B0AF122
:10226000C00A5345BBD1002017EE904A089E014694
:10227000034656F8042F8A42C8BF184603F10103EB
:10228000C8BF1146082BF4D10EAB00EB400153F848
:102290002060069B0DF1B70203EB41110DF1CF0059
:1022A00051F8043BB342ACBF0023012302F8013FC5
:1022B00090421376F4D1002001460123002900F05A
:1022C0006983EA5C002A00F05D8301300133302B22
:1022D000F4D1A0F10C03082B3FF63FAD01EB500009
:1022E000172802D918381728FCD880B2820092B279
:1022F00002F13005DDF84837ADB25F2D188140F2AC
:1023000032852E4BA3FB05139B0903EB4303A5EB7F
:1023100043139BB200271546B8461A4601262649A4
:1023200000922123234A2046FFF702FB214A22493B
:10233000009522232046FFF7FBFA03251D4A1E497C
:10234000009601232046FFF7F3FA1A4A1A4900952E
:1023500002232046FFF7ECFA164A1749CDF8008011
:102360002B462046FFF7E4FA124A1349009704234C
:102370002046FFF7DDFA0F4A0F4900960523204655
:10238000FFF7D6FA00230B4A0B4900932046062399
:10239000FFF7CEFA20464FF47B71FEF79BFE044612
:1023A0000623002C7FF4E3ACBAE200BF000000205B
:1023B00020E30008E0E1000820EC0008ABAAAAAA8C
:1023C0003F240300C1DBFCFFFEF714FF0790002849
:1023D0003FF4C3ACD24EDDF84827D24D736CB2F84F
:1023E0007C700499A5FB03239D0900224FF44073E0
:1023F0002046FFF74DFA46AB07FB05F7089000F1C2
:10240000020806930DF58A790DF21475B8F90010DB
:1024100038F9020CFEF7D2FF49F8040F4D4508F1D8
:102420000408F3D1002307EB47029A46CDE92E3387
:10243000CDE93033CDE93233CDE934330593D300E0
:10244000069ADFF800832EAD02F15C09AB464FF629
:10245000FF7209955546DDF81CA0049207EE904ADC
:102460004C469946A4F15C00FEF74AF8A4F1600CD2
:1024700000205CF8043FDCF860206445A3EB020315
:102480001844F6D10028C0F2B382800940F6945374
:1024900003FB00F0400D07FB00F009EB1020CBF828
:1024A000000025B15BF8043C984280F09284DBF890
:1024B0000030A3F16673A3F54A33203B002BB8BF6D
:1024C0005B42434505F1010238BFCDE9045A95B29C
:1024D00038BF9846082D0BF1040B04F1C004C1D19C
:1024E000059B099D17EE904A002B00F07284DDF8E1
:1024F00048378D488D4A19463727049B4B840093F3
:102500008B4907770C2317EE900AFFF711FA204644
:1025100040F21641FEF7DEFD002800F00282089B23
:102520009FED846A2F461A4603F1C00403F5D86C68
:10253000F7EE006AA4F1C0034FF0000EB3F90200F9
:10254000B3F9001000FB00F0043301FB01019C42D1
:102550008E44F3D107EE90EAB8EE677AC034C7EE46
:10256000067AA445B1EEE77AC6EE877AE7EC017AFF
:10257000E0D1089B03F5C060069BB2F90010F5ECB2
:10258000015A06EE101AB2F9021006EE901AB2F9CC
:10259000601007EE101AB2F9621007EE901AB8EE4A
:1025A000C66AF8EEE66AB8EEC77AF8EEE77A26EE83
:1025B000256A66EEA56A67EEA57A27EE257A26EEED
:1025C000065A67EE075A26EE266A27EE277A66EE47
:1025D000A66A67EEA77AC032904283ED005A83ED77
:1025E000016AC3ED026AC3ED185A83ED197AC3ED8F
:1025F0001A7A03F10C03C0D1069816A91022FEF72F
:102600001BFE0446002800F08C819DED166A9DEDAE
:10261000175ADDED186ADFED484A9FED484AF1EEA2
:10262000C67AB1EE007A26EE076A25EE057A26EE26
:10263000266AF6EE005A36EE476AC5EEA76AB1EE94
:10264000C67AB6EE086A77EEC67A26EE877A67EE25
:10265000A47A66EE856AB7EE005A37EE467A76EED1
:10266000856A77EEA57AB3EE0F6A66EE846A27EE86
:10267000247AF4EEC67AF1EE10FA76EEA56A37EE19
:10268000257A00F39C81F5EEC07AF1EE10FA48BF8E
:10269000002340F12B84DFED2A7AF4EEE76AF1EEB5
:1026A00010FA40F396816FEA83536FEA9353F3EE87
:1026B0000F7AB4EEE77AF1EE10FA00F37D81B5EE11
:1026C000C07AF1EE10FA48BF002240F1168413439D
:1026D000DDF84827A2F856300723FFF748BBFEF77E
:1026E00089FD00283FF439AB1023049900222046CD
:1026F000FFF7CEF8DDF84837B3F85660002506F04E
:102700001F0EC6F3441CB60A00F102090EF1300E8A
:102710000CF1300C203E0495AB46A8462F461CE039
:10272000AC000020D34D621000000020E0E1000862
:1027300020EC0008000040420000804200000042FF
:1027400000007C4240420F005B45474600F2958105
:1027500098460135082D00F0658130F9252039F9BA
:1027600025300EFB02F203FB06FA002A03FB0CF3F2
:10277000B8BF3F32BAF1000FB8BF0AF11F0A002BF1
:10278000B8BF3F33921102EB6A1243F38F1312B2B8
:1027900003FB03F302FB0233BB42A9B2D9D9434581
:1027A000D2D81F46D5E7FEF725FD00283FF4D5AA6D
:1027B0006023049900222046FFF76AF846AB0546DD
:1027C0000693871C99464FF0000840F6B73637F954
:1027D000281035F9280001FB01F300FB0033B34258
:1027E00008F101087FF7B9AAFEF7E8FDB8F1300F4C
:1027F00049F8040BEBD1069B45AD0DF1B606294611
:10280000324603F15C0751F8043F002BB8BF0F3389
:1028100002321B118F421380F5D10698FDF770FE2E
:10282000002155F8043F2A6EAF42A3EB020319447E
:10283000F7D1C34BC81783FB0131C0EBA11000F5E2
:10284000994330334CF6621293423FF686AADDF884
:1028500048370DF1E601223336F8022F23F8022F14
:10286000B142F9D1DDF8483740F27B41A3F854007A
:102870002046FEF72FFC04460923002C7FF477AA9C
:102880004EE0FEF7B7FC00283FF467AA0022049947
:1028900020464FF49C6314460DAEFEF7F9FF2EAFB1
:1028A0000EAA00920194334646AA902134603C60FF
:1028B0000E9416948046FDF72BFD00283FF44DAA98
:1028C000CDE9007416AB46AAF02108F59070FDF72B
:1028D0001FFD00283FF441AA39680E98994B9A4D84
:1028E00032680194091A03FB01F305FB00F01B0C8D
:1028F000C3EB503305FB02F2DDF84807009605FBF9
:1029000001F1520BC0E91712836546AA0CAB40F2E5
:102910001F1108F20230FDF7FBFC002840F0768220
:102920008A4E039B1B78FFF71BBA9FED897ADFED78
:10293000896A894B894A8A4977EE877A002037EE7F
:10294000877ABCEEE76ABCEEC77A8DED006AB8EE16
:10295000477A103F77EEC77A16EE108A67EEA67AAE
:10296000FCEEE77ACDED017AB46B17EE905AA047F2
:10297000EF2F3FF64BAAD4E703F5C9237E33434537
:10298000FADB59E40B283FF6A4AC0133302B3FF4BB
:10299000E4A910465A1E2A44591C12F8016F4B1E16
:1029A0002EB112F8016C16B9194601208EE43029B7
:1029B00000F090820131F0E74FF4787287E6DFEDA6
:1029C0006C7AF4EEE76AF1EE10FA4FF01F033FF76E
:1029D0006AAEF5EEC06AF1EE10FA3FF568AEFCEEB5
:1029E000E66A16EE902A92B243EA82231BB25EE6B2
:1029F0004042800940F6945303FB00F0400D07FB72
:102A000000F0A9EB1020CBF800004AE5C8F100085F
:102A10001FFA88F8B8F11F0F3FF69FA948F0200869
:102A2000FFF776BBB7EB9B0FBFF497A9DDF84837EC
:102A30004C4A1946049B0B8420464B4900930B23B8
:102A4000FEF776FF0023474A4749009320460923B3
:102A5000FEF76EFF7E23434A4349009320460A2334
:102A6000FEF766FF204640F25241FEF733FB044674
:102A70002B46002C7FF47BA952E7D84604919B4655
:102A800067E646AA32212046FEF76AFA1223049925
:102A900000222046FEF7FCFE054600236F88BDF8A5
:102AA000180135F804EB9C464FF6FF7640FA03F226
:102AB000D20799B20AD535F81320D21B002AB8BF25
:102AC000524292B2B2423CBF16468C460133102BA2
:102AD000ECD10CF1FF330D2B3FF63FA90CF1004375
:102AE000013B05EB430635F81330728841F287311C
:102AF0009B1A8B427FF731A9B388D21A8A427FF79B
:102B00002CA94FF6FF7398423FF427A9DDF8483708
:102B1000144AA3F800E0A3F802C01349CDF800C09E
:102B200025232046FEF704FF204640F23221FEF71F
:102B3000D1FA04460223002C7FF419A9F0E600BF65
:102B4000ABAAAA2AA82A0400AA0A0100AC00002005
:102B5000BD37063500247449041B0108A81E01086E
:102B6000D41E0108E0E1000820EC0008E8385BB55D
:102B700000007C4277EEC77A5FED046A1FED047AAD
:102B8000DDF8482767EEA67A3F2F77EE877AFCEECE
:102B9000E77A17EE901AA2F8841000F21E81DDF891
:102BA000481700222F2F88BF3B46A1F88030A1F89C
:102BB0007E20A1F88220DDF848270498A2F87C70D6
:102BC00046AB2EAD4FF00008059906932A46C5F88E
:102BD0000080C3F80080FEF789F82046FEF7A8FAC7
:102BE00000283FF49EAE069BDFF828B31B68DDF893
:102BF00048A708EE104AC8F534640A349C4228BF3E
:102C00009CB22F68C14B38BFA4B24FEA580903EBFE
:102C1000890062083946FDF72BFEBAF87E301C2287
:102C2000CDE9002341465B4622463846FDF744FE87
:102C300000283FF476AEBAF880201A23CDE900329E
:102C400041465B4622463846FDF736FE86464FF043
:102C50001B0C41465B4622463846BEF1000F3FF44E
:102C600060AECDF800C0BAF882C0CDF804C0FDF760
:102C700023FE86464FF0190C41465B4622463846F5
:102C8000BEF1000F3FF44DAECDF800C0BAF884702D
:102C90000197FDF711FE0746049A18EE100A234625
:102CA0004946002F3FF43DAEFEF784FA069B1B68B1
:102CB00098441FFA88F840F6493290459BD918EE9F
:102CC000100A40F25B11FEF705FA04460123002CBE
:102CD0007FF44DA824E6BEF1000F3FF43EA8DDF8D6
:102CE000482785F030039380418C0693B0F88030FC
:102CF0005B1AB3F5FA6FFFF630A8854ADDF81CC001
:102D00004FEA034AA2FB0A3A002522304FEA5A1A38
:102D10002F468B4610224FF6FF780AE0A64288BF66
:102D20004FF0000E013292B2402A554421D030F8C3
:102D3000021FA1EB0C03002BB8BF5B429BB20BEB55
:102D40001546434506F548793CBF98461746494520
:102D500001F54874E2D94FF0000EE3E79E457FF499
:102D6000CDA9FEF7FABF03274FF001080026FFF7B1
:102D7000D6BA17EE904ABEF1000F3EF4EEAFDDF882
:102D8000482701234FF47E505781ADF81801DDE943
:102D9000041217EE900A009346ABFEF747FD5D4A1A
:102DA0005A49009726232046FEF7C2FD069B594A42
:102DB0005649009320462423FEF7BAFD204640F2F0
:102DC000C521FEF787F904460323002C7EF4CFAF1C
:102DD000A6E5514B37221A77A3E5DDF84827DDF841
:102DE0004817BF2F4FF00103A2F87E3096BFA7F11E
:102DF0004002FA08C2F3CF0207F00703A1F88020CF
:102E0000A1F88230D7E6D046FFF778B916AB019328
:102E10000EAB009346AA0BAB4FF4907108F5A86077
:102E2000FDF776FA00283FF47BADCDE90047234655
:102E300046AA08F5F0604FF49071FDF769FA044670
:102E400000283FF46DADDDE90BE9D6F80080DDF830
:102E500058C00E983F683149314A324BA7EB0C07F6
:102E6000A9EB0E06A0EB080001FB06F102FB00F245
:102E700003FB07F305FB0EFE05FB0CFC05FB00F056
:102E800005FB08F805FB06F6090C05FB07F5120C17
:102E9000DDF848771B0CC3EB5C33C1EB5E31C2EB52
:102EA0005832C7E91D353867C7E91A62796638466E
:102EB000FDF714FADDF84837C3F888000A23FEF757
:102EC00056BFFB1F172F88BFC3F120023FF620A873
:102ED000FFF71BB8A0F10C03082B3EF63EAF4008ED
:102EE000FFF703BA46AB0693FFF738B8FCEEE77A74
:102EF00017EE903A1BB2FFF7CEBBFCEEC77A17EE87
:102F0000902A42F30A025201FFF7E1BB20EC0008CD
:102F1000ABAAAAAAE0E100080000002054150200B4
:102F2000A64A07004E750B002DE9F04F2DED0C8BD6
:102F30008346A3B090F84E4090F84C000C90042CBF
:102F4000BBF84800079088469246009337D89BED1F
:102F5000106AB5EEC06AF1EE10FA00F1F9819BF843
:102F60005630DFF89C90002B40F08882DBED117A20
:102F700099ED117AF5EEC07AF1EE10FAB8EE478AC3
:102F800040F36E8588EE279AF6EE007A39EE279A9E
:102F900000F17F8519EE100A07F0C2F8012908BF79
:102FA000002880F076859BF84A30002B00F0948250
:102FB000D9F838300F4A10490020984726E0DFF84A
:102FC00040900E4AD9F838300B4900209847DBED85
:102FD000117A99ED117AF5EEC07AF1EE10FAB8EEA9
:102FE000478A11DD88EE279AF6EE007A39EE279AA5
:102FF0000CE000BF6C1F0108041F0108E81E010857
:10300000AC000020000000001FED029A079B0BB1EE
:103010009BF84E3008939BF84A300293002B40F007
:10302000A0819BF85030022B40F02F879BF84E4038
:10303000012C00F048820024389A029B1471AAF8EF
:10304000AC4193B19BF84F30012B00F03D87022B30
:1030500000F03487002B00F02087D9F83830C44ABC
:10306000C4490020984700230293B8F1000F4ED0C6
:10307000B8F80830B8F88210B8F88020B8F87E00A8
:10308000AAF804109B00B8F88410AAF802209BB29A
:1030900003F13002AAF80000B8F80200AAF80610FE
:1030A000B8F80410AAF8080092B2B8F80600AAF816
:1030B0000A10B8F80A10AAF80C005F2AB8F8200025
:1030C000AAF80E10B8F82210AAF81210AAF81000E8
:1030D00040F2D0816020B2FBF0F100FB112291B2EE
:1030E00000201A4605460B4601210324AAF8143095
:1030F0000023AAF81620AAF81810AAF81C50AAF85B
:103100001E00AAF82010AAF81A40AAF82230009946
:1031100001224A81029A00234B808B81002A00F011
:10312000F087CDE904331D460AF13E0201F10E039A
:103130009FED91AADFED919ADFED918ACDF804B071
:103140005E460AF14607CB460992CDF80C80CDF8D1
:1031500018A09946089AEBB29A4200F21B81099A8C
:103160000023A9F80030A9F8083022F815300135FD
:10317000042D09F1020906F1100607F15607E9D1FD
:10318000D946DDF80C80DDF818A0DDF804B0BAF8F7
:10319000ACC1BCF1010F04D1049B079A02FB03F3FD
:1031A0000493009B9BF852109A89BBF854005B89EA
:1031B0009BF85360AAF89E110799049C12FB01F238
:1031C00092B24FF6FF718C42134428BF0C469BB25B
:1031D000470803380599A6465D1C9BF85640AAF897
:1031E000A8010098AAF8A011033F86F001061FFA73
:1031F0008EF1ADB2AAF8AA71AAF8A661AAF8A41134
:1032000082818380C580002C00F0148100984133B6
:103210004022038002810124AAF8C041B8F1000FC6
:1032200003D0B8F80C30AAF8C231029B002B40F052
:103230000B81389A9BED106A002313600C9BAAF84F
:10324000B231079B012B40F2F980BBF848300122D4
:10325000023BAAF8AE31AAF8B0219FED4A7ADFED21
:103260004A5A28EE077AF1EE007A68EE277AC7EE1E
:10327000256A87EEA57AC8EE257AF6EE005A76EE34
:10328000A56A37EE257AFCEEE66A77EEA57ABCEE03
:10329000C77A16EE903AB5EE406A17EE102AF1EEB4
:1032A00010FAFCEEE77AAAF8B83114BF0123002324
:1032B000AAF8B621AAF8383017EE902A029BAAF88D
:1032C000B421002B00F0A280B5EE406AF1EE10FAB6
:1032D0000CD0C8EE067A77EEA55AFCEEE57A17EE2A
:1032E000903A1A0CAAF83C30AAF83A20DBED117A91
:1032F0009BF84A309BF84B20AAF83030F5EE407A24
:10330000F1EE10FA14BF01230023AAF83220AAF824
:103310002A3008D0FCEEC97A17EE903A1A0CAAF8B7
:103320002E30AAF82C209BF851300298AAF8BE3112
:10333000012140F2FF7240F60103AAF82410AAF816
:10334000BA21AAF8BC3123B0BDEC0C8BBDE8F08FDC
:10335000DFF83C900D4AD9F83830064900209847EC
:1033600035E6389A002313710293AAF8AC317CE653
:10337000E81F0108041F01082549123E0000000053
:103380008FC2753D0000964300247449181F010840
:10339000AC000020099A012322F81530019B3289E4
:1033A00093F84C300A93184640F2FF1140F2FF3375
:1033B000002818BF0B46CAB19A4217D8737B002B5E
:1033C00068D1F37BB07B002840F05582012B00F0E0
:1033D000B180D9464F4AD9F838304F49DDF80C80D2
:1033E000DDF818A0DDF804B098470CE0D9464B4A48
:1033F000D9F838304849DDF80C80DDF818A0DDF840
:1034000004B00020984700230293C0E6DBED117A58
:103410009BF84A309BF84B20AAF83030F5EE407A02
:10342000F1EE10FA14BF01230023AAF83220AAF803
:103430002A3078E7009B1C811D80EDE60023AAF866
:10344000AE31AAF8B03108E79BF84D20072A32D8F0
:10345000334BDFED349A134493F89C3BAAF8A23126
:10346000389BC3ED009A089B002B40F04C849BEDE9
:10347000106AE3E603200125002136E69BF84B3075
:10348000002B3FF473AD284AD9F838302249002088
:1034900098479CE5F37B022B94D1D946234AD9F86F
:1034A00038301D49DDF80C80DDF818A0DDF804B0D7
:1034B00000209847A7E7389A9BED106A0023136015
:1034C00000230293BAE69BF80F30013B012B3FF635
:1034D000B3ADB0E59FED139A9BF84F109BF85020C9
:1034E0000798002814BF20460020914208900AD86F
:1034F000002B40F0C384022A00F03286389A137100
:10350000AAF8AC319EE5D9F83830094A02490020C2
:10351000984780E564200108041F0108282001085D
:1035200068D80008000000002C1F0108382001089E
:10353000981F0108B84BB6F80680B48803EB8000EA
:10354000B8F1180FD0F878AB40F2CD821822B8FB52
:10355000F2F102FB11839BB2002B40F0A6828BB2EA
:1035600010930B92002C40F0D282DBF83830AB4A3B
:10357000AB49204698470A9B002B00F0C2830023EA
:103580000A93022233689A440AF5C34314FB02F2F9
:1035900028334CF25031013C92B28B420E9208FB20
:1035A00004A807D9DBF838309E4A9D490020984787
:1035B00000230A9308F5C34328334CF25032934258
:1035C00007D9DBF83830984A9549002098470023FE
:1035D0000A93BAF1000FC0F28A8318239AFBF3F31F
:1035E0001AB2B8F1000FC0F27A83182198FBF1F1FA
:1035F00009B293B218229AFBF2F002FB10AABAF1B8
:10360000000FA1EB0301B8BF0AF1180A109C159333
:103610004FF0180E8BB20FFA8AFA09B2B3FBF4F32B
:103620000B9C98FBFEF016910EFB10880B99B2FBD9
:10363000F1F21FFA8AF1B8F1000FB1FBF4FC04FBC0
:103640001C1C1FFA8CF0B8BF08F118080F900FFA75
:1036500088F012900F9C0B980133013A92B29BB202
:103660001892012B12FB004292B2BDF8480000F004
:10367000F783841A0F9818BF0124814214BF0120D8
:103680000020A3EB0003A3EB04039BB20D93A3B2B2
:103690001194149300F0ED831046029B1393A0EB5A
:1036A0000A000B9B90FBF3F00123179383B219934D
:1036B0000F9B9B00FB870A9B8900B987002B00F0BA
:1036C0000F82B37B052B00F22784534A02EB43039E
:1036D000B3F88C8B159B1699C3F12904A8F14A0AFB
:1036E00014FA8AF422B215924FEA5803521A033B95
:1036F000A8F10301292A1FFA8AFAA4B2FB86B98627
:1037000007DCDBF83830494A454900209847002358
:103710000A93159BA8F11408434507DBDBF8383002
:10372000434A3F490020984700230A930B9BA7F880
:1037300038A0013B9B009BB22C2B7C8740F214826B
:103740000023A7F85030A7F85230A7F85430109B48
:10375000013BA7F84E30179BA7F848300D9B002B74
:1037600000F0E4810123A7F84A30139B149AA7F8CC
:103770004C20002B00F0F583199BA7F84230189BD2
:10378000A7F84430119B002B00F0DF83129B0F9AA7
:10379000A3EB020C0B9B9CFBF3FCA7F846C00D9B14
:1037A000013B9BB20D930D9BA7F840300A9B002B69
:1037B00059D0B37A172B00F28581092B00F28A8346
:1037C000C3F1090315227B803A80039A002A00F096
:1037D0002A847B8802EB43039B89F07BBB801AA978
:1037E000FDF732F940BBD946DDF818A0D9F83830DA
:1037F000104A0B49DDF80C80DDF804B098475623D9
:1038000003FB05A3BDF88410BDF88620A3F8701053
:10381000A3F86E20F7E500BF68D80008B0200108C3
:10382000041F0108FC20010810210108442101089F
:10383000642101088C200108BDF87C40BDF884306B
:103840007B85082CBDF886303B850CD8BDF87E30D2
:10385000072B08D8BDF880C0BCF1080F03D8BDF80D
:103860008220082A1AD9D946DDF80C80DDF818A084
:10387000DDF804B0C7E5581EC0B204287FF65AAE82
:10388000D946BF4AD9F83830BE49DDF80C80DDF89A
:1038900018A0DDF804B000209847B4E5012101FA32
:1038A00003F3501E013B9BB201FA02F201FA00F051
:1038B0003C81013A9C0101385B0240023B8292014B
:1038C000019B7882A7F80AC0BC81FA819DF8680044
:1038D00093F84D301E93002853D01B9A002A50D0E5
:1038E000022B00F2A482A84C234493F8983BBB829D
:1038F000039B002B64D007F1140A00233B830A9238
:10390000AAF81010039BDDF874C0D3F860E00B90A8
:10391000D3E9198400210B46204608EB1142A2EBA3
:103920000E0262459CB2014403F1010380F2E78379
:103930000F2BF2D10B981C46039BD3F878C0D3F819
:1039400074E0AAF806400A9C0CEB8C0105220EEBF1
:1039500011431B1B02F10108614440F1AB831FFAC4
:1039600088F2142AF3D1D946884AD9F838308549E3
:10397000DDF80C80DDF818A0DDF804B000209847D1
:1039800041E5072B00F253827F4A134493F89C3B96
:10399000BB82039BA3B100233B8307F1140A0028D9
:1039A00040F00681B8847883F882AAF80800AAF863
:1039B0000E000023AAF80A3000233B84AAF8123034
:1039C000308996F80BC0A7F830C0012869D00121D2
:1039D000831EF985BB85717B009CA389F98081F0EA
:1039E000010179860E99A9F80030A9F808100B4456
:1039F000F17BA38101293B8D2FD002290CBFB0EEB2
:103A0000686AB0EE696A01339BB2B28807EE103A79
:103A100007EE902AB8EE477AF1EE006A27EE267A92
:103A2000F8EE677A06EE900A67EE277AF8EE666A95
:103A3000059B67EEA67A1A4667EE867A002B08BFCA
:103A4000624667EE8A7A049B0592FCEEE77A17EEEF
:103A5000902A13440493FFF78ABB9FED4D6AD2E787
:103A600015D400F355829BF84A30002B3FF432AD59
:103A7000F5EE407AF1EE10FA05D1B5EE406AF1EEBE
:103A800010FA40F0E3829FED439AFFF791BA9FED61
:103A9000419AD9F83830404A3A4900209847FFF710
:103AA000B5BA0023FB85BB8595E7DBF838300D936D
:103AB00001230B93394A0D9B3249002098470B9BF9
:103AC000109358E5D946364AD9F838302D49DDF8F3
:103AD0000C80DDF818A0DDF804B00020984792E4CF
:103AE0004FF08008F6E5B8F1000FDED01823B3FBE5
:103AF000F8F308FB03F3C3F118039BB2002BD4D1F6
:103B00000123CDF82C801093002C3FF42EAD0A98A1
:103B100000287FF436AD337B002B00F0F080214A83
:103B2000DBF838301749984704222BE50D9BA7F89E
:103B30004A30149BA7F84C30139B002B00F00D82E9
:103B4000199BA7F842300023A7F84430119B002BA3
:103B500000F0FF81129B0F9AA3EB020C0B9B9CFBC6
:103B6000F3FCA7F846C01EE61E2B40F2E1810F22AF
:103B70001E3BA7F85430A7F85020A7F85220E6E5DE
:103B80008C200108041F010868D80008B42101082E
:103B9000CDCC4C3E00000000581F01089C200108BD
:103BA0007C210108C42001089A999D41F902154F12
:103BB0001B9B0A931A460123AAF81030002A7FF4AF
:103BC000A1AE1C9B0A9A0B93B3F5167FAAF80620A8
:103BD000AAF80220C0F0B882039BD3F86CC00B9BFC
:103BE0000021A3EB0C0E4FF4C87201FB02247445B4
:103BF0000B4601F10101F8DB0A99002914BF0124E9
:103C000000244FF00101AAF80840AAF80E1000F0B5
:103C10004382039AD2F870800B9A4FF4C874002044
:103C200004FB1324024602E0162A3FF49CAE0CEB80
:103C30001041091B1FFA82FE404402F10102F3D435
:103C4000BEF1000F0AD00EF1FF3290B208FB00F275
:103C50000CEB1242A21A9142C8BF8646AAF80AE0AB
:103C6000002B00F053820B994FF4C87202FB131221
:103C70000B920A9A002A40F04F821446039AD2F817
:103C800058E0D2F85C800B9A00201444024602E00F
:103C9000162A3FF468AE0EEB1041091B1FFA82FC96
:103CA000404402F10102F3D4BCF1000F0DD00A9A96
:103CB0005AB90CF1FF3292B208FB02F80EEB184829
:103CC000A4EB08084145C8BF9446A7F820C0002BC4
:103CD0003FF474AEDA1D012393409BB26EE66FEAA7
:103CE00008011823B1FBF3F1C94309B281E46FEA7B
:103CF0000A021823B2FBF3F3DB431AB271E4029B0E
:103D00000A9304223EE4BCF1010F00F08F8107EE1C
:103D1000901A5FED5BAAF8EE67CAF7EE089AB2EE6A
:103D200002DAD9ED117A1FED5F0AB8EE67AA80EECC
:103D30000A0A07F05BFA9BF85030022B2AEE00AA21
:103D400000F21381C74A9BF84E10DDF8088002EBA1
:103D50008300D0ED00DA90ED03CA002900F016814F
:103D60000026DFEDC18AC14FDFEDC1BA9FEDC1BAB8
:103D700035463AE032F8133007EE903AF8EE677ABB
:103D80008AEE277A5D44A31CB5F808C0A8889BF882
:103D90004E105A0093B20CFB0333023304EB44047D
:103DA0005B00A4009BB287EE0B6A1834A4B2013604
:103DB000F5B2A94207EE903A07EE104AF8EE677A9C
:103DC000B8EE477AC7EE866AC7EE065A07EE900A43
:103DD000F8EE677A66EEA77A77EEA57A77EEAA7A9A
:103DE00077EEA97A78EEA78A30D90BEB05131AA9DA
:103DF000D87BFCF729FE2D019F493A46044618B9A5
:103E0000D9F838309847A0460BEB05039B4A9B7BBB
:103E1000BDF88640052BADD9D9F83830984A964977
:103E2000002098474FF00008F0EE6B7AA8E7D946DB
:103E3000944AD9F838309049DDF80C80DDF818A0A4
:103E4000DDF804B000209847FFF7DDBAB8F1000FA5
:103E500040F09E809BED106ACDF80880FFF7EEB928
:103E6000A142234600F0CF80002314930D931193B9
:103E700013E4002317931393199319E4389A00233A
:103E80001371AAF8AC31FFF7DDB8389B1A46029BD4
:103E90001371AAF8AC31FFF7E8B80123AAF826306D
:103EA000AAF828309BF85030012B24D0022B1BD0CD
:103EB00033B3D9F83830744AFFF7D2B80023AAF8E0
:103EC0002630AAF82830EDE70022AAF82630AAF812
:103ED0002820E7E7102B94BFC3F11E03C3F117039B
:103EE00000223B807A8070E40023CAF8343001233A
:103EF0000293FFF7BAB8CAF834300293FFF7B5B8A7
:103F00004FF00113CAF8343001230293FFF7ADB824
:103F10009FED559AFFF73EB8DBF83830584A5649BE
:103F20000020984700234FF080080A93FFF7D2BB88
:103F30000F2B40F282800F3B0F22A7F85230002354
:103F4000A7F85020A7F8543001E4119BA7F8463099
:103F500025E4119BA7F8463025E40D9BA7F84230D5
:103F6000F1E5139BA7F8423009E4D9F83830464A06
:103F70004149002098479BF84E30002B40D09FEDE0
:103F80003ACA4FF00008F0EE4CDAE9E6DFED368A87
:103F9000DFED3E7ADFED376ADFED3D5A9BED106ACB
:103FA000389B8AEE275AF1EE0C7A85EE267A6CEE73
:103FB000A7CA3CEE2DCACCEE877AB0EE007A37EE77
:103FC0008DDAF0EE477A7DEE288A78EE8C8A48EE1C
:103FD000A57A77EEA88AC6EEA87AB4EEE76AF1EE83
:103FE00010FAC3ED007A7FF729A9FDEEE77AD9F838
:103FF0003840284A204917EE903A0020A047002375
:104000000293FFF734BA90420CBF012300230D93B3
:104010004FF0000340F0A88017931493119313936B
:104020001993FFF745BB039BFFF7D7BBF0EE69AAD7
:10403000B0EE69DAF0EE69CA73E60022A7F85030F4
:10404000A7F85220A7F85420FFF781BB9BF84F1028
:104050009BF850209FED049A91427EF4A9AFFFF7A0
:104060003FBA00BF0CE40008000000008C200108EB
:104070000000004300247449041F0108F4E3000811
:10408000382101089421010808200108000020437C
:104090000AD7233CE02101080A99AAF80A1000284F
:1040A0003FF48AAC002B58D00B990A9C02FB1312E8
:1040B0000B92E3E5052A0BD0511E89B20A9C0CFB3A
:1040C00001FC0EEB1C4CA4EB0C04A342C8BF0A4637
:1040D0001C9B0B93B3F5167FAAF80220BFF47CADAE
:1040E0000023AAF80830AAF80E3000283FF461AC8B
:1040F0000A9A002A2DD0039AD2F86CC089E50B9851
:104100001AE4029BCDE90433FFF741B8FA8B08FBB0
:1041100002F20CEB12420B9203987C8B826E416E82
:1041200002FB04F4026E01EB1444A41A3FF51BAC2D
:10413000039AF88A916F526F01FB00F102EB114173
:104140000B9A0A440B9299E50A9BAAF80830AAF840
:104150000E300023AAF80A300A9300231C468DE58E
:1041600001230293FEF764BF14931193FFF795BAEE
:1041700070B5FEB004464FF4E2720D460DA8002162
:1041800003AE08F030FC0DAA204605AB00960021D6
:10419000FEF7CAFE08B97EB070BD94F84B202B46DE
:1041A000314605A8FCF7B6FDF5E700BF10B58EB0A7
:1041B0000C46FDF735FA30B16946FFF7D9FF10B16B
:1041C000BDF8003023600EB010BD00BF08B5144B21
:1041D0009FED140A2DED028B93ED118AB8EE488AFB
:1041E00008EE900A80EE080A07F000F828EE000AB0
:1041F000B3EE088A20EE080AB7EE007AC7EE007A1E
:10420000F8EEE88A9FED087A67EEA87ABDEC028B9B
:1042100067EE877AB6EE000A27EE800A08BD00BF77
:10422000AC000020F902154FC2F38E4D2DE9F04786
:104230002DED028BDFED917A90ED150A82B080EEC4
:10424000270A044606F034FFA56CFDEEC07A17EE8F
:10425000909A25B18A4B2A689A4200F0A780894B30
:10426000894A9B6B894900209847A56C4846FFF70F
:10427000ADFF94F84C3084ED100A002B40F099808B
:1042800094F84E60E84625B17D4B2A689A4200F0CA
:104290008B807C4B7C4A9B6B7C490020984794F830
:1042A0004D302674002B40F0B280B4F850A0A56CBD
:1042B0001DB1734B2A689A4273D0724B724A9B6B42
:1042C000724900209847A56CA4F80AA05046FFF751
:1042D0007DFF484684ED110AFFF778FFD4ED167A8A
:1042E000F4EEC07AF1EE10FA03DDBAF1000F40F0FF
:1042F0009B8001271DB1624B2A689A424FD0614BC7
:10430000614A9B6B614900209847A56C604B009304
:10431000781E0AFB00900128B8BF012040F2045328
:10432000A78180B2ADF80430FFF750FF013E18BFFF
:1043300001269FED587A584AB04418F8013B052BE6
:1043400002EB830194BFD1ED007AF0EE477AB4EE30
:10435000E70A0136F1EE10FAF6B202D4062EECD1DD
:1043600005231DB1464A2968914216D0454B464A5D
:104370009B6B46490020984794F85C304BB1A06C89
:104380009FED440A02B0BDEC028BBDE8F047FDF79B
:104390005FB994ED050AA06CF4E7AB74ECE72F81EC
:1043A000B4E7A5F80AA08FE7EE7478E7C5ED017AC7
:1043B0005CE73A4B0093484605238DF80430E84605
:1043C000FFF704FF364F9FED337A41460DF10500AC
:1043D000012611F8012B531EDBB2042B07EB8303DC
:1043E00098BFD3ED007AA2F1020388BFF0EE477ABE
:1043F000032B94BF77EEA77AF0EE477AF4EE407A7B
:10440000F1EE10FA98BF16468842E2D13BE7731EE0
:10441000DBB2042B02D94FF0010A48E7214A02EB34
:104420004303B3F8D0AB42E707EE10AA94ED156A48
:10443000DFED126AB8EE477A77EEC67A27EE267A73
:1044400087EE878AB0EE480A06F0D0FEDFED167AD6
:1044500070EE277AB4EEE78AF1EE10FAC4BFF7EEF9
:10446000007A30EE270AF7EE007A30EE270ABCEE2B
:10447000C00A10EE103A9FB23CE700BF0AD7233BB8
:104480000FB03713AC00002098170108B0170108CF
:10449000000102030000000044E4000801020304DC
:1044A00024E4000868D80008ACC5273738B5524B5B
:1044B00093F824200021012A83F8481000F08D8011
:1044C0005A6853210225CA20012483F8255083F815
:1044D000244050625162916821F480619160D168FA
:1044E000C9B261F49061D160D168490664D51F21D9
:1044F00051619168414821F0070141F00301916049
:10450000016841F480110160816841F4801181608B
:10451000916841F4804191609168FF2441F4806189
:1045200001209160546283F8250093F8481000221E
:1045300083F8242000295BD172B6BFF34F8FBFF3FD
:104540006F8F93F8482002B930BF62B6BFF34F8F28
:10455000BFF36F8F93F84820002AEDD093F8242002
:104560000021012A83F8481037D0586853220124CB
:104570000225CA2183F8255083F824404162426213
:10458000826822F480628260826822F480428260C3
:104590001C6804E01968091BB1F57A7F1FD8C2684E
:1045A00012F00402F6D0FF2401220021446283F8B5
:1045B000241083F8252038BD1C68D16811F004014F
:1045C00095D11868001BB0F57A7FF6D9FF24032037
:1045D000546283F8241083F8250004F033FEFF248E
:1045E0000321446283F8242083F8251004F02AFE76
:1045F00083F84820B9E700BFAC0000200004014068
:10460000154BDB68C3F3022310B4C3F107041A1D72
:10461000042C28BF0424062A4FF0FF3202FA04F2C9
:104620008CBF033B002321EA02019940431C0AD0BE
:1046300000F1604000F561400901C9B280F8001343
:104640005DF8044B7047044B0901C9B283F823108D
:104650005DF8044B704700BF00ED00E0F0B4056862
:10466000294F064601E0581C06D1EC6931EA0400E6
:10467000F9D10020F0BC70473868801A834227D3F4
:1046800033B328684407F0D5E8690005EDD54FF449
:1046900000632B6255E8003F23F4D07345E80032F5
:1046A000002AF7D1326802F1080353E8003F23F0F3
:1046B000010302F1080040E800310029F3D1202372
:1046C000B36786F87410F3670320C6F88030D1E72B
:1046D00055E8003F23F4D07345E80032002AF7D1B3
:1046E000326802F1080353E8003F23F0010302F1AE
:1046F000080040E800310029F3D12023B36786F891
:1047000074100320F367B5E7AC000020224A03468B
:104710000068904230B43BD8204A2149214C1C64A7
:104720000244A1FB0212120992005A64022283F889
:10473000252001689D68D3E9052421F4FF4121F07B
:1047400070012A430A43224342F08002B5F5804FAC
:10475000026014D0196C134A914208BF12495A6C76
:1047600018BF124902F01C000F240A68844022EA94
:1047700004020A605A680C68824022430A600020E2
:104780000122D86383F8240083F8252030BC7047C9
:10479000074A0349074CC2E707040240F8FFFDBF80
:1047A000CDCCCCCC00000240A8000240A8040240BE
:1047B000F8FBFDBF000402402DE9F047724CD4F82D
:1047C00070C088B0BCF1000F5CD1236DB3F5827F5F
:1047D00001D0C4F868C094F8A930E16C002203F05D
:1047E000FF056267002B59D0022384F8A9300B68BB
:1047F000A26D23F04003B2F5E06F0B6046D800F0E5
:10480000B9804FF4805700206067D4E91436E56D15
:10481000D4F864E006F4044603F48273334305F0ED
:1048200002052B43256E02F4706805F00105D4F8EB
:1048300080202B43D4E91A6502F0080242EA0802FC
:104840004FEA1E480EF4007E08F0040843EA0E0307
:1048500006F0380642EA0802334305F080050CF002
:10486000100C42EA0C0C2B4303434CEA07070020D0
:1048700001220B604F60C4F8AC0084F8A92008B096
:10488000BDE8F0870023C4E91733A4E7B2F5706FE1
:1048900076D1636F002703F40050B6E73B4B84F8F2
:1048A000A8509942CDE90355CDE9055507959BD10F
:1048B00003F560434FF0E00C1A6E354E42F480521F
:1048C0001A661A6E02F480520292029ADA6C42F070
:1048D0000102DA64DB6C059503F001030193032206
:1048E000052303A902274FF09040CDE903C7CDE986
:1048F0000623DDF804E004F047F9264BC4F8B8506D
:104900004FF001094FF0800A30464FF480784FF4A1
:104910008067C4E92C39C4E93355C4E930A8C4F828
:10492000BC50C4F8C870FFF7F1FE034650BB06F157
:1049300048051949C4F8A4601022643E2846C4E919
:10494000413AC4E94473C4F8FC90C4F80C81C4F83B
:104950001831C4F8D860C4F8F810C4F80021FFF783
:10496000D5FE78B9E16CD4F870C0C4F8A050C4F892
:10497000206139E7636F4FF4805703F4005044E738
:10498000002740E704F05EFCAC000020003001404E
:104990005C0100201C0002403000024070B54D4C0C
:1049A00094F881319EB0002B4BD0D4F84031D4F82C
:1049B0004421D4F84C01242184F88111196822F093
:1049C000706221F0010119601A619A68012822F4CD
:1049D00000429A60D4F848212FD042F404420228C1
:1049E0009A6004BF4FF400625A605968D4F8585175
:1049F000D4E9542641F0007141F40041596032433A
:104A0000D868D4F85C1142EA0522D4F8605120F449
:104A100000402943D860DA6019601A68002042F02B
:104A2000010220211A60C4F8840184F88111C4F8BD
:104A3000700184F882011EB070BD42F400429A6099
:104A4000D3E703F0FF055C2207A82946CDE902550C
:104A5000CDE9045584F88051069507F0C4FFD4F8D9
:104A600040311D4A9342A2D1802307A81495079391
:104A700003F024FF054650BB184E1948F36C43F071
:104A80000203F364F36C03F0020301934FF44063F9
:104A9000019A029312220123CDE903234FF0030C64
:104AA00002A90423CDE905C304F06EF8B36D43F405
:104AB0008003B365B36D03F480030093294621207E
:104AC000009BFFF79DFD212004F054F96DE704F0F1
:104AD000B9FB00BFAC0000200058004000100240AD
:104AE000000400482DE9F041654C94F82430012B76
:104AF00000F0C28061680122022384F8242084F837
:104B000025308E680278056A16F0400616BFC67812
:104B1000C670B605092A09D900230A3AD2B2092A71
:104B200003F10103F9D842EA0312D2B24378092B08
:104B30004FEA024209D900270A3BDBB2092B07F1F1
:104B40000107F9D843EA0713DBB290F802E0BEF19F
:104B5000090F4FEA03280DD90027AEF10A0E5FFABC
:104B60008EFEBEF1090F07F10107F6D84EEA071EC7
:104B70005FFA8EFE90F824C0BCF1090F0DD9002712
:104B8000ACF10A0C5FFA8CFCBCF1090F07F10107CC
:104B9000F6D84CEA071C5FFA8CFC436947681D4352
:104BA0002E43324348EA0203826AC669CA2553206B
:104BB0004D6243EA0E0E4862B2F5807F4EEA0C6306
:104BC0008A6846EA070639D022F400728A60CA6809
:104BD000D2B262F42072CA60256804E02068401BEB
:104BE000B0F57A7F20D8CA6812F00202F6D00B62C4
:104BF0008E648B6843F400738B608B6843F40053BE
:104C00008B60204B1A6842F480221A609A68FF2653
:104C100042F48022012500209A604E6284F824002C
:104C200084F82550BDE8F0810323FF2084F8242078
:104C30004862184684F82530BDE8F08122F480727D
:104C40008A60CA68D2B262F4C072CA60256804E0A1
:104C50002068401BB0F57A7FE6D8CA6812F00102DE
:104C6000F6D0CB614E648B6843F480738B608B68A5
:104C700043F480538B60C4E70220BDE8F08100BF9D
:104C8000AC0000200004014008B5114BDA6822F0A6
:104C90008002DA609A68920603D4FBF7BDFA88B9FD
:104CA00008BD9A6822F020029A60FBF7B5FA18B1A5
:104CB000084B032083F82500054A936843F020033E
:104CC000936008BD034B032083F8250008BD00BF97
:104CD00000280040AC0000200E494A68D06810F05F
:104CE000400001D0002070474FF0FF3330B4D36054
:104CF0000C68032509E003280AD00B681B1BB3F5D9
:104D00007A7F84BF81F825500320D3685B06F2D5F3
:104D100030BC7047AC0000201C4991F82430012BB6
:104D200032D030B44C68532301200225CA2281F8C6
:104D3000255081F8240062626362A36823F48073C3
:104D4000A360A36823F48053A360086804E00A68A2
:104D5000121AB2F57A7F0DD8E36813F00103F6D08A
:104D60000020FF220123626281F8240081F82530AF
:104D700030BC7047FF200322606281F8243081F844
:104D80002520104630BC704702207047AC00002040
:104D9000F0B4314B314E1B6A056882B000248DF8A7
:104DA00003403468376803EB8303C4F16404C3EB46
:104DB000C30322441B0D02FB03F30193AB681942AA
:104DC0000AD12CE0019C019B013B0193AB68002CB4
:104DD00008BF0022194222D0B1F5C06F05D12B7B4C
:104DE000DBB28DF803309DF803303368DB1B9A4249
:104DF000E8D86B68426823F0E003B2F5827F6B600D
:104E00001AD0836AB3F5005F0DD00122002380F829
:104E10005D2080F85C30032002B0F0BC70470020B9
:104E200002B0F0BC70472B6823F400532B602B6852
:104E300043F400532B60E8E78368B3F5004F02D0DA
:104E4000B3F5806FDDD12B6823F040032B60836ABC
:104E5000B3F5005FD9D1E6E700000020AC000020E8
:104E600070B4294D294B2A681B6A04682E68C2F168
:104E70006402114483B0C3F3CB3301FB03F301930A
:104E8000A3681A060DD52B689B1B8B420DD2019A85
:104E9000019B013B0193A368002A08BF00211B0668
:104EA000F1D4002003B070BC70476368426823F0FF
:104EB000E003B2F5827F636016D0836AB3F5005FCA
:104EC00009D00122002380F85D2080F85C300320A7
:104ED00003B070BC7047236823F400532360236839
:104EE00043F400532360ECE78368B3F5004F02D02E
:104EF000B3F5806FE1D1236823F040032360836A18
:104F0000B3F5005FDDD1E6E7AC0000200000002033
:104F1000024B034A9B6B034900201847AC0000205A
:104F20000022010810220108024B034A9B6B03492F
:104F300000201847AC00002024220108102201089C
:104F400010B1024B1B6B1847704700BFAC0000202C
:104F5000A0B110B50446C06D18B1FFF7F1FF0023F2
:104F6000E365206E18B1FFF7EBFF00232366606E48
:104F700018B1FFF7E5FF0023636610BD704700BF5F
:104F80002DE9F04107680446C7B1D7F8980080B111
:104F900000F14C0500F15C064FF0000855F8040BD9
:104FA00018B1FFF7CDFF45F8048CB542F6D1D7F81C
:104FB0009800FFF7C5FF3846FFF7C2FF2046BDE85F
:104FC000F041BDE710B520B10B4B02689A42044690
:104FD00007D00A4B0A4A9B6B0A49BDE810400020E3
:104FE000184700690023236008B1FFF7A9FF204696
:104FF000BDE81040A4E700BF0EB03713AC0000209E
:10500000FC1C0108141D010810B520B10C4B0268EE
:105010009A42044607D00B4B0B4A9B6B0B49BDE8E9
:10502000104000201847406818B1C3689847002313
:105030006360002323602046BDE8104080E700BF86
:105040000DB03713AC0000203C22010858220108A3
:105050002DE9F04F2DED108BB54CB648DFF82CB391
:10506000ADF55F7D0023A4F15801219307F076FE92
:105070000FCC0BF128050FC594E80300022285E848
:105080000300AD4B8BF84020AC49CBF84430F722FD
:105090006020FCF7D5FC002800F03481A84DA94918
:1050A0000123C0E90053814656225C20FCF7C8FC6E
:1050B000054638B1A44B40F8043B04F108015822DE
:1050C00007F0CCFDC9F8485028461021FCF7D6FA65
:1050D000D9F8483023B19C4A1968914200F0B28453
:1050E000DBF83830994A974900209847D9F84800AA
:1050F000974D934CFBF72EFA964A974BC9F8182018
:10510000C9F82830954AC9F82C2040F2011304222E
:10511000A9F84C30A9F81230482389F84E20A9F894
:1051200050308F4AC9F858204FF480731022A9F8E4
:105130005C300323A9F80820A9F80E300022894B1F
:1051400089F81120C9F814304FF07E524FF07C538B
:10515000C9F81C20C9F82030834A844BC9F82420A0
:10516000C9F830304FF08042814BC9F83C30C9F863
:105170005450C9F83450C9F838204846FFF756F85B
:10518000D9F80030A34200F0A483FFF7CDFED9F890
:105190000030A34200F09F83FFF7C6FED9F800302D
:1051A000A34200F09B83FFF7BFFED9F80030A34273
:1051B00000F09783FFF7B8FED9F80030A34200F063
:1051C0009383FFF7B1FE5E4BD9F800209A4200F0BE
:1051D0001E84FFF7A9FE5A4BD9F800209A4200F02E
:1051E0002784FFF7A1FE564CD9F80030A34200F007
:1051F0003D83FFF799FED9F80030A34200F03983D0
:10520000FFF792FED9F80030A34200F03583FFF794
:105210008BFED9F80030A34200F03183FFF784FE03
:10522000D9F80030A34200F02D83FFF77DFED9F8B6
:105230000030A34200F02983FFF776FED9F8003052
:10524000A34200F02583FFF76FFED9F80030A34298
:1052500000F02183FFF768FED9F80030A34200F088
:105260001D83FFF761FED9F80030A34200F01A83D6
:10527000FFF75AFE324CD9F80030A34200F01683F3
:10528000FFF752FED9F80030A34200F01283FFF777
:105290004BFED9F80030A34200F00E83FFF744FE26
:1052A000D9F80030A34200F00B83FFF73DFED9F898
:1052B0000030A34200F00783FFF736FED9F8003034
:1052C000A34200F00383FFF72FFEDFED2A6A9FED74
:1052D0002A7AC7EE267AFCEEE77ACBED657A04F0FF
:1052E00061FE174BD9F800209A4251D0FFF71CFEFF
:1052F000224807F01DFD002349461A46184603F0D0
:1053000045FD0DE0DBF838301D4A0C4998471D4833
:1053100007F00EFD1C4B4FF480529A62FFF7C6F85F
:1053200001200DF55F7DBDEC108BBDE8F08F00BF57
:10533000B4E400086422010800366E01102201085E
:1053400002B13713B01701080FB0371398170108CF
:105350009A99993E6666A63FCDCC4C3E9A99193EE5
:1053600000002040000040410000C04000002041FB
:105370000000A0400000000000007A444024010822
:1053800084220108A422010800040048AC00002087
:10539000824940F297123820FCF752FB82460028DF
:1053A00000F0F4837E4BCAF820904846CAF80030DB
:1053B000FEF73CFFD9F8480027A9FEF7F7FE0028C2
:1053C00000F04382279BD9F84800033323F00303FE
:1053D000CAF83030FCF724F90446002800F0C783EF
:1053E000704966221020FCF72BFB0546002800F0D0
:1053F000BE836D4B036094F84E30002B00F0CD83DC
:10540000B4F84830002B00F0C88368493D221020D2
:10541000FCF716FB654903463E22FC209846FCF744
:105420000FFB6249064643226020FCF709FB01237B
:105430000746B8F1000F00F0C583002E00F0C283CC
:1054400013B1002F00F0BE836DABC6F898701946FB
:10545000C8F8006020460693FEF78AFE002800F098
:10546000C383069BD6F89810DF895A8B1B8A079155
:105470005B00C6F8E8300023C6F89430A6F89C30EC
:1054800006F1F803C6F8843006F1F4033A44C6F88E
:10549000883006F1F60390B2C6F88C3006F1F002BF
:1054A00006F1F70337870A90A6F89E007262C6F8E5
:1054B000903039B106F1EC0C06F1F5034A62C1F8FF
:1054C00018C0CB65C6E936250A9BA6F8E43094F8E7
:1054D0004E2008920DF5ED7100232FA8944605E0AB
:1054E00031F8022B520820F813200133DAB2944528
:1054F000F6D8069AB4F84800D38A92F8341002918C
:105500003B44118B92ED0C8A0B909BB20491039358
:10551000002800F09585938BB3FBF0F30F93069A68
:10552000538A908A51885268B2673B44A6F87C300F
:105530001F4BB36406F13C0307441E4A1E481293F6
:10554000079BA6F87E70A6F8761003270F21C6E900
:10555000100286F87470A6F88010002B00F0D98530
:105560000023069A089F108952891192CDE93E3393
:10557000CDE94033CDE9423340A98C4610900DF57A
:10558000E972D8B2874240F2B98332F8020B21F8AF
:10559000020BD088C8800133F3E700BF1022010856
:1055A00001B13713582201080DB037131823010831
:1055B000DD050008D1050008F10600083068C36861
:1055C0009847CC4ACC4BC8F804200022C8E90223F3
:1055D000C5F80480AAF8062094F84E601346944655
:1055E0002FAF0AF10802D9B28E4240F2918437F807
:1055F0001300BAF8061011800144AAF806101081B1
:105600000133042B02F10202EDD1B4F84830BAF8AC
:1056100006208AED068A13FB02F3AAF80430029AE8
:10562000039B8AF81C20AB81049BEB81B349CAF829
:10563000285040F203126820FCF702FA04460028C2
:1056400000F06C84D9F84020D9F84430D9ED0D7AB7
:1056500099ED058AD9ED0F8AD9F81810B9F8080024
:10566000B9F80C50A262D9F81C20E362B9F80E30E8
:10567000638199F81130237399F812306373F5EE52
:10568000C07A99F81330A373F1EE10FA9C4B84EDB5
:10569000048AE080A5806161A261C4ED098A23606B
:1056A00040F3558468EE277ABFEE000A80EE270AA1
:1056B00005F00CFED9ED0E7A84ED070AF5EEC07AFE
:1056C000F1EE10FA40F3548468EE277ABFEE000A38
:1056D00080EE270A05F0FAFDB9F80A3084ED080AD1
:1056E000002B40F07F84F7EE007AB6EE007A77EE7A
:1056F000877AB5EEC08AFCEEE77AF1EE10FA17EE83
:10570000903A238140F2138499ED090AB5EEC00A5C
:10571000F1EE10FA00F10B8499ED0A9AB5EEC09AF9
:10572000F1EE10FA00F10384D9ED089AF5EEC09A73
:10573000F1EE10FA00F1FB8399ED0BAAB5EEC0AAC9
:10574000F1EE10FA00F1F383D9ED0CAAF5EEC0AA40
:10575000F1EE10FA00F1EB83F0EE480AFCF7B4FA30
:10576000F0EE480A84ED0C0AB0EE490AFCF7ACFAF8
:10577000F5EEC09AF1EE10FA84ED0D0A41F3F082D5
:1057800068EE299ABFEE000A80EE290A05F09EFD18
:10579000B5EEC0AAF1EE10FA84ED0E0A41F3E882EC
:1057A00028EE0AAABFEE000A80EE0A0A05F08EFD76
:1057B000F5EEC0AAF1EE10FA84ED0F0A41F3D4829F
:1057C00068EE2AAABFEE000A80EE2A0A05F07EFDE6
:1057D000F5EEC08AF1EE10FA84ED100A41F3CC82A6
:1057E00028EE288ABFEE000A80EE080A05F06EFD5A
:1057F0002C2042496F2200FB05F084ED110AFCF7D2
:105800001FF9A3883D49E06570229800FCF718F95C
:10581000A3882066394998007122FCF711F9E36DDD
:105820006066002B00F09783236E002B00F09383BB
:10583000002800F0908300230022A364E364236522
:10584000A265A4F85420CAF82C402E4BDAF80020A8
:105850009A4269D0FFF75CFB2B4807F069FA0023F6
:10586000494650461A4603F091FA59E5274BC9F8C4
:105870001430012389F85C30012389F85D3001235D
:1058800089F81230224BC9F81830224BC9F82C3055
:10589000214BC9F83430012389F813304FF07E537F
:1058A000C9F81C304FF07C53C9F820301B4BC9F8A5
:1058B00024301B4BC9F828304FF08043C9F83830EA
:1058C0000323A9F80E30002389F81130D9ED056AB9
:1058D000FDE4C9F85450134BC9F85830012389F836
:1058E0004D30012389F84C30D9F84800FAF732FEE0
:1058F00069E400BFA5050008814F00088023010866
:1059000003B1371301B13713682401080000404187
:105910006666A63F9A99193E9A99993E0000C04042
:10592000CDCC4C3E00002040DAF8203021A9986C04
:10593000FEF73CFC00288FD02198DAF820300330A5
:105940009B8920F0030000EBC300219007F0CCF905
:105950000390002800F00F81B04B4FF480529A6101
:10596000FEF7A4FDAE493B221420FCF769F8074678
:10597000002842D0AB4973224FF4FE70FCF760F868
:10598000002800F01A816DABA74C0126002598462F
:10599000A0F8C46180F8C6611A463861C7E90045BD
:1059A000BE607D7329463046ADF8B451FBF7D8FA96
:1059B000B8F80030CDF8188041F21022934245D05B
:1059C0009A4A9B49DBF838402846A0473846FFF7FB
:1059D000F9FA069C304622461C212580FBF7C0FAC6
:1059E00023881C0509D52F460020DBF83830914A62
:1059F0008B4998473846FFF7E5FA8F4807F098F942
:105A0000039B49465046002203F0C0F988E4D9F8C8
:105A100048301BB1894A1968914207D0DBF8383009
:105A2000874A884900209847FFF7D5BB20229A81F2
:105A3000D9F848001021FBF721FE1023A9F80830FF
:105A4000FFF7D1BB20229A81FFF750BB3046069E5C
:105A50001C2132463580FBF783FA318811F400614E
:105A6000C2D1B8680291FBF719FA0299B868FBF73E
:105A70003FFA07F10D050DF1F4083B68A3420FD082
:105A8000DBF83830704A6649002098476F4807F0C5
:105A90004FF9039B3A464946504603F077F93FE4F5
:105AA000CDF80080B868219A03992B46FCF736F9A7
:105AB0000028EBD07B7B0A2B04D0FAF789FB002867
:105AC000DBD1E3E7554C4FF48055A562FEF7EEFCC1
:105AD000A561FEF7EBFC5E4BDAF800209A4203D09A
