:020000040800F2
:1000000000000120F5E20008E1C90008DDC9000890
:10001000D9C90008D5C90008D1C9000800000000EE
:10002000000000000000000000000000C9C9000836
:10003000CDC9000800000000C5C90008B5C9000806
:1000400045E3000845E3000845E3000871C90008DE
:1000500045E3000845E3000845E3000845E30008E0
:1000600045E300085DC9000845E3000845E30008D2
:1000700051C9000845C9000845E3000845E30008E8
:1000800039C900082DC9000845E3000845E3000808
:1000900045E3000845E3000845E3000845E30008A0
:1000A00045E3000845E3000845E3000845E3000890
:1000B00045E30008000000000000000045E30008E0
:1000C00045E300080DC9000845E3000845E30008C2
:1000D00045E3000845E3000839C6000845E3000889
:1000E00025C6000825D1000800000000000000001F
:1000F0000000000000000000000000000000000000
:100100000000000045E300080000000045E300088F
:10011000000000000000000045E3000845E300087F
:1001200045E3000845E3000845E3000845E300080F
:1001300045E300080000000000000000000000008F
:1001400045E3000845E3000845E30008000000001F
:1001500045E3000845E3000845E3000845E30008DF
:1001600045E3000845E3000845E3000800000000FF
:1001700045E3000845E3000800000000000000001F
:1001800045E3000845E3000845E3000800000000DF
:1001900010B5054C237833B9044B13B10448AFF3C1
:1001A00000800123237010BD90000020000000009B
:1001B0001419010808B5034B1BB103490348AFF3F9
:1001C000008008BD00000000940000201419010800
:1001D0000F49104A086813691B0704D50D4B1869AD
:1001E000C0F3C00070470B681B1AB3F57A7FF5D2D5
:1001F00072B613691B0700D430BF62B6BFF36F8FAE
:1002000013691B07EFD5034B1869C0F3C000704793
:10021000AC0000200004004809494A68D36823F074
:10022000A003D360086804E00B681B1AB3F57A7F5B
:1002300004D8D3689B06F7D5002070470320704789
:10024000AC0000200288438843EA02430B607047F9
:10025000DFF880C02DE9F04F023802390CF1E209D5
:100260000CF1E40B4FF0000A40F6DE1830F8025FA4
:1002700031F8024FA54220D09CF800400BEBC4049B
:10028000658825B36768002607EB850E47F6FF757E
:1002900057F8044BA4B2A54228BF2546A64238BF52
:1002A0002646BE45F4D17600B6B26D00B24538BFE1
:1002B000B246ADB2A84528BFA8460CF1010CCC450A
:1002C000D4D1A2F80080A3F800A0BDE8F08F4FF6CB
:1002D000FE75EFE7301901082DE9F04F054687B0AC
:1002E000002405EB410E0290059210460491039301
:1002F000AEF1120EAA1E27460194A146A2464FF067
:10030000010C40F2EE2B14E0BAF1000F30D14B4556
:1003100035DD99460124019E7642B342BCBFA8EB6D
:10032000050301938F4238BF0F46964500F1020046
:100330002BD0558A32F8021F6B1A03F50046B6F52A
:10034000803F38BF038088462CBF4FF0000C1188D7
:100350005B45D9DC594E9945B8BF9946B342DADAC4
:10036000002C0ABF4FF0000CA2464FF0010AD2E762
:100370004B4506DD994654464FF0000CCBE701246F
:10038000C9E754464FF0000CC5E7BCF1000F05D19A
:100390004FF0000A504607B0BDE8F08F002CF7D0B0
:1003A000BAF1000FF4D0049A059E04970023CDF80B
:1003B0001490A2F11C0E123698469C461D461F460C
:1003C000994636F9023F03EB830203EB42033046C2
:1003D00031460A2231F902BD30F9024F02FB0B33DC
:1003E000A2F1020B013A0BFB0433F3D1634561DC4C
:1003F000434501DA9846A94601357545E1D14CF2ED
:1004000050339C4538464C46049FDDF81490BFDDC0
:100410002B4B9845BCDAB9F1000FB9D0019B002BEA
:10042000B6D0029B11991B88FF00DB0041B1BB4293
:1004300004D2DA434A443A44B2FBF9F211990A6011
:10044000109A002AA6D0039A002AA3D00246029945
:100450000E3231F81210B3EBC10F4FEAC10005D2D2
:10046000DB434B440344B3FBF9F3D21A029B04F180
:100470000E0933F81930B7EBC30F4FEAC30107D9A0
:100480000198431E3B445B1AB3FBF0F3A9EB03094D
:10049000002AFFF67DAFB9F1000FFFF679AF4A45AC
:1004A0003FF776AF109BA9EB0209C3F80090039BBE
:1004B0001A606FE79C462F469EE700BF12FDFFFFC4
:1004C000B03CFFFF704700BF70B4124E124D00F1F8
:1004D000BC04002143680B44024640F8043F126804
:1004E0009A1AB24209DD50F8042CA3F5C9237E3BC9
:1004F000A1F5C92103607E399A1AAA4206DA03F5EA
:10050000C9237E3301F5C92103607E318442E1D1E4
:1005100070BC70473F240300C1DBFCFF0138C0B250
:1005200004289DBF034B03EB800090ED000A9FED74
:10053000020A7047A42101080000000070B10128E0
:1005400009D008B5074B084A9B6B0849002098471B
:100550009FED070A08BDB0EE000A7047B1EE000A31
:10056000704700BFAC000020CC580108E4580108D7
:100570000000000007EE900ADFED1A6A9FED1A7A7C
:10058000F8EEE77A67EEA67AF4EEC77AF1EE10FAA3
:1005900001D5012908D09FED157AF4EEC77AF1EE66
:1005A00010FA03D50120704700207047B1EE0C7A95
:1005B000F4EEC77AF1EE10FA01D5022070479FEDF4
:1005C0000C7AF4EEC77AF1EE10FA09D49FED097AAD
:1005D000F4EEC77AF1EE10FA4CBF04200520704704
:1005E000032070470AD7233B666646403333A34057
:1005F00033334B4100009441D0ED017AF5EEC07ADF
:10060000F1EE10FA10B504465CD40120D4ED027A64
:10061000F5EEC07AF1EE10FA08D52E4B2E4A9B6B00
:100620002E4900209847D4ED027A002094ED017AFB
:10063000B4EEE77AF1EE10FA08DD264B284A9B6B00
:10064000264900209847D4ED027A0020B3EE077ABD
:10065000F4EEC77AF1EE10FA06DD1E4B214A9B6BD1
:100660001E49002098470020D4ED047ABAEE047A9F
:10067000F4EEC77AF1EE10FA1CD49FED1B7AF4EE7B
:10068000C77AF1EE10FA15DCD4ED097AF5EEC07AEE
:10069000F1EE10FA06D4B7EE007AF4EEC77AF1EE76
:1006A00010FA06DD0B4B114A9B6B0C490020984752
:1006B000002010BD074B0E4A9B6B0849002098474D
:1006C0000020E1E7034B0B4A9B6B0449002098474D
:1006D00000209BE7AC0000203C5901081859010894
:1006E000545901087059010800000C42C45901080E
:1006F00098590108FC58010808B5FFF70FFF9FED56
:100700001A7AC0EE077AB5EE007A67EE877AFCEEC9
:10071000E77A17EE903A98B211B1884228BF08469E
:10072000182817D8A0B11822B2FBF0F300FB03F38E
:10073000D31A9BB243B90CE0B2FBF0F300FB03F316
:10074000C3F118039BB223B1013880B20028F3D162
:10075000012008BD054BA3FB0030000900EB400061
:10076000C00080B208BD00BF0AD7233BABAAAAAA2B
:100770000379022B30B413D1D0F89850D0F8A440AC
:10078000D0F8C820D0F8D4300D440C440A440B44AF
:10079000C0F89C50C0F8A840C0F8CC20C0F8D830B1
:1007A00043794BB9D0F8B030D0F8BC200B44114499
:1007B000C0F8B430C0F8C01030BC704708B518B1EC
:1007C000064B02689A4207D0054B064A9B6B0649C6
:1007D00000209847002008BD407908BDE1AFA10F77
:1007E000AC000020F4590108105A010808B518B1EE
:1007F000094B02689A4207D0084B094A9B6B09498A
:1008000000209847002008BD0079A0F10200B0FA4E
:1008100080F0400908BD00BFE1AFA10FAC0000208F
:10082000F4590108105A01082DE9F04FB1F1010AFD
:1008300085B043D04FF0000984469046CE466E46C0
:10084000BAEB0E0E33D000252F4618E0B4EEE66A60
:10085000F1EE10FA4CBF012300230135ADB22F4653
:100860005BB19BE80F0086E80F0094E80F008BE86F
:100870000F0096E80F0084E80F00754517D20CEBC7
:1008800007140CEB071B10349BED007A9BED026AFA
:10089000D4ED007AD4ED026AB8F1000FD6D1B4EEEF
:1008A000E77AF1EE10FACCBF01230023D5E709F176
:1008B00001091FFA89F9D145CE46C1D305B0BDE87B
:1008C000F08F00BF5FEA510C1DD0F0B40CF1FF3C7B
:1008D0001FFA8CF3013900F1080C0CEBC30C8AB23F
:1008E000034600EBC2011D680F684E685C6843F860
:1008F000087B013A634543F8046C92B20D604C608A
:10090000EFD1F0BC70477047F0B4BDF9104005EE70
:10091000104ABDF81440002B7BD05E1EB6B204EE28
:10092000104A02EB46064F1E023ADDE90641F7EE99
:10093000004AFEEE003A0DE0F8EEC57A67EE807AE6
:10094000C4ED007A03680B60B24204F1040401F1C3
:1009500004015ED032F8023F002BEDD05D1CBB429B
:1009600000EB8505F0D207EE903A15ED026AD5ED61
:10097000005A55ED016AF8EE677A35EEE67A37EE01
:10098000E43A76EE655A76EEC66A65EEA75A77EED9
:10099000A42A27EE037A77EEA77A37EE257A62EE5D
:1009A000A65A77EEE47A37EE257AF8EE445A27EE27
:1009B000237AB24267EE877A37EE072A76EEE77A35
:1009C00063EE076AF1EE671AC1EE822A04F10404AD
:1009D00001F1040166EE836A27EE227A36EE666A3A
:1009E00023EE273A27EE227A65EEA26A67EEA27A14
:1009F000F8EEC55A77EE277A36EE436A36EEA57AD8
:100A000076EE277A27EE007A04ED017A41ED017A3D
:100A1000A0D1F0BC704700BF07EE900ADFED196A65
:100A20009FED197AF8EE677A67EEA67AF4EEC77A48
:100A3000F1EE10FA01DC02207047F5EE006A60EE7C
:100A4000266AB7EE006A86EEA77AB4EEC67AF1EEB1
:100A500010FA15DDBCEEC77A17EE103A9BB2B1EE74
:100A6000007A20EE070AB6EE007A20EE070A80EE42
:100A7000277AFCEEC77A17EE900A184480B27047C6
:100A80000123ECE70AD7233BACC52737431EDBB273
:100A9000042B10B5044697BF1448DFED155A00EB40
:100AA0008303D3ED005A032A02D0B0EE650A10BDCD
:100AB0002046FFF721FE02462046FFF72FFD104695
:100AC000FFF7AAFF07EE902ADFED0A6A07EE100A89
:100AD000F8EE677AB8EE477A67EEA67A67EE877A1D
:100AE00075EEA75AB0EE650A10BD00BFB821010827
:100AF000000000000AD7233B10B582B0027D818937
:100B000001920446807BFFF7C1FF019A0120B0EEFD
:100B1000405AFFF7BBFFD4ED027AF4EEC07AF1EE53
:100B200010FA02DC94F8283053B9D4ED017AF4EECF
:100B3000C57AF1EE10FA4CBF0120002002B010BDC2
:100B40000020FBE700B583B0019119B9012003B083
:100B50005DF804FBFFF7E2FCDDED017A9FED077A1B
:100B6000F8EE677A67EE877A80EE277ABCEEC77A6E
:100B700017EE103A98B203B05DF804FB0AD7233B96
:100B8000F8B51E4607460D46FFF7DCFF11FB00F4E3
:100B9000A4B20AB16400A4B2032E01D02046F8BD6D
:100BA0003846FFF7BBFC2846FFF736FF15FB004031
:100BB00084B22046F8BD00BF91ED007A92ED006A44
:100BC000D2ED016AD1ED014A67EE065A26EE244ABB
:100BD00067EE267A66EEA44A002B42D0013B9BB218
:100BE0002DED028BD0ED001A90ED012AD0ED022AF6
:100BF00090ED033AD0ED043A02EBC30304E0D2EDEA
:100C0000036A92ED026A083221EE865A21EEA67A34
:100C100035EE255A37EE277A62EE065A62EE267ACC
:100C200075EE845A77EEA47A23EE058A23EE850AC0
:100C300022EE866A63EE070A23EE871A62EEA66A40
:100C40009A4275EEC85A36EE404A77EEE07A76EE72
:100C5000C14A82ED005A82ED017AD0D1BDEC028BFF
:100C600070477047024B034A9B6B034900201847AB
:100C7000AC0000202C5A0108485A010838B520B1B0
:100C80000E4B02689A42054603D0FFF7EBFF0020A7
:100C900038BDB0F84430002BF9D0002403E0B5F89B
:100CA00044309342F3D9A3B20233013455F8230000
:100CB000FFF79CFDA2B20028F1D038BD52D1C0ACE4
:100CC000024B034A9B6B034900201847AC000020ED
:100CD000685A0108805A0108024B034A9B6B03497A
:100CE00000201847AC000020945A0108805A0108DF
:100CF00008B518B1064B02689A4203D0FFF7E0FF2F
:100D0000002008BDC06D003818BF012008BD00BF1D
:100D100030D1C0AC08B518B1064B02689A4203D076
:100D2000FFF7CEFF002008BD806D003818BF0120FE
:100D300008BD00BF30D1C0AC08B590F8403013B941
:100D4000BDE80840D4E7FFF7E5FF80F00100C0B23E
:100D500008BD00BF10B518B1084B04689C4203D011
:100D6000FFF7AEFF002010BD8368046923440B60C9
:100D7000036B816B0B441360012010BD30D1C0ACFC
:100D8000836910B50446BBB10D4B93F840204AB9B6
:100D900063697BB10A4B0B4A9B6B0B490020984758
:100DA000002010BD9B6B094A0749012098476369E1
:100DB000002BEFD1012010BDC369002BE4D1E7E780
:100DC000AC000020E45A0108C85A0108AC5A0108D6
:100DD000D0E90F23816B0069184700BF0068836862
:100DE000184700BFFAE700BF70B40169B0F84220AD
:100DF00090F8383031F81220032B08BF82F40042FB
:100E000040F2E51303FB02F31B0C826CA3F589731C
:100E10009BB21380828F31F812204AB1B0F8402083
:100E200031F81220012A03D9C26C0124147002E0A7
:100E3000C26C00241470C48F428F31F8145031F802
:100E40001240B0F9441040F2E51202FB05F2120C18
:100E5000C2F5897213441BB2002BB8BF5B42D0E9C4
:100E600014651BB2A4F1010200689942B2FA82F241
:100E70004FEA5212ACBF00230123327042682B703C
:100E800070BC104770B50446806978B1E36943B11E
:100E90000F4B93F8402022B19B6B0E4A0E49012064
:100EA00098472068BDE8704083681847084D0B4A92
:100EB000AB6B09499847E3693BB195F8403023B1E2
:100EC000AB6B044A044901209847002070BD00BF65
:100ED000AC000020385B0108285B01080C5B0108AE
:100EE0000068C368184700BFFAE700BFF8E700BF13
:100EF0002DE9F047C26DD0F8188006690023A8F8E4
:100F0000023004461D46137000F14C07994657F80D
:100F1000043B03B3B3F838C0B3F89000B3F89210B1
:100F2000B3F8D82006EB400006EB410106EB420285
:100F300006EB4C0CC3E91301C3F8A420C3F814C09A
:100F400088F800501868D3F8DC20416883F8E490F2
:100F5000C3F8E02088470135EDB2042DD7D12068D1
:100F6000BDE8F04743681847704700BF704700BFAF
:100F7000704700BF704700BF52B101EB82020438D6
:100F800050F8043F4B801B0C0B8004319142F7D189
:100F9000704700BF30B583B000EB42000D4601A999
:100FA0001C46FFF74FF9019A22F00F0204B12A43C1
:100FB0000092014601226846FFF7DEFF03B030BD14
:100FC0002DE9F04F87B0BDF84070DDF844A003EB89
:100FD000C7077B8883B381460E4601EB02080025D4
:100FE0004FF0010B7A6852F82540620092B2B2428B
:100FF000C4F301701DD342451BDA01280CD002282E
:1010000036D0E8B1324B334A9B6B334900209847C6
:10101000002007B0BDE8F08FBAF10003A2EB060292
:1010200018BF012392B2C4F303414846FFF7B2FF51
:101030007B880135AB42D5D8012007B0BDE8F08FE1
:10104000C4F344530BFA03FC921BE24591B21ED346
:101050000CF1FF331E4A0193CDF800A0946B1F4A98
:1010600003900B461C49A047039807B0BDE8F08FDA
:10107000921BBAFA8AF35B0992B2C4F30341484661
:10108000FFF788FF7B880135AB42ABD8D4E709EB8B
:10109000410004A90393FFF7D5F8039B4FF0FF32FB
:1010A000C3F12003C4F3044422FA03F3049AA340D7
:1010B00022EA03020AFA04F40146144305A80122B5
:1010C0000594FFF759FF7B880135AB428AD8B3E717
:1010D000AC0000208C5B0108805B0108485B0108C4
:1010E0002DE9F04FC2F51D669A461B68164C0E3668
:1010F000B34298BF9EB2154B054688BFB6B25008A2
:1011000003EB800083B0174672088846023DFFF764
:1011100033FF04F1E10904F1E40B7D2301E014F84D
:10112000013F35F8022F3946CDE9003240465B4693
:101130003246FFF745FF4C4501D00028EFD1CAF8F1
:10114000006003B0BDE8F08F30190108FC2C0108E5
:1011500000230138C1E90133CB6004282ED8DFE831
:1011600000F00C1625290300174B184A00200870C0
:10117000C1E90533CA6101207047154B00220A708E
:101180004FF48022C1E90533CA610120704730B4B1
:10119000104B114CCC6101209625FA22CD60C1E99B
:1011A000012230BCC1E90533087070470B4B0C4A73
:1011B0000020DCE70B4B0C4A0020D8E70020C1E9F7
:1011C00005000870C8617047080005000B000200A8
:1011D00002000100080001000200030008000200F4
:1011E0000400020008000300060002002DE9F04F91
:1011F0001E4EDFF88480814615460FCE91B002ACBA
:101200000FC40FCE0FC40FCE0FC496E8030098F89A
:101210004030012B84E8030007D9D8F83840144A3D
:10122000144900954B460220A047DFF850B0DFF884
:1012300044A002AC10AE02E00834B44213D0A3883C
:101240001D42F9D098F84030012B5A464B46514682
:101250004FF00200F0D9276800970834D8F83870AA
:10126000B847B442EBD111B0BDE8F08FCC210108F2
:101270001C5C0108385C0108AC0000204C5C0108D3
:1012800030B50A4C94F84050012D85B00BD9CDE90A
:1012900001120346A1F58C7080B20090A46B044A41
:1012A00004490220A04705B030BD00BFAC000020BB
:1012B000605C0108385C010830B50346A1F16204A6
:1012C000104814F0010FA5B285B090F840400CD141
:1012D000012C08D9CDE901126D080095846B0A4AEA
:1012E0000A490220A04705B030BD012CFBD9CDE949
:1012F00001126D080095846B054A04490220A0473D
:1013000005B030BDAC000020885C0108385C0108E5
:10131000C05C010830B5094C94F84050012D83B0F1
:1013200009D97D3989B2CDE900120346A46B044A7C
:1013300004490220A04703B030BD00BFAC0000202C
:10134000F85C0108385C010810B5084991F8404084
:10135000012C82B008D902F00F0200928C6B044A73
:10136000044903460220A04702B010BDAC00002093
:10137000285D0108385C010830B5094C94F84050EC
:10138000012D83B009D92C3989B2CDE90012034669
:10139000A46B044A04490220A04703B030BD00BF3B
:1013A000AC000020485D0108385C010830B50C4CE9
:1013B00094F84050012D83B010D91146094DA46B0B
:1013C000094A11F4006F03460848C1F30A0118BF27
:1013D0002846CDE9000106490220A04703B030BDF0
:1013E000AC000020785D0108805D0108705D010897
:1013F000385C010810B4084C248D490864088C42FC
:1014000028BF0C46023C24F00104043010601C602C
:101410005DF8044B704700BFAC000020F8B50688AB
:10142000002A14BF4FF480524FF40052B6F59C6F5F
:1014300038BF4FF49C66B24205460F461C4623D285
:10144000134B144A9B6B1449002098474FF0000E31
:101450001249134A134BE360C4E901120FCD203641
:1014600076004FF0000CA4F802C004F1300C24F810
:10147000106B0FC495E80F0007C497E803002380A2
:101480008CE803007046F8BD4FF0010EE0E700BFA6
:10149000AC000020945D0108B45D01080100020069
:1014A00003001B001C0020000368D0F8E820C0F8EF
:1014B000F0205A681846104738B5064DEB6A984731
:1014C000044608B1204638BDAB6B034A0349984730
:1014D000204638BDAC000020C85D0108D85D010879
:1014E000DFF864C02DE9F047DCF83C501DB12B4615
:1014F000BDE8F047184712B35200A1F10208A2F16B
:1015000002090E469A4607464944444634F8025FAB
:101510006DBA8C422580F9D1DCF83440384631462A
:10152000A047BAF1000F01D1BDE8F0874E4438F86A
:10153000023F5BBAB045A8F80030F8D1F4E7BDE847
:10154000F047DCF834301847AC00002070B50125B6
:1015500084B041F4A0430446164603A92A4601A8D4
:10156000ADF808300196ADF80A50FFF705FD2046AA
:1015700002A900230422FFF7B3FF04B070BD00BF2F
:101580002DE9F04782B01D4643F44053BDF8284092
:10159000ADF8003000278A469146694601230322B0
:1015A0008046ADF80270ADF80470FFF799FFBDF901
:1015B000046004FA0AF1714001EA090445F4805517
:1015C00040463B46694674400222ADF80050ADF8F3
:1015D0000240FFF785FF02B0BDE8F08730B583B069
:1015E0000025294600957B23FF220446FFF7C8FF0C
:1015F0000121204600918B230222FFF7C1FF0095B5
:1016000020468B2380220721FFF7BAFF03B030BDAD
:1016100030B583B041F4805415460023022201A95D
:10162000ADF80440ADF80650FFF75AFF03B030BDE7
:1016300070B582B003220E4600210D46044600928A
:1016400040F24913FFF79CFF204640F24913042261
:1016500002210095FFF794FF204640F24913102223
:1016600004210095FFF78CFF204640F24913202209
:1016700005210095FFF784FF0095204640F24913AD
:101680004FF47F520621FFF77BFF0EB902B070BD09
:1016900020464AF6C042312102B0BDE87040B7E7AB
:1016A000F0B40C4D2F8D9E1CB7EB460F05D2AB6BE3
:1016B000094A0A49F0BC00201847144641F4A041E9
:1016C000013B11805380214626F000420023F0BCEC
:1016D00006E700BFAC000020E85D0108085E0108D5
:1016E0002DE9F04F02EB420C00EB8C0C8DB0002684
:1016F0008346824680466746B14603A84FEA89057D
:1017000086469FED577A43466AB19C192C44D4ED26
:10171000007A1C46D4ED006A0C3367EEA67ABB4211
:1017200037EE277AF1D104350C2DAEEC017AE8D1F1
:1017300009F10109B9F1030F00F1100008F10408E3
:10174000A6F1040607F10407D8D19DED046ADDED8A
:10175000055ADDED086A68460BF10C04DFED407AAE
:1017600053463AB11D4695ED007A0C33634577EE4A
:10177000877AF7D10AF1040AA245E0EC017A0CF16C
:10178000040CEBD1DDED037AF5EE407AF1EE10FAC0
:1017900010D0B7EE007A87EE274ADDED077A66EEC5
:1017A000044A26EE245A77EEC57AF5EE407AF1EE39
:1017B00010FA06D100200023CBF800300DB0BDE8B0
:1017C000F08FC7EE272A65EE843A25EEA47A66EEFE
:1017D000237A9DED0B5A76EEE77A36EEC77A67EEFE
:1017E000A27A65EEA36A75EE666A27EE275A76EE50
:1017F000C56AF5EE406AF1EE10FADBD09DED005AB5
:101800009DED013A9DED022A64EE854A63EE853A2C
:1018100073EE644A012067EEA47A002372EE677AC1
:1018200077EEE33AC3EEA67A27EE277AC1ED027A85
:1018300034EEC77A65EEA75A67EE227A26EE276A5B
:10184000C1ED017A35EE466A76EE655A25EE844A98
:1018500081ED004ACBF800300DB0BDE8F08F00BF3D
:10186000000000000028B8BF404270B4BABF00B208
:101870000124002400293FDB884238DB0022034694
:1018800068B30846002643F628450004B0FBF3F190
:10189000A9424AD946F2D633994236D948F672035C
:1018A000994244D94AF64943994242D94DF2A30399
:1018B000994240D94FF24B73994298BF052025D9E0
:1018C0004FF24C7548F233234CF2A340491B03FB03
:1018D00001F100EB114016B1C0F5C9301F3014B151
:1018E000C0F549303F3002B1404270BC70470B46F2
:1018F000C1B912480A46F2E7494209B288424FF09C
:101900000102BCDA0B461646BDE701200C4B03EB87
:10191000C00503EB8003D5F8D808D3F80C39D5F807
:10192000D458D3E700220126ADE70020EEE70220DD
:10193000ECE70320EAE70420E8E700BF1F9201007C
:101940003019010870B584B020B1234B02689A4267
:10195000044608D0214B224A9B6B2249002098471D
:10196000002004B070BD032200210E468068009262
:1019700040F2491301250390FFF702FE03980096F9
:1019800040F2491304220221FFF7FAFD0398009563
:1019900040F2491310220421FFF7F2FD039800954D
:1019A00040F2491320220521FFF7EAFDFF230398A7
:1019B00000934FF47F5240F249130621FFF7E0FDF8
:1019C000039800952A46314640F24B13FFF7D8FDA5
:1019D0002846267304B070BD0EB03713AC0000204B
:1019E0001C5E0108345E010838B5524B93F8242080
:1019F0000021012A83F8411000F08D805A6853219C
:101A00000225CA20012483F8255083F8244050621F
:101A10005162916821F480619160D168C9B261F42A
:101A20009061D160D168490664D51F2151619168E8
:101A3000414821F0070141F003019160016841F440
:101A400080110160816841F480118160916841F4E6
:101A5000804191609168FF2441F480610120916090
:101A6000546283F8250093F84110002283F8242063
:101A700000295BD172B6BFF34F8FBFF36F8F93F81E
:101A8000412002B930BF62B6BFF34F8FBFF36F8FF3
:101A900093F84120002AEDD093F824200021012A58
:101AA00083F8411037D05868532201240225CA21F7
:101AB00083F8255083F8244041624262826822F410
:101AC00080628260826822F4804282601C6804E046
:101AD0001968091BB1F57A7F1FD8C26812F0040299
:101AE000F6D0FF2401220021446283F8241083F8F9
:101AF000252038BD1C68D16811F0040195D1186803
:101B0000001BB0F57A7FF6D9FF240320546283F8D6
:101B1000241083F825000AF09BFFFF240321446270
:101B200083F8242083F825100AF092FF83F84120DF
:101B3000B9E700BFAC000020000401402DE9F04FE0
:101B40002DED0C8B8246A5B090F84E4090F84C00DD
:101B50000D90042CBAF848000A90089190469946D6
:101B60001AD8DAED107AF5EEC07AF1EE10FA00F13B
:101B7000EF819AF85630DFF8C0B0002B00F0F18109
:101B80009AF84B30002B00F0EC81274ADBF8383014
:101B900026490020984707E0DFF89CB0244ADBF88C
:101BA0003830224900209847DAED117A9BED117AFE
:101BB000F5EEC07AF1EE10FAB8EE478A40DDC8EED5
:101BC000278AF6EE007A78EEA78A0A9B002B3CD192
:101BD00007939AF84A300193002B3ED19AF850307F
:101BE000022B41F023819AF84E40012C00F0C7826D
:101BF00000243A9A019B1471A8F8AC41002B32D012
:101C00009AF84F30012B00F04587022B00F0318706
:101C1000002B00F04D87DBF83830064A03490020DE
:101C20009847002301931EE0805E0108585E01087A
:101C30003C5E01083C5F0108AC0000200000000091
:101C40000A9B5FED028A002BC2D09AF84E300793B0
:101C50009AF84A300193002BC0D03A9A00231371AE
:101C60000193A8F8AC31089C002C4AD02389B4F821
:101C70008210B4F88020B4F87E00A8F804109B000D
:101C8000B4F88410A8F802209BB203F13002A8F83F
:101C900000006088A8F80610A188A8F8080092B291
:101CA000E088A8F80A106189A8F80C005F2A208C47
:101CB000A8F80E10618CA8F81210A8F8100040F2D5
:101CC0002582C949A1FB0201890901EB4101A2EB6F
:101CD000411189B200201A4605460B460121032412
:101CE000A8F814300023A8F81620A8F81810A8F8AF
:101CF0001C50A8F81E00A8F82010A8F81A40A8F850
:101D00002230019900220123A9F80220A9F80C2011
:101D1000A9F80A30002901F0508015460692049275
:101D200009F10E0308F13E029FEDB0AADFEDB0AA63
:101D3000DFEDB09A9FEDB09ACDF808A0564608F1B5
:101D4000460709929A46CDF81480CDF80CB0079A50
:101D5000EBB29A4200F25C81099A0023AAF80030A3
:101D6000AAF8083022F815300135042D0AF1020ACC
:101D700006F1100607F15607E9D10A9AB9F80C10D6
:101D8000B9F80A30DDF81480DDF80CB0DDF808A0F1
:101D900011FB02F189B20B449BB2BDF818200292EC
:101DA0005F1CBFB2B8F8ACC1BCF1010F04D1049AFA
:101DB0000A9800FB02F204929AF85220BAF85400F2
:101DC0009AF853509AF85640A8F89E21049A4FF674
:101DD000FF7E72454FEA500628BF72460338A8F8C6
:101DE000A801033E0298A8F8AA6185F0010592B205
:101DF000A8F8A651A8F8A001A8F8A421A9F80C10E9
:101E0000A9F80430A9F80670002C00F05E81413377
:101E10004021A9F80030A9F808100124089BA8F86F
:101E2000C04113B19B89A8F8C231019B002B40F03F
:101E300057813A9ADAED105A002313600D9BA8F8E7
:101E4000B2310A9B012B40F24581BAF84830012299
:101E5000023BA8F8AE31A8F8B0219FED687A9FED5B
:101E6000686A28EE077AF1EE007A68EE277AC7EE04
:101E7000066A87EE867AC8EE067AB6EE006A76EED5
:101E8000866A37EE067AFCEEE66A77EE867ABCEE74
:101E9000C77A16EE903AF5EE405A17EE102AF1EE98
:101EA00010FAFCEEE77AA8F8B83114BF012300233A
:101EB000A8F8B621A8F8383017EE902A019BA8F8A8
:101EC000B421002B00F0ED80F5EE405AF1EE10FA4F
:101ED0000CD0C8EE257A37EE866AFCEEC67A17EE8D
:101EE000903A1A0CA8F83C30A8F83A20DAED117AAA
:101EF0009AF84A309AF84B20A8F83030F5EE407A3C
:101F0000F1EE10FA14BF01230023A8F83220A8F83C
:101F10002A3008D0FCEEE87A17EE903A1A0CA8F8AE
:101F20002E30A8F82C209AF851300198A8F8BE312C
:101F3000012140F2FF7240F60103A8F82410A8F82E
:101F4000BA21A8F8BC3125B0BDEC0C8BBDE8F08FF0
:101F5000DFF8B8B02B4ADBF838302B49002098471F
:101F600022E69AED117ADBED116AB5EEC07AF1EE58
:101F700010FAB8EE668A16DDC8EE078AF6EE007A29
:101F800078EEA78A00F1F48018EE900A0BF076FA4A
:101F9000012908BF002880F0EB809AF84A30002B16
:101FA00040F0DD8008E000F1E1809AF84A30002B33
:101FB00040F0C880DFED0F8A9AF84F109AF8502051
:101FC0000A98002814BF204600209142079000F292
:101FD0007D83002B40F03687022A00F02F873A9A43
:101FE0001371A8F8AC310BE6ABAAAAAA2549123E98
:101FF000CDCC4C3E000000008FC2753D00009643E2
:10200000002474496C5E0108585E0108AC00002091
:10201000099A012322F81530029B328993F84C303B
:102020000B93184640F2FF1140F2FF33002818BF0F
:102030000B46C2B19A4216D8737B002B6AD1F37B50
:10204000B07B002840F06982012B00F0AF80DDF802
:102050000CB04E4ADBF838304D49DDF808A0DDF809
:10206000148098470BE0DDF80CB04A4ADBF83830B2
:102070004749DDF808A0DDF81480002098470A9A47
:10208000B9F80C10B9F80A3011FB02F189B20B440F
:10209000BDF8182002929BB25F1C0022BFB20192D1
:1020A00080E6DAED117A9AF84A309AF84B20A8F8CF
:1020B0003030F5EE407AF1EE10FA14BF0123002320
:1020C000A8F83220A8F82A302DE7A9F80840A9F886
:1020D0000070A3E60023A8F8AE31A8F8B031BCE642
:1020E0009AF84D10072925D82B4BDFED2C9A0B447D
:1020F00093F84C39A8F8A2313A9BC3ED009A079B9C
:10210000002B40F0E283DAED105A97E60320012518
:102110000021E4E5F37B022B92D1DDF80CB0204ADC
:10212000DBF838301A49DDF808A0DDF8148000200B
:102130009847A4E73A9ADAED105A00231360002377
:1021400001937BE6B5EE407AF1EE10FA05D1F5EE9B
:10215000407AF1EE10FA40F01B85DFED108ADBF8D3
:102160003830104A0A49002098472EE5DFED0B8AE7
:10217000DBF838300C4A06490020984725E59AF8E4
:102180000F30013B012B3FF634AD31E5B85F01085C
:10219000585E01087C5F010830190108000000004A
:1021A0008C5F0108C05E0108AC5E0108BB4BB6F84D
:1021B0000680B6F804B003EB8000B8F1180FD0F831
:1021C00028390E9340F2B28208EB880303EB031325
:1021D00003EB032308EB4303C3F3CC0242EA43338C
:1021E0009BB240F6AA22934200F25E82AC4BA3FB64
:1021F00008231B090F93013B9BB215935C2311939A
:1022000018230C93BBF1000F40F0AB82039BA54A4F
:102210009B6BA549584698470B9B002B00F05482B6
:1022200000230B93022233680E99194401F5C3432E
:102230000C461BFB02F228334CF250310BF1FF30FD
:1022400092B28B420E9208FB004807D9039B974A33
:102250009B6B95490020984700230B9308F5C343D7
:1022600028334CF25032934207D9039B904A9B6B20
:102270008D490020984700230B93002CC0F21A834D
:102280008C4BE11783FB043BC1EBAB0B0FFA8BFBD1
:10229000B8F1000FC0F20383864B83FB08304FEA8E
:1022A000E873C3EBA00000B2824A1FFA8BFB82FBEB
:1022B000042CA0EB0B00C1EBAC010F9A1FFA80FCC1
:1022C00001EB4101BCFBF2F201321FFA82FEB4EBDA
:1022D000C10102B216924FF018000C9AB0FBF2F056
:1022E00000F1D6820FFA81FC89B2724A82FB08247F
:1022F0000C9AC3EBA40303EB4303B1FBF2F402FB20
:102300001414A2B2B8EBC3030F9200F1BB821AB24D
:1023100019929BB2013882B20F9C0C981A9212FB50
:102320000040BEF1010F80B200F0EC81C41A0F9B97
:1023300018BF01248B4214BF01230023AEEB03021C
:10234000A2EB0402A3B212941FFA82F8179340F092
:10235000E1810023189314931B930F9B9B00FB8731
:102360000B9B8900B987002B00F0C581B37B052B3F
:1023700000F2BD83494A02EB4303B3F83C395A08E3
:10238000A3F14A00D91E033A80B2143B92B289B23B
:1023900010901393109BB986CBF129041C44169B13
:1023A000FA860FFA84FBABEB0303292BA4B207DCFC
:1023B000039B414A9B6B3C490020984700230B93A9
:1023C000139B9B4507DB039B3C4A9B6B36490020D4
:1023D000984700230B93109B3B87119B7C872C2BEA
:1023E00040F2EB810023A7F85030A7F85230A7F84D
:1023F0005430159BA7F84E30189BA7F84830B8F119
:10240000000F00F0BE810123A7F84A30149B179AF1
:10241000A7F84C20002B00F091831B9BA7F84230BB
:102420001A9BA7F84430129B002B00F07C83199B69
:102430000F9A9C1A0C9B94FBF3F4A7F8464008F102
:10244000FF321FFA82F80B9BA7F84080002B5DD06B
:10245000B37A172B00F24281092B00F22F83C3F1CC
:10246000090315227B803A80089A002A00F07E83B7
:102470007B8802EB43039B89F07BBB801CA9FEF7A2
:1024800067FE60BBDDF80CB0DDF81480DBF8383097
:102490000B4A0549DDF808A014E000BF3019010817
:1024A000ABAAAAAA04600108585E0108506001089E
:1024B00064600108ABAAAA2A98600108B860010804
:1024C000E05F01089847562303FB0583BDF88C1095
:1024D000BDF88E20A3F87010A3F86E20CFE5BDF8EC
:1024E0008440BDF88C307B85082CBDF88E303B8550
:1024F0000CD8BDF88630072B08D8BDF888C0BCF1D1
:10250000080F03D8BDF88A20082A18D9DDF808A0DA
:10251000DDF81480DDF80CB0B1E5581EC0B2042817
:102520007FF644AEDDF80CB0AB4ADBF83830AB498F
:10253000DDF808A0DDF81480002098479FE5012110
:1025400001FA03F3501E013B9BB201FA02F201FAB9
:1025500000F03C81013A9C0101385B0240023B8261
:102560009201029B7882A7F80AC0BC81FA819DF88B
:10257000700093F84D302093002800F08280DDF841
:1025800074B0BBF1000F7CD0022B7CD8944A13446A
:1025900093F84839BB82089B23B307F114031A460A
:1025A0000B9300233B8311822EE18D4A134493F851
:1025B0004C39BB82089BABB100233B8307F114036A
:1025C0001A460B93002840F017810B9BB884788340
:1025D000F8821881D8810B9A0023538100233B8411
:1025E0000B9A53823089F27A3A86012858D0012119
:1025F000831EF985BB85717BB9F80C30F98081F0B9
:10260000010179860E99AAF80030AAF808100B4447
:10261000F17BA9F80C3001293B8D2FD002290CBF8A
:10262000B0EE496AB0EE696A01339BB207EE103A28
:10263000B388B8EE477A07EE903AF1EE006A27EEDB
:10264000267AF8EE677A06EE900A67EE277AF8EEB9
:10265000666A069B67EEA67A194667EE867A002BB5
:1026600008BF114667EE8A7A049B0691FCEEE77A72
:1026700017EE902A13440493FFF776BBB0EE6A6A14
:10268000D2E7072B91D9DDF80CB0564ADBF8383089
:102690005249DDF808A0DDF8148000209847EEE4E8
:1026A0000023FB85BB85A6E7039B4F4A9B6B4B49E9
:1026B000002015900446984701230C930F930B9B21
:1026C0001194002B7FF4ACAD0422ACE5DBF838307C
:1026D000464A424900209847FFF77BBADDF80CB024
:1026E000434ADBF838303D49DDF808A0DDF81480B6
:1026F00000209847C3E46C231393362310933D22A4
:102700007D2147E68C4200F0218300221792184673
:1027100090461292019B1493A0EB0C000C9B90FB33
:10272000F3F00123189383B21B9316E6B8F1000F60
:10273000BAD01823B3FBF8F308FB03F3C3F1180373
:102740009BB21593002BAFD108F1FF339B009BB2D6
:1027500011930123CDF830800F93BBF1000F3FF4AC
:1027600055AD0B9B002B40F0FE81337B002B00F01E
:102770001A82039B1F4A9B6B18490B9898470422A7
:1027800051E5179BA7F84C30149BA7F84A80002B03
:1027900000F0D1811B9BA7F842300023A7F84430FA
:1027A000129B002B00F0C381199B0F9A9C1A0C9B63
:1027B00094FBF3F4A7F8464045E6119B1E2B40F22C
:1027C000A581A3F11E020F23A7F85420A7F85030CB
:1027D000A7F852300DE600BFE05F0108585E01081F
:1027E00030190108E8600108F05F0108EC5E01089B
:1027F000D060010818600108DDF874B0012313826D
:10280000BBF1000F00F0B182089BDDF87CC0D3F86B
:1028100060E00C90D3E9198400210B46204608EBB8
:102820001142A2EB0E0262459CB2014403F1010386
:1028300080F28A820F2BF2D10C981C46089BD3F8A9
:1028400078C0D3F874E00B9B0CEB8C01DC80052284
:102850000EEB1143B3EB0B0302F10104614440F1B1
:10286000C581A2B2142AF3D1DDF80CB0CF4ADBF84F
:102870003830CF49DDF808A0DDF8148000209847F3
:10288000FFF7FDBB03F1180422B2A3B2199241E590
:1028900001F1180C1FFA8CF10FFA8CFC25E5C54BE1
:1028A0006FEA0800A3FB00306FEA101000B24FEA95
:1028B000E873F9E4BF4B6FEA040BA3FB0B3B6FEA31
:1028C0001B1B0FFA8BFBE117E2E4BCF1010F00F0D8
:1028D0004F8107EE902ADFEDB8AAF8EE67CAF7EE4F
:1028E000089AB2EE02DADBED117A9FEDB40AB8EE87
:1028F00067AA80EE0A0A0BF02FFE9AF85030022BDE
:102900002AEE00AA00F21E81AD4A9AF84E1002EBA0
:102910008300D0ED00DA90ED03CA002900F079823F
:10292000DDF804909FEDB09AA64FDFEDA7BA9FEDBA
:10293000A7BA002635463AE032F8133007EE903A4F
:10294000F8EE677A8AEE277A5544A31CB5F808C0DA
:10295000A8889AF84E105A0093B20CFB0333023346
:1029600004EB44045B00A4009BB287EE0B6A1834AE
:10297000A4B20136F5B2A94207EE903A07EE104A2A
:10298000F8EE677AB8EE477AC7EE866AC7EE065A5F
:1029900007EE900AF8EE677A66EEA77A77EEA57AE8
:1029A00077EEAA7A77EEA97A39EE279A21D90AEB3F
:1029B00005131CA9D87BFEF7CBFB2D017C493A46B9
:1029C000044618B9DBF838309847A1460AEB0503EE
:1029D0007F4A9B7BBDF88E40052BADD9DBF83830A4
:1029E0007C4A7349002098474FF00009F0EE6B7A5B
:1029F000A8E7B9F1000F36D0DFED777ADFED736A23
:102A00009FED767ADAED105A3A9B8AEE275AF1EE6C
:102A10000C7A85EE266A6CEEA7CA3CEE2DCACCEE87
:102A2000867AB0EE006A37EE8DDA3DEE099A39EE1D
:102A30000C9A69EE077A77EE867A37EE899AC6EEB7
:102A4000897AF4EEE75AF1EE10FAC3ED007A7FF7D7
:102A5000F5A9FDEEE77ADBF83840614A544917EEF4
:102A6000903A0020A0470023DAED105A0193FFF7B7
:102A7000E5B90023A8F82630A8F828309AF8503095
:102A8000012B10D0022B2BD013B3DBF83830554A72
:102A9000FFF7C4B80022A8F82630A8F828209AF832
:102AA0005030012BEED1C8F834300193FFF7DBB87A
:102AB0000123A8F82630A8F82830DFE7102B94BFB0
:102AC000C3F11E03C3F1170300223B807A80CBE4DD
:102AD0004FF00113C8F8343001230193FFF7C3B856
:102AE0000023C8F8343001230193FFF7BCB8039BDF
:102AF000384A9B6B2E49002098476C23139336234A
:102B0000109300233D227D210B9343E4119B0F2B57
:102B100035D90F3B0F22A7F852300023A7F85020D9
:102B2000A7F8543065E4129BA7F8463087E4129B5F
:102B3000A7F8463087E4A7F842802EE6149BA7F852
:102B400042306DE4DBF83830264A194900209847B6
:102B50009AF84E30002B86D09FED23CA4FF0000923
:102B6000F0EE4CDADEE60222FFF75DBB089B83E461
:102B7000F0EE69AAB0EE69DAF0EE69CAB3E60023B6
:102B8000119AA7F85020A7F85230A7F8543030E433
:102B90009AF84F109AF85020DFED138A91427FF493
:102BA000DEAAFFF70DBA019B0B938DE508610108C2
:102BB000585E0108ABAAAAAA9A999D41F902154F3D
:102BC00084220108E05F01080000004300247449EA
:102BD0006C2201088C600108000020430AD7233CC6
:102BE000346101085C5F010800000000052A0AD07A
:102BF000511E89B20CFB01FC0EEB1C4CABEB0C0420
:102C0000A342C8BF0A461E9B0B990C93B3F5167FCF
:102C10004A80C0F0D980089BD3F86C800C9BA3EB52
:102C20000801B1F5C87F40F3F78000234FF4C87462
:102C30001A46023204FB02F2914203F10103F7DC6F
:102C40000B9CBBF1000F14BF012100214FF0010CC0
:102C50002181A4F80EC000F0A1800C9A4FF4C87036
:102C600000FB1320089A0024D2F870E0224602E00C
:102C7000162A3FF4F9AD08EB1441091A1FFA82FC39
:102C8000744402F10102F3D4BCF1000F0AD00CF13C
:102C9000FF3294B20EFB04F208EB1242821A914208
:102CA000C8BFA4460B9AA2F80AC0002B00F0988077
:102CB000BBF1000F18D0089CB7F81AC0A26E616E65
:102CC00002FB0CFC226E01EB1C4CBCEB020C3FF532
:102CD000CBAD089AFC8A916F526F01FB04F102EBB5
:102CE000114101EB0C021044089A0024D2F858E07C
:102CF000D2F85C80224602E0162A3FF4B5AD0EEB16
:102D00001441091A1FFA82FC444402F10102F3D46F
:102D1000BCF1000F0ED0BBF1000F0BD10CF1FF3254
:102D200092B208FB02F80EEB1848A0EB08084145E8
:102D3000C8BF9446A7F820C0002B3FF451ACDA1D61
:102D4000012393409BB24BE40C9877E598420CBF6B
:102D50004FF001084FF0000856D10023CDE917339A
:102D6000129314931B93FFF7F8BA1E9A0B990C92C7
:102D7000B2F5167FA1F806B0A1F802B039D3089ACF
:102D8000D2F86C800C9AA2EB0801B1F5C87F3FF72E
:102D90004CAF0B9AD381A2F808B05B460B9A4FF068
:102DA000000BA2F80AB000283FF418AC43B30C9A09
:102DB0004FF4C87000FB132096E7019A0292022795
:102DC00011460492FEF7EEBF0B9A00231381D381C4
:102DD00000283FF400AC089A0C98D2F86C8041E7C8
:102DE000BBF1000F0CD0FA8B0EFB02F208EB124085
:102DF00061E70B9BA3F808B0A3F80EB0A3F80AB0E4
:102E000000230C989B466FE70022179218461292F7
:102E100080E41FED8B9AEFE5BBF100030B9918BF1F
:102E2000012301220B81CA81002316E73A9B1A462F
:102E3000019B1371A8F8AC31FEF715BF0123019374
:102E4000FEF7D3BE3A9A00231371A8F8AC31FEF70F
:102E5000D7BE00BF08B5114B9FED110A2DED028BB7
:102E600093ED118AB8EE488A80EE080A0BF074FBE5
:102E700028EE000AB3EE088A20EE080AB7EE007AC0
:102E8000C7EE007ABDEC028B9FED060A67EE807AF2
:102E9000B6EE000A27EE800A08BD00BFAC00002095
:102EA000F902154FC2F38E4DF8B505462DED028B94
:102EB0000E461F467AB91032012035F81230089AB2
:102EC00007EE903ABDEC028BF8EE677AC7ED007A18
:102ED00033681360F8BDB0EE408AFFF7BBFF0021F6
:102EE00095F81DE0B5F828C0E86A0A4605EB4203EC
:102EF00001319C8F14FB0CF410FA84F307EE903A26
:102F0000F8EEE77A67EE807AB4EEE78AF1EE10FA2F
:102F10000CD4CAB29645E9D20A4B0B4A9B6B0B49BB
:102F200000209847BDEC028B0020F8BD002AF3D0AA
:102F3000013AD2B2032AEFD8AB185B7E06EB8306C8
:102F4000B9E700BFAC00002054610108105A010825
:102F50002DE9F84F164C0A9E278D043A043F52087B
:102F60007F0897420D468146984628BF174601F1D3
:102F7000040A0024331BBB4228BF3B466FEA84414E
:102F80005A1E6FEA91419B466A8029805A0008EBDD
:102F9000440150461C440DF045FE0BF10202002393
:102FA00029464846FEF79CFAA642E3D8BDE8F88FCA
:102FB000AC0000202DE9F04F02EBC30689B0738806
:102FC000129F4BB38046894600254FF0010B736872
:102FD00053F82540C4F3017001280CD0022833D0E7
:102FE000F0B1344B344A9B6B3449002098470020A1
:102FF00009B0BDE8F08FA3B2194659F8232022F09A
:103000000F0217B1C4F3034422434046FEF79EFA71
:10301000738801359D42DAD3012009B0BDE8F08FF5
:10302000C4F3445A0BFA0AF39F4216D3214A00977D
:10303000013B019321490390A3B2946B204AA0471E
:10304000039809B0BDE8F08FA3B2194659F82320C0
:1030500022F00F02002FD8D1D4E7A3B243F4204CC2
:1030600003930522012305A9ADF81800CDF81A0035
:103070004046ADF814C0ADF816B0FEF731FA04A919
:103080000DF11A00FDF7DEF8CAF1200A4FF0FF3308
:10309000C4F3044423FA0AFA049B03990AFA04FAD3
:1030A00023EA0A0207FA04F422434046FEF74EFAE6
:1030B000AEE700BFAC000020B0610108805B0108F2
:1030C0007861010810B4002492ED037A1C605C6002
:1030D0009C60DC60002942D0DFED247A4C1E10FA9F
:1030E00084F402EB0414F0EE676A02EB0012B0EE17
:1030F000676A00E00246D2ED005A36EE256A02F118
:10310000100083ED006AD2ED015A76EEA56AC3ED98
:10311000016AD2ED025A77EEA57AC3ED027AD2EDBA
:10312000035AF4EE475AF1EE10FAC8BFB0EE657AD2
:103130009442DFD105EE901AF8EE655A83ED037ADA
:1031400086EE255A5DF8044B86EEA56A87EEA57AD1
:1031500083ED005A83ED016A83ED027A7047DFED5B
:10316000037AF0EE676AB0EE676AE3E700000000FA
:1031700070B5049D20B106680C460E498E4203D0FE
:10318000FDF79EFD002070BD90F8401051B101295F
:1031900008BFC16D0495204618BF0021BDE87040EE
:1031A00007F04EBC816D04952046BDE8704007F0E5
:1031B00047BC00BF30D1C0AC10B582B0049C0094B5
:1031C000044607F03DFC08B902B010BD204602B02D
:1031D000BDE8104007F0D4BAABB1013B70B59BB26B
:1031E000161D154600EBC10406EB830694ED000A9C
:1031F000D4ED010A0CF0C6FEA5EC010AB54204F1BB
:103200000804F3D170BD704700B52DED048BF5EEC9
:10321000C00A83B0F1EE10FA01900BD82A4B2B4A6A
:103220009B6B2B4900209847002003B0BDEC048B1A
:103230005DF804FB0846B0EE419AF0EE608AF0EECD
:10324000409AFDF77BF9DDED017ADFED220AF8EE19
:10325000E77AB0EE408A67EEA00AB7EE000A0BF0FC
:1032600023F90BF027FAB0EE407AB0EE680AF0EEE0
:10327000478A0BF01FFAB0EE401AB2EE040A68EE6D
:10328000006A26EEA87A77EE297A37EEC18A78EEC0
:10329000490AC0EE800A0BF043FA40F2FF13F6EE43
:1032A000007A30EE270ABCEEC00A10EE102A90B267
:1032B000012838BF0120984228BF184603B0BDEC52
:1032C000048B5DF804FB00BFAC000020D86101084E
:1032D000185901080AD7233B2DE9F041064682B070
:1032E00015461F4693B15C1EA4B24FF6FF7C04F155
:1032F000090301EBC4029BB2013C05EBC303A4B27A
:10330000106852685A6064451860F0D107F10800EF
:103310004FEA470C80B21FFA8CFC07F1120807F144
:10332000090205EBC0000CF1100C1FFA88F892B2EC
:103330002B4605F14804AE4695ED137AD5ED127A89
:1033400093ED156AD3ED146A37EE077A77EEA77A14
:1033500037EE467A77EEE67A8EED117ACEED107A78
:10336000ACEB020190ED017AD0ED007A89B205EB69
:10337000C10191ED016AD1ED006A37EE077A77EE6F
:10338000A77A37EE467A77EEE67A083305EBC20184
:103390009C4202F10102AEF1080E81ED017AC1ED0D
:1033A000007A92B2C8D196ED037AD6ED047A96ED02
:1033B000005AD6ED016A96ED026AB7EE004A77EE42
:1033C000045A67EE854A77EEA53A27EE057A84EE31
:1033D000235A43462A466946304636EE646A36EE3C
:1033E000C77A65EE855A67EEC57A65EE865A67EE4E
:1033F000877A26EE056A27EE057A77EEA57A37EE0C
:10340000067ACDED017A8DED007AFDF7D5FB4146C8
:103410002846FDF757FA2A46434669463046FDF7E7
:10342000CBFB41462846FDF74DFAFA00214602B093
:10343000BDE8F0410DF004BC2DE9F04F2DED088BF7
:1034400095B0B0F866409DF8985002958046407956
:10345000B8F830A00692039301EB840400284CD006
:10346000D8F874300893BAF1000F3AD00AF1FF315E
:103470008AB2194608319FEDD86A01EBC2010234C5
:103480001A46B4F9003007EE103A34F9023CB8EEAF
:10349000C77A07EE903A67EE066AF8EEE77A82EDB1
:1034A000017A77EEA67A083242ED027A914204F16F
:1034B0000404E6D1BAF1090F15D9089A534611460A
:1034C00008F14800FFF708FFD8F87420B8F8383042
:1034D000B8F83A10104615B0BDEC088BBDE8F04FB7
:1034E0007AE64FF0000ABD49BD4A8C6BBD490A20FF
:1034F000009053460020A047E6E70AF101064FEA94
:10350000860C01220AAB03EB82030132086843F800
:10351000040C0B2A6144F5D1DFEDB38ADFEDB39AD9
:103520009FEDB39A9FEDAC8ADDF8189004960AAD32
:1035300014AFA34609E0002E40F0E88089ED008A30
:103540000435AF4209F104091BD0B5F90040B5F9C3
:103550000260002CEFD007EE904AB8EEE70A07EEC3
:10356000906AF8EEE77A87EE800A0CF02DFE002CC8
:10357000C0F2D2800435AF4209F1040909ED010A15
:10358000E3D1029B049E5C4683B198ED177ADFED90
:10359000997A069A27EE277A02F12801D2ED007A6D
:1035A00077EE277AE2EC017A9142F7D1039B002B68
:1035B00040F0DC80D8F87430D8F8C020D8F8B49047
:1035C00008930792BAF1000F8BD00AF1010B1FFA92
:1035D0008BF128329FED808ACDF8248004914FF042
:1035E000000B0592F2EE048ACDF808A09846DDE9BA
:1035F00006A79FED799A0BF101023B465E461FFA42
:1036000082FB4F46F0EE499A5D46994668E09AED96
:10361000000AD9ED007A77EEC07A27EE880A78EEB4
:10362000670A30EE080AF4EE400AF1EE10FA80F173
:10363000C7800CF0C3FC07EB8601F0EE60AAB1F97D
:10364000023007EE103AB8EEC77A37F9263067EE47
:10365000087A77EE081A0BEE103AF4EE671AF1EEDC
:1036600010FAB8EECBBAB0EE40AA80F1C78037EEC0
:103670008BBA71EE881A2BEE0A7A21EEAA6A6BEEEB
:103680002A7A61EE8A6A37EE466A77EEA66AB4EE67
:10369000666AF1EE10FA80F1868034F9253004EB89
:1036A000850107EE103AB1F9023007EE903AB8EE14
:1036B000C77AF8EEE77A37EE467A77EEE67A79EE71
:1036C000879A39EE279A049B1D44029B1E44059B52
:1036D00009F104094B45ADB2B6B20AF1040A20D093
:1036E000039B002B93D034F9253004EB850107EEC2
:1036F000103AB1F9023007EE903AB8EEC77AF8EE18
:10370000E77A79EE879A39EE279ADCE7CCBF89ED24
:10371000009AC9ED009A13E7002E22DB30EE280A4A
:1037200028E789EE280AB94689EEA89A60EE087A59
:1037300070EE080AF4EE607AF1EE10FA6DD6029B94
:1037400039EE279A70EE880A5B4588ED009AC8ED3D
:10375000010A08F108087FF44AAFDDF824809A4690
:10376000A8E630EE680A89ED000AE9E6002552462F
:10377000314602E0B8F83020511C11FB05F189B246
:10378000481BD8F8B430013180B289B2920004EB02
:103790008101013503EB80000DF044FA0A2DE9D1D7
:1037A000B8F830A006E7B0EE4B1AF0EE6A0AB0EEB9
:1037B0004A0A09F009FDB0EE406AF0EE606A6CE773
:1037C000B0EE670AFFEE001AB0EE481ADFED020A0B
:1037D00009F0FAFC2DE700BF00000000AC0000205B
:1037E000F061010824620108DB0F4940DB0FC9BF0B
:1037F000DB0FC93FCDCC4C3D00000000F7EE001AB6
:103800005FED030AB0EE470AB0EE481A09F0DCFC9F
:10381000F0EE407AF0EE601A29E75FED090AF7EE64
:10382000001AB0EE481A09F0CFFCF0EE407A86E7B5
:10383000F8B595692B78B5F802E0144602EB43031E
:103840000F46B3F8446063690146720003EB4E0013
:103850000DF0F6F9E26D698813780E446E8003B9B5
:103860003B791370F8BD00BF08B52DED028B07EE54
:10387000901AFCF753FE9FED2D7AF8EE677A30EE42
:10388000000A67EE877AB0EE008A80EE270A0AF017
:10389000C5FD30EE088AB6EE000A28EE000A0AF0EE
:1038A000BDFDBCEEC07AFCEEC87A17EE103AB7EE5A
:1038B000006A70EE465A98B217EE903AC6EE256A44
:1038C00099B280B3002213469FED197A07EE903A21
:1038D000F8EE677A013267EEA67A93B267EEA77ABE
:1038E000834237EE277AF1D338EE408AF7EE007A3A
:1038F00038EE678A091A0029C7EE886A0EDD0023B0
:103900005A1C07EE903AF8EE677A93B267EEA67A01
:103910008B4267EEA77A37EE277AF1DBBDEC028B9C
:10392000B0EE470A08BD9FED027ADDE70AD7233BD8
:10393000000000002DE9F04F2DED068B0446027DBE
:1039400090ED018A8BB00D4681890120FDF79EF82C
:10395000B4EEC08AF1EE10FA25D594F82830009321
:1039600023BB2046FDF7C8F80746002840F0288111
:10397000064694F80EB0B4F80C80227D58464146B5
:10398000FDF784F894ED028AB4EEC80AF1EE10FA5D
:1039900062D4009B03B1012707F001000BB0BDEC1E
:1039A000068BBDE8F08F00230093DAE70120FCF7D7
:1039B000A3FE064601460120FFF756FF01203146CF
:1039C0002E80A870F0EE408AFDF7BCF880462046B5
:1039D000FDF792F816FB08F7BFB208B17F00BFB23F
:1039E000227DA1890120FDF751F8F0EE400A94ED07
:1039F000020A0AF077FDDFED886A9FED881AC8EEAB
:103A0000267A0223AB7580EE267AFCEEE77ABCEECE
:103A1000C77A17EE903A9AB217EE103AB2FBF6F266
:103A200098B2A2EB0803B0FBF6F010FB06F217FA0F
:103A300082F713FB06F0A880EF80A17D94ED040AC5
:103A400010B2F0EE680AFFF7DFFB95F8C030E881AE
:103A5000013385F8C03084E7F0EE400A94ED010AA6
:103A60000AF022FDB4EEC08AF1EE10FA00F1938064
:103A7000C6F105095FFA89F9B9F1010F40F28B80AF
:103A800007EE909AF8EE677AB7EE007A77EEC77A8B
:103A900078EE406A002286EEA77A134609F1FF31DC
:103AA0000AA800EB820207EE903AF8EE677A01333B
:103AB00067EE877A9BB277EE807A8B4242ED057A89
:103AC0001A46EDD30AAB03EB890303ED068A4146A0
:103AD0005846FCF711FE804601465846FFF7C4FEE3
:103AE0000BF1FF33DBB2042B94BF4D4A9FED4D9A8F
:103AF0009FED498A01959CBF02EB830393ED009AE9
:103B0000182303FB0652C6F1040A5FFA8AF30DF18B
:103B1000140A82F862B082F876902546F0EE408A68
:103B20005446A2F8608002F164094FF0000B9A46F7
:103B30005FFA8BF2924540F25E81D4ED006A95ED1A
:103B4000040A94ED017AC7EE087A04340BF1010BF4
:103B500086EE887AFCEEE77ABCEEC77A17EE903AEA
:103B600098B217EE103AB0FBF8F010FB08F09AB2DA
:103B700000B2B2FBF8F212FB08F2A9F8002029F813
:103B8000020FB0EE491AA97DF0EE680AFFF73CFB80
:103B9000A9F80800CCE7244B244A9B6B2449002059
:103BA0009847002095F8C130013385F8C130009B5B
:103BB000002B7FF4F0AE002F7FF4EDAE0746EBE66E
:103BC000A37B013B042B00F28081DFE813F00500AA
:103BD000FA00F40000010F00002695F8C130371EEE
:103BE000334485F8C13018BF0127C2E6052340F2EF
:103BF00001328DF81630ADF814200323013B002666
:103C0000019305F16003CDE902359FED03AADFEDD5
:103C100005AA3746B0469EE00AD7233BCDCC3441B7
:103C20009C22010800000000AC0000203C6201085A
:103C300018590108D4ED028AF4EEE80AF1EE10FA00
:103C400040F1A98094F82870002F40F0C980F0EE70
:103C5000499A002E40F0C480F0EE480AB0EE680A9F
:103C60000AF040FC51464846F0EE408AFCF744FD1D
:103C7000014605464846FFF7F7FD09F1FF32D2B28B
:103C8000042A9EBF954B03EB820292ED001A514627
:103C90005A464FF0010088BFB0EE6A1AF0EE400AB3
:103CA000FCF7F4FEB4EEC09AF1EE10FA40F19F80FA
:103CB000002F00F09C800122B4EEE88AF1EE10FAA9
:103CC00029465B4648464CBF01270027FCF758FFB2
:103CD0003A4684465B4648466746FCF751FF88EE05
:103CE0008A7A029A06EB460302EBC30A22F83350A3
:103CF00002238AF816308AF802900136F6B2C9EE2D
:103D00008A7ABCEEC77AFCEEE77A17EE103A17EE25
:103D1000902A9BB2B3FBF5F313FB05F39BB292B26F
:103D2000B2FBF5F212FB05F51844EF1BAAF80600EA
:103D3000AAF80470A17D94ED040A18B2FFF764FAA2
:103D4000AAF80E00019B08F101081FFA88F8434504
:103D5000474640F2B8800AAB434494F814B013F8D5
:103D6000149CB4F80CA0484651465A46FCF78EFE07
:103D70000AAB1F445A4617F8130CF0EE400AFCF742
:103D800085FE94ED019AB4EEC90AF1EE10FAB0EE98
:103D9000408A3FF74FAF94F82870002FD2D1002E01
:103DA000D0D1B4EEC98AF1EE10FACBDDD4ED028A9F
:103DB000F0EE499A50E740F20133ADF81430022397
:103DC0001CE740F20123ADF81430022316E7042368
:103DD00040F201328DF81630ADF8142003230DE7C0
:103DE000B0EE490A0AF060FBF0EE409A34E7321E6A
:103DF00018BF012260E72C46019D4FF0180E0EFB04
:103E0000065E9EF87690B9F1020F32D906EB460CA9
:103E10004FEA8C00022105EBCC0C08E0013189B29D
:103E20009CF87690494524D2B9F1020F21D9431864
:103E300005EB4302B2F964A0B2F962309A450A4632
:103E4000ECD109F1FF39894510D90B46024400EB4A
:103E5000030A05EB420201339BB205EB4A0AB2F9B1
:103E60006620AAF8642099451A46EFD88EF8769015
:103E7000D6E72046FCF740FE94F80E90237D019390
:103E8000024641464846FCF77BFE019B0446002261
:103E90004846FCF775FE182202FB06520C2392F8E6
:103EA00076C0B2F864100CF1FF3C13FB06C605EBBC
:103EB00046060C1BA2F86440B6F864301844A6F815
:103EC000640001206EE6039D87E6054B054A9B6B67
:103ED00005490020984700267FE600BF9C22010884
:103EE000AC000020E05F01081859010810B52DED65
:103EF000028B82B00191FCF711FBDFED327AB4EE58
:103F0000E70AF1EE10FA04DC002002B0BDEC028BEF
:103F100010BDDDED017A9FED2C7ADFED2C6AF8EE15
:103F2000677AB6EE008A67EE877A144687EE807A63
:103F300027EE080AF0EEC07AF4EEE67AF1EE10FA17
:103F400036DCDFED237A30EE000A20EE270A0AF095
:103F50001DFA20EE007AF7EE007A37EEC77ADFED31
:103F60001D5AB1EEC75A37EEC06AC5EE256AF8EEA3
:103F7000005A36EEA77A26EE088A77EEE67A20EE29
:103F8000250AC7EE876AC6EE075AC8EE077A80EEA2
:103F9000076A0120C4ED007AC4ED015AC4ED027A2B
:103FA00084ED036AC4ED046A02B0BDEC028B10BD5F
:103FB000F7EE006AB0EE006AF0EE667AF0EE465A6E
:103FC000E7E700BFACC527370AD7233BDEFFFF3E3C
:103FD000DB0F4940F304B53F2DE9F04F2DED028B87
:103FE000044689B008468A461746994607F0EAF91A
:103FF000002183465046CDF800B006F0C5FC83454D
:104000006BD93B1D9FED398A0193064604F55C741C
:104010003146504607F0E8F831460546504607F06D
:1040200027F901462846FCF78DFD03AA804628465D
:10403000FFF75CFF002851D0A4F55C723D463B467B
:10404000B2F9021007EE101A32F9041BB8EEC77A63
:1040500007EE901A67EE086AF8EEE77AA24277EE6A
:10406000A67A83ED017AC3ED007A03F10803E7D164
:10407000DC233A46394603A8FFF72EF9C8F16E0350
:104080005B001FFA83FB41465B463A463846FFF722
:10409000A3F8BBF1000F26D0019B9FED147A0BF122
:1040A000FF3292B203EB8202F5EC017A67EEA77A57
:1040B000AA4237EE277AF7D107EE90BAF8EE677A80
:1040C000009BC7EE276A0136F6B2B34204F55C7472
:1040D000F1EEE67AE9EC017A9AD8012009B0BDEC5C
:1040E000028BBDE8F08F9FED017AE5E7000000004C
:1040F0002DE9F04FBDB0CDE9002306460D4607F08F
:10410000A9F9044688B10435012E284611D1FCF7DF
:1041100073FAC222074600210BA80CF024FB002FE3
:1041200040F09E80204607F07DF900203DB0BDE8BC
:10413000F08FFCF761FA0026ADF8EC600028F1D0B2
:1041400028460BA9FFF7F6FB0028EBD09DF8EC30D2
:10415000002BE7D09DF84230BDF930A0BDF93250B8
:10416000012BDFD9AA45DDDA0A212046BDF83A70D5
:10417000BDF82C909DF82E8006F098FF0221204675
:1041800007F03AF932463146204607F0F9F8324650
:104190000121204607F0D2F832460121204607F0DF
:1041A00089F832460421204607F040F83246394665
:1041B000204606F0F7FF32460F21204606F0AEFFFC
:1041C00032460121204606F087FF32460121204673
:1041D00006F0FCFB32460221204606F0B3FBA5EBBD
:1041E0000A031A0499B29DD4B1FBF9F60122514693
:1041F000204607F0C5F831460122204607F09EF818
:1042000049460122204607F055F801224146204642
:1042100007F00CF839460122204606F0C3FF0122C0
:104220000521204606F07AFF01221146204606F0BD
:1042300053FF41462846FCF79DF9012201462046DE
:1042400006F080FB4699204606F06AFC05460028E9
:104250003FF468AF009B1C60019B01201D6065E777
:1042600028460BA9FFF766FB00283FF45BAF9DF8DB
:10427000ED30002B3FF456AF0023314620461D465B
:10428000039306F013FF9DF8EDC09DF80C309C459C
:1042900074D9182202FB03F73CABDE19643E0FCE43
:1042A0000DF1140EAEE80F0060370BABDA1996E88B
:1042B0000300937D92F802A00BAE8EE8030036F85F
:1042C000079023B92946204607F096F82AE7013BD4
:1042D00013F0FF0F5FFA83FB4CD0032DF2D80BF1E4
:1042E000FF3B1FFA8BFB0DF11A0303EB4B03029309
:1042F00006AE01E0042DE5D0B6F900B036F9027F34
:10430000A7EB0B0399B21B042A462046DAD4B1FB73
:10431000F9F8318906F046FF2A465946204607F04B
:104320002FF82A464146204607F008F82A46494613
:10433000204606F0BFFF2A465146204606F076FF8B
:104340002A460A21204606F0E9FE2A460121204697
:1043500006F0C2FE51463846FCF70CF92A460146E3
:10436000204606F0EFFA029B0135B342EDB2C1D10F
:104370009DF8EDC0039B0133039386E72946204651
:1043800007F03AF85EE700BF2DE9F04F2DED028B04
:1043900089B0CDE906120646059307F05BF804469E
:1043A000002800F0B380012106F080FE304607F0BF
:1043B00009F80021034630461D46049306F0E4FA4E
:1043C000291A8246C9B2204607F016F8554540F230
:1043D000918006EB0A134FF0000B00933FE0774DFE
:1043E000774AAB6B7749002098473A46012120462F
:1043F00006F060FF3A460021204606F0C1FF3A462B
:10440000DC21204606F09AFF18EE101A3A462046A4
:1044100006F0C8FE3A464146204606F07FFE3A4680
:104420004946204606F058FE01993A46204606F0D5
:10443000CDFA02993A46204606F0F8FE03993A462C
:10444000204606F07FFA009B10330AF1010A009320
:10445000049B5FFA8AFA53450BF1010B4AD051468F
:10446000304606F07DFE5FFA8BF708EE100A002E4C
:1044700079D03368544A934256D0504D504AAB6B72
:1044800050490020984733684FF000084E4A934245
:1044900000F08280494D4A4AAB6B4A490020984758
:1044A0005146304606F070FA5146034630460193B5
:1044B00006F09AFE4FF0000902903368424A934298
:1044C00029D03E4DAB6B3E4A3E4900209847002321
:1044D000039323683C4A934281D1BBF1030F03D974
:1044E00006F020FA002880D004EB0B134FF00002F6
:1044F000DA737AE70599204606F012FB0546002894
:1045000056D0069B1C60079B01201D6009B0BDECC6
:10451000028BBDE8F08FBAF1030F41D906F002FA21
:1045200000283DD10390D4E7BAF1030F3CD906F03F
:10453000F9F93368002837D1234A93428046A9D13C
:1045400006F0F0F9814610B1009B93F810905146A7
:10455000304606F019FA514603463046019306F0FC
:1045600043FE0290A9E7154D154AAB6B154930463D
:104570009847AB6B124A134930469847514630462C
:1045800006F002FA514603463046019306F02CFE2F
:10459000B0460290B14695E7BAF1030FD4D9CFE700
:1045A000009B9B7C039394E7009A92F80E806DE742
:1045B000204606F037FF2846A8E700BFAC000020E1
:1045C00060620108786201080FB037132DE9F04FDF
:1045D0002DED0E8BADF5277DCDE90712099320B1A6
:1045E000B84B02689A42814610D0FCF769FBB64B83
:1045F000B64A9B6BB649002098470023069306985D
:104600000DF5277DBDEC0E8BBDE8F08FFCF794FB1C
:1046100099F840500A90002D00F0B480002641AB7C
:10462000C9F80061C9F80461C9F808613146184643
:1046300054220C930CF097F8012D09F5807440F08A
:10464000ED80D9F8700006950799224606F016F914
:10465000BE9B9C6599F840300493002B40F0BF80CE
:10466000BE99D9F85820D9F80C310A6609F1C80268
:10467000CA65002B00F063832146D9F844009847AF
:10468000BE9899F8402099F80231B9F9041180F8E0
:104690005230D9F8083104920D91A0F854100B93C0
:1046A000002A40F0B8800023D9F8182004930B9B0F
:1046B000002B9CD0D9F83CA0BAF84430002B7ED017
:1046C000D9E90A13D9F80C0011900898CDF8389060
:1046D000415E10910344D9F83410D3ED009ADFED18
:1046E0007D8A9FED7D9A12914FF0000883181393F5
:1046F000CDF814800124C346D14608E0B9F844300F
:104700000BF1010B1FFA8BF29342059251D91FFA5C
:104710008BF5AB1C59F823A05046FCF74FF8049BCF
:104720009842EBD100242146282223A81E942094ED
:1047300022940CF018F8214628222DA80CF013F82A
:10474000214637A828220CF00EF82DAB1F9323AB7F
:104750001D9337AB2193BAF1000F04D0DAF8003083
:104760005E4A934266D0584B5D4A9B6B5D49002080
:1047700098470024059B002BC0D19DF88A3089F80A
:104780008A31BBE741AB1846C9F80051C9F804515A
:10479000C9F80851294654220C930BF0E4FF0A9BF8
:1047A000D9F86C00013B18BF0123069309F580740A
:1047B0004AE7CA46DDF83890002C3FF418AF069B54
:1047C000002B40F0E9810A9B89F8403001230693D1
:1047D00006980DF5277DBDEC0E8BBDE8F08F049B90
:1047E000012BD9F80C311DD1BE99D9F85C200A668D
:1047F00009F1E402CA65002B7FF43EAFBE9999F837
:104800000231B9F9042181F85230D9F808310D92FA
:10481000A1F854200B93D9F8202048E70123304613
:10482000069311E7BE990022C1E91722002B7FF4FD
:1048300023AFE3E709EB8502119ED369116BDAF828
:104840008800DAF87050DAF87C203344079E33444D
:10485000129E1A441D4403440898CAF88C3031440F
:104860000144CAF87450CAF88020504656ADFBF790
:104870007FFF2822214628460BF075FF0B990094F4
:104880002A4623465046FEF7D7FDBAF83880B8F1DD
:10489000000F00F01E83CDE9149B01239FED12AAA7
:1048A0009FED12BADFED12AA139E0F9325469AF8D8
:1048B0000430032B00F20185DFE813F051010301FE
:1048C0007F001C0030D1C0ACAC000020CC620108DD
:1048D000805A010800000000583934BBE1AFA10F35
:1048E000F4590108105A01088E407C3F0000AC4288
:1048F000FFFF7F7F9AF80530002B00F04A819AF87D
:104900001D00F0EE687AA0B10AF13C0100230AF123
:10491000190731F8022B954207D30A88AA4204D915
:10492000FA5C06EB8202D2ED007A01339AB282423F
:10493000EFD3BAF86220BAF86010DAF8747053183E
:104940009BB29D42C0F01281A8EB030080B2854269
:1049500080F00C8101322A44EB1A92B29BB20029FA
:1049600000F0B18201F1FF3C13FA8CFC381DB0EE6F
:10497000687A07EB820207EB830300EB8C0CF3EC05
:10498000016AB2EC016A36EE877A9C4537EE067A08
:10499000F5D14B009BB2002B00F0958206EE903AC9
:1049A000F8EE666A87EE266AA3B298009AED170AB7
:1049B00067EE807A37EE860AAEE09AF81E301099DC
:1049C0000D9A013BDBB2521A042B12B208EE102AE8
:1049D0009EBFB44A02EB8303D3ED000AB8EEC88A47
:1049E00088BFF0EE4B0AC8EE200AB0EE000A09F0CC
:1049F00097FEDAF89C20BAF83A109AF80570A3B23C
:104A000002EB830228EE098AD2ED007A294487EE70
:104A1000806A89B2980038EE0A8A002F00F0AB80D5
:104A20009AF81D70002F00F0BC830AF13C02F0EEF2
:104A3000687A96464FF0000C0AF1190B3EF8029B7B
:104A4000494509D3BEF80090894505D91BF80C905B
:104A500006EB8909D9ED007A0CF1010C1FFA8CF9EB
:104A60004F45EBD867EEA76ADAF8A8E0F0EE687A6F
:104A70004FF0000C32F8029B494507D3B2F8009082
:104A8000894584BF0EEB8C09D9ED007A0CF1010C3D
:104A90001FFA8CF9B945EDD367EEA77A26EE067AB0
:104AA00028EE268A67EE277A9AED177ADAF874707C
:104AB00037EE888AB1EEC80A20EE070A30EE060A01
:104AC0002AE0FEF7C7F9BAF82830DAF834109AF875
:104AD0000520DAED04BA13FB05F311FA83F307EEB0
:104AE000903AF8EEE77A0DF1700927EE808A1BAF55
:104AF000B0EE480A4B46009731465046FEF7D4F9CF
:104B00000F90002840F02981B0EE680AA3B2DAF8CD
:104B10007470BAF8388098003844D0ED007ADAF82A
:104B200080205B09F4EEC07A52F8231005F01F05CF
:104B30000120F1EE10FA00FA05F504F10104CCBFF2
:104B40002943A943A5B2454542F82310FFF4AFAE6F
:104B50000F9BDDE9149B002B69D101240AE6A3B267
:104B60009AED030ADAF874709800D5E7A3B29800BA
:104B7000B0EE6A0AD0E7D6ED007A9AF81D70DAF83E
:104B8000A8E067EEA76A002F00F008830AF13C0254
:104B90006CE7D6ED007ACCE6BAF888719AF804B0E2
:104BA0006FB30AF14806304600223946FBF73CFE57
:104BB000012F40F2FB82002420462546234607F1C0
:104BC000FF3806EB0312D2ED076AD2ED037A92EDBD
:104BD000047A92ED006AF4EEE67AF1EE10FA37EE1E
:104BE000467AD8BFF0EE667AB4EEE77A0135F1EE98
:104BF00010FAADB263D4291A132C89B254D90A9A87
:104C00009AF88A510023AAF8883189F84020BE9A80
:104C100082F85030BE9A069882F85150099A0123C2
:104C200013700DF5277DBDEC0E8BBDE8F08FDAF823
:104C30008C301593B8F1010FBAF89030169340F20A
:104C40004D81002314936FF0404E012308F1FF348F
:104C500012E003EB0E0107EB810191ED007AD1ED3B
:104C6000017AB4EEE77AF1EE10FAC0F2E88001338F
:104C70009BB2984540F21C81591E480901F01F0162
:104C800052F8200020FA01F1C807F0D5580903F0C6
:104C90001F0152F8200020FA01F1C907D9D40233CC
:104CA0009BB2E6E7B022010856AB324603EB041391
:104CB0000029A4D00134FEF705FAA4B228464545E0
:104CC0002B46FFF47EAF874240F28382132C96D8A6
:104CD000391A56AD621C05EB041389B294B2324600
:104CE000FEF7F0F9BBF1010F00F06A820C9BA3F80C
:104CF00050400C9A0023296842F8041B013399B2F2
:104D0000A86850628C4205F11005F4D80A9A9AF806
:104D10008A510C990023AAF8883189F84020BE9A5C
:104D200081F8525082F8504051F8040B42F8040BBD
:104D3000013398B24E6A56628442F5D86AE7BE994A
:104D400099F80231B9F9042181F85230D9F80831C3
:104D50000D92A1F854200B93A5E4BAF828109AF804
:104D600006009AF81E801691FBF7E8FB169940465C
:104D7000B0EE40CAFEF778FDB5EEC08AF1EE10FA4B
:104D80007FF7C2AED7ED00CAF5EEC0CAF1EE10FA59
:104D90007FF7BAAEF7EE000A09F086FBF7EE000ADD
:104DA000B0EE40DA99ED000A09F07EFBF0EE40DA51
:104DB000B0EE4D0A09F07EFCF2EE047AB0EE407AD5
:104DC000B0EE6C0A67EE27CA09F074FC08F1FF33F5
:104DD000DBB2042B98BFB64AB3EE04DA98BF02EBFD
:104DE000830320EE0DDAB0EE6D0A94BF93ED00EA76
:104DF000B0EE68EA09F05EFCF0EE407AB0EE480AE8
:104E0000B0EE678A09F056FCF2EE046A68EE267A84
:104E10007CEE8DCA77EE8E7A2CEE267A77EEAC7A1F
:104E200027EE007AF3EE040A77EEC77AB0EE660A50
:104E300077EEAB7AC7EEA00A09F072FC66E6591C61
:104E40009C468BB2A3424FEA531103F01F06BFF4F6
:104E500010AF52F82110F140CE0707EB830507EBA6
:104E60008C007FF506AF95ED007AD0ED007AB4EEB8
:104E7000E77AF1EE10FA03F10101E1DCE1D50CF182
:104E80000101480901F01F0152F8200020FA01F148
:104E9000C9077FF5EEAE16990D4614998D42084666
:104EA00014D9159D013189B225F810C01491E0E69E
:104EB0000F9B002B40F0C6807E4B7F4A9B6B7F4947
:104EC0000F98984749E6B0EE686A6DE500210F91AA
:104ED000CFE6DAF88C30DAF874701593FDF7BAFF84
:104EE0002DAB039323AB0293BAF828300193BAF9A0
:104EF000343000934146159A4FF00008384600239D
:104F0000FBF702FDADF88080ADF88880CDF85080C9
:104F10009AF80430032B00F0C0810022104611469D
:104F2000BAF838309B1A052B40F25D81DAF88030F0
:104F3000400901F01F0253F82030D34013F0010361
:104F400025D0DAF874309FED5E7A03F10C0404EB9F
:104F5000810403EB81028800F2EC017A944237EE7F
:104F6000277AF9D103F118020331DFED557A03EB0B
:104F700081030244F3EC016A9A4277EEA67AF9D1F2
:104F8000B4EEE77AF1EE10FAACBF012300238DF8FE
:104F90008A30149B002B3FF4E0AD149BCDF83CB05D
:104FA000013B9BB224AE06EB8303DDED236A9DED4E
:104FB0002D7ADDED377AB9F888410DF1B80838AFB0
:104FC0009B4618E03B4B9B6B9847B9F88841012002
:104FD000651DFBF7A3FA0134A4B209EB0515B3452F
:104FE00085ED010AA9F8884129D0F6EC016AB8ECF0
:104FF000017AF7EC017A3149324A651D132C09EB2D
:10500000041309EB051E4FF000000DD8DAF800C0BC
:10501000C3ED126A83ED137A2B4BCEED007A9C45DB
:10502000D0D19AF81E00D4E7224B284A9B6B28491E
:10503000DDF83CB0002098470024FFF79BBBDDF86B
:105040003CB08AE5FDF706FF2DABBAF838100393A4
:1050500023AB0293BAF82830149C0193BAF9343088
:105060000093159A38462346FBF74EFCADF878407E
:10507000ADF88040ADF88840002C3FF449AF631E86
:1050800024AA9BB202EB8303094A9FED12BADFED1B
:1050900012AA3C3217921CAD1BAACDE9189B23AC77
:1050A000DDF84C900F922DAF37AE9B46A8462EE010
:1050B0009C220108AC0000209C620108105A0108E3
:1050C00000000000F4590108E1AFA10FB46201082B
:1050D000485A010815355E3CEC046C3F7F4B03EBEE
:1050E0008100179BD0ED007A03EB8101D1ED006ABE
:1050F00014ED017A69EEA77AA34577EEA67A77EEEA
:10510000677A44ED017A46D00436002A43D0B4ECE5
:10511000018A0F9B9AF805200093B0EE480A434697
:1051200049465046B7EC01AAFDF7BEFE024650B90B
:105130009AF81E100139C9B20429CFD9F0EE4B6A92
:10514000F0EE6A7AD4E7BAF8281016909AF80600BA
:105150009AF81E501591FBF7F1F915992846F0EED3
:1051600040BAFEF781FBB5EEC08AF1EE10FA169A4E
:105170000CDDB5EEC0AAF1EE10FA07DD0F9BD3ED02
:1051800000CAF5EEC0CAF1EE10FA2EDCF0EE687A35
:10519000C6ED007ACCE7DDE9189BB9E6F0EE687A57
:1051A0007CE4F0EE687AF0EE686A77E456AD0121AF
:1051B0002B460C46002092E5002C3FF420AD56AD66
:1051C000012221462846FBF72FFB0C9BA3F85040F9
:1051D0008FE5BBF1010FEFD00C9BA3F85040002CE2
:1051E00060D056AD85E50023D1E6F7EE000A1592B2
:1051F00009F05AF9F7EE000AB0EE40CA98ED000A3D
:1052000009F052F9B0EE40DAB0EE4C0A09F052FA69
:10521000B2EE047AB0EE40CAB0EE4A0A2CEE07CAEB
:1052200009F048FAB0EE40AAB0EE6C0A09F042FA72
:10523000691EC9B2042998BF294B159A1592F3EE3D
:1052400004DA60EE2DCA98BF03EB8101B0EE4D0A7F
:105250002AEE2DAA94BFD1ED00DAF0EE68DA09F05B
:1052600029FAB0EE407AB0EE480AB0EE478A09F06B
:1052700021FAF2EE046A28EE267A7AEE6C7A37EE9C
:105280002D7A6BEEA6BA77EEC77A6BEE80BA159AD6
:1052900077EEAB7A77EECC7A7AE7BAF86410084604
:1052A0004A003DE60A9B9AF88A51AAF8884189F893
:1052B0004030BE9B83F85040ACE40A4B0A4A9B6BDB
:1052C0000A4900209847A3B20022DAF87470BAF8AD
:1052D00038800F92B0EE680A98001DE4C4220108DD
:1052E0009C220108AC00002080620108105A0108CD
:1052F0002DE9F04F2DED048BA9B00024CDE9174422
:10530000199431B1914698460A68A24B9A428B464D
:1053100007D0FBF7D5FC002029B0BDEC048BBDE81D
:10532000F08F1AAA82461EA958461E941A94FBF7BB
:1053300011FD1E9B369A93420FD81A9B389A9A42B7
:1053400016D2954DAB6B954A9549002098470020A1
:1053500029B0BDEC048BBDE8F08F8F4D914AAB6B4B
:105360008F49204698471A9B389A9A42EAD3D2E747
:105370009BF81430052B00F20F84DFE813F0B8011E
:105380002301BE0088001C000600834B93F84020D8
:105390004AB19B6B844A8249012098479BF814309C
:1053A000052B40F0B381399B0120187029B0BDEC6A
:1053B000048BBDE8F08F369A4146504605F01AF945
:1053C00005900028A7D09BF84030002B40F0508279
:1053D000DBF86C0017AA414605F050FADBF80C31F7
:1053E00053B19BF84020DBF84400002A40F046828D
:1053F0000BF1C80217A99847DBF80C209BF8403046
:105400000892199ADBF83C6009EE102A1846002B26
:1054100040F02B82DBF81820DBF834100991379923
:10542000B6F844308A180D92002B00F0EA81CDF8CE
:105430001880CDE90AAB9FED618ADFED5C8ACDF87B
:1054400030900027804606E0B6F844200137BBB212
:105450009A4240F2CD81BDB2AB1C56F823402046A3
:10546000FBF7C4F90028EFD02046FBF7A7F98045E9
:10547000EAD124B123684E4A934200F04D81464B55
:105480004C4A9B6B4C4900209847002044E7369AD1
:105490004146504605F0AEF800283FF43CAFDBF83B
:1054A000680017AA414605F0E9F9DBF80C312BB189
:1054B000DBF8440017A90BF1AC029847DBF8203069
:1054C000DBF80C20379CDBF85C101998234442442D
:1054D000FEF782FD00283FF41EAFDBF83C00FBF72F
:1054E000CDFB002800F028839BF84030002B00F013
:1054F0002D83012B3DD000213DE0369A4146504698
:1055000005F078F800283FF406AFDBF8640017AA2E
:10551000414605F0B3F9DBF80C312BB1DBF8440060
:1055200017A90BF190029847DBF81830DBF80C2034
:10553000379CDBF85810199823444244FEF74CFD81
:1055400000283FF4E8AE5846FBF7D2FB044600289B
:1055500040F0A081DBF83C00FBF790FB002800F056
:10556000EB829BF84030002B00F0F082012B40F0E2
:105570001183DBF85C10369B00934A464346504645
:10558000FDF71AFE00283FF4C6AE04238BF8143052
:10559000BCE000BF30D1C0ACAC000020006301080B
:1055A000805A0108E862010838630108ACC5273752
:1055B000E1AFA10FF4590108105A010800000000E2
:1055C0000AD7233B369A4146504605F013F8002887
:1055D0003FF4A1AEDBF8600017AA414605F04EF992
:1055E000DBF80C312BB1DBF8440017A90BF1740286
:1055F0009847DBF80C30199D379EDBF82C400121D1
:10560000002708461EAACDE91E77CDE9207734444D
:10561000229708EB0306FEF769FC2B461FED196A7B
:10562000354603F1C8013246B3F9020007EE100A0D
:1056300033F9040BB8EEC77A07EE900A67EE066AF4
:10564000F8EEE77A994277EEA67A82ED017AC2ED1A
:10565000007A02F10802E7D11EA832233246314611
:10566000FDF73AFE3246002132233046FDF7B4FD05
:1056700000211FED2E7A0A46F5EC017AF4EEC77A86
:10568000F1EE10FA8BB201F10101C4BFB0EE677AFE
:105690001A463229F0D11AAB039316AB0293ADF838
:1056A000562001236FF01D023046019300921FED3A
:1056B0003C0A00250DF156021695FBF725F9169BBD
:1056C00023605846FBF726FB002800F0DD80369B60
:1056D0000093DBF8501043464A465046FDF76CFDF8
:1056E00000283FF418AE02238BF814300EE0369BEE
:1056F0000093DBF84C1043464A465046FDF75CFDEC
:1057000000283FF408AE01238BF81430012029B0A3
:10571000BDEC048BBDE8F08F06EB8505E26FEB690D
:105720000792089A296B206FD4F888501344069A80
:105730001344099A1144079A18441A442B44379D7C
:105740006067C4F88C302944C4F880202046FBF7F9
:105750000FF8237E002B7DD1657925BB94F86D3041
:105760000BBB282229461EA80AF0FDFF012319EED3
:10577000101A1EAA20460095FDF75EFEB4F8C4205C
:10578000D4F8C00092001EA90BF04CFA63790122F4
:1057900084F86D2043BB94F86C30002B7FF454AE3A
:1057A0000023059350E62379022B00F0A0802822E5
:1057B00000211EA80AF0D7FF002300931EAA19EEAD
:1057C000101A2046FDF738FEA24B93F84020012A1C
:1057D00004D99B6BA04AA1490220984763791BB961
:1057E00094F86D30002BD6D12379022BD8D1D2E793
:1057F000DDE90AAB9BF84030DDF83090DDF8188029
:10580000184603465B44059A83F848205846FBF740
:1058100093FA0BEB000393F848300BB98BF8400078
:105820009BF8483023B19BF84930002B40F0918120
:105830009BF84030002B40F08381DBF85810369BFA
:1058400000934A4643465046FDF7B6FC00287FF4D5
:10585000A5AD60E5627915460AB984F86D20237913
:10586000022B27D00023237677E7DBF82020D3E52F
:10587000012B0CBFDBF870000020ABE5012A0CBF48
:105880000BF1E4020022B5E55846FBF731FA002897
:105890003FF441AD369B0093DBF8541043464A4633
:1058A0005046FDF789FC00283FF435AD03238BF803
:1058B00014302BE7208F90B1D4F8CC20D4F8D81036
:1058C000013880B2131D03EB800000E004338342F3
:1058D00082ED008AA1EC018A1A46F7D16279012192
:1058E00000231546A4F86A1084F86C30BAE794F8DF
:1058F0006C90B9F1000F7FF45AAF282249461EA8D8
:1059000001250AF030FF4B4619EE101A00951EAA29
:105910002046FDF791FDCDE91A99CDE91C996379EF
:10592000002B00F0048194F81DB01FFA8BF3BBF13B
:10593000000F00F02D81013B04F11A000D9D10FABB
:1059400083F004F119021AA912F8013B05EB830355
:1059500082421B6841F8043BF6D1238F1293002B3F
:1059600000F00B81D4F8CCC0626FD4F8D8E0079275
:1059700003F1FF3A1FFA8AFA0CF10400114600EB1A
:105980008A0915464FEA8A0A6346724691ED007A03
:10599000D3ED007A77EE877AE3EC017AF1EC017AC5
:1059A00092ED007A67EEA77A994577EE877AE2EC76
:1059B000017AEBD1B4F86A300E93012B40F2AB8040
:1059C0000E9A531E9BB207EE903A07EE102AF8EE9D
:1059D000677AF8EE476A079AD4F89C301093C6EEBF
:1059E000A75A04325244DCED007A87EEA67A844648
:1059F0000430A3EC017ABEEC016AC6EE267A27EEEB
:105A0000077A77EEC77AF0EEE77A67EEA57AB1EE1D
:105A1000E77AA5EC017AAA42E5D1D4F8A820B4F837
:105A20003AE00F921FFA8BF3BBF1000F73D0013BEA
:105A30009BB204F13E0909EB4309079BDDF848A03E
:105A4000CDF84C80043304F13C004FF0000C11936E
:105A50000CE000BFAC00002020630108105A0108D0
:105A60000000000081450CF1040C52D030F8025FB8
:105A7000A5EB0E0292B25245F4D830F8028CA8EB96
:105A80000E039BB2934275D21AA901EB0C0B013A9B
:105A9000AEEB08011144119A9BED006A5FED105ABC
:105AA00013FA81F102EB8101079A02EB830B109A42
:105AB00026EE066A02EB83035A46F2EC017AB3EC57
:105AC000017A67EEA77AF0EEC76A77EEC67AF5EE4E
:105AD000C07AF1EE10FAF4EEE86AD8BFF0EE487A38
