:020000040800F2
:1000000000000120599A0008598900085589000804
:10001000518900084D890008498900080000000046
:1000200000000000000000000000000041890008FE
:1000300045890008000000003D8900082D8900085E
:10004000A99A0008A99A0008A99A0008F18800084E
:10005000A99A0008A99A0008A99A0008A99A000874
:10006000A99A0008DD880008A99A0008A99A000842
:10007000D1880008C5880008A99A0008A99A000834
:10008000B9880008AD880008A99A0008A99A000854
:10009000A99A0008A99A0008A99A0008A99A000834
:1000A000A99A0008A99A0008A99A0008A99A000824
:1000B000A99A00080000000000000000A99A0008AA
:1000C000A99A000885880008A99A0008A99A00083A
:1000D000A99A0008A99A000875850008A99A00083D
:1000E0006185000801850008000000000000000094
:1000F0000000000000000000000000000000000000
:1001000000000000A99A000800000000A99A000859
:100110000000000000000000A99A0008A99A000849
:10012000A99A0008A99A0008A99A0008A99A0008A3
:10013000A99A000800000000000000000000000074
:10014000A99A0008A99A0008A99A000800000000CE
:10015000A99A0008A99A0008A99A0008A99A000873
:10016000A99A0008A99A0008A99A000800000000AE
:10017000A99A0008A99A00080000000000000000E9
:10018000A99A0008A99A0008A99A0008000000008E
:1001900010B5054C237833B9044B13B10448AFF3C1
:1001A00000800123237010BD90000020000000009B
:1001B0002CBE000808B5034B1BB103490348AFF33D
:1001C000008008BD00000000940000202CBE000844
:1001D0000F49104A086813691B0704D50D4B1869AD
:1001E000C0F3C00070470B681B1AB3F57A7FF5D2D5
:1001F00072B613691B0700D430BF62B6BFF36F8FAE
:1002000013691B07EFD5034B1869C0F3C000704793
:10021000AC00002000040048154BDB68C3F3022348
:1002200010B4C3F107041A1D042C28BF0424062AA5
:100230004FF0FF3202FA04F28CBF033B002321EAA5
:1002400002019940431C0AD000F1604000F5614072
:100250000901C9B280F800135DF8044B7047044BE4
:100260000901C9B283F823105DF8044B704700BF41
:1002700000ED00E0F0B40568294F064601E0581C87
:1002800006D1EC6931EA0400F9D10020F0BC7047D6
:100290003868801A834227D333B328684407F0D5DF
:1002A000E8690005EDD54FF400632B6255E8003F87
:1002B00023F4D07345E80032002AF7D1326802F106
:1002C000080353E8003F23F0010302F1080040E86F
:1002D00000310029F3D12023B36786F87410F36747
:1002E0000320C6F88030D1E755E8003F23F4D073EF
:1002F00045E80032002AF7D1326802F1080353E8DA
:10030000003F23F0010302F1080040E8003100291A
:10031000F3D12023B36786F874100320F367B5E7A1
:10032000AC000020224A03460068904230B43BD81B
:10033000204A2149214C1C640244A1FB02121209EB
:1003400092005A64022283F8252001689D68D3E94F
:10035000052421F4FF4121F070012A430A4322437E
:1003600042F08002B5F5804F026014D0196C134A38
:10037000914208BF12495A6C18BF124902F01C0082
:100380000F240A68844022EA04020A605A680C6852
:10039000824022430A6000200122D86383F82400AF
:1003A00083F8252030BC7047074A0349074CC2E751
:1003B00007040240F8FFFDBFCDCCCCCC00000240CA
:1003C000A8000240A8040240F8FBFDBF0004024060
:1003D0002DE9F041654C94F82430012B00F0C280E7
:1003E00061680122022384F8242084F825308E6875
:1003F0000278056A16F0400616BFC678C670B605C4
:10040000092A09D900230A3AD2B2092A03F10103C1
:10041000F9D842EA0312D2B24378092B4FEA0242DA
:1004200009D900270A3BDBB2092B07F10107F9D8EC
:1004300043EA0713DBB290F802E0BEF1090F4FEA7E
:1004400003280DD90027AEF10A0E5FFA8EFEBEF129
:10045000090F07F10107F6D84EEA071E5FFA8EFE74
:1004600090F824C0BCF1090F0DD90027ACF10A0C9B
:100470005FFA8CFCBCF1090F07F10107F6D84CEAD2
:10048000071C5FFA8CFC436947681D432E433243C7
:1004900048EA0203826AC669CA2553204D6243EACC
:1004A0000E0E4862B2F5807F4EEA0C638A6846EA17
:1004B000070639D022F400728A60CA68D2B262F4A8
:1004C0002072CA60256804E02068401BB0F57A7F7E
:1004D00020D8CA6812F00202F6D00B628E648B68D4
:1004E00043F400738B608B6843F400538B60204BA4
:1004F0001A6842F480221A609A68FF2642F4802229
:10050000012500209A604E6284F8240084F825506A
:10051000BDE8F0810323FF2084F8242048621846B8
:1005200084F82530BDE8F08122F480728A60CA68C0
:10053000D2B262F4C072CA60256804E02068401B31
:10054000B0F57A7FE6D8CA6812F00102F6D0CB6126
:100550004E648B6843F480738B608B6843F48053E4
:100560008B60C4E70220BDE8F08100BFAC00002032
:100570000004014009494A68D36823F0A003D3600E
:10058000086804E00B681B1AB3F57A7F04D8D368B7
:100590009B06F7D50020704703207047AC00002071
:1005A00008B5114BDA6822F08002DA609A68920688
:1005B00003D4FFF7DFFF88B908BD9A6822F0200254
:1005C0009A60FFF7D7FF18B1084B032083F8250086
:1005D000054A936843F02003936008BD034B032052
:1005E00083F8250008BD00BF00280040AC000020B3
:1005F0000E494A68D06810F0400001D000207047D2
:100600004FF0FF3330B4D3600C68032509E00328B2
:100610000AD00B681B1BB3F57A7F84BF81F8255085
:100620000320D3685B06F2D530BC7047AC000020D5
:100630000288438843EA02430B607047DFF884C0B6
:100640002DE9F04F023802390CF1E20A0CF1E40B0B
:100650004FF0000840F6DE1930F8025F31F8024F23
:10066000A54220D09CF800500BEBC5056C8824B344
:100670006F6847F6FF76002507EB840E57F8044BAA
:10068000A4B2A64228BF2646A54238BF2546BE458D
:10069000F4D17600B6B26D00ADB2B14528BFB14617
:1006A000A84538BFA8460CF1010CD445D4D1A2F816
:1006B0000090A3F80080BDE8F08F254647F6FF764E
:1006C000E7E700BF48BE00080B4A30B4411E00F106
:1006D00087054FF0FF3011F8014F08236040C40731
:1006E0004CBF82EA50004008013BF8D18D42F2D164
:1006F000C04330BC704700BF2083B8ED2DE9F04FF8
:10070000054687B0002405EB410E02900592104685
:1007100004910393AEF1120EAA1E27460194A1463E
:10072000A2464FF0010C40F2EE2B14E0BAF1000F9C
:1007300030D14B4535DD99460124019E7642B342C6
:10074000BCBFA8EB050301938F4238BF0F46964507
:1007500000F102002BD0558A32F8021F6B1A03F504
:100760000046B6F5803F38BF038088462CBF4FF067
:10077000000C11885B45D9DC594E9945B8BF9946A4
:10078000B342DADA002C0ABF4FF0000CA2464FF059
:10079000010AD2E74B4506DD994654464FF0000C5E
:1007A000CBE70124C9E754464FF0000CC5E7BCF184
:1007B000000F05D14FF0000A504607B0BDE8F08F9A
:1007C000002CF7D0BAF1000FF4D0049A059E0497DC
:1007D0000023CDF81490A2F11C0E123698469C46C8
:1007E0001D461F46994636F9023F03EB830203EB91
:1007F0004203304631460A2231F902BD30F9024F38
:1008000002FB0B33A2F1020B013A0BFB0433F3D1D1
:10081000634561DC434501DA9846A94601357545D3
:10082000E1D14CF250339C4538464C46049FDDF8EC
:100830001490BFDD2B4B9845BCDAB9F1000FB9D04D
:10084000019B002BB6D0029B11991B88FF00DB0097
:1008500041B1BB4204D2DA434A443A44B2FBF9F212
:1008600011990A60109A002AA6D0039A002AA3D0F0
:10087000024602990E3231F81210B3EBC10F4FEA63
:10088000C10005D2DB434B440344B3FBF9F3D21A56
:10089000029B04F10E0933F81930B7EBC30F4FEA8E
:1008A000C30107D90198431E3B445B1AB3FBF0F325
:1008B000A9EB0309002AFFF67DAFB9F1000FFFF69F
:1008C00079AF4A453FF776AF109BA9EB0209C3F811
:1008D0000090039B1A606FE79C462F469EE700BF7F
:1008E00012FDFFFFB03CFFFF704700BF70B4124E17
:1008F000124D00F1BC04002143680B44024640F84D
:10090000043F12689A1AB24209DD50F8042CA3F58C
:10091000C9237E3BA1F5C92103607E399A1AAA42F8
:1009200006DA03F5C9237E3301F5C92103607E3160
:100930008442E1D170BC70473F240300C1DBFCFF5F
:1009400070B48C8893680E898D79CA799A70003C4E
:1009500018BF01249E801C705D70986070BC704749
:100960000368D0F8E820C0F8F0205A68184610470D
:10097000D0E90F23816B0069184700BF0068C36886
:10098000184700BF704700BFF8E700BF00688368E2
:10099000184700BFFAE700BFF0E700BFF0B4314BE3
:1009A000314E1B68056882B000248DF8034034681E
:1009B000376803EB8303C4F16404C3EBC30322442D
:1009C0001B0D02FB03F30193AB6819420AD12CE023
:1009D000019C019B013B0193AB68002C08BF0022E6
:1009E000194222D0B1F5C06F05D12B7BDBB28DF857
:1009F00003309DF803303368DB1B9A42E8D86B68FC
:100A0000426823F0E003B2F5827F6B601AD0836AFC
:100A1000B3F5005F0DD00122002380F85D2080F83F
:100A20005C30032002B0F0BC7047002002B0F0BC84
:100A300070472B6823F400532B602B6843F400535A
:100A40002B60E8E78368B3F5004F02D0B3F5806F01
:100A5000DDD12B6823F040032B60836AB3F5005F80
:100A6000D9D1E6E700000020AC00002070B4294D89
:100A7000294B2A681B6804682E68C2F1640211447D
:100A800083B0C3F3CB3301FB03F30193A3681A06CE
:100A90000DD52B689B1B8B420DD2019A019B013B0C
:100AA0000193A368002A08BF00211B06F1D400208F
:100AB00003B070BC70476368426823F0E003B2F58E
:100AC000827F636016D0836AB3F5005F09D001228C
:100AD000002380F85D2080F85C30032003B070BCF8
:100AE0007047236823F400532360236843F40053C2
:100AF0002360ECE78368B3F5004F02D0B3F5806F55
:100B0000E1D1236823F040032360836AB3F5005FDB
:100B1000DDD1E6E7AC00002000000020836910B5BD
:100B20000446BBB10D4B93F828204AB963697BB1E9
:100B30000A4B0B4ADB6B0B4900209847002010BD85
:100B4000DB6B094A0749012098476369002BEFD105
:100B5000012010BDC369002BE4D1E7E7AC00002001
:100B600078FD00085CFD000840FD000870B40169D4
:100B7000B0F8422090F8383031F81220032B08BF2B
:100B800082F4004240F2E51303FB02F31B0C826C7B
:100B9000A3F589739BB21380828F31F812204AB17A
:100BA000B0F8402031F81220012A03D9C26C012488
:100BB000147002E0C26C00241470C48F428F31F8AC
:100BC000145031F81240B0F9441040F2E51202FB23
:100BD00005F2120CC2F5897213441BB2002BB8BF88
:100BE0005B42D0E914651BB2A4F10102006899428E
:100BF000B2FA82F24FEA5212ACBF002301233270E4
:100C000042682B7070BC104770B50446806978B19B
:100C1000E36943B10F4B93F8282022B1DB6B0E4AF6
:100C20000E49012098472068BDE870408368184746
:100C3000084D0B4AEB6B09499847E3693BB195F8BE
:100C4000283023B1EB6B044A044901209847002067
:100C500070BD00BFAC000020CCFD0008BCFD00084A
:100C6000A0FD00082DE9F047C26DD0F81880066994
:100C70000023A8F8023004461D46137000F14C070B
:100C8000994657F8043B03B3B3F838C0B3F8900063
:100C9000B3F89210B3F8D82006EB400006EB410100
:100CA00006EB420206EB4C0CC3E91301C3F8A42087
:100CB000C3F814C088F800501868D3F8DC204168E5
:100CC00083F8E490C3F8E02088470135EDB2042DA5
:100CD000D7D12068BDE8F04743681847704700BF88
:100CE000704700BF704700BF704700BF52B101EBB3
:100CF0008202043850F8043F4B801B0C0B800431F7
:100D00009142F7D1704700BF30B583B000EB42008D
:100D10000D4601A91C46FFF78BFC019A22F00F0239
:100D200004B12A430092014601226846FFF7DEFF24
:100D300003B030BD2DE9F04F87B0BDF84070DDF84D
:100D400044A003EBC7077B8883B381460E4601EBC3
:100D5000020800254FF0010B7A6852F82540620026
:100D600092B2B242C4F301701DD342451BDA01288E
:100D70000CD0022836D0E8B1324B334ADB6B334912
:100D800000209847002007B0BDE8F08FBAF10003BB
:100D9000A2EB060218BF012392B2C4F303414846F6
:100DA000FFF7B2FF7B880135AB42D5D8012007B0F1
:100DB000BDE8F08FC4F344530BFA03FC921BE245E9
:100DC00091B21ED30CF1FF331E4A0193CDF800A05F
:100DD000D46B1F4A03900B461C49A047039807B0E9
:100DE000BDE8F08F921BBAFA8AF35B0992B2C4F3A2
:100DF00003414846FFF788FF7B880135AB42ABD8FB
:100E0000D4E709EB410004A90393FFF711FC039B0E
:100E10004FF0FF32C3F12003C4F3044422FA03F37A
:100E2000049AA34022EA03020AFA04F40146144396
:100E300005A801220594FFF759FF7B880135AB42D5
:100E40008AD8B3E7AC00002020FE000814FE00089A
:100E5000DCFD00082DE9F04FC2F51D669A461B68BF
:100E6000164C0E36B34298BF9EB2154B054688BF4E
:100E7000B6B2500803EB800083B01746720888466C
:100E8000023DFFF733FF04F1E10904F1E40B7D2398
:100E900001E014F8013F35F8022F3946CDE9003260
:100EA00040465B463246FFF745FF4C4501D00028DF
:100EB000EFD1CAF8006003B0BDE8F08F48BE00086B
:100EC000B8E8000800230138C1E90133CB600428E9
:100ED0002ED8DFE800F00C1625290300174B184A1E
:100EE00000200870C1E90533CA6101207047154B25
:100EF00000220A704FF48022C1E90533CA61012043
:100F0000704730B4104B114CCC6101209625FA2269
:100F1000CD60C1E9012230BCC1E9053308707047DA
:100F20000B4B0C4A0020DCE70B4B0C4A0020D8E7A7
:100F30000020C1E905000870C8617047080005007D
:100F40000B00020002000100080001000200030083
:100F5000080002000400020008000300060002006E
:100F60002DE9F04F1E4EDFF88480814615460FCEE6
:100F700091B002AC0FC40FCE0FC40FCE0FC496E8D1
:100F8000030098F82830012B84E8030007D9D8F82B
:100F90003C40144A144900954B460220A047DFF814
:100FA00050B0DFF844A002AC10AE02E00834B44206
:100FB00013D0A3881D42F9D098F82830012B5A4647
:100FC0004B4651464FF00200F0D92768009708348D
:100FD000D8F83C70B847B442EBD111B0BDE8F08FFF
:100FE000BCC60008B0FE0008CCFE0008AC00002023
:100FF000E0FE000830B50A4C94F82850012D85B069
:101000000BD9CDE901120346A1F58C7080B2009096
:10101000E46B044A04490220A04705B030BD00BF7C
:10102000AC000020F4FE0008CCFE000830B50346FA
:10103000A1F16204104814F0010FA5B285B090F838
:1010400028400CD1012C08D9CDE901126D0800957A
:10105000C46B0A4A0A490220A04705B030BD012CE2
:10106000FBD9CDE901126D080095C46B054A04490E
:101070000220A04705B030BDAC0000201CFF0008D6
:10108000CCFE000854FF000830B5094C94F82850F5
:10109000012D83B009D97D3989B2CDE9001203460B
:1010A000E46B044A04490220A04703B030BD00BFEE
:1010B000AC0000208CFF0008CCFE000810B50849E9
:1010C00091F82840012C82B008D902F00F0200925A
:1010D000CC6B044A044903460220A04702B010BD6D
:1010E000AC000020BCFF0008CCFE000830B5094C65
:1010F00094F82850012D83B009D92C3989B2CDE953
:1011000000120346E46B044A04490220A04703B0DE
:1011100030BD00BFAC000020DCFF0008CCFE0008A2
:1011200030B50C4C94F82850012D83B010D91146DD
:10113000094DE46B094A11F4006F03460848C1F3F6
:101140000A0118BF2846CDE9000106490220A04740
:1011500003B030BDAC0000200C00010814000108F1
:1011600004000108CCFE000810B4084CA48D490806
:1011700064088C4228BF0C46023C24F00104043071
:1011800010601C605DF8044B704700BFAC0000208D
:10119000F8B50688002A14BF4FF480524FF400526D
:1011A000B6F59C6F38BF4FF49C66B24205460F46B9
:1011B0001C4623D2134B144ADB6B1449002098477A
:1011C0004FF0000E1249134A134BE360C4E90112B9
:1011D0000FCD203676004FF0000CA4F802C004F1C9
:1011E000300C24F8106B0FC495E80F0007C497E883
:1011F000030023808CE803007046F8BD4FF0010E19
:10120000E0E700BFAC00002028000108480001080A
:101210000100020003001B001C00200010B1024B63
:101220005B6B1847704700BFAC0000202DE9F04110
:1012300007680446C7B1D7F8980080B100F14C05A3
:1012400000F15C064FF0000855F8040B18B1FFF7E9
:10125000E5FF45F8048CB542F6D1D7F89800FFF7C2
:10126000DDFF3846FFF7DAFF2046BDE8F041D5E75D
:10127000DFF864C02DE9F047DCF840501DB12B4683
:10128000BDE8F047184712B35200A1F10208A2F1DD
:1012900002090E469A4607464944444634F8025F1E
:1012A0006DBA8C422580F9D1DCF838403846314699
:1012B000A047BAF1000F01D1BDE8F0874E4438F8DD
:1012C000023F5BBAB045A8F80030F8D1F4E7BDE8BA
:1012D000F047DCF838301847AC00002070B5012525
:1012E00084B041F4A0430446164603A92A4601A847
:1012F000ADF808300196ADF80A50FFF7F7FC20462C
:1013000002A900230422FFF7B3FF04B070BD00BFA1
:101310002DE9F04782B01D4643F44053BDF8284004
:10132000ADF8003000278A46914669460123032222
:101330008046ADF80270ADF80470FFF799FFBDF973
:10134000046004FA0AF1714001EA090445F4805589
:1013500040463B46694674400222ADF80050ADF865
:101360000240FFF785FF02B0BDE8F08730B583B0DB
:101370000025294600957B23FF220446FFF7C8FF7E
:101380000121204600918B230222FFF7C1FF009527
:1013900020468B2380220721FFF7BAFF03B030BD20
:1013A00030B583B041F4805415460023022201A9D0
:1013B000ADF80440ADF80650FFF75AFF03B030BD5A
:1013C00070B582B003220E4600210D4604460092FD
:1013D00040F24913FFF79CFF204640F249130422D4
:1013E00002210095FFF794FF204640F24913102296
:1013F00004210095FFF78CFF204640F2491320227C
:1014000005210095FFF784FF0095204640F249131F
:101410004FF47F520621FFF77BFF0EB902B070BD7B
:1014200020464AF6C042312102B0BDE87040B7E71D
:1014300030B583B041F4405114460025ADF800109A
:10144000012303226946ADF80250ADF80450FFF7BE
:101450000FFFBDF80430238003B030BDF0B585B078
:101460000024012907461646ADF80E4038D002295F
:1014700033D0224B2249DD6B224A03462046A8473F
:1014800021460DF10E023846FFF7D2FFBDF80E30AF
:10149000738003F00705012D358024D013F0060F6B
:1014A0000BD16DB9154A0097D46B1549164A2846D9
:1014B000A0472C46204605B0F0BD023D012DF9D9CC
:1014C0000E4A0097D46B0E49104A0020A047002115
:1014D0000C462046318005B0F0BD32210124D0E712
:1014E0000C463321CDE7054A0097D46B0449084ADE
:1014F0000020A0470024204605B0F0BDAC0000202D
:10150000780001085C00010890000108F40001085F
:10151000C0000108F0B583B0002401290746164633
:10152000ADF8064019D0022909D01A4B1A4ADD6BD2
:101530001A4903462046A847204603B0F0BD46217D
:101540000DF106023846FFF773FFBDF806508424FC
:1015500075B1BEB9012003B0F0BD45210DF1060201
:101560003846FFF765FFBDF806508324002DF0D103
:10157000084B0B4ADC6B094928463B46A0472846E6
:1015800003B0F0BD384621460022FFF709FF304680
:10159000D3E700BFAC0000205C0001087800010820
:1015A0002801010870B582B00DF106020E46002434
:1015B0001C210546ADF80640FFF73AFFBDF80620AE
:1015C00012F400620CD128461B21FFF7E9FE2846E1
:1015D00046F400621B21FFF7E3FE012002B070BD5C
:1015E000044B054ADE6B054920462B46B047204692
:1015F00002B070BDAC0000205C0101087800010859
:1016000070B582B00DF10602002437210546ADF811
:101610000640FFF70DFFBDF8063003F0C003B3B975
:101620000DF1060200241C212846ADF80640FFF704
:10163000FFFEBDF806301B0515D50E4B0E4ADE6BBE
:101640000E4920462B46B047204602B070BD094BDC
:1016500093F82820002AE3D0DC6B094A07492B467F
:101660000120A047DCE72846FFF780FE012002B0FA
:1016700070BD00BFAC000020B8010108780001086F
:101680008C010108F0B40C4DAF8D9E1CB7EB460FDA
:1016900005D2EB6B094A0A49F0BC002018471446F2
:1016A00041F4A041013B11805380214626F00042C5
:1016B0000023F0BCDCE500BFAC000020E80101081D
:1016C0000802010810B582B0044601AA0121FFF703
:1016D000C5FE204600220121FFF71CFFBDF80430A3
:1016E000022B08D00549064ACC6B06490020A047CA
:1016F000002002B010BD012002B010BDAC000020DF
:101700001C020108640201082DE9F04F02EB420CB3
:1017100000EB8C0C8DB000268346824680466746DF
:10172000B14603A84FEA890586469FED577A43469E
:101730006AB19C192C44D4ED007A1C46D4ED006AA1
:101740000C3367EEA67ABB4237EE277AF1D1043527
:101750000C2DAEEC017AE8D109F10109B9F1030FC2
:1017600000F1100008F10408A6F1040607F10407CF
:10177000D8D19DED046ADDED055ADDED086A6846B5
:101780000BF10C04DFED407A53463AB11D4695ED5E
:10179000007A0C33634577EE877AF7D10AF1040AB1
:1017A000A245E0EC017A0CF1040CEBD1DDED037AFB
:1017B000F5EE407AF1EE10FA10D0B7EE007A87EE2F
:1017C000274ADDED077A66EE044A26EE245A77EEC4
:1017D000C57AF5EE407AF1EE10FA06D1002000232A
:1017E000CBF800300DB0BDE8F08FC7EE272A65EECC
:1017F000843A25EEA47A66EE237A9DED0B5A76EEB6
:10180000E77A36EEC77A67EEA27A65EEA36A75EEDE
:10181000666A27EE275A76EEC56AF5EE406AF1EE63
:1018200010FADBD09DED005A9DED013A9DED022AA4
:1018300064EE854A63EE853A73EE644A012067EEF2
:10184000A47A002372EE677A77EEE33AC3EEA67AC3
:1018500027EE277AC1ED027A34EEC77A65EEA75AF1
:1018600067EE227A26EE276AC1ED017A35EE466AE6
:1018700076EE655A25EE844A81ED004ACBF80030B9
:101880000DB0BDE8F08F00BF000000000028B8BF19
:10189000404270B4BABF00B20124002400293FDBEB
:1018A000884238DB0022034668B30846002643F628
:1018B00028450004B0FBF3F1A9424AD946F2D633D9
:1018C000994236D948F67203994244D94AF64943B7
:1018D000994242D94DF2A303994240D94FF24B733A
:1018E000994298BF052025D94FF24C7548F2332311
:1018F0004CF2A340491B03FB01F100EB114016B170
:10190000C0F5C9301F3014B1C0F549303F3002B1C5
:10191000404270BC70470B46C1B912480A46F2E714
:10192000494209B288424FF00102BCDA0B46164622
:10193000BDE701200C4B03EBC00503EB8003D5F89A
:10194000B008D3F8E438D5F8AC58D3E70022012624
:10195000ADE70020EEE70220ECE70320EAE70420F1
:10196000E8E700BF1F92010048BE000870B584B0D0
:1019700020B1234B02689A42044608D0214B224AE8
:10198000DB6B224900209847002004B070BD032281
:1019900000210E468068009240F249130125039011
:1019A000FFF7B6FC0398009640F249130422022187
:1019B000FFF7AEFC0398009540F249131022042172
:1019C000FFF7A6FC0398009540F249132022052159
:1019D000FFF79EFCFF23039800934FF47F5240F2E1
:1019E00049130621FFF794FC039800952A463146D7
:1019F00040F24B13FFF78CFC2846267304B070BDF1
:101A00000EB03713AC000020840201089C020108CC
:101A10002DE9F04F304ED0F8088096F828302DEDA3
:101A2000028B012BA3B004D9F36B2C4A2C49022062
:101A300098472C49DFF8B4B0DFF8A4A0782204A8B6
:101A400009F06EFB0122D5214046FFF7A9FC22AB2D
:101A500008EE103A04ACA588B4F80690A944A9454C
:101A600007DC26E0BDF80E2098470135ADB2A94548
:101A70001FDD294640460DF10E02FFF7D9FCA36891
:101A800029464046002BEDD196F82830012B5A46C6
:101A9000434651464FF00200E7D9BDF80EC0CDF8DD
:101AA00004C0276800970135F76BADB2B847A94568
:101AB000DFDC18EE103A0C34A342CCD196F8283073
:101AC000012B04D9F36B084A05490220984723B03B
:101AD000BDEC028BBDE8F08FAC000020A402010831
:101AE000CCFE000848C700083C0301082803010891
:101AF00010B520B10B4B02689A42044607D00A4B3E
:101B00000A4ADB6B0A49BDE810400020184700690B
:101B10000023236008B1FFF781FB2046BDE8104099
:101B2000FFF77CBB0EB03713AC0000208402010825
:101B30009C02010810B520B10C4B02689A42044681
:101B400007D00B4B0B4ADB6B0B49BDE81040002064
:101B50001847406818B1C3689847002363600023A2
:101B600023602046BDE81040FFF758BB0DB0371387
:101B7000AC000020780301089403010808B518B1EF
:101B8000064B02689A4207D0054B064ADB6B0649B2
:101B900000209847002008BD043008BD0FB037135F
:101BA000AC000020A0030108B8030108036853E853
:101BB000002F22F4907243E800210029F7D103F1AD
:101BC000080252E8002F22F0010203F1080C4CE851
:101BD00000210029F3D12022C267026E4166012A4A
:101BE0000DD1016653E8002F22F0100243E80021D6
:101BF0000029F7D1DA69D20644BF10221A62704771
:101C0000C26F222A06D00268138B9BB243F00803EE
:101C1000138370470268416D928C10B490F85C4059
:101C200022400A70B0F85A20416D013A92B2A0F8F1
:101C30005A20B0F85A20013192B2416512B95DF8CC
:101C4000044BB3E75DF8044B704700BFC26F222A14
:101C500006D00268138B9BB243F0080313837047CE
:101C60000268416D928C10B4B0F85C40224021F8BB
:101C7000022BB0F85A204165013A92B2A0F85A20DE
:101C8000B0F85A309BB213B95DF8044B8EE75DF89B
:101C9000044B7047836A0022A3F85A20A3F852200D
:101CA000704700BF836A1B6E704700BF0368806A7D
:101CB0001A6812F0200227D10368A0F85A2053E8CE
:101CC000002F22F4807243E800210029F7D103F1AC
:101CD000080252E8002F22F0010203F1080C4CE840
:101CE00000210029F3D103F1080252E8002F22F06D
:101CF000400203F1080C4CE800210029F3D1202216
:101D0000C267026E012A01D0036E704753E8002FAC
:101D100022F0100243E800210029F5D053E8002FFB
:101D200022F0100243E800210029EFD1ECE700BFC8
:101D3000026852E8003F23F4907342E80031002922
:101D4000F7D102F1080353E8003F23F0010302F149
:101D5000080C4CE800310029F3D1036E012B05D0AB
:101D600000232022C26743660366704752E8003FA3
:101D700023F0100342E800310029F1D052E8003F7F
:101D800023F0100342E800310029EFD1E8E700BF5B
:101D9000806A38B50368816FC56F9A68120601D5ED
:101DA00021290BD09B685B0601D5222D18D0D0F8D5
:101DB000803043F01003C0F8803038BD0022A0F816
:101DC00052201C4600E0234653E8002F22F0C002B8
:101DD00043E800210029F6D1202223468267E1E76B
:101DE0000023A0F85A30FFF7A3FFD0F8803043F06B
:101DF0001003C0F8803038BD836A19684A6822F041
:101E0000030210B44A601A6E012442F010021A66EE
:101E100083F85D405DF8044B704700BF704700BF1A
:101E2000704700BF70B503681B4D2E681B689B068A
:101E30002ED4846A2268536823F02003536020461E
:101E400032464FF4C051FEF7A9FD58B9314620463D
:101E5000FEF70CFE30B932464FF4C0612046FEF763
:101E60009DFD38B1236E43F020032366236E43F0BB
:101E70002003236621684B68002223F0030301201E
:101E80004B60E287A4F8462084F85D00236E13B906
:101E9000012385F8443070BDAC00002038B52E4ACF
:101EA000036815681B689B061FD4846A2368A268B0
:101EB000586820F020005860C2B15968606821F06D
:101EC0000101B0F5827F596035D029462046FEF7E2
:101ED000CDFDC8B96368B3F5827F1CD00123002211
:101EE000A4F8462084F85D30236E38BD6268B2F5F0
:101EF000827F5A6827D022F001025A602946204684
:101F0000FEF7B4FD0028E5D0236E43F020032366DE
:101F100020232366E2E7A368B3F5004F02D0B3F5B0
:101F2000806FDBD12A464FF4C0612046FEF736FDB4
:101F30000028D3D0E8E7B2F5004F08D11A6822F0A4
:101F400040021A60C1E722F003025A60BDE7B2F511
:101F5000806FF3D0B9E700BFAC000020444AD368DB
:101F600030B49C0708D0D368046803F00303A3428D
:101F700047D0012030BC70470368022B52D0032B9E
:101F800049D0012BF5D112689207F2D5384D44683B
:101F9000EA6822F073021343013C43EA0413EB6046
:101FA000334C344A236823F080632360156803E0D0
:101FB00013685B1B022B39D823681B01F8D4002956
:101FC00037D1D0E902532169DB0621F0784121F4B1
:101FD000FE4143EA05230B43236125490B6843F087
:101FE00080630B60146803E013681B1B022B1DD871
:101FF0000B681B01F8D582690B6913430B61002044
:10200000B8E7002BB5D0D3684268C3F3021301339D
:102010009342AED1C4E71468A403B7D41268520344
:10202000A7D5B3E712685505A3D5AFE7032030BCA9
:102030007047012923690DD04169856823F0C06389
:1020400023F4FE43490843EA0523013943EA416387
:102050002361C2E70169856823F4C00323F4FE43CA
:10206000490843EA0523013943EA41532361B4E7B0
:1020700000100240AC000020F0B5026812F40067C6
:1020800083B004460CD0416CB1F5000F00F02F81F5
:10209000B1F5400F00F00581002900F020810127F3
:1020A000900350D5A44B996DC90040F1ED800020FC
:1020B000A249A34D0B6843F480730B602E6804E0C3
:1020C0002B689B1B022B00F2F6800B68DB05F7D513
:1020D000B7BB994BD4F858E0D3F8901011F4407185
:1020E00025D08E4523D0D3F89060D3F8901041F4DA
:1020F0008031C3F89010D3F8901021F48031C3F8E8
:10210000901026F4407CF107C3F890C00FD5D5F8A5
:1021100000C0194641F2883605E02B68A3EB0C039A
:10212000B34200F2C880D1F890309B07F5D58249C0
:10213000D1F8903023F4407343EA0E03C1F8903095
:10214000002840F0BC80D00708D57B49206AD1F830
:10215000883023F003030343C1F88830910708D582
:102160007549606AD1F8883023F00C030343C1F845
:102170008830530708D57049A06AD1F8883023F019
:1021800030030343C1F88830960608D56A49E06AEF
:10219000D1F8883023F440630343C1F888309505B3
:1021A00008D56549E06BD1F8883023F44023034318
:1021B000C1F88830500508D55F49206CD1F88830C7
:1021C00023F440130343C1F88830510608D55A4917
:1021D000206BD1F8883023F440530343C1F8883092
:1021E000130608D55449606BD1F8883023F4404376
:1021F0000343C1F88830D60508D54F49A06BD1F804
:10220000883023F440330343C1F8883015030ED5DA
:102210004949A06CD1F8883023F040630343B0F102
:10222000006FC1F8883050D0B0F1806F6DD050038E
:102230000ED54149E06CD1F8883023F04063034368
:10224000B0F1006FC1F8883044D0B0F1806F64D035
:1022500051040BD53848216DD0F8883023F0405315
:102260000B43B1F1805FC0F8883046D0130408D525
:10227000314A616DD2F8883023F080430B43C2F8B5
:102280008830384603B0F0BD996D41F080519965B2
:102290009B6D03F080530193019B012008E7616C63
:1022A00022682548D0F8883023F440031943C0F849
:1022B00088100027F4E6032700283FF444AF1E49A6
:1022C0008B6D23F080538B653DE7CB6843F480131F
:1022D000CB60ACE7CB6843F48013CB60B8E7043045
:1022E000FFF73CFE07460028D9D02268D8E61248FE
:1022F000C36843F48033C360D3E70221201DFFF796
:102300002DFE90B122680746B0E70121201DFFF79E
:1023100025FE70B12268074689E70121201DFFF7DD
:102320001DFE20B12268074692E722689EE72268D8
:102330008EE722687BE700BF00100240007000407B
:10234000AC00002021498B6DDB0082B01ED5204BF4
:102350001B6803F4C063B3F5007F2BD0802813D82B
:1023600031D0A0F17002B2FA82F2520919490B6819
:1023700023F0070313430B60086800F00700801A7E
:1023800018BF012002B070470322EFE78B6D104A9F
:1023900043F080538B658B6D03F080530193019B59
:1023A00013688A6D03F4C06322F08052B3F5007F96
:1023B0008A65D3D1802804D9A0288CBF02220122AB
:1023C000D4E70022D2E70222D0E700BF001002408B
:1023D0000070004000200240064A074B92680749FF
:1023E000C2F302221344086893F8783903F01F03FC
:1023F000D84070470010024048BE0008000000208E
:10240000294A9368D26813F00C0308D00C2B3AD0F9
:10241000042B36D0082B254818BF00207047224ACD
:102420001168090754BFD2F894101168204A54BFAC
:10243000C1F30321C1F3031102EB8102D2F8800939
:1024400003B30C2B2DD1184BDB6803F00303022BD5
:1024500025D0164A032B08BF1046134BD968DA68FB
:10246000DB68C3F34163C2F30622C1F302110133F7
:10247000013100FB02F05B00B0FBF1F0B0FBF3F0C8
:1024800070470C48704702F00302012AC7D0064B80
:10249000DB6803F00303022B4FF00000D9D105489D
:1024A000DBE70020704700BF0010024000127A00F6
:1024B00048BE00080024F40090F84130602B04D09E
:1024C0000023036380F8403070470023202280F807
:1024D000412080F840300363704700BF806A836BFF
:1024E0000BB100229A63C36B0BB100229A63E3E73E
:1024F000184BC362202200230363436380F841200A
:1025000080F842304B0710B412D50268436A526A11
:102510001A70436A028D013343624AB1438D013B15
:102520009BB24385436C013A43F004030285436444
:10253000036890F8412090F841201A68102422F096
:10254000FE0200211A60DC615DF8044B80F8401047
:10255000704700BF0000FFFF01680B68002280F891
:1025600042205A040CD50B6823F480430B6090F88A
:102570004130292B0ED090F841302A2B20D07047C3
:102580001B04F4D50B6823F400430B6090F8413032
:10259000292BF0D12822212380F84120036390F8D1
:1025A00041200B6802F02802282A0CBF6FF042027B
:1025B0006FF0F202134000220B6080F84020704759
:1025C0002822222380F84120036390F841200B68E1
:1025D00002F02802282A0CBF6FF044026FF0F402C8
:1025E000134000220B6080F8402070472DE9F04F27
:1025F000DFF810C1DFF810B183B000234FF0010EF7
:102600004FF00F094FF0030A4FE0584569D03A4E9A
:10261000B04269D0394EB0426AD0394EB04214BF90
:102620000726042606FA02F2019E96421BD1DCF828
:10263000002022EA0702CCF80020DCF8042022EA7D
:102640000702CCF80420DCF80C2022EA0702CCF8C0
:102650000C20DCF8082022EA0707CCF80870AA68EA
:1026600022EA0802AA6002685E000AFA06F6DD089D
:10267000324300EB8505026003F007022F6A9200E7
:1026800009FA02F227EA02022A62826822EA0602B4
:102690008260426822EA04044460C26822EA0606B4
:1026A000C660013331FA03F218D00EFA03F414EACB
:1026B0000107F6D023F0030505F1804505F58035C7
:1026C00003F00302AE68920009FA02F808EA06066F
:1026D000B0F1904F019698D10022A5E703B0BDE874
:1026E000F08F0EFA02F29FE7022606FA02F29BE74B
:1026F0000AFA02F298E700BF00080048000C004800
:102700000010004800040140000400482DE9F04F8B
:102710000C6885B0002C00F0828000234FF0010B84
:102720000BFA03FE1EEA040A75D04E6806F0030297
:10273000551E012D4FEA430C74D9032A40F0B8808E
:1027400002FA0CF2D543D0F800C00CEA05052A4382
:1027500016F4403F02605ED0614D2A6E42F00102E5
:102760002A662A6E23F0030505F1804502F0010276
:1027700005F58035039203F00302DDF80CC0D5F8AF
:1027800008C092000F2707FA02FEB0F1904F2CEA22
:102790000E0C17D0534FB84200F09680524FB842FB
:1027A00000F09780514FB84200F08780504FB842F8
:1027B0000BBF4FF0040E07270EFA02F207FA02F2DF
:1027C0004CEA020C4B4AC5F808C092686FEA0A0C42
:1027D000F502484D54BF0CEA02024AEA0202AA601E
:1027E000ED68B202434A54BF0CEA05054AEA050502
:1027F000D56055683F4AB70354BF0CEA05054AEA5D
:10280000050555601268F5033A4D54BF0CEA020203
:102810004AEA02022A60013334FA03F280D105B099
:10282000BDE8F08FD0F80880CF68032505FA0CF5D5
:1028300028EA050807FA0CF949EA0808C0F80880F0
:10284000D0F80480C6F3001928EA0E0809FA03FE3E
:102850004EEA080EED43C0F804E0D0F80C808F6813
:1028600008EA050807FA0CFE4EEA080E022AC0F82C
:102870000CE002D002FA0CF265E74FEAD30800EB55
:10288000880803F0070ED8F8207001970F694FEA07
:102890008E0E07FA0EF90F2707FA0EFE019F27EAA0
:1028A0000E0E49EA0E0E02FA0CF2C8F820E04AE7D2
:1028B000032505FA0CF5ED43CFE74FF0030E0EFAB2
:1028C00002F24CEA020C7DE70BFA02F24CEA020C2F
:1028D00078E74FF0020E0EFA02F24CEA020C71E7B2
:1028E000001002400004004800080048000C0048A6
:1028F000001000480004014070B4D0E910630422C5
:102900003168056803F01C039A400A422C680ED017
:1029100014F0040F0BD02B689B0603D42B6823F014
:1029200004032B60036B7260CBB170BC18470222AA
:102930009A400A4215D014F0020F12D02B68990663
:1029400006D42B68012123F00A032B6080F82510A0
:10295000C36A7260002280F82420002BE5D170BC8D
:10296000704708229A400A42F9D02207F7D52A6810
:10297000416B22F00E022A60012202FA03F30024C6
:102980007360C26380F8244080F825200029E6D0D7
:1029900070BC084790F82520022A03D00422C263A5
:1029A000012070470168426C70B50C68066C856B3D
:1029B00024F00E040C600C6824F001040C6002F09A
:1029C0001C02012101FA02F20024726080F8251035
:1029D00080F8244015B1A847204670BD284670BD38
:1029E00010B5044600223F4894F8413084F8422054
:1029F000E0626285626C283B1143022B61642BD834
:102A000094F8412094F84130374802F02802282AEF
:102A100003F028030CBF4622F622282B236808BFA8
:102A2000D1431A6818BF6FF0F6010A4028211A60D6
:102A300084F841106063A06B226B18B1112A1ED07C
:102A4000212A1CD0E06B18B1122A2DD0222A2BD0BB
:102A50002046BDE810402FE5236894F8412094F803
:102A600041201A6822F0FE021A6094F84120602A80
:102A70001CBF202284F8412000226263DBE71A6831
:102A800051042AD490F82530012BE1D0174B8363F1
:102A9000002384F84030FFF77DFF20B1A06BBDE834
:102AA0001040836B184710BD1A68120403D51A68CA
:102AB00022F400421A6090F82530012BC8D00B4B4D
:102AC0008363002384F84030FFF764FF0028EAD0D6
:102AD000E06BBDE81040836B18471A6822F480420F
:102AE0001A60CFE70000FFFFF12A0008DD2400088C
:102AF0002DE9F84390F84030C66A012B00F0D780EA
:102B00000123044680F8403088060D46914602D5E0
:102B100012F0200F65D1EF061AD519F0100F17D05B
:102B2000638D9BB2002B40F0B28094F84130282B8B
:102B300000F02D8194F84130292B23684FF01002CA
:102B4000DA6100F0E380002084F84000BDE8F883FB
:102B500069070FD42A072CD519F0080F29D094F84B
:102B6000413003F02803282B236800F0F780082267
:102B7000DA61E8E719F0040FECD0638D9BB26BB11A
:102B80002268636A526A1A70638D616A228D013B02
:102B90009BB20131013A638561622285638D9BB2EC
:102BA000002BD0D116F5803FCDD02046FFF7D4FCC6
:102BB000C9E7AB07C7D519F0020FC4D0638D9BB22C
:102BC000002B00F09780616A236811F8012B9A624C
:102BD000638D228D6162013B9BB2013A6385228540
:102BE000B1E723681F6894F8411001F0F701202035
:102BF0002129D8615ED0222900F09A8058686B4A5A
:102C000040F400405860596811405960996989073B
:102C100044BF002199629969CA0703D4996941F0B8
:102C20000101996178044DD51968A06B21F48041A8
:102C3000196018B10168496889B261856A074BD586
:102C4000616A5B6A0B70636A218D0133636225F0F0
:102C50000408002953D1638D9BB21BB1636C43F010
:102C600004036364002384F84230676C6363002FBD
:102C700066D1E36ADFF8388143452FD194F84130BB
:102C800084F84070202384F84130276343E72368A9
:102C90001022DA61636C43F00403636436F08073DE
:102CA0007FF451AF616C2046FFF79AFE4BE702209C
:102CB000BDE8F88394F84100186820F0FA00186025
:102CC00021639BE73904B9D51968E06B21F4004111
:102CD00019600028AED1B1E7A846BCE72046FFF74F
:102CE0003BFC2023C4F82C8084F8407084F84130E9
:102CF000276310E736F080733FF457AF23E7638D07
:102D0000013B01399BB221856385A4E716F5803F1D
:102D10003FF419AF9A69950744BF00229A629A69F5
:102D2000D0073FF542AF9A6942F001029A613CE751
:102D300094F84100186820F0FC00186021635DE7FA
:102D4000616C2046FFF74CFE94F84130282B7FF44D
:102D5000E2AE41462046FFF7CBFBDCE6E1689A692C
:102D600098699A68DD6802291AD1C2F3C21282EA10
:102D7000104212F0060213D1A16C0131A164A16CC2
:102D800002297FF4E0AE0821A264D961DBE6B6F146
:102D9000007F7FF4CFAE29462046FFF7A9FBD2E69D
:102DA0001A6822F0B8021A60CDE600BF00E800FE03
:102DB0000000FFFF00283ED00268204913688A42C5
:102DC00023F00103F0B4136024D91D4B1D491E4E9E
:102DD0001E4C06641344A1FB03131B099B0003F064
:102DE0001C050121A9400027436417607160236816
:102DF0000F22AA4023EA020323600023C36380F862
:102E0000243080F82530C0E90B33C0E90D33F0BC25
:102E1000184670470E4B0B490E4E0F4C0664134478
:102E2000A1FB03131B099B0003F01C050121A94012
:102E300000274364D9E70120704700BF0704024020
:102E4000F8FBFDBFCDCCCCCC00040240A80402406E
:102E5000F8FFFDBF00000240A8000240044A00F055
:102E60001F01012340098B4042F82030704700BF0A
:102E700000E100E070B5104D104A2B68A2FB03235F
:102E80009B09013BB3F1807F0CD20D4A0D49536081
:102E9000F02381F82330002607230F28966004468C
:102EA000136001D9012070BD01464FF0FF30FDF7DE
:102EB000B3F96C60304670BD00000020D34D621045
:102EC00010E000E000ED00E0504AF8B5136803F0B0
:102ED00007038B420BD2136823F007030B431360E5
:102EE000136803F007038B4201D00120F8BD04688A
:102EF00014F0020C70D0464D8268AB6803F0F0030A
:102F00009A4204D9AB6823F0F0031343AB60E307A4
:102F100025D542683E4B032A1B6864D0022A6BD039
:102F2000002A6ED19F07E0D5394D3A4EAB6823F0A9
:102F300003031343AB60D6F800E0920041F28837F8
:102F400004E03368A3EB0E03BB4258D8AB6803F030
:102F50000C039342F5D1BCF1000F06D082682C4DD2
:102F6000AB6803F0F003934240D8284A136803F09B
:102F70000703994209D2136823F007030B43136038
:102F8000136803F007039942AFD1650706D5204ABD
:102F9000C168936823F4E0630B439360210707D56E
:102FA0001B4A0169936823F4605343EAC1039360A9
:102FB000FFF726FA1649184A8968184CC1F303111D
:102FC0000A44034692F8B029606802F01F02D34019
:102FD0002360BDE8F8404DE7E207C6D542680C4BD8
:102FE000032A1B689AD19D019ED47EE7AB6823F02B
:102FF000F0031A43AA60B8E79B0395D475E7032052
:10300000F8BD5E057FF571AF8EE700BF002002407E
:1030100000100240AC00002048BE00080000002064
:10302000F0B5AA4B02689D68DE68D10683B00446FD
:1030300005F00C0506F0030640D5002D40F019817F
:10304000A24B1B689B0700F13A81A04B206A1A68CB
:10305000170756BFD3F894301B681B0903F0F00321
:10306000984200F20F82994B1A6842F008021A60E7
:103070001A6822F0F00202431A605A68E16922F4E9
:103080007F4242EA01225A60002D00F02C82FFF7B5
:10309000B7F98E498E4A89688E4FC1F303110A44ED
:1030A000034692F8B029786802F01F02D3403B60D3
:1030B000FFF7E0FE002840F007812268D30700F107
:1030C000B480970720D5042D00F02D810C2D00F041
:1030D0002781E3687D48002B00F0AA8101687E4BC0
:1030E00041F4807101601E6804E01968891B02299F
:1030F00000F23A8101684905F7D54368216923F058
:10310000F85343EA01634360160716D563696F48B5
:10311000002B00F0F380D0F894106F4B41F00101C8
:10312000C0F894101E6804E01968891B022900F297
:103130001B81D0F894108907F6D550073DD5634B15
:10314000996DC90000F17281996D41F080519965C6
:103150009B6D03F080530193019B01265F48036838
:10316000DF0540F1F3805C4BA168012900F06F811D
:10317000052900F0CB815548D0F8907027F0010761
:10318000C0F89070D0F8907027F00407C0F89070E5
:10319000002940F06381D3F800C041F2883705E090
:1031A0001968A1EB0C01B94200F2DE80D0F8901052
:1031B0008907F5D4002E40F09081970616D5636AF2
:1031C0004249002B00F07681D1F89820424B42F022
:1031D0000102C1F89820186804E01A68121A022A3D
:1031E00000F2C280D1F898209607F6D5A36A002B8A
:1031F00000F01A81022B00F097810C2D63D0334927
:10320000354B0A6822F080720A601C6804E01A6874
:10321000121B022A00F2A880086810F00070F6D194
:10322000CA682F4B1340CB604EE0082D5CD00C2DAC
:1032300058D06368B3F5803F00F0A880B3F5A02FA5
:1032400000F057812148016821F480310160016854
:1032500021F480210160002B40F09D801E4B1F68EF
:1032600003E01968C91B64297ED801688903F8D472
:1032700027E70C2D67D0A3691448002B77D001688D
:10328000154B41F0010101601F6803E01968C91B7B
:10329000022969D801688907F8D5036843F0080353
:1032A00003600368216A23F0F0030B430360436863
:1032B000E16923F47F4343EA01234360FEE6A36907
:1032C000002B7FF4C2AE012003B0F0BD001002401D
:1032D00048BE000800000020AC0000200070004044
:1032E000FCFFEEFE032EA4D19B4B1B6898037FF5D9
:1032F000E8AE6368002B7FF4E4AEE4E7D0F8941006
:10330000964B21F00101C0F894101E6803E0196883
:10331000891B022928D8D0F894108F07F7D40CE71E
:10332000022E7FF4D6AE8C4B1B68580502D5E3689D
:10333000002BC8D0884920694B6823F0F85343EA32
:1033400000634B60E0E6012E95D179E60168834B7E
:1033500041F4807101601F680168C9053FF504AF41
:103360001968C91B0229F7D9032003B0F0BD016811
:103370007A4B21F0010101601F6803E01968C91B45
:103380000229F1D801688907F8D497E672490B68D9
:1033900043F480330B60714B6F481F6803E019687A
:1033A000C91B6429E0D801688903F8D589E6206B38
:1033B00003F070010138B1EB001F40F0BD80606B7D
:1033C00003F4FE41B1EB002F40F0B680A06B03F098
:1033D0007841B1EBC06F40F0AF80E16B4908013933
:1033E00003F4C000B0EB415F40F0A680216C4908B7
:1033F00003F0C0630139B3EB416F40F09D80136867
:10340000980111D41168554B41F080711160D16859
:1034100041F08071D160186803E01968091A022927
:10342000A2D811688901F8D500204DE7002695E65D
:1034300001684A4B21F4807101601E6803E019683D
:10344000891B022990D801684F05F8D45CE64248F0
:10345000D0F8901041F00101C0F89010D3F800C0EE
:103460003D4841F2883705E01968A1EB0C01B942EB
:103470003FF67AAFD0F890108907F5D5002E3FF4CB
:103480009CAE2AE0FEF75EFF00287FF41CAF324BB3
:103490001A6842F008021A601A68216A22F0F002E3
:1034A0000A431A605A68E16922F47F4242EA012223
:1034B0005A60ECE5D1F89820284B22F00102C1F8BF
:1034C0009820186804E01A68121A022A3FF64CAFD6
:1034D000D1F898209207F6D488E61F498B6D23F027
:1034E00080538B6569E6FEF72DFF00283FF4CFADD2
:1034F000E9E603F18043A3F53C33196841F48021E8
:103500001960196841F48031196044E71249D1F813
:10351000900040F00400C1F89000D1F8900040F015
:103520000100C1F8900099E70B4AE66AD36803F0FE
:103530000301B1423FF43BAF0C2D3FF4C4AE06494A
:103540000B685F013FF5BFAE0A68044B22F0807242
:103550000A60186809E000BF00100240AC000020BB
:103560001A68121A022A3FF6FFAE0A689501F7D4CC
:10357000C868164AD4F834C0A76B0240D4E90F508B
:103580003243266B42EA0C2242EAC762013E6C08D3
:1035900042EA0612013C4008013842EA445242EA3B
:1035A0004062CA600A680A4842F080720A60CA68CB
:1035B00042F08072CA60196804E01A68521A022A3E
:1035C0003FF6D2AE02689401F7D52DE78C809D01BD
:1035D00000100240B0F1904F84B017D0234B9842B6
:1035E00004D0234B98422CD004B0704711B303F1A0
:1035F000784303F50333DA6C42F00202DA64DB6CE1
:1036000003F002030293029B04B0704759B1194BB7
:10361000DA6C42F00102DA64DB6C03F0010301931F
:10362000019B04B07047134AD36C23F00103D364A9
:1036300004B070470F4AD36C23F00203D36404B084
:10364000704769B103F1784303F5FA33DA6C42F05D
:103650008002DA64DB6C03F080030393039BC3E70F
:10366000044AD36C23F08003D364BDE70004004810
:10367000001C00480010024070B50D4601210446B0
:10368000FFF7A8FFD5E90023E969AE680260E868A2
:103690006360D5E904230039A66018BF0121E0600A
:1036A000226220466362BDE8704093E7174A0368D0
:1036B000934203D0164A93420CD0704702F5584209
:1036C0004FF4C061136E23F4804313664FF09040B3
:1036D000FEF78CBF02F5E63210B5936D044623F475
:1036E000003393650F214FF09040FEF77FFF206F6E
:1036F000FFF760FBE06EFFF75DFB064B4022C3F86F
:103700008420BFF34F8FBFF36F8F10BD003801408F
:103710000044004000E100E038B5524B93F824200B
:103720000021012A83F8451000F08D805A6853214A
:103730000225CA20012483F8255083F824405062D2
:103740005162916821F480619160D168C9B261F4DD
:103750009061D160D168490664D51F21516191689B
:10376000414821F0070141F003019160016841F4F3
:1037700080110160816841F480118160916841F499
:10378000804191609168FF2441F480610120916043
:10379000546283F8250093F84510002283F8242012
:1037A00000295BD172B6BFF34F8FBFF36F8F93F8D1
:1037B000452002B930BF62B6BFF34F8FBFF36F8FA2
:1037C00093F84520002AEDD093F824200021012A07
:1037D00083F8451037D05868532201240225CA21A6
:1037E00083F8255083F8244041624262826822F4C3
:1037F00080628260826822F4804282601C6804E0F9
:103800001968091BB1F57A7F1FD8C26812F004024B
:10381000F6D0FF2401220021446283F8241083F8AB
:10382000252038BD1C68D16811F0040195D11868B5
:10383000001BB0F57A7FF6D9FF240320546283F889
:10384000241083F8250005F08DF9FF24032144623C
:1038500083F8242083F8251005F084F983F84520A7
:10386000B9E700BFAC00002000040140F8B5154CDA
:103870004FF48055A562174604460E461D46FFF7D5
:103880004BFF17B13846FEF733F916B13046FEF755
:1038900051F94CB10C4B22689A420CD00B4B0C4A9C
:1038A000DB6B0C490020984725B12846BDE8F8405D
:1038B00007F0A6BCF8BD002323602046FDF7AEFC50
:1038C000F2E700BF000400480FB03713AC0000203F
:1038D000A0030108B80301082DE9F047724CD4F8A1
:1038E0006CC088B0BCF1000F5BD1E36CB3F5827F94
:1038F00001D0C4F864C094F8A530A16C002203F094
:10390000FF052267002B58D0022384F8A5300B68EE
:10391000626D23F04003B2F5E06F0B6045D800F014
:10392000B8804FF4805700202067D4E91336A56D86
:10393000D4F860E006F4044603F48273334305F0E0
:1039400002052B43E56D02F4706805F00105E26F96
:103950002B43D4E9196502F0080242EA08024FEA53
:103960001E480EF4007E08F0040843EA0E0306F039
:10397000380642EA0802334305F080050CF0100CCB
:1039800042EA0C0C2B4303434CEA070700200122B8
:103990000B604F60C4F8A80084F8A52008B0BDE80B
:1039A000F0870023C4E91633A5E7B2F5706F76D12E
:1039B000236F002703F40050B7E73C4B84F8A45072
:1039C0009942CDE90355CDE9055507959CD103F5FD
:1039D00060434FF0E00C1A6E354E42F480521A6686
:1039E0001A6E02F480520292029ADA6C42F00102DC
:1039F000DA64DB6C059503F00103019303220523D0
:103A000003A902274FF09040CDE903C7CDE9062373
:103A1000DDF804E0FEF77AFE264BC4F8B4504FF010
:103A200001094FF0800A30464FF480784FF48067E8
:103A3000C4E92B39C4E93255C4E92FA8C4F8B850F9
:103A4000C4F8C470FCF76EFC034650BB06F1480591
:103A50001949C4F8A0601022643E2846C4E9403ADF
:103A6000C4E94373C4F8F890C4F80881C4F8143169
:103A7000C4F8D460C4F8F410C4F8FC20FCF752FC7D
:103A800078B9A16CD4F86CC0C4F89C50C4F81C611F
:103A90003AE7236F4FF4805703F4005045E70027BF
:103AA00041E705F05FF800BFAC00002000300140A6
:103AB000580100201C0002403000024070B54D4CFF
:103AC00094F87D319EB0002B4BD0D4F83C31D4F823
:103AD0004021D4F84801242184F87D11196822F08E
:103AE000706221F0010119601A619A68012822F4BC
:103AF00000429A60D4F844212FD042F404420228B4
:103B00009A6004BF4FF400625A605968D4F8545167
:103B1000D4E9532641F0007141F400415960324329
:103B2000D868D4F8581142EA0522D4F85C5120F440
:103B300000402943D860DA6019601A68002042F01A
:103B4000010220211A60C4F8800184F87D11C4F8B4
:103B50006C0184F87E011EB070BD42F400429A6090
:103B6000D3E703F0FF055C2207A82946CDE90255FB
:103B7000CDE9045584F87C51069507F072F8D4F825
:103B80003C311D4A9342A2D1802307A81495079384
:103B9000FEF772FA054650BB184E1948F36C43F015
:103BA0000203F364F36C03F0020301934FF44063E8
:103BB000019A029312220123CDE903234FF0030C53
:103BC00002A90423CDE905C3FEF7A0FDB36D43F4BC
:103BD0008003B365B36D03F480030093294621206D
:103BE000009BFCF719FB2120FFF738F96DE704F083
:103BF000B9FF00BFAC000020005800400010024098
:103C0000000400482DE9F043856FA1B00446002D63
:103C10005ED02368A2682669B1492420A06718688D
:103C200020F00100186060691D6832430243E069BA
:103C3000294002430A431A605A68E568A94922F4F8
:103C400040522A435A608B42A269996800F0BD80B5
:103C5000266AA54D21F4306132430A43AB429A6093
:103C60000ED0A24A934200F01E82A14A934200F075
:103C70004F810023C4E91933012021B0BDE8F0834E
:103C80009C4B9D4AD3F8883003F00303013B022B81
:103C900000F2AA81134493F8C039B0F5004F00F048
:103CA000B381082BE5D801A151F823F0E33F0008C8
:103CB000EF3F0008DB3E0008733C0008333F00087C
:103CC000733C0008733C0008733C00085F3E00082A
:103CD00080F874505C2209A82946CDE90455CDE945
:103CE0000655089506F0BDFF23687F4A934200F011
:103CF00003827E4A93428DD109A802271295099723
:103D0000FEF7BAF90646002840F02182794B7B4D38
:103D10009A6D42F400329A659A6D02F40032019273
:103D2000019ADA6C42F00102DA64DB6C059703F069
:103D300001030F2000930322072304A9049005F533
:103D4000C8794FF09040DDF800C0079208930696BE
:103D50004FF08008FEF7DAFC694BC5F89031484611
:103D6000C5E96666C5E96966C5E96B66C5F894711B
:103D7000C5F8A081FCF7D6FA0346002840F0E78199
:103D800005F5EC765F49C4F8709010223046C5F80E
:103D9000D811C5E97938C5E97B33C5E97D33C5F864
:103DA000B841C5F8DC71C5F8E021FCF7BBFA014663
:103DB000002840F0CC81E6662620C5F80042FCF7DA
:103DC0002BFA2620FFF74AF823E721F4306149480F
:103DD0000A439A60D0F8883003F44063B3F5006F6B
:103DE00000F088810DD8002B00F07E81B3F5806F44
:103DF0007FF43FAFFEF704FB48B9C4E9190021681E
:103E000040E0B3F5406F7FF434AF4FF40040626898
:103E100002EB420383423FF62CAFB0EB023F3FF68A
:103E200028AF56084FF480730027E3FB0067002596
:103E30002B463046394604F0AFFE334BA0F54072B6
:103E40009A423FF616AF2168C860C4E9195519E0D7
:103E5000302B7FF40EAFB0F5004F00F0ED804FF443
:103E6000004063684FF6EF7200EB5300B0FBF3F0D5
:103E7000A0F1100393423FF6FCAE21680023C86016
:103E8000C4E91933636A002B5DD14B681B4A23F4E4
:103E900090434B608B6823F02A038B600B680020F3
:103EA00043F001030B60C4F8800015680B681A0723
:103EB00000F1DE800B685B0700F1E8800023202220
:103EC0001846A26784F87430E267236621B0BDE823
:103ED000F083B0F5004F00F0C9800C48C1E700BF87
:103EE000F369FFEF008000400038014000440040CB
:103EF000004800400010024048BE0008AC0000200E
:103F00006C00024080000240FFFC0F000024F4001F
:103F1000904BD3F8883003F03003202BD9D097D8BA
:103F2000002B5BD0102B7FF4A4AEB0F5004F00F057
:103F3000CB80FEF765FA002893D1636A2168C4E953
:103F40001900002BA1D0DE0705D54A68A06A22F42B
:103F5000003202434A609D0705D54A68E06A22F4B0
:103F6000803202434A60580705D54A68206B22F424
:103F7000802202434A601A0705D54A68606B22F422
:103F8000004202434A60DF0605D58A68A06B22F42E
:103F9000805202438A609E0605D58A68E06B22F44F
:103FA000005202438A605D060ED54A68206C22F4F6
:103FB00080120243B0F5801F4A6005D14A68606CE8
:103FC00022F4C00202434A6018067FF55EAF4B68D8
:103FD000A26C23F4002313434B6056E7B0F5004F67
:103FE0006BD0FEF7F9F9A6E7B0F5004F6FD0594B4B
:103FF00059499B680868C3F3C2231A4492F8783978
:1040000003F01F03D84096E7082B3FF632AE01A11C
:1040100051F823F0BB400008CF4000086D40000875
:10402000733C0008C9400008733C0008733C00085A
:10403000733C0008394000084FF4803362684FF643
:10404000EF7103EB5203B3FBF2F3A3F110028A42C8
:104050003FF60FAE23F00F0292B22168C3F3420382
:1040600013430022CB60C4E919220BE73B4BE5E781
:104070006FF07E432A464FF400112046FCF7FAF811
:1040800078B921680B685B077FF518AF2A466FF097
:104090007E434FF480012046FCF7ECF800283FF403
:1040A0000DAF0320E9E52B4B2D4AD3F8883003F000
:1040B0000C03134493F8C439EFE5FEF78DF900289B
:1040C0003FF43BAF4300B9E7FEF79AF9F7E7214B1E
:1040D00021499B680868C3F3C2231A4492F87839CF
:1040E00003F01F03D840EAE7FEF776F900283FF413
:1040F00084AE8CE61B488AE6012309A81195099332
:10410000FDF7BAFF18BB134B1A6E42F480421A66D1
:104110001A6E02F480420392039ADA6C42F00102B2
:10412000DA64DB6C069003F001034FF4C060029385
:1041300003220723049004A902254FF09040CDE903
:104140000723029E0595FEF7E1FA236862E504F075
:1041500009FD00BF00100240000000200048E801F7
:1041600048BE00080024F40030B4214B5B68D868D6
:1041700010F00800FBD19D6A1C691A685B68C2F3E5
:10418000015101EB810102F07F33C2F3034212EBD4
:10419000410218BF174823F0FE4318BF5043C3F332
:1041A0000232C3F3032102EB820211EB42021CBF75
:1041B0004EF6602101FB0200C3F3021202EB820201
:1041C00003F00F0313EB4203C4F30E0418BF4FF4C4
:1041D0007A72A4EB050518BF02FB03004FF47A7353
:1041E00003FB05F30134B3FBF4F4204430BC704707
:1041F000AC00002080EE36002DE9F84F164C0A9EE8
:10420000A78D043A043F52087F0897420D46814625
:10421000984628BF174601F1040A0024331BBB420D
:1042200028BF3B466FEA84415A1E6FEA91419B4684
:104230006A8029805A0008EB440150461C4406F06D
:104240006FFF0BF10202002329464846FDF710F8E4
:10425000A642E3D8BDE8F88FAC0000202DE9F04F6E
:10426000254C85B00026CDE90266B4F82C80019279
:104270008946002B3AD04FEA58088346A8F1040833
:104280009A460D461F4626E0019B48F200019A1906
:104290002980631E4FF00001E9806A80AB806200D4
:1042A000002105F1080006F0DCFC294601235846F0
:1042B000221DFCF7DDFF02AB03CB264469602860BA
:1042C00009EB460559F81600696802AB564503C369
:1042D000A7EB04070AD2B845444628BF3C46B84578
:1042E000D2D200E0013CE307FCD4CDE709F108009D
:1042F00005B0BDE8F08F00BFAC0000202DE9F04F05
:1043000002EBC30689B07388129F4BB3804689467F
:1043100000254FF0010B736853F82540C4F301707A
:1043200001280CD0022833D0F0B1344B344ADB6B77
:10433000344900209847002009B0BDE8F08FA3B2AF
:10434000194659F8232022F00F0217B1C4F3034491
:1043500022434046FCF7C2FF738801359D42DAD301
:10436000012009B0BDE8F08FC4F3445A0BFA0AF3F8
:104370009F4216D3214A0097013B019321490390A4
:10438000A3B2D46B204AA047039809B0BDE8F08FD0
:10439000A3B2194659F8232022F00F02002FD8D1DA
:1043A000D4E7A3B243F4204C03930522012305A9CB
:1043B000ADF81800CDF81A004046ADF814C0ADF8BD
:1043C00016B0FCF755FF04A90DF11A00FCF730F9FF
:1043D000CAF1200A4FF0FF33C4F3044423FA0AFA67
:1043E000049B03990AFA04FA23EA0A0207FA04F47E
:1043F00022434046FCF772FFAEE700BFAC0000204E
:10440000F803010814FE0008C003010870B5094E46
:10441000336B05469847044628B12A46002106F02A
:1044200020FC204670BDF36B034A044998472046A0
:1044300070BD00BFAC00002020040108300401085A
:104440001C4991F82430012B32D030B44C685323EE
:1044500001200225CA2281F8255081F824006262D9
:104460006362A36823F48073A360A36823F480537A
:10447000A360086804E00A68121AB2F57A7F0DD8C2
:10448000E36813F00103F6D00020FF2201236262EB
:1044900081F8240081F8253030BC7047FF200322CA
:1044A000606281F8243081F82520104630BC7047C6
:1044B00002207047AC00002070B52B4C8CB001A8D6
:1044C0002C22002106F0CDFBD4F82052002D42D042
:1044D000FFF74AFE254B2649264A274E24690394B6
:1044E0002844A3FB00535B0D01FB1305A2FB052031
:1044F000800B4EF660228DF8050002FB1050A6FBE3
:1045000000251E4A4FF47A71AD0901FB1500A2FB8C
:10451000031204FB00001209A6FB001002EB42028A
:10452000A4EB9010A3EBC2024FF480744FF0004153
:104530004FF060638DF8065002908DF804200B94C4
:1045400006910893FFF77CFF18B901A8FBF740FF1D
:1045500038B104F007FBFFF773FF0028F9D184F8A6
:1045600024020CB070BD00BFAC000020B17C2195CE
:1045700080EE360073B2E745D34D6210ABAAAAAA0B
:10458000F8B595692B78B5F802E0144602EB4303C1
:104590000F46B3F8446063690146720003EB4E00B6
:1045A00006F0CCFDE26D698813780E446E8003B985
:1045B0003B791370F8BD00BF2DE9F04F2DED048B52
:1045C00090F838308DB007900393002B00F0E7800F
:1045D0000798828F0469C38FB0F84C5034F91210D9
:1045E000099502465B00408F08900193002D00F072
:1045F000D6801046526C836CB0F84E50B0F840B084
:10460000DFED708ADFF8C8810A95D3180293002283
:104610000901DB4305920B9104939146B6EE009A93
:10462000029A6949134681FB0331D317C3EBA101F9
:1046300001EB4101B2EBC101029A48BF1831002AD7
:1046400009B2C0F2B580604880FB0202C3EBA2024F
:1046500012B20B9B120482FB0356002D76F100036D
:1046600004DA4FF6FF73ED1846F10006089B194473
:104670002A0C34F9111042EA0642A2EB011207EEAD
:10468000902AF8EEE79A69EEA89AB0EE690A05F06A
:104690002FFAB0EE408AB0EE690A05F097FABBF146
:1046A000000F6BD0079A136DB2F842A093F800E0A8
:1046B00006930020054647F6FF7709E0DDF80CE099
:1046C000E25201351FFA85FCE3455044718052D90E
:1046D000019A09EB50039BB202EB8303E618E25EFA
:1046E00007EE902AB6F9022006EE902AF8EEE77A55
:1046F000F8EEE66A27EE887A26EE806A67EE807A20
:1047000066EE886A37EE467A77EEA67AB5EEC07A1C
:10471000F1EE10FAF5EEC07A4CBF37EE497A37EE7B
:10472000097AF1EE10FA4CBF77EEC97A77EE897A02
:10473000BDEEC77AFDEEE77A17EE10CA17EE901AB3
:1047400017EE102AC445B8BF42464145B8BF41469E
:10475000BA42A8BF3A46B942A8BF3946BEF1000FD7
:10476000AED19445AAD117EE90CABCEB010E18BF8A
:104770004FF0010EA4E7069B83F800E0059B029A28
:1047800001331FFA83F911460593049A0A9B1944D1
:10479000D31A0493099B02914B453FF641AF079B07
:1047A000186843680DB0BDEC048BBDE8F04F1847A6
:1047B000049B1A46054BA3FB02326FEA121212B297
:1047C00047E700BF00008037ABAAAA2AABAAAAAA73
:1047D0000080FFFF2DE9F04F2DED0C8B8346A3B039
:1047E00090F84E4090F84C000C90042CBBF8480018
:1047F000079088469246009337D89BED106AB5EE35
:10480000C06AF1EE10FA00F1F9819BF85630DFF83A
:104810009C90002B40F08882DBED117A99ED8A7A2A
:10482000F5EEC07AF1EE10FAB8EE478A40F36E85E5
:1048300088EE279AF6EE007A39EE279A00F17F8506
:1048400019EE100A04F0C0F9012908BF002880F011
:1048500076859BF84A30002B00F09482D9F83C30E2
:104860000F4A10490020984726E0DFF840900E4A92
:10487000D9F83C300B4900209847DBED117A99EDCF
:104880008A7AF5EEC07AF1EE10FAB8EE478A11DDB9
:1048900088EE279AF6EE007A39EE279A0CE000BFF0
:1048A000C40401085C04010840040108AC000020B5
:1048B000000000001FED029A079B0BB19BF84E30E1
:1048C00008939BF84A300293002B40F0A0819BF89C
:1048D0005030022B40F02F879BF84E40012C00F007
:1048E00048820024389A029B1471AAF8AC4193B113
:1048F0009BF84F30012B00F03D87022B00F03487EE
:10490000002B00F02087D9F83C30C44AC44900206D
:10491000984700230293B8F1000F4ED0B8F8083042
:10492000B8F88210B8F88020B8F87E00AAF8041011
:104930009B00B8F88410AAF802209BB203F1300261
:10494000AAF80000B8F80200AAF80610B8F8041097
:10495000AAF8080092B2B8F80600AAF80A10B8F847
:104960000A10AAF80C005F2AB8F82000AAF80E1066
:10497000B8F82210AAF81210AAF8100040F2D0815C
:104980006020B2FBF0F100FB112291B200201A4628
:1049900005460B4601210324AAF814300023AAF887
:1049A0001620AAF81810AAF81C50AAF81E00AAF897
:1049B0002010AAF81A40AAF82230009901224A8150
:1049C000029A00234B808B81002A00F0F087CDE90A
:1049D00004331D460AF13E0201F10E039FED91AA38
:1049E000DFED919ADFED918ACDF804B05E460AF1D1
:1049F0004607CB460992CDF80C80CDF818A0994611
:104A0000089AEBB29A4200F21B81099A0023A9F896
:104A10000030A9F8083022F815300135042D09F1CD
:104A2000020906F1100607F15607E9D1D946DDF86B
:104A30000C80DDF818A0DDF804B0BAF8ACC1BCF108
:104A4000010F04D1049B079A02FB03F30493009B1C
:104A50009BF852109A89BBF854005B899BF853600D
:104A6000AAF89E110799049C12FB01F292B24FF62C
:104A7000FF718C42134428BF0C469BB24708033891
:104A80000599A6465D1C9BF85640AAF8A801009817
:104A9000AAF8A011033F86F001061FFA8EF1ADB20D
:104AA000AAF8AA71AAF8A661AAF8A4118281838043
:104AB000C580002C00F0148100984133402203800F
:104AC00002810124AAF8C041B8F1000F03D0B8F860
:104AD0000C30AAF8C231029B002B40F00B81389AAF
:104AE0009BED106A002313600C9BAAF8B231079B60
:104AF000012B40F2F980BBF848300122023BAAF8B2
:104B0000AE31AAF8B0219FED4A7ADFED4A5A28EE7D
:104B1000077AF1EE007A68EE277AC7EE256A87EE0B
:104B2000A57AC8EE257AF6EE005A76EEA56A37EE3B
:104B3000257AFCEEE66A77EEA57ABCEEC77A16EE29
:104B4000903AB5EE406A17EE102AF1EE10FAFCEE3C
:104B5000E77AAAF8B83114BF01230023AAF8B621D6
:104B6000AAF8383017EE902A029BAAF8B421002B3D
:104B700000F0A280B5EE406AF1EE10FA0CD0C8EE5B
:104B8000067A77EEA55AFCEEE57A17EE903A1A0C03
:104B9000AAF83C30AAF83A20DBED117A9BF84A30AB
:104BA0009BF84B20AAF83030F5EE407AF1EE10FA7F
:104BB00014BF01230023AAF83220AAF82A3008D013
:104BC000FCEEC97A17EE903A1A0CAAF82E30AAF821
:104BD0002C209BF851300298AAF8BE31012140F2F6
:104BE000FF7240F60103AAF82410AAF8BA21AAF825
:104BF000BC3123B0BDEC0C8BBDE8F08FDFF83C90EE
:104C00000D4AD9F83C3006490020984735E6389AD5
:104C1000002313710293AAF8AC317CE64005010829
:104C20005C0401082549123E000000008FC2753D5A
:104C3000000096430024744970040108AC00002071
:104C4000099A012322F81530019B328993F84C30E0
:104C50000A93184640F2FF1140F2FF33002818BFB4
:104C60000B46CAB19A4217D8737B002B68D1F37BED
:104C7000B07B002840F05582012B00F0B180D9466E
:104C80004F4AD9F83C304F49DDF80C80DDF818A0C8
:104C9000DDF804B098470CE0D9464B4AD9F83C30CF
:104CA0004849DDF80C80DDF818A0DDF804B00020DC
:104CB000984700230293C0E6DBED117A9BF84A3057
:104CC0009BF84B20AAF83030F5EE407AF1EE10FA5E
:104CD00014BF01230023AAF83220AAF82A3078E76B
:104CE000009B1C811D80EDE60023AAF8AE31AAF8D6
:104CF000B03108E79BF84D20072A32D8334BDFED5F
:104D0000349A134493F8F839AAF8A231389BC3EDCA
:104D1000009A089B002B40F04C849BED106AE3E660
:104D200003200125002136E69BF84B30002B3FF491
:104D300073AD284AD9F83C302249002098479CE5B9
:104D4000F37B022B94D1D946234AD9F83C301D4934
:104D5000DDF80C80DDF818A0DDF804B000209847DD
:104D6000A7E7389A9BED106A002313600023029393
:104D7000BAE69BF80F30013B012B3FF6B3ADB0E52F
:104D80009FED139A9BF84F109BF85020079800282E
:104D900014BF20460020914208900AD8002B40F012
:104DA000C384022A00F03286389A1371AAF8AC3113
:104DB0009EE5D9F83C30094A02490020984780E531
:104DC000BC0501085C0401088005010848BE000814
:104DD000000000008404010890050108F0040108A7
:104DE000B84BB6F80680B48803EB8000B8F1180F12
:104DF000D0F8D4A940F2CD821822B8FBF2F102FB20
:104E000011839BB2002B40F0A6828BB210930B92C1
:104E1000002C40F0D282DBF83C30AB4AAB49204654
:104E200098470A9B002B00F0C28300230A930222BA
:104E300033689A440AF5C34314FB02F228334CF258
:104E40005031013C92B28B420E9208FB04A807D964
:104E5000DBF83C309E4A9D490020984700230A9386
:104E600008F5C34328334CF25032934207D9DBF89C
:104E70003C30984A95490020984700230A93BAF19C
:104E8000000FC0F28A8318239AFBF3F31AB2B8F129
:104E9000000FC0F27A83182198FBF1F109B293B2A6
:104EA00018229AFBF2F002FB10AABAF1000FA1EB54
:104EB0000301B8BF0AF1180A109C15934FF0180EA1
:104EC0008BB20FFA8AFA09B2B3FBF4F30B9C98FB8E
:104ED000FEF016910EFB10880B99B2FBF1F21FFA4F
:104EE0008AF1B8F1000FB1FBF4FC04FB1C1C1FFAA3
:104EF0008CF0B8BF08F118080F900FFA88F01290E4
:104F00000F9C0B980133013A92B29BB21892012B7D
:104F100012FB004292B2BDF8480000F0F783841AF9
:104F20000F9818BF0124814214BF01200020A3EB79
:104F30000003A3EB04039BB20D93A3B2119414934B
:104F400000F0ED831046029B1393A0EB0A000B9B2D
:104F500090FBF3F00123179383B219930F9B9B00EF
:104F6000FB870A9B8900B987002B00F00F82B37B77
:104F7000052B00F22784534A02EB4303B3F8E88978
:104F8000159B1699C3F12904A8F14A0A14FA8AF468
:104F900022B215924FEA5803521A033BA8F10301BB
:104FA000292A1FFA8AFAA4B2FB86B98607DCDBF845
:104FB0003C30494A45490020984700230A93159BF5
:104FC000A8F11408434507DBDBF83C30434A3F496E
:104FD0000020984700230A930B9BA7F838A0013BB9
:104FE0009B009BB22C2B7C8740F214820023A7F8F5
:104FF0005030A7F85230A7F85430109B013BA7F867
:105000004E30179BA7F848300D9B002B00F0E48131
:105010000123A7F84A30139B149AA7F84C20002BC1
:1050200000F0F583199BA7F84230189BA7F844308D
:10503000119B002B00F0DF83129B0F9AA3EB020C55
:105040000B9B9CFBF3FCA7F846C00D9B013B9BB25E
:105050000D930D9BA7F840300A9B002B59D0B37AD3
:10506000172B00F28581092B00F28A83C3F1090313
:1050700015227B803A80039A002A00F02A847B88DC
:1050800002EB43039B89F07BBB801AA9FBF71AFF55
:1050900040BBD946DDF818A0D9F83C30104A0B497E
:1050A000DDF80C80DDF804B09847562303FB05A318
:1050B000BDF88410BDF88620A3F87010A3F86E2008
:1050C000F7E500BF48BE0008080601085C040108B7
:1050D00054060108680601089C060108BC06010880
:1050E000E4050108BDF87C40BDF884307B85082CC0
:1050F000BDF886303B850CD8BDF87E30072B08D82C
:10510000BDF880C0BCF1080F03D8BDF88220082A82
:105110001AD9D946DDF80C80DDF818A0DDF804B006
:10512000C7E5581EC0B204287FF65AAED946BF4A1A
:10513000D9F83C30BE49DDF80C80DDF818A0DDF868
:1051400004B000209847B4E5012101FA03F3501E92
:10515000013B9BB201FA02F201FA00F03C81013AF4
:105160009C0101385B0240023B829201019B7882E4
:10517000A7F80AC0BC81FA819DF8680093F84D3009
:105180001E93002853D01B9A002A50D0022B00F205
:10519000A482A84C234493F8F439BB82039B002BD0
:1051A00064D007F1140A00233B830A92AAF8101076
:1051B000039BDDF874C0D3F860E00B90D3E9198449
:1051C00000210B46204608EB1142A2EB0E0262457D
:1051D0009CB2014403F1010380F2E7830F2BF2D16B
:1051E0000B981C46039BD3F878C0D3F874E0AAF858
:1051F00006400A9C0CEB8C0105220EEB11431B1B95
:1052000002F10108614440F1AB831FFA88F2142ACD
:10521000F3D1D946884AD9F83C308549DDF80C806D
:10522000DDF818A0DDF804B00020984741E5072B11
:1052300000F253827F4A134493F8F839BB82039BF0
:10524000A3B100233B8307F1140A002840F0068134
:10525000B8847883F882AAF80800AAF80E00002320
:10526000AAF80A3000233B84AAF81230308996F855
:105270000BC0A7F830C0012869D00121831EF98531
:10528000BB85717B009CA389F98081F0010179863F
:105290000E99A9F80030A9F808100B44F17BA381FE
:1052A00001293B8D2FD002290CBFB0EE686AB0EE09
:1052B000696A01339BB2B28807EE103A07EE902A72
:1052C000B8EE477AF1EE006A27EE267AF8EE677AB2
:1052D00006EE900A67EE277AF8EE666A059B67EE9F
:1052E000A67A1A4667EE867A002B08BF624667EEFA
:1052F0008A7A049B0592FCEEE77A17EE902A134413
:105300000493FFF78ABB9FED4D6AD2E715D400F3F3
:1053100055829BF84A30002B3FF432ADF5EE407ACF
:10532000F1EE10FA05D1B5EE406AF1EE10FA40F058
:10533000E3829FED439AFFF791BA9FED419AD9F826
:105340003C30404A3A4900209847FFF7B5BA00235D
:10535000FB85BB8595E7DBF83C300D9301230B9370
:10536000394A0D9B3249002098470B9B109358E512
:10537000D946364AD9F83C302D49DDF80C80DDF8A5
:1053800018A0DDF804B00020984792E44FF08008A0
:10539000F6E5B8F1000FDED01823B3FBF8F308FBF5
:1053A00003F3C3F118039BB2002BD4D10123CDF832
:1053B0002C801093002C3FF42EAD0A9800287FF427
:1053C00036AD337B002B00F0F080214ADBF83C3017
:1053D0001749984704222BE50D9BA7F84A30149BE8
:1053E000A7F84C30139B002B00F00D82199BA7F8F7
:1053F00042300023A7F84430119B002B00F0FF81BE
:10540000129B0F9AA3EB020C0B9B9CFBF3FCA7F8DF
:1054100046C01EE61E2B40F2E1810F221E3BA7F87C
:105420005430A7F85020A7F85220E6E5E40501081B
:105430005C04010848BE00080C070108CDCC4C3EB6
:1054400000000000B0040108F4050108D4060108BA
:105450001C0601089A999D41F902154F1B9B0A935E
:105460001A460123AAF81030002A7FF4A1AE1C9B33
:105470000A9A0B93B3F5167FAAF80620AAF8022021
:10548000C0F0B882039BD3F86CC00B9B0021A3EB48
:105490000C0E4FF4C87201FB022474450B4601F157
:1054A0000101F8DB0A99002914BF012400244FF000
:1054B0000101AAF80840AAF80E1000F04382039AEE
:1054C000D2F870800B9A4FF4C874002004FB1324A8
:1054D000024602E0162A3FF49CAE0CEB1041091B79
:1054E0001FFA82FE404402F10102F3D4BEF1000F24
:1054F0000AD00EF1FF3290B208FB00F20CEB124220
:10550000A21A9142C8BF8646AAF80AE0002B00F012
:1055100053820B994FF4C87202FB13120B920A9A32
:10552000002A40F04F821446039AD2F858E0D2F88D
:105530005C800B9A00201444024602E0162A3FF4D5
:1055400068AE0EEB1041091B1FFA82FC404402F1C9
:105550000102F3D4BCF1000F0DD00A9A5AB90CF134
:10556000FF3292B208FB02F80EEB1848A4EB0808D1
:105570004145C8BF9446A7F820C0002B3FF474AE45
:10558000DA1D012393409BB26EE66FEA08011823EF
:10559000B1FBF3F1C94309B281E46FEA0A021823AF
:1055A000B2FBF3F3DB431AB271E4029B0A930422C9
:1055B0003EE4BCF1010F00F08F8107EE901A5FED21
:1055C0005BAAF8EE67CAF7EE089AB2EE02DAD9EDF6
:1055D0008A7A1FED5F0AB8EE67AA80EE0A0A04F025
:1055E000CFFA9BF85030022B2AEE00AA00F213816A
:1055F000C74A9BF84E10DDF8088002EB8300D0ED1F
:1056000000DA90ED03CA002900F016810026DFEDD4
:10561000C18AC14FDFEDC1BA9FEDC1BA35463AE04C
:1056200032F8133007EE903AF8EE677A8AEE277A6E
:105630005D44A31CB5F808C0A8889BF84E105A001A
:1056400093B20CFB0333023304EB44045B00A4006D
:105650009BB287EE0B6A1834A4B20136F5B2A942A8
:1056600007EE903A07EE104AF8EE677AB8EE477AFE
:10567000C7EE866AC7EE065A07EE900AF8EE677A1A
:1056800066EEA77A77EEA57A77EEAA7A77EEA97A10
:1056900078EEA78A30D90BEB05131AA9D87BFBF754
:1056A00011FC2D019F493A46044618B9D9F83C30FF
:1056B0009847A0460BEB05039B4A9B7BBDF88640B1
:1056C000052BADD9D9F83C30984A96490020984727
:1056D0004FF00008F0EE6B7AA8E7D946944AD9F863
:1056E0003C309049DDF80C80DDF818A0DDF804B0FE
:1056F00000209847FFF7DDBAB8F1000F40F09E8018
:105700009BED106ACDF80880FFF7EEB9A142234661
:1057100000F0CF80002314930D93119313E4002322
:1057200017931393199319E4389A00231371AAF865
:10573000AC31FFF7DDB8389B1A46029B1371AAF80B
:10574000AC31FFF7E8B80123AAF82630AAF82830D0
:105750009BF85030012B24D0022B1BD033B3D9F847
:105760003C30744AFFF7D2B80023AAF82630AAF8D2
:105770002830EDE70022AAF82630AAF82820E7E72B
:10578000102B94BFC3F11E03C3F1170300223B800B
:105790007A8070E40023CAF8343001230293FFF7C3
:1057A000BAB8CAF834300293FFF7B5B84FF0011316
:1057B000CAF8343001230293FFF7ADB89FED559A34
:1057C000FFF73EB8DBF83C30584A5649002098476E
:1057D00000234FF080080A93FFF7D2BB0F2B40F253
:1057E00082800F3B0F22A7F852300023A7F85020E9
:1057F000A7F8543001E4119BA7F8463025E4119B2B
:10580000A7F8463025E40D9BA7F84230F1E5139B3D
:10581000A7F8423009E4D9F83C30464A4149002013
:1058200098479BF84E30002B40D09FED3ACA4FF07E
:105830000008F0EE4CDAE9E6DFED368ADFED3E7A7D
:10584000DFED376ADFED3D5A9BED106A389B8AEE3B
:10585000275AF1EE0C7A85EE267A6CEEA7CA3CEE5A
:105860002DCACCEE877AB0EE007A37EE8DDAF0EE04
:10587000477A7DEE288A78EE8C8A48EEA57A77EE14
:10588000A88AC6EEA87AB4EEE76AF1EE10FAC3ED84
:10589000007A7FF729A9FDEEE77AD9F83C40284A3B
:1058A000204917EE903A0020A04700230293FFF70B
:1058B00034BA90420CBF012300230D934FF0000334
:1058C00040F0A88017931493119313931993FFF743
:1058D00045BB039BFFF7D7BBF0EE69AAB0EE69DAD0
:1058E000F0EE69CA73E60022A7F85030A7F85220FC
:1058F000A7F85420FFF781BB9BF84F109BF850206E
:105900009FED049A91427EF4A9AFFFF73FBA00BF22
:1059100048C8000800000000E4050108000000433A
:10592000002474495C04010830C80008900601088E
:10593000EC06010860050108000020430AD7233C5B
:10594000380701080A99AAF80A1000283FF48AAC1F
:10595000002B58D00B990A9C02FB13120B92E3E523
:10596000052A0BD0511E89B20A9C0CFB01FC0EEBE0
:105970001C4CA4EB0C04A342C8BF0A461C9B0B930F
:10598000B3F5167FAAF80220BFF47CAD0023AAF875
:105990000830AAF80E3000283FF461AC0A9A002AB9
:1059A0002DD0039AD2F86CC089E50B981AE4029BBB
:1059B000CDE90433FFF741B8FA8B08FB02F20CEB98
:1059C00012420B9203987C8B826E416E02FB04F4B0
:1059D000026E01EB1444A41A3FF51BAC039AF88A3B
:1059E000916F526F01FB00F102EB11410B9A0A44D7
:1059F0000B9299E50A9BAAF80830AAF80E3000230A
:105A0000AAF80A300A9300231C468DE5012302936D
:105A1000FEF764BF14931193FFF795BA70B5FEB00B
:105A200004464FF4E2720D460DA8002103AE05F0C6
:105A300018F90DAA204605AB00960021FEF7CAFE14
:105A400008B97EB070BD94F84B202B46314605A8AE
:105A5000FBF79EFBF5E700BF2DE9F04F2DED028B24
:105A6000ADF21C7DCDE9041203931B7804460A2B8A
:105A700013D8DFE813F023000B007400BF005D01B2
:105A800033024703D4043805A6052300FBF71AFEAA
:105A9000002840F09686039B1B78B94EF46BB94AF8
:105AA000B9490020A04700231C46039A20461370E2
:105AB0000DF21C7DBDEC028BBDE8F08FB04EDDF821
:105AC00048078822002105F0CCF8D6ED8A7ADFED70
:105AD000AF5ADFEDAF6AF8EE677AB6EE006A85EE90
