:020000040800F2
:10000000000001207D68000865590008615900085A
:100010005D590008595900085559000800000000B2
:100020000000000000000000000000004D59000822
:1000300051590008000000004959000839590008CA
:10004000CD680008CD680008CD680008FD5800089C
:10005000CD680008CD680008CD680008CD680008AC
:10006000CD680008E9580008CD680008CD68000890
:10007000DD580008D1580008CD680008CD68000898
:10008000C5580008B9580008CD680008CD680008B8
:10009000CD680008CD680008CD680008CD6800086C
:1000A000CD680008CD680008CD680008CD6800085C
:1000B000CD6800080000000000000000CD680008C6
:1000C000CD68000891580008CD680008CD68000888
:1000D000CD680008CD680008F9540008CD68000814
:1000E000E5540008795400080000000000000000FA
:1000F0000000000000000000000000000000000000
:1001000000000000CD68000800000000CD68000875
:100110000000000000000000CD680008CD68000865
:10012000CD680008CD680008CD680008CD680008DB
:10013000CD68000800000000000000000000000082
:10014000CD680008CD680008CD68000800000000F8
:10015000CD680008CD680008CD680008CD680008AB
:10016000CD680008CD680008CD68000800000000D8
:10017000CD680008CD680008000000000000000005
:10018000CD680008CD680008CD68000800000000B8
:1001900010B5054C237833B9044B13B10448AFF3C1
:1001A00000800123237010BD90000020000000009B
:1001B000347B000808B5034B1BB103490348AFF378
:1001C000008008BD0000000094000020347B00087F
:1001D000144BDB68C3F3022310B4C3F107041A1DE8
:1001E000042C28BF0424062A4FF0FF3202FA04F23E
:1001F0008CBF033B002321EA02019940431C0AD033
:1002000000F1604000F561400901C9B280F80013B7
:100210005DF8044B7047034B0901C9B283F8231002
:10022000F6E700BF00ED00E0F0B40568294F064690
:1002300001E0581C06D1EC6931EA0400F9D1002034
:10024000F0BC70473868801A834227D333B32868DC
:100250004407F0D5E8690005EDD54FF400632B6243
:1002600055E8003F23F4D07345E80032002AF7D167
:10027000326802F1080353E8003F23F0010302F162
:10028000080040E800310029F3D12023B36786F845
:100290007410F3670320C6F88030D1E755E8003FBB
:1002A00023F4D07345E80032002AF7D1326802F116
:1002B000080353E8003F23F0010302F1080040E87F
:1002C00000310029F3D12023B36786F8741003208E
:1002D000F367B5E7AC0000200346214A006890426E
:1002E00095BF204A204A2149214930B4024419646B
:1002F0001421B2FBF1F292005A64022283F8252005
:1003000001689D68D3E9052421F4FF4121F07001C3
:100310002A430A43224342F08002B5F5804F02602F
:1003200014D0196C114A914208BF12495A6C18BF77
:10033000114902F01C000F240A68844022EA0402DA
:100340000A605A680C68824022430A600020012239
:10035000D86383F8240083F8252030BC704700BFA1
:1003600007040240F8FFFDBFF8FBFDBF000002409C
:1003700000040240A8000240A80402402DE9F04118
:10038000654C94F82430012B00F0C2806168012292
:10039000022384F8242084F825308E680278056AC8
:1003A00016F0400616BFC678C670B605092A09D9E8
:1003B00000230A3AD2B2092A03F10103F9D842EA2A
:1003C0000312D2B24378092B4FEA024209D900271F
:1003D0000A3BDBB2092B07F10107F9D843EA0713FF
:1003E000DBB290F802E0BEF1090F4FEA03280DD905
:1003F0000027AEF10A0E5FFA8EFEBEF1090F07F17B
:100400000107F6D84EEA071E5FFA8EFE90F824C068
:10041000BCF1090F0DD90027ACF10A0C5FFA8CFC76
:10042000BCF1090F07F10107F6D84CEA071C5FFA87
:100430008CFC436947681D432E43324348EA02035C
:10044000826AC669CA2553204D6243EA0E0E48628D
:10045000B2F5807F4EEA0C638A6846EA070639D017
:1004600022F400728A60CA68D2B262F42072CA6052
:10047000256804E02068401BB0F57A7F20D8CA6860
:1004800012F00202F6D00B628E648B6843F40073A4
:100490008B608B6843F400538B60204B1A6842F4E6
:1004A00080221A609A68FF2642F4802201250020EB
:1004B0009A604E6284F8240084F82550BDE8F081EB
:1004C0000323FF2084F824204862184684F825304E
:1004D000BDE8F08122F480728A60CA68D2B262F408
:1004E000C072CA60256804E02068401BB0F57A7FBE
:1004F000E6D8CA6812F00102F6D0CB614E648B6870
:1005000043F480738B608B6843F480538B60C4E743
:100510000220BDE8F08100BFAC00002000040140D3
:1005200009494A68D36823F0A003D360086804E04F
:100530000B681B1AB3F57A7F04D8D3689B06F7D5EE
:100540000020704703207047AC00002008B5114B15
:10055000DA6822F08002DA609A68920603D4FFF724
:10056000DFFF88B908BD9A6822F020029A60FFF781
:10057000D7FF18B1084B032083F82500054A93687C
:1005800043F02003936008BD034B032083F825004C
:1005900008BD00BF00280040AC0000200E494A689A
:1005A000D06810F0400001D0002070474FF0FF33BA
:1005B00030B4D3600C68032509E003280AD00B6827
:1005C0001B1BB3F57A7F84BF81F825500320D368C5
:1005D0005B06F2D530BC7047AC000020F0B4314B64
:1005E000314E1B68056882B000248DF803403468E2
:1005F000376803EB8303C4F16404C3EBC3032244F1
:100600001B0D02FB03F30193AB6819420AD12CE0E6
:10061000019C019B013B0193AB68002C08BF0022A9
:10062000194222D0B1F5C06F05D12B7BDBB28DF81A
:1006300003309DF803303368DB1B9A42E8D86B68BF
:10064000426823F0E003B2F5827F6B601AD0836AC0
:10065000B3F5005F0DD00122002380F85D2080F803
:100660005C30032002B0F0BC7047002002B0F0BC48
:1006700070472B6823F400532B602B6843F400531E
:100680002B60E8E78368B3F5004F02D0B3F5806FC5
:10069000DDD12B6823F040032B60836AB3F5005F44
:1006A000D9D1E6E700000020AC00002070B4294D4D
:1006B000294B2A681B6804682E68C2F16402114441
:1006C00083B0C3F3CB3301FB03F30193A3681A0692
:1006D0000DD52B689B1B8B420DD2019A019B013BD0
:1006E0000193A368002A08BF00211B06F1D4002053
:1006F00003B070BC70476368426823F0E003B2F552
:10070000827F636016D0836AB3F5005F09D001224F
:10071000002380F85D2080F85C30032003B070BCBB
:100720007047236823F400532360236843F4005385
:100730002360ECE78368B3F5004F02D0B3F5806F18
:10074000E1D1236823F040032360836AB3F5005F9F
:10075000DDD1E6E7AC000020000000202DE9F04FDD
:10076000054687B0002405EB410E02900592104625
:1007700004910393AEF1120EAA1E27460194A146DE
:10078000A2464FF0010C40F2EE2B14E0BAF1000F3C
:1007900030D14B4535DD99460124019E7642B34266
:1007A000BCBFA8EB050301938F4238BF0F469645A7
:1007B00000F102002BD0558A32F8021F6B1A03F5A4
:1007C0000046B6F5803F38BF038088462CBF4FF007
:1007D000000C11885B45D9DC594E9945B8BF994644
:1007E000B342DADA002C0ABF4FF0000CA2464FF0F9
:1007F000010AD2E74B4506DD994654464FF0000CFE
:10080000CBE70124C9E754464FF0000CC5E7BCF123
:10081000000F05D14FF0000A504607B0BDE8F08F39
:10082000002CF7D0BAF1000FF4D0049A059E04977B
:100830000023CDF81490A2F11C0E123698469C4667
:100840001D461F46994636F9023F03EB830203EB30
:100850004203304631460A2231F902BD30F9024FD7
:1008600002FB0B33A2F1020B013A0BFB0433F3D171
:10087000634561DC434501DA9846A9460135754573
:10088000E1D14CF250339C4538464C46049FDDF88C
:100890001490BFDD2B4B9845BCDAB9F1000FB9D0ED
:1008A000019B002BB6D0029B11991B88FF00DB0037
:1008B00041B1BB4204D2DA434A443A44B2FBF9F2B2
:1008C00011990A60109A002AA6D0039A002AA3D090
:1008D000024602990E3231F81210B3EBC10F4FEA03
:1008E000C10005D2DB434B440344B3FBF9F3D21AF6
:1008F000029B04F10E0933F81930B7EBC30F4FEA2E
:10090000C30107D90198431E3B445B1AB3FBF0F3C4
:10091000A9EB0309002AFFF67DAFB9F1000FFFF63E
:1009200079AF4A453FF776AF109BA9EB0209C3F8B0
:100930000090039B1A606FE79C462F469EE700BF1E
:1009400012FDFFFFB03CFFFF034B9B6A13B1DB6856
:1009500002491847704700BFAC000020E4A9000816
:1009600070B4124E124D00F1BC04002143680B44D8
:10097000024640F8043F12689A1AB24209DD50F864
:10098000042CA3F5C9237E3BA1F5C92103607E3960
:100990009A1AAA4206DA03F5C9237E3301F5C92162
:1009A00003607E318442E1D170BC70473F24030074
:1009B000C1DBFCFF054B064A064910B41C6CDB6A20
:1009C000A44602205DF8044B604700BFAC00002045
:1009D00044A4000848A40008024B9B6A0BB15B6A60
:1009E00018477047AC000020024B9B6A0BB11B6A92
:1009F00018477047AC000020024B9B6A0BB15B6943
:100A000018477047AC000020024B9B6A0BB11B6873
:100A100018477047AC000020184BDFF864C02DE980
:100A2000F041DE6A73185C1EA6460022ACFB00751E
:100A3000ED0805EB8507A0EB470780463037B8F196
:100A4000090F28460EF8017F154602F10102EDD884
:100A5000002098541046184403EB550314F8015F26
:100A600010F8017D27709C420570F7D11144481C95
:100A70002C22002372543354BDE8F081AC000020D6
:100A8000CDCCCCCC10B5074A92F84840012C82B0AE
:100A900006D90091146C0449044A03460220A04779
:100AA00002B010BDAC00002048A400084CA400080F
:100AB00030B5084C94F84850012D83B007D9CDE9E2
:100AC00000120346246C044A04490220A04703B0E4
:100AD00030BD00BFAC00002060A4000848A400089E
:100AE00010B5074A92F84840012C82B006D900910F
:100AF000146C0449044A03460220A04702B010BD0A
:100B0000AC00002048A4000878A4000810B5074AEB
:100B100092F84840012C82B006D90091146C044927
:100B2000044A03460220A04702B010BDAC000020DA
:100B300048A400088CA4000830B5084C94F848502C
:100B4000012D83B007D9CDE900120346246C044A75
:100B500004490220A04703B030BD00BFAC00002014
:100B60009CA4000848A40008074A92F848100129EC
:100B700009D910B4146C0549054A0346A44602205D
:100B80005DF8044B60477047AC00002048A40008A3
:100B9000B4A400087AB110B4043900EB82040288CE
:100BA0004388043043EA0243844241F8043FF6D1CB
:100BB0005DF8044B7047704752B101EB8202043874
:100BC00050F8043F4B801B0C0B8004319142F7D14D
:100BD000704700BFD0ED007A9FED616ADFED616A7A
:100BE00086EE277AF0B5064683B0B6EE006A37EE99
:100BF000067AF4EEE67ABCEEC77AF1EE10FA17EE5A
:100C0000103A9CB206DC9FED587AF4EEC77AF1EE0A
:100C100010FA71D5F5EEC07AF1EE10FA9FED537A25
:100C20004CBF534B534B9FED516ADFED536A534D0D
:100C300053492F6C48BFF1EE677A77EE877A002030
:100C4000BCEEE77AF5EEC07AF1EE10FA17EE102A54
:100C50004CBFB1EE677AB0EE677A37EE067A009253
:100C6000BCEEC77A474AB8EE477A103C77EEC77AAF
:100C700067EEA67AFCEEE77ACDED017AB847EF2C65
:100C800037D9D6ED007A9FED397A9FED386ADFEDDE
:100C90003A6A2C6C3A49F5EEC07AF1EE10FA48BF88
:100CA000F1EE677A77EE877A4CBF314B314BBCEE71
:100CB000E77AF5EEC07AF1EE10FA17EE102A4CBF83
:100CC000B1EE677AB0EE677A37EE067A0092BCEE44
:100CD000C77A2C4AB8EE477A002077EEC77A67EEDB
:100CE000A67AFCEEE77ACDED017AA047002003B0AA
:100CF000F0BD002003B0F0BDA4F110039BB2EF2BB8
:100D000001D91E4DBFE777EEC77ADFED1F6A9FED71
:100D10001F7A67EEA67A3F2C77EE877AFCEEE77AA9
:100D200017EE902A0A8112D9BF2C4FF0010398BF09
:100D3000A4F140024B808CBFE208C2F3CF0204F062
:100D400007038A80CB8001200C8003B0F0BD002215
:100D50002F2C88BF23468B804A80CA80F3E700BFD0
:100D6000F902154F8096984C8096984BBD37063502
:100D7000C4A40008E4A9000800247449AC000020C1
:100D8000F4A40008C8A40008E8385BB500007C4261
:100D900070B500EB420482B001220E46204601A944
:100DA0001D46FFF7F7FE019A22F00F0205B132430C
:100DB0000092214601226846FFF7FEFE02B070BD98
:100DC0002DE9F04F87B0BDF84070DDF844A003EB8B
:100DD000C7077B8883B381460E4601EB02080025D6
:100DE0004FF0010B7A6852F82540620092B2B2428D
:100DF000C4F301701DD342451BDA01280CD0022830
:100E000036D0E8B1344B354A1B6C35490020984741
:100E1000002007B0BDE8F08FBAF10003A2EB060294
:100E200018BF012392B2C4F303414846FFF7B0FF55
:100E30007B880135AB42D5D8012007B0BDE8F08FE3
:100E4000C4F344530BFA03FC921BE24591B21ED348
:100E50000CF1FF33204A0193CDF800A0146C214A15
:100E600002900B461E49A047029807B0BDE8F08FDC
:100E7000921BBAFA8AF35B0992B2C4F30341484663
:100E8000FFF786FF7B880135AB42ABD8D4E709EB8F
:100E90004100012204A903930290FFF77BFE039B0C
:100EA00002984FF0FF32C3F12003C4F3044422FA46
:100EB00003F3049AA34022EA03020AFA04F4014667
:100EC000144305A801220594FFF776FE7B880135BF
:100ED000AB4287D8B0E700BFAC0000204CA50008AB
:100EE00040A5000808A5000810B1024B9B6B1847ED
:100EF000704700BFAC00002038B5064D6B6B9847BB
:100F0000044608B1204638BD2B6C034A0349984774
:100F1000204638BDAC00002070A5000880A5000860
:100F2000DFF864C02DE9F047DCF844501DB12B46D2
:100F3000BDE8F047184712B35200A1F10208A2F130
:100F400002090E469A4607464944444634F8025F71
:100F50006DBA8C422580F9D1DCF83C4038463146E8
:100F6000A047BAF1000F01D1BDE8F0874E4438F830
:100F7000023F5BBAB045A8F80030F8D1F4E7BDE80D
:100F8000F047DCF83C301847AC00002070B5012574
:100F900084B041F4A0430446164603A92A4601A89A
:100FA000ADF808300196ADF80A50FFF705FE20466F
:100FB00002A900230422FFF7B3FF04B070BD00BFF5
:100FC0002DE9F04F1D4C248E85B0063C0292A208FC
:100FD000DDF838800192039363B382460F4601F136
:100FE000060B99460025019B7D804B4528BF4B464B
:100FF0005C001E46631EBB80029B4FF4804203EBE5
:1010000085003A80033432465946FFF7D5FD224623
:10101000002339465046FFF783FFD8E90023013308
:1010200002EB4404C8E90043039B35449D42A9EB0D
:101030000609D8D305B0BDE8F08F00BFAC00002092
:101040002DE9F04782B01D4643F44053BDF82840D7
:10105000ADF8003000278A469146694601230322F5
:101060008046ADF80270ADF80470FFF759FFBDF986
:10107000046004FA0AF1714001EA090445F480555C
:1010800040463B46694674400222ADF80050ADF838
:101090000240FFF745FF02B0BDE8F08730B583B0EE
:1010A0000025294600957B23FF220446FFF7C8FF51
:1010B0000121204600918B230222FFF7C1FF0095FA
:1010C00020468B2380220721FFF7BAFF03B030BDF3
:1010D00030B583B041F4805415460023022201A9A3
:1010E000ADF80440ADF80650FFF71AFF03B030BD6D
:1010F00030B583B041F4405114460025ADF80010DE
:10110000012303226946ADF80250ADF80450FFF701
:1011100007FFBDF80430238003B030BD70B582B046
:101120000DF106020E4600241C210546ADF80640CE
:10113000FFF7DEFFBDF8062012F400620CD128464E
:101140001B21FFF7C5FF284646F400621B21FFF76D
:10115000BFFF012002B070BD044B054A1E6C05495B
:1011600020462B46B047204602B070BDAC000020A0
:1011700090A50008C0A5000870B582B00DF1060268
:10118000002437210546ADF80640FFF7B1FFBDF852
:10119000063003F0C003B3B90DF1060200241C2190
:1011A0002846ADF80640FFF7A3FFBDF806301B0543
:1011B00015D50E4B0E4A1E6C0E4920462B46B047E5
:1011C000204602B070BD094B93F84820002AE3D0B6
:1011D0001C6C094A07492B460120A047DCE728463A
:1011E000FFF75CFF012002B070BD00BFAC00002023
:1011F00004A60008C0A50008D8A50008F0B40C4D4E
:101200002F8E9E1CB7EB460F05D22B6C094A0A495C
:10121000F0BC00201847144641F4A041013B118066
:101220005380214626F000420023F0BC78E600BF40
:10123000AC00002034A6000854A600082DE9F04FA9
:10124000DFF8ACA191B0BAF83070049115461E4693
:101250000790FFF791FF044618B9204611B0BDE88A
:10126000F08F9AF84830032B05D9DAF840305B4A02
:101270005B4904209847D6ED007AF8EE677A0DA90D
:101280000CA8CDED0C7AFFF7A5FC04460028E4D0AD
:101290003368544ABDF836100891A2FB03239B0C17
:1012A0006D087F0803EB8303BD4205934E4BBDF8E9
:1012B0003810099128BF3D46BDF83A100A91023D09
:1012C00003F63438049BBDF83C100B9125F0010265
:1012D00040F29A5706921FFA82FB1E1D00250397C3
:1012E000069B039AC5F5B36909F102094B4598BFFE
:1012F0005A463D4B6C0803EB840091463146520838
:10130000FFF75AFC059B01931A2300934A46434674
:1013100029463046FFF754FD58B900249AF8483062
:10132000032B9AD9DAF84030304A2D4904209847E7
:1013300093E7089A1323CDE90032294643464A46EB
:101340003046FFF73DFD86464FF0110C43464A46B6
:1013500029463046BEF1000FDFD0099FCDE900C716
:10136000FFF72EFD86464FF0120C43464A462946AB
:101370003046BEF1000FD0D00A9FCDE900C7FFF77D
:101380001FFD86464FF0100C43464A46294630461C
:10139000BEF1000FC1D00B9FCDE900C7FFF710FDD4
:1013A000844621466446049A07984B466CB15D44D6
:1013B000FFF724FFADB240F299539D42039BA3EB8C
:1013C0000B07ABD8BBB203938AE70BEB05039BB2C9
:1013D00040F299529342A0D9A0E700BF68A6000846
:1013E00098A6000883DE1B43507B0008ACA60008CB
:1013F000AC0000202DE9F04F02EB420C00EB8C0C0E
:101400008DB000268346824680466746B14603A8D3
:101410004FEA890586469FED577A43466AB19C1983
:101420002C44D4ED007A1C46D4ED006A0C3367EEF0
:10143000A67ABB4237EE277AF1D104350C2DAEECFB
:10144000017AE8D109F10109B9F1030F00F11000A7
:1014500008F10408A6F1040607F10407D8D19DEDB0
:10146000046ADDED055ADDED086A68460BF10C04EF
:10147000DFED407A53463AB11D4695ED007A0C33C4
:10148000634577EE877AF7D10AF1040AA245E0ECCA
:10149000017A0CF1040CEBD1DDED037AF5EE407A24
:1014A000F1EE10FA10D0B7EE007A87EE274ADDEDA4
:1014B000077A66EE044A26EE245A77EEC57AF5EEF0
:1014C000407AF1EE10FA06D100200023CBF800306C
:1014D0000DB0BDE8F08FC7EE272A65EE843A25EE01
:1014E000A47A66EE237A9DED0B5A76EEE77A36EE15
:1014F000C77A67EEA27A65EEA36A75EE666A27EE92
:10150000275A76EEC56AF5EE406AF1EE10FADBD0A6
:101510009DED005A9DED013A9DED022A64EE854A4B
:1015200063EE853A73EE644A012067EEA47A0023E5
:1015300072EE677A77EEE33AC3EEA67A27EE277A61
:10154000C1ED027A34EEC77A65EEA75A67EE227AC9
:1015500026EE276AC1ED017A35EE466A76EE655AC7
:1015600025EE844A81ED004ACBF800300DB0BDE88D
:10157000F08F00BF000000000028B8BF404270B4E8
:10158000BABF00B20124002400293FDB884238DBC7
:101590000022034668B30846002643F628450004A7
:1015A000B0FBF3F1A9424AD946F2D633994236D973
:1015B00048F67203994244D94AF64943994242D9BE
:1015C0004DF2A303994240D94FF24B73994298BF11
:1015D000052025D94FF24C7548F233234CF2A34035
:1015E000491B03FB01F100EB114016B1C0F5C930F6
:1015F0001F3014B1C0F549303F3002B1404270BCD9
:1016000070470B46C1B912480A46F2E7494209B28F
:1016100088424FF00102BCDA0B461646BDE70120B6
:101620000C4B03EBC00503EB8003D5F8280CD3F873
:101630005C3CD5F8245CD3E700220126ADE700200E
:10164000EEE70220ECE70320EAE70420E8E700BF2A
:101650001F920100507B00082DE9F041436A86B0DB
:10166000002B5CD0012B044668D00022ADF80C2082
:10167000DA0702D40C2B40F2938000262068ADF8E4
:101680000E600DF10E0240F21311ADF81060ADF8CE
:101690001260ADF81460FFF72BFD206804AA4FF428
:1016A0008A71FFF725FD20680DF112023321FFF743
:1016B0001FFD206805AA3221FFF71AFDBDF8123080
:1016C000022B5ED0032B54D105AA20683221FFF7EC
:1016D0000FFDBDF81430626A93427AD0554D0092E6
:1016E0002D6C554A55493046A8470425206803AA61
:1016F0004521FFF7FDFCBDF80C30002B40F0958034
:101700004C4D2B6C4E4A4D49002098470425002132
:101710004C48FFF771F9284606B0BDE8F081454B0B
:1017200093F84820012A1FD91B6C474A43490220DD
:1017300098470125284606B0BDE8F0813D4D95F853
:101740004830012B04D92B6C404A3C490220984771
:10175000EB6C0593D4E90312206805ABFFF76EFD2F
:1017600060BB2B6C3A4ACEE70125284606B0BDE89F
:10177000F081304D374A2B6C30493046984704256C
:10178000B4E7BDF8143043F2390293421FD0294D1B
:1017900000922D6C304A29493046A8470425A5E718
:1017A000006803AA4521FFF7A3FCBDF80C30002B0D
:1017B000A6D00225284606B0BDE8F081206840F298
:1017C0006311FFF7ABFC0028CBD00225F2E703251D
:1017D0008CE7BDF81010BDF80E20164D0A4495F8A0
:1017E00048100132033B02EB820201291FFA82F802
:1017F000C3F34F064FEA530207D9CDF8008093B2E6
:101800000E49164A2F6C0220B8474EB1206803AA31
:101810004521FFF76DFCBDF80C30002BC9D170E7F6
:101820000F484146FFF7E8F8F0E7EB1E59425941EF
:101830006EE700BFAC0000209CA70008F0A60008DF
:1018400038A7000824A80008D8A6000804A70008A4
:101850001CA7000800A80008D0A7000854A700088B
:1018600084A700082DE9F043436A87B0054683B199
:10187000012B4FD03E4B3F4A1B6C3F4900209847FD
:10188000042500213D48FFF7B7F8284607B0BDE81A
:10189000F083374F97F84830012B04D93B6C384A16
:1018A0003549022098473748FFF7AEF8364B0FCB43
:1018B00006AC0DF1060804E90F0046462C2421462B
:1018C000013436F8022F2868A4B2FFF701FC342C4B
:1018D000F5D12C2601244FF000090DF10602314606
:1018E0002868ADF806900136FFF702FC38F8022FA1
:1018F000BDF80630B6B29A4218BF0024342EECD19F
:10190000002C31D13B6C214A1B49204698473B6C47
:101910001F4AB2E7164F97F84830012B04D93B6CA9
:101920001C4A1549022098472C2601244FF0000834
:1019300031462868ADF8088002AAFFF7D9FBBDF848
:1019400008300136002BB6B218BF0024342EEFD178
:101950003CB93B6C104A0849204698473B6C0F4AFB
:101960008BE7012103258DE7002101258AE700BFD0
:10197000AC000020E4A80008F0A6000804A90008B4
:101980003CA8000854A80008C887000864A80008FC
:1019900080A80008A0A80008B8A80008CCA80008E3
:1019A00070B5194E96F84830012B82B0054604D91F
:1019B000336C164A16490220984716480024FFF750
:1019C00023F80DF106022868ADF806402146FFF71E
:1019D0008FFBBDF8062041F210239A420CD0336CE5
:1019E0000D4A0B49204698470C482146FFF704F85A
:1019F0000425284602B070BD08480121FEF7FCFF0F
:101A00000325284602B070BDAC0000201CA90008C8
:101A1000F0A6000830A9000840A9000864A9000841
:101A200030B4034600F1300400221A6383F83420F6
:101A30000833A342F9D142844262028500F11C03BB
:101A4000074C22300022012501E014F80C2F9142AE
:101A500008BF1D7001338342F7D130BC704700BF0F
:101A6000D88700080022C2610284034600F13001D9
:101A70001A6383F8342008338B42F9D142844262DE
:101A80000285704710B520B10B4B02689A4204469C
:101A900007D00A4B0A4A1B6C0A49BDE810400020D7
:101AA000184700690023236008B1FFF71DFA20469C
:101AB000BDE81040FFF718BA0EB03713AC00002095
:101AC00080A9000898A90008836A0022A3F85A2078
:101AD000A3F85220704700BF836A19684A6822F051
:101AE000030210B44A601A6E012442F010021A6612
:101AF00083F85D405DF8044B704700BF704700BF3E
:101B0000704700BF70B503681B4D2E681B689B06AD
:101B10002ED4846A2268536823F020035360204641
:101B200032464FF4C051FEF759FD58B931462046B0
:101B3000FEF7BCFD30B932464FF4C0612046FEF7D7
:101B40004DFD38B1236E43F020032366236E43F02E
:101B50002003236621684B68002223F00303012041
:101B60004B60E287A4F8462084F85D00236E13B929
:101B7000012385F8503070BDAC00002038B52E4AE6
:101B8000036815681B689B061FD4846A2368A268D3
:101B9000586820F020005860C2B15968606821F090
:101BA0000101B0F5827F596035D029462046FEF705
:101BB0007DFDC8B96368B3F5827F1CD00123002284
:101BC000A4F8462084F85D30236E38BD6268B2F513
:101BD000827F5A6827D022F001025A6029462046A7
:101BE000FEF764FD0028E5D0236E43F02003236652
:101BF00020232366E2E7A368B3F5004F02D0B3F5D4
:101C0000806FDBD12A464FF4C0612046FEF7E6FC28
:101C10000028D3D0E8E7B2F5004F08D11A6822F0C7
:101C200040021A60C1E722F003025A60BDE7B2F534
:101C3000806FF3D0B9E700BFAC000020444AD368FE
:101C400030B49C0708D0D368046803F00303A342B0
:101C500047D0012030BC70470368022B52D0032BC1
:101C600049D0012BF5D112689207F2D5384D44685E
:101C7000EA6822F073021343013C43EA0413EB6069
:101C8000334C344A236823F080632360156803E0F3
:101C900013685B1B022B39D823681B01F8D4002979
:101CA00036D1D0E902532169DB0621F0784121F4D5
:101CB000FE4143EA05230B43236125490B6843F0AA
:101CC00080630B60146803E013681B1B022B1DD894
:101CD0000B681B01F8D582690B6913430B61002067
:101CE000B8E7002BB5D0D3684268C3F302130133C1
:101CF0009342AED1C4E71468A403B7D41268520368
:101D0000A7D5B3E712685505A3D5AFE70320A1E730
:101D1000012923690DD04169856823F0C06323F44C
:101D2000FE43490843EA0523013943EA416323613D
:101D3000C3E70169856823F4C00323F4FE4349081F
:101D400043EA0523013943EA41532361B5E700BF64
:101D500000100240AC000020F0B5036813F40067E7
:101D600083B004460CD0416CB1F5000F00F0328115
:101D7000B1F5400F00F00681002900F02381012712
:101D800098034FD5A44A916DC90040F1EF8000201F
:101D9000A249A34D0A6842F480720A602E6804E0EA
:101DA0002A68921B022A00F2F8800A68D205F7D549
:101DB000AFBB994AA66DD2F8901011F4407126D0AD
:101DC0008E4224D0D2F89060D2F8901041F4803145
:101DD000C2F89010D2F8901021F48031C2F890101F
:101DE00026F4407CF107C2F890C00FD5D5F800C0AA
:101DF000114641F2883605E02A68A2EB0C02B24295
:101E000000F2CB80D1F890209207F5D5A66D8249DB
:101E1000D1F8902022F440723243C1F8902000287B
:101E200040F0BF80D90708D57B49206AD1F88820C7
:101E300022F003020243C1F888209A0708D57649A8
:101E4000606AD1F8882022F00C020243C1F8882091
:101E50005E0708D57049A06AD1F8882022F03002C8
:101E60000243C1F888209D0608D56B49E06AD1F885
:101E7000882022F440620243C1F88820980508D5E2
:101E80006549E06BD1F8882022F440220243C1F872
:101E90008820590508D56049206CD1F8882022F4A3
:101EA00040120243C1F888205A0608D55A49206BCF
:101EB000D1F8882022F440520243C1F888201E063F
:101EC00008D55549606BD1F8882022F4404202437E
:101ED000C1F88820DD0508D54F49A06BD1F88820CE
:101EE00022F440320243C1F8882018030ED54A4A32
:101EF000A16CD2F8883023F040630B43B1F1006F3E
:101F0000C2F8883053D0B1F1806F73D02368590381
:101F10000FD5414AE16CD2F8883023F040630B437F
:101F2000B1F1006FC2F8883046D0B1F1806F69D04E
:101F300023685A040CD53849226DD1F8883023F033
:101F400040531343B2F1805FC1F8883049D0236811
:101F50001B0408D5304A616DD2F8883023F08043E5
:101F60000B43C2F88830384603B0F0BD916D41F0A4
:101F700080519165926D02F080520192019A012088
:101F800006E7616C244AD2F8883023F440031943F1
:101F9000C2F8881023680027F2E6032700283FF4E0
:101FA00041AF1D498A6D22F080528A653AE7D368B5
:101FB00043F48013D360A9E7D36843F48013D3605C
:101FC0002368B6E70430FFF739FE07460028D8D06B
:101FD0002368D5E6104AD36843F48033D360416C5C
:101FE000D0E70221201DFFF729FE23680028AFD08B
:101FF0000746ADE70121201DFFF720FE002818BF8E
:10200000074683E70121201DFFF718FE23680028FB
:102010008FD007468DE700BF0010024000700040DF
:10202000AC0000201F498B6DDB0082B01DD51E4B1C
:102030001B6803F4C063B3F5007F28D0802812D852
:102040002ED0A0F170035A425A4118490B6823F070
:10205000070313430B60086800F00700801A18BFDD
:10206000012002B070470322EFE78B6D0E4A43F068
:1020700080538B658B6D03F080530193019B136834
:102080008A6D22F0805203F4C0638A65D3E780280A
:1020900004D9A0288CBF02220122D6E70022D4E76F
:1020A0000222D2E7001002400070004000200240EF
:1020B000064A074B92680749C2F302221344086894
:1020C00093F8D03C03F01F03D84070470010024043
:1020D000507B000800000020264A9368D26813F065
:1020E0000C0308D00C2B3AD0042B36D0082B2248F6
:1020F00018BF002070471F4A1168090754BFD2F863
:10210000941011681D4A54BFC1F30321C1F3031198
:1021100002EB8102D2F8D80C03B30C2B27D1154B5C
:10212000DB6803F00303022B1FD0134A032B08BF05
:102130001046104BD968DA68DB68C3F34163C2F319
:102140000622C1F302110133013100FB02F05B00F2
:10215000B0FBF1F0B0FBF3F070470948704702F0B4
:102160000302012AC7D00020D9E70548E1E7002093
:10217000704700BF0010024000127A00507B000838
:102180000024F4002DE9F04F0C6885B0002C00F01D
:10219000878000234FF0010B0BFA03FE1EEA040AAE
:1021A00079D04E6806F00302551E012D4FEA430C0C
:1021B00079D9032A40F0BD8002FA0CF2D543D0F859
:1021C00000C00CEA05052A4316F4403F026062D0C5
:1021D0005F4D2A6E42F001022A662D6E23F0030243
:1021E00002F1804205F0010502F58032039503F00B
:1021F0000305DDF80CC0D2F808E0AD000F2707FAA0
:1022000005FCB0F1904F2EEA0C0E16D0514FB8429B
:1022100000F0978007F58067B84200F0958007F5D9
:102220008067B84200F08A8007F58067B8420CBF2B
:102230004FF0040C4FF0070C01E04FF0000C0CFACB
:1022400005F545EA0E059560434A92686FEA0A0C67
:10225000F502414D54BF0CEA02024AEA0202AA60AA
:10226000ED68B2023C4A54BF0CEA05054AEA05058E
:10227000D5605568384AB70354BF0CEA05054AEAE9
:10228000050555601268F503334D54BF0CEA020290
:102290004AEA02022A60013334FA03F27FF47CAF87
:1022A00005B0BDE8F08FD0F80880CF68032505FAA7
:1022B0000CF528EA050807FA0CF949EA0808C0F8FD
:1022C0000880D0F80480C6F3001928EA0E0809FA3D
:1022D00003FE4EEA080EED43C0F804E0D0F80C808F
:1022E0008F6808EA050807FA0CFE4EEA080E022A73
:1022F000C0F80CE002D002FA0CF260E74FEAD30813
:1023000000EB880803F0070ED8F8207001970F69DA
:102310004FEA8E0E07FA0EF90F2707FA0EFE019FFD
:1023200027EA0E0E49EA0E0E02FA0CF2C8F820E077
:1023300045E7032505FA0CF5ED43CFE74FF0030C15
:102340007DE74FF0010C7AE74FF0020C77E700BF12
:1023500000100240000400480004014070B4D0E9BD
:10236000106304223168056803F01C039A400A4296
:102370002C680ED014F0040F0BD02B689B0603D4EE
:102380002B6823F004032B60036B7260CBB170BC2D
:10239000184702229A400A4215D014F0020F12D0B8
:1023A0002B68990606D42B68012123F00A032B60C1
:1023B00080F82510C36A7260002280F82420002B68
:1023C000E5D170BC704708229A400A42F9D0220732
:1023D000F7D52A68416B22F00E022A60012202FA28
:1023E00003F300247360C26380F8244080F8252042
:1023F0000029E6D070BC0847F0B490F82440012CC6
:102400003DD090F825400126B442E5B280F8246022
:1024100005D0002380F82430F0BC02207047046807
:10242000D0F840C00227002680F82570C663476CAC
:10243000266807F01C0726F001062660BD40866866
:10244000CCF804506360036B102E0BBFA260A16038
:10245000E160E26053B1236843F00E032360236818
:1024600043F0010323600020F0BC7047236823F091
:1024700004032360236843F00A032360EFE702208C
:10248000F0BC7047044A00F01F01012340098B4053
:1024900042F82030704700BF00E100E070B5104DF9
:1024A000104A2B68A2FB03239B09013BB3F1807FF9
:1024B0000CD20D4A0D495360F02381F823300026D9
:1024C00007230F2896600446136001D9012070BDD0
:1024D00001464FF0FF30FDF77BFE6C60304670BD6B
:1024E00000000020D34D621010E000E000ED00E09D
:1024F000BFF34F8F0549064BCA6802F4E0621343ED
:10250000CB60BFF34F8F00BFFDE700BF00ED00E0E1
:102510000400FA0538B5524B93F824200021012A13
:1025200083F8511000F08D805A6853210225CA208B
:10253000012483F8255083F8244050625162916849
:1025400021F480619160D168C9B261F49061D16079
:10255000D168490664D51F2151619168414821F035
:10256000070141F003019160016841F480110160AD
:10257000816841F480118160916841F480419160EB
:102580009168FF2441F4806101209160546283F8D6
:10259000250093F85110002283F8242000295BD1F4
:1025A00072B6BFF34F8FBFF36F8F93F8512002B90C
:1025B00030BF62B6BFF34F8FBFF36F8F93F85120D8
:1025C000002AEDD093F824200021012A83F851102D
:1025D00037D05868532201240225CA2183F8255098
:1025E00083F8244041624262826822F48062826001
:1025F000826822F4804282601C6804E01968091B2A
:10260000B1F57A7F1FD8C26812F00402F6D0FF2419
:1026100001220021446283F8241083F8252038BD6C
:102620001C68D16811F0040195D11868001BB0F541
:102630007A7FF6D9FF240320546283F8241083F8AC
:102640002500FFF755FFFF240321446283F824206F
:1026500083F82510FFF74CFF83F85120B9E700BF3E
:10266000AC000020000401402DE9F043866FA1B0CA
:102670000446002E5ED02568A36826696069C64AB4
:102680002421A167296821F00101296033432968C9
:102690000343E0690A40034313432B606B68E1681E
:1026A000BE4A23F440530B436B609542A369AA686A
:1026B00000F0BA80266ABA4922F4306233431343E9
:1026C0008D42AB600ED0B74B9D4200F01582B64BE9
:1026D0009D4200F02E810023C4E91933012021B06E
:1026E000BDE8F083B14BB24AD3F8883003F003035E
:1026F000013B022B00F23F81134493F8083DB0F5F3
:10270000004F00F06381082BE5D801A151F823F0B8
:10271000712900087F2900082F290008D726000802
:1027200057290008D7260008D7260008D726000812
:10273000BD28000880F874605C2209A83146CDE904
:102740000466CDE90666089604F0DBFA2568944B2A
:102750009D4200F00082934B9D428DD109A8022733
:1027600012960997FFF7F8FA0646002840F01E82F5
:102770008E4B904D9A6D42F400329A659A6D02F438
:1027800000320192019ADA6C42F00102DA64DB6CE9
:10279000059703F001030F2000930322072304A9E8
:1027A000049005F154094FF09040DDF800C0079205
:1027B000089306964FF08008FFF7E4FC7E4B6B65AC
:1027C0004846C5E91766C5E91A66C5E91C66AF65DE
:1027D000C5F86480FDF780FD0346002840F0E681DF
:1027E00005F19C067549C4F8709010223046C5F872
:1027F0009C10C5E92A38C5E92C33C5E92E33EC67AE
:10280000C5F8A070C5F8A420FDF766FD01460028B4
:1028100040F0CC81E6662620C5F8C440FDF7D8FC20
:102820002620FFF72FFE26E722F4306213435F498C
:10283000AB60D1F8883003F44063B3F5006F00F06B
:1028400088810CD8002B00F07E81B3F5806F7FF477
:1028500042AFFFF741FC002800F0818005E0B3F5AE
:10286000406F7FF438AF4FF40040626802EB4203E0
:1028700083423FF630AFB0EB023F3FF62CAF560835
:102880004FF480730027E3FB00674FF000084346D6
:102890003046394603F070F8494BA0F540729A4231
:1028A0003FF619AF2568E860C4E9198819E0302BB4
:1028B0007FF411AFB0F5004F00F0A1804FF400405D
:1028C00063684FF6EF7200EB5300B0FBF3F0A0F13A
:1028D000100393423FF6FFAE25680023E860C4E989
:1028E0001933636A002B40F0AF806B68314A23F4E0
:1028F00090436B60AB6823F02A03AB602B68002128
:1029000043F001032B60C4F8801016682B681A0787
:1029100000F18E802B685B0700F1E180002320220C
:10292000A26784F87430E26718462366D7E6254824
:10293000C6E703F5E433D3F8883003F03003202BE7
:1029400000F03681B3D87BB1102B7FF4C4AEB0F564
:10295000004F00F0E280FFF7BFFB0028B0D100235A
:10296000C4E919332568BCE7B0F5004F00F0CF800B
:10297000FFF79EFBF1E7B0F5004F00F0D4800B4B62
:1029800011499B680868C3F3C2231A4492F8D03CEB
:1029900003F01F03D840E0E7F369FFEF0080004039
:1029A0000038014000440040004800400010024050
:1029B000507B0008AC0000206C0002408000024008
:1029C000FFFC0F000024F40000000020082B3FF65D
:1029D00082AE01A151F823F00F2B0008272B00082D
:1029E000FD290008D72600081B2B0008D726000861
:1029F000D7260008D7260008FF2900086F4862681C
:102A0000530803EB40004FF6EF73B0FBF2F0A0F178
:102A100010029A423FF65FAE20F00F039BB225688A
:102A2000C0F3420018430023E860C4E9193358E7B3
:102A30006FF07E4332464FF400112046FDF7F4FB61
:102A4000002857D1256865E7DE0705D56A68A16AC1
:102A500022F400320A436A60980705D56A68E16A81
:102A600022F480320A436A60590705D56A68216BEF
:102A700022F480220A436A601A0705D56A68616BEE
:102A800022F400420A436A60DF0605D5AA68A16BFA
:102A900022F480520A43AA609E0605D5AA68E16B1B
:102AA00022F400520A43AA6058060ED56A68216CC7
:102AB00022F480120A43B1F5801F6A6005D16A686A
:102AC000616C22F4C0020A436A6019067FF50DAFFB
:102AD0006B68A26C23F4002313436B6005E7324656
:102AE0006FF07E434FF480012046FDF79DFB0028E8
:102AF0003FF414AF0320F2E503F5E633304AD3F890
:102B0000883003F00C03134493F80C3DF7E5FFF70E
:102B1000CFFA00283FF423AF71E7FFF7DDFA002872
:102B20003FF41DAF6BE7274B27499B680868C3F349
:102B3000C2231A4492F8D03C03F01F03D840002867
:102B40003FF40DAF5BE7FFF7B3FA00283FF407AFA0
:102B50008BE61A4889E6012309A811960993FFF725
:102B6000FBF818BB174B1A6E42F480421A661A6EB5
:102B700002F480420392039ADA6C42F00102DA64B2
:102B8000DB6C069003F001034FF4C0600293022552
:102B900003220723049004A94FF090400595CDE946
:102BA0000723029EFFF7EEFA256865E5FFF7A0FC14
:102BB000B0F5004F01487FF483AE20E70024F40015
:102BC000507B0008001002400000002070B5864CC9
:102BD00094F840310020012B84F850000FD094F875
:102BE000413101208342DDB284F840010ED0D4F897
:102BF000E830B3F5827F03D0002384F8403170BD04
:102C0000D4F8EC30002BF7D1042DF5D10029F3D006
:102C100093B2002BF0D094F84121D4F8E450D4F8CA
:102C2000F060042A18BF05224FF0000018BF84F896
:102C30004121C4F84401A4F82231A4F82A316A6879
:102C4000C4F81C1122F4C042B6F5E06FC4E94C0090
:102C5000A4F82031C4F82411A4F828316A6029D9D5
:102C60006B68D4F83C0123F480536B6094F84131D5
:102C7000042B07BF5D4A5E4B5E4A5F4BC0E90B32D7
:102C8000B4F82A315D4A426300260A469BB205F138
:102C90000C018663FFF7B0FB054678B3D4F84431E6
:102CA00084F8406143F010030122C4F8443184F8F1
:102CB000412170BDD4F838016A68806942F48052BD
:102CC000B0F5806F6A605FD0D4F83C018369B3F5DA
:102CD000806FCBD16B6823F480536B60B4F82A31DA
:102CE00013F0010F6B6869D123F400536B60B4F8E3
:102CF0002A31C3F34E03A4F82A31B7E7D4F8E4200D
:102D0000D4F838015368D4F81C1143F00103536020
:102D1000B4F822310563C0E90D550C329BB2C5628F
:102D2000FFF76AFB00283DD1D4F8E4301A68520658
:102D300025D55A6842F020025A605A6842F00202D1
:102D40005A60226894F85030002184F84011002B1A
:102D50007FF455AF41F287310CE072B694F85030F1
:102D600003B930BF62B6BFF36F8F94F85030002BB9
:102D70007FF445AF23689B1A8B42EED970BD1A6869
:102D800042F040021A60D4E713F0010F6B6820D1C3
:102D900023F480436B60B4F82231C3F34E03A4F8EC
:102DA000223191E7D4F8443184F8405143F01003C4
:102DB0000122C4F8443184F8412170BD43F400532A
:102DC0006B60B4F82A31C3F34E030133A4F82A31FF
:102DD0004CE743F480436B60B4F82231C3F34E03F5
:102DE0000133A4F822316FE7AC000020FD1A00087F
:102DF0007D1B0008011B0008051B0008D91A0008EC
:102E00002DE9F843744D754E4FF480530446AB6181
:102E1000FFF780FB638C052B4FF0000105D937E0ED
:102E200001339BB2062B638434D0E218127F002A50
:102E3000F6D000297ED15A000027134406EB830305
:102E40002046D3F8903C9847638C218D626A03EB4F
:102E5000430C06EB8C0C04EB010E01329CF888CC81
:102E6000626201385A008EF82AC0032800F2AB8053
:102E7000DFE800F04C029178594A11682869070789
:102E800032D52969052B81F00801C1F3C001CCD9E5
:102E9000062BCED1504B4FF480529A62FFF73AFB8B
:102EA000268D0125EEB1013EB3B2DFF844814D4FCE
:102EB000DFF8409104F1080606EBC306012594F8FB
:102EC0003420216B002A14BF42463A46484604F09B
:102ED000B9F894F834300834002B08BF0025A64216
:102EE000EDD12846BDE8F88313685B1AB3F57A7F05
:102EF0000AD272B62B69180700D430BF62B6BFF38E
:102F00006F8F2B691B07EFD5638CBAE74FF480589E
:102F1000C5F82880FFF7FEFAC5F81880FFF7FAFA1F
:102F2000638C052B4FF000017FF67FAF062BB1D0ED
:102F30005A0082E703EB4303294A2B49176C2B4ABB
:102F400006EB83030020D3F88C3CB847638C218DBB
:102F500003EB430206EB8202601892F8882C80F89B
:102F60002A205A001A4406EB820204EBC1070133FF
:102F7000D2F88C2C3A639BB200204A1C052B87F8B0
:102F8000340001466384228560627FF64EAF062BD3
:102F90007FF451AF7EE71A4406EB820204EBC100D6
:102FA0000133D2F88C2C02639BB24A1C052B4FF0E4
:102FB000010180F834104FF00001638422856762BC
:102FC0007FF633AFB2E7052B4FF000017FF62DAF50
:102FD000062B7FF432AF5DE700040048507B000809
:102FE000AC000020A8A90008F0A60008B0A90008BD
:102FF000A0A90008D0A900081C4991F82430012B91
:1030000032D030B44C68532301200225CA2281F803
:10301000255081F8240062626362A36823F4807300
:10302000A360A36823F48053A360086804E00A68DF
:10303000121AB2F57A7F0DD8E36813F00103F6D0C7
:103040000020FF220123626281F8240081F82530EC
:1030500030BC7047FF200322606281F8243081F881
:103060002520104630BC704702207047AC0000207D
:10307000F0B585B00DF10E02002733210546ADF8FD
:103080000E70FEF735F8BDF80E3003F00704012C82
:1030900046D013F0060F29D1002C38D1244E0095CC
:1030A000376C244A24492046B84700230DF10E020C
:1030B00045212846ADF80E30FEF71AF8BDF80E305F
:1030C0005BB9366C1D4A1C492B460020B047022CC8
:1030D00002D1012005B0F0BD154E356C184A1949D2
:1030E00023460020A847002005B0F0BDA21E012AFB
:1030F0000DD80DF10E0245212846ADF80E70FDF7F2
:10310000F7FFBDF80E30002BE1D1094ED9E7084E8C
:103110000095346C0C4A08490020A0470024C4E7FD
:10312000034E00953846094A376C0349B847BCE757
:10313000AC000020E8A90008C0A5000880AA00088B
:10314000B4AA0008FCAA00084CAA000818AA0008A3
:103150002DE9F84F164C0A9E278E043A043F520878
:103160007F0897420D468146984628BF174601F1D1
:10317000040A0024331BBB4228BF3B466FEA84414C
:103180005A1E6FEA91419B466A8029805A0008EBDB
:10319000440150461C4403F0EFFE0BF102020023F1
:1031A00029464846FDF7BCFEA642E3D8BDE8F88FA5
:1031B000AC00002038B138B5B0FBF1F301FB1301CE
:1031C00019B1104638BD104670470A4C94F8483083
:1031D000012B05D9256CE36A074A08490220A84754
:1031E000074BE26A03CB1B7810601372516009220F
:1031F000104638BDAC00002044A4000848A40008D4
:103200001CAB00081B4B2DE9F0411B4E05460C463C
:1032100003CBF26A1B78137210605160FCB12C1959
:1032200005F1FF38013CC5F1010509222D271221C6
:1032300005EB0800FFF7BEFF18F9013F002B014620
:1032400004DAF36A1F5498F900300131002BD8BF1B
:103250005B4298B2FDF7E0FBA0450246E7D196F845
:103260004830012B03D9BDE8F041FDF7A3BBBDE811
:10327000F08100BF1CAB0008AC000020F8B5134B78
:10328000134E07460D4603CBF26A1B78137210608B
:1032900051608DB17D197C1E013DC7F101070922E6
:1032A00016213819FFF786FF014614F8010FFDF7C4
:1032B000B3FBAC420246F3D196F84830012B03D958
:1032C000BDE8F840FDF776BBF8BD00BF1CAB0008B9
:1032D000AC0000201A4B2DE9F0411A4E04460D4671
:1032E00003CBF26A1B78137210605160EDB1023C9F
:1032F0004FF0000809222D270C214046FFF75AFF06
:1033000034F9023F002B014604DAF36A1F54B4F982
:1033100000300131002BD8BF5B4298B2FDF77CFB37
:1033200008F1010845450246E6D196F84830012BE0
:1033300003D9BDE8F041FDF73DBBBDE8F08100BF1A
:103340001CAB0008AC000020F8B5124B124E05462D
:103350000F4603CBF26A1B781372106051607FB185
:10336000023D002409220F212046FFF723FF0146DA
:1033700035F8020FFDF750FB0134A7420246F2D1A7
:1033800096F84830012B03D9BDE8F840FDF712BB91
:10339000F8BD00BF1CAB0008AC000020194B2DE9A4
:1033A000F041194E04460D4603CBF26A1B781372A6
:1033B00010605160E5B1043C4FF0000809222D2750
:1033C00007214046FFF7F6FE54F8043F002B08F1B2
:1033D0000108014603DAF36A1F542368013183EAC6
:1033E000E370A0EBE370FDF717FB45450246E7D11C
:1033F00096F84830012B03D9BDE8F041FDF7DABA61
:10340000BDE8F0811CAB0008AC000020F8B5124B01
:10341000124E05460F4603CBF26A1B7813721060FA
:1034200051607FB1043D0024092208212046FFF7A6
:10343000C1FE014655F8040FFDF7EEFA0134A7422C
:103440000246F2D196F84830012B03D9BDE8F84086
:10345000FDF7B0BAF8BD00BF1CAB0008AC000020FF
:103460002DE9F04F234BB3F8309083B000234FEA9F
:103470005909CDE90033884692461E468346A9F194
:1034800004090D46174624E048F20002631E2A8014
:103490004FF000026E80EA80AB806200002105F1EF
:1034A000080003F02EFC294601235846221DFDF793
:1034B00037FD6B4603CB26446960286008EB460560
:1034C00058F8160069686B46564503C3A7EB040716
:1034D0000AD2B9454C4628BF3C46B945D4D200E093
:1034E000013CE307FCD4CFE708F1080003B0BDE8D6
:1034F000F08F00BFAC0000202DE9F04FADF5097D45
:103500000DF11E0204460D4600683221FDF7F0FD64
:103510006248BDF81E10FDF76FFABDF81E00A0B995
:103520005F4B6049604A1B6C07464FF0040B98479D
:1035300039465E48FDF760FA5D483946FDF75CFAAA
:1035400058460DF5097DBDE8F08F29682068594F70
:103550004FF40072FFF784FF82465748FDF7F4F9F5
:1035600048AE50464FF40071FDF73EFAAAF102044E
:10357000314688AD002034F9023F07FB03F2002BEF
:10358000A8BF03EB83034FEA1242A8BFC3EB0313A8
:10359000C2F10002B4BF13B21B1321F8023BA942CF
:1035A0001844E8D10028B8BF7F3040F3CF15294632
:1035B0004248DFF81891DFF8FC80FDF71DFA40481B
:1035C000FDF7C2F980213046FDF706FA01231F46B8
:1035D0004FF4FA6C4FF4C8604FF0030B19460AEB36
:1035E0000121023908AA47F6FF7431F9023F08FBAE
:1035F00003FE002BA8BF03EB83034FEA1E4EA8BFB8
:10360000C3EB0313CEF1000EB4BF0FFA8EF31B13FE
:103610002B4403EB8303DB02C3F1000E4FEA1E3E93
:10362000CEF1000E4CBF0FFA8EF343F30F3322F8A6
:10363000023B9C42A8BF1C46964224B2D5D184428C
:1036400001DB64450FDDCDE90140CDE9039C144B5E
:10365000CDF800901F6C1B4A12494B460020B8471A
:103660004FF0040B002721464846FDF7C5F909F144
:103670000C00FDF769F9802108A8FDF7ADF9124BA0
:1036800009F11C09994506D0D9F81410B9F91800A8
:10369000B9F91AC0A3E701214BE700BF28AB000826
:1036A000AC000020F0A6000834AB0008FCAB00081A
:1036B00010AC000850FBFFFF88AB0008A0AB00086F
:1036C000ACAB0008B4AB0008C08800086C880008E8
:1036D00030B5436A012B83B0044605D0022B2ED0AF
:1036E000EBB1002003B030BD1D4D95F84830012BE3
:1036F00004D92B6C1B4A1C4902209847EB6C0193A0
:10370000D4E90312206801ABFDF798FDE8B92B6CF2
:10371000164A154900209847042003B030BD104BCD
:1037200093F84820012A04D91B6C114A0E49022043
:1037300098471048FDF768F9012003B030BD00F14B
:103740000C01FFF7D9FE03B030BD20684FF4D671ED
:10375000FDF7E4FC0028DAD0022003B030BD00BF42
:10376000AC0000205CAC0008F0A600087CAC0008AF
:1037700024AC000844AC00082DE9F04F02EBC3066E
:1037800089B07388129F4BB38046894600254FF05D
:10379000010B736853F82540C4F3017001280CD065
:1037A000022833D0F0B1344B344A1B6C344900202A
:1037B0009847002009B0BDE8F08FA3B2194659F828
:1037C000232022F00F0217B1C4F3034422434046E2
:1037D000FDF7DCFB738801359D42DAD3012009B087
:1037E000BDE8F08FC4F3445A0BFA0AF39F4216D394
:1037F000214A0097013B019321490390A3B2146C25
:10380000204AA047039809B0BDE8F08FA3B219463B
:1038100059F8232022F00F02002FD8D1D4E7A3B209
:1038200043F4204C039305A90123ADF81800CDF80B
:103830001A0005224046ADF814C0ADF816B0FDF7E9
:103840006FFB04A90DF11A000122FDF7A3F9CAF1DB
:10385000200A4FF0FF33C4F3044423FA0AFA049B0E
:1038600003990AFA04FA23EA0A0207FA04F4224343
:103870004046FDF78BFBADE7AC000020D8AC00085C
:1038800040A50008A0AC00082DE9F04FDFF840A3E8
:103890002DED028B9AF84830012B95B0834605D95F
:1038A000DAF84030BA4ABB4902209847BA48DFF8F4
:1038B000E492FDF7A9F8B94BDAF84C40DBF80000C8
:1038C0004FF6FF720121A3FB0434FDF701FCDBF886
:1038D000000000220121FDF7FBFBDBF800000122C4
:1038E0005D21FDF7F5FBDBF8000000225D21FDF70F
:1038F000EFFBDBF8000000227421FDF7E9FBDBF8A9
:1039000000000122D521FDF7E3FBA509A20DDBF89C
:1039100000005521FDF7DCFBAAB2DBF800005621C0
:10392000FDF7D6FBDBF8000003225421FDF7D0FBA6
:103930009B4B93E807000FAB03C300251A80ADF83B
:1039400034500A240FAF0126029437F8028BDBF8BB
:10395000000042462C21FDF7BBFBDBF800000DAA5E
:103960002C21FDF7C5FBBDF834C0E0450ED09AF818
:1039700048308C4A032B494633464FF0040004D9A3
:10398000CDE9008CDAF84040A04701350136062E1B
:10399000DBD1029C013CD5D1002D00F06B8132229D
:1039A0002B467C49009220467F4ADAF84050A847CF
:1039B000DAF8403077497D4A20469847042305933A
:1039C00021467B4D7B48FDF717F80FCD0FAC0FC498
:1039D000DBF818202B68236000239708CDE90D330E
:1039E0000A92029322F003020A23D9460B9206930D
:1039F000BB460FAB03935F46002F00F0BC80039BD8
:103A0000D9F814201B680B990793131F59180798AE
:103A100043F8040F9942FAD10DAB0093D9F80C107A
:103A2000D9F800003B46FDF7CBFA0A9BD9F8140001
:103A300023F00302002103F064F9BAF83030D9F81A
:103A40000020D9F80C600497083B08EE102A9B0868
:103A5000D9F81420099208934FF000080FE0DAF823
:103A6000403098470025DDE90D231544049AA04411
:103A70000133121B4745CDE90D5304922ED9089B03
:103A8000049A4D49934228BF1346B3F5005F4B4A51
:103A90001C464FF00000E2D85B00013B0021A5006E
:103AA00006F1080B49F200023280B3802A46F18009
:103AB000A6F80280584603F024F9A21C18EE100A5A
:103AC000520001233146FDF72BFA099B2246584646
:103AD00003EB8801FDF75EF80835C4E7079EDDF8C3
:103AE00008800025D9F8143053F82540A6420FD09D
:103AF0009AF84830324A2749032B4FF004002B46EE
:103B000004D9CDE90064DAF84040A04708F1010883
:103B10000135AF42E6D1CDF80880039B14AA0433E7
:103B2000934203937FF468AF069B013BBB46069329
:103B30007FF45FAF029BCB46002B4BD0069D15490F
:103B4000DAF84040322202FB07F2009228461D4A72
:103B5000A047DAF840301C4A0E49284698471B48CF
:103B60002946FCF749FF04230593059815B0BDECE1
:103B7000028BBDE8F08F0DAB0093D9F81420D9F873
:103B80000C10D9F800003B46FDF71AFAC5E700BF54
:103B900000AD0008F0A600081CAD0008D34D62106F
:103BA000C088000830AD00089CAD0008D0AD00080A
:103BB000CC880008F0AD000854A6000814AE000838
:103BC0002CAE000880AE0008B0AE0008D0AE0008F1
:103BD000AC0000202F480121FCF70EFF059B042BB1
:103BE000C3D0029CDBF80000ADF83C400FAA4FF4B4
:103BF0008A71FDF77DFADBF81850BDF83C6010942F
:103C00000F94AD0864240FAB0093DBF81420DBF8AD
:103C10000C10DBF800002B46FDF7D2F9013CF2D185
:103C2000DBF80000ADF834400DAA4FF48A71FDF7BF
:103C30005FFABDF834309B1B9BB2FBB19AF8482069
:103C40000F9C012A4FEAC404B4FBF3F406D9DAF856
:103C50004050114A114923460220A84710482146E6
:103C6000FCF7CAFE03230593059815B0BDEC028B43
:103C7000BDE8F08F032301210593A2E69AF84830AE
:103C8000002BEFD0DAF84030064A0449012098476B
:103C9000E8E700BFD0AE0008F4AE0008F0A60008C8
:103CA00024AF00083CAF00082DE9F04F2DED028B4A
:103CB000ADF2147DCDE9031202931B7804460A2B62
:103CC0004CD8DFE813F00B005C00D7005101000274
:103CD000E3020904AF052206AA060B00904EDDF8A8
:103CE00040078822002103F00CF8D6ED137ADDF8A6
:103CF0004037F8EE677A03F17C0144A8CDED447AB1
:103D0000FCF768FF05468748FCF77EFE864821469B
:103D1000FCF772FEDDF840378448B3F87E10FCF7FC
:103D20006BFEDDF840378248B3F88010FCF764FE84
:103D3000DDF840377F48B3F88210FCF75DFEDDF810
:103D400040377D48B3F87C10FCF756FE7B48FCF703
:103D50005BFE002D41F02080029B1B787049784A61
:103D60000C6C78490020A04700231C46029A20468C
:103D700013700DF2147DBDEC028BBDE8F08FFFF7E0
:103D800077F90028E8D044AB1A46322120469846FD
:103D90000493FDF7ADF9122203992046FFF760FB6B
:103DA00047880546214660482E88FCF725FE39469F
:103DB0006548FCF721FE04356448FCF7C5FD28463C
:103DC0001021FCF711FE0023B8F800004FF6FF7C2D
:103DD000984640FA03F2D20799B20AD535F8132073
:103DE000D21B002AB8BF524292B262453CBF9446F1
:103DF00088460133102BECD108F1FF330D2BABD8E3
:103E000008F10043013B05EB430735F813307A888E
:103E100041F287319B1A8B429EDDBB88D21A8A42BF
:103E20009ADD4FF6FF73984296D049483146FCF729
:103E3000E3FD049B47481988FCF7DEFD46484146F0
:103E4000FCF7DAFDDDF84037444A1E80A3F8028013
:103E50004349CDF8008025232046FFF78DFC2046FE
:103E600040F23221FDF75AF904460223002C7FF478
:103E70007DAF71E7FFF7FCF8824600283FF46CAF96
:103E8000039941222046FFF7EBFA054635482B8C73
:103E90000693FCF759FD28461021FCF79DFD0021F3
:103EA00005F1220307EE904A0793A5F1020B08469D
:103EB00088464FF6FF7C41F270791BE035F91170AE
:103EC0003BF9114007EB09023F1B9F42FFF644AF4D
:103ED00077453FF741AF82EAE273A3EBE2739BB20F
:103EE000634503D2B0009C4680B2D0460F2E00F04E
:103EF000D48701314B1E03FB03F3C3EBC3035A000A
:103F000002F5167EC83B8EB20029D7D1B5F9003034
:103F10004B44002BB8BF5B429BB26345E2D3E8E75A
:103F2000AC000020F8A4000894AF0008A0AF00087F
:103F3000B0AF0008BCAF0008C8AF0008D8AF000899
:103F400050B3000874B30008E8AF0008F4AF0008ED
:103F500088B3000894B300089CB30008E088000808
:103F6000E48C000810B00008FFF782F800283FF446
:103F7000F3AE202203992046FFF772FA2146054648
:103F8000B748FCF739FDB748FCF7DEFC284620218E
:103F9000FCF722FDB5F9002028461646012100272E
:103FA000134630F9022FC3F5167313449BB2B3F5D1
:103FB000966F3FF6D1AEB242A8BF0F4601F10101A4
:103FC000A8BF16462029EBD1072F01F21780002346
:103FD00007F10802D21A002A01F02A8044A9D01859
:103FE00005EB4000049105EB430535F9026B07EE44
:103FF000106A03FB03F606EE903A07EE906AB8EEFD
:10400000C77AF8EE677AF8EE666AA84281ED007A20
:10401000C1ED017AC1ED026A03F1010301F10C0166
:10402000E3D104982CA9FDF7E5F900283FF494AEFC
:104030009DED2C6AB5EE406AF1EE10FA3FF48CAEBD
:10404000DDED2D6AF5EE406AF1EE10FA3FF484AE34
:104050009DED2E7AB1EE477AC7EE267AF5EEC07A5C
:10406000F1EE10FAFFF678AEF1EE666A86EE867A29
:10407000B5EEC07AF1EE10FA7FF56EAEB7EE007ACB
:1040800077EE877AFCEEE77A17EE905AABB23F2BC9
:10409000C5F34E053FF660AE85F01005294672481F
:1040A000FCF7AAFCDDF840377048DD80FCF7ACFC7B
:1040B00020464FF44571FDF731F804460423002CE7
:1040C0007FF454AE48E6FEF7D3FF00283FF444AE39
:1040D000502203992046FFF7C3F9214680466048E5
:1040E000FCF78AFC6248FCF72FFC40465021FCF7A5
:1040F00073FCDDF8403708EE104A0A334FF0300BFE
:104100001F46DFF88491B8F900204FF0000E47F603
:10411000FF7CF246664645464FF6EC716FF01B0396
:10412000484615E06245BCBF9E469446242917D0F8
:1041300035F9022F35F8023CD31A1BB29E42A8BFB4
:104140001E4601F108049842B8BF18460BB2A1B24E
:10415000002AE7DA4A45E9DD24299A469146E7D163
:10416000A0F51C50103880B244F6206398423FF608
:10417000F3AD002E7FF4F0AD19F5004F47F6FF7355
:1041800000F0EA869C4500F02987AEEB0A0EBEF1EE
:10419000080F7FF4E1AD4FEAC90EACEB090C9EFBB2
:1041A000FCFCAAEB0C0E0FFA8EFEBEF1000FC0F263
:1041B000B185BEF11F0F3FF7CFAD1FFA8EF52D4829
:1041C00080F80DB00BF1010B29465FFA8BFBFCF771
:1041D00013FCBBF13A0F27F8025F08F1100890D1E9
:1041E0002548FCF711FC6023DDE9031218EE100AE4
:1041F0000093224BFEF7ACFFDDF84037204A9B8945
:104200000093DDF840371F49DD8818EE100A0723B8
:10421000FFF7B2FA1A4A1B490095082318EE100A54
:10422000FFF7AAFA0323164A1649009318EE100A5C
:104230000923FFF7A1FA0623114A1249009318EE49
:10424000100A0A23FFF798FA18EE100A40F2D53147
:10425000FCF764FF04460523002C7FF487AD7BE563
:1042600094AF000898B00008BCB00008C8B00008BF
:10427000DCB0000808000020F4B00008208A000824
:10428000E0880008E48C00080080FFFFFEF7F0FEE5
:1042900000283FF461AD0399DFF83492DFF83482EF
:1042A0004FF440722046FFF7DBF882468248FCF765
:1042B0004BFB4FF440715046FCF78EFB0BAB0AF5FD
:1042C000C061CDE9053107930023039307EE904ABF
:1042D00044AB04932CAE43AF14AC5546B5F9021071
:1042E00035F9040BFDF748F944F8040BA642F5D163
:1042F0002BACA3465546B5F96210B5F96000FDF741
:104300003BF94BF8040F5F4505F10405F3D1DDE9F6
:10431000032313AD9818002154F8043F55F8042FD7
:104320009B1A4B4540F37C84A3F5C9237E3B4B4548
:10433000FADC002BB8BF5B429942B8BF1946A742CE
:1043400040F8043BE8D1059B491043F8041F05934E
:10435000039B60330393069B0AF1C00A5345BBD10C
:10436000002017EE904A079D0146034655F8042F9A
:104370008A42C8BF184603F10103C8BF1146082B83
:10438000F4D10CAB00EB400153F82050049B0DF12D
:10439000AF0203EB41110DF1C70051F8043BAB42F2
:1043A000ACBF0023012302F8013F90421376F4D101
:1043B000002005460123002D00F03E84F25C002A17
:1043C00000F0328401300133302BF4D1A0F10C0322
:1043D000082B3FF6C1AC05EB5005172D02D9183D4F
:1043E000172DFCD829463548FCF706FBDDF8403789
:1043F00033481D81FCF708FBDDF840371B899B0023
:104400009BB203F13005ADB25F2D40F2E1852D4A3C
:10441000A2FB0512920902EB4202A5EB421292B2F4
:1044200000271D46B84613460126274A2749009310
:1044300020462123FFF7A0F9234A2449009522238F
:104440002046FFF799F903251F4A204900960123CA
:104450002046FFF791F91C4A1C490095022320468B
:10446000FFF78AF9184A1949CDF800802B462046F3
:10447000FFF782F9144A1549009704232046FFF7F5
:104480007BF9114A1149009605232046FFF774F97C
:1044900000230D4A0D49009320460623FFF76CF9CF
:1044A00020464FF47B71FCF739FE04460623002CAE
:1044B0007FF45CAC50E400BF0CB1000830B10008E0
:1044C0003CB10008ABAAAAAAE0880008E48C000866
:1044D0003F240300C1DBFCFFFEF7CAFD0590002866
:1044E0003FF43AACE34BDDF84017E34ADB6CB1F83C
:1044F0007C500399A2FB03239B094FF44072204692
:1045000005FB03F5FEF7ACFF06460690DB48FCF71B
:104510001BFA30464FF44071FCF75EFA44ABB71C0F
:1045200004930DF586780DF20C76B7F9001037F983
:10453000020CFDF721F848F8040F464507F104077F
:10454000F3D1002305EB45029A46CDE92C33CDE9A2
:104550002E33CDE93033CDE932330393D300049ABF
:10456000C74F2CAEB34602F15C0907EE904A56469F
:104570004C464FF6FF789946DA46A4F15C00FCF70A
:10458000EFF9A4F1600C00205CF8043FDCF8602037
:104590006445A3EB02031844F6D10028C0F2AC83B3
:1045A000800940F6945303FB00F0400D05FB00F03A
:1045B00009EB1020CBF8000026B15BF8043C8342E5
:1045C00040F22D85DBF80030A3F16673A3F54A3382
:1045D000203B002BB8BF5B42BB4203D21F46059B6A
:1045E0000393B046721C96B2082E0BF1040B04F133
:1045F000C004C2D1039A4FF6FF7317EE904A564695
:10460000002A08BF98469F4D0DF1AC0905F1180A24
:10461000302785F82470013759F8041F5046FFB23F
:10462000FCF7EAF9382FF4D1039B002B3FF494AB4D
:1046300041469548FCF7E0F9DDF840379348A3F888
:104640002280FCF7E1F99249924ACDF800800C23D0
:104650002046FFF791F8204640F21641FCF75EFD38
:1046600000283FF479AB069B9FED8B6A37461A46CC
:1046700003F1C00503F5D86CF7EE006AA5F1C0039D
:104680000024B3F90200B3F9001000FB00F004337A
:1046900001FB01019D420C44F3D107EE904AB8EEB4
:1046A000677AC035C7EE067AAC45B1EEE77AC6EE5A
:1046B000877AE7EC017AE1D1069B03F5C060049BA1
:1046C000B2F90010F6EC015A06EE101AB2F9021017
:1046D00006EE901AB2F9601007EE101AB2F96210E5
:1046E00007EE901AB8EEC66AF8EEE66AB8EEC77A38
:1046F000F8EEE77A26EE256A66EEA56A67EEA57AF9
:1047000027EE257A26EE065A67EE075A26EE266A27
:1047100027EE277A66EEA66A67EEA77AC032904245
:1047200083ED005A83ED016AC3ED026AC3ED185AA6
:1047300083ED197AC3ED1A7A03F10C03C0D1049802
:1047400014A91022FCF756FE044600283FF404ABDF
:104750009DED146A9DED155ADDED166ADFED4F4AA9
:104760009FED4F4AB1EEC67AF1EE007A26EE276A47
:1047700065EE057A26EE266AF6EE005A36EE676A90
:10478000C5EE876AF1EEC67AB6EE086A37EE467A6B
:1047900066EEA77A27EE247A66EE856AB7EE005AAF
:1047A00077EEC67A76EE856A37EE257AB3EE0F6A33
:1047B00066EE846A67EEA47AB4EEC67AF1EE10FA79
:1047C00076EEA56A77EEA57A00F37D82B5EEC07A23
:1047D000F1EE10FA48BF002140F12E849FED317AAE
:1047E000F4EEC76AF1EE10FA40F377826FEA815176
:1047F0006FEA9151B3EE0F7AF4EEC77AF1EE10FA48
:1048000000F35E82F5EEC07AF1EE10FA48BF0023A5
:1048100040F11984DDF840270B43A2F856300723F6
:10482000FFF7A4BAFEF724FC00283FF495AA0399E9
:1048300010222046FEF714FE80461B48FCF784F841
:1048400040461021FCF7C8F8DDF84037B3F8566051
:10485000002506F01F0CC6F34410B60A08F1020941
:104860000CF1300C3030203E0395AB46AE462F465F
:1048700025E000BFAC000020D34D621058B1000805
:1048800040420F00000000207CB100088CB10008FD
:10489000E48C0008E08800080000404200008042EC
:1048A0000000004200007C42A8B100085B4577464A
:1048B00000F23C829E460135082D00F03B8238F91B
:1048C000252039F925300CFB02F203FB06FA002AF9
:1048D00003FB00F3B8BF3F32BAF1000FB8BF0AF1D3
:1048E0001F0A002BB8BF3F33921102EB6A1243F349
:1048F0008F1312B203FB03F302FB0233BB42A9B2D4
:10490000D9D97345D2D81F46D5E7FEF7B1FB0028A9
:104910003FF422AA039960222046FEF7A1FD054636
:10492000CF48FCF711F828466021FCF755F844AB56
:104930000493AF1C99464FF0000840F6B73637F99C
:10494000281035F9280001FB01F300FB0033B342C6
:1049500008F101087FF700AAFCF70EFEB8F1300F4E
:1049600049F8040BEBD1049B43AD0DF1AE0629468B
:10497000324603F15C0751F8043F002BB8BF0F33F8
:1049800002321B118F421380F5D10498FBF7E8FF28
:10499000002155F8043F2A6EAF42A3EB02031944ED
:1049A000F7D1B04BC81783FB0131C0EBA11000F564
:1049B000994330334CF6621293423FF6CDA9DDF8AD
:1049C00040370DF1DE0103F12405223336F8022FC2
:1049D00023F8022FB142F9D1DDF84037A3F8540093
:1049E000A148FBF7B1FF28461821FBF7F5FFDDF8DA
:1049F00040379E48B3F95410FBF7FEFF9C48FCF784
:104A000003F8204640F27B41FCF788FB044609236B
:104A1000002C7FF4ABA9FFF79FB9FEF729FB002814
:104A20003FF49AA94FF49C6203992046FEF718FDC3
:104A300080469048FBF788FF0BAF40464FF4C071AB
:104A40002CAEFBF7D1FF00240CAA00920194404643
:104A50003B4644AA90213C6034600C941494FBF7CC
:104A60007DFE08F5407900283FF476A9CDE9006481
:104A700014AB44AAF02108F59070FBF76FFE0028F4
:104A80003FF46AA90C9A31687B4D7C4B7C48891AAB
:104A900003FB01F305FB02FC3A681B0CC3EB5C3C17
:104AA00005FB02F2DDF84037520B05FB01F1C3E9CB
:104AB00016C11A66FBF7A0FFDDF840377148996D03
:104AC000FBF79AFFDDF840376F48196EFBF794FF4C
:104AD0006E48FBF799FF6E48FBF736FF48464FF4E8
:104AE0005871FBF781FFCDE900740AAB44AA40F28C
:104AF0001F1108F20230FBF731FE00283FF42CA909
:104B000014AB01930CAB009344AA09AB4FF4907122
:104B100008F5A860FBF722FE00283FF41DA9CDE9A7
:104B20000046234644AA08F5F0604FF49071FBF765
:104B300015FE044600283FF40FA9D7F800E0D6F888
:104B400000C0149F0C98534B534A5449ACEB070CCC
:104B5000DDE90989A0EB0E0003FB0CF305FB07F769
:104B600002FB00F21B0CA9EB0806C3EB573305FB55
:104B70000EFEDDF84077120C01FB06F1C2EB5E3E43
:104B800005FB00F205FB08F8090CC7E91BE205FB71
:104B900006F6C1EB583105FB0CF54148C7E91D3558
:104BA000C7E919167D1E07F187064FF0FF3315F888
:104BB000012F53400822DF074CBF80EA53035B08F4
:104BC000013AF8D1AE42F2D1DDF840273548DB4357
:104BD000C2F88830FBF710FFDDF840373248996E95
:104BE000FBF70AFFDDF840373048D96EFBF704FFCA
:104BF000DDF840372E48196FFBF7FEFEDDF8403731
:104C00002C48596FFBF7F8FEDDF840372A48996FBA
:104C1000FBF7F2FE0A23FFF7A9B803F5C9237E3399
:104C20004345FADBFFF785BB0B283FF6CFAB0133DB
:104C3000302B3FF491A810465A1E3244591C12F8EA
:104C4000015F4B1E35B112F8015C1DB91D460120F4
:104C5000FFF7B9BB302900F0DA810131EFE700BF7F
:104C6000CCB10008ABAAAA2AF8B1000824B2000807
:104C700040B2000858B20008AA0A0100A82A04009D
:104C80006CB2000880B2000894B20008A4B2000818
:104C9000BCB200084E750B00A64A0700541502006E
:104CA0002083B8EDD0B20008E4B20008F8B20008E2
:104CB0000CB3000820B3000838B3000800007C42A1
:104CC0004FF47873A6E51FED037AF4EEC76AF1EEB0
:104CD00010FA4FF01F013FF789ADF5EEC06AF1EE13
:104CE00010FA3FF587ADFCEEE66A16EE903A9BB2FD
:104CF00041EA832319B27DE54042800940F694538E
:104D000003FB00F0400D05FB00F0A9EB1020CBF8F1
:104D1000000051E4CEF1000E1FFA8EFEBEF11F0F0F
:104D20003FF61AA84EF02005FFF749BADE46039178
:104D30009B46C0E5B7EB9B0FBFF40EA8039EC64889
:104D40003146FBF759FEDDF84037C4481E84FBF7B7
:104D50005BFEC34AC34900960B232046FEF70CFDB9
:104D60000023BF4ABF49009320460923FEF704FDF4
:104D70007E23BB4ABB49009320460A23FEF7FCFC76
:104D8000204640F25241FCF7C9F904462B46002C5C
:104D90007EF4ECAFFEF7E0BF2046358EFCF7ECF971
:104DA00000283EF4D9AF049BDFF8B492DDF84087C9
:104DB0005B086D08AB4228BF2B46023B23F0010382
:104DC00004931FFA83FA039B08EE104A40F64A3B0D
:104DD0001F1D0025049BC5F534640A34A3428CBF13
:104DE0005C4654469F4B6E0803EB860062083946CA
:104DF000FBF7E2FEB8F87E3001931C2200924B468E
:104E0000224629463846FBF7DBFF00283EF4A4AFD4
:104E1000B8F8803001931A23009322464B46294666
:104E20003846FBF7CDFF84464FF01B0E4B4622461B
:104E300029463846BCF1000F3EF48EAFB8F882C068
:104E4000CDE900ECFBF7BCFF84464FF0190E4B4652
:104E5000224629463846BCF1000F3EF47DAFB8F833
:104E600084C0CDE900ECFBF7ABFF8446039A18EE53
:104E7000100A23463146BCF1000F3EF46DAF554495
:104E8000FCF7BCF9ADB240F649339D42ABEB0A0BDF
:104E900000F2A7801FFA8BFB9CE717EE904AB8F14F
:104EA000000F3EF459AF80F0300319466E48059369
:104EB0001E46FBF7A1FDDDF840276C489680FBF706
:104EC000A3FD21466A48FBF797FD6A48FBF73CFDC6
:104ED000079E30213046FBF787FDDDF818906648C5
:104EE0004946FBF789FD698CB5F880305B1AB3F54C
:104EF000FA6FFEF631AF614A4FEA034AA2FB0A3A63
:104F0000002007EE904A4FEA5A1A07468B461022B5
:104F10004FF6FF7ECC460AE0A54288BF4FF000085E
:104F2000013292B2402A50441BD036F8021FA1EB46
:104F30000C03002BB8BF5B429BB20BEB10457345D3
:104F400005F548793CBF9E461746494501F548742A
:104F5000E2D94FF00008E3E79C457FF426A9FEF76D
:104F6000FBBE17EE904AB8F1000F3EF4F5AE39469D
:104F70004348FBF741FDDDF8403742485F81FBF7CE
:104F800043FD0123DDE90312204600934FF47E55D3
:104F900044ABADF81051FEF7DBF8314A31490097C8
:104FA00026232046FEF7E8FB059B2D4A2D4900935A
:104FB00020462423FEF7E0FB204640F2C521FCF703
:104FC000ADF804460323002C7EF4D0AEFEF7C4BE39
:104FD00003274FF001080026FFF727BAD646FFF750
:104FE000E4B818EE100A40F25B11FCF797F804469B
:104FF0000123002C7EF4BAAEFEF7AEBEFB1F172FC6
:1050000088BFC3F120023EF6E6AFFEF7E1BFA0F194
:105010000C03082B3EF6A0AE4508FFF7E3B90023CA
:1050200017EE904A564603934FF6FF78FFF7EBBA18
:1050300044AB0493FEF7F5BFBCEEC77A17EE103A07
:1050400019B2FFF7CBBBFCEEE77A17EE902A42F3DA
:105050000A025301FFF7DEBBA8B30008B8B300088B
:10506000E0880008E48C000830B000083CB000087C
:1050700094AF000854B0000868B00008ABAAAAAA10
:1050800074B0000880B000082DE9F043436A87B08F
:10509000F3B1012B04462CD0056E25B17F4B2A6855
:1050A0009A4200F09A80DFF808827D4AD8F84030B2
:1050B0007C4900209847D8F840307B4A7B49002043
:1050C0009847206EFCF7DEFC042007B0BDE8F083B3
:1050D000774B93F84820012A04D91B6C754A734911
:1050E000022098477448FBF78FFC012007B0BDE809
:1050F000F083DFF8BC8198F84830012B05D9D8F847
:1051000040306E4A6949022098476649D4F80090B9
:105110003B221420FBF7F0FE0546002800F0B48087
:105120000026066046608660C66006616449732298
:105130004FF4FE70FBF7E0FE0746002800F0A08069
:105140004FF4FE72314601F0DCFD01235349A7F80C
:10515000C43187F8C6310DF116022960C5E901692D
:1051600031462F616E734846ADF81660FBF7C0FFFD
:105170005448FBF749FC54484946FBF73DFCBDF851
:1051800016105048FBF738FCBDF8163041F21022DB
:10519000934236D04D4A4E49D8F840703046B84711
:1051A0002846FCF76FFC0DF1160248461C21ADF8AD
:1051B0001660FBF79DFFBDF816301B0564D535461C
:1051C000D8F84030434A3749002098472846FCF732
:1051D00059FC00232366042088E7416871B104F17B
:1051E0006403A868A268009305F10D03FEF75CFD57
:1051F00020B16B7B0A2B4BD0022077E7DFF8B08021
:1052000059E748460DF116021C21ADF81660FBF770
:105210006FFFBDF8160010F40066D1D1A868FBF747
:105220003DFF0322A8680092314640F249130390E3
:10523000FBF706FF0398009640F24913042202216F
:10524000FBF7FEFE0398009640F24913102204215A
:10525000FBF7F6FE0398009640F249132022052141
:10526000FBF7EEFE0398009640F249134FF47F528D
:105270000621FBF7E5FE3046256607B0BDE8F08362
:1052800028612846FBF730FE0023236604202DE723
:10529000206EFCF7F7FB032028E700BF0EB03713A2
:1052A00080A9000898A9000888B40008F0A60008A2
:1052B000AC000020D8B30008F8B3000810B4000810
:1052C00030B4000844B4000894AF00084CB400089F
:1052D000C0A500086CB400080CB42DE9F041ACB0D6
:1052E00032AB0DF1180853F8042B059306460F4610
:1052F0004046962101F0CCFE952806DD42F62E624E
:105300002E23ADF8AA20ADF8AC301D4B1D4A18680D
:105310001D4D1E4B1E4CA2FB0012A5FB00154FEAB3
:10532000923CAD09A3FB0C12A3FB05135B09A4FB84
:105330000014042E4FF47A71C3EB0313A5EB83031F
:1053400001FB150598BF13484FEA521294BF805DC8
:105350003F20C2EB0212CDE90050ACEB8202610D9E
:10536000CDE902780C4801F06DFE0C4B1B68986883
:1053700001F098FB2CB0BDE8F04102B0704700BFCF
:10538000AC00002073B2E745D34D6210898888884D
:10539000B17C2195CCB40008A8B4000828000020F6
:1053A0002DE9F0410446806F202842D10D460029A6
:1053B0003CD0002A3AD01E4694F87430012B38D0E5
:1053C00021230027C4F88070A367A3682449A4F8A8
:1053D0005020B3F5805FD1F80080A4F852202BD084
:1053E000B4F8523000229BB284F8742073B92CE0D8
:1053F000236815F8012B1A85B4F85200013880B2E1
:10540000A4F85200B4F8521089B2F1B133464246C2
:1054100080212046FAF708FFA0B9002DE8D137F81F
:10542000023B2268C3F308031385E5E70120BDE8CA
:10543000F0810220BDE8F0812369002BD0D12F46F6
:105440001D46CDE70320BDE8F081334642464021AA
:105450002046FAF7E9FE0028F4D12023A367E6E707
:10546000AC000020034AD2F8883043F47003C2F83D
:105470008830704700ED00E010B5184C184A63689A
:105480004FF4802151619A68D20402D5DA68D005C0
:1054900009D49A68910402D5DA68920512D40123DE
:1054A00084F8253010BDDA68D2B262F4C072DA60D6
:1054B000012384F84831FDF79FFD60B9636884F8E3
:1054C0004801E6E7DA68D2B262F42072DA600123BA
:1054D00084F8253010BDFDF70BF800BFAC000020AC
:1054E00000040140034B5A69120544BF4FF40062A7
:1054F0005A6170470004014070B5A94CD4F84C3192
:10550000DA6919689D6840F60F0002424CD1900696
:1055100002D58E0600F1E980D4F8AC01012825D02F
:10552000D60202D5680200F1EA80160614D45006AD
:1055300001D54A0602D470BDD4F84C3153E8002F8F
:1055400022F0400243E800210029F5D12023C4F8CD
:10555000B411C4F8C43170BD0D06E8D5D4F8B43127
:10556000002BE8D0BDE870408E481847D606D7D546
:10557000C806D5D510221A629A68510640F1D78024
:10558000D4F8BC2111684A6892B2002AD3D0B4F88A
:10559000A4019042CFD9A4F8A6210A68920640F14E
:1055A0000981B4F8A63170BD7F4805F001060840B6
:1055B0003043B1D0D50709D5C80507D501201862F9
:1055C000D4F8CC0140F00100C4F8CC0195077FD598
:1055D0004EB102201862D4F8CC0140F00400C4F8A7
:1055E000CC01500778D410070BD501F020003043D0
:1055F00007D008201862D4F8CC0140F00800C4F8A5
:10560000CC0116050AD54D0108D54FF4006018628B
:10561000D4F8CC0140F02000C4F8CC01D4F8CC017F
:10562000002888D0900601D58A0677D4D4F8CC110A
:105630009A6801F0280102F040020A4302D1F5E025
:10564000D4F84C3153E8002F22F4907243E8002143
:105650000029F5D1D4F84C2102F1080353E8003FAA
:1056600023F00103083242E800310029F2D1D4F8D6
:10567000AC31012B47D000232021D4F84C21C4F8B1
:10568000C811C4F8AC319168C4F8B0314B0602D4EB
:1056900051E7D4F84C2102F1080353E8003F23F00E
:1056A0004003083242E800310029F2D1D4F8BC01AD
:1056B00000283FF440AF90F825303C4A8263022B2B
:1056C00000F0B7800423BDE87040C363FCF7FCB969
:1056D000550788D5002E86D004201862D4F8CC0156
:1056E00040F00200C4F8CC017DE7D4F8B031002BC3
:1056F0003FF421AF04F5A670BDE8704018474FF4A1
:1057000080121A6270BDD4F84C2152E8003F23F099
:10571000100342E800310029F5D1ACE7D4F8B021FC
:10572000002A83D01F489047D4F84C317EE7B4F864
:10573000A611B4F8A62192B289B2002A3FF4FBAEBA
:10574000B4F8A4218A423FF4F6AE01E0D4F84C311B
:1057500053E8002F22F4907243E800210029F5D18C
:10576000D4F84C2102F1080353E8003F23F0010371
:10577000083242E800310029F2D12023C4F8C831B0
:10578000C4F8B011C4F8AC11D4F84C2152E8003F71
:1057900023F0100342E800310029F5D170BD00BFAD
:1057A000AC000020F801002020010004C91A000804
:1057B000D4F84C3153E8002F22F4807243E80021E2
:1057C0000029F5D1D4F84C2102F1080353E8003F39
:1057D00023F00103083242E800310029F2D1D4F865
:1057E0004C2102F1080353E8003F23F04003083244
:1057F00042E800310029F2D12023C4F8C831C4F8AE
:10580000AC11D4F84C2152E8003F23F0100342E8D9
:1058100000310029F5D1D4F8BC3193F82520022AB3
:1058200020D0042283F82410DA63BAE6C4F8CC212D
:1058300070BD0268436C1468056C24F00E0414609B
:10584000146824F00104146003F01C03012202FA1E
:1058500003F36B6080F8252080F82410BDE87040C9
:10586000FCF732B918685A6C05681E6C25F00E05F5
:105870000560056825F00105056002F01C020120A5
:1058800000FA02F2726083F8250083F8241088E69B
:10589000084810B4D0F8D031D0F8044299691A6899
:1058A0002CB1234600F5E8705DF8044B18475DF80D
:1058B000044B7047AC0000200148FCF74FBD00BF0F
:1058C000480100200148FCF749BD00BF000100204D
:1058D0000148FCF743BD00BFD00200200148FCF79F
:1058E0003DBD00BF18030020034B5A69120744BF97
:1058F00008225A61704700BF000401400C4B0D495B
:105900005A684FF480104861D168490503D40122D8
:1059100083F825207047D168C9B261F49061D160E5
:105920000120012283F8510083F82520704700BF31
:10593000AC00002000040140024A136801331360E8
:10594000704700BFAC000020704700BF704700BF29
:10595000704700BFFEE700BFFEE700BFFEE700BFE5
:10596000FEE700BFFEE700BF034613F8012B002A45
:10597000FBD1181A0138704753B94AB9002908BF3A
:1059800000281CBF4FF0FF314FF0FF3000F06EB920
:10599000ADF1080C6DE904CE00F006F8DDF804E086
:1059A000DDE9022304B070472DE9F047089D044665
:1059B0008C46002B40F083808A42174647D9B2FAC2
:1059C00082F242B1C2F1200024FA00F091409740E7
:1059D00040EA010C94404FEA1748230CBCFBF8F650
:1059E0001FFA87FE08FB16C143EA014306FB0EF1CE
:1059F000994209D9FB1806F1FF3080F019819942CC
:105A000040F21681023E3B445B1AA4B2B3FBF8F0AD
:105A100008FB103344EA034400FB0EFEA64509D9F7
:105A20003C1900F1FF3380F00581A64540F2028168
:105A300002383C4440EA0640A4EB0E0400261DB1A7
:105A4000D4400023C5E900433146BDE8F08702B9E0
:105A5000FFDEB2FA82F2002A50D1CB1B4FEA174E7A
:105A60001FFA87F80126B3FBFEFC210C0EFB1C334A
:105A700041EA034108FB0CF38B4207D979180CF17A
:105A8000FF3002D28B4200F2E9808446C91AA3B2E9
:105A9000B1FBFEF00EFB101143EA014408FB00F8D5
:105AA000A04507D93C1900F1FF3302D2A04500F20E
:105AB000D9801846A4EB080440EA0C40BFE78B42AB
:105AC00009D9002D00F0B1800026C5E9000130465B
:105AD0003146BDE8F087B3FA83F6002E4AD18B42F7
