:020000040800F2
:10000000000001208DAB00088D9A0008899A000835
:10001000859A0008819A00087D9A00080000000077
:10002000000000000000000000000000759A0008B9
:10003000799A000800000000719A0008619A00088F
:10004000DDAB0008DDAB0008DDAB00081D9A000841
:10005000DDAB0008DDAB0008DDAB0008DDAB000860
:10006000DDAB0008099A0008DDAB0008DDAB000835
:10007000FD990008F1990008DDAB0008DDAB000830
:10008000E5990008D9990008DDAB0008DDAB000850
:10009000DDAB0008DDAB0008DDAB0008DDAB000820
:1000A000DDAB0008DDAB0008DDAB0008DDAB000810
:1000B000DDAB00080000000000000000DDAB000820
:1000C000DDAB0008B9990008DDAB0008DDAB000826
:1000D000DDAB0008DDAB0008E5960008DDAB0008ED
:1000E000D1960008819C000800000000000000007C
:1000F0000000000000000000000000000000000000
:1001000000000000DDAB000800000000DDAB0008CF
:100110000000000000000000DDAB0008DDAB0008BF
:10012000DDAB0008DDAB0008DDAB0008DDAB00088F
:10013000DDAB00080000000000000000000000002F
:10014000DDAB0008DDAB0008DDAB000800000000FF
:10015000DDAB0008DDAB0008DDAB0008DDAB00085F
:10016000DDAB0008DDAB0008DDAB000800000000DF
:10017000DDAB0008DDAB000800000000000000005F
:10018000DDAB0008DDAB0008DDAB000800000000BF
:1001900010B5054C237833B9044B13B10448AFF3C1
:1001A00000800123237010BD90000020000000009B
:1001B00050D4000808B5034B1BB103490348AFF303
:1001C000008008BD000000009400002050D400080A
:1001D0000F49104A086813691B0704D50D4B1869AD
:1001E000C0F3C00070470B681B1AB3F57A7FF5D2D5
:1001F00072B613691B0700D430BF62B6BFF36F8FAE
:1002000013691B07EFD5034B1869C0F3C000704793
:10021000AC00002000040048F0B40568294F0646F1
:1002200001E0581C06D1EC6931EA0400F9D1002044
:10023000F0BC70473868801A834227D333B32868EC
:100240004407F0D5E8690005EDD54FF400632B6253
:1002500055E8003F23F4D07345E80032002AF7D177
:10026000326802F1080353E8003F23F0010302F172
:10027000080040E800310029F3D12023B36786F855
:100280007410F3670320C6F88030D1E755E8003FCB
:1002900023F4D07345E80032002AF7D1326802F126
:1002A000080353E8003F23F0010302F1080040E88F
:1002B00000310029F3D12023B36786F8741003209E
:1002C000F367B5E7AC000020224A0346006890427D
:1002D00030B43BD8204A2149214C1C640244A1FB84
:1002E0000212120992005A64022283F82520016842
:1002F0009D68D3E9052421F4FF4121F070012A43D0
:100300000A43224342F08002B5F5804F026014D0C8
:10031000196C134A914208BF12495A6C18BF12490E
:1003200002F01C000F240A68844022EA04020A60DA
:100330005A680C68824022430A6000200122D86378
:1003400083F8240083F8252030BC7047074A03490E
:10035000074CC2E707040240F8FFFDBFCDCCCCCC70
:1003600000000240A8000240A8040240F8FBFDBFC4
:100370000004024009494A68D36823F0A003D3600F
:10038000086804E00B681B1AB3F57A7F04D8D368B9
:100390009B06F7D50020704703207047AC00002073
:1003A0000288438843EA02430B607047DFF880C04D
:1003B0002DE9F04F023802390CF1E2090CF1E40B9F
:1003C0004FF0000A40F6DE1830F8025F31F8024FB5
:1003D000A54220D09CF800400BEBC404658825B3EF
:1003E0006768002607EB850E47F6FF7557F8044B44
:1003F000A4B2A54228BF2546A64238BF2646BE4520
:10040000F4D17600B6B26D00B24538BFB246ADB297
:10041000A84528BFA8460CF1010CCC45D4D1A2F8C0
:100420000080A3F800A0BDE8F08F4FF6FE75EFE75F
:1004300068D400080B4A30B4411E00F187054FF024
:10044000FF3011F8014F08236040C4074CBF82EA17
:1004500050004008013BF8D18D42F2D1C04330BC7E
:10046000704700BF2083B8ED2DE9F04F054687B0F7
:10047000002405EB410E029005921046049103936F
:10048000AEF1120EAA1E27460194A146A2464FF0D5
:10049000010C40F2EE2B14E0BAF1000F30D14B45C5
:1004A00035DD99460124019E7642B342BCBFA8EBDC
:1004B000050301938F4238BF0F46964500F10200B5
:1004C0002BD0558A32F8021F6B1A03F50046B6F599
:1004D000803F38BF038088462CBF4FF0000C118846
:1004E0005B45D9DC594E9945B8BF9946B342DADA33
:1004F000002C0ABF4FF0000CA2464FF0010AD2E7D1
:100500004B4506DD994654464FF0000CCBE70124DD
:10051000C9E754464FF0000CC5E7BCF1000F05D108
:100520004FF0000A504607B0BDE8F08F002CF7D01E
:10053000BAF1000FF4D0049A059E04970023CDF879
:100540001490A2F11C0E123698469C461D461F467A
:10055000994636F9023F03EB830203EB4203304630
:1005600031460A2231F902BD30F9024F02FB0B334A
:10057000A2F1020B013A0BFB0433F3D1634561DCBA
:10058000434501DA9846A94601357545E1D14CF25B
:1005900050339C4538464C46049FDDF81490BFDD2F
:1005A0002B4B9845BCDAB9F1000FB9D0019B002B59
:1005B000B6D0029B11991B88FF00DB0041B1BB4202
:1005C00004D2DA434A443A44B2FBF9F211990A6080
:1005D000109A002AA6D0039A002AA3D002460299B4
:1005E0000E3231F81210B3EBC10F4FEAC10005D241
:1005F000DB434B440344B3FBF9F3D21A029B04F1EF
:100600000E0933F81930B7EBC30F4FEAC30107D90E
:100610000198431E3B445B1AB3FBF0F3A9EB0309BB
:10062000002AFFF67DAFB9F1000FFFF679AF4A451A
:100630003FF776AF109BA9EB0209C3F80090039B2C
:100640001A606FE79C462F469EE700BF12FDFFFF32
:10065000B03CFFFF704700BF70B4124E124D00F166
:10066000BC04002143680B44024640F8043F126872
:100670009A1AB24209DD50F8042CA3F5C9237E3B37
:10068000A1F5C92103607E399A1AAA4206DA03F558
:10069000C9237E3301F5C92103607E318442E1D153
:1006A00070BC70473F240300C1DBFCFF18B1074B4F
:1006B00002689A4205D0064B064A9B6B0649002009
:1006C0001847002380F85330704700BF0FB037132E
:1006D000AC000020E81201080013010870B48C88F7
:1006E00093680E898D79CA799A70003C18BF0124ED
:1006F0009E801C705D70986070BC70470368D0F875
:10070000E820C0F8F0205A6818461047D0E90F23B7
:10071000816B0069184700BF0068C368184700BFB5
:10072000704700BFF8E700BF00688368184700BF44
:10073000FAE700BFF0E700BFF0B4314B314E1B6861
:10074000056882B000248DF803403468376803EBF5
:100750008303C4F16404C3EBC30322441B0D02FBF7
:1007600003F30193AB6819420AD12CE0019C019B71
:10077000013B0193AB68002C08BF0022194222D034
:10078000B1F5C06F05D12B7BDBB28DF803309DF83E
:1007900003303368DB1B9A42E8D86B68426823F069
:1007A000E003B2F5827F6B601AD0836AB3F5005F15
:1007B0000DD00122002380F85D2080F85C300320FA
:1007C00002B0F0BC7047002002B0F0BC70472B684C
:1007D00023F400532B602B6843F400532B60E8E7AD
:1007E0008368B3F5004F02D0B3F5806FDDD12B687D
:1007F00023F040032B60836AB3F5005FD9D1E6E7AD
:1008000000000020AC00002070B4294D294B2A685C
:100810001B6804682E68C2F16402114483B0C3F3FC
:10082000CB3301FB03F30193A3681A060DD52B68A4
:100830009B1B8B420DD2019A019B013B0193A36844
:10084000002A08BF00211B06F1D4002003B070BCB1
:1008500070476368426823F0E003B2F5827F63600B
:1008600016D0836AB3F5005F09D00122002380F817
:100870005D2080F85C30032003B070BC70472368B3
:1008800023F400532360236843F400532360ECE710
:100890008368B3F5004F02D0B3F5806FE1D12368D0
:1008A00023F040032360836AB3F5005FDDD1E6E700
:1008B000AC000020000000202DE9F04FC5B00D462F
:1008C000904681464FF4827203A800210BF08DFE02
:1008D000002D43D04FEA58077E1E04AA08F1FF34CA
:1008E000B6B2C7EB8773A4B202EB86069B0003AADD
:1008F00009EB850B0134019348463D444FF0000C51
:1009000002EB870ADFED1B7A6346B8F1000F18D0BF
:10091000AB420CD2A3EB0C01BB4289B207D38F428E
:1009200002EB830E1DD99EED017A77EE877A0133B3
:10093000A342EDD12FB103AB596843F8041BB34276
:10094000FAD10368E0EC017A58450CF1010C04F18E
:100950000104A2F10402CAF80030D3D145B0BDE8C9
:10096000F08F019901EB8301494491ED007A77EE14
:10097000877ADCE700000000836910B50446BBB14C
:100980000D4B93F840204AB963697BB10A4B0B4A7F
:100990009B6B0B4900209847002010BD9B6B094AB8
:1009A0000749012098476369002BEFD1012010BD52
:1009B000C369002BE4D1E7E7AC0000204013010835
:1009C000241301080813010870B40169B0F842202B
:1009D00090F8383031F81220032B08BF82F400421F
:1009E00040F2E51303FB02F31B0C826CA3F5897341
:1009F0009BB21380828F31F812204AB1B0F84020A8
:100A000031F81220012A03D9C26C0124147002E0CB
:100A1000C26C00241470C48F428F31F8145031F826
:100A20001240B0F9441040F2E51202FB05F2120C3C
:100A3000C2F5897213441BB2002BB8BF5B42D0E9E8
:100A400014651BB2A4F1010200689942B2FA82F265
:100A50004FEA5212ACBF00230123327042682B7060
:100A600070BC104770B50446806978B1E36943B142
:100A70000F4B93F8402022B19B6B0E4A0E49012088
:100A800098472068BDE8704083681847084D0B4AB6
:100A9000AB6B09499847E3693BB195F8403023B106
:100AA000AB6B044A044901209847002070BD00BF89
:100AB000AC00002094130108841301086813010896
:100AC0002DE9F047C26DD0F8188006690023A8F818
:100AD000023004461D46137000F14C07994657F842
:100AE000043B03B3B3F838C0B3F89000B3F89210E6
:100AF000B3F8D82006EB400006EB410106EB4202BA
:100B000006EB4C0CC3E91301C3F8A420C3F814C0CE
:100B100088F800501868D3F8DC20416883F8E49026
:100B2000C3F8E02088470135EDB2042DD7D1206805
:100B3000BDE8F04743681847704700BF704700BFE3
:100B4000704700BF704700BF52B101EB820204380A
:100B500050F8043F4B801B0C0B8004319142F7D1BD
:100B6000704700BF30B583B000EB42000D4601A9CD
:100B70001C46FFF715FC019A22F00F0204B12A432C
:100B80000092014601226846FFF7DEFF03B030BD48
:100B90002DE9F04F87B0BDF84070DDF844A003EBBD
:100BA000C7077B8883B381460E4601EB0208002508
:100BB0004FF0010B7A6852F82540620092B2B242BF
:100BC000C4F301701DD342451BDA01280CD0022862
:100BD00036D0E8B1324B334A9B6B334900209847FB
:100BE000002007B0BDE8F08FBAF10003A2EB0602C7
:100BF00018BF012392B2C4F303414846FFF7B2FF86
:100C00007B880135AB42D5D8012007B0BDE8F08F15
:100C1000C4F344530BFA03FC921BE24591B21ED37A
:100C20000CF1FF331E4A0193CDF800A0946B1F4ACC
:100C300003900B461C49A047039807B0BDE8F08F0E
:100C4000921BBAFA8AF35B0992B2C4F30341484695
:100C5000FFF788FF7B880135AB42ABD8D4E709EBBF
:100C6000410004A90393FFF79BFB039B4FF0FF3266
:100C7000C3F12003C4F3044422FA03F3049AA3400B
:100C800022EA03020AFA04F40146144305A80122E9
:100C90000594FFF759FF7B880135AB428AD8B3E74B
:100CA000AC000020E8130108DC130108A4130108BC
:100CB0002DE9F04FC2F51D669A461B68164C0E369C
:100CC000B34298BF9EB2154B054688BFB6B25008D6
:100CD00003EB800083B0174672088846023DFFF799
:100CE00033FF04F1E10904F1E40B7D2301E014F882
:100CF000013F35F8022F3946CDE9003240465B46C8
:100D00003246FFF745FF4C4501D00028EFD1CAF825
:100D1000006003B0BDE8F08F68D4000820FE000832
:100D200000230138C1E90133CB6004282ED8DFE865
:100D300000F00C1625290300174B184A00200870F4
:100D4000C1E90533CA6101207047154B00220A70C2
:100D50004FF48022C1E90533CA610120704730B4E5
:100D6000104B114CCC6101209625FA22CD60C1E9CF
:100D7000012230BCC1E90533087070470B4B0C4AA7
:100D80000020DCE70B4B0C4A0020D8E70020C1E92B
:100D900005000870C8617047080005000B000200DC
:100DA0000200010008000100020003000800020028
:100DB00004000200080003000600020010B4084C02
:100DC000248D490864088C4228BF0C46023C24F05C
:100DD0000104043010601C605DF8044B704700BFD4
:100DE000AC000020F8B50688002A14BF4FF48052EA
:100DF0004FF40052B6F59C6F38BF4FF49C66B24278
:100E000005460F461C4623D2134B144A9B6B1449CC
:100E1000002098474FF0000E1249134A134BE3602D
:100E2000C4E901120FCD203676004FF0000CA4F873
:100E300002C004F1300C24F8106B0FC495E80F00C9
:100E400007C497E8030023808CE803007046F8BDD0
:100E50004FF0010EE0E700BFAC0000200C140108C9
:100E60002C1401080100020003001B001C002000DC
:100E7000DFF864C02DE9F047DCF83C501DB12B468B
:100E8000BDE8F047184712B35200A1F10208A2F1E1
:100E900002090E469A4607464944444634F8025F22
:100EA0006DBA8C422580F9D1DCF8344038463146A1
:100EB000A047BAF1000F01D1BDE8F0874E4438F8E1
:100EC000023F5BBAB045A8F80030F8D1F4E7BDE8BE
:100ED000F047DCF834301847AC00002070B501252D
:100EE00084B041F4A0430446164603A92A4601A84B
:100EF000ADF808300196ADF80A50FFF725FE204600
:100F000002A900230422FFF7B3FF04B070BD00BFA5
:100F10002DE9F04782B01D4643F44053BDF8284008
:100F2000ADF8003000278A46914669460123032226
:100F30008046ADF80270ADF80470FFF799FFBDF977
:100F4000046004FA0AF1714001EA090445F480558D
:100F500040463B46694674400222ADF80050ADF869
:100F60000240FFF785FF02B0BDE8F08730B583B0DF
:100F70000025294600957B23FF220446FFF7C8FF82
:100F80000121204600918B230222FFF7C1FF00952B
:100F900020468B2380220721FFF7BAFF03B030BD24
:100FA00030B583B041F4805415460023022201A9D4
:100FB000ADF80440ADF80650FFF75AFF03B030BD5E
:100FC00030B583B041F4405114460025ADF800100F
:100FD000012303226946ADF80250ADF80450FFF733
:100FE00047FFBDF80430238003B030BDF0B585B0B5
:100FF0000024012907461646ADF80E4038D00229D4
:1010000033D0224B22499D6B224A03462046A847F3
:1010100021460DF10E023846FFF7D2FFBDF80E3023
:10102000738003F00705012D358024D013F0060FDF
:101030000BD16DB9154A0097946B1549164A28468D
:10104000A0472C46204605B0F0BD023D012DF9D940
:101050000E4A0097946B0E49104A0020A0470021C9
:101060000C462046318005B0F0BD32210124D0E786
:101070000C463321CDE7054A0097946B0449084A92
:101080000020A0470024204605B0F0BDAC000020A1
:101090005C1401084014010874140108D8140108F4
:1010A000A4140108F0B583B00024012907461646B0
:1010B000ADF8064019D0022909D01A4B1A4A9D6B87
:1010C0001A4903462046A847204603B0F0BD4621F2
:1010D0000DF106023846FFF773FFBDF80650842471
:1010E00075B1BEB9012003B0F0BD45210DF1060276
:1010F0003846FFF765FFBDF806508324002DF0D178
:10110000084B0B4A9C6B094928463B46A04728469A
:1011100003B0F0BD384621460022FFF741FF3046BC
:10112000D3E700BFAC000020401401085C140108A4
:101130000C15010870B582B00DF106020E460024B0
:101140001C210546ADF80640FFF73AFFBDF8062022
:1011500012F400620CD128461B21FFF721FF28461C
:1011600046F400621B21FFF71BFF012002B070BD97
:10117000044B054A9E6B054920462B46B047204646
:1011800002B070BDAC000020401501085C140108DD
:1011900070B582B00DF10602002437210546ADF886
:1011A0000640FFF70DFFBDF8063003F0C003B3B9EA
:1011B0000DF1060200241C212846ADF80640FFF779
:1011C000FFFEBDF806301B0515D50E4B0E4A9E6B73
:1011D0000E4920462B46B047204602B070BD094B51
:1011E00093F84020002AE3D09C6B094A07492B461C
:1011F0000120A047DCE72846FFF7B8FE012002B037
:1012000070BD00BFAC0000209C1501085C140108F3
:1012100070150108F0B40C4D2F8D9E1CB7EB460FD6
:1012200005D2AB6B094A0A49F0BC002018471446A6
:1012300041F4A041013B11805380214626F0004239
:101240000023F0BC14E600BFAC000020CC15010860
:10125000EC15010810B582B0044601AA0121FFF780
:10126000C5FE204600220121FFF71CFFBDF8043017
:10127000022B08D00549064A8C6B06490020A0477E
:10128000002002B010BD012002B010BDAC00002053
:1012900000160108481601082DE9F04F02EB420C38
:1012A00000EB8C0C8DB00026834682468046674654
:1012B000B14603A84FEA890586469FED577A434613
:1012C0006AB19C192C44D4ED007A1C46D4ED006A16
:1012D0000C3367EEA67ABB4237EE277AF1D104359C
:1012E0000C2DAEEC017AE8D109F10109B9F1030F37
:1012F00000F1100008F10408A6F1040607F1040744
:10130000D8D19DED046ADDED055ADDED086A684629
:101310000BF10C04DFED407A53463AB11D4695EDD2
:10132000007A0C33634577EE877AF7D10AF1040A25
:10133000A245E0EC017A0CF1040CEBD1DDED037A6F
:10134000F5EE407AF1EE10FA10D0B7EE007A87EEA3
:10135000274ADDED077A66EE044A26EE245A77EE38
:10136000C57AF5EE407AF1EE10FA06D1002000239E
:10137000CBF800300DB0BDE8F08FC7EE272A65EE40
:10138000843A25EEA47A66EE237A9DED0B5A76EE2A
:10139000E77A36EEC77A67EEA27A65EEA36A75EE53
:1013A000666A27EE275A76EEC56AF5EE406AF1EED8
:1013B00010FADBD09DED005A9DED013A9DED022A19
:1013C00064EE854A63EE853A73EE644A012067EE67
:1013D000A47A002372EE677A77EEE33AC3EEA67A38
:1013E00027EE277AC1ED027A34EEC77A65EEA75A66
:1013F00067EE227A26EE276AC1ED017A35EE466A5B
:1014000076EE655A25EE844A81ED004ACBF800302D
:101410000DB0BDE8F08F00BF000000000028B8BF8D
:10142000404270B4BABF00B20124002400293FDB5F
:10143000884238DB0022034668B30846002643F69C
:1014400028450004B0FBF3F1A9424AD946F2D6334D
:10145000994236D948F67203994244D94AF649432B
:10146000994242D94DF2A303994240D94FF24B73AE
:10147000994298BF052025D94FF24C7548F2332385
:101480004CF2A340491B03FB01F100EB114016B1E4
:10149000C0F5C9301F3014B1C0F549303F3002B13A
:1014A000404270BC70470B46C1B912480A46F2E789
:1014B000494209B288424FF00102BCDA0B46164697
:1014C000BDE701200C4B03EBC00503EB8003D5F80F
:1014D0007808D3F8AC38D5F87458D3E70022012641
:1014E000ADE70020EEE70220ECE70320EAE7042066
:1014F000E8E700BF1F92010068D4000808B518B1E2
:10150000064B02689A4207D0054B064A9B6B064978
:1015100000209847002008BD043008BD0FB03713E5
:10152000AC000020E81201080013010818B1064BB6
:1015300002689A4205D0054B054A9B6B054900207D
:10154000184780ED120A70470FB03713AC00002027
:10155000E81201080013010818B1064B02689A420C
:1015600005D0054B054A9B6B054900201847A0F89C
:101570004C1070470FB03713AC000020E812010880
:1015800000130108036853E8002F22F4907243E827
:1015900000210029F7D103F1080252E8002F22F0C0
:1015A000010203F1080C4CE800210029F3D12022AC
:1015B000C267026E4166012A0DD1016653E8002F11
:1015C00022F0100243E800210029F7D1DA69D2069F
:1015D00044BF10221A627047C26F222A06D00268E6
:1015E000138B9BB243F00803138370470268416D6D
:1015F000928C10B490F85C4022400A70B0F85A20E7
:10160000416D013A92B2A0F85A20B0F85A20013147
:1016100092B2416512B95DF8044BB3E75DF8044B33
:10162000704700BFC26F222A06D00268138B9BB29C
:1016300043F00803138370470268416D928C10B425
:10164000B0F85C40224021F8022BB0F85A204165E6
:10165000013A92B2A0F85A20B0F85A309BB213B9AE
:101660005DF8044B8EE75DF8044B7047836A0022F7
:10167000A3F85A20A3F85220704700BF836A1B6E5C
:10168000704700BF0368806A1A6812F0200227D1F1
:101690000368A0F85A2053E8002F22F4807243E830
:1016A00000210029F7D103F1080252E8002F22F0AF
:1016B000010203F1080C4CE800210029F3D103F1E9
:1016C000080252E8002F22F0400203F1080C4CE817
:1016D00000210029F3D12022C267026E012A01D025
:1016E000036E704753E8002F22F0100243E80021F8
:1016F0000029F5D053E8002F22F0100243E8002122
:101700000029EFD1ECE700BF836A19684A6822F02C
:10171000030210B44A601A6E012442F010021A66E5
:1017200083F85D405DF8044B704700BF704700BF11
:10173000704700BF70B503681B4D2E681B689B0681
:101740002ED4846A2268536823F020035360204615
:1017500032464FF4C051FEF7EFFF58B931462046EC
:10176000FFF752F830B932464FF4C0612046FEF719
:10177000E3FF38B1236E43F020032366236E43F06A
:101780002003236621684B68002223F00303012015
:101790004B60E287A4F8462084F85D00236E13B9FD
:1017A000012385F8413070BDAC00002038B52E4AC9
:1017B000036815681B689B061FD4846A2368A268A7
:1017C000586820F020005860C2B15968606821F064
:1017D0000101B0F5827F596035D029462046FFF7D8
:1017E00013F8C8B96368B3F5827F1CD001230022C7
:1017F000A4F8462084F85D30236E38BD6268B2F5E7
:10180000827F5A6827D022F001025A60294620467A
:10181000FEF7FAFF0028E5D0236E43F0200323668D
:1018200020232366E2E7A368B3F5004F02D0B3F5A7
:10183000806FDBD12A464FF4C0612046FEF77CFF63
:101840000028D3D0E8E7B2F5004F08D11A6822F09B
:1018500040021A60C1E722F003025A60BDE7B2F508
:10186000806FF3D0B9E700BFAC000020444AD368D2
:1018700030B49C0708D0D368046803F00303A34284
:1018800047D0012030BC70470368022B52D0032B95
:1018900049D0012BF5D112689207F2D5384D446832
:1018A000EA6822F073021343013C43EA0413EB603D
:1018B000334C344A236823F080632360156803E0C7
:1018C00013685B1B022B39D823681B01F8D400294D
:1018D00037D1D0E902532169DB0621F0784121F4A8
:1018E000FE4143EA05230B43236125490B6843F07E
:1018F00080630B60146803E013681B1B022B1DD868
:101900000B681B01F8D582690B6913430B6100203A
:10191000B8E7002BB5D0D3684268C3F30213013394
:101920009342AED1C4E71468A403B7D4126852033B
:10193000A7D5B3E712685505A3D5AFE7032030BCA0
:101940007047012923690DD04169856823F0C06380
:1019500023F4FE43490843EA0523013943EA41637E
:101960002361C2E70169856823F4C00323F4FE43C1
:10197000490843EA0523013943EA41532361B4E7A7
:1019800000100240AC000020064A074B926807494D
:10199000C2F302221344086893F8C83803F01F0307
:1019A000D84070470010024068D4000800000020B2
:1019B0002DE9F84F164C0A9E278D043A043F520831
:1019C0007F0897420D468146984628BF174601F189
:1019D000040A0024331BBB4228BF3B466FEA844104
:1019E0005A1E6FEA91419B466A8029805A0008EB93
:1019F000440150461C440AF033FF0BF1020200235D
:101A000029464846FFF734FAA642E3D8BDE8F88FE6
:101A1000AC0000202DE9F04F254C85B00026CDE923
:101A20000266B4F8288001928946002B3AD04FEA2A
:101A300058088346A8F104089A460D461F4626E03A
:101A4000019B48F200019A192980631E4FF00001A2
:101A5000E9806A80AB806200002105F108000AF08D
:101A6000C4FD294601235846221DFFF701FA02ABA7
:101A700003CB26446960286009EB460559F8160037
:101A8000696802AB564503C3A7EB04070AD2B84501
:101A9000444628BF3C46B845D2D200E0013CE307AB
:101AA000FCD4CDE709F1080005B0BDE8F08F00BF18
:101AB000AC0000202DE9F04F02EBC30689B073881B
:101AC000129F4BB38046894600254FF0010B736887
:101AD00053F82540C4F3017001280CD0022833D0FC
:101AE000F0B1344B344A9B6B3449002098470020B6
:101AF00009B0BDE8F08FA3B2194659F8232022F0AF
:101B00000F0217B1C4F3034422434046FFF7E6F93E
:101B1000738801359D42DAD3012009B0BDE8F08F0A
:101B2000C4F3445A0BFA0AF39F4216D3214A009792
:101B3000013B019321490390A3B2946B204AA04733
:101B4000039809B0BDE8F08FA3B2194659F82320D5
:101B500022F00F02002FD8D1D4E7A3B243F4204CD7
:101B600003930522012305A9ADF81800CDF81A004A
:101B70004046ADF814C0ADF816B0FFF779F904A9E6
:101B80000DF11A00FEF70CFCCAF1200A4FF0FF33EA
:101B9000C4F3044423FA0AFA049B03990AFA04FAE8
:101BA00023EA0A0207FA04F422434046FFF796F9B3
:101BB000AEE700BFAC000020A0160108DC1301084E
:101BC0006816010870B5094EF36A05469847044641
:101BD00028B12A4600210AF008FD204670BDB36BEB
:101BE000034A04499847204670BD00BFAC0000205E
:101BF000C8160108D8160108F8B595692B78B5F80C
:101C000002E0144602EB43030F46B3F844606369F5
:101C10000146720003EB4E000AF030FEE26D698867
:101C200013780E446E8003B93B791370F8BD00BF82
:101C30002DE9F04F2DED048B90F838308DB00790E2
:101C40000393002B00F0E7800798828F0469C38F0D
:101C5000B0F84C5034F91210099502465B00408FE1
:101C600008900193002D00F0D6801046526C836CD2
:101C7000B0F84E50B0F840B0DFED708ADFF8C881A0
:101C80000A95D318029300220901DB4305920B91B8
:101C900004939146B6EE009A029A6949134681FB75
:101CA0000331D317C3EBA10101EB4101B2EBC10139
:101CB000029A48BF1831002A09B2C0F2B5806048C4
:101CC00080FB0202C3EBA20212B20B9B120482FB46
:101CD0000356002D76F1000304DA4FF6FF73ED187A
:101CE00046F10006089B19442A0C34F9111042EA07
:101CF0000642A2EB011207EE902AF8EEE79A69EE8F
:101D0000A89AB0EE690A08F08DFFB0EE408AB0EEF6
:101D1000690A09F093F8BBF1000F6BD0079A136DB5
:101D2000B2F842A093F800E006930020054647F67B
:101D3000FF7709E0DDF80CE0E25201351FFA85FC7F
:101D4000E3455044718052D9019A09EB50039BB28C
:101D500002EB8303E618E25E07EE902AB6F9022052
:101D600006EE902AF8EEE77AF8EEE66A27EE887A31
:101D700026EE806A67EE807A66EE886A37EE467AEB
:101D800077EEA67AB5EEC07AF1EE10FAF5EEC07AEB
:101D90004CBF37EE497A37EE097AF1EE10FA4CBFB4
:101DA00077EEC97A77EE897ABDEEC77AFDEEE77AEB
:101DB00017EE10CA17EE901A17EE102AC445B8BFD6
:101DC00042464145B8BF4146BA42A8BF3A46B94229
:101DD000A8BF3946BEF1000FAED19445AAD117EE87
:101DE00090CABCEB010E18BF4FF0010EA4E7069B92
:101DF00083F800E0059B029A01331FFA83F911462C
:101E00000593049A0A9B1944D31A0493099B0291DF
:101E10004B453FF641AF079B186843680DB0BDECDA
:101E2000048BBDE8F04F1847049B1A46054BA3FBF3
:101E300002326FEA121212B247E700BF0000803789
:101E4000ABAAAA2AABAAAAAA0080FFFFC0EE207AFA
:101E50009FED107AF4EEC77AF1EE10FA17D89FEDE5
:101E60000E0A08B527EE800A08F0E8FFF7EE007AC0
:101E7000B0EE676A00EE006A70EE006AB1EEC67AF4
:101E800037EE400A46EEC07AB0EE670A08BD9FED15
:101E9000030A7047A800003FDB0F49400000000024
:101EA0002DE9F04F2DED028BADF21C7DCDE9041232
:101EB00003931B7804460A2B13D8DFE813F02300A2
:101EC0000B007400BF005D0133024703D3043805E3
:101ED000A6052300FFF7BEF9002840F09686039B75
:101EE0001B78B94EB46BB94AB9490020A04700230A
:101EF0001C46039A204613700DF21C7DBDEC028B2C
:101F0000BDE8F08FB04EDDF84807882200210AF0C6
:101F10006CFBD6ED117ADFEDAF5ADFEDAF6AF8EE6C
:101F2000677AB6EE006A85EEA77AF4EEE67A37EEC7
:101F3000067AF1EE10FABCEEC77A17EE103A9FB2AD
:101F400000F3B7859FEDA57AF4EEC77AF1EE10FAAB
:101F500000F1AF85A7F110039BB2EF2B40F2CE86C4
:101F60009FED9F7ADFED9F6A77EE877A37EE877A6B
:101F7000BCEEE76ABCEEC77A16EE108AB8EE477A76
:101F800077EEC77A67EEA67AFCEEE77A17EE905AFC
:101F9000CDE90085944BB46B944A95490020A04745
:101FA000039B1B789EE7FFF755F98246002896D0E1
:101FB0000499412300222046FFF72CFD0021038CC9
:101FC000079307EE904AA0F1020B0D468E464FF69E
:101FD000FF7C41F270791BE030F911703BF9114040
:101FE00007EB09023F1B9F42C0F25E85474500F3A5
:101FF0005B8582EAE273A3EBE2739BB2634503D293
:10200000B5009C46ADB2D6460F2E00F028870131B0
:102010004B1E03FB03F3C3EBC3035A0002F5167810
:10202000C83B8EB20029D7D1B0F900304B44002B09
:10203000B8BF5B429BB26345E2D3E8E7FFF70AF91A
:1020400000283FF44CAF0499002220232046FFF7DC
:10205000E1FCB0F900200546012116460027134691
:1020600035F9022FC3F5167313449BB2B3F5966F7F
:102070003FF635AFB242A8BF0F4601F10101A8BF3C
:1020800016462029EBD1072F00F2E087002307F145
:102090000802D21A002A00F0EA8746A9D51800EBF8
:1020A0004505069100EB430030F9026B07EE106A1C
:1020B00003FB03F606EE903A07EE906AB8EEC77A95
:1020C000F8EE677AF8EE666A854281ED007AC1ED36
:1020D000017AC1ED026A03F1010301F10C01E3D1C0
:1020E00006982EA9FFF7D8F800283FF4F8AE9DED2A
:1020F0002E6AB5EE406AF1EE10FA3FF4F0AEDDED77
:102100002F6AF5EE406AF1EE10FA3FF4E8AE9DED6D
:10211000307AB1EE477AC7EE267AF5EEC07AF1EE64
:1021200010FAFFF6DCAEF1EE666A86EE867AB5EE60
:10213000C07AF1EE10FA7FF5D2AEB7EE007A77EE04
:10214000877AFCEEE77A17EE903A9AB23F2AC3F309
:102150004E033FF6C4AEDDF8482783F01003D3806A
:1021600020464FF44571FEF7E5FF04460423002C9A
:102170007FF4BFAE00F098BCFFF76CF800283FF486
:10218000AEAE5023204604990022FFF743FC00F135
:10219000A0030693DDF848370A3307EE904A4FF064
:1021A000300B1C46DFF84C90B0F900204FF00008CF
:1021B00047F6FF7EC246774606464FF6EC716FF053
:1021C0001B034D462FE000BFAC000020E8160108BD
:1021D0000C170108F902154F8096984C8096984B81
:1021E000BD37063500247449701401082017010812
:1021F0004C1701080080FFFF7245BCBF9846964609
:10220000242918D036F9022F36F8023CD31A1BB213
:102210009F42A8BF1F4601F1080C9D42B8BF1D4652
:102220000BB21FFA8CF1002AE6DA4A45E8DD2429D0
:102230009A469146E6D1A5F51C55103DADB244F63F
:1022400020639D423FF64BAE002F7FF448AE19F558
:10225000004F47F6FF7300F045869E4500F09886D4
:10226000A8EB0A08B8F1080F7FF439AE4FEAC908A5
:10227000AEEB090E98FBFEFEAAEB0E080FFA88F8EB
:10228000B8F1000FC0F28684B8F11F0F3FF727AEF8
:102290001FFA88F8A64A0BF1010382F811B05FFA21
:1022A00083FB069B24F8028F103083427FF47AAFC1
:1022B000602317EE900ADDE9041200939D4B17EEA0
:1022C000904AFFF775FBDDF848379B4A9B890093DE
:1022D000DDF848379949DD8820460723FFF7EAFBF8
:1022E000954A9649009508232046FFF7E3FB032310
:1022F000914A9249009320460923FFF7DBFB06230E
:102300008D4A8E49009320460A23FFF7D3FB2046CF
:1023100040F2D531FEF70EFF04460523002C7FF472
:10232000E8ADC1E3FEF796FF00283FF4D8AD04996D
:10233000DFF81092DFF810824FF44073002220463D
:10234000FFF768FB0DAB08930593002300F5C06110
:10235000049307EE904A46AB07912EAD069345AF26
:10236000824616AC5646B6F9021036F9040BFFF752
:1023700055F844F8040BA542F5D12DACA3465646BA
:10238000B6F96210B6F96000FFF748F84BF8040F91
:102390005F4506F10406F3D1069B049A15AE981822
:1023A000002154F8043F56F8042F9B1A4B4540F384
:1023B000AA83A3F5C9237E3B4B45FADC002BB8BFAB
:1023C0005B429942B8BF1946A74240F8043BE8D1A6
:1023D000059B491043F8041F0593049B6033049345
:1023E000079B0AF1C00A5345BBD1002017EE904A63
:1023F000089E0146034656F8042F8A42C8BF184675
:1024000003F10103C8BF1146082BF4D10EAB00EB5A
:10241000400153F82060069B0DF1B70203EB411118
:102420000DF1CF0051F8043BB342ACBF00230123B0
:1024300002F8013F90421376F4D1002001460123B7
:10244000002900F06B83EA5C002A00F05F83013012
:102450000133302BF4D1A0F10C03082B3FF63FAD34
:1024600001EB5000172802D918381728FCD880B281
:10247000820092B202F13005DDF84837ADB25F2D2F
:10248000188140F234852E4BA3FB05139B0903EB07
:102490004303A5EB43139BB200271546B8461A46E3
:1024A0000126264900922123234A2046FFF702FBFA
:1024B000214A2249009522232046FFF7FBFA0325F3
:1024C0001D4A1E49009601232046FFF7F3FA1A4AD7
:1024D0001A49009502232046FFF7ECFA164A1749DD
:1024E000CDF800802B462046FFF7E4FA124A134944
:1024F000009704232046FFF7DDFA0F4A0F490096A4
:1025000005232046FFF7D6FA00230B4A0B49009318
:1025100020460623FFF7CEFA20464FF47B71FEF7E4
:1025200009FE04460623002C7FF4E3ACBCE200BFA6
:102530000000002078DE000838DD00088CE7000885
:10254000ABAAAAAA3F240300C1DBFCFFFEF782FE70
:10255000079000283FF4C3ACD34EDDF84827D34D95
:10256000736CB2F87C700499A5FB03239D090022CB
:102570004FF440732046FFF74DFA46AB07FB05F7D3
:10258000089000F1020806930DF58A790DF2147592
:10259000B8F9001038F9020CFEF740FF49F8040FB3
:1025A0004D4508F10408F3D1002307EB47029A4692
:1025B000CDE92E33CDE93033CDE93233CDE93433B3
:1025C0000593D300069ADFF804832EAD02F15C096F
:1025D000AB464FF6FF7209955546DDF81CA00492F4
:1025E00007EE904A4C469946A4F15C00FEF734F899
:1025F000A4F1600C00205CF8043FDCF86020644526
:10260000A3EB02031844F6D10028C0F2B58280097A
:1026100040F6945303FB00F0400D07FB00F009EB7C
:102620001020CBF8000025B15BF8043C984280F004
:102630009484DBF80030A3F16673A3F54A33203BA2
:10264000002BB8BF5B42434505F1010238BFCDE91D
:10265000045A95B238BF9846082D0BF1040B04F1CB
:10266000C004C1D1059B099D17EE904A002B00F0D4
:102670007484DDF848378E488E4A19463727049B04
:102680004B8400938C4980F820700C2317EE900A3D
:10269000FFF710FA204640F21641FEF74BFD0028E6
:1026A00000F00382089B9FED856A2F461A4603F1CE
:1026B000C00403F5D86CF7EE006AA4F1C0034FF034
:1026C000000EB3F90200B3F9001000FB00F0043370
:1026D00001FB01019C428E44F3D107EE90EAB8EE73
:1026E000677AC034C7EE067AA445B1EEE77AC6EE43
:1026F000877AE7EC017AE0D1089B03F5C060069B7E
:10270000B2F90010F5EC015A06EE101AB2F90210F7
:1027100006EE901AB2F9601007EE101AB2F96210C4
:1027200007EE901AB8EEC66AF8EEE66AB8EEC77A17
:10273000F8EEE77A26EE256A66EEA56A67EEA57AD8
:1027400027EE257A26EE065A67EE075A26EE266A07
:1027500027EE277A66EEA66A67EEA77AC032904225
:1027600083ED005A83ED016AC3ED026AC3ED185A86
:1027700083ED197AC3ED1A7A03F10C03C0D10698E0
:1027800016A91022FEF788FD0446002800F08D816E
:102790009DED166A9DED175ADDED186ADFED484A8A
:1027A0009FED484AF1EEC67AB1EE007A26EE076A4E
:1027B00025EE057A26EE266AF6EE005A36EE476AD0
:1027C000C5EEA76AB1EEC67AB6EE086A77EEC67AAB
:1027D00026EE877A67EEA47A66EE856AB7EE005A2F
:1027E00037EE467A76EE856A77EEA57AB3EE0F6A13
:1027F00066EE846A27EE247AF4EEC67AF1EE10FAD9
:1028000076EEA56A37EE257A00F39D81F5EEC07A63
:10281000F1EE10FA48BF002340F12D84DFED2A7A53
:10282000F4EEE76AF1EE10FA40F397816FEA835312
:102830006FEA9353F3EE0F7AB4EEE77AF1EE10FA03
:1028400000F37E81B5EEC07AF1EE10FA48BF0022A7
:1028500040F118841343DDF84827A2F856300723C7
:10286000FFF747BBFEF7F6FC00283FF438AB102318
:10287000049900222046FFF7CDF8DDF84837B3F879
:102880005660002506F01F0EC6F3441CB60A00F180
:1028900002090EF1300E0CF1300C203E0495AB46CF
:1028A000A8462F461DE000BFAC000020D34D6210AB
:1028B0000000002038DD00088CE7000800004042DE
:1028C000000080420000004200007C4240420F00B5
:1028D0005B45474600F2958198460135082D00F08A
:1028E000658130F9252039F925300EFB02F203FB12
:1028F00006FA002A03FB0CF3B8BF3F32BAF1000F0F
:10290000B8BF0AF11F0A002BB8BF3F33921102EB88
:102910006A1243F38F1312B203FB03F302FB023379
:10292000BB42A9B2D9D94345D2D81F46D5E7FEF755
:1029300091FC00283FF4D3AA60230499002220468A
:10294000FFF768F846AB05460693871C99464FF09B
:10295000000840F6B73637F9281035F9280001FB92
:1029600001F300FB0033B34208F101087FF7B7AA77
:10297000FEF754FDB8F1300F49F8040BEBD1069B7C
:1029800045AD0DF1B6062946324603F15C0751F814
:10299000043F002BB8BF0F3302321B118F4213804C
:1029A000F5D10698FDF758FE002155F8043F2A6E30
:1029B000AF42A3EB02031944F7D1C34BC81783FB03
:1029C0000131C0EBA11000F5994330334CF662128F
:1029D00093423FF684AADDF848370DF1E601223331
:1029E00036F8022F23F8022FB142F9D1DDF848372B
:1029F00040F27B41A3F854002046FEF79BFB0446BF
:102A00000923002C7FF475AA4EE0FEF723FC002872
:102A10003FF465AA0022049920464FF49C631446B3
:102A20000DAEFEF7F7FF2EAF0EAA009201943346CB
:102A300046AA902134603C600E9416948046FDF7BF
:102A400013FD00283FF44BAACDE9007416AB46AA4B
:102A5000F02108F59070FDF707FD00283FF43FAA2C
:102A600039680E98994B9A4D32680194091A03FB04
:102A700001F305FB00F01B0CC3EB503305FB02F226
:102A8000DDF84807009605FB01F1520BC0E917126B
:102A9000836546AA0CAB40F21F1108F20230FDF725
:102AA000E3FC002840F077828A4E039B1B78FFF7F7
:102AB00019BA9FED897ADFED896A894B894A8A497B
:102AC00077EE877A002037EE877ABCEEE76ABCEEB5
:102AD000C77A8DED006AB8EE477A103F77EEC77A75
:102AE00016EE108A67EEA67AFCEEE77ACDED017A53
:102AF000B46B17EE905AA047EF2F3FF649AAD4E7E0
:102B000003F5C9237E334345FADB57E40B283FF630
:102B1000A2AC0133302B3FF4E2A910465A1E2A44DE
:102B2000591C12F8016F4B1E2EB112F8016C16B928
:102B3000194601208CE4302900F091820131F0E740
:102B40004FF4787286E6DFED6C7AF4EEE76AF1EE28
:102B500010FA4FF01F033FF769AEF5EEC06AF1EED1
:102B600010FA3FF567AEFCEEE66A16EE902A92B2D6
:102B700043EA82231BB25DE64042800940F694534B
:102B800003FB00F0400D07FB00F0A9EB1020CBF891
:102B9000000048E5C8F100081FFA88F8B8F11F0FD7
:102BA0003FF69DA948F02008FFF774BBB7EB9B0FD9
:102BB000BFF495A9DDF848374C4A1946049B0B84AD
:102BC00020464B4900930B23FEF774FF0023474A2E
:102BD0004749009320460923FEF76CFF7E23434AB2
:102BE0004349009320460A23FEF764FF204640F243
:102BF0005241FEF79FFA04462B46002C7FF479A938
:102C000052E7D84604919B4667E646AA3221204601
:102C1000FEF7D6F91223049900222046FEF7FAFEA9
:102C2000054600236F88BDF8180135F804EB9C4673
:102C30004FF6FF7640FA03F2D20799B20AD535F87B
:102C40001320D21B002AB8BF524292B2B2423CBFFC
:102C500016468C460133102BECD10CF1FF330D2BB3
:102C60003FF63DA90CF10043013B05EB430635F867
:102C70001330728841F287319B1A8B427FF72FA95C
:102C8000B388D21A8A427FF72AA94FF6FF73984277
:102C90003FF425A9DDF84837144AA3F800E0A3F86B
:102CA00002C01349CDF800C025232046FEF702FFDD
:102CB000204640F23221FEF73DFA04460223002C62
:102CC0007FF417A9F0E600BFABAAAA2AA82A04003D
:102CD000AA0A0100AC000020BD3706350024744963
:102CE00070140108201701084C17010838DD00088E
:102CF0008CE70008E8385BB500007C4277EEC77AC5
:102D00005FED046A1FED047ADDF8482767EEA67AC6
:102D10003F2F77EE877AFCEEE77A17EE901AA2F84B
:102D2000841000F21F81DDF8481700222F2F88BF82
:102D30003B46A1F88030A1F87E20A1F88220DDF882
:102D400048270498A2F87C7046AB2EAD4FF00008DF
:102D5000059906932A46C5F80080C3F80080FEF75F
:102D60002DF82046FEF714FA00283FF49EAE069B8D
:102D7000DFF82CB31B68DDF848A708EE104AC8F549
:102D800034640A349C4228BF9CB22F68C24B38BFBF
:102D9000A4B24FEA580903EB890062083946FDF7EF
:102DA000D3FEBAF87E301C22CDE9002341465B46B3
:102DB00022463846FDF7ECFE00283FF476AEBAF81E
:102DC00080201A23CDE9003241465B462246384630
:102DD000FDF7DEFE86464FF01B0C41465B46224661
:102DE0003846BEF1000F3FF460AECDF800C0BAF82F
:102DF00082C0CDF804C0FDF7CBFE86464FF0190C1B
:102E000041465B4622463846BEF1000F3FF44DAEC8
:102E1000CDF800C0BAF884700197FDF7B9FE0746F7
:102E2000049A18EE100A23464946002F3FF43DAE9F
:102E3000FEF7F0F9069B1B6898441FFA88F840F6E5
:102E4000493290459BD918EE100A40F25B11FEF70B
:102E500071F904460123002C7FF44BA824E6BEF14F
:102E6000000F3FF43CA8DDF8482785F0300393803D
:102E7000418C0693B0F880305B1AB3F5FA6FFFF619
:102E80002EA8864ADDF81CC04FEA034AA2FB0A3A84
:102E9000002522304FEA5A1A2F468B4610224FF651
:102EA000FF780AE0A64288BF4FF0000E013292B2CE
:102EB000402A554421D030F8021FA1EB0C03002B0F
:102EC000B8BF5B429BB20BEB1546434506F548790C
:102ED0003CBF98461746494501F54874E2D94FF082
:102EE000000EE3E79E457FF4CBA9FEF7F8BF03276A
:102EF0004FF001080026FFF7D4BA17EE904ABEF152
:102F0000000F3EF4ECAFDDF8482701234FF47E506C
:102F10005781ADF81801DDE9041217EE900A00930D
:102F200046ABFEF745FD5E4A5B49009726232046E7
:102F3000FEF7C0FD069B5A4A5749009320462423BA
:102F4000FEF7B8FD204640F2C521FEF7F3F804462F
:102F50000323002C7EF4CDAFA6E5524B372283F835
:102F60002020A2E5DDF84827DDF84817BF2F4FF0F5
:102F70000103A2F87E3096BFA7F14002FA08C2F31F
:102F8000CF0207F00703A1F88020A1F88230D6E62F
:102F9000D046FFF775B916AB01930EAB009346AA66
:102FA0000BAB4FF4907108F5A860FDF75DFA0028AF
:102FB0003FF47AADCDE90047234646AA08F5F06014
:102FC0004FF49071FDF750FA044600283FF46CADC1
:102FD000DDE90BE9D6F80080DDF858C00E983F68AF
:102FE0003149324A324BA7EB0C07A9EB0E06A0EB96
:102FF000080001FB06F102FB00F203FB07F305FBEF
:103000000EFE05FB0CFC05FB00F005FB08F805FBBC
:1030100006F6090C05FB07F5120CDDF848771B0CCA
:10302000C3EB5C33C1EB5E31C2EB5832C7E91D35EF
:103030003867C7E91A6279663846FDF7FBF9DDF8AB
:103040004837C3F888000A23FEF753BFFB1F172F2A
:1030500088BFC3F120023FF61DA8FFF718B8A0F102
:103060000C03082B3EF63BAF4008FFF700BA46AB17
:103070000693FFF735B8FCEEE77A17EE903A1BB2ED
:10308000FFF7CCBBFCEEC77A17EE902A42F30A0298
:103090005201FFF7DFBB00BF8CE70008ABAAAAAA6A
:1030A00038DD00080000002054150200A64A070081
:1030B0004E750B002DE9F04F2DED0C8B8246A5B01F
:1030C00090F84E4090F84C000D90042CBAF848004F
:1030D0000A900891904699461AD8DAED107AF5EEE2
:1030E000C07AF1EE10FA00F1EF819AF85630DFF86D
:1030F000C0B0002B00F0F1819AF84B30002B00F0AB
:10310000EC81274ADBF8383026490020984707E051
:10311000DFF89CB0244ADBF8383022490020984779
:10312000DAED117A9BED117AF5EEC07AF1EE10FA34
:10313000B8EE478A40DDC8EE278AF6EE007A78EED0
:10314000A78A0A9B002B3CD107939AF84A30019337
:10315000002B3ED19AF85030022B41F023819AF88F
:103160004E40012C00F0C78200243A9A019B147152
:10317000A8F8AC41002B32D09AF84F30012B00F068
:103180004587022B00F03187002B00F04D87DBF8DC
:103190003830064A034900209847002301931EE077
:1031A000A41701087C1701086017010860180108BE
:1031B000AC000020000000000A9B5FED028A002B9B
:1031C000C2D09AF84E3007939AF84A300193002BF8
:1031D000C0D03A9A002313710193A8F8AC31089C2F
:1031E000002C4AD02389B4F88210B4F88020B4F8B7
:1031F0007E00A8F804109B00B4F88410A8F8022000
:103200009BB203F13002A8F800006088A8F806100D
:10321000A188A8F8080092B2E088A8F80A1061898D
:10322000A8F80C005F2A208CA8F80E10618CA8F872
:103230001210A8F8100040F22582C949A1FB020132
:10324000890901EB4101A2EB411189B200201A4624
:1032500005460B4601210324A8F814300023A8F8E2
:103260001620A8F81810A8F81C50A8F81E00A8F8F6
:103270002010A8F81A40A8F8223001990022012352
:10328000A9F80220A9F80C20A9F80A30002901F0B9
:10329000508015460692049209F10E0308F13E0291
:1032A0009FEDB0AADFEDB0AADFEDB09A9FEDB09A26
:1032B000CDF808A0564608F1460709929A46CDF87F
:1032C0001480CDF80CB0079AEBB29A4200F25C8100
:1032D000099A0023AAF80030AAF8083022F815301D
:1032E0000135042D0AF1020A06F1100607F156070E
:1032F000E9D10A9AB9F80C10B9F80A30DDF814804F
:10330000DDF80CB0DDF808A011FB02F189B20B4426
:103310009BB2BDF8182002925F1CBFB2B8F8ACC1D6
:10332000BCF1010F04D1049A0A9800FB02F2049246
:103330009AF85220BAF854009AF853509AF8564026
:10334000A8F89E21049A4FF6FF7E72454FEA500678
:1033500028BF72460338A8F8A801033E0298A8F8CF
:10336000AA6185F0010592B2A8F8A651A8F8A001BB
:10337000A8F8A421A9F80C10A9F80430A9F806703F
:10338000002C00F05E8141334021A9F80030A9F8FB
:1033900008100124089BA8F8C04113B19B89A8F824
:1033A000C231019B002B40F057813A9ADAED105A56
:1033B000002313600D9BA8F8B2310A9B012B40F249
:1033C0004581BAF848300122023BA8F8AE31A8F88E
:1033D000B0219FED687A9FED686A28EE077AF1EEDA
:1033E000007A68EE277AC7EE066A87EE867AC8EE1C
:1033F000067AB6EE006A76EE866A37EE067AFCEE5C
:10340000E66A77EE867ABCEEC77A16EE903AF5EE6B
:10341000405A17EE102AF1EE10FAFCEEE77AA8F8FF
:10342000B83114BF01230023A8F8B621A8F838301A
:1034300017EE902A019BA8F8B421002B00F0ED8034
:10344000F5EE405AF1EE10FA0CD0C8EE257A37EEC0
:10345000866AFCEEC67A17EE903A1A0CA8F83C3051
:10346000A8F83A20DAED117A9AF84A309AF84B2007
:10347000A8F83030F5EE407AF1EE10FA14BF0123CF
:103480000023A8F83220A8F82A3008D0FCEEE87A09
:1034900017EE903A1A0CA8F82E30A8F82C209AF8BB
:1034A00051300198A8F8BE31012140F2FF7240F678
:1034B0000103A8F82410A8F8BA21A8F8BC3125B057
:1034C000BDEC0C8BBDE8F08FDFF8B8B02B4ADBF811
:1034D00038302B490020984722E69AED117ADBED2F
:1034E000116AB5EEC07AF1EE10FAB8EE668A16DD12
:1034F000C8EE078AF6EE007A78EEA78A00F1F4802B
:1035000018EE900A06F00EFC012908BF002880F092
:10351000EB809AF84A30002B40F0DD8008E000F1A3
:10352000E1809AF84A30002B40F0C880DFED0F8A26
:103530009AF84F109AF850200A98002814BF204695
:1035400000209142079000F27D83002B40F03687E7
:10355000022A00F02F873A9A1371A8F8AC310BE6D3
:10356000ABAAAAAA2549123ECDCC4C3E00000000D1
:103570008FC2753D000096430024744990170108DE
:103580007C170108AC000020099A012322F81530AD
:10359000029B328993F84C300B93184640F2FF118E
:1035A00040F2FF33002818BF0B46C2B19A4216D82A
:1035B000737B002B6AD1F37BB07B002840F06982DB
:1035C000012B00F0AF80DDF80CB04E4ADBF838304C
:1035D0004D49DDF808A0DDF8148098470BE0DDF8D0
:1035E0000CB04A4ADBF838304749DDF808A0DDF86E
:1035F0001480002098470A9AB9F80C10B9F80A30DC
:1036000011FB02F189B20B44BDF8182002929BB263
:103610005F1C0022BFB2019280E6DAED117A9AF8BF
:103620004A309AF84B20A8F83030F5EE407AF1EEA7
:1036300010FA14BF01230023A8F83220A8F82A307A
:103640002DE7A9F80840A9F80070A3E60023A8F820
:10365000AE31A8F8B031BCE69AF84D10072925D84C
:103660002B4BDFED2C9A0B4493F8F43AA8F8A231D7
:103670003A9BC3ED009A079B002B40F0E283DAED02
:10368000105A97E6032001250021E4E5F37B022B85
:1036900092D1DDF80CB0204ADBF838301A49DDF859
:1036A00008A0DDF8148000209847A4E73A9ADAEDE4
:1036B000105A00231360002301937BE6B5EE407A95
:1036C000F1EE10FA05D1F5EE407AF1EE10FA40F085
:1036D0001B85DFED108ADBF83830104A0A490020DC
:1036E00098472EE5DFED0B8ADBF838300C4A0649A7
:1036F0000020984725E59AF80F30013B012B3FF653
:1037000034AD31E5DC1801087C170108A018010868
:1037100068D4000800000000B0180108E417010890
:10372000D0170108BB4BB6F80680B6F804B003EB1F
:103730008000B8F1180FD0F8D03A0E9340F2B28260
:1037400008EB880303EB031303EB032308EB4303AA
:10375000C3F3CC0242EA43339BB240F6AA2293421F
:1037600000F25E82AC4BA3FB08231B090F93013BC5
:103770009BB215935C23119318230C93BBF1000F9C
:1037800040F0AB82039BA54A9B6BA54958469847DE
:103790000B9B002B00F0548200230B930222336812
:1037A0000E99194401F5C3430C461BFB02F2283362
:1037B0004CF250310BF1FF3092B28B420E9208FB6B
:1037C000004807D9039B974A9B6B9549002098476F
:1037D00000230B9308F5C34328334CF25032934235
:1037E00007D9039B904A9B6B8D4900209847002383
:1037F0000B93002CC0F21A838C4BE11783FB043B24
:10380000C1EBAB0B0FFA8BFBB8F1000FC0F20383D7
:10381000864B83FB08304FEAE873C3EBA00000B28D
:10382000824A1FFA8BFB82FB042CA0EB0B00C1EB3E
:10383000AC010F9A1FFA80FC01EB4101BCFBF2F2D4
:1038400001321FFA82FEB4EBC10102B216924FF0B0
:1038500018000C9AB0FBF2F000F1D6820FFA81FC4E
:1038600089B2724A82FB08240C9AC3EBA40303EBCF
:103870004303B1FBF2F402FB1414A2B2B8EBC3038E
:103880000F9200F1BB821AB219929BB2013882B238
:103890000F9C0C981A9212FB0040BEF1010F80B2EF
:1038A00000F0EC81C41A0F9B18BF01248B4214BF97
:1038B00001230023AEEB0302A2EB0402A3B2129495
:1038C0001FFA82F8179340F0E181002318931493B4
:1038D0001B930F9B9B00FB870B9B8900B987002BD9
:1038E00000F0C581B37B052B00F2BD83494A02EB92
:1038F0004303B3F8E43A5A08A3F14A00D91E033A45
:1039000080B2143B92B289B210901393109BB98687
:10391000CBF129041C44169BFA860FFA84FBABEB0F
:103920000303292BA4B207DC039B414A9B6B3C4950
:103930000020984700230B93139B9B4507DB039BB9
:103940003C4A9B6B36490020984700230B93109B01
:103950003B87119B7C872C2B40F2EB810023A7F83F
:103960005030A7F85230A7F85430159BA7F84E30C6
:10397000189BA7F84830B8F1000F00F0BE81012372
:10398000A7F84A30149B179AA7F84C20002B00F098
:1039900091831B9BA7F842301A9BA7F84430129BD7
:1039A000002B00F07C83199B0F9A9C1A0C9B94FBB4
:1039B000F3F4A7F8464008F1FF321FFA82F80B9B98
:1039C000A7F84080002B5DD0B37A172B00F242811C
:1039D000092B00F22F83C3F1090315227B803A8063
:1039E000089A002A00F07E837B8802EB43039B89C0
:1039F000F07BBB801CA9FDF793F960BBDDF80CB030
:103A0000DDF81480DBF838300B4A0549DDF808A0F2
:103A100014E000BF68D40008ABAAAAAA28190108BC
:103A20007C1701087419010888190108ABAAAA2A91
:103A3000BC190108DC19010804190108984756232C
:103A400003FB0583BDF88C10BDF88E20A3F8701021
:103A5000A3F86E20CFE5BDF88440BDF88C307B859F
:103A6000082CBDF88E303B850CD8BDF88630072B6E
:103A700008D8BDF888C0BCF1080F03D8BDF88A206B
:103A8000082A18D9DDF808A0DDF81480DDF80CB09C
:103A9000B1E5581EC0B204287FF644AEDDF80CB084
:103AA000AB4ADBF83830AB49DDF808A0DDF814800C
:103AB000002098479FE5012101FA03F3501E013BC6
:103AC0009BB201FA02F201FA00F03C81013A9C013A
:103AD00001385B0240023B829201029B7882A7F888
:103AE0000AC0BC81FA819DF8700093F84D30209394
:103AF000002800F08280DDF874B0BBF1000F7CD0AC
:103B0000022B7CD8944A134493F8F03ABB82089B6A
:103B100023B307F114031A460B9300233B8311824E
:103B20002EE18D4A134493F8F43ABB82089BABB163
:103B300000233B8307F114031A460B93002840F03F
:103B400017810B9BB8847883F8821881D8810B9AEF
:103B50000023538100233B840B9A53823089F27AED
:103B60003A86012858D00121831EF985BB85717BD7
:103B7000B9F80C30F98081F0010179860E99AAF824
:103B80000030AAF808100B44F17BA9F80C30012989
:103B90003B8D2FD002290CBFB0EE496AB0EE696AA6
:103BA00001339BB207EE103AB388B8EE477A07EEBE
:103BB000903AF1EE006A27EE267AF8EE677A06EE82
:103BC000900A67EE277AF8EE666A069B67EEA67A99
:103BD000194667EE867A002B08BF114667EE8A7A8F
:103BE000049B0691FCEEE77A17EE902A13440493A7
:103BF000FFF776BBB0EE6A6AD2E7072B91D9DDF802
:103C00000CB0564ADBF838305249DDF808A0DDF830
:103C1000148000209847EEE40023FB85BB85A6E7CF
:103C2000039B4F4A9B6B4B490020159004469847D5
:103C300001230C930F930B9B1194002B7FF4ACADDD
:103C40000422ACE5DBF83830464A42490020984768
:103C5000FFF77BBADDF80CB0434ADBF838303D495A
:103C6000DDF808A0DDF8148000209847C3E46C2339
:103C70001393362310933D227D2147E68C4200F0BA
:103C8000218300221792184690461292019B1493AA
:103C9000A0EB0C000C9B90FBF3F00123189383B274
:103CA0001B9316E6B8F1000FBAD01823B3FBF8F354
:103CB00008FB03F3C3F118039BB21593002BAFD19C
:103CC00008F1FF339B009BB211930123CDF83080A4
:103CD0000F93BBF1000F3FF455AD0B9B002B40F051
:103CE000FE81337B002B00F01A82039B1F4A9B6BE3
:103CF00018490B989847042251E5179BA7F84C30B8
:103D0000149BA7F84A80002B00F0D1811B9BA7F8D9
:103D100042300023A7F84430129B002B00F0C381EF
:103D2000199B0F9A9C1A0C9B94FBF3F4A7F846403E
:103D300045E6119B1E2B40F2A581A3F11E020F2325
:103D4000A7F85420A7F85030A7F852300DE600BF6E
:103D5000041901087C17010868D400080C1A01082E
:103D60001419010810180108F41901083C19010878
:103D7000DDF874B001231382BBF1000F00F0B182B3
:103D8000089BDDF87CC0D3F860E00C90D3E919847F
:103D900000210B46204608EB1142A2EB0E026245C1
:103DA0009CB2014403F1010380F28A820F2BF2D10D
:103DB0000C981C46089BD3F878C0D3F874E00B9B92
:103DC0000CEB8C01DC8005220EEB1143B3EB0B03F3
:103DD00002F10104614440F1C581A2B2142AF3D179
:103DE000DDF80CB0CF4ADBF83830CF49DDF808A059
:103DF000DDF8148000209847FFF7FDBB03F118049D
:103E000022B2A3B2199241E501F1180C1FFA8CF10C
:103E10000FFA8CFC25E5C54B6FEA0800A3FB0030C8
:103E20006FEA101000B24FEAE873F9E4BF4B6FEA93
:103E3000040BA3FB0B3B6FEA1B1B0FFA8BFBE11779
:103E4000E2E4BCF1010F00F04F8107EE902ADFEDB4
:103E5000B8AAF8EE67CAF7EE089AB2EE02DADBED1E
:103E6000117A9FEDB40AB8EE67AA80EE0A0A06F04E
:103E7000BFFF9AF85030022B2AEE00AA00F21E81F2
:103E8000AD4A9AF84E1002EB8300D0ED00DA90EDC7
:103E900003CA002900F07982DDF804909FEDB09A02
:103EA000A64FDFEDA7BA9FEDA7BA002635463AE048
:103EB00032F8133007EE903AF8EE677A8AEE277AF6
:103EC0005544A31CB5F808C0A8889AF84E105A00AB
:103ED00093B20CFB0333023304EB44045B00A400F5
:103EE0009BB287EE0B6A1834A4B20136F5B2A94230
:103EF00007EE903A07EE104AF8EE677AB8EE477A86
:103F0000C7EE866AC7EE065A07EE900AF8EE677AA1
:103F100066EEA77A77EEA57A77EEAA7A77EEA97A97
:103F200039EE279A21D90AEB05131CA9D87BFCF797
:103F3000F7FE2D017C493A46044618B9DBF83830C3
:103F40009847A1460AEB05037F4A9B7BBDF88E404C
:103F5000052BADD9DBF838307C4A734900209847EF
:103F60004FF00009F0EE6B7AA8E7B9F1000F36D0F8
:103F7000DFED777ADFED736A9FED767ADAED105A2E
:103F80003A9B8AEE275AF1EE0C7A85EE266A6CEEA1
:103F9000A7CA3CEE2DCACCEE867AB0EE006A37EEA8
:103FA0008DDA3DEE099A39EE0C9A69EE077A77EED2
:103FB000867A37EE899AC6EE897AF4EEE75AF1EE00
:103FC00010FAC3ED007A7FF7F5A9FDEEE77ADBF88A
:103FD0003840614A544917EE903A0020A047002328
:103FE000DAED105A0193FFF7E5B90023A8F826305F
:103FF000A8F828309AF85030012B10D0022B2BD083
:1040000013B3DBF83830554AFFF7C4B80022A8F8DC
:104010002630A8F828209AF85030012BEED1C8F8A5
:1040200034300193FFF7DBB80123A8F82630A8F855
:104030002830DFE7102B94BFC3F11E03C3F1170331
:1040400000223B807A80CBE44FF00113C8F8343073
:1040500001230193FFF7C3B80023C8F834300123CC
:104060000193FFF7BCB8039B384A9B6B2E49002095
:1040700098476C2313933623109300233D227D2110
:104080000B9343E4119B0F2B35D90F3B0F22A7F85D
:1040900052300023A7F85020A7F8543065E4129B53
:1040A000A7F8463087E4129BA7F8463087E4A7F8C4
:1040B00042802EE6149BA7F842306DE4DBF83830DE
:1040C000264A1949002098479AF84E30002B86D08E
:1040D0009FED23CA4FF00009F0EE4CDADEE6022233
:1040E000FFF75DBB089B83E4F0EE69AAB0EE69DAE6
:1040F000F0EE69CAB3E60023119AA7F85020A7F89A
:104100005230A7F8543030E49AF84F109AF8502003
:10411000DFED138A91427FF4DEAAFFF70DBA019B0F
:104120000B938DE52C1A01087C170108ABAAAAAAEB
:104130009A999D41F902154F64DF0008041901089E
:1041400000000043002474494CDF0008B019010846
:10415000000020430AD7233C581A010880180108A0
:1041600000000000052A0AD0511E89B20CFB01FC98
:104170000EEB1C4CABEB0C04A342C8BF0A461E9BC3
:104180000B990C93B3F5167F4A80C0F0D980089B39
:10419000D3F86C800C9BA3EB0801B1F5C87F40F30A
:1041A000F78000234FF4C8741A46023204FB02F26F
:1041B000914203F10103F7DC0B9CBBF1000F14BF2C
:1041C000012100214FF0010C2181A4F80EC000F064
:1041D000A1800C9A4FF4C87000FB1320089A0024A9
:1041E000D2F870E0224602E0162A3FF4F9AD08EB5F
:1041F0001441091A1FFA82FC744402F10102F3D43B
:10420000BCF1000F0AD00CF1FF3294B20EFB04F2A5
:1042100008EB1242821A9142C8BFA4460B9AA2F838
:104220000AC0002B00F09880BBF1000F18D0089C4A
:10423000B7F81AC0A26E616E02FB0CFC226E01EB95
:104240001C4CBCEB020C3FF5CBAD089AFC8A916F7D
:10425000526F01FB04F102EB114101EB0C0210441F
:10426000089A0024D2F858E0D2F85C80224602E096
:10427000162A3FF4B5AD0EEB1441091A1FFA82FC61
:10428000444402F10102F3D4BCF1000F0ED0BBF1A3
:10429000000F0BD10CF1FF3292B208FB02F80EEBCB
:1042A0001848A0EB08084145C8BF9446A7F820C0AD
:1042B000002B3FF451ACDA1D012393409BB24BE439
:1042C0000C9877E598420CBF4FF001084FF00008BA
:1042D00056D10023CDE91733129314931B93FFF7A4
:1042E000F8BA1E9A0B990C92B2F5167FA1F806B097
:1042F000A1F802B039D3089AD2F86C800C9AA2EBDC
:104300000801B1F5C87F3FF74CAF0B9AD381A2F8F3
:1043100008B05B460B9A4FF0000BA2F80AB00028D9
:104320003FF418AC43B30C9A4FF4C87000FB132051
:1043300096E7019A0292022711460492FEF7EEBF19
:104340000B9A00231381D38100283FF400AC089A14
:104350000C98D2F86C8041E7BBF1000F0CD0FA8BBF
:104360000EFB02F208EB124061E70B9BA3F808B0CA
:10437000A3F80EB0A3F80AB000230C989B466FE791
:10438000002217921846129280E41FED8B9AEFE5F7
:10439000BBF100030B9918BF012301220B81CA81D5
:1043A000002316E73A9B1A46019B1371A8F8AC311B
:1043B000FEF715BF01230193FEF7D3BE3A9A0023FF
:1043C0001371A8F8AC31FEF7D7BE00BF70B5FEB0D0
:1043D00004464FF4E2720D460DA8002103AE08F02A
:1043E00004F90DAA204605AB00960021FEF762FEF7
:1043F00008B97EB070BD94F84B202B46314605A815
:10440000FCF7F0FCF5E700BF10B58EB00C46FDF7E9
:1044100075F830B16946FFF7D9FF10B1BDF800302B
:1044200023600EB010BD00BF08B5144B9FED140AF9
:104430002DED028B93ED118AB8EE488A08EE900AB2
:1044400080EE080A06F0D4FC28EE000AB3EE088AD3
:1044500020EE080AB7EE007AC7EE007AF8EEE88A96
:104460009FED087A67EEA87ABDEC028B67EE877A3B
:10447000B6EE000A27EE800A08BD00BFAC0000209F
:10448000F902154FC2F38E4D2DE9F0472DED028B49
:10449000DFED917A90ED150A82B080EE270A04468E
:1044A00006F008FCA56CFDEEC07A17EE909A25B1D7
:1044B0008A4B2A689A4200F0A780894B894A9B6BF5
:1044C000894900209847A56C4846FFF7ADFF94F84E
:1044D0004C3084ED100A002B40F0998094F84E6027
:1044E000E84625B17D4B2A689A4200F08B807C4BD0
:1044F0007C4A9B6B7C490020984794F84D30267489
:10450000002B40F0B280B4F850A0A56C1DB1734BE5
:104510002A689A4273D0724B724A9B6B7249002090
:104520009847A56CA4F80AA05046FFF77DFF4846BF
:1045300084ED110AFFF778FFD4ED167AF4EEC07A15
:10454000F1EE10FA03DDBAF1000F40F09B80012775
:104550001DB1624B2A689A424FD0614B614A9B6BF6
:10456000614900209847A56C604B0093781E0AFBB8
:1045700000900128B8BF012040F20453A78180B207
:10458000ADF80430FFF750FF013E18BF01269FED44
:10459000587A584AB04418F8013B052B02EB8301C6
:1045A00094BFD1ED007AF0EE477AB4EEE70A013617
:1045B000F1EE10FAF6B202D4062EECD105231DB1AD
:1045C000464A2968914216D0454B464A9B6B46495C
:1045D0000020984794F85C304BB1A06C9FED440AE2
:1045E00002B0BDEC028BBDE8F047FCF79FBF94ED35
:1045F000050AA06CF4E7AB74ECE72F81B4E7A5F8EB
:104600000AA08FE7EE7478E7C5ED017A5CE73A4BD4
:104610000093484605238DF80430E846FFF704FF71
:10462000364F9FED337A41460DF10500012611F812
:10463000012B531EDBB2042B07EB830398BFD3ED92
:10464000007AA2F1020388BFF0EE477A032B94BFF1
:1046500077EEA77AF0EE477AF4EE407AF1EE10FAB0
:1046600098BF16468842E2D13BE7731EDBB2042BAB
:1046700002D94FF0010A48E7214A02EB4303B3F89D
:1046800028AB42E707EE10AA94ED156ADFED126A37
:10469000B8EE477A77EEC67A27EE267A87EE878AD3
:1046A000B0EE480A06F0A4FBDFED167A70EE277A2A
:1046B000B4EEE78AF1EE10FAC4BFF7EE007A30EEFE
:1046C000270AF7EE007A30EE270ABCEEC00A10EE99
:1046D000103A9FB23CE700BF0AD7233B0FB0371315
:1046E000AC000020E81201080013010800010203D9
:1046F000000000009CDF0008010203047CDF0008CA
:1047000068D40008ACC5273738B5524B93F824203D
:104710000021012A83F8481000F08D805A68532147
:104720000225CA20012483F8255083F824405062D2
:104730005162916821F480619160D168C9B261F4DD
:104740009061D160D168490664D51F21516191689B
:10475000414821F0070141F003019160016841F4F3
:1047600080110160816841F480118160916841F499
:10477000804191609168FF2441F480610120916043
:10478000546283F8250093F84810002283F824200F
:1047900000295BD172B6BFF34F8FBFF36F8F93F8D1
:1047A000482002B930BF62B6BFF34F8FBFF36F8F9F
:1047B00093F84820002AEDD093F824200021012A04
:1047C00083F8481037D05868532201240225CA21A3
:1047D00083F8255083F8244041624262826822F4C3
:1047E00080628260826822F4804282601C6804E0F9
:1047F0001968091BB1F57A7F1FD8C26812F004024C
:10480000F6D0FF2401220021446283F8241083F8AB
:10481000252038BD1C68D16811F0040195D11868B5
:10482000001BB0F57A7FF6D9FF240320546283F889
:10483000241083F8250005F061F9FF240321446268
:1048400083F8242083F8251005F058F983F84820D0
:10485000B9E700BFAC00002000040140154BDB6845
:10486000C3F3022310B4C3F107041A1D042C28BF9C
:104870000424062A4FF0FF3202FA04F28CBF033BF5
:10488000002321EA02019940431C0AD000F1604054
:1048900000F561400901C9B280F800135DF8044BCE
:1048A0007047044B0901C9B283F823105DF8044B2B
:1048B000704700BF00ED00E02DE9F047724CD4F8DE
:1048C00070C088B0BCF1000F5CD1236DB3F5827F5E
:1048D00001D0C4F868C094F8A930E16C002203F05C
:1048E000FF056267002B59D0022384F8A9300B68BA
:1048F000A26D23F04003B2F5E06F0B6046D800F0E4
:10490000B9804FF4805700206067D4E91436E56D14
:10491000D4F864E006F4044603F48273334305F0EC
:1049200002052B43256E02F4706805F00105D4F8EA
:1049300080202B43D4E91A6502F0080242EA0802FB
:104940004FEA1E480EF4007E08F0040843EA0E0306
:1049500006F0380642EA0802334305F080050CF001
:10496000100C42EA0C0C2B4303434CEA07070020CF
:1049700001220B604F60C4F8AC0084F8A92008B095
:10498000BDE8F0870023C4E91733A4E7B2F5706FE0
:1049900076D1636F002703F40050B6E73B4B84F8F1
:1049A000A8509942CDE90355CDE9055507959BD10E
:1049B00003F560434FF0E00C1A6E354E42F480521E
:1049C0001A661A6E02F480520292029ADA6C42F06F
:1049D0000102DA64DB6C059503F001030193032205
:1049E000052303A902274FF09040CDE903C7CDE985
:1049F0000623DDF804E004F037FB264BC4F8B8507A
:104A00004FF001094FF0800A30464FF480784FF4A0
:104A10008067C4E92C39C4E93355C4E930A8C4F827
:104A2000BC50C4F8C870FBF74FFC034650BB06F1FE
:104A300048051949C4F8A4601022643E2846C4E918
:104A4000413AC4E94473C4F8FC90C4F80C81C4F83A
:104A50001831C4F8D860C4F8F810C4F80021FBF786
:104A600033FC78B9E16CD4F870C0C4F8A050C4F835
:104A7000206139E7636F4FF4805703F4005044E737
:104A8000002740E705F03AF8AC0000200030014074
:104A90005C0100201C000240300002402DE9F04182
:104AA000654C94F82430012B00F0C280616801222B
:104AB000022384F8242084F825308E680278056A61
:104AC00016F0400616BFC678C670B605092A09D981
:104AD00000230A3AD2B2092A03F10103F9D842EAC3
:104AE0000312D2B24378092B4FEA024209D90027B8
:104AF0000A3BDBB2092B07F10107F9D843EA071398
:104B0000DBB290F802E0BEF1090F4FEA03280DD99D
:104B10000027AEF10A0E5FFA8EFEBEF1090F07F113
:104B20000107F6D84EEA071E5FFA8EFE90F824C001
:104B3000BCF1090F0DD90027ACF10A0C5FFA8CFC0F
:104B4000BCF1090F07F10107F6D84CEA071C5FFA20
:104B50008CFC436947681D432E43324348EA0203F5
:104B6000826AC669CA2553204D6243EA0E0E486226
:104B7000B2F5807F4EEA0C638A6846EA070639D0B0
:104B800022F400728A60CA68D2B262F42072CA60EB
:104B9000256804E02068401BB0F57A7F20D8CA68F9
:104BA00012F00202F6D00B628E648B6843F400733D
:104BB0008B608B6843F400538B60204B1A6842F47F
:104BC00080221A609A68FF2642F480220125002084
:104BD0009A604E6284F8240084F82550BDE8F08184
:104BE0000323FF2084F824204862184684F82530E7
:104BF000BDE8F08122F480728A60CA68D2B262F4A1
:104C0000C072CA60256804E02068401BB0F57A7F56
:104C1000E6D8CA6812F00102F6D0CB614E648B6808
:104C200043F480738B608B6843F480538B60C4E7DC
:104C30000220BDE8F08100BFAC000020000401406C
:104C400008B5114BDA6822F08002DA609A689206A1
:104C500003D4FBF78FFB88B908BD9A6822F02002C5
:104C60009A60FBF787FB18B1084B032083F82500F7
:104C7000054A936843F02003936008BD034B03206B
:104C800083F8250008BD00BF00280040AC000020CC
:104C90000E494A68D06810F0400001D000207047EB
:104CA0004FF0FF3330B4D3600C68032509E00328CC
:104CB0000AD00B681B1BB3F57A7F84BF81F825509F
:104CC0000320D3685B06F2D530BC7047AC000020EF
:104CD0001C4991F82430012B32D030B44C68532356
:104CE00001200225CA2281F8255081F82400626241
:104CF0006362A36823F48073A360A36823F48053E2
:104D0000A360086804E00A68121AB2F57A7F0DD829
:104D1000E36813F00103F6D00020FF220123626252
:104D200081F8240081F8253030BC7047FF20032231
:104D3000606281F8243081F82520104630BC70472D
:104D400002207047AC000020024B034A9B6B0349D2
:104D500000201847AC000020781A0108881A0108C2
:104D6000024B034A9B6B034900201847AC0000200C
:104D70009C1A0108881A010838B5002800F0B5808F
:104D8000744D0368AB42044616D0FFF7E9FF236871
:104D9000AB4213D0FFF7E4FF2368AB4210D0FFF71C
:104DA000DFFF2368AB420ED0FFF7DAFF2368AB4288
:104DB0000CD0FFF7D5FF0CE0674B4365674BA3654D
:104DC000012384F84D30012384F84C30A06CFBF7AC
:104DD0006DFC604B22689A4256D0FFF7C1FF5D4BD5
:104DE00022689A4200F0AE80FFF7BAFF594D23685F
:104DF000AB4256D0FFF7B4FF2368AB4253D0FFF766
:104E0000AFFF2368AB4251D0FFF7AAFF2368AB4244
:104E10004FD0FFF7A5FF2368AB424CD0FFF7A0FFB0
:104E20002368AB4249D0FFF79BFF2368AB4246D0D3
:104E3000FFF796FF2368AB4243D0FFF791FF23684B
:104E4000AB4240D0FFF78CFF2368AB423ED0FFF768
:104E500087FF404D2368AB423BD0FFF781FF2368BB
:104E6000AB4238D0FFF77CFF2368AB4235D0FFF769
:104E700077FF2368AB4233D0FFF772FF2368AB4262
:104E800030D0BDE838406BE7A36C1BB1344A1968D9
:104E9000914255D0334B344A9B6B3449002098479C
:104EA0009DE7334B6361012384F85C30012384F870
:104EB0005D300123A3742F4BA3612F4BE362264B7C
:104EC00063630123E3744FF07E53E3614FF07C533F
:104ED00023622A4B63622A4BA3624FF08043A36391
:104EE0000323E3810023637438BDFFF739FFFFF725
:104EF00037FFFFF735FFFFF733FFFFF731FFFFF70E
:104F00002FFFFFF72DFFFFF72BFFFFF729FFFFF71D
:104F100027FFFFF725FFFFF723FFFFF721FFFFF72D
:104F20001FFFFFF71DFFFFF71BFFFFF719FFFFF73D
:104F300017FFFFF715FFFFF713FFFFF711FFA0E7BC
:104F400020229A81A06C1021FCF706FB10232381FC
:104F50004CE700BF02B137139A99993E00002040F8
:104F60000FB03713AC000020E8120108001301084D
:104F7000000040416666A63F9A99193E0000C04075
:104F8000CDCC4C3E10B1024B1B6B1847704700BF95
:104F9000AC000020A0B110B50446C06D18B1FFF7F9
:104FA000F1FF0023E365206E18B1FFF7EBFF00234C
:104FB0002366606E18B1FFF7E5FF0023636610BD3E
:104FC000704700BF70B5B1492DED068B054640F224
:104FD00003126820FCF7F6FD0446002800F0F68076
:104FE000AA6BEB6B95ED0B0A95ED038AD5ED0D8A57
:104FF00029692888AE88A2626A69E362EB886381C6
:105000006B7A2373AB7A6373B5EEC00AEB7AA37342
:10501000F1EE10FA9E4B84ED048AE080A680616177
:10502000A261C4ED098A236008DD28EE000AFFEEC4
:10503000007A87EE800A05F04BFF01E09FED950AAC
:10504000D5ED0C7A84ED070AF5EEC07AF1EE10FA90
:1050500040F3C58068EE277ABFEE000A80EE270A8B
:1050600005F036FF6B8884ED080A002B40F0CA80FB
:10507000F7EE007AB6EE007A77EE877AB5EEC08A60
:10508000FCEEE77AF1EE10FA17EE903A238140F247
:10509000A98095ED070AB5EEC00AF1EE10FA00F10D
:1050A000A18095ED089AB5EEC09AF1EE10FA00F1E4
:1050B0009980D5ED069AF5EEC09AF1EE10FA00F15E
:1050C000918095ED09AAB5EEC0AAF1EE10FA00F1B3
:1050D0008980D5ED0AAAF5EEC0AAF1EE10FA00F12A
:1050E0008180F0EE480AFCF7B1FEF0EE480A84ED4C
:1050F0000C0AB0EE490AFCF7A9FEF5EEC09AF1EEF3
:1051000010FA84ED0D0A40F3BE8068EE299ABFEED6
:10511000000A80EE290A05F0DBFEB5EEC0AAF1EE2A
:1051200010FA84ED0E0A40F3AB8028EE0AAABFEE17
:10513000000A80EE0A0A05F0CBFEF5EEC0AAF1EEF9
:1051400010FA84ED0F0A40F3988068EE2AAABFEEA9
:10515000000A80EE2A0A05F0BBFEF5EEC08AF1EEE9
:1051600010FA84ED100A40F3858028EE288ABFEEFD
:10517000000A80EE080A05F0ABFE2C2043496F229E
:1051800000FB06F084ED110AFCF71CFDA3883F49E3
:10519000E06570229800FCF715FDA38820663B4966
:1051A00098007122FCF70EFDE36D6066002B55D070
:1051B000236E002B52D0002850D000230022A3647D
:1051C000E3642365A265A4F8542004E0324B334A1B
:1051D0009B6B2E499847BDEC068B204670BD9FED1A
:1051E0002D0A3FE72C4D2E4AAB6B284900209847EB
:1051F000AB6B2C4A2549002098472046FFF7C2FE9A
:105200000024E8E72A7ADFED287A013AD2B2042AAC
:1052100007EE103A94BF25499FED1E6AB8EE477A13
:105220009CBF01EB820292ED006A27EE277AF7EE2F
:10523000006AC6EE077A07EE106AF4EE667AF1EEBF
:1052400010FAB8EE477A98BFF0EE667AB4EE677A55
:10525000F1EE10FA48BFF0EE477A0BE70E4D144A14
:10526000AB6B0A49002098472046FFF793FEAB6BD3
:10527000104ABFE79FED070A7FE79FED060A6CE73C
:105280009FED040A59E79FED030A46E7B41A0108A7
:1052900003B1371300000000AC000020D41A01084D
:1052A000F41A0108181B01080AD7233B7CDF000809
:1052B0003C1B0108541B01082DE9F0410768044616
:1052C000C7B1D7F8980080B100F14C0500F15C0639
:1052D0004FF0000855F8040B18B1FFF753FE45F8DE
:1052E000048CB542F6D1D7F89800FFF74BFE38464C
:1052F000FFF748FE2046BDE8F04143E610B520B177
:105300000B4B02689A42044607D00A4B0A4A9B6B31
:105310000A49BDE8104000201847006900232360B7
:1053200008B1FFF72FFE2046BDE810402AE600BF77
:105330000EB03713AC000020741B01088C1B010851
:1053400010B520B10C4B02689A42044607D00B4BB3
:105350000B4A9B6B0B49BDE8104000201847406882
:1053600018B1C36898470023636000232360204678
:10537000BDE8104006E600BF0DB03713AC000020BA
:10538000941B0108B01B0108026852E8003F23F497
:10539000907342E800310029F7D102F1080353E885
:1053A000003F23F0010302F1080C4CE80031002912
:1053B000F3D1036E012B05D000232022C267436680
:1053C0000366704752E8003F23F0100342E80031C3
:1053D0000029F1D052E8003F23F0100342E80031E9
:1053E0000029EFD1E8E700BF806A38B50368816F14
:1053F000C56F9A68120601D521290BD09B685B0600
:1054000001D5222D18D0D0F8803043F01003C0F819
:10541000803038BD0022A0F852201C4600E0234610
:1054200053E8002F22F0C00243E800210029F6D102
:10543000202223468267E1E70023A0F85A30FFF7D5
:10544000A3FFD0F8803043F01003C0F8803038BD9F
:105450002DE9F0410446806F202842D10D460029F5
:105460003CD0002A3AD01E4694F87430012B38D034
:1054700021230027C4F88070A367A3682449A4F8F7
:105480005020B3F5805FD1F80080A4F852202BD0D3
:10549000B4F8523000229BB284F8742073B92CE027
:1054A000236815F8012B1A85B4F85200013880B230
:1054B000A4F85200B4F8521089B2F1B13346424612
:1054C00080212046FAF7A8FEA0B9002DE8D137F8D0
:1054D000023B2268C3F308031385E5E70120BDE81A
:1054E000F0810220BDE8F0812369002BD0D12F4646
:1054F0001D46CDE70320BDE8F081334642464021FA
:105500002046FAF789FE0028F4D12023A367E6E7B6
:10551000AC000020F0B5026812F4006783B00446C6
:105520000CD0416CB1F5000F00F02F81B1F5400FA8
:1055300000F00581002900F020810127900350D55B
:10554000A44B996DC90040F1ED800020A249A34D04
:105550000B6843F480730B602E6804E02B689B1B80
:10556000022B00F2F6800B68DB05F7D5B7BB994B31
:10557000D4F858E0D3F8901011F4407125D08E453E
:1055800023D0D3F89060D3F8901041F48031C3F861
:105590009010D3F8901021F48031C3F8901026F4C5
:1055A000407CF107C3F890C00FD5D5F800C019466C
:1055B00041F2883605E02B68A3EB0C03B34200F2FE
:1055C000C880D1F890309B07F5D58249D1F890304A
:1055D00023F4407343EA0E03C1F89030002840F0F2
:1055E000BC80D00708D57B49206AD1F8883023F0E9
:1055F00003030343C1F88830910708D57549606AF1
:10560000D1F8883023F00C030343C1F888305307E6
:1056100008D57049A06AD1F8883023F030030343DD
:10562000C1F88830960608D56A49E06AD1F8883012
:1056300023F440630343C1F88830950508D56549D4
:10564000E06BD1F8883023F440230343C1F888305D
:10565000500508D55F49206CD1F8883023F44013F9
:105660000343C1F88830510608D55A49206BD1F858
:10567000883023F440530343C1F88830130608D51B
:105680005449606BD1F8883023F440430343C1F898
:105690008830D60508D54F49A06BD1F8883023F45F
:1056A00040330343C1F8883015030ED54949A06C37
:1056B000D1F8883023F040630343B0F1006FC1F8A4
:1056C000883050D0B0F1806F6DD050030ED5414975
:1056D000E06CD1F8883023F040630343B0F1006FF1
:1056E000C1F8883044D0B0F1806F64D051040BD53C
:1056F0003848216DD0F8883023F040530B43B1F186
:10570000805FC0F8883046D0130408D5314A616DF7
:10571000D2F8883023F080430B43C2F888303846F3
:1057200003B0F0BD996D41F0805199659B6D03F018
:1057300080530193019B012008E7616C2268254892
:10574000D0F8883023F440031943C0F888100027AC
:10575000F4E6032700283FF444AF1E498B6D23F085
:1057600080538B653DE7CB6843F48013CB60ACE797
:10577000CB6843F48013CB60B8E70430FCF776F8CD
:1057800007460028D9D02268D8E61248C36843F4F7
:105790008033C360D3E70221201DFCF767F890B186
:1057A00022680746B0E70121201DFCF75FF870B1C1
:1057B0002268074689E70121201DFCF757F820B130
:1057C0002268074692E722689EE722688EE72268F1
:1057D0007BE700BF0010024000700040AC000020DA
:1057E00070B54D4C94F881319EB0002B4BD0D4F85D
:1057F0004031D4F84421D4F84C01242184F881119B
:10580000196822F0706221F0010119601A619A682A
:10581000012822F400429A60D4F848212FD042F4A3
:10582000044202289A6004BF4FF400625A6059682B
:10583000D4F85851D4E9542641F0007141F40041A4
:1058400059603243D868D4F85C1142EA0522D4F892
:10585000605120F400402943D860DA6019601A686A
:10586000002042F0010220211A60C4F8840184F86B
:105870008111C4F8700184F882011EB070BD42F439
:1058800000429A60D3E703F0FF055C2207A829468F
:10589000CDE90255CDE9045584F88051069506F00E
:1058A000A4FED4F840311D4A9342A2D1802307A818
:1058B00014950793FFF72EFE054650BB184E194866
:1058C000F36C43F00203F364F36C03F002030193FF
:1058D0004FF44063019A029312220123CDE903237E
:1058E0004FF0030C02A90423CDE905C303F0BCFB70
:1058F000B36D43F48003B365B36D03F48003009389
:1059000029462120009BFEF7A9FF212003F040FE3D
:105910006DE704F0F3F800BFAC0000200058004031
:1059200000100240000400482DE9F043856FA1B04B
:105930000446002D5ED02368A2682669B149242060
:10594000A067186820F00100186060691D68324384
:105950000243E069294002430A431A605A68E56835
:10596000A94922F440522A435A608B42A26999689D
:1059700000F0BD80266AA54D21F4306132430A4310
:10598000AB429A600ED0A24A934200F01E82A14A16
:10599000934200F04F810023C4E91933012021B064
:1059A000BDE8F0839C4B9D4AD3F8883003F0030395
:1059B000013B022B00F2AA81134493F84C3BB0F553
:1059C000004F00F0B381082BE5D801A151F823F076
:1059D000075D0008135D0008FF5B00089759000889
:1059E000575C000897590008975900089759000814
:1059F000835B000880F874505C2209A82946CDE931
:105A00000455CDE90655089506F0EFFD23687F4A59
:105A1000934200F003827E4A93428DD109A8022767
:105A200012950997FFF776FD0646002840F021827F
:105A3000794B7B4D9A6D42F400329A659A6D02F46F
:105A400000320192019ADA6C42F00102DA64DB6CF6
:105A5000059703F001030F2000930322072304A9F5
:105A6000049005F5CA794FF09040DDF800C0079228
:105A7000089306964FF0800803F0F6FA694BC5F8D4
:105A800094314846C5E96766C5E96A66C5E96C664A
:105A9000C5F89871C5F8A481FAF716FC03460028EA
:105AA00040F0E78105F5EE765F49C4F8709010226A
:105AB0003046C5F8DC11C5E97A38C5E97C33C5E95B
:105AC0007E33C5F8BC41C5F8E071C5F8E421FAF7AA
:105AD000FBFB0146002840F0CC81E6662620C5F895
