:020000040800F2
:1000000000000120DD840008C1700008BD700008F8
:10001000B9700008B5700008B17000080000000059
:10002000000000000000000000000000A9700008AF
:10003000AD70000800000000A57000089570000871
:100040002D8500082D8500082D85000859700008B1
:100050002D8500082D8500082D8500082D850008B8
:100060002D850008457000082D8500082D850008A5
:10007000397000082D7000082D8500082D850008B6
:1000800021700008157000082D8500082D850008D6
:100090002D8500082D8500082D8500082D85000878
:1000A0002D8500082D8500082D8500082D85000868
:1000B0002D85000800000000000000002D850008CC
:1000C0002D850008ED6F00082D8500082D8500089E
:1000D0002D8500082D850008556C00082D85000829
:1000E000416C0008D56B0008000000000000000013
:1000F0000000000000000000000000000000000000
:10010000000000002D850008000000002D8500087B
:1001100000000000000000002D8500082D8500086B
:100120002D8500082D8500082D8500082D850008E7
:100130002D85000800000000000000000000000005
:100140002D8500082D8500082D8500080000000081
:100150002D8500082D8500082D8500082D850008B7
:100160002D8500082D8500082D8500080000000061
:100170002D8500082D85000800000000000000000B
:100180002D8500082D8500082D8500080000000041
:1001900010B5054C237833B9044B13B10448AFF3C1
:1001A00000800123237010BD90000020000000009B
:1001B00060B2000808B5034B1BB103490348AFF315
:1001C000008008BD000000009400002060B200081C
:1001D0000E490F4A10B40C6813691B0706D50C4B67
:1001E0005DF8044B1869C0F3C00070470B681B1B17
:1001F0008342F4D272B613691B0700D430BF62B6D3
:10020000BFF36F8F13691B07E9D4EFE7AC00002041
:1002100000040048144BDB68C3F3022310B4C3F19D
:1002200007041A1D042C28BF0424062A4FF0FF32AD
:1002300002FA04F28CBF033B002321EA0201994039
:10024000431C0AD000F1604000F561400901C9B2C9
:1002500080F800135DF8044B7047034B0901C9B2E5
:1002600083F82310F6E700BF00ED00E0F0B4056866
:10027000294F064601E0581C06D1EC6931EA04001A
:10028000F9D10020F0BC70473868801A834227D328
:1002900033B328684407F0D5E8690005EDD54FF47D
:1002A00000632B6255E8003F23F4D07345E8003229
:1002B000002AF7D1326802F1080353E8003F23F027
:1002C000010302F1080040E800310029F3D12023A6
:1002D000B36786F87410F3670320C6F88030D1E75F
:1002E00055E8003F23F4D07345E80032002AF7D1E7
:1002F000326802F1080353E8003F23F0010302F1E2
:10030000080040E800310029F3D12023B36786F8C4
:1003100074100320F367B5E7AC0000200346214AC0
:100320000068904295BF204A204A2149214930B4B3
:10033000024419641421B2FBF1F292005A640222C1
:1003400083F8252001689D68D3E9052421F4FF4145
:1003500021F070012A430A43224342F08002B5F59E
:10036000804F026014D0196C114A914208BF1249A3
:100370005A6C18BF114902F01C000F240A6884400F
:1003800022EA04020A605A680C68824022430A602A
:1003900000200122D86383F8240083F8252030BC94
:1003A000704700BF07040240F8FFFDBFF8FBFDBF28
:1003B0000000024000040240A8000240A8040240DD
:1003C0002DE9F041654C94F82430012B00F0C280F7
:1003D00061680122022384F8242084F825308E6885
:1003E0000278056A16F0400616BFC678C670B605D4
:1003F000092A09D900230A3AD2B2092A03F10103D2
:10040000F9D842EA0312D2B24378092B4FEA0242EA
:1004100009D900270A3BDBB2092B07F10107F9D8FC
:1004200043EA0713DBB290F802E0BEF1090F4FEA8E
:1004300003280DD90027AEF10A0E5FFA8EFEBEF139
:10044000090F07F10107F6D84EEA071E5FFA8EFE84
:1004500090F824C0BCF1090F0DD90027ACF10A0CAB
:100460005FFA8CFCBCF1090F07F10107F6D84CEAE2
:10047000071C5FFA8CFC436947681D432E433243D7
:1004800048EA0203826AC669CA2553204D6243EADC
:100490000E0E4862B2F5807F4EEA0C638A6846EA27
:1004A000070639D022F400728A60CA68D2B262F4B8
:1004B0002072CA60256804E02068401BB0F57A7F8E
:1004C00020D8CA6812F00202F6D00B628E648B68E4
:1004D00043F400738B608B6843F400538B60204BB4
:1004E0001A6842F480221A609A68FF2642F4802239
:1004F000012500209A604E6284F8240084F825507B
:10050000BDE8F0810323FF2084F8242048621846C8
:1005100084F82530BDE8F08122F480728A60CA68D0
:10052000D2B262F4C072CA60256804E02068401B41
:10053000B0F57A7FE6D8CA6812F00102F6D0CB6136
:100540004E648B6843F480738B608B6843F48053F4
:100550008B60C4E70220BDE8F08100BFAC00002042
:100560000004014009494A68D36823F0A003D3601E
:10057000086804E00B681B1AB3F57A7F04D8D368C7
:100580009B06F7D50020704703207047AC00002081
:1005900008B5114BDA6822F08002DA609A68920698
:1005A00003D4FFF7DFFF88B908BD9A6822F0200264
:1005B0009A60FFF7D7FF18B1084B032083F8250096
:1005C000054A936843F02003936008BD034B032062
:1005D00083F8250008BD00BF00280040AC000020C3
:1005E0000E494A68D06810F0400001D000207047E2
:1005F0004FF0FF3330B4D3600C68032509E00328C3
:100600000AD00B681B1BB3F57A7F84BF81F8255095
:100610000320D3685B06F2D530BC7047AC000020E5
:100620000288438843EA02430B607047DFF884C0C6
:100630002DE9F04F023802390CF1E20A0CF1E40B1B
:100640004FF0000840F6DE1930F8025F31F8024F33
:10065000A54220D09CF800500BEBC5056C8824B354
:100660006F6847F6FF76002507EB840E57F8044BBA
:10067000A4B2A64228BF2646A54238BF2546BE459D
:10068000F4D17600B6B26D00ADB2B14528BFB14627
:10069000A84538BFA8460CF1010CD445D4D1A2F826
:1006A0000090A3F80080BDE8F08F254647F6FF765E
:1006B000E7E700BF78B200080B4A30B4411E00F1F2
:1006C00087054FF0FF3011F8014F08236040C40741
:1006D0004CBF82EA50004008013BF8D18D42F2D174
:1006E000C04330BC704700BF2083B8ED2DE9F04F08
:1006F000054687B0002405EB410E02900592104696
:1007000004910393AEF1120EAA1E27460194A1464E
:10071000A2464FF0010C40F2EE2B14E0BAF1000FAC
:1007200030D14B4535DD99460124019E7642B342D6
:10073000BCBFA8EB050301938F4238BF0F46964517
:1007400000F102002BD0558A32F8021F6B1A03F514
:100750000046B6F5803F38BF038088462CBF4FF077
:10076000000C11885B45D9DC594E9945B8BF9946B4
:10077000B342DADA002C0ABF4FF0000CA2464FF069
:10078000010AD2E74B4506DD994654464FF0000C6E
:10079000CBE70124C9E754464FF0000CC5E7BCF194
:1007A000000F05D14FF0000A504607B0BDE8F08FAA
:1007B000002CF7D0BAF1000FF4D0049A059E0497EC
:1007C0000023CDF81490A2F11C0E123698469C46D8
:1007D0001D461F46994636F9023F03EB830203EBA1
:1007E0004203304631460A2231F902BD30F9024F48
:1007F00002FB0B33A2F1020B013A0BFB0433F3D1E2
:10080000634561DC434501DA9846A94601357545E3
:10081000E1D14CF250339C4538464C46049FDDF8FC
:100820001490BFDD2B4B9845BCDAB9F1000FB9D05D
:10083000019B002BB6D0029B11991B88FF00DB00A7
:1008400041B1BB4204D2DA434A443A44B2FBF9F222
:1008500011990A60109A002AA6D0039A002AA3D000
:10086000024602990E3231F81210B3EBC10F4FEA73
:10087000C10005D2DB434B440344B3FBF9F3D21A66
:10088000029B04F10E0933F81930B7EBC30F4FEA9E
:10089000C30107D90198431E3B445B1AB3FBF0F335
:1008A000A9EB0309002AFFF67DAFB9F1000FFFF6AF
:1008B00079AF4A453FF776AF109BA9EB0209C3F821
:1008C0000090039B1A606FE79C462F469EE700BF8F
:1008D00012FDFFFFB03CFFFF704700BF70B4124E27
:1008E000124D00F1BC04002143680B44024640F85D
:1008F000043F12689A1AB24209DD50F8042CA3F59D
:10090000C9237E3BA1F5C92103607E399A1AAA4208
:1009100006DA03F5C9237E3301F5C92103607E3170
:100920008442E1D170BC70473F240300C1DBFCFF6F
:1009300070B48C8893680E898D79CA799A70003C5E
:1009400018BF01249E801C705D70986070BC704759
:100950000368D0F8E820C0F8F0205A68184610471D
:10096000D0E90F23816B0069184700BF0068C36896
:10097000184700BF704700BFF8E700BF00688368F2
:10098000184700BFFAE700BFF0E700BFF0B4314BF3
:10099000314E1B68056882B000248DF8034034682E
:1009A000376803EB8303C4F16404C3EBC30322443D
:1009B0001B0D02FB03F30193AB6819420AD12CE033
:1009C000019C019B013B0193AB68002C08BF0022F6
:1009D000194222D0B1F5C06F05D12B7BDBB28DF867
:1009E00003309DF803303368DB1B9A42E8D86B680C
:1009F000426823F0E003B2F5827F6B601AD0836A0D
:100A0000B3F5005F0DD00122002380F85D2080F84F
:100A10005C30032002B0F0BC7047002002B0F0BC94
:100A200070472B6823F400532B602B6843F400536A
:100A30002B60E8E78368B3F5004F02D0B3F5806F11
:100A4000DDD12B6823F040032B60836AB3F5005F90
:100A5000D9D1E6E700000020AC00002070B4294D99
:100A6000294B2A681B6804682E68C2F1640211448D
:100A700083B0C3F3CB3301FB03F30193A3681A06DE
:100A80000DD52B689B1B8B420DD2019A019B013B1C
:100A90000193A368002A08BF00211B06F1D400209F
:100AA00003B070BC70476368426823F0E003B2F59E
:100AB000827F636016D0836AB3F5005F09D001229C
:100AC000002380F85D2080F85C30032003B070BC08
:100AD0007047236823F400532360236843F40053D2
:100AE0002360ECE78368B3F5004F02D0B3F5806F65
:100AF000E1D1236823F040032360836AB3F5005FEC
:100B0000DDD1E6E7AC00002000000020836910B5CD
:100B10000446BBB10D4B93F828204AB963697BB1F9
:100B20000A4B0B4ADB6B0B4900209847002010BD95
:100B3000DB6B094A0749012098476369002BEFD115
:100B4000012010BDC369002BE4D1E7E7AC00002011
:100B5000D8F10008BCF10008A0F1000870B40169E8
:100B6000B0F8422090F8383031F81220032B08BF3B
:100B700082F4004240F2E51303FB02F31B0C826C8B
:100B8000A3F589739BB21380828F31F812204AB18A
:100B9000B0F8402031F81220012A03D9C26C012498
:100BA000147002E0C26C00241470C48F428F31F8BC
:100BB000145031F81240B0F9441040F2E51202FB33
:100BC00005F2120CC2F5897213441BB2002BB8BF98
:100BD0005B42D0E914651BB2A4F10102006899429E
:100BE000B2FA82F24FEA5212ACBF002301233270F4
:100BF00042682B7070BC104770B50446806978B1AC
:100C0000E36943B10F4B93F8282022B1DB6B0E4A06
:100C10000E49012098472068BDE870408368184756
:100C2000084D0B4AEB6B09499847E3693BB195F8CE
:100C3000283023B1EB6B044A044901209847002077
:100C400070BD00BFAC0000202CF200081CF20008B0
:100C500000F200082DE9F047C26DD0F8188006694F
:100C60000023A8F8023004461D46137000F14C071B
:100C7000994657F8043B03B3B3F838C0B3F8900073
:100C8000B3F89210B3F8D82006EB400006EB410110
:100C900006EB420206EB4C0CC3E91301C3F8A42097
:100CA000C3F814C088F800501868D3F8DC204168F5
:100CB00083F8E490C3F8E02088470135EDB2042DB5
:100CC000D7D12068BDE8F04743681847704700BF98
:100CD000704700BF704700BF704700BF52B101EBC3
:100CE0008202043850F8043F4B801B0C0B80043107
:100CF0009142F7D1704700BF30B583B000EB42009E
:100D00000D4601A91C46FFF78BFC019A22F00F0249
:100D100004B12A430092014601226846FFF7DEFF34
:100D200003B030BD2DE9F04F87B0BDF84070DDF85D
:100D300044A003EBC7077B8883B381460E4601EBD3
:100D4000020800254FF0010B7A6852F82540620036
:100D500092B2B242C4F301701DD342451BDA01289E
:100D60000CD0022836D0E8B1324B334ADB6B334922
:100D700000209847002007B0BDE8F08FBAF10003CB
:100D8000A2EB060218BF012392B2C4F30341484606
:100D9000FFF7B2FF7B880135AB42D5D8012007B001
:100DA000BDE8F08FC4F344530BFA03FC921BE245F9
:100DB00091B21ED30CF1FF331E4A0193CDF800A06F
:100DC000D46B1F4A03900B461C49A047039807B0F9
:100DD000BDE8F08F921BBAFA8AF35B0992B2C4F3B2
:100DE00003414846FFF788FF7B880135AB42ABD80B
:100DF000D4E709EB410004A90393FFF711FC039B1F
:100E00004FF0FF32C3F12003C4F3044422FA03F38A
:100E1000049AA34022EA03020AFA04F401461443A6
:100E200005A801220594FFF759FF7B880135AB42E5
:100E30008AD8B3E7AC00002080F2000874F2000802
:100E40003CF200082DE9F04FC2F51D669A461B687A
:100E5000164C0E36B34298BF9EB2154B054688BF5E
:100E6000B6B2500803EB800083B01746720888467C
:100E7000023DFFF733FF04F1E10904F1E40B7D23A8
:100E800001E014F8013F35F8022F3946CDE9003270
:100E900040465B463246FFF745FF4C4501D00028EF
:100EA000EFD1CAF8006003B0BDE8F08F78B2000857
:100EB00018DD000800230138C1E90133CB600428A4
:100EC0002ED8DFE800F00C1625290300174B184A2E
:100ED00000200870C1E90533CA6101207047154B35
:100EE00000220A704FF48022C1E90533CA61012053
:100EF000704730B4104B114CCC6101209625FA227A
:100F0000CD60C1E9012230BCC1E9053308707047EA
:100F10000B4B0C4A0020DCE70B4B0C4A0020D8E7B7
:100F20000020C1E905000870C8617047080005008D
:100F30000B00020002000100080001000200030093
:100F4000080002000400020008000300060002007E
:100F50002DE9F04F1E4EDFF88480814615460FCEF6
:100F600091B002AC0FC40FCE0FC40FCE0FC496E8E1
:100F7000030098F82830012B84E8030007D9D8F83B
:100F80003C40144A144900954B460220A047DFF824
:100F900050B0DFF844A002AC10AE02E00834B44216
:100FA00013D0A3881D42F9D098F82830012B5A4657
:100FB0004B4651464FF00200F0D92768009708349D
:100FC000D8F83C70B847B442EBD111B0BDE8F08F0F
:100FD000ECBA000810F300082CF30008AC00002065
:100FE00040F3000830B50A4C94F82850012D85B024
:100FF0000BD9CDE901120346A1F58C7080B20090A7
:10100000E46B044A04490220A04705B030BD00BF8C
:10101000AC00002054F300082CF3000830B5034660
:10102000A1F16204104814F0010FA5B285B090F848
:1010300028400CD1012C08D9CDE901126D0800958A
:10104000C46B0A4A0A490220A04705B030BD012CF2
:10105000FBD9CDE901126D080095C46B054A04491E
:101060000220A04705B030BDAC0000207CF3000892
:101070002CF30008B4F3000830B5094C94F828505C
:10108000012D83B009D97D3989B2CDE9001203461B
:10109000E46B044A04490220A04703B030BD00BFFE
:1010A000AC000020ECF300082CF3000810B5084950
:1010B00091F82840012C82B008D902F00F0200926A
:1010C000CC6B044A044903460220A04702B010BD7D
:1010D000AC0000201CF400082CF3000830B5094CCB
:1010E00094F82850012D83B009D92C3989B2CDE963
:1010F00000120346E46B044A04490220A04703B0EF
:1011000030BD00BFAC0000203CF400082CF3000808
:1011100030B50C4C94F82850012D83B010D91146ED
:10112000094DE46B094A11F4006F03460848C1F306
:101130000A0118BF2846CDE9000106490220A04750
:1011400003B030BDAC0000206CF4000874F400085B
:1011500064F400082CF3000810B4084CA48D49086E
:1011600064088C4228BF0C46023C24F00104043081
:1011700010601C605DF8044B704700BFAC0000209D
:10118000F8B50688002A14BF4FF480524FF400527D
:10119000B6F59C6F38BF4FF49C66B24205460F46C9
:1011A0001C4623D2134B144ADB6B1449002098478A
:1011B0004FF0000E1249134A134BE360C4E90112C9
:1011C0000FCD203676004FF0000CA4F802C004F1D9
:1011D000300C24F8106B0FC495E80F0007C497E893
:1011E000030023808CE803007046F8BD4FF0010E29
:1011F000E0E700BFAC00002088F40008A8F4000875
:101200000100020003001B001C00200010B1024B73
:101210005B6B1847704700BFAC0000202DE9F04120
:1012200007680446C7B1D7F8980080B100F14C05B3
:1012300000F15C064FF0000855F8040B18B1FFF7F9
:10124000E5FF45F8048CB542F6D1D7F89800FFF7D2
:10125000DDFF3846FFF7DAFF2046BDE8F041D5E76D
:10126000DFF864C02DE9F047DCF840501DB12B4693
:10127000BDE8F047184712B35200A1F10208A2F1ED
:1012800002090E469A4607464944444634F8025F2E
:101290006DBA8C422580F9D1DCF8384038463146A9
:1012A000A047BAF1000F01D1BDE8F0874E4438F8ED
:1012B000023F5BBAB045A8F80030F8D1F4E7BDE8CA
:1012C000F047DCF838301847AC00002070B5012535
:1012D00084B041F4A0430446164603A92A4601A857
:1012E000ADF808300196ADF80A50FFF7F7FC20463C
:1012F00002A900230422FFF7B3FF04B070BD00BFB2
:101300002DE9F04782B01D4643F44053BDF8284014
:10131000ADF8003000278A46914669460123032232
:101320008046ADF80270ADF80470FFF799FFBDF983
:10133000046004FA0AF1714001EA090445F4805599
:1013400040463B46694674400222ADF80050ADF875
:101350000240FFF785FF02B0BDE8F08730B583B0EB
:101360000025294600957B23FF220446FFF7C8FF8E
:101370000121204600918B230222FFF7C1FF009537
:1013800020468B2380220721FFF7BAFF03B030BD30
:1013900030B583B041F4805415460023022201A9E0
:1013A000ADF80440ADF80650FFF75AFF03B030BD6A
:1013B00030B583B041F4405114460025ADF800101B
:1013C000012303226946ADF80250ADF80450FFF73F
:1013D00047FFBDF80430238003B030BD2DE9F04F46
:1013E000324F2DED028B97F82830012BA3B0064623
:1013F00004D9FB6B2E4A2F49022098472E49DFF86B
:10140000C0B0DFF8B0A0782204A808F0EFFF0122F6
:10141000D5213046FFF7BCFF04AC0DF18808A58844
:10142000B4F80690A9444D452EDA08EE106A06E09D
:10143000BDF80E2098470135ADB2A94522DD18EE62
:10144000100A29460DF10E02FFF7B2FFA36818EE4D
:10145000100A2946002BEBD197F82830012B5A4669
:1014600018EE103A51464FF00200E4D9BDF80EC014
:10147000CDF804C0266800960135FE6BADB2B047CA
:10148000A945DCDC18EE106A0C34A045C7D197F8EA
:101490002830012B04D9FB6B084A064902209847E3
:1014A00023B0BDEC028BBDE8F08F00BFAC00002084
:1014B000BCF400082CF3000824BB000854F5000815
:1014C00040F50008F0B585B000240129074616460E
:1014D000ADF80E4038D0022933D0224B2249DD6BC3
:1014E000224A03462046A84721460DF10E023846FF
:1014F000FFF75EFFBDF80E30738003F00705012D86
:10150000358024D013F0060F0BD16DB9154A009722
:10151000D46B1549164A2846A0472C46204605B0EC
:10152000F0BD023D012DF9D90E4A0097D46B0E494A
:10153000104A0020A04700210C462046318005B00B
:10154000F0BD32210124D0E70C463321CDE7054A16
:101550000097D46B0449084A0020A0470024204685
:1015600005B0F0BDAC000020ACF5000890F5000817
:10157000C4F5000828F60008F4F50008F0B583B0BB
:101580000024012907461646ADF8064019D0022965
:1015900009D01A4B1A4ADD6B1A4903462046A84760
:1015A000204603B0F0BD46210DF106023846FFF794
:1015B000FFFEBDF80650842475B1BEB9012003B00A
:1015C000F0BD45210DF106023846FFF7F1FEBDF8EA
:1015D00006508324002DF0D1084B0B4ADC6B0949DF
:1015E00028463B46A047284603B0F0BD3846214672
:1015F0000022FFF7CDFE3046D3E700BFAC0000204D
:1016000090F50008ACF500085CF6000870B582B0F3
:101610000DF106020E4600241C210546ADF80640D9
:10162000FFF7C6FEBDF8062012F400620CD1284672
:101630001B21FFF7ADFE284646F400621B21FFF791
:10164000A7FE012002B070BD044B054ADE6B0549C0
:1016500020462B46B047204602B070BDAC000020AB
:1016600090F60008ACF5000870B582B00DF10602E6
:10167000002437210546ADF80640FFF799FEBDF876
:10168000063003F0C003B3B90DF1060200241C219B
:101690002846ADF80640FFF78BFEBDF806301B0567
:1016A00015D50E4B0E4ADE6B0E4920462B46B04731
:1016B000204602B070BD094B93F82820002AE3D0E1
:1016C000DC6B094A07492B460120A047DCE7284686
:1016D000FFF744FE012002B070BD00BFAC00002047
:1016E000ECF60008ACF50008C0F60008F0B40C4DAC
:1016F000AF8D9E1CB7EB460F05D2EB6B094A0A492A
:10170000F0BC00201847144641F4A041013B118071
:101710005380214626F000420023F0BCA0E500BF24
:10172000AC0000201CF700083CF7000810B582B0A0
:10173000044601AA0121FFF7C5FE2046002201212F
:10174000FFF71CFFBDF80430022B08D00549064AFC
:10175000CC6B06490020A047002002B010BD01203C
:1017600002B010BDAC00002050F7000898F7000848
:101770002DE9F04F02EB420C00EB8C0C8DB00026F3
:101780008346824680466746B14603A84FEA8905EC
:1017900086469FED577A43466AB19C192C44D4ED96
:1017A000007A1C46D4ED006A0C3367EEA67ABB4281
:1017B00037EE277AF1D104350C2DAEEC017AE8D161
:1017C00009F10109B9F1030F00F1100008F1040853
:1017D000A6F1040607F10407D8D19DED046ADDEDFA
:1017E000055ADDED086A68460BF10C04DFED407A1E
:1017F00053463AB11D4695ED007A0C33634577EEBA
:10180000877AF7D10AF1040AA245E0EC017A0CF1DB
:10181000040CEBD1DDED037AF5EE407AF1EE10FA2F
:1018200010D0B7EE007A87EE274ADDED077A66EE34
:10183000044A26EE245A77EEC57AF5EE407AF1EEA8
:1018400010FA06D100200023CBF800300DB0BDE81F
:10185000F08FC7EE272A65EE843A25EEA47A66EE6D
:10186000237A9DED0B5A76EEE77A36EEC77A67EE6D
:10187000A27A65EEA36A75EE666A27EE275A76EEBF
:10188000C56AF5EE406AF1EE10FADBD09DED005A24
:101890009DED013A9DED022A64EE854A63EE853A9C
:1018A00073EE644A012067EEA47A002372EE677A31
:1018B00077EEE33AC3EEA67A27EE277AC1ED027AF5
:1018C00034EEC77A65EEA75A67EE227A26EE276ACB
:1018D000C1ED017A35EE466A76EE655A25EE844A08
:1018E00081ED004ACBF800300DB0BDE8F08F00BFAD
:1018F000000000000028B8BF404270B4BABF00B278
:101900000124002400293FDB884238DB0022034603
:1019100068B30846002643F628450004B0FBF3F1FF
:10192000A9424AD946F2D633994236D948F67203CB
:10193000994244D94AF64943994242D94DF2A30308
:10194000994240D94FF24B73994298BF052025D94F
:101950004FF24C7548F233234CF2A340491B03FB72
:1019600001F100EB114016B1C0F5C9301F3014B1C0
:10197000C0F549303F3002B1404270BC70470B4661
:10198000C1B912480A46F2E7494209B288424FF00B
:101990000102BCDA0B461646BDE701200C4B03EBF7
:1019A000C00503EB8003D5F82809D3F85C39D5F8D6
:1019B0002459D3E700220126ADE70020EEE70220FC
:1019C000ECE70320EAE70420E8E700BF1F920100EC
:1019D00078B2000810B520B10B4B02689A42044659
:1019E00007D00A4B0A4ADB6B0A49BDE810400020C9
:1019F000184700690023236008B1FFF707FC204661
:101A0000BDE8104002E400BF0EB03713AC00002068
:101A1000B8F70008D0F7000810B520B10C4B0268E9
:101A20009A42044607D00B4B0B4ADB6B0B49BDE8CF
:101A3000104000201847406818B1C3689847002339
:101A40006360002323602046BDE81040FFF7DEBB43
:101A50000DB03713AC000020D8F70008F4F70008E9
:101A600008B518B1064B02689A4207D0054B064AE2
:101A7000DB6B064900209847002008BD043008BDF4
:101A80000FB03713AC00002000F8000818F8000869
:101A9000836A0022A3F85A20A3F85220704700BF9F
:101AA000836A19684A6822F0030210B44A601A6E09
:101AB000012442F010021A6683F85D405DF8044B81
:101AC000704700BF704700BF704700BF70B5036824
:101AD0001B4D2E681B689B062ED4846A22685368AF
:101AE00023F020035360204632464FF4C051FEF7E6
:101AF0004DFF58B931462046FEF7B0FF30B93246A7
:101B00004FF4C0612046FEF741FF38B1236E43F029
:101B100020032366236E43F02003236621684B686D
:101B2000002223F0030301204B60E287A4F8462043
:101B300084F85D00236E13B9012385F8443070BD2D
:101B4000AC00002038B52E4A036815681B689B0658
:101B50001FD4846A2368A268586820F02000586067
:101B6000C2B15968606821F00101B0F5827F596007
:101B700035D029462046FEF771FFC8B96368B3F532
:101B8000827F1CD001230022A4F8462084F85D3017
:101B9000236E38BD6268B2F5827F5A6827D022F082
:101BA00001025A6029462046FEF758FF0028E5D07A
:101BB000236E43F02003236620232366E2E7A36815
:101BC000B3F5004F02D0B3F5806FDBD12A464FF456
:101BD000C0612046FEF7DAFE0028D3D0E8E7B2F570
:101BE000004F08D11A6822F040021A60C1E722F0C3
:101BF00003025A60BDE7B2F5806FF3D0B9E700BFCA
:101C0000AC000020444AD36830B49C0708D0D368A5
:101C1000046803F00303A34247D0012030BC70479F
:101C20000368022B52D0032B49D0012BF5D1126847
:101C30009207F2D5384D4468EA6822F073021343E4
:101C4000013C43EA0413EB60334C344A236823F02D
:101C500080632360156803E013685B1B022B39D88F
:101C600023681B01F8D4002936D1D0E90253216939
:101C7000DB0621F0784121F4FE4143EA05230B43C2
:101C8000236125490B6843F080630B60146803E00F
:101C900013681B1B022B1DD80B681B01F8D582692A
:101CA0000B6913430B610020B8E7002BB5D0D36854
:101CB0004268C3F3021301339342AED1C4E7146800
:101CC000A403B7D412685203A7D5B3E71268550529
:101CD000A3D5AFE70320A1E7012923690DD041690E
:101CE000856823F0C06323F4FE43490843EA0523D3
:101CF000013943EA41632361C3E70169856823F43D
:101D0000C00323F4FE43490843EA0523013943EAAB
:101D100041532361B5E700BF00100240AC00002032
:101D2000F0B5036813F4006783B004460CD0416C2F
:101D3000B1F5000F00F03281B1F5400F00F00681DF
:101D4000002900F02381012798034FD5A44A916D03
:101D5000C90040F1EF800020A249A34D0A6842F477
:101D600080720A602E6804E02A68921B022A00F240
:101D7000F8800A68D205F7D5AFBB994AA66DD2F8AC
:101D8000901011F4407126D08E4224D0D2F8906089
:101D9000D2F8901041F48031C2F89010D2F890102F
:101DA00021F48031C2F8901026F4407CF107C2F88B
:101DB00090C00FD5D5F800C0114641F2883605E035
:101DC0002A68A2EB0C02B24200F2CB80D1F890203C
:101DD0009207F5D5A66D8249D1F8902022F4407281
:101DE0003243C1F89020002840F0BF80D90708D5C1
:101DF0007B49206AD1F8882022F003020243C1F80F
:101E000088209A0708D57649606AD1F8882022F0A0
:101E10000C020243C1F888205E0708D57049A06A09
:101E2000D1F8882022F030020243C1F888209D06B4
:101E300008D56B49E06AD1F8882022F44062024359
:101E4000C1F88820980508D56549E06BD1F888204D
:101E500022F440220243C1F88820590508D5604980
:101E6000206CD1F8882022F440120243C1F8882067
:101E70005A0608D55A49206BD1F8882022F44052DE
:101E80000243C1F888201E0608D55549606BD1F879
:101E9000882022F440420243C1F88820DD0508D59D
:101EA0004F49A06BD1F8882022F440320243C1F898
:101EB000882018030ED54A4AA16CD2F8883023F046
:101EC00040630B43B1F1006FC2F8883053D0B1F1D9
:101ED000806F73D0236859030FD5414AE16CD2F863
:101EE000883023F040630B43B1F1006FC2F88830B3
:101EF00046D0B1F1806F69D023685A040CD53849B7
:101F0000226DD1F8883023F040531343B2F1805F43
:101F1000C1F8883049D023681B0408D5304A616D68
:101F2000D2F8883023F080430B43C2F8883038461B
:101F300003B0F0BD916D41F080519165926D02F05A
:101F400080520192019A012006E7616C244AD2F87E
:101F5000883023F440031943C2F88810236800270F
:101F6000F2E6032700283FF441AF1D498A6D22F0B5
:101F700080528A653AE7D36843F48013D360A9E7B7
:101F8000D36843F48013D3602368B6E70430FFF7C7
:101F900039FE07460028D8D02368D5E6104AD36812
:101FA00043F48033D360416CD0E70221201DFFF75A
:101FB00029FE23680028AFD00746ADE70121201D88
:101FC000FFF720FE002818BF074683E70121201DE8
:101FD000FFF718FE236800288FD007468DE700BF63
:101FE0000010024000700040AC0000201F498B6DC3
:101FF000DB0082B01DD51E4B1B6803F4C063B3F534
:10200000007F28D0802812D82ED0A0F170035A4229
:102010005A4118490B6823F0070313430B60086803
:1020200000F00700801A18BF012002B07047032299
:10203000EFE78B6D0E4A43F080538B658B6D03F099
:1020400080530193019B13688A6D22F0805203F440
:10205000C0638A65D3E7802804D9A0288CBF0222F8
:102060000122D6E70022D4E70222D2E70010024084
:102070000070004000200240064A074B9268074962
:10208000C2F302221344086893F8783903F01F035F
:10209000D84070470010024078B2000800000020CD
:1020A000264A9368D26813F00C0308D00C2B3AD060
:1020B000042B36D0082B224818BF002070471F4A37
:1020C0001168090754BFD2F8941011681D4A54BF13
:1020D000C1F30321C1F3031102EB8102D2F880099D
:1020E00003B30C2B27D1154BDB6803F00303022B42
:1020F0001FD0134A032B08BF1046104BD968DA686B
:10210000DB68C3F34163C2F30622C1F3021101335A
:10211000013100FB02F05B00B0FBF1F0B0FBF3F02B
:1021200070470948704702F00302012AC7D0002017
:10213000D9E70548E1E70020704700BF00100240E2
:1021400000127A0078B200080024F4002DE9F04F64
:102150000C6885B0002C00F0878000234FF0010B45
:102160000BFA03FE1EEA040A79D04E6806F0030259
:10217000551E012D4FEA430C79D9032A40F0BD804A
:1021800002FA0CF2D543D0F800C00CEA05052A4348
:1021900016F4403F026062D05F4D2A6E42F00102A9
:1021A0002A662D6E23F0030202F1804205F001053C
:1021B00002F58032039503F00305DDF80CC0D2F878
:1021C00008E0AD000F2707FA05FCB0F1904F2EEAAA
:1021D0000C0E16D0514FB84200F0978007F580677B
:1021E000B84200F0958007F58067B84200F08A8019
:1021F00007F58067B8420CBF4FF0040C4FF0070C96
:1022000001E04FF0000C0CFA05F545EA0E0595606B
:10221000434A92686FEA0A0CF502414D54BF0CEA3A
:1022200002024AEA0202AA60ED68B2023C4A54BFC6
:102230000CEA05054AEA0505D5605568384AB70332
:1022400054BF0CEA05054AEA050555601268F50316
:10225000334D54BF0CEA02024AEA02022A600133FB
:1022600034FA03F27FF47CAF05B0BDE8F08FD0F80C
:102270000880CF68032505FA0CF528EA050807FA57
:102280000CF949EA0808C0F80880D0F80480C6F3C1
:10229000001928EA0E0809FA03FE4EEA080EED437B
:1022A000C0F804E0D0F80C808F6808EA050807FA47
:1022B0000CFE4EEA080E022AC0F80CE002D002FA28
:1022C0000CF260E74FEAD30800EB880803F0070E32
:1022D000D8F8207001970F694FEA8E0E07FA0EF9B1
:1022E0000F2707FA0EFE019F27EA0E0E49EA0E0E8F
:1022F00002FA0CF2C8F820E045E7032505FA0CF5D0
:10230000ED43CFE74FF0030C7DE74FF0010C7AE788
:102310004FF0020C77E700BF0010024000040048B5
:102320000004014070B4D0E91063042231680568EC
:1023300003F01C039A400A422C680ED014F0040FDC
:102340000BD02B689B0603D42B6823F004032B606F
:10235000036B7260CBB170BC184702229A400A42EC
:1023600015D014F0020F12D02B68990606D42B68F2
:10237000012123F00A032B6080F82510C36A7260E4
:10238000002280F82420002BE5D170BC7047082281
:102390009A400A42F9D02207F7D52A68416B22F009
:1023A0000E022A60012202FA03F300247360C26362
:1023B00080F8244080F825200029E6D070BC08472A
:1023C000F0B490F82440012C3DD090F8254001262F
:1023D000B442E5B280F8246005D0002380F82430B0
:1023E000F0BC022070470468D0F840C002270026E5
:1023F00080F82570C663476C266807F01C0726F036
:1024000001062660BD408668CCF804506360036B0B
:10241000102E0BBFA260A160E160E26053B123689F
:1024200043F00E032360236843F001032360002080
:10243000F0BC7047236823F004032360236843F053
:102440000A032360EFE70220F0BC7047044A00F063
:102450001F01012340098B4042F82030704700BF24
:1024600000E100E070B5104D104A2B68A2FB032379
:102470009B09013BB3F1807F0CD20D4A0D4953609B
:10248000F02381F82330002607230F2896600446A6
:10249000136001D9012070BD01464FF0FF30FDF7F8
:1024A000B9FE6C60304670BD00000020D34D621054
:1024B00010E000E000ED00E0BFF34F8F0549064B50
:1024C000CA6802F4E0621343CB60BFF34F8F00BFD2
:1024D000FDE700BF00ED00E00400FA0538B54F4B02
:1024E00093F824200021012A83F8451000F08C8005
:1024F0005A6853210225CA20012483F8255083F805
:10250000244050625162916821F480619160D168E9
:10251000C9B261F49061D160D168490663D51F21C9
:10252000516191683E4821F0070141F0030191603B
:10253000016841F480110160816841F4801181607B
:10254000916841F4804191609168FF2441F4806179
:1025500001209160546283F8250093F84520002102
:1025600083F824108AB972B6BFF34F8FBFF36F8F11
:1025700093F8452002B930BF62B6BFF34F8FBFF367
:102580006F8F93F84520002AEDD093F82420002186
:10259000012A83F8451037D05868532201240225B8
:1025A000CA2183F8255083F8244041624262826840
:1025B00022F480628260826822F4804282601C6819
:1025C00004E01968091BB1F57A7F1FD8C26812F0C0
:1025D0000402F6D0FF2401220021446283F8241073
:1025E00083F8252038BD1C68D16811F0040196D10C
:1025F0001868001BB0F57A7FF6D9FF2403205462D7
:1026000083F8241083F82500FFF756FFFF240321E9
:10261000446283F8242083F82510F5E7AC000020FD
:10262000000401402DE9F043866FA1B00446002E5E
:102630005ED02568A36826696069C64A2421A1671F
:10264000296821F001012960334329680343E069C7
:102650000A40034313432B606B68E168BE4A23F4CE
:1026600040530B436B609542A369AA6800F0BA809F
:10267000266ABA4922F43062334313438D42AB6079
:102680000ED0B74B9D4200F01582B64B9D4200F034
:102690002E810023C4E91933012021B0BDE8F08365
:1026A000B14BB24AD3F8883003F00303013B022B4D
:1026B00000F23F81134493F8B039B0F5004F00F0B9
:1026C0006381082BE5D801A151F823F02D290008DA
:1026D0003B290008EB28000893260008132900086E
:1026E00093260008932600089326000879280008FE
:1026F00080F874605C2209A83146CDE90466CDE912
:102700000666089607F01DF92568944B9D4200F077
:102710000082934B9D428DD109A8022712960997FA
:10272000FFF7FEFA0646002840F01E828E4B904DC1
:102730009A6D42F400329A659A6D02F40032019269
:10274000019ADA6C42F00102DA64DB6C059703F05F
:1027500001030F2000930322072304A9049005F12D
:1027600048094FF09040DDF800C0079208930696A4
:102770004FF08008FFF7EAFC7E4BAB644846C5E9A2
:102780001466C5E91766C5E91966EF64C5F858808F
:10279000FDF7C4FD0346002840F0E68105F19006F0
:1027A0007549C4F8709010223046C5F89010C5E9FC
:1027B0002738C5E92933C5E92B332C67C5F8947050
:1027C000C5F89820FDF7AAFD0146002840F0CC810D
:1027D000E6662620C5F8B840FDF71CFD2620FFF769
:1027E00035FE26E722F4306213435F49AB60D1F82F
:1027F000883003F44063B3F5006F00F088810CD893
:10280000002B00F07E81B3F5806F7FF442AFFFF7BD
:1028100047FC002800F0818005E0B3F5406F7FF4AD
:1028200038AF4FF40040626802EB420383423FF648
:1028300030AFB0EB023F3FF62CAF56084FF4807339
:102840000027E3FB00674FF0000843463046394657
:1028500004F096FC494BA0F540729A423FF619AF3E
:102860002568E860C4E9198819E0302B7FF411AFBE
:10287000B0F5004F00F0A1804FF4004063684FF6C0
:10288000EF7200EB5300B0FBF3F0A0F110039342A2
:102890003FF6FFAE25680023E860C4E91933636A98
:1028A000002B40F0AF806B68314A23F490436B609B
:1028B000AB6823F02A03AB602B68002143F00103CF
:1028C0002B60C4F8801016682B681A0700F18E8000
:1028D0002B685B0700F1E18000232022A26784F8C7
:1028E0007430E26718462366D7E62548C6E703F545
:1028F000E433D3F8883003F03003202B00F0368126
:10290000B3D87BB1102B7FF4C4AEB0F5004F00F00C
:10291000E280FFF7C5FB0028B0D10023C4E91933DA
:102920002568BCE7B0F5004F00F0CF80FFF7A4FBAF
:10293000F1E7B0F5004F00F0D4800B4B11499B68D4
:102940000868C3F3C2231A4492F8783903F01F03CE
:10295000D840E0E7F369FFEF008000400038014015
:1029600000440040004800400010024078B20008D7
:10297000AC0000206C00024080000240FFFC0F0011
:102980000024F40000000020082B3FF682AE01A1D5
:1029900051F823F0CB2A0008E32A0008B9290008DF
:1029A00093260008D72A00089326000893260008DB
:1029B00093260008BB2900086F486268530803EBA0
:1029C00040004FF6EF73B0FBF2F0A0F110029A4214
:1029D0003FF65FAE20F00F039BB22568C0F34200C4
:1029E00018430023E860C4E9193358E76FF07E43C9
:1029F00032464FF400112046FDF738FC002857D12D
:102A0000256865E7DE0705D56A68A16A22F4003209
:102A10000A436A60980705D56A68E16A22F4803241
:102A20000A436A60590705D56A68216B22F480223F
:102A30000A436A601A0705D56A68616B22F400428E
:102A40000A436A60DF0605D5AA68A16B22F48052AA
:102A50000A43AA609E0605D5AA68E16B22F40052DB
:102A60000A43AA6058060ED56A68216C22F48012C7
:102A70000A43B1F5801F6A6005D16A68616C22F46F
:102A8000C0020A436A6019067FF50DAF6B68A26C3D
:102A900023F4002313436B6005E732466FF07E4357
:102AA0004FF480012046FDF7E1FB00283FF414AF0E
:102AB0000320F2E503F5E633304AD3F8883003F01B
:102AC0000C03134493F8B439F7E5FFF7D5FA00285F
:102AD0003FF423AF71E7FFF7E3FA00283FF41DAF9F
:102AE0006BE7274B27499B680868C3F3C2231A4446
:102AF00092F8783903F01F03D84000283FF40DAF57
:102B00005BE7FFF7B9FA00283FF407AF8BE61A48F6
:102B100089E6012309A811960993FFF701F918BB6B
:102B2000174B1A6E42F480421A661A6E02F4804203
:102B30000392039ADA6C42F00102DA64DB6C0690CD
:102B400003F001034FF4C060029302250322072320
:102B5000049004A94FF090400595CDE90723029E0B
:102B6000FFF7F4FA256865E5FFF7A6FCB0F5004F1E
:102B700001487FF483AE20E70024F40078B2000817
:102B8000001002400000002070B5864C94F83431EB
:102B90000020012B84F844000FD094F83531012037
:102BA0008342DDB284F834010ED0D4F8DC30B3F5C2
:102BB000827F03D0002384F8343170BDD4F8E03034
:102BC000002BF7D1042DF5D10029F3D093B2002BBF
:102BD000F0D094F83521D4F8D850D4F8E460042A21
:102BE00018BF05224FF0000018BF84F83521C4F843
:102BF0003801A4F81631A4F81E316A68C4F810111F
:102C000022F4C042B6F5E06FC4E94900A4F81431DB
:102C1000C4F81811A4F81C316A6029D96B68D4F87B
:102C2000300123F480536B6094F83531042B07BFD7
:102C30005D4A5E4B5E4A5F4BC0E90B32B4F81E3111
:102C40005D4A426300260A469BB205F10C01866389
:102C5000FFF7B6FB054678B3D4F8383184F8346111
:102C600043F010030122C4F8383184F8352170BDD7
:102C7000D4F82C016A68806942F48052B0F5806F04
:102C80006A605FD0D4F830018369B3F5806FCBD12F
:102C90006B6823F480536B60B4F81E3113F0010F9E
:102CA0006B6869D123F400536B60B4F81E31C3F331
:102CB0004E03A4F81E31B7E7D4F8D820D4F82C017D
:102CC0005368D4F8101143F001035360B4F816317F
:102CD0000563C0E90D550C329BB2C562FFF770FB6E
:102CE00000283DD1D4F8D8301A68520625D55A6844
:102CF00042F020025A605A6842F002025A6022688A
:102D000094F84430002184F83411002B7FF455AF3F
:102D100041F287310CE072B694F8443003B930BF09
:102D200062B6BFF36F8F94F84430002B7FF445AF49
:102D300023689B1A8B42EED970BD1A6842F040029C
:102D40001A60D4E713F0010F6B6820D123F480439D
:102D50006B60B4F81631C3F34E03A4F8163191E753
:102D6000D4F8383184F8345143F010030122C4F808
:102D7000383184F8352170BD43F400536B60B4F8EA
:102D80001E31C3F34E030133A4F81E314CE743F464
:102D900080436B60B4F81631C3F34E030133A4F8DB
:102DA00016316FE7AC000020C51A0008451B00086B
:102DB000C91A0008CD1A0008A11A000810B5044667
:102DC000406818B1FEF706FE00236360206918B161
:102DD00007F02EFC00232361206858B10F4B0268D6
:102DE0009A4215D00E4B0F4ADB6B0F4900209847D3
:102DF00000232360E06818B1FEF70EFE0023E360B5
:102E00000A4B4FF48052BDE810409A62FFF766BB50
:102E100000230360FEF7FAF9EAE700BF0FB03713AB
:102E2000AC00002000F8000818F800080004004872
:102E30002DE9F84F164C0A9EA78D043A043F52081C
:102E40007F0897420D468146984628BF174601F1F4
:102E5000040A0024331BBB4228BF3B466FEA84416F
:102E60005A1E6FEA91419B466A8029805A0008EBFE
:102E7000440150461C4407F0B9FA0BF1020200234A
:102E800029464846FEF7ECF9A642E3D8BDE8F88F9C
:102E9000AC0000202DE9F04F254C85B00026CDE98F
:102EA0000266B4F82C8001928946002B3AD04FEA92
:102EB00058088346A8F104089A460D461F4626E0A6
:102EC000019B48F200019A192980631E4FF000010E
:102ED000E9806A80AB806200002105F1080006F0FD
:102EE00030FD294601235846221DFEF7B9F902ABF1
:102EF00003CB26446960286009EB460559F81600A3
:102F0000696802AB564503C3A7EB04070AD2B8456C
:102F1000444628BF3C46B845D2D200E0013CE30716
:102F2000FCD4CDE709F1080005B0BDE8F08F00BF83
:102F3000AC0000202DE9F04F02EBC30689B0738886
:102F4000129F4BB38046894600254FF0010B7368F2
:102F500053F82540C4F3017001280CD0022833D067
:102F6000F0B1344B344ADB6B3449002098470020E1
:102F700009B0BDE8F08FA3B2194659F8232022F01A
:102F80000F0217B1C4F3034422434046FEF79EF9F3
:102F9000738801359D42DAD3012009B0BDE8F08F76
:102FA000C4F3445A0BFA0AF39F4216D3214A0097FE
:102FB000013B019321490390A3B2D46B204AA0475F
:102FC000039809B0BDE8F08FA3B2194659F8232041
:102FD00022F00F02002FD8D1D4E7A3B243F4204C43
:102FE00003930522012305A9ADF81800CDF81A00B6
:102FF0004046ADF814C0ADF816B0FEF731F904A99B
:103000000DF11A00FDF70CFBCAF1200A4FF0FF3357
:10301000C4F3044423FA0AFA049B03990AFA04FA53
:1030200023EA0A0207FA04F422434046FEF74EF967
:10303000AEE700BFAC00002058F8000874F20008AA
:1030400020F8000870B5094E336B054698470446D2
:1030500028B12A46002106F074FC204670BDF36BAF
:10306000034A04499847204670BD00BFAC000020C9
:1030700080F8000890F800081C4991F82430012BD2
:1030800032D030B44C68532301200225CA2281F883
:10309000255081F8240062626362A36823F4807380
:1030A000A360A36823F48053A360086804E00A685F
:1030B000121AB2F57A7F0DD8E36813F00103F6D047
:1030C0000020FF220123626281F8240081F825306C
:1030D00030BC7047FF200322606281F8243081F801
:1030E0002520104630BC704702207047AC000020FD
:1030F000F8B595692B78B5F802E0144602EB430366
:103100000F46B3F8446063690146720003EB4E005A
:1031100007F07AF9E26D698813780E446E8003B97E
:103120003B791370F8BD00BF2DE9F04F2DED048BF6
:1031300090F838308DB007900393002B00F0E780B3
:103140000798828F0469C38FB0F84C5034F912107D
:10315000099502465B00408F08900193002D00F016
:10316000D6801046526C836CB0F84E50B0F840B028
:10317000DFED708ADFF8C8810A95D3180293002228
:103180000901DB4305920B9104939146B6EE009A38
:10319000029A6949134681FB0331D317C3EBA1019E
:1031A00001EB4101B2EBC101029A48BF1831002A7C
:1031B00009B2C0F2B580604880FB0202C3EBA202F4
:1031C00012B20B9B120482FB0356002D76F1000312
:1031D00004DA4FF6FF73ED1846F10006089B194418
:1031E0002A0C34F9111042EA0642A2EB011207EE52
:1031F000902AF8EEE79A69EEA89AB0EE690A05F00F
:10320000B9F9B0EE408AB0EE690A05F021FABBF1D7
:10321000000F6BD0079A136DB2F842A093F800E04C
:1032200006930020054647F6FF7709E0DDF80CE03D
:10323000E25201351FFA85FCE3455044718052D9B2
:10324000019A09EB50039BB202EB8303E618E25E9E
:1032500007EE902AB6F9022006EE902AF8EEE77AF9
:10326000F8EEE66A27EE887A26EE806A67EE807AC4
:1032700066EE886A37EE467A77EEA67AB5EEC07AC1
:10328000F1EE10FAF5EEC07A4CBF37EE497A37EE20
:10329000097AF1EE10FA4CBF77EEC97A77EE897AA7
:1032A000BDEEC77AFDEEE77A17EE10CA17EE901A58
:1032B00017EE102AC445B8BF42464145B8BF414643
:1032C000BA42A8BF3A46B942A8BF3946BEF1000F7C
:1032D000AED19445AAD117EE90CABCEB010E18BF2F
:1032E0004FF0010EA4E7069B83F800E0059B029ACD
:1032F00001331FFA83F911460593049A0A9B194476
:10330000D31A0493099B02914B453FF641AF079BAB
:10331000186843680DB0BDEC048BBDE8F04F18474A
:10332000049B1A46054BA3FB02326FEA121212B23B
:1033300047E700BF00008037ABAAAA2AABAAAAAA17
:103340000080FFFF2DE9F04F2DED0C8B8346A3B0DD
:1033500090F84E4090F84C000C90042CBBF84800BC
:10336000079088469246009337D89BED106AB5EED9
:10337000C06AF1EE10FA00F1F9819BF85630DFF8DF
:103380009C90002B40F08882DBED117A99ED4F7A0A
:10339000F5EEC07AF1EE10FAB8EE478A40F36E858A
:1033A00088EE279AF6EE007A39EE279A00F17F85AB
:1033B00019EE100A03F0FCFE012908BF002880F076
:1033C00076859BF84A30002B00F09482D9F83C3087
:1033D0000F4A10490020984726E0DFF840900E4A37
:1033E000D9F83C300B4900209847DBED117A99ED74
:1033F0004F7AF5EEC07AF1EE10FAB8EE478A11DD99
:1034000088EE279AF6EE007A39EE279A0CE000BF94
:1034100024F90008BCF80008A0F80008AC0000205F
:10342000000000001FED029A079B0BB19BF84E3085
:1034300008939BF84A300293002B40F0A0819BF840
:103440005030022B40F02F879BF84E40012C00F0AB
:1034500048820024389A029B1471AAF8AC4193B1B7
:103460009BF84F30012B00F03D87022B00F0348792
:10347000002B00F02087D9F83C30C44AC449002012
:10348000984700230293B8F1000F4ED0B8F80830E7
:10349000B8F88210B8F88020B8F87E00AAF80410B6
:1034A0009B00B8F88410AAF802209BB203F1300206
:1034B000AAF80000B8F80200AAF80610B8F804103C
:1034C000AAF8080092B2B8F80600AAF80A10B8F8EC
:1034D0000A10AAF80C005F2AB8F82000AAF80E100B
:1034E000B8F82210AAF81210AAF8100040F2D08101
:1034F0006020B2FBF0F100FB112291B200201A46CD
:1035000005460B4601210324AAF814300023AAF82B
:103510001620AAF81810AAF81C50AAF81E00AAF83B
:103520002010AAF81A40AAF82230009901224A81F4
:10353000029A00234B808B81002A00F0F087CDE9AE
:1035400004331D460AF13E0201F10E039FED91AADC
:10355000DFED919ADFED918ACDF804B05E460AF175
:103560004607CB460992CDF80C80CDF818A09946B5
:10357000089AEBB29A4200F21B81099A0023A9F83B
:103580000030A9F8083022F815300135042D09F172
:10359000020906F1100607F15607E9D1D946DDF810
:1035A0000C80DDF818A0DDF804B0BAF8ACC1BCF1AD
:1035B000010F04D1049B079A02FB03F30493009BC1
:1035C0009BF852109A89BBF854005B899BF85360B2
:1035D000AAF89E110799049C12FB01F292B24FF6D1
:1035E000FF718C42134428BF0C469BB24708033836
:1035F0000599A6465D1C9BF85640AAF8A8010098BC
:10360000AAF8A011033F86F001061FFA8EF1ADB2B1
:10361000AAF8AA71AAF8A661AAF8A41182818380E7
:10362000C580002C00F014810098413340220380B3
:1036300002810124AAF8C041B8F1000F03D0B8F804
:103640000C30AAF8C231029B002B40F00B81389A53
:103650009BED106A002313600C9BAAF8B231079B04
:10366000012B40F2F980BBF848300122023BAAF856
:10367000AE31AAF8B0219FED4A7ADFED4A5A28EE22
:10368000077AF1EE007A68EE277AC7EE256A87EEB0
:10369000A57AC8EE257AF6EE005A76EEA56A37EEE0
:1036A000257AFCEEE66A77EEA57ABCEEC77A16EECE
:1036B000903AB5EE406A17EE102AF1EE10FAFCEEE1
:1036C000E77AAAF8B83114BF01230023AAF8B6217B
:1036D000AAF8383017EE902A029BAAF8B421002BE2
:1036E00000F0A280B5EE406AF1EE10FA0CD0C8EE00
:1036F000067A77EEA55AFCEEE57A17EE903A1A0CA8
:10370000AAF83C30AAF83A20DBED117A9BF84A304F
:103710009BF84B20AAF83030F5EE407AF1EE10FA23
:1037200014BF01230023AAF83220AAF82A3008D0B7
:10373000FCEEC97A17EE903A1A0CAAF82E30AAF8C5
:103740002C209BF851300298AAF8BE31012140F29A
:10375000FF7240F60103AAF82410AAF8BA21AAF8C9
:10376000BC3123B0BDEC0C8BBDE8F08FDFF83C9092
:103770000D4AD9F83C3006490020984735E6389A7A
:10378000002313710293AAF8AC317CE6A0F900087B
:10379000BCF800082549123E000000008FC2753DAC
:1037A0000000964300247449D0F80008AC000020C3
:1037B000099A012322F81530019B328993F84C3085
:1037C0000A93184640F2FF1140F2FF33002818BF59
:1037D0000B46CAB19A4217D8737B002B68D1F37B92
:1037E000B07B002840F05582012B00F0B180D94613
:1037F0004F4AD9F83C304F49DDF80C80DDF818A06D
:10380000DDF804B098470CE0D9464B4AD9F83C3073
:103810004849DDF80C80DDF818A0DDF804B0002080
:10382000984700230293C0E6DBED117A9BF84A30FB
:103830009BF84B20AAF83030F5EE407AF1EE10FA02
:1038400014BF01230023AAF83220AAF82A3078E70F
:10385000009B1C811D80EDE60023AAF8AE31AAF87A
:10386000B03108E79BF84D20072A32D8334BDFED03
:10387000349A134493F8E839AAF8A231389BC3ED7F
:10388000009A089B002B40F04C849BED106AE3E605
:1038900003200125002136E69BF84B30002B3FF436
:1038A00073AD284AD9F83C302249002098479CE55E
:1038B000F37B022B94D1D946234AD9F83C301D49D9
:1038C000DDF80C80DDF818A0DDF804B00020984782
:1038D000A7E7389A9BED106A002313600023029338
:1038E000BAE69BF80F30013B012B3FF6B3ADB0E5D4
:1038F0009FED139A9BF84F109BF8502007980028D3
:1039000014BF20460020914208900AD8002B40F0B6
:10391000C384022A00F03286389A1371AAF8AC31B7
:103920009EE5D9F83C30094A02490020984780E5D5
:103930001CFA0008BCF80008E0F9000878B200089A
:1039400000000000E4F80008F0F9000850F9000851
:10395000B84BB6F80680B48803EB8000B8F1180FB6
:10396000D0F8C4A940F2CD821822B8FBF2F102FBD4
:1039700011839BB2002B40F0A6828BB210930B9266
:10398000002C40F0D282DBF83C30AB4AAB492046F9
:1039900098470A9B002B00F0C28300230A9302225F
:1039A00033689A440AF5C34314FB02F228334CF2FD
:1039B0005031013C92B28B420E9208FB04A807D909
:1039C000DBF83C309E4A9D490020984700230A932B
:1039D00008F5C34328334CF25032934207D9DBF841
:1039E0003C30984A95490020984700230A93BAF141
:1039F000000FC0F28A8318239AFBF3F31AB2B8F1CE
:103A0000000FC0F27A83182198FBF1F109B293B24A
:103A100018229AFBF2F002FB10AABAF1000FA1EBF8
:103A20000301B8BF0AF1180A109C15934FF0180E45
:103A30008BB20FFA8AFA09B2B3FBF4F30B9C98FB32
:103A4000FEF016910EFB10880B99B2FBF1F21FFAF3
:103A50008AF1B8F1000FB1FBF4FC04FB1C1C1FFA47
:103A60008CF0B8BF08F118080F900FFA88F0129088
:103A70000F9C0B980133013A92B29BB21892012B22
:103A800012FB004292B2BDF8480000F0F783841A9E
:103A90000F9818BF0124814214BF01200020A3EB1E
:103AA0000003A3EB04039BB20D93A3B211941493F0
:103AB00000F0ED831046029B1393A0EB0A000B9BD2
:103AC00090FBF3F00123179383B219930F9B9B0094
:103AD000FB870A9B8900B987002B00F00F82B37B1C
:103AE000052B00F22784534A02EB4303B3F8D8892D
:103AF000159B1699C3F12904A8F14A0A14FA8AF40D
:103B000022B215924FEA5803521A033BA8F103015F
:103B1000292A1FFA8AFAA4B2FB86B98607DCDBF8E9
:103B20003C30494A45490020984700230A93159B99
:103B3000A8F11408434507DBDBF83C30434A3F4912
:103B40000020984700230A930B9BA7F838A0013B5D
:103B50009B009BB22C2B7C8740F214820023A7F899
:103B60005030A7F85230A7F85430109B013BA7F80B
:103B70004E30179BA7F848300D9B002B00F0E481D6
:103B80000123A7F84A30139B149AA7F84C20002B66
:103B900000F0F583199BA7F84230189BA7F8443032
:103BA000119B002B00F0DF83129B0F9AA3EB020CFA
:103BB0000B9B9CFBF3FCA7F846C00D9B013B9BB203
:103BC0000D930D9BA7F840300A9B002B59D0B37A78
:103BD000172B00F28581092B00F28A83C3F10903B8
:103BE00015227B803A80039A002A00F02A847B8881
:103BF00002EB43039B89F07BBB801AA9FDF75AF9BE
:103C000040BBD946DDF818A0D9F83C30104A0B4922
:103C1000DDF80C80DDF804B09847562303FB05A3BC
:103C2000BDF88410BDF88620A3F87010A3F86E20AC
:103C3000F7E500BF78B2000868FA0008BCF8000891
:103C4000B4FA0008C8FA0008FCFA00081CFB0008D7
:103C500044FA0008BDF87C40BDF884307B85082C10
:103C6000BDF886303B850CD8BDF87E30072B08D8D0
:103C7000BDF880C0BCF1080F03D8BDF88220082A27
:103C80001AD9D946DDF80C80DDF818A0DDF804B0AB
:103C9000C7E5581EC0B204287FF65AAED946BF4ABF
:103CA000D9F83C30BE49DDF80C80DDF818A0DDF80D
:103CB00004B000209847B4E5012101FA03F3501E37
:103CC000013B9BB201FA02F201FA00F03C81013A99
:103CD0009C0101385B0240023B829201019B788289
:103CE000A7F80AC0BC81FA819DF8680093F84D30AE
:103CF0001E93002853D01B9A002A50D0022B00F2AA
:103D0000A482A84C234493F8E439BB82039B002B84
:103D100064D007F1140A00233B830A92AAF810101A
:103D2000039BDDF874C0D3F860E00B90D3E91984ED
:103D300000210B46204608EB1142A2EB0E02624521
:103D40009CB2014403F1010380F2E7830F2BF2D10F
:103D50000B981C46039BD3F878C0D3F874E0AAF8FC
:103D600006400A9C0CEB8C0105220EEB11431B1B39
:103D700002F10108614440F1AB831FFA88F2142A72
:103D8000F3D1D946884AD9F83C308549DDF80C8012
:103D9000DDF818A0DDF804B00020984741E5072BB6
:103DA00000F253827F4A134493F8E839BB82039BA5
:103DB000A3B100233B8307F1140A002840F00681D9
:103DC000B8847883F882AAF80800AAF80E000023C5
:103DD000AAF80A3000233B84AAF81230308996F8FA
:103DE0000BC0A7F830C0012869D00121831EF985D6
:103DF000BB85717B009CA389F98081F001017986E4
:103E00000E99A9F80030A9F808100B44F17BA381A2
:103E100001293B8D2FD002290CBFB0EE686AB0EEAD
:103E2000696A01339BB2B28807EE103A07EE902A16
:103E3000B8EE477AF1EE006A27EE267AF8EE677A56
:103E400006EE900A67EE277AF8EE666A059B67EE43
:103E5000A67A1A4667EE867A002B08BF624667EE9E
:103E60008A7A049B0592FCEEE77A17EE902A1344B7
:103E70000493FFF78ABB9FED4D6AD2E715D400F398
:103E800055829BF84A30002B3FF432ADF5EE407A74
:103E9000F1EE10FA05D1B5EE406AF1EE10FA40F0FD
:103EA000E3829FED439AFFF791BA9FED419AD9F8CB
:103EB0003C30404A3A4900209847FFF7B5BA002302
:103EC000FB85BB8595E7DBF83C300D9301230B9315
:103ED000394A0D9B3249002098470B9B109358E5B7
:103EE000D946364AD9F83C302D49DDF80C80DDF84A
:103EF00018A0DDF804B00020984792E44FF0800845
:103F0000F6E5B8F1000FDED01823B3FBF8F308FB99
:103F100003F3C3F118039BB2002BD4D10123CDF8D6
:103F20002C801093002C3FF42EAD0A9800287FF4CB
:103F300036AD337B002B00F0F080214ADBF83C30BB
:103F40001749984704222BE50D9BA7F84A30149B8C
:103F5000A7F84C30139B002B00F00D82199BA7F89B
:103F600042300023A7F84430119B002B00F0FF8162
:103F7000129B0F9AA3EB020C0B9B9CFBF3FCA7F884
:103F800046C01EE61E2B40F2E1810F221E3BA7F821
:103F90005430A7F85020A7F85220E6E544FA00086C
:103FA000BCF8000878B200086CFB0008CDCC4C3E91
:103FB0000000000010F9000854FA000834FB000863
:103FC0007CFA00089A999D41F902154F1B9B0A93B0
:103FD0001A460123AAF81030002A7FF4A1AE1C9BD8
:103FE0000A9A0B93B3F5167FAAF80620AAF80220C6
:103FF000C0F0B882039BD3F86CC00B9B0021A3EBED
:104000000C0E4FF4C87201FB022474450B4601F1FB
:104010000101F8DB0A99002914BF012400244FF0A4
:104020000101AAF80840AAF80E1000F04382039A92
:10403000D2F870800B9A4FF4C874002004FB13244C
:10404000024602E0162A3FF49CAE0CEB1041091B1D
:104050001FFA82FE404402F10102F3D4BEF1000FC8
:104060000AD00EF1FF3290B208FB00F20CEB1242C4
:10407000A21A9142C8BF8646AAF80AE0002B00F0B7
:1040800053820B994FF4C87202FB13120B920A9AD7
:10409000002A40F04F821446039AD2F858E0D2F832
:1040A0005C800B9A00201444024602E0162A3FF47A
:1040B00068AE0EEB1041091B1FFA82FC404402F16E
:1040C0000102F3D4BCF1000F0DD00A9A5AB90CF1D9
:1040D000FF3292B208FB02F80EEB1848A4EB080876
:1040E0004145C8BF9446A7F820C0002B3FF474AEEA
:1040F000DA1D012393409BB26EE66FEA0801182394
:10410000B1FBF3F1C94309B281E46FEA0A02182353
:10411000B2FBF3F3DB431AB271E4029B0A9304226D
:104120003EE4BCF1010F00F08F8107EE901A5FEDC5
:104130005BAAF8EE67CAF7EE089AB2EE02DAD9ED9A
:104140004F7A1FED5F0AB8EE67AA80EE0A0A04F004
:1041500059FA9BF85030022B2AEE00AA00F2138184
:10416000C74A9BF84E10DDF8088002EB8300D0EDC3
:1041700000DA90ED03CA002900F016810026DFED79
:10418000C18AC14FDFEDC1BA9FEDC1BA35463AE0F1
:1041900032F8133007EE903AF8EE677A8AEE277A13
:1041A0005D44A31CB5F808C0A8889BF84E105A00BF
:1041B00093B20CFB0333023304EB44045B00A40012
:1041C0009BB287EE0B6A1834A4B20136F5B2A9424D
:1041D00007EE903A07EE104AF8EE677AB8EE477AA3
:1041E000C7EE866AC7EE065A07EE900AF8EE677ABF
:1041F00066EEA77A77EEA57A77EEAA7A77EEA97AB5
:1042000078EEA78A30D90BEB05131AA9D87BFCF7F7
:1042100051FE2D019F493A46044618B9D9F83C3061
:104220009847A0460BEB05039B4A9B7BBDF8864055
:10423000052BADD9D9F83C30984A964900209847CB
:104240004FF00008F0EE6B7AA8E7D946944AD9F807
:104250003C309049DDF80C80DDF818A0DDF804B0A2
:1042600000209847FFF7DDBAB8F1000F40F09E80BC
:104270009BED106ACDF80880FFF7EEB9A142234606
:1042800000F0CF80002314930D93119313E40023C7
:1042900017931393199319E4389A00231371AAF80A
:1042A000AC31FFF7DDB8389B1A46029B1371AAF8B0
:1042B000AC31FFF7E8B80123AAF82630AAF8283075
:1042C0009BF85030012B24D0022B1BD033B3D9F8EC
:1042D0003C30744AFFF7D2B80023AAF82630AAF877
:1042E0002830EDE70022AAF82630AAF82820E7E7D0
:1042F000102B94BFC3F11E03C3F1170300223B80B0
:104300007A8070E40023CAF8343001230293FFF767
:10431000BAB8CAF834300293FFF7B5B84FF00113BA
:10432000CAF8343001230293FFF7ADB89FED559AD8
:10433000FFF73EB8DBF83C30584A56490020984712
:1043400000234FF080080A93FFF7D2BB0F2B40F2F7
:1043500082800F3B0F22A7F852300023A7F850208D
:10436000A7F8543001E4119BA7F8463025E4119BCF
:10437000A7F8463025E40D9BA7F84230F1E5139BE2
:10438000A7F8423009E4D9F83C30464A41490020B8
:1043900098479BF84E30002B40D09FED3ACA4FF023
:1043A0000008F0EE4CDAE9E6DFED368ADFED3E7A22
:1043B000DFED376ADFED3D5A9BED106A389B8AEEE0
:1043C000275AF1EE0C7A85EE267A6CEEA7CA3CEEFF
:1043D0002DCACCEE877AB0EE007A37EE8DDAF0EEA9
:1043E000477A7DEE288A78EE8C8A48EEA57A77EEB9
:1043F000A88AC6EEA87AB4EEE76AF1EE10FAC3ED29
:10440000007A7FF729A9FDEEE77AD9F83C40284ADF
:10441000204917EE903A0020A04700230293FFF7AF
:1044200034BA90420CBF012300230D934FF00003D8
:1044300040F0A88017931493119313931993FFF7E7
:1044400045BB039BFFF7D7BBF0EE69AAB0EE69DA74
:10445000F0EE69CA73E60022A7F85030A7F85220A0
:10446000A7F85420FFF781BB9BF84F109BF8502012
:104470009FED049A91427EF4A9AFFFF73FBA00BFC7
:1044800068BC00080000000044FA00080000004377
:1044900000247449BCF8000850BC0008F0FA000879
:1044A0004CFB0008C0F90008000020430AD7233C59
:1044B00098FB00080A99AAF80A1000283FF48AAC71
:1044C000002B58D00B990A9C02FB13120B92E3E5C8
:1044D000052A0BD0511E89B20A9C0CFB01FC0EEB85
:1044E0001C4CA4EB0C04A342C8BF0A461C9B0B93B4
:1044F000B3F5167FAAF80220BFF47CAD0023AAF81A
:104500000830AAF80E3000283FF461AC0A9A002A5D
:104510002DD0039AD2F86CC089E50B981AE4029B5F
:10452000CDE90433FFF741B8FA8B08FB02F20CEB3C
:1045300012420B9203987C8B826E416E02FB04F454
:10454000026E01EB1444A41A3FF51BAC039AF88ADF
:10455000916F526F01FB00F102EB11410B9A0A447B
:104560000B9299E50A9BAAF80830AAF80E300023AE
:10457000AAF80A300A9300231C468DE50123029312
:10458000FEF764BF14931193FFF795BA70B5FEB0B0
:1045900004464FF4E2720D460DA8002103AE05F06B
:1045A000D0F90DAA204605AB00960021FEF7CAFE01
:1045B00008B97EB070BD94F84B202B46314605A853
:1045C000FCF7DEFDF5E700BF2DE9F04FADF5117DFD
:1045D00080469B9C0D46164600214FF4E2721FA8B0
:1045E000994605F0AEF911A83822002105F0A9F985
:1045F00094F8C5715FB16D4B6D4ADB6B6D4900205E
:104600009847002738460DF5117DBDE8F08F0DF174
:104610001C0A09ABCDF800A01FAA31462846FEF7B8
:1046200091FE0028EED095F84B20514609A811AB19
:10463000FCF7A6FD83460028E4D09C99BDF85020E5
:104640000A809D9ABDF8543013801FA906AB05AAB5
:104650002046FBF7EBFFBDF81820BDF814309A4256
:1046600031D21FA94FF4E272204605F0BFFEB5F823
:10467000483013BB0122B44695F84B1084F8C6218C
:104680003CF8242BA4F8C82184F8C51184F8C4315F
:1046900004F5E57706F1540E65460FCD7545386093
:1046A0007960BA60FB60AC4607F11007F4D1B6F848
:1046B0005430A4F8FA315F46A4E795F84E30003B39
:1046C00018BF0123D6E706AA37214046ADF8187077
:1046D000FCF76EFEBDF8183003F0C00393B106ABD3
:1046E00005AA1FA92046FBF7A1FFBDF81830BDF8A9
:1046F00014A003939A451FD9404601228021FCF75C
:1047000047FEAEE706AA31214046ADF81870FCF727
:104710004FFEBDF818204AF6C0439A42DFD0234B23
:1047200093F82820002A3FF46DAFDC6B224A23491E
:1047300043460120A04765E7039B9A980233494608
:1047400004AAA3EB0A0905ABFCF706FD059B1FFABB
:1047500089F94B4528BF4B460593DDF80C9003972C
:1047600005E0059B9A441FFA8AFAD14512D3DDE988
:104770000413524606931FA806ABFCF763FB0746DB
:104780000028EED0069B9A9A4FEA5A014046FCF761
:10479000ADFFE6E7B946404601228021039FFCF7C2
:1047A000F7FDB9F1000F3FF42DAF5AE7AC00002040
:1047B000B8FB0008A8F40008F8FB00081CFC00087F
:1047C0002DE9F04FADF50F7D0C46164600214FF454
:1047D000E27205461DA81F46DDF864920DF114082B
:1047E00005F0AFF8382200210FA805F0AAF83146ED
:1047F00020461DAA07ABCDF80080FEF7A3FD30B917
:104800004FF0000840460DF50F7DBDE8F08F94F89D
:104810004B20414607A80FABFCF7B2FC0028EFD0B5
:104820009A99BDF848200A809B9ABDF84C301380B5
:10483000989802AA4FF0000A03AB3946CDE902AAC4
:10484000FCF78AFC2846FCF70FFFD0B140F6DD1BD1
:10485000DDE90213524604931DA804ABFCF7F2FAFB
:10486000049B989A4FEA5A0180462846FCF73EFF7F
:10487000039B9A441FFA8AFADA4509D8B8F1000F67
:10488000E6D1214B214ADB6B214900209847B7E74D
:10489000B8F1000FF5D06023989900933A461D4B6C
:1048A0002846FEF7C5FA1DA94FF4E272484605F006
:1048B0009DFDB4F8483023B194F84E30003B18BF4A
:1048C00001230122374694F84B1089F8C62137F8A6
:1048D000242BA9F8C82189F8C51189F8C43109F534
:1048E000E57506F1540C3C460FCC644528606960C0
:1048F000AA60EB60274605F11005F4D1B6F85430F4
:10490000A9F8FA317EE700BFAC00002034FC0008B3
:10491000A8F4000880BC00082DE9F04F2DED028BB3
:10492000ADF21C7DCDE9041203931B7804460A2BDB
:1049300013D8DFE813F023000B007400BF005D0103
:1049400033024703D4043805A6052300FCF7EEFE26
:10495000002840F09686039B1B78B94EF46BB94A49
:10496000B9490020A04700231C46039A2046137033
:104970000DF21C7DBDEC028BBDE8F08FB04EDDF872
:1049800048078822002104F0DCFFD6ED4F7ADFEDE6
:10499000AF5ADFEDAF6AF8EE677AB6EE006A85EEE1
:1049A000A77AF4EEE67A37EE067AF1EE10FABCEE6C
:1049B000C77A17EE103A9FB200F3B7859FEDA57A3C
:1049C000F4EEC77AF1EE10FA00F1AF85A7F110030B
:1049D0009BB2EF2B40F2CE869FED9F7ADFED9F6A70
:1049E00077EE877A37EE877ABCEEE76ABCEEC77A55
:1049F00016EE108AB8EE477A77EEC77A67EEA67A97
:104A0000FCEEE77A17EE905ACDE90085944BF46BF3
:104A1000944A95490020A047039B1B789EE7FCF72A
:104A200085FE8246002896D0049941230022204624
:104A3000FEF730FA0021038C079307EE904AA0F1AD
:104A4000020B0D468E464FF6FF7C41F270791BE05B
:104A500030F911703BF9114007EB09023F1B9F42EF
:104A6000C0F25E85474500F35B8582EAE273A3EB03
:104A7000E2739BB2634503D2B5009C46ADB2D64605
:104A80000F2E00F0288701314B1E03FB03F3C3EB0D
:104A9000C3035A0002F51678C83B8EB20029D7D15D
:104AA000B0F900304B44002BB8BF5B429BB263456A
:104AB000E2D3E8E7FCF73AFE00283FF44CAF049954
:104AC000002220232046FEF7E5F9B0F90020054634
:104AD000012116460027134635F9022FC3F5167338
:104AE00013449BB2B3F5966F3FF635AFB242A8BF01
:104AF0000F4601F10101A8BF16462029EBD1072F6F
:104B000000F2E087002307F10802D21A002A00F021
:104B1000EA8746A9D51800EB4505069100EB43004E
:104B200030F9026B07EE106A03FB03F606EE903ACB
:104B300007EE906AB8EEC77AF8EE677AF8EE666A22
:104B4000854281ED007AC1ED017AC1ED026A03F17F
:104B5000010301F10C01E3D106982EA9FCF708FE30
:104B600000283FF4F8AE9DED2E6AB5EE406AF1EEF6
:104B700010FA3FF4F0AEDDED2F6AF5EE406AF1EE8B
:104B800010FA3FF4E8AE9DED307AB1EE477AC7EE09
:104B9000267AF5EEC07AF1EE10FAFFF6DCAEF1EE11
:104BA000666A86EE867AB5EEC07AF1EE10FA7FF587
:104BB000D2AEB7EE007A77EE877AFCEEE77A17EEA0
:104BC000903A9AB23F2AC3F34E033FF6C4AEDDF8E3
:104BD000482783F01003D38020464FF44571FCF73B
:104BE00015FD04460423002C7FF4BFAE00F098BCF2
:104BF000FCF79CFD00283FF4AEAE502320460499FC
:104C00000022FEF747F900F1A0030693DDF84837CC
:104C10000A3307EE904A4FF0300B1C46DFF84C90F9
:104C2000B0F900204FF0000847F6FF7EC2467746F5
:104C300006464FF6EC716FF01B034D462FE000BFA8
:104C4000AC00002048FC00086CFC0008F902154F7D
:104C50008096984C8096984BBD3706350024744951
:104C6000F800010880FC0008ACFC00080080FFFF91
:104C70007245BCBF98469646242918D036F9022FB3
:104C800036F8023CD31A1BB29F42A8BF1F4601F15F
:104C9000080C9D42B8BF1D460BB21FFA8CF1002ACA
:104CA000E6DA4A45E8DD24299A469146E6D1A5F59B
:104CB0001C55103DADB244F620639D423FF64BAE0D
:104CC000002F7FF448AE19F5004F47F6FF7300F050
:104CD00045869E4500F09886A8EB0A08B8F1080FB3
:104CE0007FF439AE4FEAC908AEEB090E98FBFEFE21
:104CF000AAEB0E080FFA88F8B8F1000FC0F286840C
:104D0000B8F11F0F3FF727AE1FFA88F8A64A0BF13C
:104D1000010382F815B05FFA83FB069B24F8028F2B
:104D2000103083427FF47AAF602317EE900ADDE9FA
:104D3000041200939D4B17EE904AFEF779F8DDF8C8
:104D400048379B4A9B890093DDF848379949DD88AD
:104D500020460723FEF7EEF8954A9649009508236A
:104D60002046FEF7E7F80323914A92490093204634
:104D70000923FEF7DFF806238D4A8E49009320466B
:104D80000A23FEF7D7F8204640F2D531FCF73EFC67
:104D900004460523002C7FF4E8ADC1E3FCF7C6FC14
:104DA00000283FF4D8AD0499DFF81092DFF81082A4
:104DB0004FF4407300222046FEF76CF80DAB0893C9
:104DC0000593002300F5C061049307EE904A46ABBB
:104DD00007912EAD069345AF824616AC5646B6F9FE
:104DE000021036F9040BFCF785FD44F8040BA542CC
:104DF000F5D12DACA3465646B6F96210B6F960005F
:104E0000FCF778FD4BF8040F5F4506F10406F3D17B
:104E1000069B049A15AE9818002154F8043F56F8E2
:104E2000042F9B1A4B4540F3AA83A3F5C9237E3B6D
:104E30004B45FADC002BB8BF5B429942B8BF19461C
:104E4000A74240F8043BE8D1059B491043F8041FF2
:104E50000593049B60330493079B0AF1C00A5345F2
:104E6000BBD1002017EE904A089E0146034656F833
:104E7000042F8A42C8BF184603F10103C8BF114678
:104E8000082BF4D10EAB00EB400153F82060069BD9
:104E90000DF1B70203EB41110DF1CF0051F8043BC6
:104EA000B342ACBF0023012302F8013F90421376C6
:104EB000F4D1002001460123002900F06B83EA5C55
:104EC000002A00F05F8301300133302BF4D1A0F1D0
:104ED0000C03082B3FF63FAD01EB5000172802D919
:104EE00018381728FCD880B2820092B202F130053F
:104EF000DDF84837ADB25F2D188140F234852E4B76
:104F0000A3FB05139B0903EB4303A5EB43139BB2E0
:104F100000271546B8461A46012626490092212345
:104F2000234A2046FEF706F8214A2249009522230B
:104F30002046FDF7FFFF03251D4A1E490096012369
:104F40002046FDF7F7FF1A4A1A490095022320462A
:104F5000FDF7F0FF164A1749CDF800802B46204692
:104F6000FDF7E8FF124A1349009704232046FDF796
:104F7000E1FF0F4A0F49009605232046FDF7DAFFAF
:104F800000230B4A0B49009320460623FDF7D2FF6E
:104F900020464FF47B71FCF739FB04460623002CB6
:104FA0007FF4E3ACBCE200BF0000002080BC00083E
:104FB00040BD000884C60008ABAAAAAA3F2403008B
:104FC000C1DBFCFFFCF7B2FB079000283FF4C3AC49
:104FD000D34EDDF84827D34DD6F83C31B2F87C707B
:104FE0000499A5FB03239D0900224FF4407320463A
:104FF000FDF750FF46AB07FB05F7089000F10208EC
:1050000006930DF58A790DF21475B8F9001038F988
:10501000020CFCF76FFC49F8040F4D4508F1040839
:10502000F3D1002307EB47029A46CDE92E33CDE9B1
:105030003033CDE93233CDE934330593D300069ACA
:10504000DFF800832EAD02F15C09AB464FF6FF722C
:1050500009955546DDF81CA0049207EE904A4C468F
:105060009946A4F15C00FBF739FCA4F1600C002028
:105070005CF8043FDCF860206445A3EB02031844AD
:10508000F6D10028C0F2B482800940F6945303FBA5
:1050900000F0400D07FB00F009EB1020CBF80000FA
:1050A00025B15BF8043C984280F09384DBF8003033
:1050B000A3F16673A3F54A33203B002BB8BF5B42D4
:1050C000434505F1010238BFCDE9045A95B238BF16
:1050D0009846082D0BF1040B04F1C004C1D1059BC7
:1050E000099D17EE904A002B00F07384DDF84837D5
:1050F0008D488E4A19463727049B4B8400938C4970
:1051000080F824700C2317EE900AFDF713FF204659
:1051100040F21641FCF77AFA002800F00282089B60
:105120009FED846A2F461A4603F1C00403F5D86C3C
:10513000F7EE006AA4F1C0034FF0000EB3F90200CD
:10514000B3F9001000FB00F0043301FB01019C42A5
:105150008E44F3D107EE90EAB8EE677AC034C7EE1A
:10516000067AA445B1EEE77AC6EE877AE7EC017AD3
:10517000E0D1089B03F5C060069BB2F90010F5EC86
:10518000015A06EE101AB2F9021006EE901AB2F9A0
:10519000601007EE101AB2F9621007EE901AB8EE1E
:1051A000C66AF8EEE66AB8EEC77AF8EEE77A26EE57
:1051B000256A66EEA56A67EEA57A27EE257A26EEC1
:1051C000065A67EE075A26EE266A27EE277A66EE1B
:1051D000A66A67EEA77AC032904283ED005A83ED4B
:1051E000016AC3ED026AC3ED185A83ED197AC3ED63
:1051F0001A7A03F10C03C0D1069816A91022FCF705
:10520000B7FA0446002800F08C819DED166A9DEDEA
:10521000175ADDED186ADFED484A9FED484AF1EE76
:10522000C67AB1EE007A26EE076A25EE057A26EEFA
:10523000266AF6EE005A36EE476AC5EEA76AB1EE68
:10524000C67AB6EE086A77EEC67A26EE877A67EEF9
:10525000A47A66EE856AB7EE005A37EE467A76EEA5
:10526000856A77EEA57AB3EE0F6A66EE846A27EE5A
:10527000247AF4EEC67AF1EE10FA76EEA56A37EEED
:10528000257A00F39C81F5EEC07AF1EE10FA48BF62
:10529000002340F12C84DFED2A7AF4EEE76AF1EE88
:1052A00010FA40F396816FEA83536FEA9353F3EE5B
:1052B0000F7AB4EEE77AF1EE10FA00F37D81B5EEE5
:1052C000C07AF1EE10FA48BF002240F11784134370
:1052D000DDF84827A2F856300723FFF746BBFCF756
:1052E00025FA00283FF437AB10230499002220460A
:1052F000FDF7D0FDDDF84837B3F85660002506F01D
:105300001F0EC6F3441CB60A00F102090EF1300E5E
:105310000CF1300C203E0495AB46A8462F461CE00D
:10532000AC000020D34D62100000002040BD0008FA
:1053300084C6000800004042000080420000004295
:1053400000007C4240420F005B45474600F29581D9
:1053500098460135082D00F0658130F9252039F98E
:1053600025300EFB02F203FB06FA002A03FB0CF3C6
:10537000B8BF3F32BAF1000FB8BF0AF11F0A002BC5
:10538000B8BF3F33921102EB6A1243F38F1312B28C
:1053900003FB03F302FB0233BB42A9B2D9D9434555
:1053A000D2D81F46D5E7FCF7C1F900283FF4D3AAAD
:1053B0006023049900222046FDF76CFD46AB0546AC
:1053C0000693871C99464FF0000840F6B73637F928
:1053D000281035F9280001FB01F300FB0033B3422C
:1053E00008F101087FF7B7AAFCF784FAB8F1300F8B
:1053F00049F8040BEBD1069B45AD0DF1B6062946E5
:10540000324603F15C0751F8043F002BB8BF0F335D
:1054100002321B118F421380F5D10698FBF75EFA1A
:10542000002155F8043F2A6EAF42A3EB0203194452
:10543000F7D1C34BC81783FB0131C0EBA11000F5B6
:10544000994330334CF6621293423FF684AADDF85A
:1054500048370DF1E601223336F8022F23F8022FE8
:10546000B142F9D1DDF8483740F27B41A3F854004E
:105470002046FCF7CBF804460923002C7FF475AADC
:105480004EE0FCF753F900283FF465AA0022049986
:1054900020464FF49C6314460DAEFDF7FBFC2EAF87
:1054A0000EAA00920194334646AA902134603C60D3
:1054B0000E9416948046FBF719F900283FF44BAA86
:1054C000CDE9007416AB46AAF02108F59070FBF701
:1054D0000DF900283FF43FAA39680E98994B9A4D70
:1054E00032680194091A03FB01F305FB00F01B0C61
:1054F000C3EB503305FB02F2DDF84807009605FBCD
:1055000001F1520BC0E91712836546AA0CAB40F2B9
:105510001F1108F20230FBF7E9F8002840F077820B
:105520008A4E039B1B78FFF719BA9FED897ADFED4E
:10553000896A894B894A8A4977EE877A002037EE53
:10554000877ABCEEE76ABCEEC77A8DED006AB8EEEA
:10555000477A103F77EEC77A16EE108A67EEA67A82
:10556000FCEEE77ACDED017AF46B17EE905AA04786
:10557000EF2F3FF649AAD4E703F5C9237E3343450D
:10558000FADB57E40B283FF6A2AC0133302B3FF493
:10559000E2A910465A1E2A44591C12F8016F4B1EEC
:1055A0002EB112F8016C16B9194601208CE430298D
:1055B00000F091820131F0E74FF4787287E6DFED79
:1055C0006C7AF4EEE76AF1EE10FA4FF01F033FF742
:1055D0006AAEF5EEC06AF1EE10FA3FF568AEFCEE89
:1055E000E66A16EE902A92B243EA82231BB25EE686
:1055F0004042800940F6945303FB00F0400D07FB46
:1056000000F0A9EB1020CBF8000049E5C8F1000834
:105610001FFA88F8B8F11F0F3FF69DA948F020083F
:10562000FFF774BBB7EB9B0FBFF495A9DDF84837C4
:105630004C4A1946049B0B8420464B4900930B238C
:10564000FDF778FC0023474A474900932046092389
:10565000FDF770FC7E23434A4349009320460A230A
:10566000FDF768FC204640F25241FBF7CFFF0446AD
:105670002B46002C7FF479A952E7D84604919B462B
:1056800067E646AA32212046FBF792FE12230499D0
:1056900000222046FDF7FEFB054600236F88BDF87B
:1056A000180135F804EB9C464FF6FF7640FA03F2FA
:1056B000D20799B20AD535F81320D21B002AB8BFF9
:1056C000524292B2B2423CBF16468C460133102B76
:1056D000ECD10CF1FF330D2B3FF63DA90CF100434B
:1056E000013B05EB430635F81330728841F28731F0
:1056F0009B1A8B427FF72FA9B388D21A8A427FF771
:105700002AA94FF6FF7398423FF425A9DDF84837E0
:10571000144AA3F800E0A3F802C01349CDF800C072
:1057200025232046FDF706FC204640F23221FBF7F8
:105730006DFF04460223002C7FF417A9F0E600BF9A
:10574000ABAAAA2AA82A0400AA0A0100AC000020D9
:10575000BD37063500247449F800010880FC0008B4
:10576000ACFC000840BD000884C60008E8385BB502
:1057700000007C4277EEC77A5FED046A1FED047A81
:10578000DDF8482767EEA67A3F2F77EE877AFCEEA2
:10579000E77A17EE901AA2F8841000F21F81DDF864
:1057A000481700222F2F88BF3B46A1F88030A1F870
:1057B0007E20A1F88220DDF848270498A2F87C70AA
:1057C00046AB2EAD4FF00008059906932A46C5F862
:1057D0000080C3F80080FBF7BFFC2046FBF744FFC6
:1057E00000283FF49EAE069BDFF82CB31B68DDF863
:1057F00048A708EE104AC8F534640A349C4228BF12
:105800009CB22F68C24B38BFA4B24FEA580903EBD1
:10581000890062083946FBF761FABAF87E301C222B
:10582000CDE9002341465B4622463846FBF77AFA2B
:1058300000283FF476AEBAF880201A23CDE9003272
:1058400041465B4622463846FBF76CFA86464FF0E7
:105850001B0C41465B4622463846BEF1000F3FF422
:1058600060AECDF800C0BAF882C0CDF804C0FBF736
:1058700059FA86464FF0190C41465B462246384697
:10588000BEF1000F3FF44DAECDF800C0BAF8847001
:105890000197FBF747FA0746049A18EE100A2346C9
:1058A0004946002F3FF43DAEFBF720FF069B1B68E7
:1058B00098441FFA88F840F6493290459BD918EE73
:1058C000100A40F25B11FBF7A1FE04460123002CF5
:1058D0007FF44BA824E6BEF1000F3FF43CA8DDF8AE
:1058E000482785F030039380418C0693B0F88030D0
:1058F0005B1AB3F5FA6FFFF62EA8864ADDF81CC0D6
:105900004FEA034AA2FB0A3A002522304FEA5A1A0C
:105910002F468B4610224FF6FF780AE0A64288BF3A
:105920004FF0000E013292B2402A554421D030F897
:10593000021FA1EB0C03002BB8BF5B429BB20BEB29
:105940001546434506F548793CBF984617464945F4
:1059500001F54874E2D94FF0000EE3E79E457FF46D
:10596000CBA9FEF7F8BF03274FF001080026FFF789
:10597000D4BA17EE904ABEF1000F3EF4ECAFDDF85A
:10598000482701234FF47E505781ADF81801DDE917
:10599000041217EE900A009346ABFDF749FA5E4AEF
:1059A0005B49009726232046FDF7C4FA069B5A4A16
:1059B0005749009320462423FDF7BCFA204640F2C5
:1059C000C521FBF723FE04460323002C7EF4CDAF54
:1059D000A6E5524B372283F82420A2E5DDF84827BC
:1059E000DDF84817BF2F4FF00103A2F87E3096BFB5
:1059F000A7F14002FA08C2F3CF0207F00703A1F8AB
:105A00008020A1F88230D6E6D046FFF775B916ABF4
:105A100001930EAB009346AA0BAB4FF4907108F5BF
:105A2000A860FAF763FE00283FF47AADCDE900479D
:105A3000234646AA08F5F0604FF49071FAF756FE37
:105A4000044600283FF46CADDDE90BE9D6F8008090
:105A5000DDF858C00E983F683149324A324BA7EB07
:105A60000C07A9EB0E06A0EB080001FB06F102FBF8
:105A700000F203FB07F305FB0EFE05FB0CFC05FB28
:105A800000F005FB08F805FB06F6090C05FB07F519
:105A9000120CDDF848771B0CC3EB5C33C1EB5E31B5
:105AA000C2EB5832C7E91D353867C7E91A62796613
:105AB0003846FAF701FEDDF84837C3F888000A23B4
:105AC000FEF753BFFB1F172F88BFC3F120023FF61D
:105AD0001DA8FFF718B8A0F10C03082B3EF63BAF4A
