:020000040800F2
:100000000000012091810008356E0008316E000863
:100010002D6E0008296E0008256E00080000000003
:100020000000000000000000000000001D6E00083D
:10003000216E000800000000196E0008096E00081B
:10004000E1810008E1810008E1810008CD6D000830
:10005000E1810008E1810008E1810008E1810008F8
:10006000E1810008B96D0008E1810008E181000824
:10007000AD6D0008A16D0008E1810008E181000874
:10008000956D0008896D0008E1810008E181000894
:10009000E1810008E1810008E1810008E1810008B8
:1000A000E1810008E1810008E1810008E1810008A8
:1000B000E18100080000000000000000E18100086C
:1000C000E1810008616D0008E1810008E18100081C
:1000D000E1810008E1810008C9690008E1810008A8
:1000E000B569000849690008000000000000000030
:1000F0000000000000000000000000000000000000
:1001000000000000E181000800000000E18100081B
:100110000000000000000000E1810008E18100080B
:10012000E1810008E1810008E1810008E181000827
:10013000E181000800000000000000000000000055
:10014000E1810008E1810008E18100080000000071
:10015000E1810008E1810008E1810008E1810008F7
:10016000E1810008E1810008E18100080000000051
:10017000E1810008E18100080000000000000000AB
:10018000E1810008E1810008E18100080000000031
:1001900010B5054C237833B9044B13B10448AFF3C1
:1001A00000800123237010BD90000020000000009B
:1001B00064A5000808B5034B1BB103490348AFF31E
:1001C000008008BD000000009400002064A5000825
:1001D0000F49104A086813691B0704D50D4B1869AD
:1001E000C0F3C00070470B681B1AB3F57A7FF5D2D5
:1001F00072B613691B0700D430BF62B6BFF36F8FAE
:1002000013691B07EFD5034B1869C0F3C000704793
:10021000AC00002000040048144BDB68C3F3022349
:1002200010B4C3F107041A1D042C28BF0424062AA5
:100230004FF0FF3202FA04F28CBF033B002321EAA5
:1002400002019940431C0AD000F1604000F5614072
:100250000901C9B280F800135DF8044B7047034BE5
:100260000901C9B283F82310F6E700BF00ED00E0F2
:10027000F0B40568294F064601E0581C06D1EC6928
:1002800031EA0400F9D10020F0BC70473868801AC8
:10029000834227D333B328684407F0D5E8690005C3
:1002A000EDD54FF400632B6255E8003F23F4D07383
:1002B00045E80032002AF7D1326802F1080353E81A
:1002C000003F23F0010302F1080040E8003100295B
:1002D000F3D12023B36786F87410F3670320C6F8C0
:1002E0008030D1E755E8003F23F4D07345E8003271
:1002F000002AF7D1326802F1080353E8003F23F0E7
:10030000010302F1080040E800310029F3D1202365
:10031000B36786F874100320F367B5E7AC000020DC
:100320000346214A0068904295BF204A204A21494D
:10033000214930B4024419641421B2FBF1F2920055
:100340005A64022283F8252001689D68D3E90524B8
:1003500021F4FF4121F070012A430A43224342F075
:100360008002B5F5804F026014D0196C114A914299
:1003700008BF12495A6C18BF114902F01C000F2423
:100380000A68844022EA04020A605A680C688240C3
:1003900022430A6000200122D86383F8240083F8F6
:1003A000252030BC704700BF07040240F8FFFDBFA6
:1003B000F8FBFDBF0000024000040240A80002401C
:1003C000A80402402DE9F041654C94F82430012B3B
:1003D00000F0C28061680122022384F8242084F89E
:1003E00025308E680278056A16F0400616BFC6787A
:1003F000C670B605092A09D900230A3AD2B2092AD9
:1004000003F10103F9D842EA0312D2B24378092B6F
:100410004FEA024209D900270A3BDBB2092B07F158
:100420000107F9D843EA0713DBB290F802E0BEF106
:10043000090F4FEA03280DD90027AEF10A0E5FFA23
:100440008EFEBEF1090F07F10107F6D84EEA071E2E
:100450005FFA8EFE90F824C0BCF1090F0DD9002779
:10046000ACF10A0C5FFA8CFCBCF1090F07F1010733
:10047000F6D84CEA071C5FFA8CFC436947681D43B9
:100480002E43324348EA0203826AC669CA255320D2
:100490004D6243EA0E0E4862B2F5807F4EEA0C636D
:1004A0008A6846EA070639D022F400728A60CA6870
:1004B000D2B262F42072CA60256804E02068401B52
:1004C000B0F57A7F20D8CA6812F00202F6D00B622B
:1004D0008E648B6843F400738B608B6843F4005325
:1004E0008B60204B1A6842F480221A609A68FF26BB
:1004F00042F48022012500209A604E6284F8240094
:1005000084F82550BDE8F0810323FF2084F82420DF
:100510004862184684F82530BDE8F08122F48072E4
:100520008A60CA68D2B262F4C072CA60256804E008
:100530002068401BB0F57A7FE6D8CA6812F0010245
:10054000F6D0CB614E648B6843F480738B608B680C
:1005500043F480538B60C4E70220BDE8F08100BF04
:10056000AC0000200004014009494A68D36823F028
:10057000A003D360086804E00B681B1AB3F57A7F08
:1005800004D8D3689B06F7D5002070470320704736
:10059000AC00002008B5114BDA6822F08002DA6066
:1005A0009A68920603D4FFF7DFFF88B908BD9A68FE
:1005B00022F020029A60FFF7D7FF18B1084B032002
:1005C00083F82500054A936843F02003936008BD33
:1005D000034B032083F8250008BD00BF002800401E
:1005E000AC0000200E494A68D06810F0400001D0ED
:1005F000002070474FF0FF3330B4D3600C68032500
:1006000009E003280AD00B681B1BB3F57A7F84BF6F
:1006100081F825500320D3685B06F2D530BC7047C3
:10062000AC0000200288438843EA02430B60704715
:10063000DFF880C02DE9F04F023802390CF1E209F1
:100640000CF1E40B4FF0000A40F6DE1830F8025FC0
:1006500031F8024FA54220D09CF800400BEBC404B7
:10066000658825B36768002607EB850E47F6FF759A
:1006700057F8044BA4B2A54228BF2546A64238BF6E
:100680002646BE45F4D17600B6B26D00B24538BFFD
:10069000B246ADB2A84528BFA8460CF1010CCC4526
:1006A000D4D1A2F80080A3F800A0BDE8F08F4FF6E7
:1006B000FE75EFE780A500080B4A30B4411E00F13B
:1006C00087054FF0FF3011F8014F08236040C40741
:1006D0004CBF82EA50004008013BF8D18D42F2D174
:1006E000C04330BC704700BF2083B8ED2DE9F04F08
:1006F000054687B0002405EB410E02900592104696
:1007000004910393AEF1120EAA1E27460194A1464E
:10071000A2464FF0010C40F2EE2B14E0BAF1000FAC
:1007200030D14B4535DD99460124019E7642B342D6
:10073000BCBFA8EB050301938F4238BF0F46964517
:1007400000F102002BD0558A32F8021F6B1A03F514
:100750000046B6F5803F38BF038088462CBF4FF077
:10076000000C11885B45D9DC594E9945B8BF9946B4
:10077000B342DADA002C0ABF4FF0000CA2464FF069
:10078000010AD2E74B4506DD994654464FF0000C6E
:10079000CBE70124C9E754464FF0000CC5E7BCF194
:1007A000000F05D14FF0000A504607B0BDE8F08FAA
:1007B000002CF7D0BAF1000FF4D0049A059E0497EC
:1007C0000023CDF81490A2F11C0E123698469C46D8
:1007D0001D461F46994636F9023F03EB830203EBA1
:1007E0004203304631460A2231F902BD30F9024F48
:1007F00002FB0B33A2F1020B013A0BFB0433F3D1E2
:10080000634561DC434501DA9846A94601357545E3
:10081000E1D14CF250339C4538464C46049FDDF8FC
:100820001490BFDD2B4B9845BCDAB9F1000FB9D05D
:10083000019B002BB6D0029B11991B88FF00DB00A7
:1008400041B1BB4204D2DA434A443A44B2FBF9F222
:1008500011990A60109A002AA6D0039A002AA3D000
:10086000024602990E3231F81210B3EBC10F4FEA73
:10087000C10005D2DB434B440344B3FBF9F3D21A66
:10088000029B04F10E0933F81930B7EBC30F4FEA9E
:10089000C30107D90198431E3B445B1AB3FBF0F335
:1008A000A9EB0309002AFFF67DAFB9F1000FFFF6AF
:1008B00079AF4A453FF776AF109BA9EB0209C3F821
:1008C0000090039B1A606FE79C462F469EE700BF8F
:1008D00012FDFFFFB03CFFFF704700BF70B4124E27
:1008E000124D00F1BC04002143680B44024640F85D
:1008F000043F12689A1AB24209DD50F8042CA3F59D
:10090000C9237E3BA1F5C92103607E399A1AAA4208
:1009100006DA03F5C9237E3301F5C92103607E3170
:100920008442E1D170BC70473F240300C1DBFCFF6F
:100930000368D0F8E820C0F8F0205A68184610473D
:1009400070B48C8893680E898D79CA799A70003C4E
:1009500018BF01249E801C705D70986070BC704749
:10096000D0E90F23816B0069184700BF0068C36896
:10097000184700BF704700BFF8E700BF00688368F2
:10098000184700BFFAE700BFF0E700BFF0B4314BF3
:10099000314E1B68056882B000248DF8034034682E
:1009A000376803EB8303C4F16404C3EBC30322443D
:1009B0001B0D02FB03F30193AB6819420AD12CE033
:1009C000019C019B013B0193AB68002C08BF0022F6
:1009D000194222D0B1F5C06F05D12B7BDBB28DF867
:1009E00003309DF803303368DB1B9A42E8D86B680C
:1009F000426823F0E003B2F5827F6B601AD0836A0D
:100A0000B3F5005F0DD00122002380F85D2080F84F
:100A10005C30032002B0F0BC7047002002B0F0BC94
:100A200070472B6823F400532B602B6843F400536A
:100A30002B60E8E78368B3F5004F02D0B3F5806F11
:100A4000DDD12B6823F040032B60836AB3F5005F90
:100A5000D9D1E6E700000020AC00002070B4294D99
:100A6000294B2A681B6804682E68C2F1640211448D
:100A700083B0C3F3CB3301FB03F30193A3681A06DE
:100A80000DD52B689B1B8B420DD2019A019B013B1C
:100A90000193A368002A08BF00211B06F1D400209F
:100AA00003B070BC70476368426823F0E003B2F59E
:100AB000827F636016D0836AB3F5005F09D001229C
:100AC000002380F85D2080F85C30032003B070BC08
:100AD0007047236823F400532360236843F40053D2
:100AE0002360ECE78368B3F5004F02D0B3F5806F65
:100AF000E1D1236823F040032360836AB3F5005FEC
:100B0000DDD1E6E7AC00002000000020836910B5CD
:100B10000446BBB10D4B93F828204AB963697BB1F9
:100B20000A4B0B4ADB6B0B4900209847002010BD95
:100B3000DB6B094A0749012098476369002BEFD115
:100B4000012010BDC369002BE4D1E7E7AC00002011
:100B5000B0E4000894E4000878E4000870B4016987
:100B6000B0F8422090F8383031F81220032B08BF3B
:100B700082F4004240F2E51303FB02F31B0C826C8B
:100B8000A3F589739BB21380828F31F812204AB18A
:100B9000B0F8402031F81220012A03D9C26C012498
:100BA000147002E0C26C00241470C48F428F31F8BC
:100BB000145031F81240B0F9441040F2E51202FB33
:100BC00005F2120CC2F5897213441BB2002BB8BF98
:100BD0005B42D0E914651BB2A4F10102006899429E
:100BE000B2FA82F24FEA5212ACBF002301233270F4
:100BF00042682B7070BC104770B50446806978B1AC
:100C0000E36943B10F4B93F8282022B1DB6B0E4A06
:100C10000E49012098472068BDE870408368184756
:100C2000084D0B4AEB6B09499847E3693BB195F8CE
:100C3000283023B1EB6B044A044901209847002077
:100C400070BD00BFAC00002004E50008F4E400081B
:100C5000D8E400082DE9F047C26DD0F81880066985
:100C60000023A8F8023004461D46137000F14C071B
:100C7000994657F8043B03B3B3F838C0B3F8900073
:100C8000B3F89210B3F8D82006EB400006EB410110
:100C900006EB420206EB4C0CC3E91301C3F8A42097
:100CA000C3F814C088F800501868D3F8DC204168F5
:100CB00083F8E490C3F8E02088470135EDB2042DB5
:100CC000D7D12068BDE8F04743681847704700BF98
:100CD000704700BF704700BF704700BF52B101EBC3
:100CE0008202043850F8043F4B801B0C0B80043107
:100CF0009142F7D1704700BF30B583B000EB42009E
:100D00000D4601A91C46FFF78DFC019A22F00F0247
:100D100004B12A430092014601226846FFF7DEFF34
:100D200003B030BD2DE9F04F87B0BDF84070DDF85D
:100D300044A003EBC7077B8883B381460E4601EBD3
:100D4000020800254FF0010B7A6852F82540620036
:100D500092B2B242C4F301701DD342451BDA01289E
:100D60000CD0022836D0E8B1324B334ADB6B334922
:100D700000209847002007B0BDE8F08FBAF10003CB
:100D8000A2EB060218BF012392B2C4F30341484606
:100D9000FFF7B2FF7B880135AB42D5D8012007B001
:100DA000BDE8F08FC4F344530BFA03FC921BE245F9
:100DB00091B21ED30CF1FF331E4A0193CDF800A06F
:100DC000D46B1F4A03900B461C49A047039807B0F9
:100DD000BDE8F08F921BBAFA8AF35B0992B2C4F3B2
:100DE00003414846FFF788FF7B880135AB42ABD80B
:100DF000D4E709EB410004A90393FFF713FC039B1D
:100E00004FF0FF32C3F12003C4F3044422FA03F38A
:100E1000049AA34022EA03020AFA04F401461443A6
:100E200005A801220594FFF759FF7B880135AB42E5
:100E30008AD8B3E7AC00002058E500084CE500086C
:100E400014E500082DE9F04FC2F51D669A461B68AF
:100E5000164C0E36B34298BF9EB2154B054688BF5E
:100E6000B6B2500803EB800083B01746720888467C
:100E7000023DFFF733FF04F1E10904F1E40B7D23A8
:100E800001E014F8013F35F8022F3946CDE9003270
:100E900040465B463246FFF745FF4C4501D00028EF
:100EA000EFD1CAF8006003B0BDE8F08F80A500085C
:100EB0005CB9000800230138C1E90133CB60042884
:100EC0002ED8DFE800F00C1625290300174B184A2E
:100ED00000200870C1E90533CA6101207047154B35
:100EE00000220A704FF48022C1E90533CA61012053
:100EF000704730B4104B114CCC6101209625FA227A
:100F0000CD60C1E9012230BCC1E9053308707047EA
:100F10000B4B0C4A0020DCE70B4B0C4A0020D8E7B7
:100F20000020C1E905000870C8617047080005008D
:100F30000B00020002000100080001000200030093
:100F4000080002000400020008000300060002007E
:100F50002DE9F04F1E4EDFF88480814615460FCEF6
:100F600091B002AC0FC40FCE0FC40FCE0FC496E8E1
:100F7000030098F82830012B84E8030007D9D8F83B
:100F80003C40144A144900954B460220A047DFF824
:100F900050B0DFF844A002AC10AE02E00834B44216
:100FA00013D0A3881D42F9D098F82830012B5A4657
:100FB0004B4651464FF00200F0D92768009708349D
:100FC000D8F83C70B847B442EBD111B0BDE8F08F0F
:100FD000F4AD0008E8E5000804E60008AC000020D5
:100FE00018E6000830B50A4C94F82850012D85B059
:100FF0000BD9CDE901120346A1F58C7080B20090A7
:10100000E46B044A04490220A04705B030BD00BF8C
:10101000AC0000202CE6000804E6000830B50346CA
:10102000A1F16204104814F0010FA5B285B090F848
:1010300028400CD1012C08D9CDE901126D0800958A
:10104000C46B0A4A0A490220A04705B030BD012CF2
:10105000FBD9CDE901126D080095C46B054A04491E
:101060000220A04705B030BDAC00002054E60008C7
:1010700004E600088CE6000830B5094C94F82850C6
:10108000012D83B009D97D3989B2CDE9001203461B
:10109000E46B044A04490220A04703B030BD00BFFE
:1010A000AC000020C4E6000804E6000810B50849BA
:1010B00091F82840012C82B008D902F00F0200926A
:1010C000CC6B044A044903460220A04702B010BD7D
:1010D000AC000020F4E6000804E6000830B5094C36
:1010E00094F82850012D83B009D92C3989B2CDE963
:1010F00000120346E46B044A04490220A04703B0EF
:1011000030BD00BFAC00002014E7000804E6000872
:1011100030B50C4C94F82850012D83B010D91146ED
:10112000094DE46B094A11F4006F03460848C1F306
:101130000A0118BF2846CDE9000106490220A04750
:1011400003B030BDAC00002044E700084CE70008C5
:101150003CE7000804E6000810B4084CA48D4908D8
:1011600064088C4228BF0C46023C24F00104043081
:1011700010601C605DF8044B704700BFAC0000209D
:10118000F8B50688002A14BF4FF480524FF400527D
:10119000B6F59C6F38BF4FF49C66B24205460F46C9
:1011A0001C4623D2134B144ADB6B1449002098478A
:1011B0004FF0000E1249134A134BE360C4E90112C9
:1011C0000FCD203676004FF0000CA4F802C004F1D9
:1011D000300C24F8106B0FC495E80F0007C497E893
:1011E000030023808CE803007046F8BD4FF0010E29
:1011F000E0E700BFAC00002060E7000880E70008DF
:101200000100020003001B001C00200010B1024B73
:101210005B6B1847704700BFAC0000202DE9F04120
:1012200007680446C7B1D7F8980080B100F14C05B3
:1012300000F15C064FF0000855F8040B18B1FFF7F9
:10124000E5FF45F8048CB542F6D1D7F89800FFF7D2
:10125000DDFF3846FFF7DAFF2046BDE8F041D5E76D
:10126000DFF864C02DE9F047DCF840501DB12B4693
:10127000BDE8F047184712B35200A1F10208A2F1ED
:1012800002090E469A4607464944444634F8025F2E
:101290006DBA8C422580F9D1DCF8384038463146A9
:1012A000A047BAF1000F01D1BDE8F0874E4438F8ED
:1012B000023F5BBAB045A8F80030F8D1F4E7BDE8CA
:1012C000F047DCF838301847AC00002070B5012535
:1012D00084B041F4A0430446164603A92A4601A857
:1012E000ADF808300196ADF80A50FFF7F7FC20463C
:1012F00002A900230422FFF7B3FF04B070BD00BFB2
:101300002DE9F04782B01D4643F44053BDF8284014
:10131000ADF8003000278A46914669460123032232
:101320008046ADF80270ADF80470FFF799FFBDF983
:10133000046004FA0AF1714001EA090445F4805599
:1013400040463B46694674400222ADF80050ADF875
:101350000240FFF785FF02B0BDE8F08730B583B0EB
:101360000025294600957B23FF220446FFF7C8FF8E
:101370000121204600918B230222FFF7C1FF009537
:1013800020468B2380220721FFF7BAFF03B030BD30
:1013900030B583B041F4805415460023022201A9E0
:1013A000ADF80440ADF80650FFF75AFF03B030BD6A
:1013B00030B583B041F4405114460025ADF800101B
:1013C000012303226946ADF80250ADF80450FFF73F
:1013D00047FFBDF80430238003B030BDF0B585B0C1
:1013E0000024012907461646ADF80E4038D00229E0
:1013F00033D0224B2249DD6B224A03462046A847C0
:1014000021460DF10E023846FFF7D2FFBDF80E302F
:10141000738003F00705012D358024D013F0060FEB
:101420000BD16DB9154A0097D46B1549164A284659
:10143000A0472C46204605B0F0BD023D012DF9D94C
:101440000E4A0097D46B0E49104A0020A047002195
:101450000C462046318005B0F0BD32210124D0E792
:101460000C463321CDE7054A0097D46B0449084A5E
:101470000020A0470024204605B0F0BDAC000020AD
:10148000B0E7000894E70008C8E700082CE8000867
:10149000F8E70008F0B583B0002401290746164696
:1014A000ADF8064019D0022909D01A4B1A4ADD6B53
:1014B0001A4903462046A847204603B0F0BD4621FE
:1014C0000DF106023846FFF773FFBDF8065084247D
:1014D00075B1BEB9012003B0F0BD45210DF1060282
:1014E0003846FFF765FFBDF806508324002DF0D184
:1014F000084B0B4ADC6B094928463B46A047284667
:1015000003B0F0BD384621460022FFF741FF3046C8
:10151000D3E700BFAC00002094E70008B0E7000864
:1015200060E8000870B582B00DF106020E46002496
:101530001C210546ADF80640FFF73AFFBDF806202E
:1015400012F400620CD128461B21FFF721FF284628
:1015500046F400621B21FFF71BFF012002B070BDA3
:10156000044B054ADE6B054920462B46B047204612
:1015700002B070BDAC00002094E80008B0E700089D
:1015800070B582B00DF10602002437210546ADF892
:101590000640FFF70DFFBDF8063003F0C003B3B9F6
:1015A0000DF1060200241C212846ADF80640FFF785
:1015B000FFFEBDF806301B0515D50E4B0E4ADE6B3F
:1015C0000E4920462B46B047204602B070BD094B5D
:1015D00093F82820002AE3D0DC6B094A07492B4600
:1015E0000120A047DCE72846FFF7B8FE012002B043
:1015F00070BD00BFAC000020F0E80008B0E70008B4
:10160000C4E80008F0B40C4DAF8D9E1CB7EB460F3C
:1016100005D2EB6B094A0A49F0BC00201847144672
:1016200041F4A041013B11805380214626F0004245
:101630000023F0BC14E600BFAC00002020E9000845
:1016400040E9000810B582B0044601AA0121FFF765
:10165000C5FE204600220121FFF71CFFBDF8043023
:10166000022B08D00549064ACC6B06490020A0474A
:10167000002002B010BD012002B010BDAC0000205F
:1016800054E900089CE900082DE9F04F02EB420CF8
:1016900000EB8C0C8DB00026834682468046674660
:1016A000B14603A84FEA890586469FED577A43461F
:1016B0006AB19C192C44D4ED007A1C46D4ED006A22
:1016C0000C3367EEA67ABB4237EE277AF1D10435A8
:1016D0000C2DAEEC017AE8D109F10109B9F1030F43
:1016E00000F1100008F10408A6F1040607F1040750
:1016F000D8D19DED046ADDED055ADDED086A684636
:101700000BF10C04DFED407A53463AB11D4695EDDE
:10171000007A0C33634577EE877AF7D10AF1040A31
:10172000A245E0EC017A0CF1040CEBD1DDED037A7B
:10173000F5EE407AF1EE10FA10D0B7EE007A87EEAF
:10174000274ADDED077A66EE044A26EE245A77EE44
:10175000C57AF5EE407AF1EE10FA06D100200023AA
:10176000CBF800300DB0BDE8F08FC7EE272A65EE4C
:10177000843A25EEA47A66EE237A9DED0B5A76EE36
:10178000E77A36EEC77A67EEA27A65EEA36A75EE5F
:10179000666A27EE275A76EEC56AF5EE406AF1EEE4
:1017A00010FADBD09DED005A9DED013A9DED022A25
:1017B00064EE854A63EE853A73EE644A012067EE73
:1017C000A47A002372EE677A77EEE33AC3EEA67A44
:1017D00027EE277AC1ED027A34EEC77A65EEA75A72
:1017E00067EE227A26EE276AC1ED017A35EE466A67
:1017F00076EE655A25EE844A81ED004ACBF800303A
:101800000DB0BDE8F08F00BF000000000028B8BF99
:10181000404270B4BABF00B20124002400293FDB6B
:10182000884238DB0022034668B30846002643F6A8
:1018300028450004B0FBF3F1A9424AD946F2D63359
:10184000994236D948F67203994244D94AF6494337
:10185000994242D94DF2A303994240D94FF24B73BA
:10186000994298BF052025D94FF24C7548F2332391
:101870004CF2A340491B03FB01F100EB114016B1F0
:10188000C0F5C9301F3014B1C0F549303F3002B146
:10189000404270BC70470B46C1B912480A46F2E795
:1018A000494209B288424FF00102BCDA0B461646A3
:1018B000BDE701200C4B03EBC00503EB8003D5F81B
:1018C000B008D3F8E438D5F8AC58D3E700220126A5
:1018D000ADE70020EEE70220ECE70320EAE7042072
:1018E000E8E700BF1F92010080A500082DE9F04F36
:1018F000304ED0F8088096F828302DED028B012B61
:10190000A3B004D9F36B2C4A2C49022098472C49E8
:10191000DFF8B4B0DFF8A4A0782204A807F09CFF99
:101920000122D5214046FFF733FD22AB08EE103AE5
:1019300004ACA588B4F80690A944A94507DC26E0C4
:10194000BDF80E2098470135ADB2A9451FDD2946E7
:1019500040460DF10E02FFF72BFDA36829464046D5
:10196000002BEDD196F82830012B5A4643465146BC
:101970004FF00200E7D9BDF80EC0CDF804C02768CB
:1019800000970135F76BADB2B847A945DFDC18EE1B
:10199000103A0C34A342CCD196F82830012B04D94C
:1019A000F36B084A05490220984723B0BDEC028B2F
:1019B000BDE8F08FAC000020BCE9000804E6000898
:1019C00080AE000854EA000840EA000810B520B1D3
:1019D0000B4B02689A42044607D00A4B0A4ADB6B5B
:1019E0000A49BDE810400020184700690023236021
:1019F00008B1FFF70BFC2046BDE8104006E400BF2D
:101A00000EB03713AC00002090EA0008A8EA0008E6
:101A100010B520B10C4B02689A42044607D00B4B1C
:101A20000B4ADB6B0B49BDE81040002018474068AB
:101A300018B1C368984700236360002323602046E1
:101A4000BDE81040FFF7E2BB0DB03713AC0000203B
:101A5000B0EA0008CCEA000808B518B1064B0268E5
:101A60009A4207D0054B064ADB6B0649002098478F
:101A7000002008BD043008BD0FB03713AC000020B3
:101A8000D8EA0008F0EA0008836A0022A3F85A2086
:101A9000A3F85220704700BF836A19684A6822F091
:101AA000030210B44A601A6E012442F010021A6652
:101AB00083F85D405DF8044B704700BF704700BF7E
:101AC000704700BF70B503681B4D2E681B689B06EE
:101AD0002ED4846A2268536823F020035360204682
:101AE00032464FF4C051FEF751FF58B931462046F7
:101AF000FEF7B4FF30B932464FF4C0612046FEF71E
:101B000045FF38B1236E43F020032366236E43F074
:101B10002003236621684B68002223F00303012081
:101B20004B60E287A4F8462084F85D00236E13B969
:101B3000012385F8443070BDAC00002038B52E4A32
:101B4000036815681B689B061FD4846A2368A26813
:101B5000586820F020005860C2B15968606821F0D0
:101B60000101B0F5827F596035D029462046FEF745
:101B700075FFC8B96368B3F5827F1CD001230022CA
:101B8000A4F8462084F85D30236E38BD6268B2F553
:101B9000827F5A6827D022F001025A6029462046E7
:101BA000FEF75CFF0028E5D0236E43F02003236698
:101BB00020232366E2E7A368B3F5004F02D0B3F514
:101BC000806FDBD12A464FF4C0612046FEF7DEFE6F
:101BD0000028D3D0E8E7B2F5004F08D11A6822F008
:101BE00040021A60C1E722F003025A60BDE7B2F575
:101BF000806FF3D0B9E700BFAC000020444AD3683F
:101C000030B49C0708D0D368046803F00303A342F0
:101C100047D0012030BC70470368022B52D0032B01
:101C200049D0012BF5D112689207F2D5384D44689E
:101C3000EA6822F073021343013C43EA0413EB60A9
:101C4000334C344A236823F080632360156803E033
:101C500013685B1B022B39D823681B01F8D40029B9
:101C600036D1D0E902532169DB0621F0784121F415
:101C7000FE4143EA05230B43236125490B6843F0EA
:101C800080630B60146803E013681B1B022B1DD8D4
:101C90000B681B01F8D582690B6913430B610020A7
:101CA000B8E7002BB5D0D3684268C3F30213013301
:101CB0009342AED1C4E71468A403B7D412685203A8
:101CC000A7D5B3E712685505A3D5AFE70320A1E771
:101CD000012923690DD04169856823F0C06323F48D
:101CE000FE43490843EA0523013943EA416323617E
:101CF000C3E70169856823F4C00323F4FE43490860
:101D000043EA0523013943EA41532361B5E700BFA4
:101D100000100240AC000020F0B5036813F4006727
:101D200083B004460CD0416CB1F5000F00F0328155
:101D3000B1F5400F00F00681002900F02381012752
:101D400098034FD5A44A916DC90040F1EF8000205F
:101D5000A249A34D0A6842F480720A602E6804E02A
:101D60002A68921B022A00F2F8800A68D205F7D589
:101D7000AFBB994AA66DD2F8901011F4407126D0ED
:101D80008E4224D0D2F89060D2F8901041F4803185
:101D9000C2F89010D2F8901021F48031C2F890105F
:101DA00026F4407CF107C2F890C00FD5D5F800C0EA
:101DB000114641F2883605E02A68A2EB0C02B242D5
:101DC00000F2CB80D1F890209207F5D5A66D82491C
:101DD000D1F8902022F440723243C1F890200028BC
:101DE00040F0BF80D90708D57B49206AD1F8882008
:101DF00022F003020243C1F888209A0708D57649E9
:101E0000606AD1F8882022F00C020243C1F88820D1
:101E10005E0708D57049A06AD1F8882022F0300208
:101E20000243C1F888209D0608D56B49E06AD1F8C5
:101E3000882022F440620243C1F88820980508D522
:101E40006549E06BD1F8882022F440220243C1F8B2
:101E50008820590508D56049206CD1F8882022F4E3
:101E600040120243C1F888205A0608D55A49206B0F
:101E7000D1F8882022F440520243C1F888201E067F
:101E800008D55549606BD1F8882022F440420243BE
:101E9000C1F88820DD0508D54F49A06BD1F888200E
:101EA00022F440320243C1F8882018030ED54A4A72
:101EB000A16CD2F8883023F040630B43B1F1006F7E
:101EC000C2F8883053D0B1F1806F73D023685903C2
:101ED0000FD5414AE16CD2F8883023F040630B43C0
:101EE000B1F1006FC2F8883046D0B1F1806F69D08F
:101EF00023685A040CD53849226DD1F8883023F074
:101F000040531343B2F1805FC1F8883049D0236851
:101F10001B0408D5304A616DD2F8883023F0804325
:101F20000B43C2F88830384603B0F0BD916D41F0E4
:101F300080519165926D02F080520192019A0120C8
:101F400006E7616C244AD2F8883023F44003194331
:101F5000C2F8881023680027F2E6032700283FF420
:101F600041AF1D498A6D22F080528A653AE7D368F5
:101F700043F48013D360A9E7D36843F48013D3609C
:101F80002368B6E70430FFF739FE07460028D8D0AB
:101F90002368D5E6104AD36843F48033D360416C9C
:101FA000D0E70221201DFFF729FE23680028AFD0CB
:101FB0000746ADE70121201DFFF720FE002818BFCE
:101FC000074683E70121201DFFF718FE236800283C
:101FD0008FD007468DE700BF001002400070004020
:101FE000AC0000201F498B6DDB0082B01DD51E4B5D
:101FF0001B6803F4C063B3F5007F28D0802812D893
:102000002ED0A0F170035A425A4118490B6823F0B0
:10201000070313430B60086800F00700801A18BF1D
:10202000012002B070470322EFE78B6D0E4A43F0A8
:1020300080538B658B6D03F080530193019B136874
:102040008A6D22F0805203F4C0638A65D3E780284A
:1020500004D9A0288CBF02220122D6E70022D4E7AF
:102060000222D2E70010024000700040002002402F
:10207000064A074B92680749C2F3022213440868D4
:1020800093F8783903F01F03D840704700100240DE
:1020900080A5000800000020264A9368D26813F04B
:1020A0000C0308D00C2B3AD0042B36D0082B224836
:1020B00018BF002070471F4A1168090754BFD2F8A3
:1020C000941011681D4A54BFC1F30321C1F30311D9
:1020D00002EB8102D2F8800903B30C2B27D1154BF8
:1020E000DB6803F00303022B1FD0134A032B08BF46
:1020F0001046104BD968DA68DB68C3F34163C2F35A
:102100000622C1F302110133013100FB02F05B0032
:10211000B0FBF1F0B0FBF3F070470948704702F0F4
:102120000302012AC7D00020D9E70548E1E70020D3
:10213000704700BF0010024000127A0080A500081E
:102140000024F4002DE9F04F0C6885B0002C00F05D
:10215000878000234FF0010B0BFA03FE1EEA040AEE
:1021600079D04E6806F00302551E012D4FEA430C4C
:1021700079D9032A40F0BD8002FA0CF2D543D0F899
:1021800000C00CEA05052A4316F4403F026062D005
:102190005F4D2A6E42F001022A662D6E23F0030283
:1021A00002F1804205F0010502F58032039503F04B
:1021B0000305DDF80CC0D2F808E0AD000F2707FAE0
:1021C00005FCB0F1904F2EEA0C0E16D0514FB842DC
:1021D00000F0978007F58067B84200F0958007F51A
:1021E0008067B84200F08A8007F58067B8420CBF6C
:1021F0004FF0040C4FF0070C01E04FF0000C0CFA0C
:1022000005F545EA0E059560434A92686FEA0A0CA7
:10221000F502414D54BF0CEA02024AEA0202AA60EA
:10222000ED68B2023C4A54BF0CEA05054AEA0505CE
:10223000D5605568384AB70354BF0CEA05054AEA29
:10224000050555601268F503334D54BF0CEA0202D0
:102250004AEA02022A60013334FA03F27FF47CAFC7
:1022600005B0BDE8F08FD0F80880CF68032505FAE7
:102270000CF528EA050807FA0CF949EA0808C0F83D
:102280000880D0F80480C6F3001928EA0E0809FA7D
:1022900003FE4EEA080EED43C0F804E0D0F80C80CF
:1022A0008F6808EA050807FA0CFE4EEA080E022AB3
:1022B000C0F80CE002D002FA0CF260E74FEAD30853
:1022C00000EB880803F0070ED8F8207001970F691B
:1022D0004FEA8E0E07FA0EF90F2707FA0EFE019F3E
:1022E00027EA0E0E49EA0E0E02FA0CF2C8F820E0B8
:1022F00045E7032505FA0CF5ED43CFE74FF0030C56
:102300007DE74FF0010C7AE74FF0020C77E700BF52
:1023100000100240000400480004014070B4D0E9FD
:10232000106304223168056803F01C039A400A42D6
:102330002C680ED014F0040F0BD02B689B0603D42E
:102340002B6823F004032B60036B7260CBB170BC6D
:10235000184702229A400A4215D014F0020F12D0F8
:102360002B68990606D42B68012123F00A032B6001
:1023700080F82510C36A7260002280F82420002BA8
:10238000E5D170BC704708229A400A42F9D0220772
:10239000F7D52A68416B22F00E022A60012202FA68
:1023A00003F300247360C26380F8244080F8252082
:1023B0000029E6D070BC0847F0B490F82440012C06
:1023C0003DD090F825400126B442E5B280F8246063
:1023D00005D0002380F82430F0BC02207047046848
:1023E000D0F840C00227002680F82570C663476CED
:1023F000266807F01C0726F001062660BD408668A7
:10240000CCF804506360036B102E0BBFA260A16078
:10241000E160E26053B1236843F00E032360236858
:1024200043F0010323600020F0BC7047236823F0D1
:1024300004032360236843F00A032360EFE70220CC
:10244000F0BC7047044A00F01F01012340098B4093
:1024500042F82030704700BF00E100E070B5104D39
:10246000104A2B68A2FB03239B09013BB3F1807F39
:102470000CD20D4A0D495360F02381F82330002619
:1024800007230F2896600446136001D9012070BD10
:1024900001464FF0FF30FDF7BFFE6C60304670BD67
:1024A00000000020D34D621010E000E000ED00E0DD
:1024B000BFF34F8F0549064BCA6802F4E06213432D
:1024C000CB60BFF34F8F00BFFDE700BF00ED00E022
:1024D0000400FA0538B5524B93F824200021012A54
:1024E00083F8451000F08D805A6853210225CA20D8
:1024F000012483F8255083F824405062516291688A
:1025000021F480619160D168C9B261F49061D160B9
:10251000D168490664D51F2151619168414821F075
:10252000070141F003019160016841F480110160ED
:10253000816841F480118160916841F4804191602B
:102540009168FF2441F4806101209160546283F816
:10255000250093F84510002283F8242000295BD140
:1025600072B6BFF34F8FBFF36F8F93F8452002B958
:1025700030BF62B6BFF34F8FBFF36F8F93F8452024
:10258000002AEDD093F824200021012A83F8451079
:1025900037D05868532201240225CA2183F82550D8
:1025A00083F8244041624262826822F48062826041
:1025B000826822F4804282601C6804E01968091B6A
:1025C000B1F57A7F1FD8C26812F00402F6D0FF245A
:1025D00001220021446283F8241083F8252038BDAD
:1025E0001C68D16811F0040195D11868001BB0F582
:1025F0007A7FF6D9FF240320546283F8241083F8ED
:102600002500FFF755FFFF240321446283F82420AF
:1026100083F82510FFF74CFF83F84520B9E700BF8A
:10262000AC000020000401402DE9F043866FA1B00A
:102630000446002E5ED02568A36826696069C64AF4
:102640002421A167296821F0010129603343296809
:102650000343E0690A40034313432B606B68E1685E
:10266000BE4A23F440530B436B609542A369AA68AA
:1026700000F0BA80266ABA4922F430623343134329
:102680008D42AB600ED0B74B9D4200F01582B64B29
:102690009D4200F02E810023C4E91933012021B0AE
:1026A000BDE8F083B14BB24AD3F8883003F003039E
:1026B000013B022B00F23F81134493F8B039B0F58F
:1026C000004F00F06381082BE5D801A151F823F0F9
:1026D000312900083F290008EF2800089726000844
:1026E0001729000897260008972600089726000853
:1026F0007D28000880F874605C2209A83146CDE985
:102700000466CDE90666089606F047FE2568944BF8
:102710009D4200F00082934B9D428DD109A8022773
:1027200012960997FFF7F8FA0646002840F01E8235
:102730008E4B904D9A6D42F400329A659A6D02F478
:1027400000320192019ADA6C42F00102DA64DB6C29
:10275000059703F001030F2000930322072304A928
:10276000049005F148094FF09040DDF800C0079251
:10277000089306964FF08008FFF7E4FC7E4BAB64AD
:102780004846C5E91466C5E91766C5E91966EF64E8
:10279000C5F85880FDF7C4FD0346002840F0E681E7
:1027A00005F190067549C4F8709010223046C5F8BE
:1027B0009010C5E92738C5E92933C5E92B332C67C3
:1027C000C5F89470C5F89820FDF7AAFD01460028C9
:1027D00040F0CC81E6662620C5F8B840FDF71CFD28
:1027E0002620FFF72FFE26E722F4306213435F49CD
:1027F000AB60D1F8883003F44063B3F5006F00F0AC
:1028000088810CD8002B00F07E81B3F5806F7FF4B7
:1028100042AFFFF741FC002800F0818005E0B3F5EE
:10282000406F7FF438AF4FF40040626802EB420320
:1028300083423FF630AFB0EB023F3FF62CAF560875
:102840004FF480730027E3FB00674FF00008434616
:102850003046394604F0F8FA494BA0F540729A42E6
:102860003FF619AF2568E860C4E9198819E0302BF4
:102870007FF411AFB0F5004F00F0A1804FF400409D
:1028800063684FF6EF7200EB5300B0FBF3F0A0F17A
:10289000100393423FF6FFAE25680023E860C4E9C9
:1028A0001933636A002B40F0AF806B68314A23F420
:1028B00090436B60AB6823F02A03AB602B68002168
:1028C00043F001032B60C4F8801016682B681A07C8
:1028D00000F18E802B685B0700F1E180002320224D
:1028E000A26784F87430E26718462366D7E6254865
:1028F000C6E703F5E433D3F8883003F03003202B28
:1029000000F03681B3D87BB1102B7FF4C4AEB0F5A4
:10291000004F00F0E280FFF7BFFB0028B0D100239A
:10292000C4E919332568BCE7B0F5004F00F0CF804B
:10293000FFF79EFBF1E7B0F5004F00F0D4800B4BA2
:1029400011499B680868C3F3C2231A4492F8783986
:1029500003F01F03D840E0E7F369FFEF0080004079
:102960000038014000440040004800400010024090
:1029700080A50008AC0000206C00024080000240EE
:10298000FFFC0F000024F40000000020082B3FF69D
:1029900082AE01A151F823F0CF2A0008E72A0008EF
:1029A000BD29000897260008DB2A000897260008A2
:1029B0009726000897260008BF2900086F4862681C
:1029C000530803EB40004FF6EF73B0FBF2F0A0F1B9
:1029D00010029A423FF65FAE20F00F039BB22568CB
:1029E000C0F3420018430023E860C4E9193358E7F4
:1029F0006FF07E4332464FF400112046FDF738FC5D
:102A0000002857D1256865E7DE0705D56A68A16A01
:102A100022F400320A436A60980705D56A68E16AC1
:102A200022F480320A436A60590705D56A68216B2F
:102A300022F480220A436A601A0705D56A68616B2E
:102A400022F400420A436A60DF0605D5AA68A16B3A
:102A500022F480520A43AA609E0605D5AA68E16B5B
:102A600022F400520A43AA6058060ED56A68216C07
:102A700022F480120A43B1F5801F6A6005D16A68AA
:102A8000616C22F4C0020A436A6019067FF50DAF3B
:102A90006B68A26C23F4002313436B6005E7324696
:102AA0006FF07E434FF480012046FDF7E1FB0028E4
:102AB0003FF414AF0320F2E503F5E633304AD3F8D0
:102AC000883003F00C03134493F8B439F7E5FFF7AB
:102AD000CFFA00283FF423AF71E7FFF7DDFA0028B3
:102AE0003FF41DAF6BE7274B27499B680868C3F38A
:102AF000C2231A4492F8783903F01F03D840002803
:102B00003FF40DAF5BE7FFF7B3FA00283FF407AFE0
:102B10008BE61A4889E6012309A811960993FFF765
:102B2000FBF818BB174B1A6E42F480421A661A6EF5
:102B300002F480420392039ADA6C42F00102DA64F2
:102B4000DB6C069003F001034FF4C0600293022592
:102B500003220723049004A94FF090400595CDE986
:102B60000723029EFFF7EEFA256865E5FFF7A0FC54
:102B7000B0F5004F01487FF483AE20E70024F40055
:102B800080A50008001002400000002070B5864CAF
:102B900094F834310020012B84F844000FD094F8CD
:102BA000353101208342DDB284F834010ED0D4F8EF
:102BB000DC30B3F5827F03D0002384F8343170BD5C
:102BC000D4F8E030002BF7D1042DF5D10029F3D053
:102BD00093B2002BF0D094F83521D4F8D850D4F823
:102BE000E460042A18BF05224FF0000018BF84F8E3
:102BF0003521C4F83801A4F81631A4F81E316A68EA
:102C0000C4F8101122F4C042B6F5E06FC4E94900DF
:102C1000A4F81431C4F81811A4F81C316A6029D939
:102C20006B68D4F8300123F480536B6094F835312D
:102C3000042B07BF5D4A5E4B5E4A5F4BC0E90B3217
:102C4000B4F81E315D4A426300260A469BB205F184
:102C50000C018663FFF7B0FB054678B3D4F8383132
:102C600084F8346143F010030122C4F8383184F849
:102C7000352170BDD4F82C016A68806942F4805215
:102C8000B0F5806F6A605FD0D4F830018369B3F526
:102C9000806FCBD16B6823F480536B60B4F81E3126
:102CA00013F0010F6B6869D123F400536B60B4F823
:102CB0001E31C3F34E03A4F81E31B7E7D4F8D82071
:102CC000D4F82C015368D4F8101143F00103536079
:102CD000B4F816310563C0E90D550C329BB2C562DC
:102CE000FFF76AFB00283DD1D4F8D8301A685206A5
:102CF00025D55A6842F020025A605A6842F0020212
:102D00005A60226894F84430002184F83411002B72
:102D10007FF455AF41F287310CE072B694F844303D
:102D200003B930BF62B6BFF36F8F94F84430002B05
:102D30007FF445AF23689B1A8B42EED970BD1A68A9
:102D400042F040021A60D4E713F0010F6B6820D103
:102D500023F480436B60B4F81631C3F34E03A4F838
:102D6000163191E7D4F8383184F8345143F0100328
:102D70000122C4F8383184F8352170BD43F4005382
:102D80006B60B4F81E31C3F34E030133A4F81E3157
:102D90004CE743F480436B60B4F81631C3F34E0341
:102DA0000133A4F816316FE7AC000020BD1A00080B
:102DB0003D1B0008C11A0008C51A0008991A00082E
:102DC000F8B5154C4FF48055A562174604460E46DB
:102DD0001D46FFF77FFB17B13846FEF7F7FD16B12A
:102DE0003046FEF715FE4CB10C4B22689A420CD0CF
:102DF0000B4B0C4ADB6B0C490020984725B1284649
:102E0000BDE8F84006F098BDF8BD002323602046D9
:102E1000FEF7FCF9F2E700BF000400480FB03713DB
:102E2000AC000020D8EA0008F0EA00082DE9F84FCD
:102E3000164C0A9EA78D043A043F52087F08974219
:102E40000D468146984628BF174601F1040A002422
:102E5000331BBB4228BF3B466FEA84415A1E6FEAD0
:102E600091419B466A8029805A0008EB44015046F4
:102E70001C4406F0F1FC0BF10202002329464846EF
:102E8000FEF7EEF9A642E3D8BDE8F88FAC000020CB
:102E90002DE9F04F254C85B00026CDE90266B4F847
:102EA0002C8001928946002B3AD04FEA580883467D
:102EB000A8F104089A460D461F4626E0019B48F2F9
:102EC00000019A192980631E4FF00001E9806A8091
:102ED000AB806200002105F1080006F05EFA294689
:102EE00001235846221DFEF7BBF902AB03CB264453
:102EF0006960286009EB460559F81600696802AB5D
:102F0000564503C3A7EB04070AD2B845444628BF79
:102F10003C46B845D2D200E0013CE307FCD4CDE703
:102F200009F1080005B0BDE8F08F00BFAC0000203B
:102F30002DE9F04F02EBC30689B07388129F4BB3A3
:102F40008046894600254FF0010B736853F82540F1
:102F5000C4F3017001280CD0022833D0F0B1344BF7
:102F6000344ADB6B344900209847002009B0BDE8A3
:102F7000F08FA3B2194659F8232022F00F0217B19F
:102F8000C4F3034422434046FEF7A0F97388013599
:102F90009D42DAD3012009B0BDE8F08FC4F3445A52
:102FA0000BFA0AF39F4216D3214A0097013B019383
:102FB00021490390A3B2D46B204AA047039809B0DB
:102FC000BDE8F08FA3B2194659F8232022F00F0272
:102FD000002FD8D1D4E7A3B243F4204C03930522A9
:102FE000012305A9ADF81800CDF81A004046ADF848
:102FF00014C0ADF816B0FEF733F904A90DF11A00AC
:10300000FDF710FBCAF1200A4FF0FF33C4F304446C
:1030100023FA0AFA049B03990AFA04FA23EA0A0239
:1030200007FA04F422434046FEF750F9AEE700BF2A
:10303000AC00002030EB00084CE50008F8EA00087E
:1030400070B5094E336B05469847044628B12A46A9
:10305000002106F0A2F9204670BDF36B034A044933
:103060009847204670BD00BFAC00002058EB000818
:1030700068EB0008F8B595692B78B5F802E01446BE
:1030800002EB43030F46B3F84460636901467200E4
:1030900003EB4E0006F0EEFBE26D698813780E44F8
:1030A0006E8003B93B791370F8BD00BF2DE9F04F76
:1030B0002DED048B90F838308DB007900393002BE2
:1030C00000F0E7800798828F0469C38FB0F84C50F6
:1030D00034F91210099502465B00408F0890019365
:1030E000002D00F0D6801046526C836CB0F84E5024
:1030F000B0F840B0DFED708ADFF8C8810A95D318C8
:10310000029300220901DB4305920B91049391463F
:10311000B6EE009A029A6949134681FB0331D31730
:10312000C3EBA10101EB4101B2EBC101029A48BF1F
:103130001831002A09B2C0F2B580604880FB020253
:10314000C3EBA20212B20B9B120482FB0356002DAA
:1031500076F1000304DA4FF6FF73ED1846F100062E
:10316000089B19442A0C34F9111042EA0642A2EBDA
:10317000011207EE902AF8EEE79A69EEA89AB0EEEF
:10318000690A05F051F8B0EE408AB0EE690A05F020
:10319000B9F8BBF1000F6BD0079A136DB2F842A0DB
:1031A00093F800E006930020054647F6FF7709E014
:1031B000DDF80CE0E25201351FFA85FCE34550448E
:1031C000718052D9019A09EB50039BB202EB830341
:1031D000E618E25E07EE902AB6F9022006EE902A83
:1031E000F8EEE77AF8EEE66A27EE887A26EE806A4D
:1031F00067EE807A66EE886A37EE467A77EEA67AD0
:10320000B5EEC07AF1EE10FAF5EEC07A4CBF37EEAB
:10321000497A37EE097AF1EE10FA4CBF77EEC97AA7
:1032200077EE897ABDEEC77AFDEEE77A17EE10CA1F
:1032300017EE901A17EE102AC445B8BF4246414512
:10324000B8BF4146BA42A8BF3A46B942A8BF3946BC
:10325000BEF1000FAED19445AAD117EE90CABCEBD7
:10326000010E18BF4FF0010EA4E7069B83F800E0A3
:10327000059B029A01331FFA83F911460593049ABC
:103280000A9B1944D31A0493099B02914B453FF6BC
:1032900041AF079B186843680DB0BDEC048BBDE8D7
:1032A000F04F1847049B1A46054BA3FB02326FEA06
:1032B000121212B247E700BF00008037ABAAAA2A59
:1032C000ABAAAAAA0080FFFF1C4991F82430012B69
:1032D00032D030B44C68532301200225CA2281F831
:1032E000255081F8240062626362A36823F480732E
:1032F000A360A36823F48053A360086804E00A680D
:10330000121AB2F57A7F0DD8E36813F00103F6D0F4
:103310000020FF220123626281F8240081F8253019
:1033200030BC7047FF200322606281F8243081F8AE
:103330002520104630BC704702207047AC000020AA
:103340002DE9F04F2DED0C8B8246A5B090F84E4044
:1033500090F84C000D90042CBAF848000A9008919F
:10336000904699461AD8DAED107AF5EEC07AF1EE69
:1033700010FA00F1EF819AF85630DFF8C0B0002B58
:1033800000F0F1819AF84B30002B00F0EC81274AD5
:10339000DBF83C3026490020984707E0DFF89CB076
:1033A000244ADBF83C30224900209847DAED117AB4
:1033B0009BED4F7AF5EEC07AF1EE10FAB8EE478A3F
:1033C00040DDC8EE278AF6EE007A78EEA78A0A9BDF
:1033D000002B3CD107939AF84A300193002B3ED141
:1033E0009AF85030022B41F023819AF84E40012C7C
:1033F00000F0C78200243A9A019B1471A8F8AC41EE
:10340000002B32D09AF84F30012B00F04587022B69
:1034100000F03187002B00F04D87DBF83C30064A86
:10342000034900209847002301931EE0BCEB0008ED
:1034300094EB000878EB000878EC0008AC00002062
:10344000000000000A9B5FED028A002BC2D09AF8B0
:103450004E3007939AF84A300193002BC0D03A9A25
:10346000002313710193A8F8AC31089C002C4AD0BA
:103470002389B4F88210B4F88020B4F87E00A8F84C
:1034800004109B00B4F88410A8F802209BB203F14A
:103490003002A8F800006088A8F80610A188A8F8F3
:1034A000080092B2E088A8F80A106189A8F80C0018
:1034B0005F2A208CA8F80E10618CA8F81210A8F8CA
:1034C000100040F22582C949A1FB0201890901EBE4
:1034D0004101A2EB411189B200201A4605460B4674
:1034E00001210324A8F814300023A8F81620A8F816
:1034F0001810A8F81C50A8F81E00A8F82010A8F86A
:103500001A40A8F82230019900220123A9F80220CC
:10351000A9F80C20A9F80A30002901F050801546BE
:103520000692049209F10E0308F13E029FEDB0AA43
:10353000DFEDB0AADFEDB09A9FEDB09ACDF808A00C
:10354000564608F1460709929A46CDF81480CDF800
:103550000CB0079AEBB29A4200F25C81099A002300
:10356000AAF80030AAF8083022F815300135042DE9
:103570000AF1020A06F1100607F15607E9D10A9A84
:10358000B9F80C10B9F80A30DDF81480DDF80CB089
:10359000DDF808A011FB02F189B20B449BB2BDF823
:1035A000182002925F1CBFB2B8F8ACC1BCF1010F89
:1035B00004D1049A0A9800FB02F204929AF852206D
:1035C000BAF854009AF853509AF85640A8F89E2139
:1035D000049A4FF6FF7E72454FEA500628BF7246A6
:1035E0000338A8F8A801033E0298A8F8AA6185F05C
:1035F000010592B2A8F8A651A8F8A001A8F8A42144
:10360000A9F80C10A9F80430A9F80670002C00F0F5
:103610005E8141334021A9F80030A9F80810012447
:10362000089BA8F8C04113B19B89A8F8C231019B3F
:10363000002B40F057813A9ADAED105A00231360BC
:103640000D9BA8F8B2310A9B012B40F24581BAF8D4
:1036500048300122023BA8F8AE31A8F8B0219FED16
:10366000687A9FED686A28EE077AF1EE007A68EED4
:10367000277AC7EE066A87EE867AC8EE067AB6EE35
:10368000006A76EE866A37EE067AFCEEE66A77EE38
:10369000867ABCEEC77A16EE903AF5EE405A17EEEF
:1036A000102AF1EE10FAFCEEE77AA8F8B83114BF50
:1036B00001230023A8F8B621A8F8383017EE902A85
:1036C000019BA8F8B421002B00F0ED80F5EE405AE4
:1036D000F1EE10FA0CD0C8EE257A37EE866AFCEED1
:1036E000C67A17EE903A1A0CA8F83C30A8F83A209F
:1036F000DAED117A9AF84A309AF84B20A8F830306F
:10370000F5EE407AF1EE10FA14BF01230023A8F879
:103710003220A8F82A3008D0FCEEE87A17EE903A6A
:103720001A0CA8F82E30A8F82C209AF851300198DD
:10373000A8F8BE31012140F2FF7240F60103A8F85B
:103740002410A8F8BA21A8F8BC3125B0BDEC0C8B28
:10375000BDE8F08FDFF8B8B02B4ADBF83C302B49DE
:103760000020984722E69AED117ADBED4F6AB5EE1C
:10377000C07AF1EE10FAB8EE668A16DDC8EE078A56
:10378000F6EE007A78EEA78A00F1F48018EE900A3F
:1037900003F072FB012908BF002880F0EB809AF843
:1037A0004A30002B40F0DD8008E000F1E1809AF81B
:1037B0004A30002B40F0C880DFED0F8A9AF84F1096
:1037C0009AF850200A98002814BF20460020914201
:1037D000079000F27D83002B40F03687022A00F02C
:1037E0002F873A9A1371A8F8AC310BE6ABAAAAAAB4
:1037F0002549123ECDCC4C3E000000008FC2753DE5
:103800000000964300247449A8EB000894EB0008DC
:10381000AC000020099A012322F81530029B32895E
:1038200093F84C300B93184640F2FF1140F2FF33EF
:10383000002818BF0B46C2B19A4216D8737B002BE2
:103840006AD1F37BB07B002840F06982012B00F045
:10385000AF80DDF80CB04E4ADBF83C304D49DDF866
:1038600008A0DDF8148098470BE0DDF80CB04A4A58
:10387000DBF83C304749DDF808A0DDF81480002073
:1038800098470A9AB9F80C10B9F80A3011FB02F1FE
:1038900089B20B44BDF8182002929BB25F1C002233
:1038A000BFB2019280E6DAED117A9AF84A309AF8BE
:1038B0004B20A8F83030F5EE407AF1EE10FA14BF44
:1038C00001230023A8F83220A8F82A302DE7A9F810
:1038D0000840A9F80070A3E60023A8F8AE31A8F8C4
:1038E000B031BCE69AF84D10072925D82B4BDFEDF7
:1038F0002C9A0B4493F8E839A8F8A2313A9BC3ED0F
:10390000009A079B002B40F0E283DAED105A97E60D
:10391000032001250021E4E5F37B022B92D1DDF8A1
:103920000CB0204ADBF83C301A49DDF808A0DDF87D
:10393000148000209847A4E73A9ADAED105A002341
:103940001360002301937BE6B5EE407AF1EE10FAA6
:1039500005D1F5EE407AF1EE10FA40F01B85DFED6F
:10396000108ADBF83C30104A0A49002098472EE5BF
:10397000DFED0B8ADBF83C300C4A06490020984703
:1039800025E59AF80F30013B012B3FF634AD31E5C8
:10399000F4EC000894EB0008B8EC000880A50008DF
:1039A00000000000C8EC0008FCEB0008E8EB000891
:1039B000BB4BB6F80680B6F804B003EB8000B8F154
:1039C000180FD0F8C4390E9340F2B28208EB880386
:1039D00003EB031303EB032308EB4303C3F3CC0212
:1039E00042EA43339BB240F6AA22934200F25E823F
:1039F000AC4BA3FB08231B090F93013B9BB2159310
:103A00005C23119318230C93BBF1000F40F0AB82A1
:103A1000039BA54ADB6BA549584698470B9B002B97
:103A200000F0548200230B93022233680E9919444C
:103A300001F5C3430C461BFB02F228334CF2503114
:103A40000BF1FF3092B28B420E9208FB004807D96F
:103A5000039B974ADB6B95490020984700230B9303
:103A600008F5C34328334CF25032934207D9039BE5
:103A7000904ADB6B8D490020984700230B93002C64
:103A8000C0F21A838C4BE11783FB043BC1EBAB0BF9
:103A90000FFA8BFBB8F1000FC0F20383864B83FB58
:103AA00008304FEAE873C3EBA00000B2824A1FFA65
:103AB0008BFB82FB042CA0EB0B00C1EBAC010F9A3B
:103AC0001FFA80FC01EB4101BCFBF2F201321FFA4C
:103AD00082FEB4EBC10102B216924FF018000C9AAC
:103AE000B0FBF2F000F1D6820FFA81FC89B2724A83
:103AF00082FB08240C9AC3EBA40303EB4303B1FB42
:103B0000F2F402FB1414A2B2B8EBC3030F9200F15B
:103B1000BB821AB219929BB2013882B20F9C0C98E8
:103B20001A9212FB0040BEF1010F80B200F0EC814E
:103B3000C41A0F9B18BF01248B4214BF012300231A
:103B4000AEEB0302A2EB0402A3B212941FFA82F8B6
:103B5000179340F0E1810023189314931B930F9B5C
:103B60009B00FB870B9B8900B987002B00F0C58168
:103B7000B37B052B00F2BD83494A02EB4303B3F844
:103B8000D8395A08A3F14A00D91E033A80B2143B2F
:103B900092B289B210901393109BB986CBF129048D
:103BA0001C44169BFA860FFA84FBABEB0303292B0C
:103BB000A4B207DC039B414ADB6B3C4900209847D9
:103BC00000230B93139B9B4507DB039B3C4ADB6B5A
:103BD00036490020984700230B93109B3B87119B8D
:103BE0007C872C2B40F2EB810023A7F85030A7F8FC
:103BF0005230A7F85430159BA7F84E30189BA7F801
:103C00004830B8F1000F00F0BE810123A7F84A3018
:103C1000149B179AA7F84C20002B00F091831B9B54
:103C2000A7F842301A9BA7F84430129B002B00F0F3
:103C30007C83199B0F9A9C1A0C9B94FBF3F4A7F8B6
:103C4000464008F1FF321FFA82F80B9BA7F840802C
:103C5000002B5DD0B37A172B00F24281092B00F2C2
:103C60002F83C3F1090315227B803A80089A002A2A
:103C700000F07E837B8802EB43039B89F07BBB8053
:103C80001CA9FDF717F960BBDDF80CB0DDF8148056
:103C9000DBF83C300B4A0549DDF808A014E000BF12
:103CA00080A50008ABAAAAAA40ED000894EB000882
:103CB0008CED0008A0ED0008ABAAAA2AD4ED0008FC
:103CC000F4ED00081CED00089847562303FB05831C
:103CD000BDF88C10BDF88E20A3F87010A3F86E20EC
:103CE000CFE5BDF88440BDF88C307B85082CBDF84D
:103CF0008E303B850CD8BDF88630072B08D8BDF830
:103D000088C0BCF1080F03D8BDF88A20082A18D94A
:103D1000DDF808A0DDF81480DDF80CB0B1E5581E20
:103D2000C0B204287FF644AEDDF80CB0AB4ADBF835
:103D30003C30AB49DDF808A0DDF81480002098473E
:103D40009FE5012101FA03F3501E013B9BB201FAEA
:103D500002F201FA00F03C81013A9C0101385B0259
:103D600040023B829201029B7882A7F80AC0BC8184
:103D7000FA819DF8700093F84D302093002800F0F0
:103D80008280DDF874B0BBF1000F7CD0022B7CD8B0
:103D9000944A134493F8E439BB82089B23B307F198
:103DA00014031A460B9300233B8311822EE18D4AA4
:103DB000134493F8E839BB82089BABB100233B83E3
:103DC00007F114031A460B93002840F017810B9B50
:103DD000B8847883F8821881D8810B9A00235381A4
:103DE00000233B840B9A53823089F27A3A86012869
:103DF00058D00121831EF985BB85717BB9F80C3041
:103E0000F98081F0010179860E99AAF80030AAF8AC
:103E100008100B44F17BA9F80C3001293B8D2FD001
:103E200002290CBFB0EE496AB0EE696A01339BB259
:103E300007EE103AB388B8EE477A07EE903AF1EE03
:103E4000006A27EE267AF8EE677A06EE900A67EEA9
:103E5000277AF8EE666A069B67EEA67A194667EE41
:103E6000867A002B08BF114667EE8A7A049B06917A
:103E7000FCEEE77A17EE902A13440493FFF776BB23
:103E8000B0EE6A6AD2E7072B91D9DDF80CB0564A3A
:103E9000DBF83C305249DDF808A0DDF81480002042
:103EA0009847EEE40023FB85BB85A6E7039B4F4ABA
:103EB000DB6B4B49002015900446984701230C9377
:103EC0000F930B9B1194002B7FF4ACAD0422ACE557
:103ED000DBF83C30464A424900209847FFF77BBA5E
:103EE000DDF80CB0434ADBF83C303D49DDF808A072
:103EF000DDF8148000209847C3E46C231393362325
:103F000010933D227D2147E68C4200F02183002260
:103F10001792184690461292019B1493A0EB0C0046
:103F20000C9B90FBF3F00123189383B21B9316E6CE
:103F3000B8F1000FBAD01823B3FBF8F308FB03F372
:103F4000C3F118039BB21593002BAFD108F1FF33D7
:103F50009B009BB211930123CDF830800F93BBF1EE
:103F6000000F3FF455AD0B9B002B40F0FE81337BDF
:103F7000002B00F01A82039B1F4ADB6B18490B9839
:103F80009847042251E5179BA7F84C30149BA7F8DB
:103F90004A80002B00F0D1811B9BA7F84230002300
:103FA000A7F84430129B002B00F0C381199B0F9A95
:103FB0009C1A0C9B94FBF3F4A7F8464045E6119B32
:103FC0001E2B40F2A581A3F11E020F23A7F8542057
:103FD000A7F85030A7F852300DE600BF1CED0008DE
:103FE00094EB000880A5000824EE00082CED0008E2
:103FF00028EC00080CEE000854ED0008DDF874B061
:1040000001231382BBF1000F00F0B182089BDDF8A1
:104010007CC0D3F860E00C90D3E9198400210B46F2
:10402000204608EB1142A2EB0E0262459CB201440D
:1040300003F1010380F28A820F2BF2D10C981C4607
:10404000089BD3F878C0D3F874E00B9B0CEB8C0181
:10405000DC8005220EEB1143B3EB0B0302F10104EC
:10406000614440F1C581A2B2142AF3D1DDF80CB04D
:10407000CF4ADBF83C30CF49DDF808A0DDF81480EA
:1040800000209847FFF7FDBB03F1180422B2A3B24A
:10409000199241E501F1180C1FFA8CF10FFA8CFC12
:1040A00025E5C54B6FEA0800A3FB00306FEA10104E
:1040B00000B24FEAE873F9E4BF4B6FEA040BA3FBCD
:1040C0000B3B6FEA1B1B0FFA8BFBE117E2E4BCF121
:1040D000010F00F04F8107EE902ADFEDB8AAF8EE4D
:1040E00067CAF7EE089AB2EE02DADBED4F7A9FED7F
:1040F000B40AB8EE67AA80EE0A0A04F0DDF89AF86E
:104100005030022B2AEE00AA00F21E81AD4A9AF826
:104110004E1002EB8300D0ED00DA90ED03CA0029C7
:1041200000F07982DDF804909FEDB09AA64FDFEDA4
:10413000A7BA9FEDA7BA002635463AE032F8133009
:1041400007EE903AF8EE677A8AEE277A5544A31C78
:10415000B5F808C0A8889AF84E105A0093B20CFB24
:104160000333023304EB44045B00A4009BB287EEEC
:104170000B6A1834A4B20136F5B2A94207EE903AA0
:1041800007EE104AF8EE677AB8EE477AC7EE866A0D
:10419000C7EE065A07EE900AF8EE677A66EEA77A3F
:1041A00077EEA57A77EEAA7A77EEA97A39EE279A92
:1041B00021D90AEB05131CA9D87BFCF77BFE2D0146
:1041C0007C493A46044618B9DBF83C309847A1468A
:1041D0000AEB05037F4A9B7BBDF88E40052BADD9CA
:1041E000DBF83C307C4A7349002098474FF00009C7
:1041F000F0EE6B7AA8E7B9F1000F36D0DFED777AF1
:10420000DFED736A9FED767ADAED105A3A9B8AEE0B
:10421000275AF1EE0C7A85EE266A6CEEA7CA3CEEC0
:104220002DCACCEE867AB0EE006A37EE8DDA3DEE1E
:10423000099A39EE0C9A69EE077A77EE867A37EEAC
:10424000899AC6EE897AF4EEE75AF1EE10FAC3EDD8
:10425000007A7FF7F5A9FDEEE77ADBF83C40614A8A
:10426000544917EE903A0020A0470023DAED105A87
:104270000193FFF7E5B90023A8F82630A8F8283005
:104280009AF85030012B10D0022B2BD013B3DBF84F
:104290003C30554AFFF7C4B80022A8F82630A8F8E9
:1042A00028209AF85030012BEED1C8F83430019311
:1042B000FFF7DBB80123A8F82630A8F82830DFE79D
:1042C000102B94BFC3F11E03C3F1170300223B80E0
:1042D0007A80CBE44FF00113C8F834300123019306
:1042E000FFF7C3B80023C8F8343001230193FFF768
:1042F000BCB8039B384ADB6B2E49002098476C23DF
:1043000013933623109300233D227D210B9343E426
:10431000119B0F2B35D90F3B0F22A7F852300023EA
:10432000A7F85020A7F8543065E4129BA7F8463050
:1043300087E4129BA7F8463087E4A7F842802EE670
:10434000149BA7F842306DE4DBF83C30264A19494B
:10435000002098479AF84E30002B86D09FED23CA54
:104360004FF00009F0EE4CDADEE60222FFF75DBB0B
:10437000089B83E4F0EE69AAB0EE69DAF0EE69CA50
:10438000B3E60023119AA7F85020A7F85230A7F8F7
:10439000543030E49AF84F109AF85020DFED138A29
:1043A00091427FF4DEAAFFF70DBA019B0B938DE5D6
:1043B00044EE000894EB0008ABAAAAAA9A999D4182
:1043C000F902154F70AF00081CED00080000004313
:1043D0000024744958AF0008C8ED000800002043CD
:1043E0000AD7233C70EE000898EC0008000000009B
:1043F000052A0AD0511E89B20CFB01FC0EEB1C4CA5
:10440000ABEB0C04A342C8BF0A461E9B0B990C934E
:10441000B3F5167F4A80C0F0D980089BD3F86C8032
:104420000C9BA3EB0801B1F5C87F40F3F780002394
:104430004FF4C8741A46023204FB02F2914203F1AF
:104440000103F7DC0B9CBBF1000F14BF012100211D
:104450004FF0010C2181A4F80EC000F0A1800C9A4D
:104460004FF4C87000FB1320089A0024D2F870E0C3
:10447000224602E0162A3FF4F9AD08EB1441091A6E
:104480001FFA82FC744402F10102F3D4BCF1000F64
:104490000AD00CF1FF3294B20EFB04F208EB124288
:1044A000821A9142C8BFA4460B9AA2F80AC0002BF8
:1044B00000F09880BBF1000F18D0089CB7F81AC024
:1044C000A26E616E02FB0CFC226E01EB1C4CBCEB7D
:1044D000020C3FF5CBAD089AFC8A916F526F01FB3D
:1044E00004F102EB114101EB0C021044089A002484
:1044F000D2F858E0D2F85C80224602E0162A3FF457
:10450000B5AD0EEB1441091A1FFA82FC444402F1C6
:104510000102F3D4BCF1000F0ED0BBF1000F0BD1A0
:104520000CF1FF3292B208FB02F80EEB1848A0EB38
:1045300008084145C8BF9446A7F820C0002B3FF4A7
:1045400051ACDA1D012393409BB24BE40C9877E504
:1045500098420CBF4FF001084FF0000856D10023DD
:10456000CDE91733129314931B93FFF7F8BA1E9AF1
:104570000B990C92B2F5167FA1F806B0A1F802B023
:1045800039D3089AD2F86C800C9AA2EB0801B1F5E5
:10459000C87F3FF74CAF0B9AD381A2F808B05B46B7
:1045A0000B9A4FF0000BA2F80AB000283FF418ACA9
:1045B00043B30C9A4FF4C87000FB132096E7019A9E
:1045C0000292022711460492FEF7EEBF0B9A0023D7
:1045D0001381D38100283FF400AC089A0C98D2F8DC
:1045E0006C8041E7BBF1000F0CD0FA8B0EFB02F29E
:1045F00008EB124061E70B9BA3F808B0A3F80EB0DC
:10460000A3F80AB000230C989B466FE7002217928C
:104610001846129280E41FED8B9AEFE5BBF1000380
:104620000B9918BF012301220B81CA81002316E7D1
:104630003A9B1A46019B1371A8F8AC31FEF715BFDF
:1046400001230193FEF7D3BE3A9A00231371A8F811
:10465000AC31FEF7D7BE00BF70B5FEB004464FF4D4
:10466000E2720D460DA8002103AE04F096FE0DAADD
:10467000204605AB00960021FEF762FE08B97EB029
:1046800070BD94F84B202B46314605A8FCF778FD09
:10469000F5E700BF2DE9F04F036893F84E20A7B06F
:1046A00007460C4622B1B3F84830002B40F0D780C3
:1046B000A5493D221020FEF7C3FCA34906463E2231
:1046C000FC20FEF7BDFC0546002E00F02582002DE3
:1046D00000F01D824FF00008D7F80090C5F89880D0
:1046E0004846356018A9FFF7B7FF002800F0AA80F8
:1046F000BDF87030B968BDF86EC0BDF87A20D5F845
:1047000098A0A5F838C05B00C5F8E8300023C5F8CC
:104710009430A5F89C3005F1F803C5F8843005F114
:10472000F4036244C5F8883005F1F60390B2C5F889
:104730008C3005F1F00205F1F7030490A5F89E0016
:104740006A62C5F89030BAF1000F09D005F1EC00AB
:1047500005F1F503CAF82420CAF81800CAF85C303D
:10476000C5E93621049BA5F8E43099F84E0068B1FC
:104770000138C0B204EB40000DF18601A21E31F8F1
:10478000023B5B0822F8023F8242F8D13868BDF84C
:104790007630B0F8482003929DF894202273634449
:1047A000039A2499E381BDF87830A1602382002A1E
:1047B00000F0AF81BDF87C30B3FBF2F30893BDF895
:1047C0007430BDF87220BDF86210604CA5F8761008
:1047D00062449C44199BA5F87C20AB675C4A5D4908
:1047E0002A640F230322A5F8803005F13C03A5F8C5
:1047F0007EC06C64A96485F874200C93BAF1000F34
:1048000000F09681002390F84E40BDF868200A928F
:10481000CDE91133CDE91333CDE91533BDF86A2065
:104820000B9213A98E4602940DF17E02A446DCB2CF
:10483000644537D232F8024B21F8024BD488CC8041
:104840000133F4E7444B454ADB6B3F499847304618
:10485000FCF7E4FC0026304627B0BDE8F08F3A496B
:104860003D221020FEF7ECFB37493E220646FC2095
:10487000FEF7E6FB3449054643226020FEF7E0FBE5
:10488000804626B11DB1B8F1000F7FF425AF304648
:10489000FCF7BCFC2846FCF7B9FC4046FCF7B6FC2C
:1048A0000026D8E72E4ACAF804202E4A2E4B039938
:1048B000CAF80C20029AAAF83810CAF808300899E9
:1048C000AAF83A100023CAE91333CAE91533002ABB
:1048D00000F02E81254A0692254A0792254A059224
:1048E00019460AF14C0299460AF13C03CDE90D56EE
:1048F0000F97CDF824A08346019276461F468A463C
:1049000036F8025B27F8025BB6F806801A49A7F86A
:1049100006803322E820FEF793FB184A044600285D
:1049200000F00F81164B0364164BC0E911329BF85F
:104930000F20013A3C30042A00F20F81DFE802F038
:104940008D8A2490240000BFB4EE00087D09000881
:104950005D0B000889090008AC00002090EE0008FB
:10496000550C00086D090008F90B000861090008E2
:104970000D0B000875090008C4EE0008790900084D
:10498000AD300008850900086FF00C0C049B9BF803
:104990000CE073491D440A9BA4F876300B9BA4F8E5
:1049A0007830039BA4F87C30ADB2089BA4F87A5011
:1049B000A4F87E30BBF80620DBF80030A4F88A208B
:1049C00084F874E0BBF804E0A4F89250A4F8D8503E
:1049D000069DC4F89850079DC4F89C50059DC4F8E6
:1049E000803022464FEA4803C4F8A050099DC4F81D
:1049F00084C0C4F8DC3004F1E00C0023A4F888E0A3
:104A000004F1E40EC4E93451C4F824C0C4F8CCC0A5
:104A10002387A4F89030C4F88CE042F8940BE2634A
:104A2000FBF7B0FF0BF1100BE8B12068C3689847A3
:104A3000019B43F8044B0AF1010A0193029B5FFAC0
:104A40008AF94B453FF65CAFDDE90D560F9FD5F86F
:104A500098A03BE06FF0060C98E76FF00B0C95E721
:104A60006FF00F0C92E7DFF80CB13E4ADBF83C30F8
:104A70003D49CDF804A08046DDF824A00F9FDDE974
:104A80000D5698472046FCF7C1FB019B0AEB8303B8
:104A9000C3F84C80DBF83C30344A35490020984755
:104AA0002B464FF000084D46994606E0E06CDDB21B
:104AB00008B1FCF7ABFBC4F84C806B1EDCB20AEB10
:104AC0008404002DF2D1D9F898A04D467B68C5F832
:104AD000E030069BC5F8A430079BC5F8A830059BBD
:104AE000C5F8AC300C9B2B6005F1A003BAF1000FA8
:104AF00025D0C5F83CA0CAF80030286883689847DC
:104B000060B91C4B174ADB6B1B4998479FE6A846C8
:104B1000BDE6039B089352E6B046B8E62868C36832
:104B20009847164B164A73600023C6E9023292E694
:104B3000144B0693144B0793144B0593C6E7EB6392
:104B4000DBE75346DDF824A00F9FDFF828B00AEB1F
:104B50008303DDE90D56D8649CE74FF0000C15E7A0
:104B600075300008D8EE0008C4EE0008F8EE000822
:104B7000F4E40008AC000020B4EE0008310900089D
:104B80001D120008610900080D0B000875090008D6
:104B90002DE9F04F2DED028BBC4CBD48DFF8409362
:104BA000ADF2F47DA4F1580104F056FF0FCC09F1E9
:104BB0002C050FC594E80300022285E80300B54BDD
:104BC00089F82820B449C9F83C3156225C20FEF708
:104BD00037FA002800F0CE80B04B824604F108017D
:104BE00040F8043B582204F037FE5022A023CAF8B4
:104BF0000420AAF808305046FCF72EFF054600288E
:104C000043D06622A6491020FEF71AFA0246049005
:104C10000446002839D0A34B0360A34B4C954CA805
:104C20007CA9CDE94D32FFF735FD606050B300241B
:104C300095F84E102346E2B2914204D97CAA32F88C
:104C4000142013449BB20134042CF4D1B5F848204D
:104C5000049DBDF8FE01BDF80012E98112FB03F3CB
:104C6000A8819BB250460893FCF7F6FEE8B98F483E
:104C700004F0DCFE0023504604990022FEF7A0F861
:104C800001200CE00498FCF7C3FE894804F0CEFE36
:104C9000002350461A461946FEF792F801200DF2FD
:104CA000F47DBDEC028BBDE8F08F7CA9FFF7D4FC4E
:104CB0000028DCD0BDF8F0310993184604F034FE2A
:104CC0000590002800F068877A4B4FF480529A6173
:104CD000FDF700FC78493B221420FEF7B1F980462D
:104CE000002842D0754973224FF4FE70FEF7A8F9F0
:104CF000002801F02982724F01260025A0F8C46126
:104D000080F8C6617CAAC8F81000C8E90075C8F828
:104D1000086088F80D5029463046ADF8F051FCF790
:104D200047FBBDF8F03141F2102293422DD0654A85
:104D30006549D9F83C402846A0474046FCF746FE66
:104D40001C2130467CAAADF8F051FCF731FBBDF8D0
:104D5000F031190509D5A8460020D9F83C305B4A46
:104D6000554998474046FCF731FE594804F05EFE2D
:104D7000059B80E7574804F059FE4E4B4FF4805294
:104D80009A62FDF7A7FB012089E730467CAA1C2127
:104D9000ADF8F051FCF70CFBBDF8F05115F40065CF
:104DA000DAD1D8F80800FCF7D9FA0322D8F80800BD
:104DB000009240F2491329460290FCF7A1FA0298AA
:104DC000009540F2491322460221FCF799FA029815
:104DD0000095214640F249131022FCF791FA0298FF
:104DE000009540F2491320220521FCF789FA029828
:104DF000009540F249134FF47F5206210297FCF7C9
:104E00007FFACDF80CA0D8F80030029A934215D062
:104E1000D9F83C30304A2849DDF80CA000209847EA
:104E20002E4804F003FE4046FCF760FD5046059B0B
:104E300004994246FDF7C4FF012030E7D8F8082066
:104E400098F80D3008EE902A0A2B60D8DFE813F0AE
:104E50006D00740518050B001C0202046102D805E0
:104E6000CD01F7006D0018EE900AFCF7EBFB00286F
:104E70004DD0059918EE900A20230022FEF708F87D
:104E80000026B0F900700446012135E0E0AF0008CB
:104E90001CEF000800366E01F0EA00080FB037136F
:104EA000CCEA00080DB03713410900083CEF0008B8
:104EB00060EF000800040048A8EA000880E7000846
:104EC0000EB037139CEF0008B0E70008BCEF0008F5
:104ED000D8EF000880F2000890EA000820F20008ED
:104EE000AC000020BA42A8BF0E4601F10101A8BFE4
:104EF0001746202901F0C582234634F9022F1D8868
:104F000002F516735B1B9BB2B3F5966FEAD9DDF819
:104F10000CA098F80D30D9F83C40C84AC849002088
:104F2000A047002388F80D307AE7882200214CA89A
:104F300004F033FAD9ED4F7A9FEDC26A9FEDC27A41
:104F4000B8EE678AF6EE006AC6EE087AB4EEC78A53
:104F500077EEA67AF1EE10FAFCEEE77A17EE903AC9
:104F60009EB200F33286DFEDB97AB4EEE78AF1EE55
:104F700010FA00F12A86A6F110039BB2EF2B01F282
:104F80000C8478EE677ADFEDB26A9FEDB27A07EEB5
:104F9000A67A3F2EFCEEC77A17EE902AADF8B42120
:104FA00001F2E88200222F2E88BF3346ADF8B031DF
:104FB000ADF8AE21ADF8B22134AD05980999ADF840
:104FC000AC6100242A467CAB2C607C94FCF7C4F8CE
:104FD00018EE900AFCF7D4FA10B3DFF8A4A27C9B79
:104FE0002F68C4F534660A36B34298BF9EB29A4B16
:104FF00088BFB6B24FEA540B03EB8B0072083946F8
:10500000FBF76CFEBDF8AE311C22CDE90023214632
:10501000534632463846FBF785FE002841F09B8018
:105020000020012400283FF472AF88F80D40FBF700
:10503000CFF800287FF4E7AEDDF80CA0F0E618EE1C
:10504000900ADDF80CA0FCF7FDFA00283FF461AFF0
:10505000002214AC1CAE05990B964FF49C6334AF40
:1050600018EE900A154607940A97FDF711FFCDE94F
:10507000004512AB35607CAA902125603D601295F9
:105080000646FBF733FB00283FF443AF0A9C0B9B1B
:10509000019500947CAAF02106F59070FBF726FBA1
:1050A00000283FF436AF079B226818686B496C4CA8
:1050B000129B0195121A01FB02F104FB00F0090C8E
:1050C000C1EB503104FB03F304FB02F012AF009775
:1050D00062915F0B639011AB7CAA40F21F1106F244
:1050E00002306497FBF702FB00283FF412AF0B9BE2
:1050F000079A01937CA9009210AB0A4606F5A860B6
:105100004FF49071FBF7F2FA00283FF402AF0A9BCC
:105110007CA9CDE900530A462B4606F5F0604FF412
:105120009071FBF7E3FA00283FF4F3AEDDE910716C
:10513000079A0B980A9BDDF848C01268494ED0F8D0
:1051400000E01868484BDFF83CB1C91BA2EB0C0229
:1051500006FB01F603FB02F504FB07F7330CC3EB78
:105160005733424F6593A0EB0E0007FB00F304FB9F
:105170000CF62D0C04FB0EFC1B0C04FB01F104FBD4
:1051800002F2C3EB5C33C5EB563504FB00F44CA8CC
:10519000CDE96615CDE969346892FBF78DFA344E96
:1051A0006E900A234FF4805488F80D30B462FDF7F6
:1051B00091F90523089D06960393CDF808A0069B58
:1051C0001A464FF480539361FDF784F9D8F8003004
:1051D0005B4500F06784D9F83C30264A2649DDF863
:1051E00008A00020984725481BE618EE900AFCF717
:1051F00029FA00283FF48BAE059918EE900A602337
:105200000022FDF745FE00270446861C40F6B73510
:1052100008E0FCF7FBFA7CAB43F827000137302F9E
:1052200001F0E58136F9271034F9270001FB01F37D
:1052300000FB0033AB42ECDC69E600BFF4EF000892
:1052400018F00008F902154F8096984C8096984BFC
:10525000E8385BB500007C4218CD0008A82A04009D
:10526000AA0A010054150200A64A07004E750B0059
:105270000004004890EA0008A8EA0008D0F00008FE
:1052800050B000080EB0371318EE900AFCF7DAF9A8
:1052900000283FF43CAE5023059918EE900A0022F6
:1052A000FDF7F6FD4FABCDF8188084464FF0300A7D
:1052B0009846DE4F002647F6FF75B6462C466146F7
:1052C0004FF6EC726FF01B03384618E0AB45BCBFDD
:1052D0001E465D46242A00F0398431F8023F31F839
:1052E00002BCA3EB0B031BB29C42A8BF1C4602F1FD
:1052F000080B9842B8BF184613B21FFA8BF2B1F9E7
:1053000000B0BBF1000FE1DABB45E3DD9E465F462E
:10531000E0E718EE900AFCF795F9069000283FF4B4
:10532000F6ADD9F83C010599BDF8AC514FF4407386
:1053300000224FF47A74B0FBF4F418EE900AFDF7F3
:10534000A7FD05FB04F4A3460B90851C7BAE0DF274
:10535000EC74B5F9001035F9020CFCF757FA46F871
:10536000040FB44205F10405F3D10023CDE9353330
:10537000CDE93733CDE939331E46182234930A93E9
:105380003B935B4634AD02FB03F24FF6FF71A84F2F
:10539000CDF830800D95A84693AC079140F6945B0C
:1053A00092461D46A4F15C00FBF798FAB0B2A4F156
:1053B00060024FF0000E52F8043F116E9442A3EBCE
:1053C00001039E44F7D1BEF1000FC0F2F1834FEA12
:1053D0009E130BFB03F35B0D05FB03F30AEB132397
:1053E000C8F8003026B158E901329A4281F04C8168
:1053F00058F8043BA3F16673A3F54A33203B002B16
:10540000B8BF5B42BB4203D21F46069B07900A937C
:105410000136082E04F1C004C4D10A9BDDE90C85D5
:10542000002B01F0DC808348079900913724ADF808
:10543000521180F824408049804A18EE900A0C23CB
:10544000FDF776FD18EE900A40F21641FCF76AF877
:1054500000283FF45CAD0B9B9FED796AAC46184683
:1054600003F1C0060027F7EE006AA6F1C00300248E
:10547000B3F90210B3F9002001FB01F1043302FB80
:1054800002129E421444F3D107EE904AB8EE677AB6
:105490003037C7EE067AB7F5C07F06F1C006B1EE29
:1054A000E77AC6EE877AECEC017ADED10B9B03F546
:1054B000C0627CABB0F90010F5EC015A06EE101A90
:1054C000B0F9021006EE901AB0F9601007EE101A4B
:1054D000B0F9621007EE901AB8EEC66AF8EEE66A06
:1054E000B8EEC77AF8EEE77A26EE256A66EEA56A88
:1054F00067EEA57A27EE257A26EE065A67EE075A5A
:1055000026EE266A27EE277A66EEA66A67EEA77A67
:10551000C030824283ED005A83ED016AC3ED026A16
:10552000C3ED185A83ED197AC3ED1A7A03F10C030F
:10553000C0D11CAB194610227CA8FCF7A5F80028A6
:1055400071D0D1ED007A91ED016AD1ED025A9FED53
:105550003D5A9FED3D4AF1EEE76AB1EE007A67EE03
:10556000877A26EE067A17EEA57AF6EE007AC7EE6F
:10557000A64AF1EEC73AB6EE087A76EEC76A14EE9E
:10558000A37AF7EE005A44EE865AB0EE476AB0EEC0
:10559000677A06EE857AF3EE0F4AB4EEE47AF0EE1F
:1055A000676AF1EE10FA45EE846A46EE057A00F37A
:1055B000ED82B5EEC07AF1EE10FA01D59FED237AB7
:1055C0009FED236ABCEEC77AF4EEC66A17EE103A76
:1055D000F1EE10FA9BB200F3DC82F5EEC06AF1EE58
:1055E00010FA01D5DFED196AFCEEE66AB3EE0F7A28
:1055F00016EE902AF4EEC77AF1EE10FA92B200F3AA
:10560000C282F5EEC07AF1EE10FA01D5DFED0F7A25
:10561000FCEEE77A43EA822317EE902A92B243EA3D
:105620004213ADF886310724FCE400BF0080FFFF81
:1056300040420F000000002018CD000850B00008C4
:1056400000004042000080420000004200000000D4
:1056500000007C4218EE900AFBF7F4FF00283FF4AC
:1056600056AC4FF440730599AF4F18EE900A0022E4
:10567000FDF70EFC14AB0C930B93079300230693DA
:105680001CAB34AD0A934BAECDF834808246DDF8C6
:1056900028805446B4F9021034F9040BFCF7B6F82C
:1056A00048F8040B4545F5D10DF1CC0BD8465446CE
:1056B000B4F96210B4F96000FCF7A8F848F8040FD8
:1056C000464504F10404F3D1069A7CAB1BAC981850
:1056D000002154F8042F5BF8043F9B1A934A93422D
:1056E00040F3CB80914AA3F5C9237E3B9342F9DC7A
:1056F000002BB8BF5B429942B8BF19465E4540F8DF
:10570000043BE6D1069B079A4910603342F8041B1C
:10571000B3F5407F069307920AF1C00AB7D1002083
:10572000DDF834800B9C0146034654F8042B8A4272
:10573000C8BF184603F10103C8BF1146082BF4D1B6
:105740000C9B7CAA53F82040602303FB00202946D1
:10575000002250F8043BA342ACBF0023012301F810
:10576000013B0132182ACB75F3D100210A460223EE
:105770000AE06C7884B12C7874B902460121302B90
:105780003FF4C5AB01330135581E002AF1D06878CB
:10579000002800F0D1810131302BF3D1A1F10C03AD
:1057A000082B3FF6B4AB02EB510200E0183A172A7F
:1057B000FCD892B293009BB203F13004A4B25F2CE8
:1057C000ADF8382140F2CB866021B4FBF1F201FB49
:1057D000124292B200261C46374613460125544A0F
:1057E0005449009318EE900A2123FDF7A1FB504A7B
:1057F00050490094222318EE900AFDF799FB0324E8
:105800004B4A4C490095012318EE900AFDF790FB96
:10581000474A48490094022318EE900AFDF788FB96
:105820002346434A4349009718EE900AFDF780FB50
:105830003F4A40490096042318EE900AFDF778FB92
:105840003B4A3C490095052318EE900AFDF770FB92
:105850000023374A3749009318EE900A0623FDF7D4
:1058600067FB18EE900A4FF47B71FBF75BFE062492
:10587000FFF7D8BB03F5C9237E33BB42FADB37E71A
:1058800018EE900AFBF7DEFE834600283FF43FAB9C
:1058900005994123002218EE900AFDF7F9FA028CCF
:1058A0000B920023821ECDF8288084460693194669
:1058B00007934FF6FF7641F2707E4FF00E0A904646
:1058C0001BE03CF9110038F9117000EB0E02C01B0F
:1058D000A042C0F24986984200F34686002AB8BF2B
:1058E000524292B2B24204D2AB009BB2CDE9063B27
:1058F00016460F2D00F0B28401314B1E03FB03F35B
:10590000C3EBC3040AFB03F3C83C03F516738DB263
:105910000029D6D1BCF900207244002AB8BF5242F7
:1059200092B2B242E0D3E7E7C1DBFCFF3F240300C1
:1059300050B0000818CD000818EE900AFBF782FE60
:1059400000283FF4E4AA18EE900A7CAA3221FBF763
:105950002FFD1223059918EE900A0022FDF798FA00
:105960000646B0F802C036F8045BBDF8F00100242A
:1059700023464FF6FF7740FA03F2D20799B20BD5D0
:1059800036F81320A2EB0C02002AB8BF524292B2A2
:10599000BA423CBF17460C460133102BEBD1631EB5
:1059A0000D2B3FF6B4AA04F10043013B06EB43077D
:1059B00036F813307A8841F287319B1A8B427FF791
:1059C000A6AABB88D21A8A427FF7A1AA4FF6FF7314
:1059D00098423FF49CAAA04AA0490094252318EEBF
:1059E000900AADF83241ADF83051FDF7A1FA18EE4A
:1059F000900A40F23221FBF795FD0224FFF712BB1B
:105A000018EE900AFBF71EFE00283FF480AA0599C5
:105A10001023002218EE900AFDF73AFABDF88631FD
:105A2000002103F01F0AC3F344129B0A0E4607919C
:105A3000871C0AF1300A02F1300EA3F120050C4652
:105A400006918B4609E0069A93425E4600F2CE83A9
:105A50009B460134082C00F0CF8330F9243037F90D
:105A600024200AFB03F302FB05F1002B02FB0EF2DC
:105A7000B8BF3F330029B8BF1F31002AB8BF3F323B
:105A80009B1103EB611342F38F121BB202FB02F274
:105A900003FB0323B3421FFA84FCDAD95B45D2D857
:105AA0001E46D6E74CA8FAF707FE6E9B984209D02F
:105AB000D9F83C306A4A6B49DDF808A000209847C5
:105AC000FFF791BB0298FBF7C7FF0746002839D0C4
:105AD0000023D8F80800ADF8F0317CAA1C21FBF7B0
