:020000040800F2
:100000000000012059A20008E18C0008DD8C0008E6
:10001000D98C0008D58C0008D18C000800000000A5
:10002000000000000000000000000000C98C000873
:10003000CD8C000800000000C58C0008B58C0008BD
:10004000A9A20008A9A20008A9A20008798C0008AA
:10005000A9A20008A9A20008A9A20008A9A2000854
:10006000A9A20008658C0008A9A20008A9A200089E
:10007000598C00084D8C0008A9A20008A9A200080C
:10008000418C0008358C0008A9A20008A9A200082C
:10009000A9A20008A9A20008A9A20008A9A2000814
:1000A000A9A20008A9A20008A9A20008A9A2000804
:1000B000A9A200080000000000000000A9A200089A
:1000C000A9A200080D8C0008A9A20008A9A2000896
:1000D000A9A20008A9A2000875880008A9A2000822
:1000E00061880008F587000800000000000000009B
:1000F0000000000000000000000000000000000000
:1001000000000000A9A2000800000000A9A2000849
:100110000000000000000000A9A20008A9A2000839
:10012000A9A20008A9A20008A9A20008A9A2000883
:10013000A9A200080000000000000000000000006C
:10014000A9A20008A9A20008A9A2000800000000B6
:10015000A9A20008A9A20008A9A20008A9A2000853
:10016000A9A20008A9A20008A9A200080000000096
:10017000A9A20008A9A200080000000000000000D9
:10018000A9A20008A9A20008A9A200080000000076
:1001900010B5054C237833B9044B13B10448AFF3C1
:1001A00000800123237010BD90000020000000009B
:1001B0001CCB000808B5034B1BB103490348AFF340
:1001C000008008BD00000000940000201CCB000847
:1001D0000F49104A086813691B0704D50D4B1869AD
:1001E000C0F3C00070470B681B1AB3F57A7FF5D2D5
:1001F00072B613691B0700D430BF62B6BFF36F8FAE
:1002000013691B07EFD5034B1869C0F3C000704793
:10021000AC00002000040048144BDB68C3F3022349
:1002200010B4C3F107041A1D042C28BF0424062AA5
:100230004FF0FF3202FA04F28CBF033B002321EAA5
:1002400002019940431C0AD000F1604000F5614072
:100250000901C9B280F800135DF8044B7047034BE5
:100260000901C9B283F82310F6E700BF00ED00E0F2
:10027000F0B40568294F064601E0581C06D1EC6928
:1002800031EA0400F9D10020F0BC70473868801AC8
:10029000834227D333B328684407F0D5E8690005C3
:1002A000EDD54FF400632B6255E8003F23F4D07383
:1002B00045E80032002AF7D1326802F1080353E81A
:1002C000003F23F0010302F1080040E8003100295B
:1002D000F3D12023B36786F87410F3670320C6F8C0
:1002E0008030D1E755E8003F23F4D07345E8003271
:1002F000002AF7D1326802F1080353E8003F23F0E7
:10030000010302F1080040E800310029F3D1202365
:10031000B36786F874100320F367B5E7AC000020DC
:100320000346214A0068904295BF204A204A21494D
:10033000214930B4024419641421B2FBF1F2920055
:100340005A64022283F8252001689D68D3E90524B8
:1003500021F4FF4121F070012A430A43224342F075
:100360008002B5F5804F026014D0196C114A914299
:1003700008BF12495A6C18BF114902F01C000F2423
:100380000A68844022EA04020A605A680C688240C3
:1003900022430A6000200122D86383F8240083F8F6
:1003A000252030BC704700BF07040240F8FFFDBFA6
:1003B000F8FBFDBF0000024000040240A80002401C
:1003C000A80402402DE9F041654C94F82430012B3B
:1003D00000F0C28061680122022384F8242084F89E
:1003E00025308E680278056A16F0400616BFC6787A
:1003F000C670B605092A09D900230A3AD2B2092AD9
:1004000003F10103F9D842EA0312D2B24378092B6F
:100410004FEA024209D900270A3BDBB2092B07F158
:100420000107F9D843EA0713DBB290F802E0BEF106
:10043000090F4FEA03280DD90027AEF10A0E5FFA23
:100440008EFEBEF1090F07F10107F6D84EEA071E2E
:100450005FFA8EFE90F824C0BCF1090F0DD9002779
:10046000ACF10A0C5FFA8CFCBCF1090F07F1010733
:10047000F6D84CEA071C5FFA8CFC436947681D43B9
:100480002E43324348EA0203826AC669CA255320D2
:100490004D6243EA0E0E4862B2F5807F4EEA0C636D
:1004A0008A6846EA070639D022F400728A60CA6870
:1004B000D2B262F42072CA60256804E02068401B52
:1004C000B0F57A7F20D8CA6812F00202F6D00B622B
:1004D0008E648B6843F400738B608B6843F4005325
:1004E0008B60204B1A6842F480221A609A68FF26BB
:1004F00042F48022012500209A604E6284F8240094
:1005000084F82550BDE8F0810323FF2084F82420DF
:100510004862184684F82530BDE8F08122F48072E4
:100520008A60CA68D2B262F4C072CA60256804E008
:100530002068401BB0F57A7FE6D8CA6812F0010245
:10054000F6D0CB614E648B6843F480738B608B680C
:1005500043F480538B60C4E70220BDE8F08100BF04
:10056000AC0000200004014009494A68D36823F028
:10057000A003D360086804E00B681B1AB3F57A7F08
:1005800004D8D3689B06F7D5002070470320704736
:10059000AC00002008B5114BDA6822F08002DA6066
:1005A0009A68920603D4FFF7DFFF88B908BD9A68FE
:1005B00022F020029A60FFF7D7FF18B1084B032002
:1005C00083F82500054A936843F02003936008BD33
:1005D000034B032083F8250008BD00BF002800401E
:1005E000AC0000200E494A68D06810F0400001D0ED
:1005F000002070474FF0FF3330B4D3600C68032500
:1006000009E003280AD00B681B1BB3F57A7F84BF6F
:1006100081F825500320D3685B06F2D530BC7047C3
:10062000AC0000200288438843EA02430B60704715
:10063000DFF880C02DE9F04F023802390CF1E209F1
:100640000CF1E40B4FF0000A40F6DE1830F8025FC0
:1006500031F8024FA54220D09CF800400BEBC404B7
:10066000658825B36768002607EB850E47F6FF759A
:1006700057F8044BA4B2A54228BF2546A64238BF6E
:100680002646BE45F4D17600B6B26D00B24538BFFD
:10069000B246ADB2A84528BFA8460CF1010CCC4526
:1006A000D4D1A2F80080A3F800A0BDE8F08F4FF6E7
:1006B000FE75EFE738CB00080B4A30B4411E00F15D
:1006C00087054FF0FF3011F8014F08236040C40741
:1006D0004CBF82EA50004008013BF8D18D42F2D174
:1006E000C04330BC704700BF2083B8ED2DE9F04F08
:1006F000054687B0002405EB410E02900592104696
:1007000004910393AEF1120EAA1E27460194A1464E
:10071000A2464FF0010C40F2EE2B14E0BAF1000FAC
:1007200030D14B4535DD99460124019E7642B342D6
:10073000BCBFA8EB050301938F4238BF0F46964517
:1007400000F102002BD0558A32F8021F6B1A03F514
:100750000046B6F5803F38BF038088462CBF4FF077
:10076000000C11885B45D9DC594E9945B8BF9946B4
:10077000B342DADA002C0ABF4FF0000CA2464FF069
:10078000010AD2E74B4506DD994654464FF0000C6E
:10079000CBE70124C9E754464FF0000CC5E7BCF194
:1007A000000F05D14FF0000A504607B0BDE8F08FAA
:1007B000002CF7D0BAF1000FF4D0049A059E0497EC
:1007C0000023CDF81490A2F11C0E123698469C46D8
:1007D0001D461F46994636F9023F03EB830203EBA1
:1007E0004203304631460A2231F902BD30F9024F48
:1007F00002FB0B33A2F1020B013A0BFB0433F3D1E2
:10080000634561DC434501DA9846A94601357545E3
:10081000E1D14CF250339C4538464C46049FDDF8FC
:100820001490BFDD2B4B9845BCDAB9F1000FB9D05D
:10083000019B002BB6D0029B11991B88FF00DB00A7
:1008400041B1BB4204D2DA434A443A44B2FBF9F222
:1008500011990A60109A002AA6D0039A002AA3D000
:10086000024602990E3231F81210B3EBC10F4FEA73
:10087000C10005D2DB434B440344B3FBF9F3D21A66
:10088000029B04F10E0933F81930B7EBC30F4FEA9E
:10089000C30107D90198431E3B445B1AB3FBF0F335
:1008A000A9EB0309002AFFF67DAFB9F1000FFFF6AF
:1008B00079AF4A453FF776AF109BA9EB0209C3F821
:1008C0000090039B1A606FE79C462F469EE700BF8F
:1008D00012FDFFFFB03CFFFF704700BF70B4124E27
:1008E000124D00F1BC04002143680B44024640F85D
:1008F000043F12689A1AB24209DD50F8042CA3F59D
:10090000C9237E3BA1F5C92103607E399A1AAA4208
:1009100006DA03F5C9237E3301F5C92103607E3170
:100920008442E1D170BC70473F240300C1DBFCFF6F
:1009300018B1074B02689A4205D0064B064A9B6BDA
:10094000064900201847002380F85330704700BF45
:100950000FB03713AC000020F0090108080A0108A5
:1009600070B48C8893680E898D79CA799A70003C2E
:1009700018BF01249E801C705D70986070BC704729
:100980000368D0F8E820C0F8F0205A6818461047ED
:10099000D0E90F23816B0069184700BF0068C36866
:1009A000184700BF704700BFF8E700BF00688368C2
:1009B000184700BFFAE700BFF0E700BFF0B4314BC3
:1009C000314E1B68056882B000248DF803403468FE
:1009D000376803EB8303C4F16404C3EBC30322440D
:1009E0001B0D02FB03F30193AB6819420AD12CE003
:1009F000019C019B013B0193AB68002C08BF0022C6
:100A0000194222D0B1F5C06F05D12B7BDBB28DF836
:100A100003309DF803303368DB1B9A42E8D86B68DB
:100A2000426823F0E003B2F5827F6B601AD0836ADC
:100A3000B3F5005F0DD00122002380F85D2080F81F
:100A40005C30032002B0F0BC7047002002B0F0BC64
:100A500070472B6823F400532B602B6843F400533A
:100A60002B60E8E78368B3F5004F02D0B3F5806FE1
:100A7000DDD12B6823F040032B60836AB3F5005F60
:100A8000D9D1E6E700000020AC00002070B4294D69
:100A9000294B2A681B6804682E68C2F1640211445D
:100AA00083B0C3F3CB3301FB03F30193A3681A06AE
:100AB0000DD52B689B1B8B420DD2019A019B013BEC
:100AC0000193A368002A08BF00211B06F1D400206F
:100AD00003B070BC70476368426823F0E003B2F56E
:100AE000827F636016D0836AB3F5005F09D001226C
:100AF000002380F85D2080F85C30032003B070BCD8
:100B00007047236823F400532360236843F40053A1
:100B10002360ECE78368B3F5004F02D0B3F5806F34
:100B2000E1D1236823F040032360836AB3F5005FBB
:100B3000DDD1E6E7AC000020000000202DE9F04FF9
:100B4000C5B00D46904681464FF4827203A800213D
:100B50000BF0B1F8002D43D04FEA58077E1E04AACF
:100B600008F1FF34B6B2C7EB8773A4B202EB860676
:100B70009B0003AA09EB850B0134019348463D44D1
:100B80004FF0000C02EB870ADFED1B7A6346B8F1E9
:100B9000000F18D0AB420CD2A3EB0C01BB4289B2C0
:100BA00007D38F4202EB830E1DD99EED017A77EEBB
:100BB000877A0133A342EDD12FB103AB596843F8D3
:100BC000041BB342FAD10368E0EC017A58450CF1FA
:100BD000010C04F10104A2F10402CAF80030D3D1DF
:100BE00045B0BDE8F08F019901EB8301494491EDD7
:100BF000007A77EE877ADCE700000000836910B5A1
:100C00000446BBB10D4B93F840204AB963697BB1F0
:100C10000A4B0B4A9B6B0B4900209847002010BDE4
:100C20009B6B094A0749012098476369002BEFD164
:100C3000012010BDC369002BE4D1E7E7AC00002020
:100C4000480A01082C0A0108100A01082DE9F04F92
:100C5000BC4C94F84030012B85B0064640F2B1847C
:100C6000A36BB94AB9490220984794F84030012B48
:100C700040F2A7847368A56BB54AB4490220A8471F
:100C800094F84030012B40F29C8496F84C30B14FE0
:100C9000DFF81883B04AAD49A56B002B14BF3B4663
:100CA00043460220A84794F84030012B40F2898443
:100CB00096F84D30A94AA549A56B002B14BF3B46B9
:100CC00043460220A84794F84030012B40F2798433
:100CD00096F84E30A56B9D49013BDBB2042B96BFC5
:100CE0009F4AA04B02EB83034FF0020098BFD3F85A
:100CF00074389D4AA84794F84030012B40F2618433
:100D0000B6F85030A56B994A90490220A84794F84C
:100D10004030012B40F25584D6ED157A9FEDA47A30
:100D20009FEDA36ADFEDA36AA56B8849F5EEC07A53
:100D3000F1EE10FA48BFF1EE677A77EE877A4CBF92
:100D40008B4B8C4BBCEEE77AF5EEC07AF1EE10FAE5
:100D500017EE102A4CBFB1EE677AB0EE677A37EE25
:100D6000067A0092BCEEC77A834AB8EE477A022030
:100D700077EEC77A67EEA67AFCEEE77ACDED017AD8
:100D8000A84794F84030012B40F21B84D6ED167A28
:100D90009FED877A9FED866ADFED866AA56B6B49CA
:100DA000F5EEC07AF1EE10FA48BFF1EE677A77EE11
:100DB000877A4CBF6E4B6F4BBCEEE77AF5EEC07A8C
:100DC000F1EE10FA17EE102A4CBFB1EE677AB0EED2
:100DD000677A37EE067A0092BCEEC77A674AB8EEB9
:100DE000477A022077EEC77A67EEA67AFCEEE77ABA
:100DF000CDED017AA84794F84030012B40F2E18311
:100E000096F85C30534FDFF8A4815D4A4F49A56BDB
:100E1000002B14BF3B4643460220A84794F84030BD
:100E2000012B40F2CE8396F85D30564A4749A56BB8
:100E3000002B14BF3B4643460220A84794F840309D
:100E4000012B40F2BE83A36B4F4A404902209847D2
:100E500094F84030012B40F2B4833389A56B4B4AA0
:100E60003A490220A84794F84030012B40F2A98368
:100E70007389A56B464A35490220A84794F840304B
:100E8000012B40F29E83B389A56B424A2F49022071
:100E9000A84794F84030012B40F29383F389A56B67
:100EA0003D4A2A490220A84794F84030012B40F2DD
:100EB0008883337CA56B2549013BDBB2042B96BFAD
:100EC000274A284B02EB83034FF0020098BFD3F868
:100ED0007438324AA84794F84030012B40F27183AD
:100EE000737C1C4FDFF8C4802D4A1849A56B002B7A
:100EF00014BF3B4643460220A84794F84030012BDC
:100F000040F25F83B37C274A1049A56B002B14BFC6
:100F10003B4643460220A84794F84030012B40F25C
:100F20005083F37C204A0949A56B002B14BF3B4634
:100F300043460220A84794F84030012B40F24183F9
:100F40003AE000BFAC0000208C0A0108A80A0108A2
:100F5000BC0A0108700A0108C80A0108E40A01086D
:100F600038CB0008800A0108040B0108180B01089F
:100F7000880A0108E81D0108300B0108480B010828
:100F80005C0B0108780B0108980B0108BC0B0108E9
:100F9000D40B0108E80B0108F80B01081C0C010830
:100FA000280C0108480C0108640C0108780A0108A3
:100FB000BD37063500247449D6ED057A1FED047A55
:100FC0001FED056A5FED056AA56BDB49F5EEC07A9A
:100FD000F1EE10FA48BFF1EE677A77EE877A4CBFF0
:100FE000D64BD74BBCEEE77AF5EEC07AF1EE10FAAD
:100FF00017EE102A4CBFB1EE677AB0EE677A37EE83
:10100000067A0092BCEEC77ACE4AB8EE477A022042
:1010100077EEC77A67EEA67AFCEEE77ACDED017A35
:10102000A84794F84030012B40F2CB82D6ED067AE7
:101030009FEDC57A9FEDC46ADFEDC46AA56BBE491A
:10104000F5EEC07AF1EE10FA48BFF1EE677A77EE6E
:10105000877A4CBFB94BBA4BBCEEE77AF5EEC07A53
:10106000F1EE10FA17EE102A4CBFB1EE677AB0EE2F
:10107000677A37EE067A0092BCEEC77AB44AB8EEC9
:10108000477A022077EEC77A67EEA67AFCEEE77A17
:10109000CDED017AA84794F84030012B40F29182BF
:1010A000D6ED077A9FEDA87A9FEDA76ADFEDA76AD4
:1010B000A56BA149F5EEC07AF1EE10FA48BFF1EE4A
:1010C000677A77EE877A4CBF9C4B9D4BBCEEE77AF4
:1010D000F5EEC07AF1EE10FA17EE102A4CBFB1EE21
:1010E000677AB0EE677A37EE067A0092BCEEC77A7E
:1010F000984AB8EE477A022077EEC77A67EEA67A6A
:10110000FCEEE77ACDED017AA84794F84030012B48
:1011100040F25782D6ED087A9FED8B7A9FED8A6A6E
:10112000DFED8A6AA56B8449F5EEC07AF1EE10FA1C
:1011300048BFF1EE677A77EE877A4CBF7F4B804BE2
:10114000BCEEE77AF5EEC07AF1EE10FA17EE102A4F
:101150004CBFB1EE677AB0EE677A37EE067A00924E
:10116000BCEEC77A7C4AB8EE477A022077EEC77A9F
:1011700067EEA67AFCEEE77ACDED017AA84794F8FF
:101180004030012B40F21D82D6ED097A9FED6E7A38
:101190009FED6D6ADFED6D6AA56B6749F5EEC07A6C
:1011A000F1EE10FA48BFF1EE677A77EE877A4CBF1E
:1011B000624B634BBCEEE77AF5EEC07AF1EE10FAC3
:1011C00017EE102A4CBFB1EE677AB0EE677A37EEB1
:1011D000067A0092BCEEC77A604AB8EE477A0220DF
:1011E00077EEC77A67EEA67AFCEEE77ACDED017A64
:1011F000A84794F84030012B40F2E381D6ED0A7AFB
:101200009FED517A9FED506ADFED506AA56B4A4918
:10121000F5EEC07AF1EE10FA48BFF1EE677A77EE9C
:10122000877A4CBF454B464BBCEEE77AF5EEC07A69
:10123000F1EE10FA17EE102A4CBFB1EE677AB0EE5D
:10124000677A37EE067A0092BCEEC77A444AB8EE67
:10125000477A022077EEC77A67EEA67AFCEEE77A45
:10126000CDED017AA84794F84030012B40F2A981D6
:10127000D6ED0B7A9FED347A9FED336ADFED336A5A
:10128000A56B2D49F5EEC07AF1EE10FA48BFF1EEEC
:10129000677A77EE877A4CBF284B294BBCEEE77A0A
:1012A000F5EEC07AF1EE10FA17EE102A4CBFB1EE4F
:1012B000677AB0EE677A37EE067A0092BCEEC77AAC
:1012C000284AB8EE477A022077EEC77A67EEA67A08
:1012D000FCEEE77ACDED017AA84794F84030012B77
:1012E00040F26F81D6ED0C7A9FED177A9FED166A6A
:1012F000DFED166AA56B1049F5EEC07AF1EE10FA33
:1013000048BFF1EE677A77EE877A4CBF0B4B0C4BF8
:10131000BCEEE77AF5EEC07AF1EE10FA17EE102A7D
:101320004CBFB1EE677AB0EE677A37EE067A00927C
:10133000BCEEC77A18E000BFA80A0108880A0108B5
:10134000E81D0108800C0108BD37063500247449EA
:10135000980C0108C00C0108E80C0108180D0108E0
:10136000400D0108680D0108A24AB8EE477A022034
:1013700077EEC77A67EEA67AFCEEE77ACDED017AD2
:10138000A84794F84030012B40F21B81D6ED0D7A2E
:101390009FED997A9FED986ADFED986AA56B984961
:1013A000F5EEC07AF1EE10FA48BFF1EE677A77EE0B
:1013B000877A4CBF934B944BBCEEE77AF5EEC07A3C
:1013C000F1EE10FA17EE102A4CBFB1EE677AB0EECC
:1013D000677A37EE067A0092BCEEC77A8B4AB8EE8F
:1013E000477A022077EEC77A67EEA67AFCEEE77AB4
:1013F000CDED017AA84794F84030012B40F2E1800E
:10140000D6ED0E7A9FED7C7A9FED7B6ADFED7B6AED
:10141000A56B7B49F5EEC07AF1EE10FA48BFF1EE0C
:10142000677A77EE877A4CBF764B774BBCEEE77ADC
:10143000F5EEC07AF1EE10FA17EE102A4CBFB1EEBD
:10144000677AB0EE677A37EE067A0092BCEEC77A1A
:101450006F4AB8EE477A022077EEC77A67EEA67A2F
:10146000FCEEE77ACDED017AA84794F84030012BE5
:1014700040F2A780D6ED0F7A9FED5F7A9FED5E6A0E
:10148000DFED5E6AA56B5E49F5EEC07AF1EE10FA0B
:1014900048BFF1EE677A77EE877A4CBF594B5A4BCB
:1014A000BCEEE77AF5EEC07AF1EE10FA17EE102AEC
:1014B0004CBFB1EE677AB0EE677A37EE067A0092EB
:1014C000BCEEC77A534AB8EE477A022077EEC77A65
:1014D00067EEA67AFCEEE77ACDED017AA84794F89C
:1014E0004030012B6DD9D6ED107A9FED437A9FEDF8
:1014F000426ADFED426AA56B4149F5EEC07AF1EE32
:1015000010FA48BFF1EE677A77EE877A4CBF3D4B11
:101510003D4BBCEEE77AF5EEC07AF1EE10FA17EE2D
:10152000102A4CBFB1EE677AB0EE677A37EE067AD2
:101530000092BCEEC77A384AB8EE477A022077EEBE
:10154000C77A67EEA67AFCEEE77ACDED017AA84776
:1015500094F84030012B34D9D6ED117A9FED267ADC
:101560009FED256ADFED256AA56B2549F5EEC07A6A
:10157000F1EE10FA48BFF1EE677A77EE877A4CBF4A
:10158000204B214BBCEEE77AF5EEC07AF1EE10FA73
:1015900017EE102A4CBFB1EE677AB0EE677A37EEDD
:1015A000067A0092BCEEC77A1C4AB8EE477A02204F
:1015B00077EEC77A67EEA67AFCEEE77ACDED017A90
:1015C000A847B56C002D00F0DC8194F84030012B69
:1015D00040F2DA81A36B124A094902209847B56CA0
:1015E00025BBA36B0F4A1049002005B0BDE8F04FA2
:1015F000184700BF8C0D0108BD370635002474491B
:10160000A80A0108880A0108E81D0108AC0D0108B4
:10161000D40D0108FC0D0108300B0108280E01084B
:10162000440E0108F0090108080A0108724B2A68F3
:101630009A42D6D194F84030012B40F2D080D5EDBB
:10164000117A9FED6E7A9FED6D6ADFED6D6AA66B84
:101650006C49F5EEC07AF1EE10FA48BFF1EE677A08
:1016600077EE877A4CBF684B684BBCEEE77AF5EEB5
:10167000C07AF1EE10FA17EE102A4CBFB1EE677A7D
:10168000B0EE677A37EE067A0092BCEEC77A604A0F
:10169000B8EE477A022077EEC77A67EEA67AFCEEBC
:1016A000E77ACDED017AB04794F84030012B40F253
:1016B0009680D5ED127A9FED517A9FED506ADFED5D
:1016C000506AA66B4F49F5EEC07AF1EE10FA48BFAA
:1016D000F1EE677A77EE877A4CBF4B4B4B4BBCEE03
:1016E000E77AF5EEC07AF1EE10FA17EE102A4CBF49
:1016F000B1EE677AB0EE677A37EE067A0092BCEE0A
:10170000C77A444AB8EE477A022077EEC77A67EE86
:10171000A67AFCEEE77ACDED017AB04794F8403036
:10172000012B5CD9B5F84C30A66B3B4A35490220F9
:10173000B04794F84030012B51D995F84E30374FCF
:10174000DFF8F880364A2F49A66B002B14BF3B46C2
:1017500043460220B04794F84030012B3FD995F81A
:101760004F30304A2749A66B002B14BF3B464346F7
:101770000220B04794F84030012B30D995F853300F
:10178000A66B2049022B96BF274A284B02EB830306
:101790004FF0020098BFD3F88838254AB04794F834
:1017A0004030012B1BD995F85430A66B1549022BFC
:1017B00096BF1D4A1D4B02EB83034FF0020098BFFA
:1017C000D3F888381B4AB04794F84030012B06D92B
:1017D000A66B95F85230184A0A490220B04795F88E
:1017E0005230DFF85CB0DFF81CA0DFF858900395AA
:1017F0002E464FF00008C1E00FB03713BD37063555
:1018000000247449080A0108880A0108E81D010833
:10181000580E0108800C0108BC0B0108700A010871
:10182000700E01088C0E010838CB0008800A0108F0
:10183000A40E0108C00E0108DC0E0108780A010898
:10184000F00E0108000F010894F84020012A40F230
:1018500092804346A56B5A4651460220A84794F809
:101860004030012B40F284807368A56B4A46514694
:101870000220A84794F84030012B79D93389A56B11
:10188000444A51460220A84794F84030012B6FD9B2
:101890007389A56B404A51460220A84794F840300E
:1018A000012B65D9B389A56B3C4A51460220A84754
:1018B00094F84030012B5BD9B37BA56B384A514675
:1018C0000220A84794F84030012B51D9F37B354FC3
:1018D0003549364AA56B002B18BF39460B46022006
:1018E0005146A84794F84030012B41D9337C2E490A
:1018F0002F4AA56B002B18BF39460B4602205146D4
:10190000A84794F84030012B32D9707C2649254BEA
:10191000A56B284A002808BF0B4651460220A8475D
:1019200094F84030012B23D9F37CA56B013BDBB24B
:10193000042B96BF204A214B02EB8303514698BFEC
:10194000D3F874381E4A0220A84794F84030012B7F
:101950000ED9B37CA56B052B96BF174A174B02EB2C
:101960008303514698BFD3F89438164A0220A847FB
:10197000039B93F8523008F1010810369845FFF4A4
:1019800063AF05B0BDE8F08F0F4B2A689A427FF431
:1019900028AE24E71C0F0108380F0108540F010876
:1019A000700F0108700A0108780A01088C0F0108FD
:1019B000A80F0108C40F010838CB0008800A0108ED
:1019C000E00F0108FC0F01080FB03713024B034A68
:1019D0009B6B034900201847AC0000201810010839
:1019E000A80A0108024B034A9B6B034900201847D1
:1019F000AC00002028100108A80A010870B4016991
:101A0000B0F8422090F8383031F81220032B08BF8C
:101A100082F4004240F2E51303FB02F31B0C826CDC
:101A2000A3F589739BB21380828F31F812204AB1DB
:101A3000B0F8402031F81220012A03D9C26C0124E9
:101A4000147002E0C26C00241470C48F428F31F80D
:101A5000145031F81240B0F9441040F2E51202FB84
:101A600005F2120CC2F5897213441BB2002BB8BFE9
:101A70005B42D0E914651BB2A4F1010200689942EF
:101A8000B2FA82F24FEA5212ACBF00230123327045
:101A900042682B7070BC104770B50446806978B1FD
:101AA000E36943B10F4B93F8402022B19B6B0E4A80
:101AB0000E49012098472068BDE8704083681847A8
:101AC000084D0B4AAB6B09499847E3693BB195F860
:101AD000403023B1AB6B044A0449012098470020F1
:101AE00070BD00BFAC0000206C1001085C10010844
:101AF000401001082DE9F047C26DD0F81880066942
:101B00000023A8F8023004461D46137000F14C076C
:101B1000994657F8043B03B3B3F838C0B3F89000C4
:101B2000B3F89210B3F8D82006EB400006EB410161
:101B300006EB420206EB4C0CC3E91301C3F8A420E8
:101B4000C3F814C088F800501868D3F8DC20416846
:101B500083F8E490C3F8E02088470135EDB2042D06
:101B6000D7D12068BDE8F04743681847704700BFE9
:101B7000704700BF704700BF704700BF52B101EB14
:101B80008202043850F8043F4B801B0C0B80043158
:101B90009142F7D1704700BF30B583B000EB4200EF
:101BA0000D4601A91C46FEF73DFD019A22F00F02E9
:101BB00004B12A430092014601226846FFF7DEFF86
:101BC00003B030BD2DE9F04F87B0BDF84070DDF8AF
:101BD00044A003EBC7077B8883B381460E4601EB25
:101BE000020800254FF0010B7A6852F82540620088
:101BF00092B2B242C4F301701DD342451BDA0128F0
:101C00000CD0022836D0E8B1324B334A9B6B3349B3
:101C100000209847002007B0BDE8F08FBAF100031C
:101C2000A2EB060218BF012392B2C4F30341484657
:101C3000FFF7B2FF7B880135AB42D5D8012007B052
:101C4000BDE8F08FC4F344530BFA03FC921BE2454A
:101C500091B21ED30CF1FF331E4A0193CDF800A0C0
:101C6000946B1F4A03900B461C49A047039807B08A
:101C7000BDE8F08F921BBAFA8AF35B0992B2C4F303
:101C800003414846FFF788FF7B880135AB42ABD85C
:101C9000D4E709EB410004A90393FEF7C3FC039BBF
:101CA0004FF0FF32C3F12003C4F3044422FA03F3DC
:101CB000049AA34022EA03020AFA04F401461443F8
:101CC00005A801220594FFF759FF7B880135AB4237
:101CD0008AD8B3E7AC000020C0100108B410010896
:101CE0007C1001082DE9F04FC2F51D669A461B686D
:101CF000164C0E36B34298BF9EB2154B054688BFB0
:101D0000B6B2500803EB800083B0174672088846CD
:101D1000023DFFF733FF04F1E10904F1E40B7D23F9
:101D200001E014F8013F35F8022F3946CDE90032C1
:101D300040465B463246FFF745FF4C4501D0002840
:101D4000EFD1CAF8006003B0BDE8F08F38CB0008CF
:101D500068F5000800230138C1E90133CB6004288D
:101D60002ED8DFE800F00C1625290300174B184A7F
:101D700000200870C1E90533CA6101207047154B86
:101D800000220A704FF48022C1E90533CA610120A4
:101D9000704730B4104B114CCC6101209625FA22CB
:101DA000CD60C1E9012230BCC1E90533087070473C
:101DB0000B4B0C4A0020DCE70B4B0C4A0020D8E709
:101DC0000020C1E905000870C861704708000500DF
:101DD0000B000200020001000800010002000300E5
:101DE00008000200040002000800030006000200D0
:101DF00010B4084C248D490864088C4228BF0C4656
:101E0000023C24F00104043010601C605DF8044BB7
:101E1000704700BFAC000020F8B50688002A14BF48
:101E20004FF480524FF40052B6F59C6F38BF4FF418
:101E30009C66B24205460F461C4623D2134B144AF9
:101E40009B6B1449002098474FF0000E1249134A2B
:101E5000134BE360C4E901120FCD203676004FF03A
:101E6000000CA4F802C004F1300C24F8106B0FC46D
:101E700095E80F0007C497E8030023808CE803006F
:101E80007046F8BD4FF0010EE0E700BFAC00002047
:101E9000E4100108041101080100020003001B0006
:101EA0001C00200010B1024B1B6B1847704700BF8D
:101EB000AC000020A0B110B50446C06D18B1FFF70A
:101EC000F1FF0023E365206E18B1FFF7EBFF00235D
:101ED0002366606E18B1FFF7E5FF0023636610BD4F
:101EE000704700BF2DE9F04107680446C7B1D7F835
:101EF000980080B100F14C0500F15C064FF000083D
:101F000055F8040B18B1FFF7CDFF45F8048CB54226
:101F1000F6D1D7F89800FFF7C5FF3846FFF7C2FFA4
:101F20002046BDE8F041BDE7DFF864C02DE9F04789
:101F3000DCF83C501DB12B46BDE8F047184712B302
:101F40005200A1F10208A2F102090E469A46074684
:101F50004944444634F8025F6DBA8C422580F9D179
:101F6000DCF8344038463146A047BAF1000F01D1C1
:101F7000BDE8F0874E4438F8023F5BBAB045A8F898
:101F80000030F8D1F4E7BDE8F047DCF8343018470A
:101F9000AC00002070B5012584B041F4A043044694
:101FA000164603A92A4601A8ADF808300196ADF8F7
:101FB0000A50FFF7E3FD204602A900230422FFF7A1
:101FC000B3FF04B070BD00BF2DE9F04782B01D46DD
:101FD00043F44053BDF82840ADF8003000278A464E
:101FE00091466946012303228046ADF80270ADF8A0
:101FF0000470FFF799FFBDF9046004FA0AF171401B
:1020000001EA090445F4805540463B466946744060
:102010000222ADF80050ADF80240FFF785FF02B094
:10202000BDE8F08730B583B00025294600957B23B5
:10203000FF220446FFF7C8FF0121204600918B23B1
:102040000222FFF7C1FF009520468B238022072143
:10205000FFF7BAFF03B030BD30B583B041F4805410
:1020600015460023022201A9ADF80440ADF8065040
:10207000FFF75AFF03B030BD30B583B041F4405193
:1020800014460025ADF80010012303226946ADF87F
:102090000250ADF80450FFF747FFBDF8043023802D
:1020A00003B030BDF0B585B00024012907461646BF
:1020B000ADF80E4038D0022933D0224B22499D6B17
:1020C000224A03462046A84721460DF10E02384613
:1020D000FFF7D2FFBDF80E30738003F00705012D26
:1020E000358024D013F0060F0BD16DB9154A009737
:1020F000946B1549164A2846A0472C46204605B041
:10210000F0BD023D012DF9D90E4A0097946B0E499E
:10211000104A0020A04700210C462046318005B01F
:10212000F0BD32210124D0E70C463321CDE7054A2A
:102130000097946B0449084A0020A04700242046D9
:1021400005B0F0BDAC0000203411010818110108E1
:102150004C110108B01101087C110108F0B583B0E1
:102160000024012907461646ADF8064019D0022979
:1021700009D01A4B1A4A9D6B1A4903462046A847B4
:10218000204603B0F0BD46210DF106023846FFF7A8
:1021900073FFBDF80650842475B1BEB9012003B0A9
:1021A000F0BD45210DF106023846FFF765FFBDF889
:1021B00006508324002DF0D1084B0B4A9C6B094933
:1021C00028463B46A047284603B0F0BD3846214686
:1021D0000022FFF741FF3046D3E700BFAC000020EC
:1021E0001811010834110108E411010870B582B01A
:1021F0000DF106020E4600241C210546ADF80640EE
:10220000FFF73AFFBDF8062012F400620CD1284611
:102210001B21FFF721FF284646F400621B21FFF730
:102220001BFF012002B070BD044B054A9E6B05499F
:1022300020462B46B047204602B070BDAC000020BF
:10224000181201083411010870B582B00DF10602B0
:10225000002437210546ADF80640FFF70DFFBDF815
:10226000063003F0C003B3B90DF1060200241C21AF
:102270002846ADF80640FFF7FFFEBDF806301B0507
:1022800015D50E4B0E4A9E6B0E4920462B46B04785
:10229000204602B070BD094B93F84020002AE3D0DD
:1022A0009C6B094A07492B460120A047DCE72846DA
:1022B000FFF7B8FE012002B070BD00BFAC000020E7
:1022C000741201083411010848120108F0B40C4DD1
:1022D0002F8D9E1CB7EB460F05D2AB6B094A0A49FE
:1022E000F0BC00201847144641F4A041013B118086
:1022F0005380214626F000420023F0BC14E600BFC4
:10230000AC000020A4120108C412010810B582B06C
:10231000044601AA0121FFF7C5FE20460022012143
:10232000FFF71CFFBDF80430022B08D00549064A10
:102330008C6B06490020A047002002B010BD012090
:1023400002B010BDAC000020D81201082013010813
:102350002DE9F04F02EB420C00EB8C0C8DB0002607
:102360008346824680466746B14603A84FEA890500
:1023700086469FED577A43466AB19C192C44D4EDAA
:10238000007A1C46D4ED006A0C3367EEA67ABB4295
:1023900037EE277AF1D104350C2DAEEC017AE8D175
:1023A00009F10109B9F1030F00F1100008F1040867
:1023B000A6F1040607F10407D8D19DED046ADDED0E
:1023C000055ADDED086A68460BF10C04DFED407A32
:1023D00053463AB11D4695ED007A0C33634577EECE
:1023E000877AF7D10AF1040AA245E0EC017A0CF1F0
:1023F000040CEBD1DDED037AF5EE407AF1EE10FA44
:1024000010D0B7EE007A87EE274ADDED077A66EE48
:10241000044A26EE245A77EEC57AF5EE407AF1EEBC
:1024200010FA06D100200023CBF800300DB0BDE833
:10243000F08FC7EE272A65EE843A25EEA47A66EE81
:10244000237A9DED0B5A76EEE77A36EEC77A67EE81
:10245000A27A65EEA36A75EE666A27EE275A76EED3
:10246000C56AF5EE406AF1EE10FADBD09DED005A38
:102470009DED013A9DED022A64EE854A63EE853AB0
:1024800073EE644A012067EEA47A002372EE677A45
:1024900077EEE33AC3EEA67A27EE277AC1ED027A09
:1024A00034EEC77A65EEA75A67EE227A26EE276ADF
:1024B000C1ED017A35EE466A76EE655A25EE844A1C
:1024C00081ED004ACBF800300DB0BDE8F08F00BFC1
:1024D000000000000028B8BF404270B4BABF00B28C
:1024E0000124002400293FDB884238DB0022034618
:1024F00068B30846002643F628450004B0FBF3F114
:10250000A9424AD946F2D633994236D948F67203DF
:10251000994244D94AF64943994242D94DF2A3031C
:10252000994240D94FF24B73994298BF052025D963
:102530004FF24C7548F233234CF2A340491B03FB86
:1025400001F100EB114016B1C0F5C9301F3014B1D4
:10255000C0F549303F3002B1404270BC70470B4675
:10256000C1B912480A46F2E7494209B288424FF01F
:102570000102BCDA0B461646BDE701200C4B03EB0B
:10258000C00503EB8003D5F8B008D3F8E438D5F8DC
:10259000AC58D3E700220126ADE70020EEE7022089
:1025A000ECE70320EAE70420E8E700BF1F92010000
:1025B00038CB000810B520B10B4B02689A42044694
:1025C00007D00A4B0A4A9B6B0A49BDE8104000201D
:1025D000184700690023236008B1FFF763FC204619
:1025E000BDE810405EE400BF0EB03713AC00002021
:1025F000401301085813010810B520B10C4B0268B4
:102600009A42044607D00B4B0B4A9B6B0B49BDE823
:10261000104000201847406818B1C368984700234D
:102620006360002323602046BDE810403AE400BF09
:102630000DB03713AC000020601301087C130108B3
:1026400008B518B1064B02689A4207D0054B064AF6
:102650009B6B064900209847002008BD043008BD48
:102660000FB03713AC000020F0090108080A010878
:1026700018B1064B02689A4205D0054B054A9B6B80
:1026800005490020184780ED120A70470FB0371334
:10269000AC000020F0090108080A010818B1064B37
:1026A00002689A4205D0054B054A9B6B05490020FC
:1026B0001847A0F84C1070470FB03713AC0000203B
:1026C000F0090108080A0108836A0022A3F85A20C9
:1026D000A3F85220704700BF836A19684A6822F045
:1026E000030210B44A601A6E012442F010021A6606
:1026F00083F85D405DF8044B704700BF704700BF32
:10270000704700BF70B503681B4D2E681B689B06A1
:102710002ED4846A2268536823F020035360204635
:1027200032464FF4C051FEF749F958B931462046B8
:10273000FEF7ACF930B932464FF4C0612046FEF7DF
:102740003DF938B1236E43F020032366236E43F036
:102750002003236621684B68002223F00303012035
:102760004B60E287A4F8462084F85D00236E13B91D
:10277000012385F8413070BDAC00002038B52E4AE9
:10278000036815681B689B061FD4846A2368A268C7
:10279000586820F020005860C2B15968606821F084
:1027A0000101B0F5827F596035D029462046FEF7F9
:1027B0006DF9C8B96368B3F5827F1CD0012300228C
:1027C000A4F8462084F85D30236E38BD6268B2F507
:1027D000827F5A6827D022F001025A60294620469B
:1027E000FEF754F90028E5D0236E43F0200323665A
:1027F00020232366E2E7A368B3F5004F02D0B3F5C8
:10280000806FDBD12A464FF4C0612046FEF7D6F830
:102810000028D3D0E8E7B2F5004F08D11A6822F0BB
:1028200040021A60C1E722F003025A60BDE7B2F528
:10283000806FF3D0B9E700BFAC000020444AD368F2
:1028400030B49C0708D0D368046803F00303A342A4
:1028500047D0012030BC70470368022B52D0032BB5
:1028600049D0012BF5D112689207F2D5384D446852
:10287000EA6822F073021343013C43EA0413EB605D
:10288000334C344A236823F080632360156803E0E7
:1028900013685B1B022B39D823681B01F8D400296D
:1028A00036D1D0E902532169DB0621F0784121F4C9
:1028B000FE4143EA05230B43236125490B6843F09E
:1028C00080630B60146803E013681B1B022B1DD888
:1028D0000B681B01F8D582690B6913430B6100205B
:1028E000B8E7002BB5D0D3684268C3F302130133B5
:1028F0009342AED1C4E71468A403B7D4126852035C
:10290000A7D5B3E712685505A3D5AFE70320A1E724
:10291000012923690DD04169856823F0C06323F440
:10292000FE43490843EA0523013943EA4163236131
:10293000C3E70169856823F4C00323F4FE43490813
:1029400043EA0523013943EA41532361B5E700BF58
:1029500000100240AC000020F0B5036813F40067DB
:1029600083B004460CD0416CB1F5000F00F0328109
:10297000B1F5400F00F00681002900F02381012706
:1029800098034FD5A44A916DC90040F1EF80002013
:10299000A249A34D0A6842F480720A602E6804E0DE
:1029A0002A68921B022A00F2F8800A68D205F7D53D
:1029B000AFBB994AA66DD2F8901011F4407126D0A1
:1029C0008E4224D0D2F89060D2F8901041F4803139
:1029D000C2F89010D2F8901021F48031C2F8901013
:1029E00026F4407CF107C2F890C00FD5D5F800C09E
:1029F000114641F2883605E02A68A2EB0C02B24289
:102A000000F2CB80D1F890209207F5D5A66D8249CF
:102A1000D1F8902022F440723243C1F8902000286F
:102A200040F0BF80D90708D57B49206AD1F88820BB
:102A300022F003020243C1F888209A0708D576499C
:102A4000606AD1F8882022F00C020243C1F8882085
:102A50005E0708D57049A06AD1F8882022F03002BC
:102A60000243C1F888209D0608D56B49E06AD1F879
:102A7000882022F440620243C1F88820980508D5D6
:102A80006549E06BD1F8882022F440220243C1F866
:102A90008820590508D56049206CD1F8882022F497
:102AA00040120243C1F888205A0608D55A49206BC3
:102AB000D1F8882022F440520243C1F888201E0633
:102AC00008D55549606BD1F8882022F44042024372
:102AD000C1F88820DD0508D54F49A06BD1F88820C2
:102AE00022F440320243C1F8882018030ED54A4A26
:102AF000A16CD2F8883023F040630B43B1F1006F32
:102B0000C2F8883053D0B1F1806F73D02368590375
:102B10000FD5414AE16CD2F8883023F040630B4373
:102B2000B1F1006FC2F8883046D0B1F1806F69D042
:102B300023685A040CD53849226DD1F8883023F027
:102B400040531343B2F1805FC1F8883049D0236805
:102B50001B0408D5304A616DD2F8883023F08043D9
:102B60000B43C2F88830384603B0F0BD916D41F098
:102B700080519165926D02F080520192019A01207C
:102B800006E7616C244AD2F8883023F440031943E5
:102B9000C2F8881023680027F2E6032700283FF4D4
:102BA00041AF1D498A6D22F080528A653AE7D368A9
:102BB00043F48013D360A9E7D36843F48013D36050
:102BC0002368B6E70430FFF739FE07460028D8D05F
:102BD0002368D5E6104AD36843F48033D360416C50
:102BE000D0E70221201DFFF729FE23680028AFD07F
:102BF0000746ADE70121201DFFF720FE002818BF82
:102C0000074683E70121201DFFF718FE23680028EF
:102C10008FD007468DE700BF0010024000700040D3
:102C2000AC0000201F498B6DDB0082B01DD51E4B10
:102C30001B6803F4C063B3F5007F28D0802812D846
:102C40002ED0A0F170035A425A4118490B6823F064
:102C5000070313430B60086800F00700801A18BFD1
:102C6000012002B070470322EFE78B6D0E4A43F05C
:102C700080538B658B6D03F080530193019B136828
:102C80008A6D22F0805203F4C0638A65D3E78028FE
:102C900004D9A0288CBF02220122D6E70022D4E763
:102CA0000222D2E7001002400070004000200240E3
:102CB000064A074B92680749C2F302221344086888
:102CC00093F8003903F01F03D8407047001002400A
:102CD00038CB000800000020264A9368D26813F021
:102CE0000C0308D00C2B3AD0042B36D0082B2248EA
:102CF00018BF002070471F4A1168090754BFD2F857
:102D0000941011681D4A54BFC1F30321C1F303118C
:102D100002EB8102D2F8080903B30C2B27D1154B23
:102D2000DB6803F00303022B1FD0134A032B08BFF9
:102D30001046104BD968DA68DB68C3F34163C2F30D
:102D40000622C1F302110133013100FB02F05B00E6
:102D5000B0FBF1F0B0FBF3F070470948704702F0A8
:102D60000302012AC7D00020D9E70548E1E7002087
:102D7000704700BF0010024000127A0038CB0008F4
:102D80000024F4002DE9F04F0C6885B0002C00F011
:102D9000878000234FF0010B0BFA03FE1EEA040AA2
:102DA00079D04E6806F00302551E012D4FEA430C00
:102DB00079D9032A40F0BD8002FA0CF2D543D0F84D
:102DC00000C00CEA05052A4316F4403F026062D0B9
:102DD0005F4D2A6E42F001022A662D6E23F0030237
:102DE00002F1804205F0010502F58032039503F0FF
:102DF0000305DDF80CC0D2F808E0AD000F2707FA94
:102E000005FCB0F1904F2EEA0C0E16D0514FB8428F
:102E100000F0978007F58067B84200F0958007F5CD
:102E20008067B84200F08A8007F58067B8420CBF1F
:102E30004FF0040C4FF0070C01E04FF0000C0CFABF
:102E400005F545EA0E059560434A92686FEA0A0C5B
:102E5000F502414D54BF0CEA02024AEA0202AA609E
:102E6000ED68B2023C4A54BF0CEA05054AEA050582
:102E7000D5605568384AB70354BF0CEA05054AEADD
:102E8000050555601268F503334D54BF0CEA020284
:102E90004AEA02022A60013334FA03F27FF47CAF7B
:102EA00005B0BDE8F08FD0F80880CF68032505FA9B
:102EB0000CF528EA050807FA0CF949EA0808C0F8F1
:102EC0000880D0F80480C6F3001928EA0E0809FA31
:102ED00003FE4EEA080EED43C0F804E0D0F80C8083
:102EE0008F6808EA050807FA0CFE4EEA080E022A67
:102EF000C0F80CE002D002FA0CF260E74FEAD30807
:102F000000EB880803F0070ED8F8207001970F69CE
:102F10004FEA8E0E07FA0EF90F2707FA0EFE019FF1
:102F200027EA0E0E49EA0E0E02FA0CF2C8F820E06B
:102F300045E7032505FA0CF5ED43CFE74FF0030C09
:102F40007DE74FF0010C7AE74FF0020C77E700BF06
:102F500000100240000400480004014070B4D0E9B1
:102F6000106304223168056803F01C039A400A428A
:102F70002C680ED014F0040F0BD02B689B0603D4E2
:102F80002B6823F004032B60036B7260CBB170BC21
:102F9000184702229A400A4215D014F0020F12D0AC
:102FA0002B68990606D42B68012123F00A032B60B5
:102FB00080F82510C36A7260002280F82420002B5C
:102FC000E5D170BC704708229A400A42F9D0220726
:102FD000F7D52A68416B22F00E022A60012202FA1C
:102FE00003F300247360C26380F8244080F8252036
:102FF0000029E6D070BC0847044A00F01F010123F5
:1030000040098B4042F82030704700BF00E100E0EB
:1030100070B5104D104A2B68A2FB03239B09013B9E
:10302000B3F1807F0CD20D4A0D495360F02381F833
:103030002330002607230F2896600446136001D929
:10304000012070BD01464FF0FF30FDF7E5F86C60E0
:10305000304670BD00000020D34D621010E000E04B
:1030600000ED00E038B5524B93F824200021012AEE
:1030700083F8421000F08D805A6853210225CA203F
:10308000012483F8255083F82440506251629168EE
:1030900021F480619160D168C9B261F49061D1601E
:1030A000D168490664D51F2151619168414821F0DA
:1030B000070141F003019160016841F48011016052
:1030C000816841F480118160916841F48041916090
:1030D0009168FF2441F4806101209160546283F87B
:1030E000250093F84210002283F8242000295BD1A8
:1030F00072B6BFF34F8FBFF36F8F93F8422002B9C0
:1031000030BF62B6BFF34F8FBFF36F8F93F842208B
:10311000002AEDD093F824200021012A83F84210E0
:1031200037D05868532201240225CA2183F825503C
:1031300083F8244041624262826822F480628260A5
:10314000826822F4804282601C6804E01968091BCE
:10315000B1F57A7F1FD8C26812F00402F6D0FF24BE
:1031600001220021446283F8241083F8252038BD11
:103170001C68D16811F0040195D11868001BB0F5E6
:103180007A7FF6D9FF240320546283F8241083F851
:10319000250005F0ABFEFF240321446283F82420C0
:1031A00083F8251005F0A2FE83F84220B9E700BF9E
:1031B000AC00002000040140F8B52C4C4FF48055C1
:1031C000A5620F46044615461E46FFF74BFF2FB17A
:1031D000274B3A689A4228D0FEF704FC2CB1254BC5
:1031E00022689A420CD0FEF7F1FB15B12846FFF792
:1031F000E1F926B13046BDE8F84008F0E5BEF8BD7B
:10320000E76A1FB11C4B3A689A4220D01B4B1C4AFC
:103210009B6B1C4900209847A06AFFF7EDF900233B
:1032200023602046FEF73EFEDFE7B86C18B1164B70
:1032300002689A4214D0114B144A9B6B1449002027
:10324000984700233B603846FEF72CFEC6E7384619
:10325000FEF730FE00233B603846FEF723FEDBE737
:1032600000230360FEF71EFEEBE700BF00040048EA
:1032700002B1371301B1371303B13713AC0000208B
:1032800060130108881301080FB03713F009010813
:10329000080A01082DE9F043866FA1B00446002E0C
:1032A0005ED02568A36826696069C64A2421A167A3
:1032B000296821F001012960334329680343E0694B
:1032C0000A40034313432B606B68E168BE4A23F452
:1032D00040530B436B609542A369AA6800F0BA8023
:1032E000266ABA4922F43062334313438D42AB60FD
:1032F0000ED0B74B9D4200F01582B64B9D4200F0B8
:103300002E810023C4E91933012021B0BDE8F083E8
:10331000B14BB24AD3F8883003F00303013B022BD0
:1033200000F23F81134493F83839B0F5004F00F0B4
:103330006381082BE5D801A151F823F09D350008E1
:10334000AB3500085B3500080333000883350008FF
:10335000033300080333000803330008E93400088E
:1033600080F874605C2209A83146CDE90466CDE995
:103370000666089608F09FFC2568944B9D4200F075
:103380000082934B9D428DD109A80227129609977E
:10339000FFF7E2FA0646002840F01E828E4B904D61
:1033A0009A6D42F400329A659A6D02F400320192ED
:1033B000019ADA6C42F00102DA64DB6C059703F0E3
:1033C00001030F2000930322072304A9049005F1B1
:1033D00044094FF09040DDF800C00792089306962C
:1033E0004FF08008FFF7CEFC7E4B6B644846C5E982
:1033F0001366C5E91666C5E91866AF64C5F854805A
:10340000FCF78EFF0346002840F0E68105F18C06AC
:103410007549C4F8709010223046C5F88C10C5E983
:103420002638C5E92833C5E92A33EC66C5F890701B
:10343000C5F89420FCF774FF0146002840F0CC81C9
:10344000E6662620C5F8B440FCF7E6FE2620FFF726
:10345000D3FD26E722F4306213435F49AB60D1F815
:10346000883003F44063B3F5006F00F088810CD816
:10347000002B00F07E81B3F5806F7FF442AFFFF741
:103480002BFC002800F0818005E0B3F5406F7FF44D
:1034900038AF4FF40040626802EB420383423FF6CC
:1034A00030AFB0EB023F3FF62CAF56084FF48073BD
:1034B0000027E3FB00674FF00008434630463946DB
:1034C00005F02EFD494BA0F540729A423FF619AF28
:1034D0002568E860C4E9198819E0302B7FF411AF42
:1034E000B0F5004F00F0A1804FF4004063684FF644
:1034F000EF7200EB5300B0FBF3F0A0F11003934226
:103500003FF6FFAE25680023E860C4E91933636A1B
:10351000002B40F0AF806B68314A23F490436B601E
:10352000AB6823F02A03AB602B68002143F0010352
:103530002B60C4F8801016682B681A0700F18E8083
:103540002B685B0700F1E18000232022A26784F84A
:103550007430E26718462366D7E62548C6E703F5C8
:10356000E433D3F8883003F03003202B00F03681A9
:10357000B3D87BB1102B7FF4C4AEB0F5004F00F090
:10358000E280FFF7A9FB0028B0D10023C4E919337A
:103590002568BCE7B0F5004F00F0CF80FFF788FB4F
:1035A000F1E7B0F5004F00F0D4800B4B11499B6858
:1035B0000868C3F3C2231A4492F8003903F01F03CA
:1035C000D840E0E7F369FFEF008000400038014099
:1035D00000440040004800400010024038CB000882
:1035E000AC0000206C00024080000240FFFC0F0095
:1035F0000024F40000000020082B3FF682AE01A159
:1036000051F823F03B3700085337000829360008EB
:10361000033300084737000803330008033300086A
:10362000033300082B3600086F486268530803EB29
:1036300040004FF6EF73B0FBF2F0A0F110029A4297
:103640003FF65FAE20F00F039BB22568C0F3420047
:1036500018430023E860C4E9193358E76FF07E434C
:1036600032464FF400112046FCF702FE002857D1E5
:10367000256865E7DE0705D56A68A16A22F400328D
:103680000A436A60980705D56A68E16A22F48032C5
:103690000A436A60590705D56A68216B22F48022C3
:1036A0000A436A601A0705D56A68616B22F4004212
:1036B0000A436A60DF0605D5AA68A16B22F480522E
:1036C0000A43AA609E0605D5AA68E16B22F400525F
:1036D0000A43AA6058060ED56A68216C22F480124B
:1036E0000A43B1F5801F6A6005D16A68616C22F4F3
:1036F000C0020A436A6019067FF50DAF6B68A26CC1
:1037000023F4002313436B6005E732466FF07E43DA
:103710004FF480012046FCF7ABFD00283FF414AFC6
:103720000320F2E503F5E633304AD3F8883003F09E
:103730000C03134493F83C39F7E5FFF7B9FA002876
:103740003FF423AF71E7FFF7C7FA00283FF41DAF3E
:103750006BE7274B27499B680868C3F3C2231A44C9
:1037600092F8003903F01F03D84000283FF40DAF52
:103770005BE7FFF79DFA00283FF407AF8BE61A4896
:1037800089E6012309A811960993FFF7E5F818BB0C
:10379000174B1A6E42F480421A661A6E02F4804287
:1037A0000392039ADA6C42F00102DA64DB6C069051
:1037B00003F001034FF4C0600293022503220723A4
:1037C000049004A94FF090400595CDE90723029E8F
:1037D000FFF7D8FA256865E505F088FBB0F5004FDE
:1037E00001487FF483AE20E70024F40038CB0008C2
:1037F00000100240000000202DE9F84F164C0A9EF0
:10380000278D043A043F52087F0897420D468146AF
:10381000984628BF174601F1040A0024331BBB4217
:1038200028BF3B466FEA84415A1E6FEA91419B468E
:103830006A8029805A0008EB440150461C4408F075
:1038400075FB0BF10202002329464846FEF76CFB8C
:10385000A642E3D8BDE8F88FAC0000202DE9F04F78
:10386000254C85B00026CDE90266B4F82880019287
:103870008946002B3AD04FEA58088346A8F104083D
:103880009A460D461F4626E0019B48F200019A1910
:103890002980631E4FF00001E9806A80AB806200DE
:1038A000002105F1080008F006FA294601235846D0
:1038B000221DFEF739FB02AB03CB2644696028606A
:1038C00009EB460559F81600696802AB564503C373
:1038D000A7EB04070AD2B845444628BF3C46B84582
:1038E000D2D200E0013CE307FCD4CDE709F10800A7
:1038F00005B0BDE8F08F00BFAC0000202DE9F04F0F
:1039000002EBC30689B07388129F4BB38046894689
:1039100000254FF0010B736853F82540C4F3017084
:1039200001280CD0022833D0F0B1344B344A9B6BC1
:10393000344900209847002009B0BDE8F08FA3B2B9
:10394000194659F8232022F00F0217B1C4F303449B
:1039500022434046FEF71EFB738801359D42DAD3B1
:10396000012009B0BDE8F08FC4F3445A0BFA0AF302
:103970009F4216D3214A0097013B019321490390AE
:10398000A3B2946B204AA047039809B0BDE8F08F1A
:10399000A3B2194659F8232022F00F02002FD8D1E4
:1039A000D4E7A3B243F4204C03930522012305A9D5
:1039B000ADF81800CDF81A004046ADF814C0ADF8C7
:1039C00016B0FEF7B1FA04A90DF11A00FCF72AFEB1
:1039D000CAF1200A4FF0FF33C4F3044423FA0AFA71
:1039E000049B03990AFA04FA23EA0A0207FA04F488
:1039F00022434046FEF7CEFAAEE700BFAC000020FF
:103A0000E0130108B4100108A813010870B5094EAD
:103A1000F36A05469847044628B12A46002108F073
:103A20004AF9204670BDB36B034A044998472046C3
:103A300070BD00BFAC000020081401081814010874
:103A40001C4991F82430012B32D030B44C685323F8
:103A500001200225CA2281F8255081F824006262E3
:103A60006362A36823F48073A360A36823F4805384
:103A7000A360086804E00A68121AB2F57A7F0DD8CC
:103A8000E36813F00103F6D00020FF2201236262F5
:103A900081F8240081F8253030BC7047FF200322D4
:103AA000606281F8243081F82520104630BC7047D0
:103AB00002207047AC000020F8B595692B78B5F866
:103AC00002E0144602EB43030F46B3F84460636917
:103AD0000146720003EB4E0008F036FAE26D698889
:103AE00013780E446E8003B93B791370F8BD00BFA4
:103AF0002DE9F04F2DED048B90F838308DB0079004
:103B00000393002B00F0E7800798828F0469C38F2E
:103B1000B0F84C5034F91210099502465B00408F02
:103B200008900193002D00F0D6801046526C836CF3
:103B3000B0F84E50B0F840B0DFED708ADFF8C881C1
:103B40000A95D318029300220901DB4305920B91D9
:103B500004939146B6EE009A029A6949134681FB96
:103B60000331D317C3EBA10101EB4101B2EBC1015A
:103B7000029A48BF1831002A09B2C0F2B5806048E5
:103B800080FB0202C3EBA20212B20B9B120482FB67
:103B90000356002D76F1000304DA4FF6FF73ED189B
:103BA00046F10006089B19442A0C34F9111042EA28
:103BB0000642A2EB011207EE902AF8EEE79A69EEB0
:103BC000A89AB0EE690A06F093FBB0EE408AB0EE18
:103BD000690A06F099FCBBF1000F6BD0079A136DD0
:103BE000B2F842A093F800E006930020054647F69D
:103BF000FF7709E0DDF80CE0E25201351FFA85FCA1
:103C0000E3455044718052D9019A09EB50039BB2AD
:103C100002EB8303E618E25E07EE902AB6F9022073
:103C200006EE902AF8EEE77AF8EEE66A27EE887A52
:103C300026EE806A67EE807A66EE886A37EE467A0C
:103C400077EEA67AB5EEC07AF1EE10FAF5EEC07A0C
:103C50004CBF37EE497A37EE097AF1EE10FA4CBFD5
:103C600077EEC97A77EE897ABDEEC77AFDEEE77A0C
:103C700017EE10CA17EE901A17EE102AC445B8BFF7
:103C800042464145B8BF4146BA42A8BF3A46B9424A
:103C9000A8BF3946BEF1000FAED19445AAD117EEA8
:103CA00090CABCEB010E18BF4FF0010EA4E7069BB3
:103CB00083F800E0059B029A01331FFA83F911464D
:103CC0000593049A0A9B1944D31A0493099B029101
:103CD0004B453FF641AF079B186843680DB0BDECFC
:103CE000048BBDE8F04F1847049B1A46054BA3FB15
:103CF00002326FEA121212B247E700BF00008037AB
:103D0000ABAAAA2AABAAAAAA0080FFFFC0EE207A1B
:103D10009FED107AF4EEC77AF1EE10FA17D89FED06
:103D20000E0A08B527EE800A06F0EEFBF7EE007AE1
:103D3000B0EE676A00EE006A70EE006AB1EEC67A15
:103D400037EE400A46EEC07AB0EE670A08BD9FED36
:103D5000030A7047A800003FDB0F49400000000045
:103D60002DE9F04F2DED028BADF21C7DCDE9041253
:103D700003931B7804460A2B13D8DFE813F02300C3
:103D80000B007400BF005D0133024703D404380503
:103D9000A6052300FEF7BAFA002840F09686039B9A
:103DA0001B78B94EB46BB94AB9490020A04700232B
:103DB0001C46039A204613700DF21C7DBDEC028B4D
:103DC000BDE8F08FB04EDDF848078822002107F0EB
:103DD00072FFD6ED357ADFEDAF5ADFEDAF6AF8EE60
:103DE000677AB6EE006A85EEA77AF4EEE67A37EEE9
:103DF000067AF1EE10FABCEEC77A17EE103A9FB2CF
:103E000000F3B7859FEDA57AF4EEC77AF1EE10FACC
:103E100000F1AF85A7F110039BB2EF2B40F2CE86E5
:103E20009FED9F7ADFED9F6A77EE877A37EE877A8C
:103E3000BCEEE76ABCEEC77A16EE108AB8EE477A97
:103E400077EEC77A67EEA67AFCEEE77A17EE905A1D
:103E5000CDE90085944BB46B944A95490020A04766
:103E6000039B1B789EE7FEF751FA8246002896D006
:103E70000499412300222046FFF7F0FC0021038C27
:103E8000079307EE904AA0F1020B0D468E464FF6BF
:103E9000FF7C41F270791BE030F911703BF9114061
:103EA00007EB09023F1B9F42C0F25E85474500F3C6
:103EB0005B8582EAE273A3EBE2739BB2634503D2B4
:103EC000B5009C46ADB2D6460F2E00F028870131D2
:103ED0004B1E03FB03F3C3EBC3035A0002F5167832
:103EE000C83B8EB20029D7D1B0F900304B44002B2B
:103EF000B8BF5B429BB26345E2D3E8E7FEF706FA40
:103F000000283FF44CAF0499002220232046FFF7FD
:103F1000A5FCB0F9002005460121164600271346EE
:103F200035F9022FC3F5167313449BB2B3F5966FA0
:103F30003FF635AFB242A8BF0F4601F10101A8BF5D
:103F400016462029EBD1072F00F2E087002307F166
:103F50000802D21A002A00F0EA8746A9D51800EB19
:103F60004505069100EB430030F9026B07EE106A3D
:103F700003FB03F606EE903A07EE906AB8EEC77AB6
:103F8000F8EE677AF8EE666A854281ED007AC1ED57
:103F9000017AC1ED026A03F1010301F10C01E3D1E1
:103FA00006982EA9FEF7D4F900283FF4F8AE9DED4F
:103FB0002E6AB5EE406AF1EE10FA3FF4F0AEDDED98
:103FC0002F6AF5EE406AF1EE10FA3FF4E8AE9DED8F
:103FD000307AB1EE477AC7EE267AF5EEC07AF1EE86
:103FE00010FAFFF6DCAEF1EE666A86EE867AB5EE82
:103FF000C07AF1EE10FA7FF5D2AEB7EE007A77EE26
:10400000877AFCEEE77A17EE903A9AB23F2AC3F32A
:104010004E033FF6C4AEDDF8482783F01003D3808B
:1040200020464FF44571FEF7E1F804460423002CC6
:104030007FF4BFAE00F098BCFEF768F900283FF4AB
:10404000AEAE5023204604990022FFF707FC00F192
:10405000A0030693DDF848370A3307EE904A4FF085
:10406000300B1C46DFF84C90B0F900204FF00008F0
:1040700047F6FF7EC246774606464FF6EC716FF074
:104080001B034D462FE000BFAC00002028140108A0
:104090004C140108F902154F8096984C8096984B65
:1040A000BD37063500247449E81D01086014010875
:1040B0008C1401080080FFFF7245BCBF98469646ED
:1040C000242918D036F9022F36F8023CD31A1BB235
:1040D0009F42A8BF1F4601F1080C9D42B8BF1D4674
:1040E0000BB21FFA8CF1002AE6DA4A45E8DD2429F2
:1040F0009A469146E6D1A5F51C55103DADB244F661
:1041000020639D423FF64BAE002F7FF448AE19F579
:10411000004F47F6FF7300F045869E4500F09886F5
:10412000A8EB0A08B8F1080F7FF439AE4FEAC908C6
:10413000AEEB090E98FBFEFEAAEB0E080FFA88F80C
:10414000B8F1000FC0F28684B8F11F0F3FF727AE19
:104150001FFA88F8A64A0BF1010382F815B05FFA3E
:1041600083FB069B24F8028F103083427FF47AAFE2
:10417000602317EE900ADDE9041200939D4B17EEC1
:10418000904AFFF739FBDDF848379B4A9B8900933B
:10419000DDF848379949DD8820460723FFF7AEFB55
:1041A000954A9649009508232046FFF7A7FB03236D
:1041B000914A9249009320460923FFF79FFB06236B
:1041C0008D4A8E49009320460A23FFF797FB20462D
:1041D00040F2D531FEF70AF804460523002C7FF49F
:1041E000E8ADC1E3FEF792F800283FF4D8AD04999A
:1041F000DFF81092DFF810824FF44073002220465F
:10420000FFF72CFB0DAB08930593002300F5C0616D
:10421000049307EE904A46AB07912EAD069345AF47
:10422000824616AC5646B6F9021036F9040BFEF774
:1042300051F944F8040BA542F5D12DACA3465646DE
:10424000B6F96210B6F96000FEF744F94BF8040FB6
:104250005F4506F10406F3D1069B049A15AE981843
:10426000002154F8043F56F8042F9B1A4B4540F3A5
:10427000AA83A3F5C9237E3B4B45FADC002BB8BFCC
:104280005B429942B8BF1946A74240F8043BE8D1C7
:10429000059B491043F8041F0593049B6033049366
:1042A000079B0AF1C00A5345BBD1002017EE904A84
:1042B000089E0146034656F8042F8A42C8BF184696
:1042C00003F10103C8BF1146082BF4D10EAB00EB7C
:1042D000400153F82060069B0DF1B70203EB41113A
:1042E0000DF1CF0051F8043BB342ACBF00230123D2
:1042F00002F8013F90421376F4D1002001460123D9
:10430000002900F06B83EA5C002A00F05F83013033
:104310000133302BF4D1A0F10C03082B3FF63FAD55
:1043200001EB5000172802D918381728FCD880B2A2
:10433000820092B202F13005DDF84837ADB25F2D50
:10434000188140F234852E4BA3FB05139B0903EB28
:104350004303A5EB43139BB200271546B8461A4604
:104360000126264900922123234A2046FFF7C6FA58
:10437000214A2249009522232046FFF7BFFA032550
:104380001D4A1E49009601232046FFF7B7FA1A4A34
:104390001A49009502232046FFF7B0FA164A17493A
:1043A000CDF800802B462046FFF7A8FA124A1349A1
:1043B000009704232046FFF7A1FA0F4A0F49009601
:1043C00005232046FFF79AFA00230B4A0B49009376
:1043D00020460623FFF792FA20464FF47B71FDF743
:1043E00005FF04460623002C7FF4E3ACBCE200BFCB
:1043F00000000020C4D5000884D40008D4DE0008E2
:10440000ABAAAAAA3F240300C1DBFCFFFDF77EFF95
:10441000079000283FF4C3ACD34EDDF84827D34DB6
:10442000D6F8D430B2F87C700499A5FB03239D091B
:1044300000224FF440732046FFF710FA46AB07FB0B
:1044400005F7089000F1020806930DF58A790DF240
:104450001475B8F9001038F9020CFEF73BF849F86A
:10446000040F4D4508F10408F3D1002307EB470280
:104470009A46CDE92E33CDE93033CDE93233CDE95B
:1044800034330593D300069ADFF800832EAD02F192
:104490005C09AB464FF6FF7209955546DDF81CA046
:1044A000049207EE904A4C469946A4F15C00FCF752
:1044B00015FAA4F1600C00205CF8043FDCF86020E1
:1044C0006445A3EB02031844F6D10028C0F2B4827D
:1044D000800940F6945303FB00F0400D07FB00F009
:1044E00009EB1020CBF8000025B15BF8043C9842A2
:1044F00080F09384DBF80030A3F16673A3F54A33B0
:10450000203B002BB8BF5B42434505F1010238BF99
:10451000CDE9045A95B238BF9846082D0BF1040B2B
:1045200004F1C004C1D1059B099D17EE904A002BF0
:1045300000F07384DDF848378D488E4A19463727D6
:10454000049B4B8400938C4980F824700C2317EE55
:10455000900AFFF7D3F9204640F21641FDF746FED8
:10456000002800F00282089B9FED846A2F461A46BD
:1045700003F1C00403F5D86CF7EE006AA4F1C003A0
:104580004FF0000EB3F90200B3F9001000FB00F089
:10459000043301FB01019C428E44F3D107EE90EA03
:1045A000B8EE677AC034C7EE067AA445B1EEE77A72
:1045B000C6EE877AE7EC017AE0D1089B03F5C0608C
:1045C000069BB2F90010F5EC015A06EE101AB2F98A
:1045D000021006EE901AB2F9601007EE101AB2F946
:1045E000621007EE901AB8EEC66AF8EEE66AB8EE08
:1045F000C77AF8EEE77A26EE256A66EEA56A67EED8
:10460000A57A27EE257A26EE065A67EE075A26EE99
:10461000266A27EE277A66EEA66A67EEA77AC03288
:10462000904283ED005A83ED016AC3ED026AC3ED47
:10463000185A83ED197AC3ED1A7A03F10C03C0D12D
:10464000069816A91022FDF783FE0446002800F004
:104650008C819DED166A9DED175ADDED186ADFED30
:10466000484A9FED484AF1EEC67AB1EE007A26EE4E
:10467000076A25EE057A26EE266AF6EE005A36EE31
:10468000476AC5EEA76AB1EEC67AB6EE086A77EE5B
:10469000C67A26EE877A67EEA47A66EE856AB7EE6A
:1046A000005A37EE467A76EE856A77EEA57AB3EE53
:1046B0000F6A66EE846A27EE247AF4EEC67AF1EE8B
:1046C00010FA76EEA56A37EE257A00F39C81F5EEB6
:1046D000C07AF1EE10FA48BF002340F12C84DFEDE0
:1046E0002A7AF4EEE76AF1EE10FA40F396816FEA67
:1046F00083536FEA9353F3EE0F7AB4EEE77AF1EE59
:1047000010FA00F37D81B5EEC07AF1EE10FA48BFE1
:10471000002240F117841343DDF84827A2F85630F1
:104720000723FFF746BBFDF7F1FD00283FF437AB49
:104730001023049900222046FFF790F8DDF848374F
:10474000B3F85660002506F01F0EC6F3441CB60AE7
:1047500000F102090EF1300E0CF1300C203E0495F0
:10476000AB46A8462F461CE0AC000020D34D62109B
:104770000000002084D40008D4DE0008000040427D
:10478000000080420000004200007C4240420F00D6
:104790005B45474600F2958198460135082D00F0AB
:1047A000658130F9252039F925300EFB02F203FB33
:1047B00006FA002A03FB0CF3B8BF3F32BAF1000F30
:1047C000B8BF0AF11F0A002BB8BF3F33921102EBAA
:1047D0006A1243F38F1312B203FB03F302FB02339B
:1047E000BB42A9B2D9D94345D2D81F46D5E7FDF778
:1047F0008DFD00283FF4D3AA6023049900222046AF
:10480000FFF72CF846AB05460693871C99464FF0F8
:10481000000840F6B73637F9281035F9280001FBB3
:1048200001F300FB0033B34208F101087FF7B7AA98
:10483000FDF750FEB8F1300F49F8040BEBD1069BA1
:1048400045AD0DF1B6062946324603F15C0751F835
:10485000043F002BB8BF0F3302321B118F4213806D
:10486000F5D10698FCF73AF8002155F8043F2A6E76
:10487000AF42A3EB02031944F7D1C34BC81783FB24
:104880000131C0EBA11000F5994330334CF66212B0
:1048900093423FF684AADDF848370DF1E601223352
:1048A00036F8022F23F8022FB142F9D1DDF848374C
:1048B00040F27B41A3F854002046FDF797FC0446E4
:1048C0000923002C7FF475AA4EE0FDF71FFD002898
:1048D0003FF465AA0022049920464FF49C631446D5
:1048E0000DAEFEF7BBFF2EAF0EAA00920194334629
:1048F00046AA902134603C600E9416948046FBF7E3
:10490000F5FE00283FF44BAACDE9007416AB46AA89
:10491000F02108F59070FBF7E9FE00283FF43FAA6C
:1049200039680E98994B9A4D32680194091A03FB25
:1049300001F305FB00F01B0CC3EB503305FB02F247
:10494000DDF84807009605FB01F1520BC0E917128C
:10495000836546AA0CAB40F21F1108F20230FBF748
:10496000C5FE002840F077828A4E039B1B78FFF734
:1049700019BA9FED897ADFED896A894B894A8A499C
:1049800077EE877A002037EE877ABCEEE76ABCEED6
:10499000C77A8DED006AB8EE477A103F77EEC77A96
:1049A00016EE108A67EEA67AFCEEE77ACDED017A74
:1049B000B46B17EE905AA047EF2F3FF649AAD4E701
:1049C00003F5C9237E334345FADB57E40B283FF652
:1049D000A2AC0133302B3FF4E2A910465A1E2A4400
:1049E000591C12F8016F4B1E2EB112F8016C16B94A
:1049F000194601208CE4302900F091820131F0E762
:104A00004FF4787287E6DFED6C7AF4EEE76AF1EE48
:104A100010FA4FF01F033FF76AAEF5EEC06AF1EEF1
:104A200010FA3FF568AEFCEEE66A16EE902A92B2F6
:104A300043EA82231BB25EE64042800940F694536B
:104A400003FB00F0400D07FB00F0A9EB1020CBF8B2
:104A5000000049E5C8F100081FFA88F8B8F11F0FF7
:104A60003FF69DA948F02008FFF774BBB7EB9B0FFA
:104A7000BFF495A9DDF848374C4A1946049B0B84CE
:104A800020464B4900930B23FEF738FF0023474A8B
:104A90004749009320460923FEF730FF7E23434A0F
:104AA0004349009320460A23FEF728FF204640F2A0
:104AB0005241FDF79BFB04462B46002C7FF479A95D
:104AC00052E7D84604919B4667E646AA3221204623
:104AD000FDF7D2FA1223049900222046FEF7BEFE0B
:104AE000054600236F88BDF8180135F804EB9C4695
:104AF0004FF6FF7640FA03F2D20799B20AD535F89D
:104B00001320D21B002AB8BF524292B2B2423CBF1D
:104B100016468C460133102BECD10CF1FF330D2BD4
:104B20003FF63DA90CF10043013B05EB430635F888
:104B30001330728841F287319B1A8B427FF72FA97D
:104B4000B388D21A8A427FF72AA94FF6FF73984298
:104B50003FF425A9DDF84837144AA3F800E0A3F88C
:104B600002C01349CDF800C025232046FEF7C6FE3B
:104B7000204640F23221FDF739FB04460223002C87
:104B80007FF417A9F0E600BFABAAAA2AA82A04005E
:104B9000AA0A0100AC000020BD3706350024744984
:104BA000E81D0108601401088C14010884D4000871
:104BB000D4DE0008E8385BB500007C4277EEC77AA7
:104BC0005FED046A1FED047ADDF8482767EEA67AE8
:104BD0003F2F77EE877AFCEEE77A17EE901AA2F86D
:104BE000841000F21F81DDF8481700222F2F88BFA4
:104BF0003B46A1F88030A1F87E20A1F88220DDF8A4
:104C000048270498A2F87C7046AB2EAD4FF0000800
:104C1000059906932A46C5F80080C3F80080FDF781
:104C2000E7F82046FDF710FB00283FF49EAE069BF8
:104C3000DFF82CB31B68DDF848A708EE104AC8F56A
:104C400034640A349C4228BF9CB22F68C24B38BFE0
:104C5000A4B24FEA580903EB890062083946FCF711
:104C60008DFFBAF87E301C22CDE9002341465B4619
:104C700022463846FCF7A6FF00283FF476AEBAF885
:104C800080201A23CDE9003241465B462246384651
:104C9000FCF798FF86464FF01B0C41465B462246C8
:104CA0003846BEF1000F3FF460AECDF800C0BAF850
:104CB00082C0CDF804C0FCF785FF86464FF0190C82
:104CC00041465B4622463846BEF1000F3FF44DAEEA
:104CD000CDF800C0BAF884700197FCF773FF07465F
:104CE000049A18EE100A23464946002F3FF43DAEC1
:104CF000FDF7ECFA069B1B6898441FFA88F840F60B
:104D0000493290459BD918EE100A40F25B11FDF72D
:104D10006DFA04460123002C7FF44BA824E6BEF173
:104D2000000F3FF43CA8DDF8482785F0300393805E
:104D3000418C0693B0F880305B1AB3F5FA6FFFF63A
:104D40002EA8864ADDF81CC04FEA034AA2FB0A3AA5
:104D5000002522304FEA5A1A2F468B4610224FF672
:104D6000FF780AE0A64288BF4FF0000E013292B2EF
:104D7000402A554421D030F8021FA1EB0C03002B30
:104D8000B8BF5B429BB20BEB1546434506F548792D
:104D90003CBF98461746494501F54874E2D94FF0A3
:104DA000000EE3E79E457FF4CBA9FEF7F8BF03278B
:104DB0004FF001080026FFF7D4BA17EE904ABEF173
:104DC000000F3EF4ECAFDDF8482701234FF47E508E
:104DD0005781ADF81801DDE9041217EE900A00932F
:104DE00046ABFEF709FD5E4A5B4900972623204645
:104DF000FEF784FD069B5A4A574900932046242318
:104E0000FEF77CFD204640F2C521FDF7EFF9044690
:104E10000323002C7EF4CDAFA6E5524B372283F856
:104E20002420A2E5DDF84827DDF84817BF2F4FF012
:104E30000103A2F87E3096BFA7F14002FA08C2F340
:104E4000CF0207F00703A1F88020A1F88230D6E650
:104E5000D046FFF775B916AB01930EAB009346AA87
:104E60000BAB4FF4907108F5A860FBF73FFC0028EE
:104E70003FF47AADCDE90047234646AA08F5F06035
:104E80004FF49071FBF732FC044600283FF46CAD00
:104E9000DDE90BE9D6F80080DDF858C00E983F68D0
:104EA0003149324A324BA7EB0C07A9EB0E06A0EBB7
:104EB000080001FB06F102FB00F203FB07F305FB10
:104EC0000EFE05FB0CFC05FB00F005FB08F805FBDE
:104ED00006F6090C05FB07F5120CDDF848771B0CEC
:104EE000C3EB5C33C1EB5E31C2EB5832C7E91D3511
:104EF0003867C7E91A6279663846FBF7DDFBDDF8EB
:104F00004837C3F888000A23FEF753BFFB1F172F4B
:104F100088BFC3F120023FF61DA8FFF718B8A0F123
:104F20000C03082B3EF63BAF4008FFF700BA46AB38
:104F30000693FFF735B8FCEEE77A17EE903A1BB20E
:104F4000FFF7CDBBFCEEC77A17EE902A42F30A02B8
:104F50005201FFF7E0BB00BFD4DE0008ABAAAAAA4B
:104F600084D400080000002054150200A64A07005F
:104F70004E750B002DE9F04FDFF8A0A0234D85B052
:104F80000446884616461F464FF0010B4FF48059E1
:104F9000CAF82890FEF766F8CAF81890FEF762F88B
:104FA00004F10D0914B12368AB420CD0184B194A17
:104FB0009B6B194900209847BBF1020F17D10020C5
:104FC00005B0BDE8F08F4B463A463146002EF3D08F
:104FD000CDF80080A068FEF7C3FE0028ECD0637B0C
:104FE0000A2B07D0FBF7F4F80028DBD1E4E74FF0F9
:104FF000020BCBE7094C03904FF48055A562FEF7F6
:1050000031F8A561FEF72EF80398D9E70EB03713F3
:10501000AC000020401301085813010800040048A8
:105020002DE9F04F2DED0C8B8246A5B090F84E4047
:1050300090F84C000D90042CBAF848000A900891A2
:10504000904699461AD8DAED107AF5EEC07AF1EE6C
:1050500010FA00F1EF819AF85630DFF8C0B0002B5B
:1050600000F0F1819AF84B30002B00F0EC81274AD8
:10507000DBF8383026490020984707E0DFF89CB07D
:10508000244ADBF83830224900209847DAED117ABB
:105090009BED357AF5EEC07AF1EE10FAB8EE478A5C
:1050A00040DDC8EE278AF6EE007A78EEA78A0A9BE2
:1050B000002B3CD107939AF84A300193002B3ED144
:1050C0009AF85030022B41F023819AF84E40012C7F
:1050D00000F0C78200243A9A019B1471A8F8AC41F1
:1050E000002B32D09AF84F30012B00F04587022B6D
:1050F00000F03187002B00F04D87DBF83830064A8E
:10510000034900209847002301931EE0E41401089E
:10511000BC140108A0140108A0150108AC0000206F
:10512000000000000A9B5FED028A002BC2D09AF8B3
:105130004E3007939AF84A300193002BC0D03A9A28
:10514000002313710193A8F8AC31089C002C4AD0BD
:105150002389B4F88210B4F88020B4F87E00A8F84F
:1051600004109B00B4F88410A8F802209BB203F14D
:105170003002A8F800006088A8F80610A188A8F8F6
:10518000080092B2E088A8F80A106189A8F80C001B
:105190005F2A208CA8F80E10618CA8F81210A8F8CD
:1051A000100040F22582C949A1FB0201890901EBE7
:1051B0004101A2EB411189B200201A4605460B4677
:1051C00001210324A8F814300023A8F81620A8F819
:1051D0001810A8F81C50A8F81E00A8F82010A8F86D
:1051E0001A40A8F82230019900220123A9F80220D0
:1051F000A9F80C20A9F80A30002901F050801546C2
:105200000692049209F10E0308F13E029FEDB0AA46
:10521000DFEDB0AADFEDB09A9FEDB09ACDF808A00F
:10522000564608F1460709929A46CDF81480CDF803
:105230000CB0079AEBB29A4200F25C81099A002303
:10524000AAF80030AAF8083022F815300135042DEC
:105250000AF1020A06F1100607F15607E9D10A9A87
:10526000B9F80C10B9F80A30DDF81480DDF80CB08C
:10527000DDF808A011FB02F189B20B449BB2BDF826
:10528000182002925F1CBFB2B8F8ACC1BCF1010F8C
:1052900004D1049A0A9800FB02F204929AF8522070
:1052A000BAF854009AF853509AF85640A8F89E213C
:1052B000049A4FF6FF7E72454FEA500628BF7246A9
:1052C0000338A8F8A801033E0298A8F8AA6185F05F
:1052D000010592B2A8F8A651A8F8A001A8F8A42147
:1052E000A9F80C10A9F80430A9F80670002C00F0F9
:1052F0005E8141334021A9F80030A9F8081001244B
:10530000089BA8F8C04113B19B89A8F8C231019B42
:10531000002B40F057813A9ADAED105A00231360BF
:105320000D9BA8F8B2310A9B012B40F24581BAF8D7
:1053300048300122023BA8F8AE31A8F8B0219FED19
:10534000687A9FED686A28EE077AF1EE007A68EED7
:10535000277AC7EE066A87EE867AC8EE067AB6EE38
:10536000006A76EE866A37EE067AFCEEE66A77EE3B
:10537000867ABCEEC77A16EE903AF5EE405A17EEF2
:10538000102AF1EE10FAFCEEE77AA8F8B83114BF53
:1053900001230023A8F8B621A8F8383017EE902A88
:1053A000019BA8F8B421002B00F0ED80F5EE405AE7
:1053B000F1EE10FA0CD0C8EE257A37EE866AFCEED4
:1053C000C67A17EE903A1A0CA8F83C30A8F83A20A2
:1053D000DAED117A9AF84A309AF84B20A8F8303072
:1053E000F5EE407AF1EE10FA14BF01230023A8F87D
:1053F0003220A8F82A3008D0FCEEE87A17EE903A6E
:105400001A0CA8F82E30A8F82C209AF851300198E0
:10541000A8F8BE31012140F2FF7240F60103A8F85E
:105420002410A8F8BA21A8F8BC3125B0BDEC0C8B2B
:10543000BDE8F08FDFF8B8B02B4ADBF838302B49E5
:105440000020984722E69AED117ADBED356AB5EE39
:10545000C07AF1EE10FAB8EE668A16DDC8EE078A59
:10546000F6EE007A78EEA78A00F1F48018EE900A42
:1054700003F06EFD012908BF002880F0EB809AF848
:105480004A30002B40F0DD8008E000F1E1809AF81E
:105490004A30002B40F0C880DFED0F8A9AF84F1099
:1054A0009AF850200A98002814BF20460020914204
:1054B000079000F27D83002B40F03687022A00F02F
:1054C0002F873A9A1371A8F8AC310BE6ABAAAAAAB7
:1054D0002549123ECDCC4C3E000000008FC2753DE8
:1054E0000000964300247449D0140108BC1401083C
:1054F000AC000020099A012322F81530029B328962
:1055000093F84C300B93184640F2FF1140F2FF33F2
:10551000002818BF0B46C2B19A4216D8737B002BE5
:105520006AD1F37BB07B002840F06982012B00F048
:10553000AF80DDF80CB04E4ADBF838304D49DDF86D
:1055400008A0DDF8148098470BE0DDF80CB04A4A5B
:10555000DBF838304749DDF808A0DDF8148000207A
:1055600098470A9AB9F80C10B9F80A3011FB02F101
:1055700089B20B44BDF8182002929BB25F1C002236
:10558000BFB2019280E6DAED117A9AF84A309AF8C1
:105590004B20A8F83030F5EE407AF1EE10FA14BF47
:1055A00001230023A8F83220A8F82A302DE7A9F813
:1055B0000840A9F80070A3E60023A8F8AE31A8F8C7
:1055C000B031BCE69AF84D10072925D82B4BDFEDFA
:1055D0002C9A0B4493F8703BA8F8A2313A9BC3ED88
:1055E000009A079B002B40F0E283DAED105A97E611
:1055F000032001250021E4E5F37B022B92D1DDF8A5
:105600000CB0204ADBF838301A49DDF808A0DDF884
:10561000148000209847A4E73A9ADAED105A002344
:105620001360002301937BE6B5EE407AF1EE10FAA9
:1056300005D1F5EE407AF1EE10FA40F01B85DFED72
:10564000108ADBF83830104A0A49002098472EE5C6
:10565000DFED0B8ADBF838300C4A0649002098470A
:1056600025E59AF80F30013B012B3FF634AD31E5CB
:105670001C160108BC140108E015010838CB00080D
:1056800000000000F015010824150108101501089C
:10569000BB4BB6F80680B6F804B003EB8000B8F157
:1056A000180FD0F84C3B0E9340F2B28208EB8803FF
:1056B00003EB031303EB032308EB4303C3F3CC0215
:1056C00042EA43339BB240F6AA22934200F25E8242
:1056D000AC4BA3FB08231B090F93013B9BB2159313
:1056E0005C23119318230C93BBF1000F40F0AB82A5
:1056F000039BA54A9B6BA549584698470B9B002BDB
:1057000000F0548200230B93022233680E9919444F
:1057100001F5C3430C461BFB02F228334CF2503117
:105720000BF1FF3092B28B420E9208FB004807D972
:10573000039B974A9B6B95490020984700230B9346
:1057400008F5C34328334CF25032934207D9039BE8
:10575000904A9B6B8D490020984700230B93002CA7
:10576000C0F21A838C4BE11783FB043BC1EBAB0BFC
:105770000FFA8BFBB8F1000FC0F20383864B83FB5B
:1057800008304FEAE873C3EBA00000B2824A1FFA68
:105790008BFB82FB042CA0EB0B00C1EBAC010F9A3E
:1057A0001FFA80FC01EB4101BCFBF2F201321FFA4F
:1057B00082FEB4EBC10102B216924FF018000C9AAF
:1057C000B0FBF2F000F1D6820FFA81FC89B2724A86
:1057D00082FB08240C9AC3EBA40303EB4303B1FB45
:1057E000F2F402FB1414A2B2B8EBC3030F9200F15F
:1057F000BB821AB219929BB2013882B20F9C0C98EC
:105800001A9212FB0040BEF1010F80B200F0EC8151
:10581000C41A0F9B18BF01248B4214BF012300231D
:10582000AEEB0302A2EB0402A3B212941FFA82F8B9
:10583000179340F0E1810023189314931B930F9B5F
:105840009B00FB870B9B8900B987002B00F0C5816B
:10585000B37B052B00F2BD83494A02EB4303B3F847
:10586000603B5A08A3F14A00D91E033A80B2143BA8
:1058700092B289B210901393109BB986CBF1290490
:105880001C44169BFA860FFA84FBABEB0303292B0F
:10589000A4B207DC039B414A9B6B3C49002098471C
:1058A00000230B93139B9B4507DB039B3C4A9B6B9D
:1058B00036490020984700230B93109B3B87119B90
:1058C0007C872C2B40F2EB810023A7F85030A7F8FF
:1058D0005230A7F85430159BA7F84E30189BA7F804
:1058E0004830B8F1000F00F0BE810123A7F84A301C
:1058F000149B179AA7F84C20002B00F091831B9B58
:10590000A7F842301A9BA7F84430129B002B00F0F6
:105910007C83199B0F9A9C1A0C9B94FBF3F4A7F8B9
:10592000464008F1FF321FFA82F80B9BA7F840802F
:10593000002B5DD0B37A172B00F24281092B00F2C5
:105940002F83C3F1090315227B803A80089A002A2D
:1059500000F07E837B8802EB43039B89F07BBB8056
:105960001CA9FCF7F7F960BBDDF80CB0DDF814807A
:10597000DBF838300B4A0549DDF808A014E000BF19
:1059800038CB0008ABAAAAAA68160108BC14010803
:10599000B4160108C8160108ABAAAA2AFC16010809
:1059A0001C170108441601089847562303FB05837A
:1059B000BDF88C10BDF88E20A3F87010A3F86E20EF
:1059C000CFE5BDF88440BDF88C307B85082CBDF850
:1059D0008E303B850CD8BDF88630072B08D8BDF833
:1059E00088C0BCF1080F03D8BDF88A20082A18D94E
:1059F000DDF808A0DDF81480DDF80CB0B1E5581E24
:105A0000C0B204287FF644AEDDF80CB0AB4ADBF838
:105A10003830AB49DDF808A0DDF814800020984745
:105A20009FE5012101FA03F3501E013B9BB201FAED
:105A300002F201FA00F03C81013A9C0101385B025C
:105A400040023B829201029B7882A7F80AC0BC8187
:105A5000FA819DF8700093F84D302093002800F0F3
:105A60008280DDF874B0BBF1000F7CD0022B7CD8B3
:105A7000944A134493F86C3BBB82089B23B307F111
:105A800014031A460B9300233B8311822EE18D4AA7
:105A9000134493F8703BBB82089BABB100233B835C
:105AA00007F114031A460B93002840F017810B9B53
:105AB000B8847883F8821881D8810B9A00235381A7
:105AC00000233B840B9A53823089F27A3A8601286C
:105AD00058D00121831EF985BB85717BB9F80C3044
