:020000040800F2
:1000000000000120E5F2000889E1000885E1000810
:1000100081E100087DE1000879E1000800000000AE
:1000200000000000000000000000000071E1000876
:1000300075E10008000000006DE100085DE10008C6
:1000400035F3000835F3000835F3000819E100081E
:1000500035F3000835F3000835F3000835F30008E0
:1000600035F3000805E1000835F3000835F3000812
:10007000F9E00008EDE0000835F3000835F300086A
:10008000E1E00008D5E0000835F3000835F300088A
:1000900035F3000835F3000835F3000835F30008A0
:1000A00035F3000835F3000835F3000835F3000890
:1000B00035F30008000000000000000035F30008E0
:1000C00035F30008B5E0000835F3000835F3000803
:1000D00035F3000835F3000899DD000835F3000812
:1000E00085DD000809DD00080000000000000000B8
:1000F0000000000000000000000000000000000000
:100100000000000035F300080000000035F300088F
:10011000000000000000000035F3000835F300087F
:1001200035F3000835F3000835F3000835F300080F
:1001300035F300080000000000000000000000008F
:1001400035F3000835F3000835F30008000000001F
:1001500035F3000835F3000835F3000835F30008DF
:1001600035F3000835F3000835F3000800000000FF
:1001700035F3000835F3000800000000000000001F
:1001800035F3000835F3000835F3000800000000DF
:1001900010B5054C237833B9044B13B10448AFF3C1
:1001A00000800123237010BD980000200000000093
:1001B000BC25010808B5034B1BB103490348AFF345
:1001C000008008BD000000009C000020BC25010844
:1001D0000F49104A086813691B0704D50D4B1869AD
:1001E000C0F3C00070470B681B1AB3F57A7FF5D2D5
:1001F00072B613691B0700D430BF62B6BFF36F8FAE
:1002000013691B07EFD5034B1869C0F3C000704793
:10021000B40000200004004809494A68D36823F06C
:10022000A003D360086804E00B681B1AB3F57A7F5B
:1002300004D8D3689B06F7D5002070470320704789
:10024000B40000200288438843EA02430B607047F1
:10025000DFF880C02DE9F04F023802390CF1E209D5
:100260000CF1E40B4FF0000A40F6DE1830F8025FA4
:1002700031F8024FA54220D09CF800400BEBC4049B
:10028000658825B36768002607EB850E47F6FF757E
:1002900057F8044BA4B2A54228BF2546A64238BF52
:1002A0002646BE45F4D17600B6B26D00B24538BFE1
:1002B000B246ADB2A84528BFA8460CF1010CCC450A
:1002C000D4D1A2F80080A3F800A0BDE8F08F4FF6CB
:1002D000FE75EFE7D82501080B4A30B4411E00F146
:1002E00087054FF0FF3011F8014F08236040C40725
:1002F0004CBF82EA50004008013BF8D18D42F2D158
:10030000C04330BC704700BF2083B8ED2DE9F04FEB
:10031000054687B0002405EB410E02900592104679
:1003200004910393AEF1120EAA1E27460194A14632
:10033000A2464FF0010C40F2EE2B14E0BAF1000F90
:1003400030D14B4535DD99460124019E7642B342BA
:10035000BCBFA8EB050301938F4238BF0F469645FB
:1003600000F102002BD0558A32F8021F6B1A03F5F8
:100370000046B6F5803F38BF038088462CBF4FF05B
:10038000000C11885B45D9DC594E9945B8BF994698
:10039000B342DADA002C0ABF4FF0000CA2464FF04D
:1003A000010AD2E74B4506DD994654464FF0000C52
:1003B000CBE70124C9E754464FF0000CC5E7BCF178
:1003C000000F05D14FF0000A504607B0BDE8F08F8E
:1003D000002CF7D0BAF1000FF4D0049A059E0497D0
:1003E0000023CDF81490A2F11C0E123698469C46BC
:1003F0001D461F46994636F9023F03EB830203EB85
:100400004203304631460A2231F902BD30F9024F2B
:1004100002FB0B33A2F1020B013A0BFB0433F3D1C5
:10042000634561DC434501DA9846A94601357545C7
:10043000E1D14CF250339C4538464C46049FDDF8E0
:100440001490BFDD2B4B9845BCDAB9F1000FB9D041
:10045000019B002BB6D0029B11991B88FF00DB008B
:1004600041B1BB4204D2DA434A443A44B2FBF9F206
:1004700011990A60109A002AA6D0039A002AA3D0E4
:10048000024602990E3231F81210B3EBC10F4FEA57
:10049000C10005D2DB434B440344B3FBF9F3D21A4A
:1004A000029B04F10E0933F81930B7EBC30F4FEA82
:1004B000C30107D90198431E3B445B1AB3FBF0F319
:1004C000A9EB0309002AFFF67DAFB9F1000FFFF693
:1004D00079AF4A453FF776AF109BA9EB0209C3F805
:1004E0000090039B1A606FE79C462F469EE700BF73
:1004F00012FDFFFFB03CFFFF704700BF70B4124E0B
:10050000124D00F1BC04002143680B44024640F840
:10051000043F12689A1AB24209DD50F8042CA3F580
:10052000C9237E3BA1F5C92103607E399A1AAA42EC
:1005300006DA03F5C9237E3301F5C92103607E3154
:100540008442E1D170BC70473F240300C1DBFCFF53
:100550000138C0B204289DBF034B03EB800090ED2F
:10056000000A9FED020A70474C2E010800000000AF
:1005700070B1012809D008B5074B084A9B6B0849A0
:10058000002098479FED070A08BDB0EE000A7047AB
:10059000B1EE000A704700BFB40000200C670108EC
:1005A000246701080000000007EE900ADFED1A6AD8
:1005B0009FED1A7AF8EEE77A67EEA67AF4EEC77A3C
:1005C000F1EE10FA01D5012908D09FED157AF4EE6D
:1005D000C77AF1EE10FA03D501207047002070476A
:1005E000B1EE0C7AF4EEC77AF1EE10FA01D50220E2
:1005F00070479FED0C7AF4EEC77AF1EE10FA09D449
:100600009FED097AF4EEC77AF1EE10FA4CBF0420A0
:1006100005207047032070470AD7233B6666464093
:100620003333A34033334B4100009441D0ED017A82
:10063000F5EEC07AF1EE10FA10B504465CD4012054
:10064000D4ED027AF5EEC07AF1EE10FA08D52E4B11
:100650002E4A9B6B2E4900209847D4ED027A002049
:1006600094ED017AB4EEE77AF1EE10FA08DD264B4C
:10067000284A9B6B264900209847D4ED027A002037
:10068000B3EE077AF4EEC77AF1EE10FA06DD1E4BF0
:10069000214A9B6B1E49002098470020D4ED047A24
:1006A000BAEE047AF4EEC77AF1EE10FA1CD49FED9C
:1006B0001B7AF4EEC77AF1EE10FA15DCD4ED097A64
:1006C000F5EEC07AF1EE10FA06D4B7EE007AF4EE49
:1006D000C77AF1EE10FA06DD0B4B114A9B6B0C4901
:1006E00000209847002010BD074B0E4A9B6B08491D
:1006F000002098470020E1E7034B0B4A9B6B04491D
:100700000020984700209BE7B40000207C67010888
:100710005867010894670108B067010800000C429F
:1007200004680108D86701083C67010808B5FFF7AD
:100730000FFF9FED1A7AC0EE077AB5EE007A67EEEA
:10074000877AFCEEE77A17EE903A98B211B18842B8
:1007500028BF0846182817D8A0B11822B2FBF0F31A
:1007600000FB03F3D31A9BB243B90CE0B2FBF0F3E6
:1007700000FB03F3C3F118039BB223B1013880B22D
:100780000028F3D1012008BD054BA3FB0030000970
:1007900000EB4000C00080B208BD00BF0AD7233B79
:1007A000ABAAAAAA0379022B30B413D1D0F898507F
:1007B000D0F8A440D0F8C820D0F8D4300D440C4470
:1007C0000A440B44C0F89C50C0F8A840C0F8CC20A4
:1007D000C0F8D83043794BB9D0F8B030D0F8BC204D
:1007E0000B441144C0F8B430C0F8C01030BC70479E
:1007F00008B518B1064B02689A4207D0054B064A65
:100800009B6B064900209847002008BD407908BD31
:10081000E1AFA10FB400002034680108506801085E
:1008200008B518B1094B02689A4207D0084B094A2B
:100830009B6B094900209847002008BD0079A0F172
:100840000200B0FA80F0400908BD00BFE1AFA10F7F
:10085000B400002034680108506801082DE9F04F09
:10086000B1F1010A85B043D04FF0000984469046AB
:10087000CE466E46BAEB0E0E33D000252F4618E05A
:10088000B4EEE66AF1EE10FA4CBF01230023013505
:10089000ADB22F465BB19BE80F0086E80F0094E8ED
:1008A0000F008BE80F0096E80F0084E80F007545F5
:1008B00017D20CEB07140CEB071B10349BED007ADE
:1008C0009BED026AD4ED007AD4ED026AB8F1000F14
:1008D000D6D1B4EEE77AF1EE10FACCBF01230023B3
:1008E000D5E709F101091FFA89F9D145CE46C1D3EF
:1008F00005B0BDE8F08F00BF5FEA510C1DD0F0B429
:100900000CF1FF3C1FFA8CF3013900F1080C0CEBE1
:10091000C30C8AB2034600EBC2011D680F684E6823
:100920005C6843F8087B013A634543F8046C92B273
:100930000D604C60EFD1F0BC70477047F0B4BDF96A
:10094000104005EE104ABDF81440002B7BD05E1E0F
:10095000B6B204EE104A02EB46064F1E023ADDE93B
:100960000641F7EE004AFEEE003A0DE0F8EEC57AD9
:1009700067EE807AC4ED007A03680B60B24204F13E
:10098000040401F104015ED032F8023F002BEDD0E7
:100990005D1CBB4200EB8505F0D207EE903A15EDE9
:1009A000026AD5ED005A55ED016AF8EE677A35EE28
:1009B000E67A37EEE43A76EE655A76EEC66A65EE8A
:1009C000A75A77EEA42A27EE037A77EEA77A37EEB6
:1009D000257A62EEA65A77EEE47A37EE257AF8EEBB
:1009E000445A27EE237AB24267EE877A37EE072A17
:1009F00076EEE77A63EE076AF1EE671AC1EE822AB5
:100A000004F1040401F1040166EE836A27EE227A00
:100A100036EE666A23EE273A27EE227A65EEA26A60
:100A200067EEA27AF8EEC55A77EE277A36EE436A79
:100A300036EEA57A76EE277A27EE007A04ED017A73
:100A400041ED017AA0D1F0BC704700BF07EE900ADB
:100A5000DFED196A9FED197AF8EE677A67EEA67AEC
:100A6000F4EEC77AF1EE10FA01DC02207047F5EEE1
:100A7000006A60EE266AB7EE006A86EEA77AB4EEE8
:100A8000C67AF1EE10FA15DDBCEEC77A17EE103A11
:100A90009BB2B1EE007A20EE070AB6EE007A20EEA5
:100AA000070A80EE277AFCEEC77A17EE900A184400
:100AB00080B270470123ECE70AD7233BACC5273748
:100AC000431EDBB2042B10B5044697BF1448DFED7C
:100AD000155A00EB8303D3ED005A032A02D0B0EE7F
:100AE000650A10BD2046FFF721FE02462046FFF7AB
:100AF0002FFD1046FFF7AAFF07EE902ADFED0A6AE6
:100B000007EE100AF8EE677AB8EE477A67EEA67A33
:100B100067EE877A75EEA75AB0EE650A10BD00BF82
:100B2000602E0108000000000AD7233B10B582B0F8
:100B3000027D818901920446807BFFF7C1FF019A03
:100B40000120B0EE405AFFF7BBFFD4ED027AF4EE7D
:100B5000C07AF1EE10FA02DC94F8283053B9D4EDE3
:100B6000017AF4EEC57AF1EE10FA4CBF01200020B4
:100B700002B010BD002002B010BD00BF00B583B0B0
:100B8000019119B9012003B05DF804FBFFF7E0FC07
:100B9000DDED017A9FED077AF8EE677A67EE877AE6
:100BA00080EE277ABCEEC77A17EE103A98B203B0FF
:100BB0005DF804FB0AD7233BF8B51E4607460D46F1
:100BC000FFF7DCFF11FB00F4A4B20AB16400A4B289
:100BD000032E01D02046F8BD3846FFF7B9FC284661
:100BE000FFF734FF15FB004084B22046F8BD00BF7C
:100BF00091ED007A92ED006AD2ED016AD1ED014AE1
:100C000067EE065A26EE244A67EE267A66EEA44A76
:100C1000002B42D0013B9BB22DED028BD0ED001A90
:100C200090ED012AD0ED022A90ED033AD0ED043A7E
:100C300002EBC30304E0D2ED036A92ED026A0832CC
:100C400021EE865A21EEA67A35EE255A37EE277A1E
:100C500062EE065A62EE267A75EE845A77EEA47A30
:100C600023EE058A23EE850A22EE866A63EE070AE2
:100C700023EE871A62EEA66A9A4275EEC85A36EEDD
:100C8000404A77EEE07A76EEC14A82ED005A82ED74
:100C9000017AD0D1BDEC028B70477047024B034AFA
:100CA0009B6B034900201847B40000206C680108C2
:100CB0008868010838B520B10E4B02689A42054693
:100CC00003D0FFF7EBFF002038BDB0F84430002B15
:100CD000F9D0002403E0B5F844309342F3D9A3B22D
:100CE0000233013455F82300FFF79AFDA2B2002821
:100CF000F1D038BD52D1C0AC024B034A9B6B0349C3
:100D000000201847B4000020A8680108C068010846
:100D100008B518B1064B02689A4203D0FFF7ECFF02
:100D2000002008BDC06D003818BF012008BD00BFFD
:100D300030D1C0AC08B518B1064B02689A4203D056
:100D4000FFF7DAFF002008BD806D003818BF0120D2
:100D500008BD00BF30D1C0AC08B590F8403013B921
:100D6000BDE80840D4E7FFF7E5FF80F00100C0B21E
:100D700008BD00BF10B518B1084B04689C4203D0F1
:100D8000FFF7BAFF002010BD8368046923440B609D
:100D9000036B816B0B441360012010BD30D1C0ACDC
:100DA000836910B50446BBB10D4B93F840204AB996
:100DB00063697BB10A4B0B4A9B6B0B490020984738
:100DC000002010BD9B6B094A0749012098476369C1
:100DD000002BEFD1012010BDC369002BE4D1E7E760
:100DE000B40000200C690108F0680108D46801080B
:100DF000D0E90F23816B0069184700BF0068836842
:100E0000184700BFFAE700BF70B40169B0F842208C
:100E100090F8383031F81220032B08BF82F40042DA
:100E200040F2E51303FB02F31B0C826CA3F58973FC
:100E30009BB21380828F31F812204AB1B0F8402063
:100E400031F81220012A03D9C26C0124147002E087
:100E5000C26C00241470C48F428F31F8145031F8E2
:100E60001240B0F9441040F2E51202FB05F2120CF8
:100E7000C2F5897213441BB2002BB8BF5B42D0E9A4
:100E800014651BB2A4F1010200689942B2FA82F221
:100E90004FEA5212ACBF00230123327042682B701C
:100EA00070BC104770B50446806978B1E36943B1FE
:100EB0000F4B93F8402022B19B6B0E4A0E49012044
:100EC00098472068BDE8704083681847084D0B4A72
:100ED000AB6B09499847E3693BB195F8403023B1C2
:100EE000AB6B044A044901209847002070BD00BF45
:100EF000B4000020606901085069010834690108E4
:100F00000068C368184700BFFAE700BFF8E700BFF2
:100F10002DE9F047C26DD0F8188006690023A8F8C3
:100F2000023004461D46137000F14C07994657F8ED
:100F3000043B03B3B3F838C0B3F89000B3F8921091
:100F4000B3F8D82006EB400006EB410106EB420265
:100F500006EB4C0CC3E91301C3F8A420C3F814C07A
:100F600088F800501868D3F8DC20416883F8E490D2
:100F7000C3F8E02088470135EDB2042DD7D12068B1
:100F8000BDE8F04743681847704700BF704700BF8F
:100F9000704700BF704700BF52B101EB82020438B6
:100FA00050F8043F4B801B0C0B8004319142F7D169
:100FB000704700BF30B583B000EB42000D4601A979
:100FC0001C46FFF73FF9019A22F00F0204B12A43B1
:100FD0000092014601226846FFF7DEFF03B030BDF4
:100FE0002DE9F04F87B0BDF84070DDF844A003EB69
:100FF000C7077B8883B381460E4601EB02080025B4
:101000004FF0010B7A6852F82540620092B2B2426A
:10101000C4F301701DD342451BDA01280CD002280D
:1010200036D0E8B1324B334A9B6B334900209847A6
:10103000002007B0BDE8F08FBAF10003A2EB060272
:1010400018BF012392B2C4F303414846FFF7B2FF31
:101050007B880135AB42D5D8012007B0BDE8F08FC1
:10106000C4F344530BFA03FC921BE24591B21ED326
:101070000CF1FF331E4A0193CDF800A0946B1F4A78
:1010800003900B461C49A047039807B0BDE8F08FBA
:10109000921BBAFA8AF35B0992B2C4F30341484641
:1010A000FFF788FF7B880135AB42ABD8D4E709EB6B
:1010B000410004A90393FFF7C5F8039B4FF0FF32EB
:1010C000C3F12003C4F3044422FA03F3049AA340B7
:1010D00022EA03020AFA04F40146144305A8012295
:1010E0000594FFF759FF7B880135AB428AD8B3E7F7
:1010F000B4000020B4690108A869010870690108FA
:101100002DE9F04FC2F51D669A461B68164C0E3647
:10111000B34298BF9EB2154B054688BFB6B2500881
:1011200003EB800083B0174672088846023DFFF744
:1011300033FF04F1E10904F1E40B7D2301E014F82D
:10114000013F35F8022F3946CDE9003240465B4673
:101150003246FFF745FF4C4501D00028EFD1CAF8D1
:10116000006003B0BDE8F08FD82501089851010850
:1011700000230138C1E90133CB6004282ED8DFE811
:1011800000F00C1625290300174B184A00200870A0
:10119000C1E90533CA6101207047154B00220A706E
:1011A0004FF48022C1E90533CA610120704730B491
:1011B000104B114CCC6101209625FA22CD60C1E97B
:1011C000012230BCC1E90533087070470B4B0C4A53
:1011D0000020DCE70B4B0C4A0020D8E70020C1E9D7
:1011E00005000870C8617047080005000B00020088
:1011F00002000100080001000200030008000200D4
:1012000004000200080003000600020010B4084CAD
:10121000248D490864088C4228BF0C46023C24F007
:101220000104043010601C605DF8044B704700BF7F
:10123000B4000020F8B50688002A14BF4FF480528D
:101240004FF40052B6F59C6F38BF4FF49C66B24223
:1012500005460F461C4623D2134B144A9B6B144978
:10126000002098474FF0000E1249134A134BE360D9
:10127000C4E901120FCD203676004FF0000CA4F81F
:1012800002C004F1300C24F8106B0FC495E80F0075
:1012900007C497E8030023808CE803007046F8BD7C
:1012A0004FF0010EE0E700BFB4000020D86901084C
:1012B000F86901080100020003001B001C00200067
:1012C0000368D0F8E820C0F8F0205A6818461047A4
:1012D00038B5064DEB6A9847044608B1204638BD3C
:1012E000AB6B034A03499847204638BDB400002041
:1012F0000C6A01081C6A0108DFF864C02DE9F04798
:10130000DCF83C501DB12B46BDE8F047184712B33E
:101310005200A1F10208A2F102090E469A460746C0
:101320004944444634F8025F6DBA8C422580F9D1B5
:10133000DCF8344038463146A047BAF1000F01D1FD
:10134000BDE8F0874E4438F8023F5BBAB045A8F8D4
:101350000030F8D1F4E7BDE8F047DCF83430184746
:10136000B400002070B5012584B041F4A0430446C8
:10137000164603A92A4601A8ADF808300196ADF833
:101380000A50FFF709FE204602A900230422FFF7B6
:10139000B3FF04B070BD00BF2DE9F04782B01D4619
:1013A00043F44053BDF82840ADF8003000278A468A
:1013B00091466946012303228046ADF80270ADF8DC
:1013C0000470FFF799FFBDF9046004FA0AF1714057
:1013D00001EA090445F4805540463B46694674409D
:1013E0000222ADF80050ADF80240FFF785FF02B0D1
:1013F000BDE8F08730B583B00025294600957B23F2
:10140000FF220446FFF7C8FF0121204600918B23ED
:101410000222FFF7C1FF009520468B23802207217F
:10142000FFF7BAFF03B030BD30B583B041F480544C
:1014300015460023022201A9ADF80440ADF806507C
:10144000FFF75AFF03B030BDF0B40C4D2F8D9E1C3A
:10145000B7EB460F05D2AB6B094A0A49F0BC002036
:101460001847144641F4A041013B118053802146A6
:1014700026F000420023F0BC3EE700BFB40000208D
:101480002C6A01084C6A01082DE9F04F02EB420C6E
:1014900000EB8C0C8DB00026834682468046674662
:1014A000B14603A84FEA890586469FED577A434621
:1014B0006AB19C192C44D4ED007A1C46D4ED006A24
:1014C0000C3367EEA67ABB4237EE277AF1D10435AA
:1014D0000C2DAEEC017AE8D109F10109B9F1030F45
:1014E00000F1100008F10408A6F1040607F1040752
:1014F000D8D19DED046ADDED055ADDED086A684638
:101500000BF10C04DFED407A53463AB11D4695EDE0
:10151000007A0C33634577EE877AF7D10AF1040A33
:10152000A245E0EC017A0CF1040CEBD1DDED037A7D
:10153000F5EE407AF1EE10FA10D0B7EE007A87EEB1
:10154000274ADDED077A66EE044A26EE245A77EE46
:10155000C57AF5EE407AF1EE10FA06D100200023AC
:10156000CBF800300DB0BDE8F08FC7EE272A65EE4E
:10157000843A25EEA47A66EE237A9DED0B5A76EE38
:10158000E77A36EEC77A67EEA27A65EEA36A75EE61
:10159000666A27EE275A76EEC56AF5EE406AF1EEE6
:1015A00010FADBD09DED005A9DED013A9DED022A27
:1015B00064EE854A63EE853A73EE644A012067EE75
:1015C000A47A002372EE677A77EEE33AC3EEA67A46
:1015D00027EE277AC1ED027A34EEC77A65EEA75A74
:1015E00067EE227A26EE276AC1ED017A35EE466A69
:1015F00076EE655A25EE844A81ED004ACBF800303C
:101600000DB0BDE8F08F00BF000000000028B8BF9B
:10161000404270B4BABF00B20124002400293FDB6D
:10162000884238DB0022034668B30846002643F6AA
:1016300028450004B0FBF3F1A9424AD946F2D6335B
:10164000994236D948F67203994244D94AF6494339
:10165000994242D94DF2A303994240D94FF24B73BC
:10166000994298BF052025D94FF24C7548F2332393
:101670004CF2A340491B03FB01F100EB114016B1F2
:10168000C0F5C9301F3014B1C0F549303F3002B148
:10169000404270BC70470B46C1B912480A46F2E797
:1016A000494209B288424FF00102BCDA0B461646A5
:1016B000BDE701200C4B03EBC00503EB8003D5F81D
:1016C000A008D3F8D438D5F89C58D3E700220126D7
:1016D000ADE70020EEE70220ECE70320EAE7042074
:1016E000E8E700BF1F920100D825010838B5524B2A
:1016F00093F824200021012A83F8411000F08D8006
:101700005A6853210225CA20012483F8255083F802
:10171000244050625162916821F480619160D168E7
:10172000C9B261F49061D160D168490664D51F21C6
:1017300051619168414821F0070141F00301916036
:10174000016841F480110160816841F48011816079
:10175000916841F4804191609168FF2441F4806177
:1017600001209160546283F8250093F84110002213
:1017700083F8242000295BD172B6BFF34F8FBFF3EB
:101780006F8F93F8412002B930BF62B6BFF34F8F1D
:10179000BFF36F8F93F84120002AEDD093F82420F7
:1017A0000021012A83F8411037D0586853220124C0
:1017B0000225CA2183F8255083F824404162426201
:1017C000826822F480628260826822F480428260B1
:1017D0001C6804E01968091BB1F57A7F1FD8C2683C
:1017E00012F00402F6D0FF2401220021446283F8A3
:1017F000241083F8252038BD1C68D16811F004013D
:1018000095D11868001BB0F57A7FF6D9FF24032024
:10181000546283F8241083F825000BF0FDFAFF24AE
:101820000321446283F8242083F825100BF0F4FA96
:1018300083F84120B9E700BFB40000200004014054
:101840002DE9F84F164C0A9E278D043A043F5208A2
:101850007F0897420D468146984628BF174601F1FA
:10186000040A0024331BBB4228BF3B466FEA844175
:101870005A1E6FEA91419B466A8029805A0008EB04
:10188000440150461C4410F0A1F80BF10202002361
:1018900029464846FFF730FDA642E3D8BDE8F88F59
:1018A000B40000202DE9F04F02EBC30689B0738825
:1018B000129F4BB38046894600254FF0010B736899
:1018C00053F82540C4F3017001280CD0022833D00E
:1018D000F0B1344B344A9B6B3449002098470020C8
:1018E00009B0BDE8F08FA3B2194659F8232022F0C1
:1018F0000F0217B1C4F3034422434046FFF732FD01
:10190000738801359D42DAD3012009B0BDE8F08F1C
:10191000C4F3445A0BFA0AF39F4216D3214A0097A4
:10192000013B019321490390A3B2946B204AA04745
:10193000039809B0BDE8F08FA3B2194659F82320E7
:1019400022F00F02002FD8D1D4E7A3B243F4204CE9
:1019500003930522012305A9ADF81800CDF81A005C
:101960004046ADF814C0ADF816B0FFF7C5FC04A9A9
:101970000DF11A00FEF766FCCAF1200A4FF0FF33A2
:10198000C4F3044423FA0AFA049B03990AFA04FAFA
:1019900023EA0A0207FA04F422434046FFF7E2FC76
:1019A000AEE700BFB4000020986A0108A8690108EA
:1019B000606A010810B4002492ED037A1C605C6038
:1019C0009C60DC60002942D0DFED247A4C1E10FAC6
:1019D00084F402EB0414F0EE676A02EB0012B0EE3E
:1019E000676A00E00246D2ED005A36EE256A02F13F
:1019F000100083ED006AD2ED015A76EEA56AC3EDC0
:101A0000016AD2ED025A77EEA57AC3ED027AD2EDE1
:101A1000035AF4EE475AF1EE10FAC8BFB0EE657AF9
:101A20009442DFD105EE901AF8EE655A83ED037A01
:101A300086EE255A5DF8044B86EEA56A87EEA57AF8
:101A400083ED005A83ED016A83ED027A7047DFED82
:101A5000037AF0EE676AB0EE676AE3E70000000021
:101A60002DE9F04F2DED0C8B8246A5B090F84E403D
:101A700090F84C000D90042CBAF848000A90089198
:101A8000904699461AD8DAED107AF5EEC07AF1EE62
:101A900010FA00F1EF819AF85630DFF8C0B0002B51
:101AA00000F0F1819AF84B30002B00F0EC81274ACE
:101AB000DBF8383026490020984707E0DFF89CB073
:101AC000244ADBF83830224900209847DAED117AB1
:101AD0009BED117AF5EEC07AF1EE10FAB8EE478A76
:101AE00040DDC8EE278AF6EE007A78EEA78A0A9BD8
:101AF000002B3CD107939AF84A300193002B3ED13A
:101B00009AF85030022B41F023819AF84E40012C74
:101B100000F0C78200243A9A019B1471A8F8AC41E6
:101B2000002B32D09AF84F30012B00F04587022B62
:101B300000F03187002B00F04D87DBF83830064A83
:101B4000034900209847002301931EE0046B01081D
:101B5000DC6A0108C06A0108C06B0108B4000020FB
:101B6000000000000A9B5FED028A002BC2D09AF8A9
:101B70004E3007939AF84A300193002BC0D03A9A1E
:101B8000002313710193A8F8AC31089C002C4AD0B3
:101B90002389B4F88210B4F88020B4F87E00A8F845
:101BA00004109B00B4F88410A8F802209BB203F143
:101BB0003002A8F800006088A8F80610A188A8F8EC
:101BC000080092B2E088A8F80A106189A8F80C0011
:101BD0005F2A208CA8F80E10618CA8F81210A8F8C3
:101BE000100040F22582C949A1FB0201890901EBDD
:101BF0004101A2EB411189B200201A4605460B466D
:101C000001210324A8F814300023A8F81620A8F80E
:101C10001810A8F81C50A8F81E00A8F82010A8F862
:101C20001A40A8F82230019900220123A9F80220C5
:101C3000A9F80C20A9F80A30002901F050801546B7
:101C40000692049209F10E0308F13E029FEDB0AA3C
:101C5000DFEDB0AADFEDB09A9FEDB09ACDF808A005
:101C6000564608F1460709929A46CDF81480CDF8F9
:101C70000CB0079AEBB29A4200F25C81099A0023F9
:101C8000AAF80030AAF8083022F815300135042DE2
:101C90000AF1020A06F1100607F15607E9D10A9A7D
:101CA000B9F80C10B9F80A30DDF81480DDF80CB082
:101CB000DDF808A011FB02F189B20B449BB2BDF81C
:101CC000182002925F1CBFB2B8F8ACC1BCF1010F82
:101CD00004D1049A0A9800FB02F204929AF8522066
:101CE000BAF854009AF853509AF85640A8F89E2132
:101CF000049A4FF6FF7E72454FEA500628BF72469F
:101D00000338A8F8A801033E0298A8F8AA6185F054
:101D1000010592B2A8F8A651A8F8A001A8F8A4213C
:101D2000A9F80C10A9F80430A9F80670002C00F0EE
:101D30005E8141334021A9F80030A9F80810012440
:101D4000089BA8F8C04113B19B89A8F8C231019B38
:101D5000002B40F057813A9ADAED105A00231360B5
:101D60000D9BA8F8B2310A9B012B40F24581BAF8CD
:101D700048300122023BA8F8AE31A8F8B0219FED0F
:101D8000687A9FED686A28EE077AF1EE007A68EECD
:101D9000277AC7EE066A87EE867AC8EE067AB6EE2E
:101DA000006A76EE866A37EE067AFCEEE66A77EE31
:101DB000867ABCEEC77A16EE903AF5EE405A17EEE8
:101DC000102AF1EE10FAFCEEE77AA8F8B83114BF49
:101DD00001230023A8F8B621A8F8383017EE902A7E
:101DE000019BA8F8B421002B00F0ED80F5EE405ADD
:101DF000F1EE10FA0CD0C8EE257A37EE866AFCEECA
:101E0000C67A17EE903A1A0CA8F83C30A8F83A2097
:101E1000DAED117A9AF84A309AF84B20A8F8303067
:101E2000F5EE407AF1EE10FA14BF01230023A8F872
:101E30003220A8F82A3008D0FCEEE87A17EE903A63
:101E40001A0CA8F82E30A8F82C209AF851300198D6
:101E5000A8F8BE31012140F2FF7240F60103A8F854
:101E60002410A8F8BA21A8F8BC3125B0BDEC0C8B21
:101E7000BDE8F08FDFF8B8B02B4ADBF838302B49DB
:101E80000020984722E69AED117ADBED116AB5EE53
:101E9000C07AF1EE10FAB8EE668A16DDC8EE078A4F
:101EA000F6EE007A78EEA78A00F1F48018EE900A38
:101EB0000CF0E6FA012908BF002880F0EB809AF8C0
:101EC0004A30002B40F0DD8008E000F1E1809AF814
:101ED0004A30002B40F0C880DFED0F8A9AF84F108F
:101EE0009AF850200A98002814BF204600209142FA
:101EF000079000F27D83002B40F03687022A00F025
:101F00002F873A9A1371A8F8AC310BE6ABAAAAAAAC
:101F10002549123ECDCC4C3E000000008FC2753DDD
:101F20000000964300247449F06A0108DC6A010845
:101F3000B4000020099A012322F81530029B32894F
:101F400093F84C300B93184640F2FF1140F2FF33E8
:101F5000002818BF0B46C2B19A4216D8737B002BDB
:101F60006AD1F37BB07B002840F06982012B00F03E
:101F7000AF80DDF80CB04E4ADBF838304D49DDF863
:101F800008A0DDF8148098470BE0DDF80CB04A4A51
:101F9000DBF838304749DDF808A0DDF81480002070
:101FA00098470A9AB9F80C10B9F80A3011FB02F1F7
:101FB00089B20B44BDF8182002929BB25F1C00222C
:101FC000BFB2019280E6DAED117A9AF84A309AF8B7
:101FD0004B20A8F83030F5EE407AF1EE10FA14BF3D
:101FE00001230023A8F83220A8F82A302DE7A9F809
:101FF0000840A9F80070A3E60023A8F8AE31A8F8BD
:10200000B031BCE69AF84D10072925D82B4BDFEDEF
:102010002C9A0B4493F81439A8F8A2313A9BC3EDDB
:10202000009A079B002B40F0E283DAED105A97E606
:10203000032001250021E4E5F37B022B92D1DDF89A
:102040000CB0204ADBF838301A49DDF808A0DDF87A
:10205000148000209847A4E73A9ADAED105A00233A
:102060001360002301937BE6B5EE407AF1EE10FA9F
:1020700005D1F5EE407AF1EE10FA40F01B85DFED68
:10208000108ADBF83830104A0A49002098472EE5BC
:10209000DFED0B8ADBF838300C4A06490020984700
:1020A00025E59AF80F30013B012B3FF634AD31E5C1
:1020B0003C6C0108DC6A0108006C0108D8250108A5
:1020C00000000000106C0108446B0108306B01082F
:1020D000BB4BB6F80680B6F804B003EB8000B8F14D
:1020E000180FD0F8F0380E9340F2B28208EB880354
:1020F00003EB031303EB032308EB4303C3F3CC020B
:1021000042EA43339BB240F6AA22934200F25E8237
:10211000AC4BA3FB08231B090F93013B9BB2159308
:102120005C23119318230C93BBF1000F40F0AB829A
:10213000039BA54A9B6BA549584698470B9B002BD0
:1021400000F0548200230B93022233680E99194445
:1021500001F5C3430C461BFB02F228334CF250310D
:102160000BF1FF3092B28B420E9208FB004807D968
:10217000039B974A9B6B95490020984700230B933C
:1021800008F5C34328334CF25032934207D9039BDE
:10219000904A9B6B8D490020984700230B93002C9D
:1021A000C0F21A838C4BE11783FB043BC1EBAB0BF2
:1021B0000FFA8BFBB8F1000FC0F20383864B83FB51
:1021C00008304FEAE873C3EBA00000B2824A1FFA5E
:1021D0008BFB82FB042CA0EB0B00C1EBAC010F9A34
:1021E0001FFA80FC01EB4101BCFBF2F201321FFA45
:1021F00082FEB4EBC10102B216924FF018000C9AA5
:10220000B0FBF2F000F1D6820FFA81FC89B2724A7B
:1022100082FB08240C9AC3EBA40303EB4303B1FB3A
:10222000F2F402FB1414A2B2B8EBC3030F9200F154
:10223000BB821AB219929BB2013882B20F9C0C98E1
:102240001A9212FB0040BEF1010F80B200F0EC8147
:10225000C41A0F9B18BF01248B4214BF0123002313
:10226000AEEB0302A2EB0402A3B212941FFA82F8AF
:10227000179340F0E1810023189314931B930F9B55
:102280009B00FB870B9B8900B987002B00F0C58161
:10229000B37B052B00F2BD83494A02EB4303B3F83D
:1022A00004395A08A3F14A00D91E033A80B2143BFC
:1022B00092B289B210901393109BB986CBF1290486
:1022C0001C44169BFA860FFA84FBABEB0303292B05
:1022D000A4B207DC039B414A9B6B3C490020984712
:1022E00000230B93139B9B4507DB039B3C4A9B6B93
:1022F00036490020984700230B93109B3B87119B86
:102300007C872C2B40F2EB810023A7F85030A7F8F4
:102310005230A7F85430159BA7F84E30189BA7F8F9
:102320004830B8F1000F00F0BE810123A7F84A3011
:10233000149B179AA7F84C20002B00F091831B9B4D
:10234000A7F842301A9BA7F84430129B002B00F0EC
:102350007C83199B0F9A9C1A0C9B94FBF3F4A7F8AF
:10236000464008F1FF321FFA82F80B9BA7F8408025
:10237000002B5DD0B37A172B00F24281092B00F2BB
:102380002F83C3F1090315227B803A80089A002A23
:1023900000F07E837B8802EB43039B89F07BBB804C
:1023A0001CA9FEF7E5FE60BBDDF80CB0DDF814807B
:1023B000DBF838300B4A0549DDF808A014E000BF0F
:1023C000D8250108ABAAAAAA886C0108DC6A010812
:1023D000D46C0108E86C0108ABAAAA2A1C6D01089C
:1023E0003C6D0108646C01089847562303FB058384
:1023F000BDF88C10BDF88E20A3F87010A3F86E20E5
:10240000CFE5BDF88440BDF88C307B85082CBDF845
:102410008E303B850CD8BDF88630072B08D8BDF828
:1024200088C0BCF1080F03D8BDF88A20082A18D943
:10243000DDF808A0DDF81480DDF80CB0B1E5581E19
:10244000C0B204287FF644AEDDF80CB0AB4ADBF82E
:102450003830AB49DDF808A0DDF81480002098473B
:102460009FE5012101FA03F3501E013B9BB201FAE3
:1024700002F201FA00F03C81013A9C0101385B0252
:1024800040023B829201029B7882A7F80AC0BC817D
:10249000FA819DF8700093F84D302093002800F0E9
:1024A0008280DDF874B0BBF1000F7CD0022B7CD8A9
:1024B000944A134493F81039BB82089B23B307F165
:1024C00014031A460B9300233B8311822EE18D4A9D
:1024D000134493F81439BB82089BABB100233B83B0
:1024E00007F114031A460B93002840F017810B9B49
:1024F000B8847883F8821881D8810B9A002353819D
:1025000000233B840B9A53823089F27A3A86012861
:1025100058D00121831EF985BB85717BB9F80C3039
:10252000F98081F0010179860E99AAF80030AAF8A5
:1025300008100B44F17BA9F80C3001293B8D2FD0FA
:1025400002290CBFB0EE496AB0EE696A01339BB252
:1025500007EE103AB388B8EE477A07EE903AF1EEFC
:10256000006A27EE267AF8EE677A06EE900A67EEA2
:10257000277AF8EE666A069B67EEA67A194667EE3A
:10258000867A002B08BF114667EE8A7A049B069173
:10259000FCEEE77A17EE902A13440493FFF776BB1C
:1025A000B0EE6A6AD2E7072B91D9DDF80CB0564A33
:1025B000DBF838305249DDF808A0DDF8148000203F
:1025C0009847EEE40023FB85BB85A6E7039B4F4AB3
:1025D0009B6B4B49002015900446984701230C93B0
:1025E0000F930B9B1194002B7FF4ACAD0422ACE550
:1025F000DBF83830464A424900209847FFF77BBA5B
:10260000DDF80CB0434ADBF838303D49DDF808A06E
:10261000DDF8148000209847C3E46C23139336231D
:1026200010933D227D2147E68C4200F02183002259
:102630001792184690461292019B1493A0EB0C003F
:102640000C9B90FBF3F00123189383B21B9316E6C7
:10265000B8F1000FBAD01823B3FBF8F308FB03F36B
:10266000C3F118039BB21593002BAFD108F1FF33D0
:102670009B009BB211930123CDF830800F93BBF1E7
:10268000000F3FF455AD0B9B002B40F0FE81337BD8
:10269000002B00F01A82039B1F4A9B6B18490B9872
:1026A0009847042251E5179BA7F84C30149BA7F8D4
:1026B0004A80002B00F0D1811B9BA7F842300023F9
:1026C000A7F84430129B002B00F0C381199B0F9A8E
:1026D0009C1A0C9B94FBF3F4A7F8464045E6119B2B
:1026E0001E2B40F2A581A3F11E020F23A7F8542050
:1026F000A7F85030A7F852300DE600BF646C01080F
:10270000DC6A0108D82501086C6D0108746C0108A9
:10271000706B0108546D01089C6C0108DDF874B001
:1027200001231382BBF1000F00F0B182089BDDF89A
:102730007CC0D3F860E00C90D3E9198400210B46EB
:10274000204608EB1142A2EB0E0262459CB2014406
:1027500003F1010380F28A820F2BF2D10C981C4600
:10276000089BD3F878C0D3F874E00B9B0CEB8C017A
:10277000DC8005220EEB1143B3EB0B0302F10104E5
:10278000614440F1C581A2B2142AF3D1DDF80CB046
:10279000CF4ADBF83830CF49DDF808A0DDF81480E7
:1027A00000209847FFF7FDBB03F1180422B2A3B243
:1027B000199241E501F1180C1FFA8CF10FFA8CFC0B
:1027C00025E5C54B6FEA0800A3FB00306FEA101047
:1027D00000B24FEAE873F9E4BF4B6FEA040BA3FBC6
:1027E0000B3B6FEA1B1B0FFA8BFBE117E2E4BCF11A
:1027F000010F00F04F8107EE902ADFEDB8AAF8EE46
:1028000067CAF7EE089AB2EE02DADBED117A9FEDB5
:10281000B40AB8EE67AA80EE0A0A0CF095FE9AF8A0
:102820005030022B2AEE00AA00F21E81AD4A9AF81F
:102830004E1002EB8300D0ED00DA90ED03CA0029C0
:1028400000F07982DDF804909FEDB09AA64FDFED9D
:10285000A7BA9FEDA7BA002635463AE032F8133002
:1028600007EE903AF8EE677A8AEE277A5544A31C71
:10287000B5F808C0A8889AF84E105A0093B20CFB1D
:102880000333023304EB44045B00A4009BB287EEE5
:102890000B6A1834A4B20136F5B2A94207EE903A99
:1028A00007EE104AF8EE677AB8EE477AC7EE866A06
:1028B000C7EE065A07EE900AF8EE677A66EEA77A38
:1028C00077EEA57A77EEAA7A77EEA97A39EE279A8B
:1028D00021D90AEB05131CA9D87BFEF749FC2D0171
:1028E0007C493A46044618B9DBF838309847A14687
:1028F0000AEB05037F4A9B7BBDF88E40052BADD9C3
:10290000DBF838307C4A7349002098474FF00009C3
:10291000F0EE6B7AA8E7B9F1000F36D0DFED777AE9
:10292000DFED736A9FED767ADAED105A3A9B8AEE04
:10293000275AF1EE0C7A85EE266A6CEEA7CA3CEEB9
:102940002DCACCEE867AB0EE006A37EE8DDA3DEE17
:10295000099A39EE0C9A69EE077A77EE867A37EEA5
:10296000899AC6EE897AF4EEE75AF1EE10FAC3EDD1
:10297000007A7FF7F5A9FDEEE77ADBF83840614A87
:10298000544917EE903A0020A0470023DAED105A80
:102990000193FFF7E5B90023A8F82630A8F82830FE
:1029A0009AF85030012B10D0022B2BD013B3DBF848
:1029B0003830554AFFF7C4B80022A8F82630A8F8E6
:1029C00028209AF85030012BEED1C8F8343001930A
:1029D000FFF7DBB80123A8F82630A8F82830DFE796
:1029E000102B94BFC3F11E03C3F1170300223B80D9
:1029F0007A80CBE44FF00113C8F8343001230193FF
:102A0000FFF7C3B80023C8F8343001230193FFF760
:102A1000BCB8039B384A9B6B2E49002098476C2317
:102A200013933623109300233D227D210B9343E41F
:102A3000119B0F2B35D90F3B0F22A7F852300023E3
:102A4000A7F85020A7F8543065E4129BA7F8463049
:102A500087E4129BA7F8463087E4A7F842802EE669
:102A6000149BA7F842306DE4DBF83830264A194948
:102A7000002098479AF84E30002B86D09FED23CA4D
:102A80004FF00009F0EE4CDADEE60222FFF75DBB04
:102A9000089B83E4F0EE69AAB0EE69DAF0EE69CA49
:102AA000B3E60023119AA7F85020A7F85230A7F8F0
:102AB000543030E49AF84F109AF85020DFED138A22
:102AC00091427FF4DEAAFFF70DBA019B0B938DE5CF
:102AD0008C6D0108DC6A0108ABAAAAAA9A999D41EB
:102AE000F902154FF42E0108646C01080000004340
:102AF00000247449DC2E0108106D010800002043F9
:102B00000AD7233CB86D0108E06B01080000000003
:102B1000052A0AD0511E89B20CFB01FC0EEB1C4C9D
:102B2000ABEB0C04A342C8BF0A461E9B0B990C9347
:102B3000B3F5167F4A80C0F0D980089BD3F86C802B
:102B40000C9BA3EB0801B1F5C87F40F3F78000238D
:102B50004FF4C8741A46023204FB02F2914203F1A8
:102B60000103F7DC0B9CBBF1000F14BF0121002116
:102B70004FF0010C2181A4F80EC000F0A1800C9A46
:102B80004FF4C87000FB1320089A0024D2F870E0BC
:102B9000224602E0162A3FF4F9AD08EB1441091A67
:102BA0001FFA82FC744402F10102F3D4BCF1000F5D
:102BB0000AD00CF1FF3294B20EFB04F208EB124281
:102BC000821A9142C8BFA4460B9AA2F80AC0002BF1
:102BD00000F09880BBF1000F18D0089CB7F81AC01D
:102BE000A26E616E02FB0CFC226E01EB1C4CBCEB76
:102BF000020C3FF5CBAD089AFC8A916F526F01FB36
:102C000004F102EB114101EB0C021044089A00247C
:102C1000D2F858E0D2F85C80224602E0162A3FF44F
:102C2000B5AD0EEB1441091A1FFA82FC444402F1BF
:102C30000102F3D4BCF1000F0ED0BBF1000F0BD199
:102C40000CF1FF3292B208FB02F80EEB1848A0EB31
:102C500008084145C8BF9446A7F820C0002B3FF4A0
:102C600051ACDA1D012393409BB24BE40C9877E5FD
:102C700098420CBF4FF001084FF0000856D10023D6
:102C8000CDE91733129314931B93FFF7F8BA1E9AEA
:102C90000B990C92B2F5167FA1F806B0A1F802B01C
:102CA00039D3089AD2F86C800C9AA2EB0801B1F5DE
:102CB000C87F3FF74CAF0B9AD381A2F808B05B46B0
:102CC0000B9A4FF0000BA2F80AB000283FF418ACA2
:102CD00043B30C9A4FF4C87000FB132096E7019A97
:102CE0000292022711460492FEF7EEBF0B9A0023D0
:102CF0001381D38100283FF400AC089A0C98D2F8D5
:102D00006C8041E7BBF1000F0CD0FA8B0EFB02F296
:102D100008EB124061E70B9BA3F808B0A3F80EB0D4
:102D2000A3F80AB000230C989B466FE70022179285
:102D30001846129280E41FED8B9AEFE5BBF1000379
:102D40000B9918BF012301220B81CA81002316E7CA
:102D50003A9B1A46019B1371A8F8AC31FEF715BFD8
:102D600001230193FEF7D3BE3A9A00231371A8F80A
:102D7000AC31FEF7D7BE00BF08B5114B9FED110A6D
:102D80002DED028B93ED118AB8EE488A80EE080A89
:102D90000CF0DAFB28EE000AB3EE088A20EE080AEF
:102DA000B7EE007AC7EE007ABDEC028B9FED060A03
:102DB00067EE807AB6EE000A27EE800A08BD00BFF3
:102DC000B4000020F902154FC2F38E4DF8B5054648
:102DD0002DED028B0E461F467AB91032012035F8D0
:102DE0001230089A07EE903ABDEC028BF8EE677A43
:102DF000C7ED007A33681360F8BDB0EE408AFFF784
:102E0000BBFF002195F81DE0B5F828C0E86A0A4626
:102E100005EB420301319C8F14FB0CF410FA84F390
:102E200007EE903AF8EEE77A67EE807AB4EEE78A3A
:102E3000F1EE10FA0CD4CAB29645E9D20A4B0B4A0D
:102E40009B6B0B4900209847BDEC028B0020F8BD1E
:102E5000002AF3D0013AD2B2032AEFD8AB185B7E36
:102E600006EB8306B9E700BFB4000020D86D010867
:102E70005068010810B5194C194AA36C93421FD031
:102E8000184A934200D010BD02F5E6320F21936D2F
:102E900023F4003393654FF0904009F089FDD4F896
:102EA000B80009F031FFD4F8B40009F02DFF0E4B43
:102EB0004022C3F88420BFF34F8FBFF36F8F10BD44
:102EC00002F55842BDE81040136E23F480431366A8
:102ED0004FF4C0614FF0904009F06ABDB40000208B
:102EE000003801400044004000E100E000B52DED55
:102EF000048BF5EEC00A83B0F1EE10FA01900BD806
:102F00002A4B2B4A9B6B2B4900209847002003B08B
:102F1000BDEC048B5DF804FB0846B0EE419AF0EE80
:102F2000608AF0EE409AFDF723FBDDED017ADFEDDC
:102F3000220AF8EEE77AB0EE408A67EEA00AB7EE12
:102F4000000A0CF0A9FA0CF0ADFBB0EE407AB0EE3E
:102F5000680AF0EE478A0CF0A5FBB0EE401AB2EE1C
:102F6000040A68EE006A26EEA87A77EE297A37EE30
:102F7000C18A78EE490AC0EE800A0CF0C9FB40F223
:102F8000FF13F6EE007A30EE270ABCEEC00A10EE10
:102F9000102A90B2012838BF0120984228BF184655
:102FA00003B0BDEC048B5DF804FB00BFB40000204F
:102FB000FC6D0108586701080AD7233BABB1013B00
:102FC00070B59BB2161D154600EBC10406EB8306D7
:102FD00094ED000AD4ED010A0DF0CCFFA5EC010A36
:102FE000B54204F10804F3D170BD70472DE9F041FA
:102FF000064682B015461F4693B15C1EA4B24FF63A
:10300000FF7C04F1090301EBC4029BB2013C05EB18
:10301000C303A4B2106852685A6064451860F0D1C6
:1030200007F108004FEA470C80B21FFA8CFC07F149
:10303000120807F1090205EBC0000CF1100C1FFA91
:1030400088F892B22B4605F14804AE4695ED137A06
:10305000D5ED127A93ED156AD3ED146A37EE077A3F
:1030600077EEA77A37EE467A77EEE67A8EED117A2A
:10307000CEED107AACEB020190ED017AD0ED007A42
:1030800089B205EBC10191ED016AD1ED006A37EE1D
:10309000077A77EEA77A37EE467A77EEE67A083344
:1030A00005EBC2019C4202F10102AEF1080E81ED76
:1030B000017AC1ED007A92B2C8D196ED037AD6EDCD
:1030C000047A96ED005AD6ED016A96ED026AB7EEE3
:1030D000004A77EE045A67EE854A77EEA53A27EE66
:1030E000057A84EE235A43462A466946304636EE30
:1030F000646A36EEC77A65EE855A67EEC57A65EE84
:10310000865A67EE877A26EE056A27EE057A77EE0D
:10311000A57A37EE067ACDED017A8DED007AFDF7CE
:1031200067FD41462846FDF7E7FB2A4643466946C8
:103130003046FDF75DFD41462846FDF7DDFBFA0010
:10314000214602B0BDE8F0410EF04EBC2DE9F04F33
:103150002DED088B95B0B0F866409DF8985002951B
:1031600080464079B8F830A00692039301EB8404BE
:1031700000284CD0D8F874300893BAF1000F3AD038
:103180000AF1FF318AB2194608319FEDD86A01EB86
:10319000C20102341A46B4F9003007EE103A34F98D
:1031A000023CB8EEC77A07EE903A67EE066AF8EE90
:1031B000E77A82ED017A77EEA67A083242ED027A5A
:1031C000914204F10404E6D1BAF1090F15D9089A25
:1031D0005346114608F14800FFF708FFD8F874205D
:1031E000B8F83830B8F83A10104615B0BDEC088B76
:1031F000BDE8F04FE2E64FF0000ABD49BD4A8C6BD6
:10320000BD490A20009053460020A047E6E70AF196
:1032100001064FEA860C01220AAB03EB820301325E
:10322000086843F8040C0B2A6144F5D1DFEDB38A3A
:10323000DFEDB39A9FEDB39A9FEDAC8ADDF818905D
:1032400004960AAD14AFA34609E0002E40F0E880D2
:1032500089ED008A0435AF4209F104091BD0B5F9A4
:103260000040B5F90260002CEFD007EE904AB8EEAE
:10327000E70A07EE906AF8EEE77A87EE800A0DF02B
:103280009BFF002CC0F2D2800435AF4209F1040943
:1032900009ED010AE3D1029B049E5C4683B198EDDF
:1032A000177ADFED997A069A27EE277A02F128013C
:1032B000D2ED007A77EE277AE2EC017A9142F7D1EB
:1032C000039B002B40F0DC80D8F87430D8F8C02085
:1032D000D8F8B49008930792BAF1000F8BD00AF196
:1032E000010B1FFA8BF128329FED808ACDF82480E4
:1032F00004914FF0000B0592F2EE048ACDF808A07D
:103300009846DDE906A79FED799A0BF101023B464D
:103310005E461FFA82FB4F46F0EE499A5D4699469B
:1033200068E09AED000AD9ED007A77EEC07A27EED0
:10333000880A78EE670A30EE080AF4EE400AF1EEE9
:1033400010FA80F1C7800DF031FE07EB8601F0EE38
:1033500060AAB1F9023007EE103AB8EEC77A37F931
:10336000263067EE087A77EE081A0BEE103AF4EE84
:10337000671AF1EE10FAB8EECBBAB0EE40AA80F1BF
:10338000C78037EE8BBA71EE881A2BEE0A7A21EEDF
:10339000AA6A6BEE2A7A61EE8A6A37EE466A77EE9F
:1033A000A66AB4EE666AF1EE10FA80F1868034F90E
:1033B000253004EB850107EE103AB1F9023007EE33
:1033C000903AB8EEC77AF8EEE77A37EE467A77EEBB
:1033D000E67A79EE879A39EE279A049B1D44029B80
:1033E0001E44059B09F104094B45ADB2B6B20AF182
:1033F000040A20D0039B002B93D034F9253004EB32
:10340000850107EE103AB1F9023007EE903AB8EEB6
:10341000C77AF8EEE77A79EE879A39EE279ADCE7F1
:10342000CCBF89ED009AC9ED009A13E7002E22DB8C
:1034300030EE280A28E789EE280AB94689EEA89ACC
:1034400060EE087A70EE080AF4EE607AF1EE10FA97
:103450006DD6029B39EE279A70EE880A5B4588ED9F
:10346000009AC8ED010A08F108087FF44AAFDDF8B8
:1034700024809A46A8E630EE680A89ED000AE9E65B
:1034800000255246314602E0B8F83020511C11FBAD
:1034900005F189B2481BD8F8B430013180B289B245
:1034A000920004EB8101013503EB80000EF08EFAEF
:1034B0000A2DE9D1B8F830A006E7B0EE4B1AF0EECD
:1034C0006A0AB0EE4A0A0AF081FEB0EE406AF0EEF7
:1034D000606A6CE7B0EE670AFFEE001AB0EE481AB9
:1034E000DFED020A0AF072FE2DE700BF00000000C7
:1034F000B4000020146E0108486E0108DB0F49403B
:10350000DB0FC9BFDB0FC93FCDCC4C3D0000000035
:10351000F7EE001A5FED030AB0EE470AB0EE481A64
:103520000AF054FEF0EE407AF0EE601A29E75FED03
:10353000090AF7EE001AB0EE481A0AF047FEF0EE5C
:10354000407A86E7F8B595692B78B5F802E014461D
:1035500002EB43030F46B3F844606369014672000F
:1035600003EB4E000EF040FAE26D698813780E44CA
:103570006E8003B93B791370F8BD00BF08B52DED1F
:10358000028B07EE901AFCF7E3FF9FED2D7AF8EE21
:10359000677A30EE000A67EE877AB0EE008A80EE36
:1035A000270A0BF033FF30EE088AB6EE000A28EE49
:1035B000000A0BF02BFFBCEEC07AFCEEC87A17EEC7
:1035C000103AB7EE006A70EE465A98B217EE903A8B
:1035D000C6EE256A99B280B3002213469FED197A90
:1035E00007EE903AF8EE677A013267EEA67A93B268
:1035F00067EEA77A834237EE277AF1D338EE408A16
:10360000F7EE007A38EE678A091A0029C7EE886A51
:103610000EDD00235A1C07EE903AF8EE677A93B25B
:1036200067EEA67A8B4267EEA77A37EE277AF1DB50
:10363000BDEC028BB0EE470A08BD9FED027ADDE7D4
:103640000AD7233B000000002DE9F04F2DED068B3B
:103650000446027D90ED018A8BB00D4681890120E0
:10366000FDF72EFAB4EEC08AF1EE10FA24D594F8E4
:1036700028300093A3BB2046FDF758FAA67B81466D
:1036800018BBB4F80CA094F81480D4ED028A074655
:10369000424651463046FDF713FAB4EEE80AF1EE21
:1036A00010FA76D4009B0BB14FF0010948460BB0DD
:1036B000BDEC068BBDE8F08F002320460093FDF79C
:1036C00035FAA67B81460028DBD0731E042B00F25E
:1036D0009382DFE813F052024B024402400252018F
:1036E0000120FDF723F8064601460120FFF746FFBB
:1036F000012031462E80A870F0EE408AFDF73EFA98
:1037000007462046FDF712FA16FB07F81FFA88F85D
:1037100018B14FEA48081FFA88F8227DA1890120D4
:10372000FDF7CEF9F0EE400A94ED020A0BF0D2FE5E
:10373000DFEDA16A9FEDA11AC0EE267A0223AB75D8
:1037400088EE267AFCEEE77ABCEEC77A17EE903A5E
:1037500017EE102A9BB2B3FBF6F313FB06F39BB2F2
:1037600090B2B0FBF6F0C71B984417FB06F6A5F81D
:103770000680AE8018B2A17D94ED040AF0EE680ACE
:10378000FFF7B4FB95F8C030E881013385F8C0300D
:1037900071E7F0EE400A94ED010A0BF07DFEB4EE05
:1037A000E80AF1EE10FA00F3D280C7F1050B5FFAD8
:1037B0008BFBBBF1010F40F2CA8007EE90BAF8EE26
:1037C000677AB7EE007A77EEC77A78EEC06A0022A1
:1037D00086EEA77A13460BF1FF310AA800EB8202AE
:1037E00007EE903AF8EE677A013367EE877A9BB27C
:1037F00077EE807A8B4242ED057A1A46EDD30AAB1A
:1038000003EB8B0343ED068A51463046FCF78EFFEF
:10381000804601463046FFF7B1FE731EDBB2042B33
:1038200097BF674A9FED679A02EB830393ED009A77
:1038300007EB470305EBC303C7F1040283F862609B
:10384000A3F8608083F876B012F0FF0F4FEA4703C9
:10385000F0EE408A019300F09F814FF0180AC7F103
:1038600003060AFB075AF6B206AB9FED538A0AF12C
:10387000640A03EB86060DF1140BDBED006A94ED90
:10388000040A9BED017AC7EE087A0BF1040B86EE71
:10389000887AFCEEE77ABCEEC77A17EE903A98B2D7
:1038A00017EE103AB0FBF8F010FB08F000B29BB234
:1038B000B3FBF8F313FB08F3AAF800302AF8020F61
:1038C000B0EE491AA17DF0EE680AFFF70FFBB34591
:1038D000AAF80800D1D1019BA67BD81905EBC00C32
:1038E0009CF87630022B40F257818000022109E0DB
:1038F00001319CF8763089B2994280F04D81022BDB
:1039000040F24A81421805EB420E0A46BEF964A015
:10391000BEF962E0F245EBD103F1FF3E8E4588BF70
:103920000B460FD9024400EB030A05EB42020133B8
:103930009BB205EB4A0AB2F96620AAF864209E45BC
:103940001A46EFD85FFA8EF38CF87630D4E71E4B28
:103950001E4A9B6B1E4900209847002295F8C130F3
:10396000013385F8C130009B002B7FF49DAEB9F187
:10397000000F7FF499AE914698E640F2013205239C
:103980008DF816300223ADF814200326019305F1BB
:10399000600300270395B4F80CA094F81480D4EDCC
:1039A000028ADFED059A9FED07AA0293BB464FF00E
:1039B00001093546ACE000BF0AD7233BCDCC3441EA
:1039C0000C2F010800000000B4000020606E010808
:1039D00058670108F4EEE80AF1EE10FA40F1AD8004
:1039E00094F8286016B9002F00F0B280B0EE490AB2
:1039F0000BF052FDF0EE40AAF0EE480AB0EE680A75
:103A00000BF068FD51464846F0EE408AFCF78EFE0A
:103A1000014605464846FFF7B1FD09F1FF32D2B233
:103A2000042A9EBF7C4B03EB820292ED001A5146A2
:103A300042464FF0010088BFB0EE4A1AF0EE400A4D
:103A4000FDF73EF8B4EEC09AF1EE10FA00D516B9C3
:103A50003E1E18BF0126B4EEE88AF1EE10FA2946A0
:103A60004346324648464CBF4FF0010A4FF0000A29
:103A7000FDF7A2F85246844643464846E046FDF725
:103A80009BF888EEA97A029A07EB470302EBC30A78
:103A900022F8335002238AF816308AF80290013750
:103AA000FFB2CAEEA97ABCEEC77AFCEEE77A17EE4F
:103AB000103A17EE902A9BB2B3FBF5F313FB05F314
:103AC0009BB292B2B2FBF5F212FB05F51844A5EBDE
:103AD0000808AAF80480AAF80600A17D94ED040A5B
:103AE00018B2FFF703FAAAF80E0094F81480B4F89D
:103AF0000CA0D4ED028A019B0BF1010B1FFA8BFB8A
:103B00009B4571D20AAB5B4413F8149C13F8135C09
:103B1000424651464846FCF7D3FF28464246F0EE5F
:103B2000400AFCF7CDFF94ED019AB4EEC90AF1EE1C
:103B300010FAB0EE408A3FF74DAF94F82860002E9F
:103B4000D9D1002FD7D1B4EEC98AF1EE10FAD2DD67
:103B5000F0EE49AA50E740F20132042310E740F2A8
:103B60000133ADF814300123019310E740F2012333
:103B7000ADF814300123019309E74FF00009B4F8C0
:103B80000CA094F81480D4ED028A4F4695F8C13009
:103B90003B4485F8C1307BE52046FCF7C7FF237D19
:103BA0000293024641463046FDF706F8029B044662
:103BB00000223046FDF700F8019B3B4405EBC30BA8
:103BC0000C239BF87610BBF86420013913FB071710
:103BD000141B05EB4707ABF86440B7F86430184492
:103BE000A7F864000122B9E6B7F10009039DA67B9E
:103BF00018BF4FF00109C9E7084B094A9B6B0949F7
:103C0000002081464F469847A67BB4F80CA094F854
:103C10001480D4ED028AB9E70C2F0108B40000200B
:103C2000646C01085867010810B52DED028B82B055
:103C30000191FCF78DFCDFED327AB4EEE70AF1EE8C
:103C400010FA04DC002002B0BDEC028B10BDDDEDEB
:103C5000017A9FED2C7ADFED2C6AF8EE677AB6EEEA
:103C6000008A67EE877A144687EE807A27EE080A84
:103C7000F0EEC07AF4EEE67AF1EE10FA36DCDFED23
:103C8000237A30EE000A20EE270A0BF077FB20EEB5
:103C9000007AF7EE007A37EEC77ADFED1D5AB1EE03
:103CA000C75A37EEC06AC5EE256AF8EE005A36EEFE
:103CB000A77A26EE088A77EEE67A20EE250AC7EE86
:103CC000876AC6EE075AC8EE077A80EE076A0120B7
:103CD000C4ED007AC4ED015AC4ED027A84ED036AA2
:103CE000C4ED046A02B0BDEC028B10BDF7EE006AB1
:103CF000B0EE006AF0EE667AF0EE465AE7E700BFF3
:103D0000ACC527370AD7233BDEFFFF3EDB0F494018
:103D1000F304B53F2DE9F04F2DED028B044689B039
:103D200008468A461746994607F0B4FE00218346A6
:103D30005046CDF800B007F0D9F983456BD93B1D4B
:103D40009FED398A0193064604F55C74314650466E
:103D500007F0B2FD31460546504607F0F1FD014639
:103D60002846FCF70BFF03AA80462846FFF75CFFB6
:103D7000002851D0A4F55C723D463B46B2F90210D2
:103D800007EE101A32F9041BB8EEC77A07EE901A44
:103D900067EE086AF8EEE77AA24277EEA67A83ED3C
:103DA000017AC3ED007A03F10803E7D1DC233A4638
:103DB000394603A8FFF71AF9C8F16E035B001FFA32
:103DC00083FB41465B463A463846FFF7F7F8BBF1BE
:103DD000000F26D0019B9FED147A0BF1FF3292B2B7
:103DE00003EB8202F5EC017A67EEA77AAA4237EE7E
:103DF000277AF7D107EE90BAF8EE677A009BC7EE04
:103E0000276A0136F6B2B34204F55C74F1EEE67A45
:103E1000E9EC017A9AD8012009B0BDEC028BBDE82B
:103E2000F08F9FED017AE5E70000000070B50D46C8
:103E30008CB001210023044607AA0846CDE90733C8
:103E4000CDE909330B93FFF7EFFE9FED2B6A204678
:103E500004F1C8022B462C46B0F9021007EE101AE6
:103E600030F9041BB8EEC77A07EE901A67EE066ABF
:103E7000F8EEE77A904277EEA67A83ED017AC3ED09
:103E8000007A03F10803E7D107A832232A4629461E
:103E9000FFF7ACF82A46002132232846FFF78EF8B8
:103EA00000219FED157A0A46F4EC017AF4EEC77A08
:103EB000F1EE10FA8BB201F10101C4BFB0EE677AE6
:103EC0001A463229F0D1ADF8122005AA0123039237
:103ED00006AE6FF01D020092CDE901369FED070A94
:103EE000002428460DF112020694FCF727FD9DEDF3
:103EF000060A0CB070BD00BF000000000AD7233BCB
:103F00002DE9F04FBDB0CDE9002306460D4607F080
:103F100009FE044688B10435012E284611D1FCF76C
:103F200085FBC222074600210BA80DF014FC002FD0
:103F300040F0A080204607F0DDFD00203DB0BDE848
:103F4000F08FFCF773FB0026ADF8EC600028F1D091
:103F500028460BA9FFF778FB0028EBD09DF8EC3042
:103F6000002BE7D09DF84230BDF930A0BDF93250AA
:103F7000012BDFD9AA45DDDA0A212046BDF83A70C7
:103F8000BDF82C909DF82E8007F0F8FB022120460A
:103F900007F09AFD32463146204607F059FD324679
:103FA0000121204607F032FD32460121204607F06C
:103FB000E9FC32460421204607F0A0FC324639468F
:103FC000204607F057FC32460F21204607F00EFC32
:103FD00032460121204607F0E7FB32460121204608
:103FE00007F0A6F832460221204607F05DF8A5EB5F
:103FF0000A031A0499B29DD4B1FBF9F60122514685
:10400000204607F025FD31460122204607F0FEFC40
:1040100049460122204607F0B5FC012241462046D0
:1040200007F06CFC39460122204607F023FC0122F0
:104030000521204607F0DAFB01221146204607F051
:10404000B3FB41462846FCF7AFFA01220146204661
:1040500007F02AF84699204607F0A4F805460028FC
:104060003FF468AF009B1C60019B01201D603DB0C8
:10407000BDE8F08F28460BA9FFF7E6FA00283FF4C9
:1040800059AF9DF8ED30002B3FF454AF002331467B
:1040900020461D46039307F071FB9DF8ED709DF8D7
:1040A0000C309F4278D903EB43063CAB03EBC60CC4
:1040B000ACF1640CBCE80F00F6000DF1140EAEE894
:1040C0000F0060360BAB9A199CE80300937D92F8C1
:1040D00002A00DF12C0C8EE803003CF8069023B9E9
:1040E0002946204607F0F0FC24E7013B13F0FF0FC0
:1040F0005FFA83FB4CD0032DF2D80BF1FF3B1FFA84
:104100008BFB0DF11A0303EB4B03029306AE01E0A8
:10411000042DE5D0B6F900B036F9027FA7EB0B030A
:1041200099B21B042A462046DAD4B1FBF9F831894A
:1041300007F0A0FB2A465946204607F089FC2A468C
:104140004146204607F062FC2A464946204607F0D1
:1041500019FC2A465146204607F0D0FB2A460A2180
:10416000204607F043FB2A460121204607F01CFBAE
:1041700051463846FCF718FA2A460146204606F012
:1041800093FF029B0135B342EDB2C1D19DF8ED70B2
:10419000039B0133039382E72946204607F094FCF2
:1041A00058E700BF2DE9F04F2DED028B89B0CDE926
:1041B00006120546059307F0B5FC0446002800F0FA
:1041C000B280012107F0DAFA284607F063FC0021EB
:1041D000034628461E46049306F088FF311A82469D
:1041E000C9B2204607F070FC564540F2908005EBBE
:1041F0000A134FF0000B00933FE07B4E7B4AB36BFA
:104200007B49002098473A460121204607F0BAFB37
:104210003A460021204607F01BFC3A46DC212046A6
:1042200007F0F4FB18EE101A3A46204607F022FB7E
:104230003A464146204607F0D9FA3A4649462046D2
:1042400007F0B2FA01993A46204606F071FF02994A
:104250003A46204607F052FB03993A46204606F0BC
:1042600023FF009B10330AF1010A0093049B5FFABD
:104270008AFA53450BF1010B49D05146284607F005
:10428000D7FA5FFA8BF708EE100A002D6DD02B6875
:10429000584A934254D0544E544AB36B5449002068
:1042A00098472B68534A934200F086804FF00008ED
:1042B000B36B4E4A4E49002098475146284606F0B7
:1042C00015FF514603462846019307F0F5FA4FF0D3
:1042D000000902902B68474A934229D0424EB36BA3
:1042E000424A434900209847002303932368414AE8
:1042F000934282D1BBF1030F03D906F0C5FE00281B
:1043000081D004EB0B134FF00002DA737BE70599C1
:10431000204606F047FF0546002860D0069B1C603B
:10432000079B01201D6009B0BDEC028BBDE8F08F3A
:10433000BAF1030F32D906F0A7FE78BB0390D5E798
:10434000BAF1030F2ED8009B93F80E80009B93F8D0
:1043500010905146284606F0C9FE514603462846AD
:10436000019307F0A9FA0290B4E71F4E1F4AB36BFE
:104370001F4928469847B36B1C4A1D492846984751
:104380005146284606F0B2FE5146034628460193A0
:1043900007F092FAA8460290A946A0E7009B9B7CF2
:1043A0000393A3E706F070FE2B6880B9114A93428D
:1043B000804606D00C4E7BE7BAF1030F4FF00008A1
:1043C000C4D906F061FE81460028BFD1C1E7009A3A
:1043D00092F80E80074A9342F3D0034E68E72046D6
:1043E00007F088FB28469EE7B4000020846E010891
:1043F0009C6E01080FB037132DE9F04F2DED048BA3
:1044000090F838308DB007900393002B00F0E780D0
:104410000798828F0469C38FB0F84C5034F912109A
:10442000099502465B00408F08900193002D00F033
:10443000D6801046526C836CB0F84E50B0F840B045
:10444000DFED708ADFF8C8810A95D3180293002245
:104450000901DB4305920B9104939146B6EE009A55
:10446000029A6949134681FB0331D317C3EBA101BB
:1044700001EB4101B2EBC101029A48BF1831002A99
:1044800009B2C0F2B580604880FB0202C3EBA20211
:1044900012B20B9B120482FB0356002D76F100032F
:1044A00004DA4FF6FF73ED1846F10006089B194435
:1044B0002A0C34F9111042EA0642A2EB011207EE6F
:1044C000902AF8EEE79A69EEA89AB0EE690A0AF027
:1044D00055FFB0EE408AB0EE690A0BF05BF8BBF115
:1044E000000F6BD0079A136DB2F842A093F800E06A
:1044F00006930020054647F6FF7709E0DDF80CE05B
:10450000E25201351FFA85FCE3455044718052D9CF
:10451000019A09EB50039BB202EB8303E618E25EBB
:1045200007EE902AB6F9022006EE902AF8EEE77A16
:10453000F8EEE66A27EE887A26EE806A67EE807AE1
:1045400066EE886A37EE467A77EEA67AB5EEC07ADE
:10455000F1EE10FAF5EEC07A4CBF37EE497A37EE3D
:10456000097AF1EE10FA4CBF77EEC97A77EE897AC4
:10457000BDEEC77AFDEEE77A17EE10CA17EE901A75
:1045800017EE102AC445B8BF42464145B8BF414660
:10459000BA42A8BF3A46B942A8BF3946BEF1000F99
:1045A000AED19445AAD117EE90CABCEB010E18BF4C
:1045B0004FF0010EA4E7069B83F800E0059B029AEA
:1045C00001331FFA83F911460593049A0A9B194493
:1045D000D31A0493099B02914B453FF641AF079BC9
:1045E000186843680DB0BDEC048BBDE8F04F184768
:1045F000049B1A46054BA3FB02326FEA121212B259
:1046000047E700BF00008037ABAAAA2AABAAAAAA34
:104610000080FFFF154BDB68C3F3022310B4C3F126
:1046200007041A1D042C28BF0424062A4FF0FF3269
:1046300002FA04F28CBF033B002321EA02019940F5
:10464000431C0AD000F1604000F561400901C9B285
:1046500080F800135DF8044B7047044B0901C9B2A0
:1046600083F823105DF8044B704700BF00ED00E0B5
:10467000F0B40568294F064601E0581C06D1EC69E4
:1046800031EA0400F9D10020F0BC70473868801A84
:10469000834227D333B328684407F0D5E86900057F
:1046A000EDD54FF400632B6255E8003F23F4D0733F
:1046B00045E80032002AF7D1326802F1080353E8D6
:1046C000003F23F0010302F1080040E80031002917
:1046D000F3D12023B36786F87410F3670320C6F87C
:1046E0008030D1E755E8003F23F4D07345E800322D
:1046F000002AF7D1326802F1080353E8003F23F0A3
:10470000010302F1080040E800310029F3D1202321
:10471000B36786F874100320F367B5E7B400002090
:10472000224A03460068904230B43BD8204A2149CF
:10473000214C1C640244A1FB0212120992005A642B
:10474000022283F8252001689D68D3E9052421F41D
:10475000FF4121F070012A430A43224342F08002C4
:10476000B5F5804F026014D0196C134A914208BF0E
:1047700012495A6C18BF124902F01C000F240A6833
:10478000844022EA04020A605A680C68824022438C
:104790000A6000200122D86383F8240083F82520D2
:1047A00030BC7047074A0349074CC2E70704024080
:1047B000F8FFFDBFCDCCCCCC00000240A8000240E9
:1047C000A8040240F8FBFDBF000402402DE9F047B9
:1047D000774CD4F8F0C088B0BCF1000F63D1D4F8A6
:1047E000D030B3F5827F01D0C4F8E8C094F8293105
:1047F000D4F8CC10002203F0FF05C4F8F420002BFD
:104800005ED0022384F829310B68D4F8D82023F035
:104810004003B2F5E06F0B6049D800F0BE804FF462
:1048200080570020C4F8F400D4E93436D4F8DC50C2
:10483000D4F8E4E006F4044603F48273334305F04D
:1048400002052B43D4F8E05002F4706805F001052E
:10485000D4F800212B43D4E93A6502F0080242EA79
:1048600008024FEA1E480EF4007E08F0040843EAEE
:104870000E0306F0380642EA0802334305F08005CD
:104880000CF0100C42EA0C0C2B4303434CEA0707D4
:10489000002001220B604F60C4F82C0184F829210C
:1048A00008B0BDE8F0870023C4E937339EE7B2F5CE
:1048B000706F79D1D4F8F430002703F40050B3E7D7
:1048C0003C4B84F828519942CDE90355CDE9055573
:1048D000079596D103F560434FF0E00C1A6E364E03
:1048E00042F480521A661A6E02F480520292029AC0
:1048F000DA6C42F00102DA64DB6C059503F0010327
:1049000001930322052303A902274FF09040CDE92C
:1049100003C7CDE90623DDF804E008F0D9F8274BFA
:10492000C4F838514FF001094FF0800A30464FF477
:1049300080784FF48067C4E94C39C4E95355C4E921
:1049400050A8C4F83C51C4F84871FFF7E9FE03468B
:1049500060BB06F148051A49C4F824611022643E80
:104960002846C4E9613AC4E96473C4F87C91C4F888
:104970008C81C4F89831C4F85861C4F87811C4F82F
:104980008021FFF7CDFE88B9D4F8CC10D4F8F0C060
:10499000C4F82051C4F8A06133E7D4F8F4304FF4E0
:1049A000805703F400503FE700273AE708F034FA55
:1049B000B400002000300140E40100201C0002404F
:1049C0003000024070B54D4C94F801329EB0002B7F
:1049D0004BD0D4F8C031D4F8C421D4F8CC01242170
:1049E00084F80112196822F0706221F00101196047
:1049F0001A619A68012822F400429A60D4F8C8210A
:104A00002FD042F4044202289A6004BF4FF400629F
:104A10005A605968D4F8D851D4E9742641F000712D
:104A200041F4004159603243D868D4F8DC1142EABD
:104A30000522D4F8E05120F400402943D860DA6020
:104A400019601A68002042F0010220211A60C4F89F
:104A5000040284F80112C4F8F00184F802021EB0C6
:104A600070BD42F400429A60D3E703F0FF055C2278
:104A700007A82946CDE90255CDE9045584F800522E
:104A800006950CF068FED4F8C0311D4A9342A2D1BD
:104A9000802307A81495079307F096FA054650BBA4
:104AA000184E1948F36C43F00203F364F36C03F0FF
:104AB000020301934FF44063019A029312220123EF
:104AC000CDE903234FF0030C02A90423CDE905C36C
:104AD00007F0FEFFB36D43F48003B365B36D03F4D9
:104AE0008003009329462120009BFFF793FD21209E
:104AF00008F05EF96DE708F08FF900BFB400002000
:104B00000058004000100240000400482DE9F04128
:104B1000654C94F82430012B00F0C28061680122BA
:104B2000022384F8242084F825308E680278056AF0
:104B300016F0400616BFC678C670B605092A09D910
:104B400000230A3AD2B2092A03F10103F9D842EA52
:104B50000312D2B24378092B4FEA024209D9002747
:104B60000A3BDBB2092B07F10107F9D843EA071327
:104B7000DBB290F802E0BEF1090F4FEA03280DD92D
:104B80000027AEF10A0E5FFA8EFEBEF1090F07F1A3
:104B90000107F6D84EEA071E5FFA8EFE90F824C091
:104BA000BCF1090F0DD90027ACF10A0C5FFA8CFC9F
:104BB000BCF1090F07F10107F6D84CEA071C5FFAB0
:104BC0008CFC436947681D432E43324348EA020385
:104BD000826AC669CA2553204D6243EA0E0E4862B6
:104BE000B2F5807F4EEA0C638A6846EA070639D040
:104BF00022F400728A60CA68D2B262F42072CA607B
:104C0000256804E02068401BB0F57A7F20D8CA6888
:104C100012F00202F6D00B628E648B6843F40073CC
:104C20008B608B6843F400538B60204B1A6842F40E
:104C300080221A609A68FF2642F480220125002013
:104C40009A604E6284F8240084F82550BDE8F08113
:104C50000323FF2084F824204862184684F8253076
:104C6000BDE8F08122F480728A60CA68D2B262F430
:104C7000C072CA60256804E02068401BB0F57A7FE6
:104C8000E6D8CA6812F00102F6D0CB614E648B6898
:104C900043F480738B608B6843F480538B60C4E76C
:104CA0000220BDE8F08100BFB400002000040140F4
:104CB00008B5114BDA6822F08002DA609A68920631
:104CC00003D4FBF7A9FA88B908BD9A6822F020023C
:104CD0009A60FBF7A1FA18B1084B032083F825006E
:104CE000054A936843F02003936008BD034B0320FB
:104CF00083F8250008BD00BF00280040B400002054
:104D00000E494A68D06810F0400001D0002070477A
:104D10004FF0FF3330B4D3600C68032509E003285B
:104D20000AD00B681B1BB3F57A7F84BF81F825502E
:104D30000320D3685B06F2D530BC7047B400002076
:104D40002DE9F04F254C85B00026CDE90266B4F878
:104D5000288001928946002B3AD04FEA58088346B2
:104D6000A8F104089A460D461F4626E0019B48F22A
:104D700000019A192980631E4FF00001E9806A80C2
:104D8000AB806200002105F108000CF0E4FC29462C
:104D900001235846221DFCF7AFFA02AB03CB264491
:104DA0006960286009EB460559F81600696802AB8E
:104DB000564503C3A7EB04070AD2B845444628BFAB
:104DC0003C46B845D2D200E0013CE307FCD4CDE735
:104DD00009F1080005B0BDE8F08F00BFB400002065
:104DE00038B50546FCF774FA044618B12A46002186
:104DF0000CF0B1FC204638BD1C4991F82430012B41
:104E000032D030B44C68532301200225CA2281F8E5
:104E1000255081F8240062626362A36823F48073E2
:104E2000A360A36823F48053A360086804E00A68C1
:104E3000121AB2F57A7F0DD8E36813F00103F6D0A9
:104E40000020FF220123626281F8240081F82530CE
:104E500030BC7047FF200322606281F8243081F863
:104E60002520104630BC704702207047B400002057
:104E7000022838B51CD004280AD0514BD3F824227C
:104E8000042142F0020283F81412C3F8242238BD30
:104E90004B4C94F81432013B012B35D9D4F8243211
:104EA000042243F00103C4F8243284F8142238BDEC
:104EB000434C94F81432002BF0D194F8182294F853
:104EC0001912D4F81C3241EA0221002B57D0B4F851
:104ED0002002002853D0013880B200EB400203F1D9
:104EE0000C0000EB820001E0834248D01A888A421D
:104EF00003F10C03F8D1334B198008F01DFE98B371
:104F0000012384F8143238BD2E4DD4F81C32298880
:104F100073B3B4F820225AB3013A90B200EB4002C6
:104F200003F10C0000EB820002E00C3398421FD02A
:104F30001A888A42F9D19B68002B3AD0D4F818021B
:104F400000BA984730BBD4F82432298843F00803CC
:104F5000C4F824324FF6FF73994201D00131298001
:104F6000042384F8143238BD032384F8143238BD86
:104F7000D4F8243243F00403C4F82432EAE7D4F826
:104F80002432104A43F004034FF6FF71C4F8243270
:104F90001180B2E72B884FF6FF72934201D00133A4
:104FA0002B8008F0C9FD0028DAD0022384F81432DF
:104FB00038BDD4F8243243F01003C4F82432C9E7D2
:104FC000B400002000000020036890F841201A6817
:104FD00022F0FC021A6090F84020012A50D070B5EF
:104FE00090F841200446292A4FF001000E4684F82B
:104FF000400024D02A2284F84120202284F8422034
:10500000002262645A681F481F4D22F400425A6011
:1050100066854FF08072618DE2629A696063D203A7
:1050200058BF08224FF000002185656258BFDA6141
:1050300084F840001A6842F0FC021A6070BD94F8CF
:1050400041001A6800F0280028280CBF6FF04200C9
:105050006FF0F20002401A601A685104CAD51A684B
:10506000A06B22F480421A600028C3D0074B8363F0
:1050700007F024FE10B1A06B836B98472368B9E753
:105080000220704731D80008CC0200206DCE000805
:10509000F0B4314B314E5B68056882B000248DF866
:1050A00003403468376803EB8303C4F16404C3EB43
:1050B000C30322441B0D02FB03F30193AB681942A7
:1050C0000AD12CE0019C019B013B0193AB68002CB1
:1050D00008BF0022194222D0B1F5C06F05D12B7B49
:1050E000DBB28DF803309DF803303368DB1B9A4246
:1050F000E8D86B68426823F0E003B2F5827F6B600A
:105100001AD0836AB3F5005F0DD00122002380F826
:105110005D2080F85C30032002B0F0BC70470020B6
:1051200002B0F0BC70472B6823F400532B602B684F
:1051300043F400532B60E8E78368B3F5004F02D0D7
:10514000B3F5806FDDD12B6823F040032B60836AB9
:10515000B3F5005FD9D1E6E700000020B4000020DD
:1051600070B4294D294B2A685B6804682E68C2F127
:105170006402114483B0C3F3CB3301FB03F3019307
:10518000A3681A060DD52B689B1B8B420DD2019A82
:10519000019B013B0193A368002A08BF00211B0665
:1051A000F1D4002003B070BC70476368426823F0FC
:1051B000E003B2F5827F636016D0836AB3F5005FC7
:1051C00009D00122002380F85D2080F85C300320A4
:1051D00003B070BC7047236823F400532360236836
:1051E00043F400532360ECE78368B3F5004F02D02B
:1051F000B3F5806FE1D1236823F040032360836A15
:10520000B3F5005FDDD1E6E7B40000200000002028
:10521000024B034A9B6B034900201847B40000204F
:10522000A46E0108C0680108F0B5064683B021B13C
:10523000344B0A689A420D467AD0334CFFF7E8FFA8
:10524000A36B324A324900209847002E00F080823A
:10525000304B32689A4209D0FBF74EFDA36B2E4AC1
:105260002B49002003B0BDE8F0401847F06C58B15E
:1052700094F84030012B05D90220A36B274A24491A
:105280009847F06C06F066FC306D58B194F84030E9
:10529000012B05D90220A36B214A1D499847306D87
:1052A00006F058FC706D58B194F84030012B05D9C8
:1052B0000220A36B1B4A16499847706D06F04AFC02
:1052C000B06D58B194F84030012B05D90220A36B82
:1052D000154A0F499847B06D06F03CFCF06D002868
:1052E00000F0368294F84030012B05D90220A36BE0
:1052F0000E4A07499847F06D03B0BDE8F04006F04C
:1053000029BC00BF50D1C0ACB4000020047101081A
:10531000C068010830D1C0ACEC700108847001088D
:10532000A0700108B8700108D0700108E070010891
:10533000CB4C94F84030012B87D9A36BC94ACA499A
:105340000220984794F84030012B7FF67EAF6B68BF
:10535000A76BC64AC4490220B84794F84030012BD5
:105360007FF673AFD5ED027A9FEDC17A9FEDC06AEB
:10537000DFEDC06AA76BBC49F5EEC07AF1EE10FA1A
:1053800048BFF1EE677A77EE877A4CBFBA4BBB4BDA
:10539000BCEEE77AF5EEC07AF1EE10FA17EE102ABD
:1053A0004CBFB1EE677AB0EE677A37EE067A0092BC
:1053B000BCEEC77AB24AB8EE477A022077EEC77AD7
:1053C00067EEA67AFCEEE77ACDED017AB84794F85D
:1053D0004030012B7FF639AFD5ED037A9FEDA47AEB
:1053E0009FEDA36ADFEDA36AA76B9F49F5EEC07A34
:1053F000F1EE10FA48BFF1EE677A77EE877A4CBF8C
:105400009D4B9E4BBCEEE77AF5EEC07AF1EE10FABA
:1054100017EE102A4CBFB1EE677AB0EE677A37EE1E
:10542000067A0092BCEEC77A964AB8EE477A022016
:1054300077EEC77A67EEA67AFCEEE77ACDED017AD1
:10544000B84794F84030012B7FF6FFAE2B8AA76B4C
:105450008D4A85490220B84794F84030012B7FF6E9
:10546000F4AEAB7CA76B8049013BDBB2042B96BF4B
:10547000864A874B02EB83034FF0020098BFD3F8B4
:105480004839844AB84794F84030012B7FF6DDAEA6
:1054900095F82CC08048814BA76B814A7249BCF1BA
:1054A000000F08BF03460220B84794F84030012B94
:1054B0007FF6CBAED5ED057A9FED6D7A9FED6C6AE8
:1054C000DFED6C6AA76B6849F5EEC07AF1EE10FA71
:1054D00048BFF1EE677A77EE877A4CBF664B674B31
:1054E000BCEEE77AF5EEC07AF1EE10FA17EE102A6C
:1054F0004CBFB1EE677AB0EE677A37EE067A00926B
:10550000BCEEC77A674AB8EE477A022077EEC77AD0
:1055100067EEA67AFCEEE77ACDED017AB84794F80B
:105520004030012B7FF691AE2B7EA76B4E49032BAB
:1055300096BF564A564B02EB83034FF0020098BFCA
:10554000D3F85C39584AB84794F84030012B7FF6BD
:105550007CAE6A7EA76B002A00F0FC804C4B53495E
:10556000012A08BF0B46524A3F490220B84794F827
:105570004030012B7FF669AEAB8BA76B4D4A3A49A1
:105580000220B84794F84030012B7FF65EAED5ED8F
:10559000087A9FED377A9FED366ADFED366AA76BA2
:1055A0003149F5EEC07AF1EE10FA48BFF1EE677AB4
:1055B00077EE877A4CBF304B304BBCEEE77AF5EE96
:1055C000C07AF1EE10FA17EE102A4CBFB1EE677AEE
:1055D000B0EE677A37EE067A0092BCEEC77A364AAA
:1055E000B8EE477A022077EEC77A67EEA67AFCEE2D
:1055F000E77ACDED017AB84794F84030012B7FF679
:1056000024AED5ED097A9FED1A7A9FED196ADFED88
:10561000196AA76B1449F5EEC07AF1EE10FA48BF8B
:10562000F1EE677A77EE877A4CBF134B134BBCEEE3
:10563000E77AF5EEC07AF1EE10FA17EE102A4CBFB9
:10564000B1EE677AB0EE677A37EE067A0092BCEE7A
:10565000C77A1A4AB8EE477A022077EEC77A33E063
:10566000B4000020EC6E0108C0680108086F010852
:10567000BD37063500247449BC6E0108907A0108D4
:10568000146F01082C6F0108406F0108D82501082C
:10569000C06E0108586F0108D06E0108C86E01087D
:1056A000686F0108906F0108AC6F0108E06E010897
:1056B000C46F0108DC6F0108047001083470010830
:1056C000BD3706350024744967EEA67AFCEEE77A0A
:1056D000CDED017AB84794F84030012B7FF6B5AD97
:1056E000D5ED0A7A1FED0A7A1FED0B6A5FED0B6AA2
:1056F000A56B1949F5EEC07AF1EE10FA48BFF1EE4C
:10570000677A77EE877A4CBF144B154BBCEEE77A7D
:10571000F5EEC07AF1EE10FA17EE102A4CBFB1EE9A
:10572000677AB0EE677A37EE067A0092BCEEC77AF7
:105730000C4AB8EE477A022077EEC77A67EEA67A6F
:10574000FCEEE77ACDED017AA847002E7FF480AD1C
:1057500003B0F0BD044B06E7C0680108BC6E010849
:10576000907A010860700108D86E0108704700BF88
:1057700030B583B041F4405114460025ADF8001017
:10578000012303226946ADF80250ADF80450FBF73F
:10579000B3FDBDF80430238003B030BD2DE9F04FD8
:1057A000ADF5137D06469C9C03930D469046002163
:1057B0004FF4E27221A80BF0CEFF13A8382200218B
:1057C0000BF0C9FF94F8C591B9F1000F0BD0744BE1
:1057D000744A9B6B744900209847002738460DF5A2
:1057E000137DBDE8F08FDFF8B8B109AF0BF50B7191
:1057F0000BAB009721AA2846FCF732F90028ECD021
:10580000394695F84B200BA813ABFBF713FD074661
:105810000028E2D09D99BDF858200A809E9ABDF8D4
:105820005C30138021A908AB07AA2046FAF710FDC7
:10583000BDF82020BDF81C309A4237D221A94FF480
:10584000E27220460CF0C2F8B5F8483033BB95F848
:105850004B20DFF860C1BBF82C3284F8C52101224F
:1058600084F8C4910CF1300E84F8C621A4F8C83134
:1058700004F5E57665460FCD754530607160B26020
:10588000F360AC4606F11006F4D1BBF88032A4F800
:10589000FA3138460DF5137DBDE8F08F95F84E903E
:1058A000B9F1000918BF4FF00109D0E708AA372164
:1058B0003046ADF82090FFF75BFFBDF820A01AF04E
:1058C000C00A12D008AB07AA21A92046FAF7C0FCEB
:1058D000BDF82030BDF81CA004939A4520D930466D
:1058E00001228021FBF7A0FDA8E708AA312130465C
:1058F000ADF820A0FFF73CFFBDF820204AF6C043DA
:105900009A42DFD09BF84030002B3FF466AFDBF8C3
:105910003840264A2649334601205746A0475DE7CE
:10592000049B03980233414606AAA3EB0A0807AB7F
:10593000FBF76CFC0798CDF814901FFA88F84045E7
:1059400028BF40460790DDF810800495A146039DCE
:1059500005E0079882441FFA8AFAD04511D30890CF
:10596000069908AB524621A8FBF7CAFB044600285B
:10597000EFD0089B2A464FEA5A013046FBF764FDF8
:10598000E7E7A0463046012280214C46049DDDF821
:105990001490FBF749FDB8F1000F3FF41EAF4DE73F
:1059A000B40000201C710108F86901085C7101084D
:1059B000807101080403002070B582B00DF1060269
:1059C000002437210546ADF80640FFF7D1FEBDF8AB
:1059D000063003F0C003B3B90DF1060200241C2108
:1059E0002846ADF80640FFF7C3FEBDF806301B059C
:1059F00015D50E4B0E4A9E6B0E4920462B46B047DE
:105A0000204602B070BD094B93F84020002AE3D035
:105A10009C6B094A07492B460120A047DCE7284632
:105A2000FBF7E8FC012002B070BD00BFB40000200D
:105A3000DC710108C4710108987101082DE9F04F6B
:105A4000ADF50F7D0C460646002192461DA84FF489
:105A5000E2721F46DDF8609205AD0BF07CFE382245
:105A600000210FA80BF077FE4649009520461DAA9D
:105A700007ABFBF7F5FF30B94FF0000840460DF5D6
:105A80000F7DBDE8F08F94F84B20294607A80FAB97
:105A9000FBF7D0FB0028EFD09999BDF848200A8089
:105AA0009A9ABDF84C301380384602AA002503AB01
:105AB0005146CDE90255FBF7A9FB3046FFF77CFFC5
:105AC000C0B1039840F6DD1B2A460299049004AB4E
:105AD0001DA8FBF715FB6908049B80463A46304633
